{
	"contracts/TokenSwap.sol": {
		"TokenSwap": {
			"abi": [
				{
					"inputs": [
						{
							"internalType": "address",
							"name": "_token1",
							"type": "address"
						},
						{
							"internalType": "address",
							"name": "_owner1",
							"type": "address"
						},
						{
							"internalType": "address",
							"name": "_token2",
							"type": "address"
						},
						{
							"internalType": "address",
							"name": "_owner2",
							"type": "address"
						}
					],
					"stateMutability": "nonpayable",
					"type": "constructor"
				},
				{
					"inputs": [
						{
							"internalType": "uint256",
							"name": "amount1",
							"type": "uint256"
						},
						{
							"internalType": "uint256",
							"name": "amount2",
							"type": "uint256"
						}
					],
					"name": "swap",
					"outputs": [],
					"stateMutability": "nonpayable",
					"type": "function"
				}
			],
			"devdoc": {
				"kind": "dev",
				"methods": {},
				"version": 1
			},
			"evm": {
				"assembly": "    /* \"contracts/TokenSwap.sol\":90:1340  contract TokenSwap {... */\n  mstore(0x40, 0x80)\n    /* \"contracts/TokenSwap.sol\":232:477  constructor(... */\n  callvalue\n  dup1\n  iszero\n  tag_1\n  jumpi\n  0x00\n  dup1\n  revert\ntag_1:\n  pop\n  mload(0x40)\n  sub(codesize, bytecodeSize)\n  dup1\n  bytecodeSize\n  dup4\n  codecopy\n  dup2\n  dup2\n  add\n  0x40\n  mstore\n  dup2\n  add\n  swap1\n  tag_2\n  swap2\n  swap1\n  tag_3\n  jump\t// in\ntag_2:\n    /* \"contracts/TokenSwap.sol\":376:383  _token1 */\n  dup4\n    /* \"contracts/TokenSwap.sol\":360:366  token1 */\n  0x00\n  dup1\n    /* \"contracts/TokenSwap.sol\":360:384  token1 = IERC20(_token1) */\n  0x0100\n  exp\n  dup2\n  sload\n  dup2\n  0xffffffffffffffffffffffffffffffffffffffff\n  mul\n  not\n  and\n  swap1\n  dup4\n  0xffffffffffffffffffffffffffffffffffffffff\n  and\n  mul\n  or\n  swap1\n  sstore\n  pop\n    /* \"contracts/TokenSwap.sol\":403:410  _owner1 */\n  dup3\n    /* \"contracts/TokenSwap.sol\":394:400  owner1 */\n  0x01\n  0x00\n    /* \"contracts/TokenSwap.sol\":394:410  owner1 = _owner1 */\n  0x0100\n  exp\n  dup2\n  sload\n  dup2\n  0xffffffffffffffffffffffffffffffffffffffff\n  mul\n  not\n  and\n  swap1\n  dup4\n  0xffffffffffffffffffffffffffffffffffffffff\n  and\n  mul\n  or\n  swap1\n  sstore\n  pop\n    /* \"contracts/TokenSwap.sol\":436:443  _token2 */\n  dup2\n    /* \"contracts/TokenSwap.sol\":420:426  token2 */\n  0x02\n  0x00\n    /* \"contracts/TokenSwap.sol\":420:444  token2 = IERC20(_token2) */\n  0x0100\n  exp\n  dup2\n  sload\n  dup2\n  0xffffffffffffffffffffffffffffffffffffffff\n  mul\n  not\n  and\n  swap1\n  dup4\n  0xffffffffffffffffffffffffffffffffffffffff\n  and\n  mul\n  or\n  swap1\n  sstore\n  pop\n    /* \"contracts/TokenSwap.sol\":463:470  _owner2 */\n  dup1\n    /* \"contracts/TokenSwap.sol\":454:460  owner2 */\n  0x03\n  0x00\n    /* \"contracts/TokenSwap.sol\":454:470  owner2 = _owner2 */\n  0x0100\n  exp\n  dup2\n  sload\n  dup2\n  0xffffffffffffffffffffffffffffffffffffffff\n  mul\n  not\n  and\n  swap1\n  dup4\n  0xffffffffffffffffffffffffffffffffffffffff\n  and\n  mul\n  or\n  swap1\n  sstore\n  pop\n    /* \"contracts/TokenSwap.sol\":232:477  constructor(... */\n  pop\n  pop\n  pop\n  pop\n    /* \"contracts/TokenSwap.sol\":90:1340  contract TokenSwap {... */\n  jump(tag_6)\n    /* \"#utility.yul\":7:150   */\ntag_8:\n    /* \"#utility.yul\":64:69   */\n  0x00\n    /* \"#utility.yul\":95:101   */\n  dup2\n    /* \"#utility.yul\":89:102   */\n  mload\n    /* \"#utility.yul\":80:102   */\n  swap1\n  pop\n    /* \"#utility.yul\":111:144   */\n  tag_10\n    /* \"#utility.yul\":138:143   */\n  dup2\n    /* \"#utility.yul\":111:144   */\n  tag_11\n  jump\t// in\ntag_10:\n    /* \"#utility.yul\":7:150   */\n  swap3\n  swap2\n  pop\n  pop\n  jump\t// out\n    /* \"#utility.yul\":156:976   */\ntag_3:\n    /* \"#utility.yul\":253:259   */\n  0x00\n    /* \"#utility.yul\":261:267   */\n  dup1\n    /* \"#utility.yul\":269:275   */\n  0x00\n    /* \"#utility.yul\":277:283   */\n  dup1\n    /* \"#utility.yul\":326:329   */\n  0x80\n    /* \"#utility.yul\":314:323   */\n  dup6\n    /* \"#utility.yul\":305:312   */\n  dup8\n    /* \"#utility.yul\":301:324   */\n  sub\n    /* \"#utility.yul\":297:330   */\n  slt\n    /* \"#utility.yul\":294:414   */\n  iszero\n  tag_13\n  jumpi\n    /* \"#utility.yul\":333:412   */\n  tag_14\n  tag_15\n  jump\t// in\ntag_14:\n    /* \"#utility.yul\":294:414   */\ntag_13:\n    /* \"#utility.yul\":453:454   */\n  0x00\n    /* \"#utility.yul\":478:542   */\n  tag_16\n    /* \"#utility.yul\":534:541   */\n  dup8\n    /* \"#utility.yul\":525:531   */\n  dup3\n    /* \"#utility.yul\":514:523   */\n  dup9\n    /* \"#utility.yul\":510:532   */\n  add\n    /* \"#utility.yul\":478:542   */\n  tag_8\n  jump\t// in\ntag_16:\n    /* \"#utility.yul\":468:542   */\n  swap5\n  pop\n    /* \"#utility.yul\":424:552   */\n  pop\n    /* \"#utility.yul\":591:593   */\n  0x20\n    /* \"#utility.yul\":617:681   */\n  tag_17\n    /* \"#utility.yul\":673:680   */\n  dup8\n    /* \"#utility.yul\":664:670   */\n  dup3\n    /* \"#utility.yul\":653:662   */\n  dup9\n    /* \"#utility.yul\":649:671   */\n  add\n    /* \"#utility.yul\":617:681   */\n  tag_8\n  jump\t// in\ntag_17:\n    /* \"#utility.yul\":607:681   */\n  swap4\n  pop\n    /* \"#utility.yul\":562:691   */\n  pop\n    /* \"#utility.yul\":730:732   */\n  0x40\n    /* \"#utility.yul\":756:820   */\n  tag_18\n    /* \"#utility.yul\":812:819   */\n  dup8\n    /* \"#utility.yul\":803:809   */\n  dup3\n    /* \"#utility.yul\":792:801   */\n  dup9\n    /* \"#utility.yul\":788:810   */\n  add\n    /* \"#utility.yul\":756:820   */\n  tag_8\n  jump\t// in\ntag_18:\n    /* \"#utility.yul\":746:820   */\n  swap3\n  pop\n    /* \"#utility.yul\":701:830   */\n  pop\n    /* \"#utility.yul\":869:871   */\n  0x60\n    /* \"#utility.yul\":895:959   */\n  tag_19\n    /* \"#utility.yul\":951:958   */\n  dup8\n    /* \"#utility.yul\":942:948   */\n  dup3\n    /* \"#utility.yul\":931:940   */\n  dup9\n    /* \"#utility.yul\":927:949   */\n  add\n    /* \"#utility.yul\":895:959   */\n  tag_8\n  jump\t// in\ntag_19:\n    /* \"#utility.yul\":885:959   */\n  swap2\n  pop\n    /* \"#utility.yul\":840:969   */\n  pop\n    /* \"#utility.yul\":156:976   */\n  swap3\n  swap6\n  swap2\n  swap5\n  pop\n  swap3\n  pop\n  jump\t// out\n    /* \"#utility.yul\":1063:1159   */\ntag_22:\n    /* \"#utility.yul\":1100:1107   */\n  0x00\n    /* \"#utility.yul\":1129:1153   */\n  tag_24\n    /* \"#utility.yul\":1147:1152   */\n  dup3\n    /* \"#utility.yul\":1129:1153   */\n  tag_25\n  jump\t// in\ntag_24:\n    /* \"#utility.yul\":1118:1153   */\n  swap1\n  pop\n    /* \"#utility.yul\":1063:1159   */\n  swap2\n  swap1\n  pop\n  jump\t// out\n    /* \"#utility.yul\":1165:1291   */\ntag_25:\n    /* \"#utility.yul\":1202:1209   */\n  0x00\n    /* \"#utility.yul\":1242:1284   */\n  0xffffffffffffffffffffffffffffffffffffffff\n    /* \"#utility.yul\":1235:1240   */\n  dup3\n    /* \"#utility.yul\":1231:1285   */\n  and\n    /* \"#utility.yul\":1220:1285   */\n  swap1\n  pop\n    /* \"#utility.yul\":1165:1291   */\n  swap2\n  swap1\n  pop\n  jump\t// out\n    /* \"#utility.yul\":1420:1537   */\ntag_15:\n    /* \"#utility.yul\":1529:1530   */\n  0x00\n    /* \"#utility.yul\":1526:1527   */\n  dup1\n    /* \"#utility.yul\":1519:1531   */\n  revert\n    /* \"#utility.yul\":1543:1665   */\ntag_11:\n    /* \"#utility.yul\":1616:1640   */\n  tag_31\n    /* \"#utility.yul\":1634:1639   */\n  dup2\n    /* \"#utility.yul\":1616:1640   */\n  tag_22\n  jump\t// in\ntag_31:\n    /* \"#utility.yul\":1609:1614   */\n  dup2\n    /* \"#utility.yul\":1606:1641   */\n  eq\n    /* \"#utility.yul\":1596:1659   */\n  tag_32\n  jumpi\n    /* \"#utility.yul\":1655:1656   */\n  0x00\n    /* \"#utility.yul\":1652:1653   */\n  dup1\n    /* \"#utility.yul\":1645:1657   */\n  revert\n    /* \"#utility.yul\":1596:1659   */\ntag_32:\n    /* \"#utility.yul\":1543:1665   */\n  pop\n  jump\t// out\n    /* \"contracts/TokenSwap.sol\":90:1340  contract TokenSwap {... */\ntag_6:\n  dataSize(sub_0)\n  dup1\n  dataOffset(sub_0)\n  0x00\n  codecopy\n  0x00\n  return\nstop\n\nsub_0: assembly {\n        /* \"contracts/TokenSwap.sol\":90:1340  contract TokenSwap {... */\n      mstore(0x40, 0x80)\n      callvalue\n      dup1\n      iszero\n      tag_1\n      jumpi\n      0x00\n      dup1\n      revert\n    tag_1:\n      pop\n      jumpi(tag_2, lt(calldatasize, 0x04))\n      shr(0xe0, calldataload(0x00))\n      dup1\n      0xd96073cf\n      eq\n      tag_3\n      jumpi\n    tag_2:\n      0x00\n      dup1\n      revert\n        /* \"contracts/TokenSwap.sol\":483:1075  function swap(uint amount1, uint amount2) public {... */\n    tag_3:\n      tag_4\n      0x04\n      dup1\n      calldatasize\n      sub\n      dup2\n      add\n      swap1\n      tag_5\n      swap2\n      swap1\n      tag_6\n      jump\t// in\n    tag_5:\n      tag_7\n      jump\t// in\n    tag_4:\n      stop\n    tag_7:\n        /* \"contracts/TokenSwap.sol\":564:570  owner1 */\n      0x01\n      0x00\n      swap1\n      sload\n      swap1\n      0x0100\n      exp\n      swap1\n      div\n      0xffffffffffffffffffffffffffffffffffffffff\n      and\n        /* \"contracts/TokenSwap.sol\":550:570  msg.sender == owner1 */\n      0xffffffffffffffffffffffffffffffffffffffff\n      and\n        /* \"contracts/TokenSwap.sol\":550:560  msg.sender */\n      caller\n        /* \"contracts/TokenSwap.sol\":550:570  msg.sender == owner1 */\n      0xffffffffffffffffffffffffffffffffffffffff\n      and\n      eq\n        /* \"contracts/TokenSwap.sol\":550:594  msg.sender == owner1 || msg.sender == owner2 */\n      dup1\n      tag_9\n      jumpi\n      pop\n        /* \"contracts/TokenSwap.sol\":588:594  owner2 */\n      0x03\n      0x00\n      swap1\n      sload\n      swap1\n      0x0100\n      exp\n      swap1\n      div\n      0xffffffffffffffffffffffffffffffffffffffff\n      and\n        /* \"contracts/TokenSwap.sol\":574:594  msg.sender == owner2 */\n      0xffffffffffffffffffffffffffffffffffffffff\n      and\n        /* \"contracts/TokenSwap.sol\":574:584  msg.sender */\n      caller\n        /* \"contracts/TokenSwap.sol\":574:594  msg.sender == owner2 */\n      0xffffffffffffffffffffffffffffffffffffffff\n      and\n      eq\n        /* \"contracts/TokenSwap.sol\":550:594  msg.sender == owner1 || msg.sender == owner2 */\n    tag_9:\n        /* \"contracts/TokenSwap.sol\":542:613  require(msg.sender == owner1 || msg.sender == owner2, \"Not authorized\") */\n      tag_10\n      jumpi\n      mload(0x40)\n      0x08c379a000000000000000000000000000000000000000000000000000000000\n      dup2\n      mstore\n      0x04\n      add\n      tag_11\n      swap1\n      tag_12\n      jump\t// in\n    tag_11:\n      mload(0x40)\n      dup1\n      swap2\n      sub\n      swap1\n      revert\n    tag_10:\n        /* \"contracts/TokenSwap.sol\":642:649  amount2 */\n      dup1\n        /* \"contracts/TokenSwap.sol\":631:638  amount1 */\n      dup3\n        /* \"contracts/TokenSwap.sol\":631:649  amount1 == amount2 */\n      eq\n        /* \"contracts/TokenSwap.sol\":623:675  require(amount1 == amount2, \"Amounts are not equal\") */\n      tag_13\n      jumpi\n      mload(0x40)\n      0x08c379a000000000000000000000000000000000000000000000000000000000\n      dup2\n      mstore\n      0x04\n      add\n      tag_14\n      swap1\n      tag_15\n      jump\t// in\n    tag_14:\n      mload(0x40)\n      dup1\n      swap2\n      sub\n      swap1\n      revert\n    tag_13:\n        /* \"contracts/TokenSwap.sol\":704:710  owner1 */\n      0x01\n      0x00\n      swap1\n      sload\n      swap1\n      0x0100\n      exp\n      swap1\n      div\n      0xffffffffffffffffffffffffffffffffffffffff\n      and\n        /* \"contracts/TokenSwap.sol\":690:710  msg.sender == owner1 */\n      0xffffffffffffffffffffffffffffffffffffffff\n      and\n        /* \"contracts/TokenSwap.sol\":690:700  msg.sender */\n      caller\n        /* \"contracts/TokenSwap.sol\":690:710  msg.sender == owner1 */\n      0xffffffffffffffffffffffffffffffffffffffff\n      and\n      eq\n        /* \"contracts/TokenSwap.sol\":686:1069  if (msg.sender == owner1){... */\n      iszero\n      tag_16\n      jumpi\n        /* \"contracts/TokenSwap.sol\":776:783  amount1 */\n      dup2\n        /* \"contracts/TokenSwap.sol\":733:739  token1 */\n      0x00\n      dup1\n      sload\n      swap1\n      0x0100\n      exp\n      swap1\n      div\n      0xffffffffffffffffffffffffffffffffffffffff\n      and\n        /* \"contracts/TokenSwap.sol\":733:749  token1.allowance */\n      0xffffffffffffffffffffffffffffffffffffffff\n      and\n      0xdd62ed3e\n        /* \"contracts/TokenSwap.sol\":750:756  owner1 */\n      0x01\n      0x00\n      swap1\n      sload\n      swap1\n      0x0100\n      exp\n      swap1\n      div\n      0xffffffffffffffffffffffffffffffffffffffff\n      and\n        /* \"contracts/TokenSwap.sol\":766:770  this */\n      address\n        /* \"contracts/TokenSwap.sol\":733:772  token1.allowance(owner1, address(this)) */\n      mload(0x40)\n      dup4\n      0xffffffff\n      and\n      0xe0\n      shl\n      dup2\n      mstore\n      0x04\n      add\n      tag_17\n      swap3\n      swap2\n      swap1\n      tag_18\n      jump\t// in\n    tag_17:\n      0x20\n      mload(0x40)\n      dup1\n      dup4\n      sub\n      dup2\n      dup7\n      dup1\n      extcodesize\n      iszero\n      dup1\n      iszero\n      tag_19\n      jumpi\n      0x00\n      dup1\n      revert\n    tag_19:\n      pop\n      gas\n      staticcall\n      iszero\n      dup1\n      iszero\n      tag_21\n      jumpi\n      returndatasize\n      0x00\n      dup1\n      returndatacopy\n      revert(0x00, returndatasize)\n    tag_21:\n      pop\n      pop\n      pop\n      pop\n      mload(0x40)\n      returndatasize\n      not(0x1f)\n      0x1f\n      dup3\n      add\n      and\n      dup3\n      add\n      dup1\n      0x40\n      mstore\n      pop\n      dup2\n      add\n      swap1\n      tag_22\n      swap2\n      swap1\n      tag_23\n      jump\t// in\n    tag_22:\n        /* \"contracts/TokenSwap.sol\":733:783  token1.allowance(owner1, address(this)) >= amount1 */\n      lt\n      iszero\n        /* \"contracts/TokenSwap.sol\":725:813  require(token1.allowance(owner1, address(this)) >= amount1, \"Token 1 allowance too low\") */\n      tag_24\n      jumpi\n      mload(0x40)\n      0x08c379a000000000000000000000000000000000000000000000000000000000\n      dup2\n      mstore\n      0x04\n      add\n      tag_25\n      swap1\n      tag_26\n      jump\t// in\n    tag_25:\n      mload(0x40)\n      dup1\n      swap2\n      sub\n      swap1\n      revert\n    tag_24:\n        /* \"contracts/TokenSwap.sol\":827:877  _safeTransferFrom(token1, owner1, owner2, amount1) */\n      tag_27\n        /* \"contracts/TokenSwap.sol\":845:851  token1 */\n      0x00\n      dup1\n      sload\n      swap1\n      0x0100\n      exp\n      swap1\n      div\n      0xffffffffffffffffffffffffffffffffffffffff\n      and\n        /* \"contracts/TokenSwap.sol\":853:859  owner1 */\n      0x01\n      0x00\n      swap1\n      sload\n      swap1\n      0x0100\n      exp\n      swap1\n      div\n      0xffffffffffffffffffffffffffffffffffffffff\n      and\n        /* \"contracts/TokenSwap.sol\":861:867  owner2 */\n      0x03\n      0x00\n      swap1\n      sload\n      swap1\n      0x0100\n      exp\n      swap1\n      div\n      0xffffffffffffffffffffffffffffffffffffffff\n      and\n        /* \"contracts/TokenSwap.sol\":869:876  amount1 */\n      dup6\n        /* \"contracts/TokenSwap.sol\":827:844  _safeTransferFrom */\n      tag_28\n        /* \"contracts/TokenSwap.sol\":827:877  _safeTransferFrom(token1, owner1, owner2, amount1) */\n      jump\t// in\n    tag_27:\n        /* \"contracts/TokenSwap.sol\":686:1069  if (msg.sender == owner1){... */\n      jump(tag_29)\n    tag_16:\n        /* \"contracts/TokenSwap.sol\":957:964  amount2 */\n      dup1\n        /* \"contracts/TokenSwap.sol\":914:920  token2 */\n      0x02\n      0x00\n      swap1\n      sload\n      swap1\n      0x0100\n      exp\n      swap1\n      div\n      0xffffffffffffffffffffffffffffffffffffffff\n      and\n        /* \"contracts/TokenSwap.sol\":914:930  token2.allowance */\n      0xffffffffffffffffffffffffffffffffffffffff\n      and\n      0xdd62ed3e\n        /* \"contracts/TokenSwap.sol\":931:937  owner2 */\n      0x03\n      0x00\n      swap1\n      sload\n      swap1\n      0x0100\n      exp\n      swap1\n      div\n      0xffffffffffffffffffffffffffffffffffffffff\n      and\n        /* \"contracts/TokenSwap.sol\":947:951  this */\n      address\n        /* \"contracts/TokenSwap.sol\":914:953  token2.allowance(owner2, address(this)) */\n      mload(0x40)\n      dup4\n      0xffffffff\n      and\n      0xe0\n      shl\n      dup2\n      mstore\n      0x04\n      add\n      tag_30\n      swap3\n      swap2\n      swap1\n      tag_18\n      jump\t// in\n    tag_30:\n      0x20\n      mload(0x40)\n      dup1\n      dup4\n      sub\n      dup2\n      dup7\n      dup1\n      extcodesize\n      iszero\n      dup1\n      iszero\n      tag_31\n      jumpi\n      0x00\n      dup1\n      revert\n    tag_31:\n      pop\n      gas\n      staticcall\n      iszero\n      dup1\n      iszero\n      tag_33\n      jumpi\n      returndatasize\n      0x00\n      dup1\n      returndatacopy\n      revert(0x00, returndatasize)\n    tag_33:\n      pop\n      pop\n      pop\n      pop\n      mload(0x40)\n      returndatasize\n      not(0x1f)\n      0x1f\n      dup3\n      add\n      and\n      dup3\n      add\n      dup1\n      0x40\n      mstore\n      pop\n      dup2\n      add\n      swap1\n      tag_34\n      swap2\n      swap1\n      tag_23\n      jump\t// in\n    tag_34:\n        /* \"contracts/TokenSwap.sol\":914:964  token2.allowance(owner2, address(this)) >= amount2 */\n      lt\n      iszero\n        /* \"contracts/TokenSwap.sol\":906:994  require(token2.allowance(owner2, address(this)) >= amount2, \"Token 2 allowance too low\") */\n      tag_35\n      jumpi\n      mload(0x40)\n      0x08c379a000000000000000000000000000000000000000000000000000000000\n      dup2\n      mstore\n      0x04\n      add\n      tag_36\n      swap1\n      tag_37\n      jump\t// in\n    tag_36:\n      mload(0x40)\n      dup1\n      swap2\n      sub\n      swap1\n      revert\n    tag_35:\n        /* \"contracts/TokenSwap.sol\":1008:1058  _safeTransferFrom(token2, owner2, owner1, amount2) */\n      tag_38\n        /* \"contracts/TokenSwap.sol\":1026:1032  token2 */\n      0x02\n      0x00\n      swap1\n      sload\n      swap1\n      0x0100\n      exp\n      swap1\n      div\n      0xffffffffffffffffffffffffffffffffffffffff\n      and\n        /* \"contracts/TokenSwap.sol\":1034:1040  owner2 */\n      0x03\n      0x00\n      swap1\n      sload\n      swap1\n      0x0100\n      exp\n      swap1\n      div\n      0xffffffffffffffffffffffffffffffffffffffff\n      and\n        /* \"contracts/TokenSwap.sol\":1042:1048  owner1 */\n      0x01\n      0x00\n      swap1\n      sload\n      swap1\n      0x0100\n      exp\n      swap1\n      div\n      0xffffffffffffffffffffffffffffffffffffffff\n      and\n        /* \"contracts/TokenSwap.sol\":1050:1057  amount2 */\n      dup5\n        /* \"contracts/TokenSwap.sol\":1008:1025  _safeTransferFrom */\n      tag_28\n        /* \"contracts/TokenSwap.sol\":1008:1058  _safeTransferFrom(token2, owner2, owner1, amount2) */\n      jump\t// in\n    tag_38:\n        /* \"contracts/TokenSwap.sol\":686:1069  if (msg.sender == owner1){... */\n    tag_29:\n        /* \"contracts/TokenSwap.sol\":483:1075  function swap(uint amount1, uint amount2) public {... */\n      pop\n      pop\n      jump\t// out\n        /* \"contracts/TokenSwap.sol\":1081:1338  function _safeTransferFrom(... */\n    tag_28:\n        /* \"contracts/TokenSwap.sol\":1226:1235  bool sent */\n      0x00\n        /* \"contracts/TokenSwap.sol\":1238:1243  token */\n      dup5\n        /* \"contracts/TokenSwap.sol\":1238:1256  token.transferFrom */\n      0xffffffffffffffffffffffffffffffffffffffff\n      and\n      0x23b872dd\n        /* \"contracts/TokenSwap.sol\":1257:1263  sender */\n      dup6\n        /* \"contracts/TokenSwap.sol\":1265:1274  recipient */\n      dup6\n        /* \"contracts/TokenSwap.sol\":1276:1282  amount */\n      dup6\n        /* \"contracts/TokenSwap.sol\":1238:1283  token.transferFrom(sender, recipient, amount) */\n      mload(0x40)\n      dup5\n      0xffffffff\n      and\n      0xe0\n      shl\n      dup2\n      mstore\n      0x04\n      add\n      tag_40\n      swap4\n      swap3\n      swap2\n      swap1\n      tag_41\n      jump\t// in\n    tag_40:\n      0x20\n      mload(0x40)\n      dup1\n      dup4\n      sub\n      dup2\n      0x00\n      dup8\n      dup1\n      extcodesize\n      iszero\n      dup1\n      iszero\n      tag_42\n      jumpi\n      0x00\n      dup1\n      revert\n    tag_42:\n      pop\n      gas\n      call\n      iszero\n      dup1\n      iszero\n      tag_44\n      jumpi\n      returndatasize\n      0x00\n      dup1\n      returndatacopy\n      revert(0x00, returndatasize)\n    tag_44:\n      pop\n      pop\n      pop\n      pop\n      mload(0x40)\n      returndatasize\n      not(0x1f)\n      0x1f\n      dup3\n      add\n      and\n      dup3\n      add\n      dup1\n      0x40\n      mstore\n      pop\n      dup2\n      add\n      swap1\n      tag_45\n      swap2\n      swap1\n      tag_46\n      jump\t// in\n    tag_45:\n        /* \"contracts/TokenSwap.sol\":1226:1283  bool sent = token.transferFrom(sender, recipient, amount) */\n      swap1\n      pop\n        /* \"contracts/TokenSwap.sol\":1301:1305  sent */\n      dup1\n        /* \"contracts/TokenSwap.sol\":1293:1331  require(sent, \"Token transfer failed\") */\n      tag_47\n      jumpi\n      mload(0x40)\n      0x08c379a000000000000000000000000000000000000000000000000000000000\n      dup2\n      mstore\n      0x04\n      add\n      tag_48\n      swap1\n      tag_49\n      jump\t// in\n    tag_48:\n      mload(0x40)\n      dup1\n      swap2\n      sub\n      swap1\n      revert\n    tag_47:\n        /* \"contracts/TokenSwap.sol\":1216:1338  {... */\n      pop\n        /* \"contracts/TokenSwap.sol\":1081:1338  function _safeTransferFrom(... */\n      pop\n      pop\n      pop\n      pop\n      jump\t// out\n        /* \"#utility.yul\":7:144   */\n    tag_51:\n        /* \"#utility.yul\":61:66   */\n      0x00\n        /* \"#utility.yul\":92:98   */\n      dup2\n        /* \"#utility.yul\":86:99   */\n      mload\n        /* \"#utility.yul\":77:99   */\n      swap1\n      pop\n        /* \"#utility.yul\":108:138   */\n      tag_53\n        /* \"#utility.yul\":132:137   */\n      dup2\n        /* \"#utility.yul\":108:138   */\n      tag_54\n      jump\t// in\n    tag_53:\n        /* \"#utility.yul\":7:144   */\n      swap3\n      swap2\n      pop\n      pop\n      jump\t// out\n        /* \"#utility.yul\":150:289   */\n    tag_55:\n        /* \"#utility.yul\":196:201   */\n      0x00\n        /* \"#utility.yul\":234:240   */\n      dup2\n        /* \"#utility.yul\":221:241   */\n      calldataload\n        /* \"#utility.yul\":212:241   */\n      swap1\n      pop\n        /* \"#utility.yul\":250:283   */\n      tag_57\n        /* \"#utility.yul\":277:282   */\n      dup2\n        /* \"#utility.yul\":250:283   */\n      tag_58\n      jump\t// in\n    tag_57:\n        /* \"#utility.yul\":150:289   */\n      swap3\n      swap2\n      pop\n      pop\n      jump\t// out\n        /* \"#utility.yul\":295:438   */\n    tag_59:\n        /* \"#utility.yul\":352:357   */\n      0x00\n        /* \"#utility.yul\":383:389   */\n      dup2\n        /* \"#utility.yul\":377:390   */\n      mload\n        /* \"#utility.yul\":368:390   */\n      swap1\n      pop\n        /* \"#utility.yul\":399:432   */\n      tag_61\n        /* \"#utility.yul\":426:431   */\n      dup2\n        /* \"#utility.yul\":399:432   */\n      tag_58\n      jump\t// in\n    tag_61:\n        /* \"#utility.yul\":295:438   */\n      swap3\n      swap2\n      pop\n      pop\n      jump\t// out\n        /* \"#utility.yul\":444:789   */\n    tag_46:\n        /* \"#utility.yul\":511:517   */\n      0x00\n        /* \"#utility.yul\":560:562   */\n      0x20\n        /* \"#utility.yul\":548:557   */\n      dup3\n        /* \"#utility.yul\":539:546   */\n      dup5\n        /* \"#utility.yul\":535:558   */\n      sub\n        /* \"#utility.yul\":531:563   */\n      slt\n        /* \"#utility.yul\":528:647   */\n      iszero\n      tag_63\n      jumpi\n        /* \"#utility.yul\":566:645   */\n      tag_64\n      tag_65\n      jump\t// in\n    tag_64:\n        /* \"#utility.yul\":528:647   */\n    tag_63:\n        /* \"#utility.yul\":686:687   */\n      0x00\n        /* \"#utility.yul\":711:772   */\n      tag_66\n        /* \"#utility.yul\":764:771   */\n      dup5\n        /* \"#utility.yul\":755:761   */\n      dup3\n        /* \"#utility.yul\":744:753   */\n      dup6\n        /* \"#utility.yul\":740:762   */\n      add\n        /* \"#utility.yul\":711:772   */\n      tag_51\n      jump\t// in\n    tag_66:\n        /* \"#utility.yul\":701:772   */\n      swap2\n      pop\n        /* \"#utility.yul\":657:782   */\n      pop\n        /* \"#utility.yul\":444:789   */\n      swap3\n      swap2\n      pop\n      pop\n      jump\t// out\n        /* \"#utility.yul\":795:1146   */\n    tag_23:\n        /* \"#utility.yul\":865:871   */\n      0x00\n        /* \"#utility.yul\":914:916   */\n      0x20\n        /* \"#utility.yul\":902:911   */\n      dup3\n        /* \"#utility.yul\":893:900   */\n      dup5\n        /* \"#utility.yul\":889:912   */\n      sub\n        /* \"#utility.yul\":885:917   */\n      slt\n        /* \"#utility.yul\":882:1001   */\n      iszero\n      tag_68\n      jumpi\n        /* \"#utility.yul\":920:999   */\n      tag_69\n      tag_65\n      jump\t// in\n    tag_69:\n        /* \"#utility.yul\":882:1001   */\n    tag_68:\n        /* \"#utility.yul\":1040:1041   */\n      0x00\n        /* \"#utility.yul\":1065:1129   */\n      tag_70\n        /* \"#utility.yul\":1121:1128   */\n      dup5\n        /* \"#utility.yul\":1112:1118   */\n      dup3\n        /* \"#utility.yul\":1101:1110   */\n      dup6\n        /* \"#utility.yul\":1097:1119   */\n      add\n        /* \"#utility.yul\":1065:1129   */\n      tag_59\n      jump\t// in\n    tag_70:\n        /* \"#utility.yul\":1055:1129   */\n      swap2\n      pop\n        /* \"#utility.yul\":1011:1139   */\n      pop\n        /* \"#utility.yul\":795:1146   */\n      swap3\n      swap2\n      pop\n      pop\n      jump\t// out\n        /* \"#utility.yul\":1152:1626   */\n    tag_6:\n        /* \"#utility.yul\":1220:1226   */\n      0x00\n        /* \"#utility.yul\":1228:1234   */\n      dup1\n        /* \"#utility.yul\":1277:1279   */\n      0x40\n        /* \"#utility.yul\":1265:1274   */\n      dup4\n        /* \"#utility.yul\":1256:1263   */\n      dup6\n        /* \"#utility.yul\":1252:1275   */\n      sub\n        /* \"#utility.yul\":1248:1280   */\n      slt\n        /* \"#utility.yul\":1245:1364   */\n      iszero\n      tag_72\n      jumpi\n        /* \"#utility.yul\":1283:1362   */\n      tag_73\n      tag_65\n      jump\t// in\n    tag_73:\n        /* \"#utility.yul\":1245:1364   */\n    tag_72:\n        /* \"#utility.yul\":1403:1404   */\n      0x00\n        /* \"#utility.yul\":1428:1481   */\n      tag_74\n        /* \"#utility.yul\":1473:1480   */\n      dup6\n        /* \"#utility.yul\":1464:1470   */\n      dup3\n        /* \"#utility.yul\":1453:1462   */\n      dup7\n        /* \"#utility.yul\":1449:1471   */\n      add\n        /* \"#utility.yul\":1428:1481   */\n      tag_55\n      jump\t// in\n    tag_74:\n        /* \"#utility.yul\":1418:1481   */\n      swap3\n      pop\n        /* \"#utility.yul\":1374:1491   */\n      pop\n        /* \"#utility.yul\":1530:1532   */\n      0x20\n        /* \"#utility.yul\":1556:1609   */\n      tag_75\n        /* \"#utility.yul\":1601:1608   */\n      dup6\n        /* \"#utility.yul\":1592:1598   */\n      dup3\n        /* \"#utility.yul\":1581:1590   */\n      dup7\n        /* \"#utility.yul\":1577:1599   */\n      add\n        /* \"#utility.yul\":1556:1609   */\n      tag_55\n      jump\t// in\n    tag_75:\n        /* \"#utility.yul\":1546:1609   */\n      swap2\n      pop\n        /* \"#utility.yul\":1501:1619   */\n      pop\n        /* \"#utility.yul\":1152:1626   */\n      swap3\n      pop\n      swap3\n      swap1\n      pop\n      jump\t// out\n        /* \"#utility.yul\":1632:1750   */\n    tag_76:\n        /* \"#utility.yul\":1719:1743   */\n      tag_78\n        /* \"#utility.yul\":1737:1742   */\n      dup2\n        /* \"#utility.yul\":1719:1743   */\n      tag_79\n      jump\t// in\n    tag_78:\n        /* \"#utility.yul\":1714:1717   */\n      dup3\n        /* \"#utility.yul\":1707:1744   */\n      mstore\n        /* \"#utility.yul\":1632:1750   */\n      pop\n      pop\n      jump\t// out\n        /* \"#utility.yul\":1756:2122   */\n    tag_80:\n        /* \"#utility.yul\":1898:1901   */\n      0x00\n        /* \"#utility.yul\":1919:1986   */\n      tag_82\n        /* \"#utility.yul\":1983:1985   */\n      0x19\n        /* \"#utility.yul\":1978:1981   */\n      dup4\n        /* \"#utility.yul\":1919:1986   */\n      tag_83\n      jump\t// in\n    tag_82:\n        /* \"#utility.yul\":1912:1986   */\n      swap2\n      pop\n        /* \"#utility.yul\":1995:2088   */\n      tag_84\n        /* \"#utility.yul\":2084:2087   */\n      dup3\n        /* \"#utility.yul\":1995:2088   */\n      tag_85\n      jump\t// in\n    tag_84:\n        /* \"#utility.yul\":2113:2115   */\n      0x20\n        /* \"#utility.yul\":2108:2111   */\n      dup3\n        /* \"#utility.yul\":2104:2116   */\n      add\n        /* \"#utility.yul\":2097:2116   */\n      swap1\n      pop\n        /* \"#utility.yul\":1756:2122   */\n      swap2\n      swap1\n      pop\n      jump\t// out\n        /* \"#utility.yul\":2128:2494   */\n    tag_86:\n        /* \"#utility.yul\":2270:2273   */\n      0x00\n        /* \"#utility.yul\":2291:2358   */\n      tag_88\n        /* \"#utility.yul\":2355:2357   */\n      0x15\n        /* \"#utility.yul\":2350:2353   */\n      dup4\n        /* \"#utility.yul\":2291:2358   */\n      tag_83\n      jump\t// in\n    tag_88:\n        /* \"#utility.yul\":2284:2358   */\n      swap2\n      pop\n        /* \"#utility.yul\":2367:2460   */\n      tag_89\n        /* \"#utility.yul\":2456:2459   */\n      dup3\n        /* \"#utility.yul\":2367:2460   */\n      tag_90\n      jump\t// in\n    tag_89:\n        /* \"#utility.yul\":2485:2487   */\n      0x20\n        /* \"#utility.yul\":2480:2483   */\n      dup3\n        /* \"#utility.yul\":2476:2488   */\n      add\n        /* \"#utility.yul\":2469:2488   */\n      swap1\n      pop\n        /* \"#utility.yul\":2128:2494   */\n      swap2\n      swap1\n      pop\n      jump\t// out\n        /* \"#utility.yul\":2500:2866   */\n    tag_91:\n        /* \"#utility.yul\":2642:2645   */\n      0x00\n        /* \"#utility.yul\":2663:2730   */\n      tag_93\n        /* \"#utility.yul\":2727:2729   */\n      0x19\n        /* \"#utility.yul\":2722:2725   */\n      dup4\n        /* \"#utility.yul\":2663:2730   */\n      tag_83\n      jump\t// in\n    tag_93:\n        /* \"#utility.yul\":2656:2730   */\n      swap2\n      pop\n        /* \"#utility.yul\":2739:2832   */\n      tag_94\n        /* \"#utility.yul\":2828:2831   */\n      dup3\n        /* \"#utility.yul\":2739:2832   */\n      tag_95\n      jump\t// in\n    tag_94:\n        /* \"#utility.yul\":2857:2859   */\n      0x20\n        /* \"#utility.yul\":2852:2855   */\n      dup3\n        /* \"#utility.yul\":2848:2860   */\n      add\n        /* \"#utility.yul\":2841:2860   */\n      swap1\n      pop\n        /* \"#utility.yul\":2500:2866   */\n      swap2\n      swap1\n      pop\n      jump\t// out\n        /* \"#utility.yul\":2872:3238   */\n    tag_96:\n        /* \"#utility.yul\":3014:3017   */\n      0x00\n        /* \"#utility.yul\":3035:3102   */\n      tag_98\n        /* \"#utility.yul\":3099:3101   */\n      0x15\n        /* \"#utility.yul\":3094:3097   */\n      dup4\n        /* \"#utility.yul\":3035:3102   */\n      tag_83\n      jump\t// in\n    tag_98:\n        /* \"#utility.yul\":3028:3102   */\n      swap2\n      pop\n        /* \"#utility.yul\":3111:3204   */\n      tag_99\n        /* \"#utility.yul\":3200:3203   */\n      dup3\n        /* \"#utility.yul\":3111:3204   */\n      tag_100\n      jump\t// in\n    tag_99:\n        /* \"#utility.yul\":3229:3231   */\n      0x20\n        /* \"#utility.yul\":3224:3227   */\n      dup3\n        /* \"#utility.yul\":3220:3232   */\n      add\n        /* \"#utility.yul\":3213:3232   */\n      swap1\n      pop\n        /* \"#utility.yul\":2872:3238   */\n      swap2\n      swap1\n      pop\n      jump\t// out\n        /* \"#utility.yul\":3244:3610   */\n    tag_101:\n        /* \"#utility.yul\":3386:3389   */\n      0x00\n        /* \"#utility.yul\":3407:3474   */\n      tag_103\n        /* \"#utility.yul\":3471:3473   */\n      0x0e\n        /* \"#utility.yul\":3466:3469   */\n      dup4\n        /* \"#utility.yul\":3407:3474   */\n      tag_83\n      jump\t// in\n    tag_103:\n        /* \"#utility.yul\":3400:3474   */\n      swap2\n      pop\n        /* \"#utility.yul\":3483:3576   */\n      tag_104\n        /* \"#utility.yul\":3572:3575   */\n      dup3\n        /* \"#utility.yul\":3483:3576   */\n      tag_105\n      jump\t// in\n    tag_104:\n        /* \"#utility.yul\":3601:3603   */\n      0x20\n        /* \"#utility.yul\":3596:3599   */\n      dup3\n        /* \"#utility.yul\":3592:3604   */\n      add\n        /* \"#utility.yul\":3585:3604   */\n      swap1\n      pop\n        /* \"#utility.yul\":3244:3610   */\n      swap2\n      swap1\n      pop\n      jump\t// out\n        /* \"#utility.yul\":3616:3734   */\n    tag_106:\n        /* \"#utility.yul\":3703:3727   */\n      tag_108\n        /* \"#utility.yul\":3721:3726   */\n      dup2\n        /* \"#utility.yul\":3703:3727   */\n      tag_109\n      jump\t// in\n    tag_108:\n        /* \"#utility.yul\":3698:3701   */\n      dup3\n        /* \"#utility.yul\":3691:3728   */\n      mstore\n        /* \"#utility.yul\":3616:3734   */\n      pop\n      pop\n      jump\t// out\n        /* \"#utility.yul\":3740:4072   */\n    tag_18:\n        /* \"#utility.yul\":3861:3865   */\n      0x00\n        /* \"#utility.yul\":3899:3901   */\n      0x40\n        /* \"#utility.yul\":3888:3897   */\n      dup3\n        /* \"#utility.yul\":3884:3902   */\n      add\n        /* \"#utility.yul\":3876:3902   */\n      swap1\n      pop\n        /* \"#utility.yul\":3912:3983   */\n      tag_111\n        /* \"#utility.yul\":3980:3981   */\n      0x00\n        /* \"#utility.yul\":3969:3978   */\n      dup4\n        /* \"#utility.yul\":3965:3982   */\n      add\n        /* \"#utility.yul\":3956:3962   */\n      dup6\n        /* \"#utility.yul\":3912:3983   */\n      tag_76\n      jump\t// in\n    tag_111:\n        /* \"#utility.yul\":3993:4065   */\n      tag_112\n        /* \"#utility.yul\":4061:4063   */\n      0x20\n        /* \"#utility.yul\":4050:4059   */\n      dup4\n        /* \"#utility.yul\":4046:4064   */\n      add\n        /* \"#utility.yul\":4037:4043   */\n      dup5\n        /* \"#utility.yul\":3993:4065   */\n      tag_76\n      jump\t// in\n    tag_112:\n        /* \"#utility.yul\":3740:4072   */\n      swap4\n      swap3\n      pop\n      pop\n      pop\n      jump\t// out\n        /* \"#utility.yul\":4078:4520   */\n    tag_41:\n        /* \"#utility.yul\":4227:4231   */\n      0x00\n        /* \"#utility.yul\":4265:4267   */\n      0x60\n        /* \"#utility.yul\":4254:4263   */\n      dup3\n        /* \"#utility.yul\":4250:4268   */\n      add\n        /* \"#utility.yul\":4242:4268   */\n      swap1\n      pop\n        /* \"#utility.yul\":4278:4349   */\n      tag_114\n        /* \"#utility.yul\":4346:4347   */\n      0x00\n        /* \"#utility.yul\":4335:4344   */\n      dup4\n        /* \"#utility.yul\":4331:4348   */\n      add\n        /* \"#utility.yul\":4322:4328   */\n      dup7\n        /* \"#utility.yul\":4278:4349   */\n      tag_76\n      jump\t// in\n    tag_114:\n        /* \"#utility.yul\":4359:4431   */\n      tag_115\n        /* \"#utility.yul\":4427:4429   */\n      0x20\n        /* \"#utility.yul\":4416:4425   */\n      dup4\n        /* \"#utility.yul\":4412:4430   */\n      add\n        /* \"#utility.yul\":4403:4409   */\n      dup6\n        /* \"#utility.yul\":4359:4431   */\n      tag_76\n      jump\t// in\n    tag_115:\n        /* \"#utility.yul\":4441:4513   */\n      tag_116\n        /* \"#utility.yul\":4509:4511   */\n      0x40\n        /* \"#utility.yul\":4498:4507   */\n      dup4\n        /* \"#utility.yul\":4494:4512   */\n      add\n        /* \"#utility.yul\":4485:4491   */\n      dup5\n        /* \"#utility.yul\":4441:4513   */\n      tag_106\n      jump\t// in\n    tag_116:\n        /* \"#utility.yul\":4078:4520   */\n      swap5\n      swap4\n      pop\n      pop\n      pop\n      pop\n      jump\t// out\n        /* \"#utility.yul\":4526:4945   */\n    tag_37:\n        /* \"#utility.yul\":4692:4696   */\n      0x00\n        /* \"#utility.yul\":4730:4732   */\n      0x20\n        /* \"#utility.yul\":4719:4728   */\n      dup3\n        /* \"#utility.yul\":4715:4733   */\n      add\n        /* \"#utility.yul\":4707:4733   */\n      swap1\n      pop\n        /* \"#utility.yul\":4779:4788   */\n      dup2\n        /* \"#utility.yul\":4773:4777   */\n      dup2\n        /* \"#utility.yul\":4769:4789   */\n      sub\n        /* \"#utility.yul\":4765:4766   */\n      0x00\n        /* \"#utility.yul\":4754:4763   */\n      dup4\n        /* \"#utility.yul\":4750:4767   */\n      add\n        /* \"#utility.yul\":4743:4790   */\n      mstore\n        /* \"#utility.yul\":4807:4938   */\n      tag_118\n        /* \"#utility.yul\":4933:4937   */\n      dup2\n        /* \"#utility.yul\":4807:4938   */\n      tag_80\n      jump\t// in\n    tag_118:\n        /* \"#utility.yul\":4799:4938   */\n      swap1\n      pop\n        /* \"#utility.yul\":4526:4945   */\n      swap2\n      swap1\n      pop\n      jump\t// out\n        /* \"#utility.yul\":4951:5370   */\n    tag_49:\n        /* \"#utility.yul\":5117:5121   */\n      0x00\n        /* \"#utility.yul\":5155:5157   */\n      0x20\n        /* \"#utility.yul\":5144:5153   */\n      dup3\n        /* \"#utility.yul\":5140:5158   */\n      add\n        /* \"#utility.yul\":5132:5158   */\n      swap1\n      pop\n        /* \"#utility.yul\":5204:5213   */\n      dup2\n        /* \"#utility.yul\":5198:5202   */\n      dup2\n        /* \"#utility.yul\":5194:5214   */\n      sub\n        /* \"#utility.yul\":5190:5191   */\n      0x00\n        /* \"#utility.yul\":5179:5188   */\n      dup4\n        /* \"#utility.yul\":5175:5192   */\n      add\n        /* \"#utility.yul\":5168:5215   */\n      mstore\n        /* \"#utility.yul\":5232:5363   */\n      tag_120\n        /* \"#utility.yul\":5358:5362   */\n      dup2\n        /* \"#utility.yul\":5232:5363   */\n      tag_86\n      jump\t// in\n    tag_120:\n        /* \"#utility.yul\":5224:5363   */\n      swap1\n      pop\n        /* \"#utility.yul\":4951:5370   */\n      swap2\n      swap1\n      pop\n      jump\t// out\n        /* \"#utility.yul\":5376:5795   */\n    tag_26:\n        /* \"#utility.yul\":5542:5546   */\n      0x00\n        /* \"#utility.yul\":5580:5582   */\n      0x20\n        /* \"#utility.yul\":5569:5578   */\n      dup3\n        /* \"#utility.yul\":5565:5583   */\n      add\n        /* \"#utility.yul\":5557:5583   */\n      swap1\n      pop\n        /* \"#utility.yul\":5629:5638   */\n      dup2\n        /* \"#utility.yul\":5623:5627   */\n      dup2\n        /* \"#utility.yul\":5619:5639   */\n      sub\n        /* \"#utility.yul\":5615:5616   */\n      0x00\n        /* \"#utility.yul\":5604:5613   */\n      dup4\n        /* \"#utility.yul\":5600:5617   */\n      add\n        /* \"#utility.yul\":5593:5640   */\n      mstore\n        /* \"#utility.yul\":5657:5788   */\n      tag_122\n        /* \"#utility.yul\":5783:5787   */\n      dup2\n        /* \"#utility.yul\":5657:5788   */\n      tag_91\n      jump\t// in\n    tag_122:\n        /* \"#utility.yul\":5649:5788   */\n      swap1\n      pop\n        /* \"#utility.yul\":5376:5795   */\n      swap2\n      swap1\n      pop\n      jump\t// out\n        /* \"#utility.yul\":5801:6220   */\n    tag_15:\n        /* \"#utility.yul\":5967:5971   */\n      0x00\n        /* \"#utility.yul\":6005:6007   */\n      0x20\n        /* \"#utility.yul\":5994:6003   */\n      dup3\n        /* \"#utility.yul\":5990:6008   */\n      add\n        /* \"#utility.yul\":5982:6008   */\n      swap1\n      pop\n        /* \"#utility.yul\":6054:6063   */\n      dup2\n        /* \"#utility.yul\":6048:6052   */\n      dup2\n        /* \"#utility.yul\":6044:6064   */\n      sub\n        /* \"#utility.yul\":6040:6041   */\n      0x00\n        /* \"#utility.yul\":6029:6038   */\n      dup4\n        /* \"#utility.yul\":6025:6042   */\n      add\n        /* \"#utility.yul\":6018:6065   */\n      mstore\n        /* \"#utility.yul\":6082:6213   */\n      tag_124\n        /* \"#utility.yul\":6208:6212   */\n      dup2\n        /* \"#utility.yul\":6082:6213   */\n      tag_96\n      jump\t// in\n    tag_124:\n        /* \"#utility.yul\":6074:6213   */\n      swap1\n      pop\n        /* \"#utility.yul\":5801:6220   */\n      swap2\n      swap1\n      pop\n      jump\t// out\n        /* \"#utility.yul\":6226:6645   */\n    tag_12:\n        /* \"#utility.yul\":6392:6396   */\n      0x00\n        /* \"#utility.yul\":6430:6432   */\n      0x20\n        /* \"#utility.yul\":6419:6428   */\n      dup3\n        /* \"#utility.yul\":6415:6433   */\n      add\n        /* \"#utility.yul\":6407:6433   */\n      swap1\n      pop\n        /* \"#utility.yul\":6479:6488   */\n      dup2\n        /* \"#utility.yul\":6473:6477   */\n      dup2\n        /* \"#utility.yul\":6469:6489   */\n      sub\n        /* \"#utility.yul\":6465:6466   */\n      0x00\n        /* \"#utility.yul\":6454:6463   */\n      dup4\n        /* \"#utility.yul\":6450:6467   */\n      add\n        /* \"#utility.yul\":6443:6490   */\n      mstore\n        /* \"#utility.yul\":6507:6638   */\n      tag_126\n        /* \"#utility.yul\":6633:6637   */\n      dup2\n        /* \"#utility.yul\":6507:6638   */\n      tag_101\n      jump\t// in\n    tag_126:\n        /* \"#utility.yul\":6499:6638   */\n      swap1\n      pop\n        /* \"#utility.yul\":6226:6645   */\n      swap2\n      swap1\n      pop\n      jump\t// out\n        /* \"#utility.yul\":6732:6901   */\n    tag_83:\n        /* \"#utility.yul\":6816:6827   */\n      0x00\n        /* \"#utility.yul\":6850:6856   */\n      dup3\n        /* \"#utility.yul\":6845:6848   */\n      dup3\n        /* \"#utility.yul\":6838:6857   */\n      mstore\n        /* \"#utility.yul\":6890:6894   */\n      0x20\n        /* \"#utility.yul\":6885:6888   */\n      dup3\n        /* \"#utility.yul\":6881:6895   */\n      add\n        /* \"#utility.yul\":6866:6895   */\n      swap1\n      pop\n        /* \"#utility.yul\":6732:6901   */\n      swap3\n      swap2\n      pop\n      pop\n      jump\t// out\n        /* \"#utility.yul\":6907:7003   */\n    tag_79:\n        /* \"#utility.yul\":6944:6951   */\n      0x00\n        /* \"#utility.yul\":6973:6997   */\n      tag_131\n        /* \"#utility.yul\":6991:6996   */\n      dup3\n        /* \"#utility.yul\":6973:6997   */\n      tag_132\n      jump\t// in\n    tag_131:\n        /* \"#utility.yul\":6962:6997   */\n      swap1\n      pop\n        /* \"#utility.yul\":6907:7003   */\n      swap2\n      swap1\n      pop\n      jump\t// out\n        /* \"#utility.yul\":7009:7099   */\n    tag_133:\n        /* \"#utility.yul\":7043:7050   */\n      0x00\n        /* \"#utility.yul\":7086:7091   */\n      dup2\n        /* \"#utility.yul\":7079:7092   */\n      iszero\n        /* \"#utility.yul\":7072:7093   */\n      iszero\n        /* \"#utility.yul\":7061:7093   */\n      swap1\n      pop\n        /* \"#utility.yul\":7009:7099   */\n      swap2\n      swap1\n      pop\n      jump\t// out\n        /* \"#utility.yul\":7105:7231   */\n    tag_132:\n        /* \"#utility.yul\":7142:7149   */\n      0x00\n        /* \"#utility.yul\":7182:7224   */\n      0xffffffffffffffffffffffffffffffffffffffff\n        /* \"#utility.yul\":7175:7180   */\n      dup3\n        /* \"#utility.yul\":7171:7225   */\n      and\n        /* \"#utility.yul\":7160:7225   */\n      swap1\n      pop\n        /* \"#utility.yul\":7105:7231   */\n      swap2\n      swap1\n      pop\n      jump\t// out\n        /* \"#utility.yul\":7237:7314   */\n    tag_109:\n        /* \"#utility.yul\":7274:7281   */\n      0x00\n        /* \"#utility.yul\":7303:7308   */\n      dup2\n        /* \"#utility.yul\":7292:7308   */\n      swap1\n      pop\n        /* \"#utility.yul\":7237:7314   */\n      swap2\n      swap1\n      pop\n      jump\t// out\n        /* \"#utility.yul\":7443:7560   */\n    tag_65:\n        /* \"#utility.yul\":7552:7553   */\n      0x00\n        /* \"#utility.yul\":7549:7550   */\n      dup1\n        /* \"#utility.yul\":7542:7554   */\n      revert\n        /* \"#utility.yul\":7566:7741   */\n    tag_85:\n        /* \"#utility.yul\":7706:7733   */\n      0x546f6b656e203220616c6c6f77616e636520746f6f206c6f7700000000000000\n        /* \"#utility.yul\":7702:7703   */\n      0x00\n        /* \"#utility.yul\":7694:7700   */\n      dup3\n        /* \"#utility.yul\":7690:7704   */\n      add\n        /* \"#utility.yul\":7683:7734   */\n      mstore\n        /* \"#utility.yul\":7566:7741   */\n      pop\n      jump\t// out\n        /* \"#utility.yul\":7747:7918   */\n    tag_90:\n        /* \"#utility.yul\":7887:7910   */\n      0x546f6b656e207472616e73666572206661696c65640000000000000000000000\n        /* \"#utility.yul\":7883:7884   */\n      0x00\n        /* \"#utility.yul\":7875:7881   */\n      dup3\n        /* \"#utility.yul\":7871:7885   */\n      add\n        /* \"#utility.yul\":7864:7911   */\n      mstore\n        /* \"#utility.yul\":7747:7918   */\n      pop\n      jump\t// out\n        /* \"#utility.yul\":7924:8099   */\n    tag_95:\n        /* \"#utility.yul\":8064:8091   */\n      0x546f6b656e203120616c6c6f77616e636520746f6f206c6f7700000000000000\n        /* \"#utility.yul\":8060:8061   */\n      0x00\n        /* \"#utility.yul\":8052:8058   */\n      dup3\n        /* \"#utility.yul\":8048:8062   */\n      add\n        /* \"#utility.yul\":8041:8092   */\n      mstore\n        /* \"#utility.yul\":7924:8099   */\n      pop\n      jump\t// out\n        /* \"#utility.yul\":8105:8276   */\n    tag_100:\n        /* \"#utility.yul\":8245:8268   */\n      0x416d6f756e747320617265206e6f7420657175616c0000000000000000000000\n        /* \"#utility.yul\":8241:8242   */\n      0x00\n        /* \"#utility.yul\":8233:8239   */\n      dup3\n        /* \"#utility.yul\":8229:8243   */\n      add\n        /* \"#utility.yul\":8222:8269   */\n      mstore\n        /* \"#utility.yul\":8105:8276   */\n      pop\n      jump\t// out\n        /* \"#utility.yul\":8282:8446   */\n    tag_105:\n        /* \"#utility.yul\":8422:8438   */\n      0x4e6f7420617574686f72697a6564000000000000000000000000000000000000\n        /* \"#utility.yul\":8418:8419   */\n      0x00\n        /* \"#utility.yul\":8410:8416   */\n      dup3\n        /* \"#utility.yul\":8406:8420   */\n      add\n        /* \"#utility.yul\":8399:8439   */\n      mstore\n        /* \"#utility.yul\":8282:8446   */\n      pop\n      jump\t// out\n        /* \"#utility.yul\":8452:8568   */\n    tag_54:\n        /* \"#utility.yul\":8522:8543   */\n      tag_146\n        /* \"#utility.yul\":8537:8542   */\n      dup2\n        /* \"#utility.yul\":8522:8543   */\n      tag_133\n      jump\t// in\n    tag_146:\n        /* \"#utility.yul\":8515:8520   */\n      dup2\n        /* \"#utility.yul\":8512:8544   */\n      eq\n        /* \"#utility.yul\":8502:8562   */\n      tag_147\n      jumpi\n        /* \"#utility.yul\":8558:8559   */\n      0x00\n        /* \"#utility.yul\":8555:8556   */\n      dup1\n        /* \"#utility.yul\":8548:8560   */\n      revert\n        /* \"#utility.yul\":8502:8562   */\n    tag_147:\n        /* \"#utility.yul\":8452:8568   */\n      pop\n      jump\t// out\n        /* \"#utility.yul\":8574:8696   */\n    tag_58:\n        /* \"#utility.yul\":8647:8671   */\n      tag_149\n        /* \"#utility.yul\":8665:8670   */\n      dup2\n        /* \"#utility.yul\":8647:8671   */\n      tag_109\n      jump\t// in\n    tag_149:\n        /* \"#utility.yul\":8640:8645   */\n      dup2\n        /* \"#utility.yul\":8637:8672   */\n      eq\n        /* \"#utility.yul\":8627:8690   */\n      tag_150\n      jumpi\n        /* \"#utility.yul\":8686:8687   */\n      0x00\n        /* \"#utility.yul\":8683:8684   */\n      dup1\n        /* \"#utility.yul\":8676:8688   */\n      revert\n        /* \"#utility.yul\":8627:8690   */\n    tag_150:\n        /* \"#utility.yul\":8574:8696   */\n      pop\n      jump\t// out\n\n    auxdata: 0xa264697066735822122002934ca3d49614f9f23b7b2cfcb2e023c2fe545e65316995b2336150d9bce8bb64736f6c63430008070033\n}\n",
				"bytecode": {
					"linkReferences": {},
					"object": "608060405234801561001057600080fd5b50604051610bfe380380610bfe83398181016040528101906100329190610153565b836000806101000a81548173ffffffffffffffffffffffffffffffffffffffff021916908373ffffffffffffffffffffffffffffffffffffffff16021790555082600160006101000a81548173ffffffffffffffffffffffffffffffffffffffff021916908373ffffffffffffffffffffffffffffffffffffffff16021790555081600260006101000a81548173ffffffffffffffffffffffffffffffffffffffff021916908373ffffffffffffffffffffffffffffffffffffffff16021790555080600360006101000a81548173ffffffffffffffffffffffffffffffffffffffff021916908373ffffffffffffffffffffffffffffffffffffffff16021790555050505050610208565b60008151905061014d816101f1565b92915050565b6000806000806080858703121561016d5761016c6101ec565b5b600061017b8782880161013e565b945050602061018c8782880161013e565b935050604061019d8782880161013e565b92505060606101ae8782880161013e565b91505092959194509250565b60006101c5826101cc565b9050919050565b600073ffffffffffffffffffffffffffffffffffffffff82169050919050565b600080fd5b6101fa816101ba565b811461020557600080fd5b50565b6109e7806102176000396000f3fe608060405234801561001057600080fd5b506004361061002b5760003560e01c8063d96073cf14610030575b600080fd5b61004a6004803603810190610045919061064b565b61004c565b005b600160009054906101000a900473ffffffffffffffffffffffffffffffffffffffff1673ffffffffffffffffffffffffffffffffffffffff163373ffffffffffffffffffffffffffffffffffffffff1614806100f55750600360009054906101000a900473ffffffffffffffffffffffffffffffffffffffff1673ffffffffffffffffffffffffffffffffffffffff163373ffffffffffffffffffffffffffffffffffffffff16145b610134576040517f08c379a000000000000000000000000000000000000000000000000000000000815260040161012b90610838565b60405180910390fd5b808214610176576040517f08c379a000000000000000000000000000000000000000000000000000000000815260040161016d90610818565b60405180910390fd5b600160009054906101000a900473ffffffffffffffffffffffffffffffffffffffff1673ffffffffffffffffffffffffffffffffffffffff163373ffffffffffffffffffffffffffffffffffffffff161415610350578160008054906101000a900473ffffffffffffffffffffffffffffffffffffffff1673ffffffffffffffffffffffffffffffffffffffff1663dd62ed3e600160009054906101000a900473ffffffffffffffffffffffffffffffffffffffff16306040518363ffffffff1660e01b815260040161024a929190610758565b60206040518083038186803b15801561026257600080fd5b505afa158015610276573d6000803e3d6000fd5b505050506040513d601f19601f8201168201806040525081019061029a919061061e565b10156102db576040517f08c379a00000000000000000000000000000000000000000000000000000000081526004016102d2906107f8565b60405180910390fd5b61034b60008054906101000a900473ffffffffffffffffffffffffffffffffffffffff16600160009054906101000a900473ffffffffffffffffffffffffffffffffffffffff16600360009054906101000a900473ffffffffffffffffffffffffffffffffffffffff16856104d8565b6104d4565b80600260009054906101000a900473ffffffffffffffffffffffffffffffffffffffff1673ffffffffffffffffffffffffffffffffffffffff1663dd62ed3e600360009054906101000a900473ffffffffffffffffffffffffffffffffffffffff16306040518363ffffffff1660e01b81526004016103d0929190610758565b60206040518083038186803b1580156103e857600080fd5b505afa1580156103fc573d6000803e3d6000fd5b505050506040513d601f19601f82011682018060405250810190610420919061061e565b1015610461576040517f08c379a0000000000000000000000000000000000000000000000000000000008152600401610458906107b8565b60405180910390fd5b6104d3600260009054906101000a900473ffffffffffffffffffffffffffffffffffffffff16600360009054906101000a900473ffffffffffffffffffffffffffffffffffffffff16600160009054906101000a900473ffffffffffffffffffffffffffffffffffffffff16846104d8565b5b5050565b60008473ffffffffffffffffffffffffffffffffffffffff166323b872dd8585856040518463ffffffff1660e01b815260040161051793929190610781565b602060405180830381600087803b15801561053157600080fd5b505af1158015610545573d6000803e3d6000fd5b505050506040513d601f19601f8201168201806040525081019061056991906105f1565b9050806105ab576040517f08c379a00000000000000000000000000000000000000000000000000000000081526004016105a2906107d8565b60405180910390fd5b5050505050565b6000815190506105c181610983565b92915050565b6000813590506105d68161099a565b92915050565b6000815190506105eb8161099a565b92915050565b600060208284031215610607576106066108b1565b5b6000610615848285016105b2565b91505092915050565b600060208284031215610634576106336108b1565b5b6000610642848285016105dc565b91505092915050565b60008060408385031215610662576106616108b1565b5b6000610670858286016105c7565b9250506020610681858286016105c7565b9150509250929050565b61069481610869565b82525050565b60006106a7601983610858565b91506106b2826108b6565b602082019050919050565b60006106ca601583610858565b91506106d5826108df565b602082019050919050565b60006106ed601983610858565b91506106f882610908565b602082019050919050565b6000610710601583610858565b915061071b82610931565b602082019050919050565b6000610733600e83610858565b915061073e8261095a565b602082019050919050565b610752816108a7565b82525050565b600060408201905061076d600083018561068b565b61077a602083018461068b565b9392505050565b6000606082019050610796600083018661068b565b6107a3602083018561068b565b6107b06040830184610749565b949350505050565b600060208201905081810360008301526107d18161069a565b9050919050565b600060208201905081810360008301526107f1816106bd565b9050919050565b60006020820190508181036000830152610811816106e0565b9050919050565b6000602082019050818103600083015261083181610703565b9050919050565b6000602082019050818103600083015261085181610726565b9050919050565b600082825260208201905092915050565b600061087482610887565b9050919050565b60008115159050919050565b600073ffffffffffffffffffffffffffffffffffffffff82169050919050565b6000819050919050565b600080fd5b7f546f6b656e203220616c6c6f77616e636520746f6f206c6f7700000000000000600082015250565b7f546f6b656e207472616e73666572206661696c65640000000000000000000000600082015250565b7f546f6b656e203120616c6c6f77616e636520746f6f206c6f7700000000000000600082015250565b7f416d6f756e747320617265206e6f7420657175616c0000000000000000000000600082015250565b7f4e6f7420617574686f72697a6564000000000000000000000000000000000000600082015250565b61098c8161087b565b811461099757600080fd5b50565b6109a3816108a7565b81146109ae57600080fd5b5056fea264697066735822122002934ca3d49614f9f23b7b2cfcb2e023c2fe545e65316995b2336150d9bce8bb64736f6c63430008070033",
					"opcodes": "PUSH1 0x80 PUSH1 0x40 MSTORE CALLVALUE DUP1 ISZERO PUSH2 0x10 JUMPI PUSH1 0x0 DUP1 REVERT JUMPDEST POP PUSH1 0x40 MLOAD PUSH2 0xBFE CODESIZE SUB DUP1 PUSH2 0xBFE DUP4 CODECOPY DUP2 DUP2 ADD PUSH1 0x40 MSTORE DUP2 ADD SWAP1 PUSH2 0x32 SWAP2 SWAP1 PUSH2 0x153 JUMP JUMPDEST DUP4 PUSH1 0x0 DUP1 PUSH2 0x100 EXP DUP2 SLOAD DUP2 PUSH20 0xFFFFFFFFFFFFFFFFFFFFFFFFFFFFFFFFFFFFFFFF MUL NOT AND SWAP1 DUP4 PUSH20 0xFFFFFFFFFFFFFFFFFFFFFFFFFFFFFFFFFFFFFFFF AND MUL OR SWAP1 SSTORE POP DUP3 PUSH1 0x1 PUSH1 0x0 PUSH2 0x100 EXP DUP2 SLOAD DUP2 PUSH20 0xFFFFFFFFFFFFFFFFFFFFFFFFFFFFFFFFFFFFFFFF MUL NOT AND SWAP1 DUP4 PUSH20 0xFFFFFFFFFFFFFFFFFFFFFFFFFFFFFFFFFFFFFFFF AND MUL OR SWAP1 SSTORE POP DUP2 PUSH1 0x2 PUSH1 0x0 PUSH2 0x100 EXP DUP2 SLOAD DUP2 PUSH20 0xFFFFFFFFFFFFFFFFFFFFFFFFFFFFFFFFFFFFFFFF MUL NOT AND SWAP1 DUP4 PUSH20 0xFFFFFFFFFFFFFFFFFFFFFFFFFFFFFFFFFFFFFFFF AND MUL OR SWAP1 SSTORE POP DUP1 PUSH1 0x3 PUSH1 0x0 PUSH2 0x100 EXP DUP2 SLOAD DUP2 PUSH20 0xFFFFFFFFFFFFFFFFFFFFFFFFFFFFFFFFFFFFFFFF MUL NOT AND SWAP1 DUP4 PUSH20 0xFFFFFFFFFFFFFFFFFFFFFFFFFFFFFFFFFFFFFFFF AND MUL OR SWAP1 SSTORE POP POP POP POP POP PUSH2 0x208 JUMP JUMPDEST PUSH1 0x0 DUP2 MLOAD SWAP1 POP PUSH2 0x14D DUP2 PUSH2 0x1F1 JUMP JUMPDEST SWAP3 SWAP2 POP POP JUMP JUMPDEST PUSH1 0x0 DUP1 PUSH1 0x0 DUP1 PUSH1 0x80 DUP6 DUP8 SUB SLT ISZERO PUSH2 0x16D JUMPI PUSH2 0x16C PUSH2 0x1EC JUMP JUMPDEST JUMPDEST PUSH1 0x0 PUSH2 0x17B DUP8 DUP3 DUP9 ADD PUSH2 0x13E JUMP JUMPDEST SWAP5 POP POP PUSH1 0x20 PUSH2 0x18C DUP8 DUP3 DUP9 ADD PUSH2 0x13E JUMP JUMPDEST SWAP4 POP POP PUSH1 0x40 PUSH2 0x19D DUP8 DUP3 DUP9 ADD PUSH2 0x13E JUMP JUMPDEST SWAP3 POP POP PUSH1 0x60 PUSH2 0x1AE DUP8 DUP3 DUP9 ADD PUSH2 0x13E JUMP JUMPDEST SWAP2 POP POP SWAP3 SWAP6 SWAP2 SWAP5 POP SWAP3 POP JUMP JUMPDEST PUSH1 0x0 PUSH2 0x1C5 DUP3 PUSH2 0x1CC JUMP JUMPDEST SWAP1 POP SWAP2 SWAP1 POP JUMP JUMPDEST PUSH1 0x0 PUSH20 0xFFFFFFFFFFFFFFFFFFFFFFFFFFFFFFFFFFFFFFFF DUP3 AND SWAP1 POP SWAP2 SWAP1 POP JUMP JUMPDEST PUSH1 0x0 DUP1 REVERT JUMPDEST PUSH2 0x1FA DUP2 PUSH2 0x1BA JUMP JUMPDEST DUP2 EQ PUSH2 0x205 JUMPI PUSH1 0x0 DUP1 REVERT JUMPDEST POP JUMP JUMPDEST PUSH2 0x9E7 DUP1 PUSH2 0x217 PUSH1 0x0 CODECOPY PUSH1 0x0 RETURN INVALID PUSH1 0x80 PUSH1 0x40 MSTORE CALLVALUE DUP1 ISZERO PUSH2 0x10 JUMPI PUSH1 0x0 DUP1 REVERT JUMPDEST POP PUSH1 0x4 CALLDATASIZE LT PUSH2 0x2B JUMPI PUSH1 0x0 CALLDATALOAD PUSH1 0xE0 SHR DUP1 PUSH4 0xD96073CF EQ PUSH2 0x30 JUMPI JUMPDEST PUSH1 0x0 DUP1 REVERT JUMPDEST PUSH2 0x4A PUSH1 0x4 DUP1 CALLDATASIZE SUB DUP2 ADD SWAP1 PUSH2 0x45 SWAP2 SWAP1 PUSH2 0x64B JUMP JUMPDEST PUSH2 0x4C JUMP JUMPDEST STOP JUMPDEST PUSH1 0x1 PUSH1 0x0 SWAP1 SLOAD SWAP1 PUSH2 0x100 EXP SWAP1 DIV PUSH20 0xFFFFFFFFFFFFFFFFFFFFFFFFFFFFFFFFFFFFFFFF AND PUSH20 0xFFFFFFFFFFFFFFFFFFFFFFFFFFFFFFFFFFFFFFFF AND CALLER PUSH20 0xFFFFFFFFFFFFFFFFFFFFFFFFFFFFFFFFFFFFFFFF AND EQ DUP1 PUSH2 0xF5 JUMPI POP PUSH1 0x3 PUSH1 0x0 SWAP1 SLOAD SWAP1 PUSH2 0x100 EXP SWAP1 DIV PUSH20 0xFFFFFFFFFFFFFFFFFFFFFFFFFFFFFFFFFFFFFFFF AND PUSH20 0xFFFFFFFFFFFFFFFFFFFFFFFFFFFFFFFFFFFFFFFF AND CALLER PUSH20 0xFFFFFFFFFFFFFFFFFFFFFFFFFFFFFFFFFFFFFFFF AND EQ JUMPDEST PUSH2 0x134 JUMPI PUSH1 0x40 MLOAD PUSH32 0x8C379A000000000000000000000000000000000000000000000000000000000 DUP2 MSTORE PUSH1 0x4 ADD PUSH2 0x12B SWAP1 PUSH2 0x838 JUMP JUMPDEST PUSH1 0x40 MLOAD DUP1 SWAP2 SUB SWAP1 REVERT JUMPDEST DUP1 DUP3 EQ PUSH2 0x176 JUMPI PUSH1 0x40 MLOAD PUSH32 0x8C379A000000000000000000000000000000000000000000000000000000000 DUP2 MSTORE PUSH1 0x4 ADD PUSH2 0x16D SWAP1 PUSH2 0x818 JUMP JUMPDEST PUSH1 0x40 MLOAD DUP1 SWAP2 SUB SWAP1 REVERT JUMPDEST PUSH1 0x1 PUSH1 0x0 SWAP1 SLOAD SWAP1 PUSH2 0x100 EXP SWAP1 DIV PUSH20 0xFFFFFFFFFFFFFFFFFFFFFFFFFFFFFFFFFFFFFFFF AND PUSH20 0xFFFFFFFFFFFFFFFFFFFFFFFFFFFFFFFFFFFFFFFF AND CALLER PUSH20 0xFFFFFFFFFFFFFFFFFFFFFFFFFFFFFFFFFFFFFFFF AND EQ ISZERO PUSH2 0x350 JUMPI DUP2 PUSH1 0x0 DUP1 SLOAD SWAP1 PUSH2 0x100 EXP SWAP1 DIV PUSH20 0xFFFFFFFFFFFFFFFFFFFFFFFFFFFFFFFFFFFFFFFF AND PUSH20 0xFFFFFFFFFFFFFFFFFFFFFFFFFFFFFFFFFFFFFFFF AND PUSH4 0xDD62ED3E PUSH1 0x1 PUSH1 0x0 SWAP1 SLOAD SWAP1 PUSH2 0x100 EXP SWAP1 DIV PUSH20 0xFFFFFFFFFFFFFFFFFFFFFFFFFFFFFFFFFFFFFFFF AND ADDRESS PUSH1 0x40 MLOAD DUP4 PUSH4 0xFFFFFFFF AND PUSH1 0xE0 SHL DUP2 MSTORE PUSH1 0x4 ADD PUSH2 0x24A SWAP3 SWAP2 SWAP1 PUSH2 0x758 JUMP JUMPDEST PUSH1 0x20 PUSH1 0x40 MLOAD DUP1 DUP4 SUB DUP2 DUP7 DUP1 EXTCODESIZE ISZERO DUP1 ISZERO PUSH2 0x262 JUMPI PUSH1 0x0 DUP1 REVERT JUMPDEST POP GAS STATICCALL ISZERO DUP1 ISZERO PUSH2 0x276 JUMPI RETURNDATASIZE PUSH1 0x0 DUP1 RETURNDATACOPY RETURNDATASIZE PUSH1 0x0 REVERT JUMPDEST POP POP POP POP PUSH1 0x40 MLOAD RETURNDATASIZE PUSH1 0x1F NOT PUSH1 0x1F DUP3 ADD AND DUP3 ADD DUP1 PUSH1 0x40 MSTORE POP DUP2 ADD SWAP1 PUSH2 0x29A SWAP2 SWAP1 PUSH2 0x61E JUMP JUMPDEST LT ISZERO PUSH2 0x2DB JUMPI PUSH1 0x40 MLOAD PUSH32 0x8C379A000000000000000000000000000000000000000000000000000000000 DUP2 MSTORE PUSH1 0x4 ADD PUSH2 0x2D2 SWAP1 PUSH2 0x7F8 JUMP JUMPDEST PUSH1 0x40 MLOAD DUP1 SWAP2 SUB SWAP1 REVERT JUMPDEST PUSH2 0x34B PUSH1 0x0 DUP1 SLOAD SWAP1 PUSH2 0x100 EXP SWAP1 DIV PUSH20 0xFFFFFFFFFFFFFFFFFFFFFFFFFFFFFFFFFFFFFFFF AND PUSH1 0x1 PUSH1 0x0 SWAP1 SLOAD SWAP1 PUSH2 0x100 EXP SWAP1 DIV PUSH20 0xFFFFFFFFFFFFFFFFFFFFFFFFFFFFFFFFFFFFFFFF AND PUSH1 0x3 PUSH1 0x0 SWAP1 SLOAD SWAP1 PUSH2 0x100 EXP SWAP1 DIV PUSH20 0xFFFFFFFFFFFFFFFFFFFFFFFFFFFFFFFFFFFFFFFF AND DUP6 PUSH2 0x4D8 JUMP JUMPDEST PUSH2 0x4D4 JUMP JUMPDEST DUP1 PUSH1 0x2 PUSH1 0x0 SWAP1 SLOAD SWAP1 PUSH2 0x100 EXP SWAP1 DIV PUSH20 0xFFFFFFFFFFFFFFFFFFFFFFFFFFFFFFFFFFFFFFFF AND PUSH20 0xFFFFFFFFFFFFFFFFFFFFFFFFFFFFFFFFFFFFFFFF AND PUSH4 0xDD62ED3E PUSH1 0x3 PUSH1 0x0 SWAP1 SLOAD SWAP1 PUSH2 0x100 EXP SWAP1 DIV PUSH20 0xFFFFFFFFFFFFFFFFFFFFFFFFFFFFFFFFFFFFFFFF AND ADDRESS PUSH1 0x40 MLOAD DUP4 PUSH4 0xFFFFFFFF AND PUSH1 0xE0 SHL DUP2 MSTORE PUSH1 0x4 ADD PUSH2 0x3D0 SWAP3 SWAP2 SWAP1 PUSH2 0x758 JUMP JUMPDEST PUSH1 0x20 PUSH1 0x40 MLOAD DUP1 DUP4 SUB DUP2 DUP7 DUP1 EXTCODESIZE ISZERO DUP1 ISZERO PUSH2 0x3E8 JUMPI PUSH1 0x0 DUP1 REVERT JUMPDEST POP GAS STATICCALL ISZERO DUP1 ISZERO PUSH2 0x3FC JUMPI RETURNDATASIZE PUSH1 0x0 DUP1 RETURNDATACOPY RETURNDATASIZE PUSH1 0x0 REVERT JUMPDEST POP POP POP POP PUSH1 0x40 MLOAD RETURNDATASIZE PUSH1 0x1F NOT PUSH1 0x1F DUP3 ADD AND DUP3 ADD DUP1 PUSH1 0x40 MSTORE POP DUP2 ADD SWAP1 PUSH2 0x420 SWAP2 SWAP1 PUSH2 0x61E JUMP JUMPDEST LT ISZERO PUSH2 0x461 JUMPI PUSH1 0x40 MLOAD PUSH32 0x8C379A000000000000000000000000000000000000000000000000000000000 DUP2 MSTORE PUSH1 0x4 ADD PUSH2 0x458 SWAP1 PUSH2 0x7B8 JUMP JUMPDEST PUSH1 0x40 MLOAD DUP1 SWAP2 SUB SWAP1 REVERT JUMPDEST PUSH2 0x4D3 PUSH1 0x2 PUSH1 0x0 SWAP1 SLOAD SWAP1 PUSH2 0x100 EXP SWAP1 DIV PUSH20 0xFFFFFFFFFFFFFFFFFFFFFFFFFFFFFFFFFFFFFFFF AND PUSH1 0x3 PUSH1 0x0 SWAP1 SLOAD SWAP1 PUSH2 0x100 EXP SWAP1 DIV PUSH20 0xFFFFFFFFFFFFFFFFFFFFFFFFFFFFFFFFFFFFFFFF AND PUSH1 0x1 PUSH1 0x0 SWAP1 SLOAD SWAP1 PUSH2 0x100 EXP SWAP1 DIV PUSH20 0xFFFFFFFFFFFFFFFFFFFFFFFFFFFFFFFFFFFFFFFF AND DUP5 PUSH2 0x4D8 JUMP JUMPDEST JUMPDEST POP POP JUMP JUMPDEST PUSH1 0x0 DUP5 PUSH20 0xFFFFFFFFFFFFFFFFFFFFFFFFFFFFFFFFFFFFFFFF AND PUSH4 0x23B872DD DUP6 DUP6 DUP6 PUSH1 0x40 MLOAD DUP5 PUSH4 0xFFFFFFFF AND PUSH1 0xE0 SHL DUP2 MSTORE PUSH1 0x4 ADD PUSH2 0x517 SWAP4 SWAP3 SWAP2 SWAP1 PUSH2 0x781 JUMP JUMPDEST PUSH1 0x20 PUSH1 0x40 MLOAD DUP1 DUP4 SUB DUP2 PUSH1 0x0 DUP8 DUP1 EXTCODESIZE ISZERO DUP1 ISZERO PUSH2 0x531 JUMPI PUSH1 0x0 DUP1 REVERT JUMPDEST POP GAS CALL ISZERO DUP1 ISZERO PUSH2 0x545 JUMPI RETURNDATASIZE PUSH1 0x0 DUP1 RETURNDATACOPY RETURNDATASIZE PUSH1 0x0 REVERT JUMPDEST POP POP POP POP PUSH1 0x40 MLOAD RETURNDATASIZE PUSH1 0x1F NOT PUSH1 0x1F DUP3 ADD AND DUP3 ADD DUP1 PUSH1 0x40 MSTORE POP DUP2 ADD SWAP1 PUSH2 0x569 SWAP2 SWAP1 PUSH2 0x5F1 JUMP JUMPDEST SWAP1 POP DUP1 PUSH2 0x5AB JUMPI PUSH1 0x40 MLOAD PUSH32 0x8C379A000000000000000000000000000000000000000000000000000000000 DUP2 MSTORE PUSH1 0x4 ADD PUSH2 0x5A2 SWAP1 PUSH2 0x7D8 JUMP JUMPDEST PUSH1 0x40 MLOAD DUP1 SWAP2 SUB SWAP1 REVERT JUMPDEST POP POP POP POP POP JUMP JUMPDEST PUSH1 0x0 DUP2 MLOAD SWAP1 POP PUSH2 0x5C1 DUP2 PUSH2 0x983 JUMP JUMPDEST SWAP3 SWAP2 POP POP JUMP JUMPDEST PUSH1 0x0 DUP2 CALLDATALOAD SWAP1 POP PUSH2 0x5D6 DUP2 PUSH2 0x99A JUMP JUMPDEST SWAP3 SWAP2 POP POP JUMP JUMPDEST PUSH1 0x0 DUP2 MLOAD SWAP1 POP PUSH2 0x5EB DUP2 PUSH2 0x99A JUMP JUMPDEST SWAP3 SWAP2 POP POP JUMP JUMPDEST PUSH1 0x0 PUSH1 0x20 DUP3 DUP5 SUB SLT ISZERO PUSH2 0x607 JUMPI PUSH2 0x606 PUSH2 0x8B1 JUMP JUMPDEST JUMPDEST PUSH1 0x0 PUSH2 0x615 DUP5 DUP3 DUP6 ADD PUSH2 0x5B2 JUMP JUMPDEST SWAP2 POP POP SWAP3 SWAP2 POP POP JUMP JUMPDEST PUSH1 0x0 PUSH1 0x20 DUP3 DUP5 SUB SLT ISZERO PUSH2 0x634 JUMPI PUSH2 0x633 PUSH2 0x8B1 JUMP JUMPDEST JUMPDEST PUSH1 0x0 PUSH2 0x642 DUP5 DUP3 DUP6 ADD PUSH2 0x5DC JUMP JUMPDEST SWAP2 POP POP SWAP3 SWAP2 POP POP JUMP JUMPDEST PUSH1 0x0 DUP1 PUSH1 0x40 DUP4 DUP6 SUB SLT ISZERO PUSH2 0x662 JUMPI PUSH2 0x661 PUSH2 0x8B1 JUMP JUMPDEST JUMPDEST PUSH1 0x0 PUSH2 0x670 DUP6 DUP3 DUP7 ADD PUSH2 0x5C7 JUMP JUMPDEST SWAP3 POP POP PUSH1 0x20 PUSH2 0x681 DUP6 DUP3 DUP7 ADD PUSH2 0x5C7 JUMP JUMPDEST SWAP2 POP POP SWAP3 POP SWAP3 SWAP1 POP JUMP JUMPDEST PUSH2 0x694 DUP2 PUSH2 0x869 JUMP JUMPDEST DUP3 MSTORE POP POP JUMP JUMPDEST PUSH1 0x0 PUSH2 0x6A7 PUSH1 0x19 DUP4 PUSH2 0x858 JUMP JUMPDEST SWAP2 POP PUSH2 0x6B2 DUP3 PUSH2 0x8B6 JUMP JUMPDEST PUSH1 0x20 DUP3 ADD SWAP1 POP SWAP2 SWAP1 POP JUMP JUMPDEST PUSH1 0x0 PUSH2 0x6CA PUSH1 0x15 DUP4 PUSH2 0x858 JUMP JUMPDEST SWAP2 POP PUSH2 0x6D5 DUP3 PUSH2 0x8DF JUMP JUMPDEST PUSH1 0x20 DUP3 ADD SWAP1 POP SWAP2 SWAP1 POP JUMP JUMPDEST PUSH1 0x0 PUSH2 0x6ED PUSH1 0x19 DUP4 PUSH2 0x858 JUMP JUMPDEST SWAP2 POP PUSH2 0x6F8 DUP3 PUSH2 0x908 JUMP JUMPDEST PUSH1 0x20 DUP3 ADD SWAP1 POP SWAP2 SWAP1 POP JUMP JUMPDEST PUSH1 0x0 PUSH2 0x710 PUSH1 0x15 DUP4 PUSH2 0x858 JUMP JUMPDEST SWAP2 POP PUSH2 0x71B DUP3 PUSH2 0x931 JUMP JUMPDEST PUSH1 0x20 DUP3 ADD SWAP1 POP SWAP2 SWAP1 POP JUMP JUMPDEST PUSH1 0x0 PUSH2 0x733 PUSH1 0xE DUP4 PUSH2 0x858 JUMP JUMPDEST SWAP2 POP PUSH2 0x73E DUP3 PUSH2 0x95A JUMP JUMPDEST PUSH1 0x20 DUP3 ADD SWAP1 POP SWAP2 SWAP1 POP JUMP JUMPDEST PUSH2 0x752 DUP2 PUSH2 0x8A7 JUMP JUMPDEST DUP3 MSTORE POP POP JUMP JUMPDEST PUSH1 0x0 PUSH1 0x40 DUP3 ADD SWAP1 POP PUSH2 0x76D PUSH1 0x0 DUP4 ADD DUP6 PUSH2 0x68B JUMP JUMPDEST PUSH2 0x77A PUSH1 0x20 DUP4 ADD DUP5 PUSH2 0x68B JUMP JUMPDEST SWAP4 SWAP3 POP POP POP JUMP JUMPDEST PUSH1 0x0 PUSH1 0x60 DUP3 ADD SWAP1 POP PUSH2 0x796 PUSH1 0x0 DUP4 ADD DUP7 PUSH2 0x68B JUMP JUMPDEST PUSH2 0x7A3 PUSH1 0x20 DUP4 ADD DUP6 PUSH2 0x68B JUMP JUMPDEST PUSH2 0x7B0 PUSH1 0x40 DUP4 ADD DUP5 PUSH2 0x749 JUMP JUMPDEST SWAP5 SWAP4 POP POP POP POP JUMP JUMPDEST PUSH1 0x0 PUSH1 0x20 DUP3 ADD SWAP1 POP DUP2 DUP2 SUB PUSH1 0x0 DUP4 ADD MSTORE PUSH2 0x7D1 DUP2 PUSH2 0x69A JUMP JUMPDEST SWAP1 POP SWAP2 SWAP1 POP JUMP JUMPDEST PUSH1 0x0 PUSH1 0x20 DUP3 ADD SWAP1 POP DUP2 DUP2 SUB PUSH1 0x0 DUP4 ADD MSTORE PUSH2 0x7F1 DUP2 PUSH2 0x6BD JUMP JUMPDEST SWAP1 POP SWAP2 SWAP1 POP JUMP JUMPDEST PUSH1 0x0 PUSH1 0x20 DUP3 ADD SWAP1 POP DUP2 DUP2 SUB PUSH1 0x0 DUP4 ADD MSTORE PUSH2 0x811 DUP2 PUSH2 0x6E0 JUMP JUMPDEST SWAP1 POP SWAP2 SWAP1 POP JUMP JUMPDEST PUSH1 0x0 PUSH1 0x20 DUP3 ADD SWAP1 POP DUP2 DUP2 SUB PUSH1 0x0 DUP4 ADD MSTORE PUSH2 0x831 DUP2 PUSH2 0x703 JUMP JUMPDEST SWAP1 POP SWAP2 SWAP1 POP JUMP JUMPDEST PUSH1 0x0 PUSH1 0x20 DUP3 ADD SWAP1 POP DUP2 DUP2 SUB PUSH1 0x0 DUP4 ADD MSTORE PUSH2 0x851 DUP2 PUSH2 0x726 JUMP JUMPDEST SWAP1 POP SWAP2 SWAP1 POP JUMP JUMPDEST PUSH1 0x0 DUP3 DUP3 MSTORE PUSH1 0x20 DUP3 ADD SWAP1 POP SWAP3 SWAP2 POP POP JUMP JUMPDEST PUSH1 0x0 PUSH2 0x874 DUP3 PUSH2 0x887 JUMP JUMPDEST SWAP1 POP SWAP2 SWAP1 POP JUMP JUMPDEST PUSH1 0x0 DUP2 ISZERO ISZERO SWAP1 POP SWAP2 SWAP1 POP JUMP JUMPDEST PUSH1 0x0 PUSH20 0xFFFFFFFFFFFFFFFFFFFFFFFFFFFFFFFFFFFFFFFF DUP3 AND SWAP1 POP SWAP2 SWAP1 POP JUMP JUMPDEST PUSH1 0x0 DUP2 SWAP1 POP SWAP2 SWAP1 POP JUMP JUMPDEST PUSH1 0x0 DUP1 REVERT JUMPDEST PUSH32 0x546F6B656E203220616C6C6F77616E636520746F6F206C6F7700000000000000 PUSH1 0x0 DUP3 ADD MSTORE POP JUMP JUMPDEST PUSH32 0x546F6B656E207472616E73666572206661696C65640000000000000000000000 PUSH1 0x0 DUP3 ADD MSTORE POP JUMP JUMPDEST PUSH32 0x546F6B656E203120616C6C6F77616E636520746F6F206C6F7700000000000000 PUSH1 0x0 DUP3 ADD MSTORE POP JUMP JUMPDEST PUSH32 0x416D6F756E747320617265206E6F7420657175616C0000000000000000000000 PUSH1 0x0 DUP3 ADD MSTORE POP JUMP JUMPDEST PUSH32 0x4E6F7420617574686F72697A6564000000000000000000000000000000000000 PUSH1 0x0 DUP3 ADD MSTORE POP JUMP JUMPDEST PUSH2 0x98C DUP2 PUSH2 0x87B JUMP JUMPDEST DUP2 EQ PUSH2 0x997 JUMPI PUSH1 0x0 DUP1 REVERT JUMPDEST POP JUMP JUMPDEST PUSH2 0x9A3 DUP2 PUSH2 0x8A7 JUMP JUMPDEST DUP2 EQ PUSH2 0x9AE JUMPI PUSH1 0x0 DUP1 REVERT JUMPDEST POP JUMP INVALID LOG2 PUSH5 0x6970667358 0x22 SLT KECCAK256 MUL SWAP4 0x4C LOG3 0xD4 SWAP7 EQ 0xF9 CALLCODE EXTCODESIZE PUSH28 0x2CFCB2E023C2FE545E65316995B2336150D9BCE8BB64736F6C634300 ADDMOD SMOD STOP CALLER "
				},
				"gasEstimates": {
					"creation": {
						"codeDepositCost": "507000",
						"executionCost": "infinite",
						"totalCost": "infinite"
					},
					"external": {
						"swap(uint256,uint256)": "infinite"
					},
					"internal": {
						"_safeTransferFrom(contract IERC20,address,address,uint256)": "infinite"
					}
				},
				"methodIdentifiers": {
					"swap(uint256,uint256)": "d96073cf"
				}
			},
			"userdoc": {
				"kind": "user",
				"methods": {},
				"version": 1
			}
		}
	}
}