{
	"contracts/TokenSwap.sol": {
		"TokenSwap": {
			"abi": [
				{
					"inputs": [
						{
							"internalType": "address",
							"name": "_token1",
							"type": "address"
						},
						{
							"internalType": "address",
							"name": "_owner1",
							"type": "address"
						},
						{
							"internalType": "address",
							"name": "_token2",
							"type": "address"
						},
						{
							"internalType": "address",
							"name": "_owner2",
							"type": "address"
						}
					],
					"stateMutability": "nonpayable",
					"type": "constructor"
				},
				{
					"inputs": [],
					"name": "owner1",
					"outputs": [
						{
							"internalType": "address",
							"name": "",
							"type": "address"
						}
					],
					"stateMutability": "view",
					"type": "function"
				},
				{
					"inputs": [],
					"name": "owner2",
					"outputs": [
						{
							"internalType": "address",
							"name": "",
							"type": "address"
						}
					],
					"stateMutability": "view",
					"type": "function"
				},
				{
					"inputs": [
						{
							"internalType": "uint256",
							"name": "_amount1",
							"type": "uint256"
						},
						{
							"internalType": "uint256",
							"name": "_amount2",
							"type": "uint256"
						}
					],
					"name": "swap",
					"outputs": [],
					"stateMutability": "nonpayable",
					"type": "function"
				},
				{
					"inputs": [],
					"name": "token1",
					"outputs": [
						{
							"internalType": "contract IERC20",
							"name": "",
							"type": "address"
						}
					],
					"stateMutability": "view",
					"type": "function"
				},
				{
					"inputs": [],
					"name": "token2",
					"outputs": [
						{
							"internalType": "contract IERC20",
							"name": "",
							"type": "address"
						}
					],
					"stateMutability": "view",
					"type": "function"
				}
			],
			"devdoc": {
				"kind": "dev",
				"methods": {},
				"version": 1
			},
			"evm": {
				"assembly": "    /* \"contracts/TokenSwap.sol\":89:2278  contract TokenSwap {... */\n  mstore(0x40, 0x80)\n    /* \"contracts/TokenSwap.sol\":318:594  constructor(... */\n  callvalue\n  dup1\n  iszero\n  tag_1\n  jumpi\n  0x00\n  dup1\n  revert\ntag_1:\n  pop\n  mload(0x40)\n  sub(codesize, bytecodeSize)\n  dup1\n  bytecodeSize\n  dup4\n  codecopy\n  dup2\n  dup2\n  add\n  0x40\n  mstore\n  dup2\n  add\n  swap1\n  tag_2\n  swap2\n  swap1\n  tag_3\n  jump\t// in\ntag_2:\n    /* \"contracts/TokenSwap.sol\":477:484  _token1 */\n  dup4\n    /* \"contracts/TokenSwap.sol\":461:467  token1 */\n  0x00\n  dup1\n    /* \"contracts/TokenSwap.sol\":461:485  token1 = IERC20(_token1) */\n  0x0100\n  exp\n  dup2\n  sload\n  dup2\n  0xffffffffffffffffffffffffffffffffffffffff\n  mul\n  not\n  and\n  swap1\n  dup4\n  0xffffffffffffffffffffffffffffffffffffffff\n  and\n  mul\n  or\n  swap1\n  sstore\n  pop\n    /* \"contracts/TokenSwap.sol\":508:515  _owner1 */\n  dup3\n    /* \"contracts/TokenSwap.sol\":499:505  owner1 */\n  0x02\n  0x00\n    /* \"contracts/TokenSwap.sol\":499:515  owner1 = _owner1 */\n  0x0100\n  exp\n  dup2\n  sload\n  dup2\n  0xffffffffffffffffffffffffffffffffffffffff\n  mul\n  not\n  and\n  swap1\n  dup4\n  0xffffffffffffffffffffffffffffffffffffffff\n  and\n  mul\n  or\n  swap1\n  sstore\n  pop\n    /* \"contracts/TokenSwap.sol\":545:552  _token2 */\n  dup2\n    /* \"contracts/TokenSwap.sol\":529:535  token2 */\n  0x01\n  0x00\n    /* \"contracts/TokenSwap.sol\":529:553  token2 = IERC20(_token2) */\n  0x0100\n  exp\n  dup2\n  sload\n  dup2\n  0xffffffffffffffffffffffffffffffffffffffff\n  mul\n  not\n  and\n  swap1\n  dup4\n  0xffffffffffffffffffffffffffffffffffffffff\n  and\n  mul\n  or\n  swap1\n  sstore\n  pop\n    /* \"contracts/TokenSwap.sol\":576:583  _owner2 */\n  dup1\n    /* \"contracts/TokenSwap.sol\":567:573  owner2 */\n  0x03\n  0x00\n    /* \"contracts/TokenSwap.sol\":567:583  owner2 = _owner2 */\n  0x0100\n  exp\n  dup2\n  sload\n  dup2\n  0xffffffffffffffffffffffffffffffffffffffff\n  mul\n  not\n  and\n  swap1\n  dup4\n  0xffffffffffffffffffffffffffffffffffffffff\n  and\n  mul\n  or\n  swap1\n  sstore\n  pop\n    /* \"contracts/TokenSwap.sol\":318:594  constructor(... */\n  pop\n  pop\n  pop\n  pop\n    /* \"contracts/TokenSwap.sol\":89:2278  contract TokenSwap {... */\n  jump(tag_6)\n    /* \"#utility.yul\":7:150   */\ntag_8:\n    /* \"#utility.yul\":64:69   */\n  0x00\n    /* \"#utility.yul\":95:101   */\n  dup2\n    /* \"#utility.yul\":89:102   */\n  mload\n    /* \"#utility.yul\":80:102   */\n  swap1\n  pop\n    /* \"#utility.yul\":111:144   */\n  tag_10\n    /* \"#utility.yul\":138:143   */\n  dup2\n    /* \"#utility.yul\":111:144   */\n  tag_11\n  jump\t// in\ntag_10:\n    /* \"#utility.yul\":7:150   */\n  swap3\n  swap2\n  pop\n  pop\n  jump\t// out\n    /* \"#utility.yul\":156:976   */\ntag_3:\n    /* \"#utility.yul\":253:259   */\n  0x00\n    /* \"#utility.yul\":261:267   */\n  dup1\n    /* \"#utility.yul\":269:275   */\n  0x00\n    /* \"#utility.yul\":277:283   */\n  dup1\n    /* \"#utility.yul\":326:329   */\n  0x80\n    /* \"#utility.yul\":314:323   */\n  dup6\n    /* \"#utility.yul\":305:312   */\n  dup8\n    /* \"#utility.yul\":301:324   */\n  sub\n    /* \"#utility.yul\":297:330   */\n  slt\n    /* \"#utility.yul\":294:414   */\n  iszero\n  tag_13\n  jumpi\n    /* \"#utility.yul\":333:412   */\n  tag_14\n  tag_15\n  jump\t// in\ntag_14:\n    /* \"#utility.yul\":294:414   */\ntag_13:\n    /* \"#utility.yul\":453:454   */\n  0x00\n    /* \"#utility.yul\":478:542   */\n  tag_16\n    /* \"#utility.yul\":534:541   */\n  dup8\n    /* \"#utility.yul\":525:531   */\n  dup3\n    /* \"#utility.yul\":514:523   */\n  dup9\n    /* \"#utility.yul\":510:532   */\n  add\n    /* \"#utility.yul\":478:542   */\n  tag_8\n  jump\t// in\ntag_16:\n    /* \"#utility.yul\":468:542   */\n  swap5\n  pop\n    /* \"#utility.yul\":424:552   */\n  pop\n    /* \"#utility.yul\":591:593   */\n  0x20\n    /* \"#utility.yul\":617:681   */\n  tag_17\n    /* \"#utility.yul\":673:680   */\n  dup8\n    /* \"#utility.yul\":664:670   */\n  dup3\n    /* \"#utility.yul\":653:662   */\n  dup9\n    /* \"#utility.yul\":649:671   */\n  add\n    /* \"#utility.yul\":617:681   */\n  tag_8\n  jump\t// in\ntag_17:\n    /* \"#utility.yul\":607:681   */\n  swap4\n  pop\n    /* \"#utility.yul\":562:691   */\n  pop\n    /* \"#utility.yul\":730:732   */\n  0x40\n    /* \"#utility.yul\":756:820   */\n  tag_18\n    /* \"#utility.yul\":812:819   */\n  dup8\n    /* \"#utility.yul\":803:809   */\n  dup3\n    /* \"#utility.yul\":792:801   */\n  dup9\n    /* \"#utility.yul\":788:810   */\n  add\n    /* \"#utility.yul\":756:820   */\n  tag_8\n  jump\t// in\ntag_18:\n    /* \"#utility.yul\":746:820   */\n  swap3\n  pop\n    /* \"#utility.yul\":701:830   */\n  pop\n    /* \"#utility.yul\":869:871   */\n  0x60\n    /* \"#utility.yul\":895:959   */\n  tag_19\n    /* \"#utility.yul\":951:958   */\n  dup8\n    /* \"#utility.yul\":942:948   */\n  dup3\n    /* \"#utility.yul\":931:940   */\n  dup9\n    /* \"#utility.yul\":927:949   */\n  add\n    /* \"#utility.yul\":895:959   */\n  tag_8\n  jump\t// in\ntag_19:\n    /* \"#utility.yul\":885:959   */\n  swap2\n  pop\n    /* \"#utility.yul\":840:969   */\n  pop\n    /* \"#utility.yul\":156:976   */\n  swap3\n  swap6\n  swap2\n  swap5\n  pop\n  swap3\n  pop\n  jump\t// out\n    /* \"#utility.yul\":1063:1159   */\ntag_22:\n    /* \"#utility.yul\":1100:1107   */\n  0x00\n    /* \"#utility.yul\":1129:1153   */\n  tag_24\n    /* \"#utility.yul\":1147:1152   */\n  dup3\n    /* \"#utility.yul\":1129:1153   */\n  tag_25\n  jump\t// in\ntag_24:\n    /* \"#utility.yul\":1118:1153   */\n  swap1\n  pop\n    /* \"#utility.yul\":1063:1159   */\n  swap2\n  swap1\n  pop\n  jump\t// out\n    /* \"#utility.yul\":1165:1291   */\ntag_25:\n    /* \"#utility.yul\":1202:1209   */\n  0x00\n    /* \"#utility.yul\":1242:1284   */\n  0xffffffffffffffffffffffffffffffffffffffff\n    /* \"#utility.yul\":1235:1240   */\n  dup3\n    /* \"#utility.yul\":1231:1285   */\n  and\n    /* \"#utility.yul\":1220:1285   */\n  swap1\n  pop\n    /* \"#utility.yul\":1165:1291   */\n  swap2\n  swap1\n  pop\n  jump\t// out\n    /* \"#utility.yul\":1420:1537   */\ntag_15:\n    /* \"#utility.yul\":1529:1530   */\n  0x00\n    /* \"#utility.yul\":1526:1527   */\n  dup1\n    /* \"#utility.yul\":1519:1531   */\n  revert\n    /* \"#utility.yul\":1543:1665   */\ntag_11:\n    /* \"#utility.yul\":1616:1640   */\n  tag_31\n    /* \"#utility.yul\":1634:1639   */\n  dup2\n    /* \"#utility.yul\":1616:1640   */\n  tag_22\n  jump\t// in\ntag_31:\n    /* \"#utility.yul\":1609:1614   */\n  dup2\n    /* \"#utility.yul\":1606:1641   */\n  eq\n    /* \"#utility.yul\":1596:1659   */\n  tag_32\n  jumpi\n    /* \"#utility.yul\":1655:1656   */\n  0x00\n    /* \"#utility.yul\":1652:1653   */\n  dup1\n    /* \"#utility.yul\":1645:1657   */\n  revert\n    /* \"#utility.yul\":1596:1659   */\ntag_32:\n    /* \"#utility.yul\":1543:1665   */\n  pop\n  jump\t// out\n    /* \"contracts/TokenSwap.sol\":89:2278  contract TokenSwap {... */\ntag_6:\n  dataSize(sub_0)\n  dup1\n  dataOffset(sub_0)\n  0x00\n  codecopy\n  0x00\n  return\nstop\n\nsub_0: assembly {\n        /* \"contracts/TokenSwap.sol\":89:2278  contract TokenSwap {... */\n      mstore(0x40, 0x80)\n      callvalue\n      dup1\n      iszero\n      tag_1\n      jumpi\n      0x00\n      dup1\n      revert\n    tag_1:\n      pop\n      jumpi(tag_2, lt(calldatasize, 0x04))\n      shr(0xe0, calldataload(0x00))\n      dup1\n      0x25be124e\n      eq\n      tag_3\n      jumpi\n      dup1\n      0x52709725\n      eq\n      tag_4\n      jumpi\n      dup1\n      0x73688914\n      eq\n      tag_5\n      jumpi\n      dup1\n      0xd21220a7\n      eq\n      tag_6\n      jumpi\n      dup1\n      0xd96073cf\n      eq\n      tag_7\n      jumpi\n    tag_2:\n      0x00\n      dup1\n      revert\n        /* \"contracts/TokenSwap.sol\":179:199  IERC20 public token2 */\n    tag_3:\n      tag_8\n      tag_9\n      jump\t// in\n    tag_8:\n      mload(0x40)\n      tag_10\n      swap2\n      swap1\n      tag_11\n      jump\t// in\n    tag_10:\n      mload(0x40)\n      dup1\n      swap2\n      sub\n      swap1\n      return\n        /* \"contracts/TokenSwap.sol\":232:253  address public owner2 */\n    tag_4:\n      tag_12\n      tag_13\n      jump\t// in\n    tag_12:\n      mload(0x40)\n      tag_14\n      swap2\n      swap1\n      tag_15\n      jump\t// in\n    tag_14:\n      mload(0x40)\n      dup1\n      swap2\n      sub\n      swap1\n      return\n        /* \"contracts/TokenSwap.sol\":205:226  address public owner1 */\n    tag_5:\n      tag_16\n      tag_17\n      jump\t// in\n    tag_16:\n      mload(0x40)\n      tag_18\n      swap2\n      swap1\n      tag_15\n      jump\t// in\n    tag_18:\n      mload(0x40)\n      dup1\n      swap2\n      sub\n      swap1\n      return\n        /* \"contracts/TokenSwap.sol\":153:173  IERC20 public token1 */\n    tag_6:\n      tag_19\n      tag_20\n      jump\t// in\n    tag_19:\n      mload(0x40)\n      tag_21\n      swap2\n      swap1\n      tag_11\n      jump\t// in\n    tag_21:\n      mload(0x40)\n      dup1\n      swap2\n      sub\n      swap1\n      return\n        /* \"contracts/TokenSwap.sol\":1082:1816  function swap( uint _amount1, uint _amount2) public {... */\n    tag_7:\n      tag_22\n      0x04\n      dup1\n      calldatasize\n      sub\n      dup2\n      add\n      swap1\n      tag_23\n      swap2\n      swap1\n      tag_24\n      jump\t// in\n    tag_23:\n      tag_25\n      jump\t// in\n    tag_22:\n      stop\n        /* \"contracts/TokenSwap.sol\":179:199  IERC20 public token2 */\n    tag_9:\n      0x01\n      0x00\n      swap1\n      sload\n      swap1\n      0x0100\n      exp\n      swap1\n      div\n      0xffffffffffffffffffffffffffffffffffffffff\n      and\n      dup2\n      jump\t// out\n        /* \"contracts/TokenSwap.sol\":232:253  address public owner2 */\n    tag_13:\n      0x03\n      0x00\n      swap1\n      sload\n      swap1\n      0x0100\n      exp\n      swap1\n      div\n      0xffffffffffffffffffffffffffffffffffffffff\n      and\n      dup2\n      jump\t// out\n        /* \"contracts/TokenSwap.sol\":205:226  address public owner1 */\n    tag_17:\n      0x02\n      0x00\n      swap1\n      sload\n      swap1\n      0x0100\n      exp\n      swap1\n      div\n      0xffffffffffffffffffffffffffffffffffffffff\n      and\n      dup2\n      jump\t// out\n        /* \"contracts/TokenSwap.sol\":153:173  IERC20 public token1 */\n    tag_20:\n      0x00\n      dup1\n      sload\n      swap1\n      0x0100\n      exp\n      swap1\n      div\n      0xffffffffffffffffffffffffffffffffffffffff\n      and\n      dup2\n      jump\t// out\n        /* \"contracts/TokenSwap.sol\":1082:1816  function swap( uint _amount1, uint _amount2) public {... */\n    tag_25:\n        /* \"contracts/TokenSwap.sol\":1170:1176  owner1 */\n      0x02\n      0x00\n      swap1\n      sload\n      swap1\n      0x0100\n      exp\n      swap1\n      div\n      0xffffffffffffffffffffffffffffffffffffffff\n      and\n        /* \"contracts/TokenSwap.sol\":1156:1176  msg.sender == owner1 */\n      0xffffffffffffffffffffffffffffffffffffffff\n      and\n        /* \"contracts/TokenSwap.sol\":1156:1166  msg.sender */\n      caller\n        /* \"contracts/TokenSwap.sol\":1156:1176  msg.sender == owner1 */\n      0xffffffffffffffffffffffffffffffffffffffff\n      and\n      eq\n        /* \"contracts/TokenSwap.sol\":1156:1200  msg.sender == owner1 || msg.sender == owner2 */\n      dup1\n      tag_27\n      jumpi\n      pop\n        /* \"contracts/TokenSwap.sol\":1194:1200  owner2 */\n      0x03\n      0x00\n      swap1\n      sload\n      swap1\n      0x0100\n      exp\n      swap1\n      div\n      0xffffffffffffffffffffffffffffffffffffffff\n      and\n        /* \"contracts/TokenSwap.sol\":1180:1200  msg.sender == owner2 */\n      0xffffffffffffffffffffffffffffffffffffffff\n      and\n        /* \"contracts/TokenSwap.sol\":1180:1190  msg.sender */\n      caller\n        /* \"contracts/TokenSwap.sol\":1180:1200  msg.sender == owner2 */\n      0xffffffffffffffffffffffffffffffffffffffff\n      and\n      eq\n        /* \"contracts/TokenSwap.sol\":1156:1200  msg.sender == owner1 || msg.sender == owner2 */\n    tag_27:\n        /* \"contracts/TokenSwap.sol\":1148:1219  require(msg.sender == owner1 || msg.sender == owner2, \"Not authorized\") */\n      tag_28\n      jumpi\n      mload(0x40)\n      0x08c379a000000000000000000000000000000000000000000000000000000000\n      dup2\n      mstore\n      0x04\n      add\n      tag_29\n      swap1\n      tag_30\n      jump\t// in\n    tag_29:\n      mload(0x40)\n      dup1\n      swap2\n      sub\n      swap1\n      revert\n    tag_28:\n        /* \"contracts/TokenSwap.sol\":1284:1292  _amount1 */\n      dup2\n        /* \"contracts/TokenSwap.sol\":1241:1247  token1 */\n      0x00\n      dup1\n      sload\n      swap1\n      0x0100\n      exp\n      swap1\n      div\n      0xffffffffffffffffffffffffffffffffffffffff\n      and\n        /* \"contracts/TokenSwap.sol\":1241:1257  token1.allowance */\n      0xffffffffffffffffffffffffffffffffffffffff\n      and\n      0xdd62ed3e\n        /* \"contracts/TokenSwap.sol\":1258:1264  owner1 */\n      0x02\n      0x00\n      swap1\n      sload\n      swap1\n      0x0100\n      exp\n      swap1\n      div\n      0xffffffffffffffffffffffffffffffffffffffff\n      and\n        /* \"contracts/TokenSwap.sol\":1274:1278  this */\n      address\n        /* \"contracts/TokenSwap.sol\":1241:1280  token1.allowance(owner1, address(this)) */\n      mload(0x40)\n      dup4\n      0xffffffff\n      and\n      0xe0\n      shl\n      dup2\n      mstore\n      0x04\n      add\n      tag_31\n      swap3\n      swap2\n      swap1\n      tag_32\n      jump\t// in\n    tag_31:\n      0x20\n      mload(0x40)\n      dup1\n      dup4\n      sub\n      dup2\n      dup7\n      dup1\n      extcodesize\n      iszero\n      dup1\n      iszero\n      tag_33\n      jumpi\n      0x00\n      dup1\n      revert\n    tag_33:\n      pop\n      gas\n      staticcall\n      iszero\n      dup1\n      iszero\n      tag_35\n      jumpi\n      returndatasize\n      0x00\n      dup1\n      returndatacopy\n      revert(0x00, returndatasize)\n    tag_35:\n      pop\n      pop\n      pop\n      pop\n      mload(0x40)\n      returndatasize\n      not(0x1f)\n      0x1f\n      dup3\n      add\n      and\n      dup3\n      add\n      dup1\n      0x40\n      mstore\n      pop\n      dup2\n      add\n      swap1\n      tag_36\n      swap2\n      swap1\n      tag_37\n      jump\t// in\n    tag_36:\n        /* \"contracts/TokenSwap.sol\":1241:1292  token1.allowance(owner1, address(this)) >= _amount1 */\n      lt\n      iszero\n        /* \"contracts/TokenSwap.sol\":1233:1322  require(token1.allowance(owner1, address(this)) >= _amount1, \"Token 1 allowance too low\") */\n      tag_38\n      jumpi\n      mload(0x40)\n      0x08c379a000000000000000000000000000000000000000000000000000000000\n      dup2\n      mstore\n      0x04\n      add\n      tag_39\n      swap1\n      tag_40\n      jump\t// in\n    tag_39:\n      mload(0x40)\n      dup1\n      swap2\n      sub\n      swap1\n      revert\n    tag_38:\n        /* \"contracts/TokenSwap.sol\":1387:1395  _amount1 */\n      dup2\n        /* \"contracts/TokenSwap.sol\":1344:1350  token2 */\n      0x01\n      0x00\n      swap1\n      sload\n      swap1\n      0x0100\n      exp\n      swap1\n      div\n      0xffffffffffffffffffffffffffffffffffffffff\n      and\n        /* \"contracts/TokenSwap.sol\":1344:1360  token2.allowance */\n      0xffffffffffffffffffffffffffffffffffffffff\n      and\n      0xdd62ed3e\n        /* \"contracts/TokenSwap.sol\":1361:1367  owner1 */\n      0x02\n      0x00\n      swap1\n      sload\n      swap1\n      0x0100\n      exp\n      swap1\n      div\n      0xffffffffffffffffffffffffffffffffffffffff\n      and\n        /* \"contracts/TokenSwap.sol\":1377:1381  this */\n      address\n        /* \"contracts/TokenSwap.sol\":1344:1383  token2.allowance(owner1, address(this)) */\n      mload(0x40)\n      dup4\n      0xffffffff\n      and\n      0xe0\n      shl\n      dup2\n      mstore\n      0x04\n      add\n      tag_41\n      swap3\n      swap2\n      swap1\n      tag_32\n      jump\t// in\n    tag_41:\n      0x20\n      mload(0x40)\n      dup1\n      dup4\n      sub\n      dup2\n      dup7\n      dup1\n      extcodesize\n      iszero\n      dup1\n      iszero\n      tag_42\n      jumpi\n      0x00\n      dup1\n      revert\n    tag_42:\n      pop\n      gas\n      staticcall\n      iszero\n      dup1\n      iszero\n      tag_44\n      jumpi\n      returndatasize\n      0x00\n      dup1\n      returndatacopy\n      revert(0x00, returndatasize)\n    tag_44:\n      pop\n      pop\n      pop\n      pop\n      mload(0x40)\n      returndatasize\n      not(0x1f)\n      0x1f\n      dup3\n      add\n      and\n      dup3\n      add\n      dup1\n      0x40\n      mstore\n      pop\n      dup2\n      add\n      swap1\n      tag_45\n      swap2\n      swap1\n      tag_37\n      jump\t// in\n    tag_45:\n        /* \"contracts/TokenSwap.sol\":1344:1395  token2.allowance(owner1, address(this)) >= _amount1 */\n      lt\n      iszero\n        /* \"contracts/TokenSwap.sol\":1336:1425  require(token2.allowance(owner1, address(this)) >= _amount1, \"Token 2 allowance too low\") */\n      tag_46\n      jumpi\n      mload(0x40)\n      0x08c379a000000000000000000000000000000000000000000000000000000000\n      dup2\n      mstore\n      0x04\n      add\n      tag_47\n      swap1\n      tag_48\n      jump\t// in\n    tag_47:\n      mload(0x40)\n      dup1\n      swap2\n      sub\n      swap1\n      revert\n    tag_46:\n        /* \"contracts/TokenSwap.sol\":1574:1625  _safeTransferFrom(token1, owner1, owner2, _amount1) */\n      tag_49\n        /* \"contracts/TokenSwap.sol\":1592:1598  token1 */\n      0x00\n      dup1\n      sload\n      swap1\n      0x0100\n      exp\n      swap1\n      div\n      0xffffffffffffffffffffffffffffffffffffffff\n      and\n        /* \"contracts/TokenSwap.sol\":1600:1606  owner1 */\n      0x02\n      0x00\n      swap1\n      sload\n      swap1\n      0x0100\n      exp\n      swap1\n      div\n      0xffffffffffffffffffffffffffffffffffffffff\n      and\n        /* \"contracts/TokenSwap.sol\":1608:1614  owner2 */\n      0x03\n      0x00\n      swap1\n      sload\n      swap1\n      0x0100\n      exp\n      swap1\n      div\n      0xffffffffffffffffffffffffffffffffffffffff\n      and\n        /* \"contracts/TokenSwap.sol\":1616:1624  _amount1 */\n      dup6\n        /* \"contracts/TokenSwap.sol\":1574:1591  _safeTransferFrom */\n      tag_50\n        /* \"contracts/TokenSwap.sol\":1574:1625  _safeTransferFrom(token1, owner1, owner2, _amount1) */\n      jump\t// in\n    tag_49:\n        /* \"contracts/TokenSwap.sol\":1728:1779  _safeTransferFrom(token2, owner2, owner1, _amount2) */\n      tag_51\n        /* \"contracts/TokenSwap.sol\":1746:1752  token2 */\n      0x01\n      0x00\n      swap1\n      sload\n      swap1\n      0x0100\n      exp\n      swap1\n      div\n      0xffffffffffffffffffffffffffffffffffffffff\n      and\n        /* \"contracts/TokenSwap.sol\":1754:1760  owner2 */\n      0x03\n      0x00\n      swap1\n      sload\n      swap1\n      0x0100\n      exp\n      swap1\n      div\n      0xffffffffffffffffffffffffffffffffffffffff\n      and\n        /* \"contracts/TokenSwap.sol\":1762:1768  owner1 */\n      0x02\n      0x00\n      swap1\n      sload\n      swap1\n      0x0100\n      exp\n      swap1\n      div\n      0xffffffffffffffffffffffffffffffffffffffff\n      and\n        /* \"contracts/TokenSwap.sol\":1770:1778  _amount2 */\n      dup5\n        /* \"contracts/TokenSwap.sol\":1728:1745  _safeTransferFrom */\n      tag_50\n        /* \"contracts/TokenSwap.sol\":1728:1779  _safeTransferFrom(token2, owner2, owner1, _amount2) */\n      jump\t// in\n    tag_51:\n        /* \"contracts/TokenSwap.sol\":1082:1816  function swap( uint _amount1, uint _amount2) public {... */\n      pop\n      pop\n      jump\t// out\n        /* \"contracts/TokenSwap.sol\":2044:2275  function _safeTransferFrom(IERC20 token, address sender, address recipient, uint amount) private {bool sent = token.transferFrom(sender, recipient, amount);... */\n    tag_50:\n        /* \"contracts/TokenSwap.sol\":2142:2151  bool sent */\n      0x00\n        /* \"contracts/TokenSwap.sol\":2154:2159  token */\n      dup5\n        /* \"contracts/TokenSwap.sol\":2154:2172  token.transferFrom */\n      0xffffffffffffffffffffffffffffffffffffffff\n      and\n      0x23b872dd\n        /* \"contracts/TokenSwap.sol\":2173:2179  sender */\n      dup6\n        /* \"contracts/TokenSwap.sol\":2181:2190  recipient */\n      dup6\n        /* \"contracts/TokenSwap.sol\":2192:2198  amount */\n      dup6\n        /* \"contracts/TokenSwap.sol\":2154:2199  token.transferFrom(sender, recipient, amount) */\n      mload(0x40)\n      dup5\n      0xffffffff\n      and\n      0xe0\n      shl\n      dup2\n      mstore\n      0x04\n      add\n      tag_53\n      swap4\n      swap3\n      swap2\n      swap1\n      tag_54\n      jump\t// in\n    tag_53:\n      0x20\n      mload(0x40)\n      dup1\n      dup4\n      sub\n      dup2\n      0x00\n      dup8\n      dup1\n      extcodesize\n      iszero\n      dup1\n      iszero\n      tag_55\n      jumpi\n      0x00\n      dup1\n      revert\n    tag_55:\n      pop\n      gas\n      call\n      iszero\n      dup1\n      iszero\n      tag_57\n      jumpi\n      returndatasize\n      0x00\n      dup1\n      returndatacopy\n      revert(0x00, returndatasize)\n    tag_57:\n      pop\n      pop\n      pop\n      pop\n      mload(0x40)\n      returndatasize\n      not(0x1f)\n      0x1f\n      dup3\n      add\n      and\n      dup3\n      add\n      dup1\n      0x40\n      mstore\n      pop\n      dup2\n      add\n      swap1\n      tag_58\n      swap2\n      swap1\n      tag_59\n      jump\t// in\n    tag_58:\n        /* \"contracts/TokenSwap.sol\":2142:2199  bool sent = token.transferFrom(sender, recipient, amount) */\n      swap1\n      pop\n        /* \"contracts/TokenSwap.sol\":2221:2225  sent */\n      dup1\n        /* \"contracts/TokenSwap.sol\":2213:2251  require(sent, \"Token transfer failed\") */\n      tag_60\n      jumpi\n      mload(0x40)\n      0x08c379a000000000000000000000000000000000000000000000000000000000\n      dup2\n      mstore\n      0x04\n      add\n      tag_61\n      swap1\n      tag_62\n      jump\t// in\n    tag_61:\n      mload(0x40)\n      dup1\n      swap2\n      sub\n      swap1\n      revert\n    tag_60:\n        /* \"contracts/TokenSwap.sol\":2141:2275  {bool sent = token.transferFrom(sender, recipient, amount);... */\n      pop\n        /* \"contracts/TokenSwap.sol\":2044:2275  function _safeTransferFrom(IERC20 token, address sender, address recipient, uint amount) private {bool sent = token.transferFrom(sender, recipient, amount);... */\n      pop\n      pop\n      pop\n      pop\n      jump\t// out\n        /* \"#utility.yul\":7:144   */\n    tag_64:\n        /* \"#utility.yul\":61:66   */\n      0x00\n        /* \"#utility.yul\":92:98   */\n      dup2\n        /* \"#utility.yul\":86:99   */\n      mload\n        /* \"#utility.yul\":77:99   */\n      swap1\n      pop\n        /* \"#utility.yul\":108:138   */\n      tag_66\n        /* \"#utility.yul\":132:137   */\n      dup2\n        /* \"#utility.yul\":108:138   */\n      tag_67\n      jump\t// in\n    tag_66:\n        /* \"#utility.yul\":7:144   */\n      swap3\n      swap2\n      pop\n      pop\n      jump\t// out\n        /* \"#utility.yul\":150:289   */\n    tag_68:\n        /* \"#utility.yul\":196:201   */\n      0x00\n        /* \"#utility.yul\":234:240   */\n      dup2\n        /* \"#utility.yul\":221:241   */\n      calldataload\n        /* \"#utility.yul\":212:241   */\n      swap1\n      pop\n        /* \"#utility.yul\":250:283   */\n      tag_70\n        /* \"#utility.yul\":277:282   */\n      dup2\n        /* \"#utility.yul\":250:283   */\n      tag_71\n      jump\t// in\n    tag_70:\n        /* \"#utility.yul\":150:289   */\n      swap3\n      swap2\n      pop\n      pop\n      jump\t// out\n        /* \"#utility.yul\":295:438   */\n    tag_72:\n        /* \"#utility.yul\":352:357   */\n      0x00\n        /* \"#utility.yul\":383:389   */\n      dup2\n        /* \"#utility.yul\":377:390   */\n      mload\n        /* \"#utility.yul\":368:390   */\n      swap1\n      pop\n        /* \"#utility.yul\":399:432   */\n      tag_74\n        /* \"#utility.yul\":426:431   */\n      dup2\n        /* \"#utility.yul\":399:432   */\n      tag_71\n      jump\t// in\n    tag_74:\n        /* \"#utility.yul\":295:438   */\n      swap3\n      swap2\n      pop\n      pop\n      jump\t// out\n        /* \"#utility.yul\":444:789   */\n    tag_59:\n        /* \"#utility.yul\":511:517   */\n      0x00\n        /* \"#utility.yul\":560:562   */\n      0x20\n        /* \"#utility.yul\":548:557   */\n      dup3\n        /* \"#utility.yul\":539:546   */\n      dup5\n        /* \"#utility.yul\":535:558   */\n      sub\n        /* \"#utility.yul\":531:563   */\n      slt\n        /* \"#utility.yul\":528:647   */\n      iszero\n      tag_76\n      jumpi\n        /* \"#utility.yul\":566:645   */\n      tag_77\n      tag_78\n      jump\t// in\n    tag_77:\n        /* \"#utility.yul\":528:647   */\n    tag_76:\n        /* \"#utility.yul\":686:687   */\n      0x00\n        /* \"#utility.yul\":711:772   */\n      tag_79\n        /* \"#utility.yul\":764:771   */\n      dup5\n        /* \"#utility.yul\":755:761   */\n      dup3\n        /* \"#utility.yul\":744:753   */\n      dup6\n        /* \"#utility.yul\":740:762   */\n      add\n        /* \"#utility.yul\":711:772   */\n      tag_64\n      jump\t// in\n    tag_79:\n        /* \"#utility.yul\":701:772   */\n      swap2\n      pop\n        /* \"#utility.yul\":657:782   */\n      pop\n        /* \"#utility.yul\":444:789   */\n      swap3\n      swap2\n      pop\n      pop\n      jump\t// out\n        /* \"#utility.yul\":795:1146   */\n    tag_37:\n        /* \"#utility.yul\":865:871   */\n      0x00\n        /* \"#utility.yul\":914:916   */\n      0x20\n        /* \"#utility.yul\":902:911   */\n      dup3\n        /* \"#utility.yul\":893:900   */\n      dup5\n        /* \"#utility.yul\":889:912   */\n      sub\n        /* \"#utility.yul\":885:917   */\n      slt\n        /* \"#utility.yul\":882:1001   */\n      iszero\n      tag_81\n      jumpi\n        /* \"#utility.yul\":920:999   */\n      tag_82\n      tag_78\n      jump\t// in\n    tag_82:\n        /* \"#utility.yul\":882:1001   */\n    tag_81:\n        /* \"#utility.yul\":1040:1041   */\n      0x00\n        /* \"#utility.yul\":1065:1129   */\n      tag_83\n        /* \"#utility.yul\":1121:1128   */\n      dup5\n        /* \"#utility.yul\":1112:1118   */\n      dup3\n        /* \"#utility.yul\":1101:1110   */\n      dup6\n        /* \"#utility.yul\":1097:1119   */\n      add\n        /* \"#utility.yul\":1065:1129   */\n      tag_72\n      jump\t// in\n    tag_83:\n        /* \"#utility.yul\":1055:1129   */\n      swap2\n      pop\n        /* \"#utility.yul\":1011:1139   */\n      pop\n        /* \"#utility.yul\":795:1146   */\n      swap3\n      swap2\n      pop\n      pop\n      jump\t// out\n        /* \"#utility.yul\":1152:1626   */\n    tag_24:\n        /* \"#utility.yul\":1220:1226   */\n      0x00\n        /* \"#utility.yul\":1228:1234   */\n      dup1\n        /* \"#utility.yul\":1277:1279   */\n      0x40\n        /* \"#utility.yul\":1265:1274   */\n      dup4\n        /* \"#utility.yul\":1256:1263   */\n      dup6\n        /* \"#utility.yul\":1252:1275   */\n      sub\n        /* \"#utility.yul\":1248:1280   */\n      slt\n        /* \"#utility.yul\":1245:1364   */\n      iszero\n      tag_85\n      jumpi\n        /* \"#utility.yul\":1283:1362   */\n      tag_86\n      tag_78\n      jump\t// in\n    tag_86:\n        /* \"#utility.yul\":1245:1364   */\n    tag_85:\n        /* \"#utility.yul\":1403:1404   */\n      0x00\n        /* \"#utility.yul\":1428:1481   */\n      tag_87\n        /* \"#utility.yul\":1473:1480   */\n      dup6\n        /* \"#utility.yul\":1464:1470   */\n      dup3\n        /* \"#utility.yul\":1453:1462   */\n      dup7\n        /* \"#utility.yul\":1449:1471   */\n      add\n        /* \"#utility.yul\":1428:1481   */\n      tag_68\n      jump\t// in\n    tag_87:\n        /* \"#utility.yul\":1418:1481   */\n      swap3\n      pop\n        /* \"#utility.yul\":1374:1491   */\n      pop\n        /* \"#utility.yul\":1530:1532   */\n      0x20\n        /* \"#utility.yul\":1556:1609   */\n      tag_88\n        /* \"#utility.yul\":1601:1608   */\n      dup6\n        /* \"#utility.yul\":1592:1598   */\n      dup3\n        /* \"#utility.yul\":1581:1590   */\n      dup7\n        /* \"#utility.yul\":1577:1599   */\n      add\n        /* \"#utility.yul\":1556:1609   */\n      tag_68\n      jump\t// in\n    tag_88:\n        /* \"#utility.yul\":1546:1609   */\n      swap2\n      pop\n        /* \"#utility.yul\":1501:1619   */\n      pop\n        /* \"#utility.yul\":1152:1626   */\n      swap3\n      pop\n      swap3\n      swap1\n      pop\n      jump\t// out\n        /* \"#utility.yul\":1632:1750   */\n    tag_89:\n        /* \"#utility.yul\":1719:1743   */\n      tag_91\n        /* \"#utility.yul\":1737:1742   */\n      dup2\n        /* \"#utility.yul\":1719:1743   */\n      tag_92\n      jump\t// in\n    tag_91:\n        /* \"#utility.yul\":1714:1717   */\n      dup3\n        /* \"#utility.yul\":1707:1744   */\n      mstore\n        /* \"#utility.yul\":1632:1750   */\n      pop\n      pop\n      jump\t// out\n        /* \"#utility.yul\":1756:1913   */\n    tag_93:\n        /* \"#utility.yul\":1856:1906   */\n      tag_95\n        /* \"#utility.yul\":1900:1905   */\n      dup2\n        /* \"#utility.yul\":1856:1906   */\n      tag_96\n      jump\t// in\n    tag_95:\n        /* \"#utility.yul\":1851:1854   */\n      dup3\n        /* \"#utility.yul\":1844:1907   */\n      mstore\n        /* \"#utility.yul\":1756:1913   */\n      pop\n      pop\n      jump\t// out\n        /* \"#utility.yul\":1919:2285   */\n    tag_97:\n        /* \"#utility.yul\":2061:2064   */\n      0x00\n        /* \"#utility.yul\":2082:2149   */\n      tag_99\n        /* \"#utility.yul\":2146:2148   */\n      0x19\n        /* \"#utility.yul\":2141:2144   */\n      dup4\n        /* \"#utility.yul\":2082:2149   */\n      tag_100\n      jump\t// in\n    tag_99:\n        /* \"#utility.yul\":2075:2149   */\n      swap2\n      pop\n        /* \"#utility.yul\":2158:2251   */\n      tag_101\n        /* \"#utility.yul\":2247:2250   */\n      dup3\n        /* \"#utility.yul\":2158:2251   */\n      tag_102\n      jump\t// in\n    tag_101:\n        /* \"#utility.yul\":2276:2278   */\n      0x20\n        /* \"#utility.yul\":2271:2274   */\n      dup3\n        /* \"#utility.yul\":2267:2279   */\n      add\n        /* \"#utility.yul\":2260:2279   */\n      swap1\n      pop\n        /* \"#utility.yul\":1919:2285   */\n      swap2\n      swap1\n      pop\n      jump\t// out\n        /* \"#utility.yul\":2291:2657   */\n    tag_103:\n        /* \"#utility.yul\":2433:2436   */\n      0x00\n        /* \"#utility.yul\":2454:2521   */\n      tag_105\n        /* \"#utility.yul\":2518:2520   */\n      0x15\n        /* \"#utility.yul\":2513:2516   */\n      dup4\n        /* \"#utility.yul\":2454:2521   */\n      tag_100\n      jump\t// in\n    tag_105:\n        /* \"#utility.yul\":2447:2521   */\n      swap2\n      pop\n        /* \"#utility.yul\":2530:2623   */\n      tag_106\n        /* \"#utility.yul\":2619:2622   */\n      dup3\n        /* \"#utility.yul\":2530:2623   */\n      tag_107\n      jump\t// in\n    tag_106:\n        /* \"#utility.yul\":2648:2650   */\n      0x20\n        /* \"#utility.yul\":2643:2646   */\n      dup3\n        /* \"#utility.yul\":2639:2651   */\n      add\n        /* \"#utility.yul\":2632:2651   */\n      swap1\n      pop\n        /* \"#utility.yul\":2291:2657   */\n      swap2\n      swap1\n      pop\n      jump\t// out\n        /* \"#utility.yul\":2663:3029   */\n    tag_108:\n        /* \"#utility.yul\":2805:2808   */\n      0x00\n        /* \"#utility.yul\":2826:2893   */\n      tag_110\n        /* \"#utility.yul\":2890:2892   */\n      0x19\n        /* \"#utility.yul\":2885:2888   */\n      dup4\n        /* \"#utility.yul\":2826:2893   */\n      tag_100\n      jump\t// in\n    tag_110:\n        /* \"#utility.yul\":2819:2893   */\n      swap2\n      pop\n        /* \"#utility.yul\":2902:2995   */\n      tag_111\n        /* \"#utility.yul\":2991:2994   */\n      dup3\n        /* \"#utility.yul\":2902:2995   */\n      tag_112\n      jump\t// in\n    tag_111:\n        /* \"#utility.yul\":3020:3022   */\n      0x20\n        /* \"#utility.yul\":3015:3018   */\n      dup3\n        /* \"#utility.yul\":3011:3023   */\n      add\n        /* \"#utility.yul\":3004:3023   */\n      swap1\n      pop\n        /* \"#utility.yul\":2663:3029   */\n      swap2\n      swap1\n      pop\n      jump\t// out\n        /* \"#utility.yul\":3035:3401   */\n    tag_113:\n        /* \"#utility.yul\":3177:3180   */\n      0x00\n        /* \"#utility.yul\":3198:3265   */\n      tag_115\n        /* \"#utility.yul\":3262:3264   */\n      0x0e\n        /* \"#utility.yul\":3257:3260   */\n      dup4\n        /* \"#utility.yul\":3198:3265   */\n      tag_100\n      jump\t// in\n    tag_115:\n        /* \"#utility.yul\":3191:3265   */\n      swap2\n      pop\n        /* \"#utility.yul\":3274:3367   */\n      tag_116\n        /* \"#utility.yul\":3363:3366   */\n      dup3\n        /* \"#utility.yul\":3274:3367   */\n      tag_117\n      jump\t// in\n    tag_116:\n        /* \"#utility.yul\":3392:3394   */\n      0x20\n        /* \"#utility.yul\":3387:3390   */\n      dup3\n        /* \"#utility.yul\":3383:3395   */\n      add\n        /* \"#utility.yul\":3376:3395   */\n      swap1\n      pop\n        /* \"#utility.yul\":3035:3401   */\n      swap2\n      swap1\n      pop\n      jump\t// out\n        /* \"#utility.yul\":3407:3525   */\n    tag_118:\n        /* \"#utility.yul\":3494:3518   */\n      tag_120\n        /* \"#utility.yul\":3512:3517   */\n      dup2\n        /* \"#utility.yul\":3494:3518   */\n      tag_121\n      jump\t// in\n    tag_120:\n        /* \"#utility.yul\":3489:3492   */\n      dup3\n        /* \"#utility.yul\":3482:3519   */\n      mstore\n        /* \"#utility.yul\":3407:3525   */\n      pop\n      pop\n      jump\t// out\n        /* \"#utility.yul\":3531:3753   */\n    tag_15:\n        /* \"#utility.yul\":3624:3628   */\n      0x00\n        /* \"#utility.yul\":3662:3664   */\n      0x20\n        /* \"#utility.yul\":3651:3660   */\n      dup3\n        /* \"#utility.yul\":3647:3665   */\n      add\n        /* \"#utility.yul\":3639:3665   */\n      swap1\n      pop\n        /* \"#utility.yul\":3675:3746   */\n      tag_123\n        /* \"#utility.yul\":3743:3744   */\n      0x00\n        /* \"#utility.yul\":3732:3741   */\n      dup4\n        /* \"#utility.yul\":3728:3745   */\n      add\n        /* \"#utility.yul\":3719:3725   */\n      dup5\n        /* \"#utility.yul\":3675:3746   */\n      tag_89\n      jump\t// in\n    tag_123:\n        /* \"#utility.yul\":3531:3753   */\n      swap3\n      swap2\n      pop\n      pop\n      jump\t// out\n        /* \"#utility.yul\":3759:4091   */\n    tag_32:\n        /* \"#utility.yul\":3880:3884   */\n      0x00\n        /* \"#utility.yul\":3918:3920   */\n      0x40\n        /* \"#utility.yul\":3907:3916   */\n      dup3\n        /* \"#utility.yul\":3903:3921   */\n      add\n        /* \"#utility.yul\":3895:3921   */\n      swap1\n      pop\n        /* \"#utility.yul\":3931:4002   */\n      tag_125\n        /* \"#utility.yul\":3999:4000   */\n      0x00\n        /* \"#utility.yul\":3988:3997   */\n      dup4\n        /* \"#utility.yul\":3984:4001   */\n      add\n        /* \"#utility.yul\":3975:3981   */\n      dup6\n        /* \"#utility.yul\":3931:4002   */\n      tag_89\n      jump\t// in\n    tag_125:\n        /* \"#utility.yul\":4012:4084   */\n      tag_126\n        /* \"#utility.yul\":4080:4082   */\n      0x20\n        /* \"#utility.yul\":4069:4078   */\n      dup4\n        /* \"#utility.yul\":4065:4083   */\n      add\n        /* \"#utility.yul\":4056:4062   */\n      dup5\n        /* \"#utility.yul\":4012:4084   */\n      tag_89\n      jump\t// in\n    tag_126:\n        /* \"#utility.yul\":3759:4091   */\n      swap4\n      swap3\n      pop\n      pop\n      pop\n      jump\t// out\n        /* \"#utility.yul\":4097:4539   */\n    tag_54:\n        /* \"#utility.yul\":4246:4250   */\n      0x00\n        /* \"#utility.yul\":4284:4286   */\n      0x60\n        /* \"#utility.yul\":4273:4282   */\n      dup3\n        /* \"#utility.yul\":4269:4287   */\n      add\n        /* \"#utility.yul\":4261:4287   */\n      swap1\n      pop\n        /* \"#utility.yul\":4297:4368   */\n      tag_128\n        /* \"#utility.yul\":4365:4366   */\n      0x00\n        /* \"#utility.yul\":4354:4363   */\n      dup4\n        /* \"#utility.yul\":4350:4367   */\n      add\n        /* \"#utility.yul\":4341:4347   */\n      dup7\n        /* \"#utility.yul\":4297:4368   */\n      tag_89\n      jump\t// in\n    tag_128:\n        /* \"#utility.yul\":4378:4450   */\n      tag_129\n        /* \"#utility.yul\":4446:4448   */\n      0x20\n        /* \"#utility.yul\":4435:4444   */\n      dup4\n        /* \"#utility.yul\":4431:4449   */\n      add\n        /* \"#utility.yul\":4422:4428   */\n      dup6\n        /* \"#utility.yul\":4378:4450   */\n      tag_89\n      jump\t// in\n    tag_129:\n        /* \"#utility.yul\":4460:4532   */\n      tag_130\n        /* \"#utility.yul\":4528:4530   */\n      0x40\n        /* \"#utility.yul\":4517:4526   */\n      dup4\n        /* \"#utility.yul\":4513:4531   */\n      add\n        /* \"#utility.yul\":4504:4510   */\n      dup5\n        /* \"#utility.yul\":4460:4532   */\n      tag_118\n      jump\t// in\n    tag_130:\n        /* \"#utility.yul\":4097:4539   */\n      swap5\n      swap4\n      pop\n      pop\n      pop\n      pop\n      jump\t// out\n        /* \"#utility.yul\":4545:4793   */\n    tag_11:\n        /* \"#utility.yul\":4651:4655   */\n      0x00\n        /* \"#utility.yul\":4689:4691   */\n      0x20\n        /* \"#utility.yul\":4678:4687   */\n      dup3\n        /* \"#utility.yul\":4674:4692   */\n      add\n        /* \"#utility.yul\":4666:4692   */\n      swap1\n      pop\n        /* \"#utility.yul\":4702:4786   */\n      tag_132\n        /* \"#utility.yul\":4783:4784   */\n      0x00\n        /* \"#utility.yul\":4772:4781   */\n      dup4\n        /* \"#utility.yul\":4768:4785   */\n      add\n        /* \"#utility.yul\":4759:4765   */\n      dup5\n        /* \"#utility.yul\":4702:4786   */\n      tag_93\n      jump\t// in\n    tag_132:\n        /* \"#utility.yul\":4545:4793   */\n      swap3\n      swap2\n      pop\n      pop\n      jump\t// out\n        /* \"#utility.yul\":4799:5218   */\n    tag_48:\n        /* \"#utility.yul\":4965:4969   */\n      0x00\n        /* \"#utility.yul\":5003:5005   */\n      0x20\n        /* \"#utility.yul\":4992:5001   */\n      dup3\n        /* \"#utility.yul\":4988:5006   */\n      add\n        /* \"#utility.yul\":4980:5006   */\n      swap1\n      pop\n        /* \"#utility.yul\":5052:5061   */\n      dup2\n        /* \"#utility.yul\":5046:5050   */\n      dup2\n        /* \"#utility.yul\":5042:5062   */\n      sub\n        /* \"#utility.yul\":5038:5039   */\n      0x00\n        /* \"#utility.yul\":5027:5036   */\n      dup4\n        /* \"#utility.yul\":5023:5040   */\n      add\n        /* \"#utility.yul\":5016:5063   */\n      mstore\n        /* \"#utility.yul\":5080:5211   */\n      tag_134\n        /* \"#utility.yul\":5206:5210   */\n      dup2\n        /* \"#utility.yul\":5080:5211   */\n      tag_97\n      jump\t// in\n    tag_134:\n        /* \"#utility.yul\":5072:5211   */\n      swap1\n      pop\n        /* \"#utility.yul\":4799:5218   */\n      swap2\n      swap1\n      pop\n      jump\t// out\n        /* \"#utility.yul\":5224:5643   */\n    tag_62:\n        /* \"#utility.yul\":5390:5394   */\n      0x00\n        /* \"#utility.yul\":5428:5430   */\n      0x20\n        /* \"#utility.yul\":5417:5426   */\n      dup3\n        /* \"#utility.yul\":5413:5431   */\n      add\n        /* \"#utility.yul\":5405:5431   */\n      swap1\n      pop\n        /* \"#utility.yul\":5477:5486   */\n      dup2\n        /* \"#utility.yul\":5471:5475   */\n      dup2\n        /* \"#utility.yul\":5467:5487   */\n      sub\n        /* \"#utility.yul\":5463:5464   */\n      0x00\n        /* \"#utility.yul\":5452:5461   */\n      dup4\n        /* \"#utility.yul\":5448:5465   */\n      add\n        /* \"#utility.yul\":5441:5488   */\n      mstore\n        /* \"#utility.yul\":5505:5636   */\n      tag_136\n        /* \"#utility.yul\":5631:5635   */\n      dup2\n        /* \"#utility.yul\":5505:5636   */\n      tag_103\n      jump\t// in\n    tag_136:\n        /* \"#utility.yul\":5497:5636   */\n      swap1\n      pop\n        /* \"#utility.yul\":5224:5643   */\n      swap2\n      swap1\n      pop\n      jump\t// out\n        /* \"#utility.yul\":5649:6068   */\n    tag_40:\n        /* \"#utility.yul\":5815:5819   */\n      0x00\n        /* \"#utility.yul\":5853:5855   */\n      0x20\n        /* \"#utility.yul\":5842:5851   */\n      dup3\n        /* \"#utility.yul\":5838:5856   */\n      add\n        /* \"#utility.yul\":5830:5856   */\n      swap1\n      pop\n        /* \"#utility.yul\":5902:5911   */\n      dup2\n        /* \"#utility.yul\":5896:5900   */\n      dup2\n        /* \"#utility.yul\":5892:5912   */\n      sub\n        /* \"#utility.yul\":5888:5889   */\n      0x00\n        /* \"#utility.yul\":5877:5886   */\n      dup4\n        /* \"#utility.yul\":5873:5890   */\n      add\n        /* \"#utility.yul\":5866:5913   */\n      mstore\n        /* \"#utility.yul\":5930:6061   */\n      tag_138\n        /* \"#utility.yul\":6056:6060   */\n      dup2\n        /* \"#utility.yul\":5930:6061   */\n      tag_108\n      jump\t// in\n    tag_138:\n        /* \"#utility.yul\":5922:6061   */\n      swap1\n      pop\n        /* \"#utility.yul\":5649:6068   */\n      swap2\n      swap1\n      pop\n      jump\t// out\n        /* \"#utility.yul\":6074:6493   */\n    tag_30:\n        /* \"#utility.yul\":6240:6244   */\n      0x00\n        /* \"#utility.yul\":6278:6280   */\n      0x20\n        /* \"#utility.yul\":6267:6276   */\n      dup3\n        /* \"#utility.yul\":6263:6281   */\n      add\n        /* \"#utility.yul\":6255:6281   */\n      swap1\n      pop\n        /* \"#utility.yul\":6327:6336   */\n      dup2\n        /* \"#utility.yul\":6321:6325   */\n      dup2\n        /* \"#utility.yul\":6317:6337   */\n      sub\n        /* \"#utility.yul\":6313:6314   */\n      0x00\n        /* \"#utility.yul\":6302:6311   */\n      dup4\n        /* \"#utility.yul\":6298:6315   */\n      add\n        /* \"#utility.yul\":6291:6338   */\n      mstore\n        /* \"#utility.yul\":6355:6486   */\n      tag_140\n        /* \"#utility.yul\":6481:6485   */\n      dup2\n        /* \"#utility.yul\":6355:6486   */\n      tag_113\n      jump\t// in\n    tag_140:\n        /* \"#utility.yul\":6347:6486   */\n      swap1\n      pop\n        /* \"#utility.yul\":6074:6493   */\n      swap2\n      swap1\n      pop\n      jump\t// out\n        /* \"#utility.yul\":6580:6749   */\n    tag_100:\n        /* \"#utility.yul\":6664:6675   */\n      0x00\n        /* \"#utility.yul\":6698:6704   */\n      dup3\n        /* \"#utility.yul\":6693:6696   */\n      dup3\n        /* \"#utility.yul\":6686:6705   */\n      mstore\n        /* \"#utility.yul\":6738:6742   */\n      0x20\n        /* \"#utility.yul\":6733:6736   */\n      dup3\n        /* \"#utility.yul\":6729:6743   */\n      add\n        /* \"#utility.yul\":6714:6743   */\n      swap1\n      pop\n        /* \"#utility.yul\":6580:6749   */\n      swap3\n      swap2\n      pop\n      pop\n      jump\t// out\n        /* \"#utility.yul\":6755:6851   */\n    tag_92:\n        /* \"#utility.yul\":6792:6799   */\n      0x00\n        /* \"#utility.yul\":6821:6845   */\n      tag_145\n        /* \"#utility.yul\":6839:6844   */\n      dup3\n        /* \"#utility.yul\":6821:6845   */\n      tag_146\n      jump\t// in\n    tag_145:\n        /* \"#utility.yul\":6810:6845   */\n      swap1\n      pop\n        /* \"#utility.yul\":6755:6851   */\n      swap2\n      swap1\n      pop\n      jump\t// out\n        /* \"#utility.yul\":6857:6947   */\n    tag_147:\n        /* \"#utility.yul\":6891:6898   */\n      0x00\n        /* \"#utility.yul\":6934:6939   */\n      dup2\n        /* \"#utility.yul\":6927:6940   */\n      iszero\n        /* \"#utility.yul\":6920:6941   */\n      iszero\n        /* \"#utility.yul\":6909:6941   */\n      swap1\n      pop\n        /* \"#utility.yul\":6857:6947   */\n      swap2\n      swap1\n      pop\n      jump\t// out\n        /* \"#utility.yul\":6953:7079   */\n    tag_146:\n        /* \"#utility.yul\":6990:6997   */\n      0x00\n        /* \"#utility.yul\":7030:7072   */\n      0xffffffffffffffffffffffffffffffffffffffff\n        /* \"#utility.yul\":7023:7028   */\n      dup3\n        /* \"#utility.yul\":7019:7073   */\n      and\n        /* \"#utility.yul\":7008:7073   */\n      swap1\n      pop\n        /* \"#utility.yul\":6953:7079   */\n      swap2\n      swap1\n      pop\n      jump\t// out\n        /* \"#utility.yul\":7085:7162   */\n    tag_121:\n        /* \"#utility.yul\":7122:7129   */\n      0x00\n        /* \"#utility.yul\":7151:7156   */\n      dup2\n        /* \"#utility.yul\":7140:7156   */\n      swap1\n      pop\n        /* \"#utility.yul\":7085:7162   */\n      swap2\n      swap1\n      pop\n      jump\t// out\n        /* \"#utility.yul\":7168:7307   */\n    tag_96:\n        /* \"#utility.yul\":7231:7240   */\n      0x00\n        /* \"#utility.yul\":7264:7301   */\n      tag_152\n        /* \"#utility.yul\":7295:7300   */\n      dup3\n        /* \"#utility.yul\":7264:7301   */\n      tag_153\n      jump\t// in\n    tag_152:\n        /* \"#utility.yul\":7251:7301   */\n      swap1\n      pop\n        /* \"#utility.yul\":7168:7307   */\n      swap2\n      swap1\n      pop\n      jump\t// out\n        /* \"#utility.yul\":7313:7439   */\n    tag_153:\n        /* \"#utility.yul\":7363:7372   */\n      0x00\n        /* \"#utility.yul\":7396:7433   */\n      tag_155\n        /* \"#utility.yul\":7427:7432   */\n      dup3\n        /* \"#utility.yul\":7396:7433   */\n      tag_156\n      jump\t// in\n    tag_155:\n        /* \"#utility.yul\":7383:7433   */\n      swap1\n      pop\n        /* \"#utility.yul\":7313:7439   */\n      swap2\n      swap1\n      pop\n      jump\t// out\n        /* \"#utility.yul\":7445:7558   */\n    tag_156:\n        /* \"#utility.yul\":7495:7504   */\n      0x00\n        /* \"#utility.yul\":7528:7552   */\n      tag_158\n        /* \"#utility.yul\":7546:7551   */\n      dup3\n        /* \"#utility.yul\":7528:7552   */\n      tag_146\n      jump\t// in\n    tag_158:\n        /* \"#utility.yul\":7515:7552   */\n      swap1\n      pop\n        /* \"#utility.yul\":7445:7558   */\n      swap2\n      swap1\n      pop\n      jump\t// out\n        /* \"#utility.yul\":7687:7804   */\n    tag_78:\n        /* \"#utility.yul\":7796:7797   */\n      0x00\n        /* \"#utility.yul\":7793:7794   */\n      dup1\n        /* \"#utility.yul\":7786:7798   */\n      revert\n        /* \"#utility.yul\":7810:7985   */\n    tag_102:\n        /* \"#utility.yul\":7950:7977   */\n      0x546f6b656e203220616c6c6f77616e636520746f6f206c6f7700000000000000\n        /* \"#utility.yul\":7946:7947   */\n      0x00\n        /* \"#utility.yul\":7938:7944   */\n      dup3\n        /* \"#utility.yul\":7934:7948   */\n      add\n        /* \"#utility.yul\":7927:7978   */\n      mstore\n        /* \"#utility.yul\":7810:7985   */\n      pop\n      jump\t// out\n        /* \"#utility.yul\":7991:8162   */\n    tag_107:\n        /* \"#utility.yul\":8131:8154   */\n      0x546f6b656e207472616e73666572206661696c65640000000000000000000000\n        /* \"#utility.yul\":8127:8128   */\n      0x00\n        /* \"#utility.yul\":8119:8125   */\n      dup3\n        /* \"#utility.yul\":8115:8129   */\n      add\n        /* \"#utility.yul\":8108:8155   */\n      mstore\n        /* \"#utility.yul\":7991:8162   */\n      pop\n      jump\t// out\n        /* \"#utility.yul\":8168:8343   */\n    tag_112:\n        /* \"#utility.yul\":8308:8335   */\n      0x546f6b656e203120616c6c6f77616e636520746f6f206c6f7700000000000000\n        /* \"#utility.yul\":8304:8305   */\n      0x00\n        /* \"#utility.yul\":8296:8302   */\n      dup3\n        /* \"#utility.yul\":8292:8306   */\n      add\n        /* \"#utility.yul\":8285:8336   */\n      mstore\n        /* \"#utility.yul\":8168:8343   */\n      pop\n      jump\t// out\n        /* \"#utility.yul\":8349:8513   */\n    tag_117:\n        /* \"#utility.yul\":8489:8505   */\n      0x4e6f7420617574686f72697a6564000000000000000000000000000000000000\n        /* \"#utility.yul\":8485:8486   */\n      0x00\n        /* \"#utility.yul\":8477:8483   */\n      dup3\n        /* \"#utility.yul\":8473:8487   */\n      add\n        /* \"#utility.yul\":8466:8506   */\n      mstore\n        /* \"#utility.yul\":8349:8513   */\n      pop\n      jump\t// out\n        /* \"#utility.yul\":8519:8635   */\n    tag_67:\n        /* \"#utility.yul\":8589:8610   */\n      tag_167\n        /* \"#utility.yul\":8604:8609   */\n      dup2\n        /* \"#utility.yul\":8589:8610   */\n      tag_147\n      jump\t// in\n    tag_167:\n        /* \"#utility.yul\":8582:8587   */\n      dup2\n        /* \"#utility.yul\":8579:8611   */\n      eq\n        /* \"#utility.yul\":8569:8629   */\n      tag_168\n      jumpi\n        /* \"#utility.yul\":8625:8626   */\n      0x00\n        /* \"#utility.yul\":8622:8623   */\n      dup1\n        /* \"#utility.yul\":8615:8627   */\n      revert\n        /* \"#utility.yul\":8569:8629   */\n    tag_168:\n        /* \"#utility.yul\":8519:8635   */\n      pop\n      jump\t// out\n        /* \"#utility.yul\":8641:8763   */\n    tag_71:\n        /* \"#utility.yul\":8714:8738   */\n      tag_170\n        /* \"#utility.yul\":8732:8737   */\n      dup2\n        /* \"#utility.yul\":8714:8738   */\n      tag_121\n      jump\t// in\n    tag_170:\n        /* \"#utility.yul\":8707:8712   */\n      dup2\n        /* \"#utility.yul\":8704:8739   */\n      eq\n        /* \"#utility.yul\":8694:8757   */\n      tag_171\n      jumpi\n        /* \"#utility.yul\":8753:8754   */\n      0x00\n        /* \"#utility.yul\":8750:8751   */\n      dup1\n        /* \"#utility.yul\":8743:8755   */\n      revert\n        /* \"#utility.yul\":8694:8757   */\n    tag_171:\n        /* \"#utility.yul\":8641:8763   */\n      pop\n      jump\t// out\n\n    auxdata: 0xa264697066735822122073cbe7e260824872249e61ee3aeb0fe9e81896a95e77afcedd1fdd6508a2744b64736f6c63430008070033\n}\n",
				"bytecode": {
					"linkReferences": {},
					"object": "608060405234801561001057600080fd5b50604051610ca9380380610ca983398181016040528101906100329190610153565b836000806101000a81548173ffffffffffffffffffffffffffffffffffffffff021916908373ffffffffffffffffffffffffffffffffffffffff16021790555082600260006101000a81548173ffffffffffffffffffffffffffffffffffffffff021916908373ffffffffffffffffffffffffffffffffffffffff16021790555081600160006101000a81548173ffffffffffffffffffffffffffffffffffffffff021916908373ffffffffffffffffffffffffffffffffffffffff16021790555080600360006101000a81548173ffffffffffffffffffffffffffffffffffffffff021916908373ffffffffffffffffffffffffffffffffffffffff16021790555050505050610208565b60008151905061014d816101f1565b92915050565b6000806000806080858703121561016d5761016c6101ec565b5b600061017b8782880161013e565b945050602061018c8782880161013e565b935050604061019d8782880161013e565b92505060606101ae8782880161013e565b91505092959194509250565b60006101c5826101cc565b9050919050565b600073ffffffffffffffffffffffffffffffffffffffff82169050919050565b600080fd5b6101fa816101ba565b811461020557600080fd5b50565b610a92806102176000396000f3fe608060405234801561001057600080fd5b50600436106100575760003560e01c806325be124e1461005c578063527097251461007a5780637368891414610098578063d21220a7146100b6578063d96073cf146100d4575b600080fd5b6100646100f0565b604051610071919061085b565b60405180910390f35b610082610116565b60405161008f91906107e0565b60405180910390f35b6100a061013c565b6040516100ad91906107e0565b60405180910390f35b6100be610162565b6040516100cb919061085b565b60405180910390f35b6100ee60048036038101906100e991906106e7565b610186565b005b600160009054906101000a900473ffffffffffffffffffffffffffffffffffffffff1681565b600360009054906101000a900473ffffffffffffffffffffffffffffffffffffffff1681565b600260009054906101000a900473ffffffffffffffffffffffffffffffffffffffff1681565b60008054906101000a900473ffffffffffffffffffffffffffffffffffffffff1681565b600260009054906101000a900473ffffffffffffffffffffffffffffffffffffffff1673ffffffffffffffffffffffffffffffffffffffff163373ffffffffffffffffffffffffffffffffffffffff16148061022f5750600360009054906101000a900473ffffffffffffffffffffffffffffffffffffffff1673ffffffffffffffffffffffffffffffffffffffff163373ffffffffffffffffffffffffffffffffffffffff16145b61026e576040517f08c379a0000000000000000000000000000000000000000000000000000000008152600401610265906108d6565b60405180910390fd5b8160008054906101000a900473ffffffffffffffffffffffffffffffffffffffff1673ffffffffffffffffffffffffffffffffffffffff1663dd62ed3e600260009054906101000a900473ffffffffffffffffffffffffffffffffffffffff16306040518363ffffffff1660e01b81526004016102ec9291906107fb565b60206040518083038186803b15801561030457600080fd5b505afa158015610318573d6000803e3d6000fd5b505050506040513d601f19601f8201168201806040525081019061033c91906106ba565b101561037d576040517f08c379a0000000000000000000000000000000000000000000000000000000008152600401610374906108b6565b60405180910390fd5b81600160009054906101000a900473ffffffffffffffffffffffffffffffffffffffff1673ffffffffffffffffffffffffffffffffffffffff1663dd62ed3e600260009054906101000a900473ffffffffffffffffffffffffffffffffffffffff16306040518363ffffffff1660e01b81526004016103fd9291906107fb565b60206040518083038186803b15801561041557600080fd5b505afa158015610429573d6000803e3d6000fd5b505050506040513d601f19601f8201168201806040525081019061044d91906106ba565b101561048e576040517f08c379a000000000000000000000000000000000000000000000000000000000815260040161048590610876565b60405180910390fd5b6104fe60008054906101000a900473ffffffffffffffffffffffffffffffffffffffff16600260009054906101000a900473ffffffffffffffffffffffffffffffffffffffff16600360009054906101000a900473ffffffffffffffffffffffffffffffffffffffff1685610574565b610570600160009054906101000a900473ffffffffffffffffffffffffffffffffffffffff16600360009054906101000a900473ffffffffffffffffffffffffffffffffffffffff16600260009054906101000a900473ffffffffffffffffffffffffffffffffffffffff1684610574565b5050565b60008473ffffffffffffffffffffffffffffffffffffffff166323b872dd8585856040518463ffffffff1660e01b81526004016105b393929190610824565b602060405180830381600087803b1580156105cd57600080fd5b505af11580156105e1573d6000803e3d6000fd5b505050506040513d601f19601f82011682018060405250810190610605919061068d565b905080610647576040517f08c379a000000000000000000000000000000000000000000000000000000000815260040161063e90610896565b60405180910390fd5b5050505050565b60008151905061065d81610a2e565b92915050565b60008135905061067281610a45565b92915050565b60008151905061068781610a45565b92915050565b6000602082840312156106a3576106a2610985565b5b60006106b18482850161064e565b91505092915050565b6000602082840312156106d0576106cf610985565b5b60006106de84828501610678565b91505092915050565b600080604083850312156106fe576106fd610985565b5b600061070c85828601610663565b925050602061071d85828601610663565b9150509250929050565b61073081610907565b82525050565b61073f8161094f565b82525050565b60006107526019836108f6565b915061075d8261098a565b602082019050919050565b60006107756015836108f6565b9150610780826109b3565b602082019050919050565b60006107986019836108f6565b91506107a3826109dc565b602082019050919050565b60006107bb600e836108f6565b91506107c682610a05565b602082019050919050565b6107da81610945565b82525050565b60006020820190506107f56000830184610727565b92915050565b60006040820190506108106000830185610727565b61081d6020830184610727565b9392505050565b60006060820190506108396000830186610727565b6108466020830185610727565b61085360408301846107d1565b949350505050565b60006020820190506108706000830184610736565b92915050565b6000602082019050818103600083015261088f81610745565b9050919050565b600060208201905081810360008301526108af81610768565b9050919050565b600060208201905081810360008301526108cf8161078b565b9050919050565b600060208201905081810360008301526108ef816107ae565b9050919050565b600082825260208201905092915050565b600061091282610925565b9050919050565b60008115159050919050565b600073ffffffffffffffffffffffffffffffffffffffff82169050919050565b6000819050919050565b600061095a82610961565b9050919050565b600061096c82610973565b9050919050565b600061097e82610925565b9050919050565b600080fd5b7f546f6b656e203220616c6c6f77616e636520746f6f206c6f7700000000000000600082015250565b7f546f6b656e207472616e73666572206661696c65640000000000000000000000600082015250565b7f546f6b656e203120616c6c6f77616e636520746f6f206c6f7700000000000000600082015250565b7f4e6f7420617574686f72697a6564000000000000000000000000000000000000600082015250565b610a3781610919565b8114610a4257600080fd5b50565b610a4e81610945565b8114610a5957600080fd5b5056fea264697066735822122073cbe7e260824872249e61ee3aeb0fe9e81896a95e77afcedd1fdd6508a2744b64736f6c63430008070033",
					"opcodes": "PUSH1 0x80 PUSH1 0x40 MSTORE CALLVALUE DUP1 ISZERO PUSH2 0x10 JUMPI PUSH1 0x0 DUP1 REVERT JUMPDEST POP PUSH1 0x40 MLOAD PUSH2 0xCA9 CODESIZE SUB DUP1 PUSH2 0xCA9 DUP4 CODECOPY DUP2 DUP2 ADD PUSH1 0x40 MSTORE DUP2 ADD SWAP1 PUSH2 0x32 SWAP2 SWAP1 PUSH2 0x153 JUMP JUMPDEST DUP4 PUSH1 0x0 DUP1 PUSH2 0x100 EXP DUP2 SLOAD DUP2 PUSH20 0xFFFFFFFFFFFFFFFFFFFFFFFFFFFFFFFFFFFFFFFF MUL NOT AND SWAP1 DUP4 PUSH20 0xFFFFFFFFFFFFFFFFFFFFFFFFFFFFFFFFFFFFFFFF AND MUL OR SWAP1 SSTORE POP DUP3 PUSH1 0x2 PUSH1 0x0 PUSH2 0x100 EXP DUP2 SLOAD DUP2 PUSH20 0xFFFFFFFFFFFFFFFFFFFFFFFFFFFFFFFFFFFFFFFF MUL NOT AND SWAP1 DUP4 PUSH20 0xFFFFFFFFFFFFFFFFFFFFFFFFFFFFFFFFFFFFFFFF AND MUL OR SWAP1 SSTORE POP DUP2 PUSH1 0x1 PUSH1 0x0 PUSH2 0x100 EXP DUP2 SLOAD DUP2 PUSH20 0xFFFFFFFFFFFFFFFFFFFFFFFFFFFFFFFFFFFFFFFF MUL NOT AND SWAP1 DUP4 PUSH20 0xFFFFFFFFFFFFFFFFFFFFFFFFFFFFFFFFFFFFFFFF AND MUL OR SWAP1 SSTORE POP DUP1 PUSH1 0x3 PUSH1 0x0 PUSH2 0x100 EXP DUP2 SLOAD DUP2 PUSH20 0xFFFFFFFFFFFFFFFFFFFFFFFFFFFFFFFFFFFFFFFF MUL NOT AND SWAP1 DUP4 PUSH20 0xFFFFFFFFFFFFFFFFFFFFFFFFFFFFFFFFFFFFFFFF AND MUL OR SWAP1 SSTORE POP POP POP POP POP PUSH2 0x208 JUMP JUMPDEST PUSH1 0x0 DUP2 MLOAD SWAP1 POP PUSH2 0x14D DUP2 PUSH2 0x1F1 JUMP JUMPDEST SWAP3 SWAP2 POP POP JUMP JUMPDEST PUSH1 0x0 DUP1 PUSH1 0x0 DUP1 PUSH1 0x80 DUP6 DUP8 SUB SLT ISZERO PUSH2 0x16D JUMPI PUSH2 0x16C PUSH2 0x1EC JUMP JUMPDEST JUMPDEST PUSH1 0x0 PUSH2 0x17B DUP8 DUP3 DUP9 ADD PUSH2 0x13E JUMP JUMPDEST SWAP5 POP POP PUSH1 0x20 PUSH2 0x18C DUP8 DUP3 DUP9 ADD PUSH2 0x13E JUMP JUMPDEST SWAP4 POP POP PUSH1 0x40 PUSH2 0x19D DUP8 DUP3 DUP9 ADD PUSH2 0x13E JUMP JUMPDEST SWAP3 POP POP PUSH1 0x60 PUSH2 0x1AE DUP8 DUP3 DUP9 ADD PUSH2 0x13E JUMP JUMPDEST SWAP2 POP POP SWAP3 SWAP6 SWAP2 SWAP5 POP SWAP3 POP JUMP JUMPDEST PUSH1 0x0 PUSH2 0x1C5 DUP3 PUSH2 0x1CC JUMP JUMPDEST SWAP1 POP SWAP2 SWAP1 POP JUMP JUMPDEST PUSH1 0x0 PUSH20 0xFFFFFFFFFFFFFFFFFFFFFFFFFFFFFFFFFFFFFFFF DUP3 AND SWAP1 POP SWAP2 SWAP1 POP JUMP JUMPDEST PUSH1 0x0 DUP1 REVERT JUMPDEST PUSH2 0x1FA DUP2 PUSH2 0x1BA JUMP JUMPDEST DUP2 EQ PUSH2 0x205 JUMPI PUSH1 0x0 DUP1 REVERT JUMPDEST POP JUMP JUMPDEST PUSH2 0xA92 DUP1 PUSH2 0x217 PUSH1 0x0 CODECOPY PUSH1 0x0 RETURN INVALID PUSH1 0x80 PUSH1 0x40 MSTORE CALLVALUE DUP1 ISZERO PUSH2 0x10 JUMPI PUSH1 0x0 DUP1 REVERT JUMPDEST POP PUSH1 0x4 CALLDATASIZE LT PUSH2 0x57 JUMPI PUSH1 0x0 CALLDATALOAD PUSH1 0xE0 SHR DUP1 PUSH4 0x25BE124E EQ PUSH2 0x5C JUMPI DUP1 PUSH4 0x52709725 EQ PUSH2 0x7A JUMPI DUP1 PUSH4 0x73688914 EQ PUSH2 0x98 JUMPI DUP1 PUSH4 0xD21220A7 EQ PUSH2 0xB6 JUMPI DUP1 PUSH4 0xD96073CF EQ PUSH2 0xD4 JUMPI JUMPDEST PUSH1 0x0 DUP1 REVERT JUMPDEST PUSH2 0x64 PUSH2 0xF0 JUMP JUMPDEST PUSH1 0x40 MLOAD PUSH2 0x71 SWAP2 SWAP1 PUSH2 0x85B JUMP JUMPDEST PUSH1 0x40 MLOAD DUP1 SWAP2 SUB SWAP1 RETURN JUMPDEST PUSH2 0x82 PUSH2 0x116 JUMP JUMPDEST PUSH1 0x40 MLOAD PUSH2 0x8F SWAP2 SWAP1 PUSH2 0x7E0 JUMP JUMPDEST PUSH1 0x40 MLOAD DUP1 SWAP2 SUB SWAP1 RETURN JUMPDEST PUSH2 0xA0 PUSH2 0x13C JUMP JUMPDEST PUSH1 0x40 MLOAD PUSH2 0xAD SWAP2 SWAP1 PUSH2 0x7E0 JUMP JUMPDEST PUSH1 0x40 MLOAD DUP1 SWAP2 SUB SWAP1 RETURN JUMPDEST PUSH2 0xBE PUSH2 0x162 JUMP JUMPDEST PUSH1 0x40 MLOAD PUSH2 0xCB SWAP2 SWAP1 PUSH2 0x85B JUMP JUMPDEST PUSH1 0x40 MLOAD DUP1 SWAP2 SUB SWAP1 RETURN JUMPDEST PUSH2 0xEE PUSH1 0x4 DUP1 CALLDATASIZE SUB DUP2 ADD SWAP1 PUSH2 0xE9 SWAP2 SWAP1 PUSH2 0x6E7 JUMP JUMPDEST PUSH2 0x186 JUMP JUMPDEST STOP JUMPDEST PUSH1 0x1 PUSH1 0x0 SWAP1 SLOAD SWAP1 PUSH2 0x100 EXP SWAP1 DIV PUSH20 0xFFFFFFFFFFFFFFFFFFFFFFFFFFFFFFFFFFFFFFFF AND DUP2 JUMP JUMPDEST PUSH1 0x3 PUSH1 0x0 SWAP1 SLOAD SWAP1 PUSH2 0x100 EXP SWAP1 DIV PUSH20 0xFFFFFFFFFFFFFFFFFFFFFFFFFFFFFFFFFFFFFFFF AND DUP2 JUMP JUMPDEST PUSH1 0x2 PUSH1 0x0 SWAP1 SLOAD SWAP1 PUSH2 0x100 EXP SWAP1 DIV PUSH20 0xFFFFFFFFFFFFFFFFFFFFFFFFFFFFFFFFFFFFFFFF AND DUP2 JUMP JUMPDEST PUSH1 0x0 DUP1 SLOAD SWAP1 PUSH2 0x100 EXP SWAP1 DIV PUSH20 0xFFFFFFFFFFFFFFFFFFFFFFFFFFFFFFFFFFFFFFFF AND DUP2 JUMP JUMPDEST PUSH1 0x2 PUSH1 0x0 SWAP1 SLOAD SWAP1 PUSH2 0x100 EXP SWAP1 DIV PUSH20 0xFFFFFFFFFFFFFFFFFFFFFFFFFFFFFFFFFFFFFFFF AND PUSH20 0xFFFFFFFFFFFFFFFFFFFFFFFFFFFFFFFFFFFFFFFF AND CALLER PUSH20 0xFFFFFFFFFFFFFFFFFFFFFFFFFFFFFFFFFFFFFFFF AND EQ DUP1 PUSH2 0x22F JUMPI POP PUSH1 0x3 PUSH1 0x0 SWAP1 SLOAD SWAP1 PUSH2 0x100 EXP SWAP1 DIV PUSH20 0xFFFFFFFFFFFFFFFFFFFFFFFFFFFFFFFFFFFFFFFF AND PUSH20 0xFFFFFFFFFFFFFFFFFFFFFFFFFFFFFFFFFFFFFFFF AND CALLER PUSH20 0xFFFFFFFFFFFFFFFFFFFFFFFFFFFFFFFFFFFFFFFF AND EQ JUMPDEST PUSH2 0x26E JUMPI PUSH1 0x40 MLOAD PUSH32 0x8C379A000000000000000000000000000000000000000000000000000000000 DUP2 MSTORE PUSH1 0x4 ADD PUSH2 0x265 SWAP1 PUSH2 0x8D6 JUMP JUMPDEST PUSH1 0x40 MLOAD DUP1 SWAP2 SUB SWAP1 REVERT JUMPDEST DUP2 PUSH1 0x0 DUP1 SLOAD SWAP1 PUSH2 0x100 EXP SWAP1 DIV PUSH20 0xFFFFFFFFFFFFFFFFFFFFFFFFFFFFFFFFFFFFFFFF AND PUSH20 0xFFFFFFFFFFFFFFFFFFFFFFFFFFFFFFFFFFFFFFFF AND PUSH4 0xDD62ED3E PUSH1 0x2 PUSH1 0x0 SWAP1 SLOAD SWAP1 PUSH2 0x100 EXP SWAP1 DIV PUSH20 0xFFFFFFFFFFFFFFFFFFFFFFFFFFFFFFFFFFFFFFFF AND ADDRESS PUSH1 0x40 MLOAD DUP4 PUSH4 0xFFFFFFFF AND PUSH1 0xE0 SHL DUP2 MSTORE PUSH1 0x4 ADD PUSH2 0x2EC SWAP3 SWAP2 SWAP1 PUSH2 0x7FB JUMP JUMPDEST PUSH1 0x20 PUSH1 0x40 MLOAD DUP1 DUP4 SUB DUP2 DUP7 DUP1 EXTCODESIZE ISZERO DUP1 ISZERO PUSH2 0x304 JUMPI PUSH1 0x0 DUP1 REVERT JUMPDEST POP GAS STATICCALL ISZERO DUP1 ISZERO PUSH2 0x318 JUMPI RETURNDATASIZE PUSH1 0x0 DUP1 RETURNDATACOPY RETURNDATASIZE PUSH1 0x0 REVERT JUMPDEST POP POP POP POP PUSH1 0x40 MLOAD RETURNDATASIZE PUSH1 0x1F NOT PUSH1 0x1F DUP3 ADD AND DUP3 ADD DUP1 PUSH1 0x40 MSTORE POP DUP2 ADD SWAP1 PUSH2 0x33C SWAP2 SWAP1 PUSH2 0x6BA JUMP JUMPDEST LT ISZERO PUSH2 0x37D JUMPI PUSH1 0x40 MLOAD PUSH32 0x8C379A000000000000000000000000000000000000000000000000000000000 DUP2 MSTORE PUSH1 0x4 ADD PUSH2 0x374 SWAP1 PUSH2 0x8B6 JUMP JUMPDEST PUSH1 0x40 MLOAD DUP1 SWAP2 SUB SWAP1 REVERT JUMPDEST DUP2 PUSH1 0x1 PUSH1 0x0 SWAP1 SLOAD SWAP1 PUSH2 0x100 EXP SWAP1 DIV PUSH20 0xFFFFFFFFFFFFFFFFFFFFFFFFFFFFFFFFFFFFFFFF AND PUSH20 0xFFFFFFFFFFFFFFFFFFFFFFFFFFFFFFFFFFFFFFFF AND PUSH4 0xDD62ED3E PUSH1 0x2 PUSH1 0x0 SWAP1 SLOAD SWAP1 PUSH2 0x100 EXP SWAP1 DIV PUSH20 0xFFFFFFFFFFFFFFFFFFFFFFFFFFFFFFFFFFFFFFFF AND ADDRESS PUSH1 0x40 MLOAD DUP4 PUSH4 0xFFFFFFFF AND PUSH1 0xE0 SHL DUP2 MSTORE PUSH1 0x4 ADD PUSH2 0x3FD SWAP3 SWAP2 SWAP1 PUSH2 0x7FB JUMP JUMPDEST PUSH1 0x20 PUSH1 0x40 MLOAD DUP1 DUP4 SUB DUP2 DUP7 DUP1 EXTCODESIZE ISZERO DUP1 ISZERO PUSH2 0x415 JUMPI PUSH1 0x0 DUP1 REVERT JUMPDEST POP GAS STATICCALL ISZERO DUP1 ISZERO PUSH2 0x429 JUMPI RETURNDATASIZE PUSH1 0x0 DUP1 RETURNDATACOPY RETURNDATASIZE PUSH1 0x0 REVERT JUMPDEST POP POP POP POP PUSH1 0x40 MLOAD RETURNDATASIZE PUSH1 0x1F NOT PUSH1 0x1F DUP3 ADD AND DUP3 ADD DUP1 PUSH1 0x40 MSTORE POP DUP2 ADD SWAP1 PUSH2 0x44D SWAP2 SWAP1 PUSH2 0x6BA JUMP JUMPDEST LT ISZERO PUSH2 0x48E JUMPI PUSH1 0x40 MLOAD PUSH32 0x8C379A000000000000000000000000000000000000000000000000000000000 DUP2 MSTORE PUSH1 0x4 ADD PUSH2 0x485 SWAP1 PUSH2 0x876 JUMP JUMPDEST PUSH1 0x40 MLOAD DUP1 SWAP2 SUB SWAP1 REVERT JUMPDEST PUSH2 0x4FE PUSH1 0x0 DUP1 SLOAD SWAP1 PUSH2 0x100 EXP SWAP1 DIV PUSH20 0xFFFFFFFFFFFFFFFFFFFFFFFFFFFFFFFFFFFFFFFF AND PUSH1 0x2 PUSH1 0x0 SWAP1 SLOAD SWAP1 PUSH2 0x100 EXP SWAP1 DIV PUSH20 0xFFFFFFFFFFFFFFFFFFFFFFFFFFFFFFFFFFFFFFFF AND PUSH1 0x3 PUSH1 0x0 SWAP1 SLOAD SWAP1 PUSH2 0x100 EXP SWAP1 DIV PUSH20 0xFFFFFFFFFFFFFFFFFFFFFFFFFFFFFFFFFFFFFFFF AND DUP6 PUSH2 0x574 JUMP JUMPDEST PUSH2 0x570 PUSH1 0x1 PUSH1 0x0 SWAP1 SLOAD SWAP1 PUSH2 0x100 EXP SWAP1 DIV PUSH20 0xFFFFFFFFFFFFFFFFFFFFFFFFFFFFFFFFFFFFFFFF AND PUSH1 0x3 PUSH1 0x0 SWAP1 SLOAD SWAP1 PUSH2 0x100 EXP SWAP1 DIV PUSH20 0xFFFFFFFFFFFFFFFFFFFFFFFFFFFFFFFFFFFFFFFF AND PUSH1 0x2 PUSH1 0x0 SWAP1 SLOAD SWAP1 PUSH2 0x100 EXP SWAP1 DIV PUSH20 0xFFFFFFFFFFFFFFFFFFFFFFFFFFFFFFFFFFFFFFFF AND DUP5 PUSH2 0x574 JUMP JUMPDEST POP POP JUMP JUMPDEST PUSH1 0x0 DUP5 PUSH20 0xFFFFFFFFFFFFFFFFFFFFFFFFFFFFFFFFFFFFFFFF AND PUSH4 0x23B872DD DUP6 DUP6 DUP6 PUSH1 0x40 MLOAD DUP5 PUSH4 0xFFFFFFFF AND PUSH1 0xE0 SHL DUP2 MSTORE PUSH1 0x4 ADD PUSH2 0x5B3 SWAP4 SWAP3 SWAP2 SWAP1 PUSH2 0x824 JUMP JUMPDEST PUSH1 0x20 PUSH1 0x40 MLOAD DUP1 DUP4 SUB DUP2 PUSH1 0x0 DUP8 DUP1 EXTCODESIZE ISZERO DUP1 ISZERO PUSH2 0x5CD JUMPI PUSH1 0x0 DUP1 REVERT JUMPDEST POP GAS CALL ISZERO DUP1 ISZERO PUSH2 0x5E1 JUMPI RETURNDATASIZE PUSH1 0x0 DUP1 RETURNDATACOPY RETURNDATASIZE PUSH1 0x0 REVERT JUMPDEST POP POP POP POP PUSH1 0x40 MLOAD RETURNDATASIZE PUSH1 0x1F NOT PUSH1 0x1F DUP3 ADD AND DUP3 ADD DUP1 PUSH1 0x40 MSTORE POP DUP2 ADD SWAP1 PUSH2 0x605 SWAP2 SWAP1 PUSH2 0x68D JUMP JUMPDEST SWAP1 POP DUP1 PUSH2 0x647 JUMPI PUSH1 0x40 MLOAD PUSH32 0x8C379A000000000000000000000000000000000000000000000000000000000 DUP2 MSTORE PUSH1 0x4 ADD PUSH2 0x63E SWAP1 PUSH2 0x896 JUMP JUMPDEST PUSH1 0x40 MLOAD DUP1 SWAP2 SUB SWAP1 REVERT JUMPDEST POP POP POP POP POP JUMP JUMPDEST PUSH1 0x0 DUP2 MLOAD SWAP1 POP PUSH2 0x65D DUP2 PUSH2 0xA2E JUMP JUMPDEST SWAP3 SWAP2 POP POP JUMP JUMPDEST PUSH1 0x0 DUP2 CALLDATALOAD SWAP1 POP PUSH2 0x672 DUP2 PUSH2 0xA45 JUMP JUMPDEST SWAP3 SWAP2 POP POP JUMP JUMPDEST PUSH1 0x0 DUP2 MLOAD SWAP1 POP PUSH2 0x687 DUP2 PUSH2 0xA45 JUMP JUMPDEST SWAP3 SWAP2 POP POP JUMP JUMPDEST PUSH1 0x0 PUSH1 0x20 DUP3 DUP5 SUB SLT ISZERO PUSH2 0x6A3 JUMPI PUSH2 0x6A2 PUSH2 0x985 JUMP JUMPDEST JUMPDEST PUSH1 0x0 PUSH2 0x6B1 DUP5 DUP3 DUP6 ADD PUSH2 0x64E JUMP JUMPDEST SWAP2 POP POP SWAP3 SWAP2 POP POP JUMP JUMPDEST PUSH1 0x0 PUSH1 0x20 DUP3 DUP5 SUB SLT ISZERO PUSH2 0x6D0 JUMPI PUSH2 0x6CF PUSH2 0x985 JUMP JUMPDEST JUMPDEST PUSH1 0x0 PUSH2 0x6DE DUP5 DUP3 DUP6 ADD PUSH2 0x678 JUMP JUMPDEST SWAP2 POP POP SWAP3 SWAP2 POP POP JUMP JUMPDEST PUSH1 0x0 DUP1 PUSH1 0x40 DUP4 DUP6 SUB SLT ISZERO PUSH2 0x6FE JUMPI PUSH2 0x6FD PUSH2 0x985 JUMP JUMPDEST JUMPDEST PUSH1 0x0 PUSH2 0x70C DUP6 DUP3 DUP7 ADD PUSH2 0x663 JUMP JUMPDEST SWAP3 POP POP PUSH1 0x20 PUSH2 0x71D DUP6 DUP3 DUP7 ADD PUSH2 0x663 JUMP JUMPDEST SWAP2 POP POP SWAP3 POP SWAP3 SWAP1 POP JUMP JUMPDEST PUSH2 0x730 DUP2 PUSH2 0x907 JUMP JUMPDEST DUP3 MSTORE POP POP JUMP JUMPDEST PUSH2 0x73F DUP2 PUSH2 0x94F JUMP JUMPDEST DUP3 MSTORE POP POP JUMP JUMPDEST PUSH1 0x0 PUSH2 0x752 PUSH1 0x19 DUP4 PUSH2 0x8F6 JUMP JUMPDEST SWAP2 POP PUSH2 0x75D DUP3 PUSH2 0x98A JUMP JUMPDEST PUSH1 0x20 DUP3 ADD SWAP1 POP SWAP2 SWAP1 POP JUMP JUMPDEST PUSH1 0x0 PUSH2 0x775 PUSH1 0x15 DUP4 PUSH2 0x8F6 JUMP JUMPDEST SWAP2 POP PUSH2 0x780 DUP3 PUSH2 0x9B3 JUMP JUMPDEST PUSH1 0x20 DUP3 ADD SWAP1 POP SWAP2 SWAP1 POP JUMP JUMPDEST PUSH1 0x0 PUSH2 0x798 PUSH1 0x19 DUP4 PUSH2 0x8F6 JUMP JUMPDEST SWAP2 POP PUSH2 0x7A3 DUP3 PUSH2 0x9DC JUMP JUMPDEST PUSH1 0x20 DUP3 ADD SWAP1 POP SWAP2 SWAP1 POP JUMP JUMPDEST PUSH1 0x0 PUSH2 0x7BB PUSH1 0xE DUP4 PUSH2 0x8F6 JUMP JUMPDEST SWAP2 POP PUSH2 0x7C6 DUP3 PUSH2 0xA05 JUMP JUMPDEST PUSH1 0x20 DUP3 ADD SWAP1 POP SWAP2 SWAP1 POP JUMP JUMPDEST PUSH2 0x7DA DUP2 PUSH2 0x945 JUMP JUMPDEST DUP3 MSTORE POP POP JUMP JUMPDEST PUSH1 0x0 PUSH1 0x20 DUP3 ADD SWAP1 POP PUSH2 0x7F5 PUSH1 0x0 DUP4 ADD DUP5 PUSH2 0x727 JUMP JUMPDEST SWAP3 SWAP2 POP POP JUMP JUMPDEST PUSH1 0x0 PUSH1 0x40 DUP3 ADD SWAP1 POP PUSH2 0x810 PUSH1 0x0 DUP4 ADD DUP6 PUSH2 0x727 JUMP JUMPDEST PUSH2 0x81D PUSH1 0x20 DUP4 ADD DUP5 PUSH2 0x727 JUMP JUMPDEST SWAP4 SWAP3 POP POP POP JUMP JUMPDEST PUSH1 0x0 PUSH1 0x60 DUP3 ADD SWAP1 POP PUSH2 0x839 PUSH1 0x0 DUP4 ADD DUP7 PUSH2 0x727 JUMP JUMPDEST PUSH2 0x846 PUSH1 0x20 DUP4 ADD DUP6 PUSH2 0x727 JUMP JUMPDEST PUSH2 0x853 PUSH1 0x40 DUP4 ADD DUP5 PUSH2 0x7D1 JUMP JUMPDEST SWAP5 SWAP4 POP POP POP POP JUMP JUMPDEST PUSH1 0x0 PUSH1 0x20 DUP3 ADD SWAP1 POP PUSH2 0x870 PUSH1 0x0 DUP4 ADD DUP5 PUSH2 0x736 JUMP JUMPDEST SWAP3 SWAP2 POP POP JUMP JUMPDEST PUSH1 0x0 PUSH1 0x20 DUP3 ADD SWAP1 POP DUP2 DUP2 SUB PUSH1 0x0 DUP4 ADD MSTORE PUSH2 0x88F DUP2 PUSH2 0x745 JUMP JUMPDEST SWAP1 POP SWAP2 SWAP1 POP JUMP JUMPDEST PUSH1 0x0 PUSH1 0x20 DUP3 ADD SWAP1 POP DUP2 DUP2 SUB PUSH1 0x0 DUP4 ADD MSTORE PUSH2 0x8AF DUP2 PUSH2 0x768 JUMP JUMPDEST SWAP1 POP SWAP2 SWAP1 POP JUMP JUMPDEST PUSH1 0x0 PUSH1 0x20 DUP3 ADD SWAP1 POP DUP2 DUP2 SUB PUSH1 0x0 DUP4 ADD MSTORE PUSH2 0x8CF DUP2 PUSH2 0x78B JUMP JUMPDEST SWAP1 POP SWAP2 SWAP1 POP JUMP JUMPDEST PUSH1 0x0 PUSH1 0x20 DUP3 ADD SWAP1 POP DUP2 DUP2 SUB PUSH1 0x0 DUP4 ADD MSTORE PUSH2 0x8EF DUP2 PUSH2 0x7AE JUMP JUMPDEST SWAP1 POP SWAP2 SWAP1 POP JUMP JUMPDEST PUSH1 0x0 DUP3 DUP3 MSTORE PUSH1 0x20 DUP3 ADD SWAP1 POP SWAP3 SWAP2 POP POP JUMP JUMPDEST PUSH1 0x0 PUSH2 0x912 DUP3 PUSH2 0x925 JUMP JUMPDEST SWAP1 POP SWAP2 SWAP1 POP JUMP JUMPDEST PUSH1 0x0 DUP2 ISZERO ISZERO SWAP1 POP SWAP2 SWAP1 POP JUMP JUMPDEST PUSH1 0x0 PUSH20 0xFFFFFFFFFFFFFFFFFFFFFFFFFFFFFFFFFFFFFFFF DUP3 AND SWAP1 POP SWAP2 SWAP1 POP JUMP JUMPDEST PUSH1 0x0 DUP2 SWAP1 POP SWAP2 SWAP1 POP JUMP JUMPDEST PUSH1 0x0 PUSH2 0x95A DUP3 PUSH2 0x961 JUMP JUMPDEST SWAP1 POP SWAP2 SWAP1 POP JUMP JUMPDEST PUSH1 0x0 PUSH2 0x96C DUP3 PUSH2 0x973 JUMP JUMPDEST SWAP1 POP SWAP2 SWAP1 POP JUMP JUMPDEST PUSH1 0x0 PUSH2 0x97E DUP3 PUSH2 0x925 JUMP JUMPDEST SWAP1 POP SWAP2 SWAP1 POP JUMP JUMPDEST PUSH1 0x0 DUP1 REVERT JUMPDEST PUSH32 0x546F6B656E203220616C6C6F77616E636520746F6F206C6F7700000000000000 PUSH1 0x0 DUP3 ADD MSTORE POP JUMP JUMPDEST PUSH32 0x546F6B656E207472616E73666572206661696C65640000000000000000000000 PUSH1 0x0 DUP3 ADD MSTORE POP JUMP JUMPDEST PUSH32 0x546F6B656E203120616C6C6F77616E636520746F6F206C6F7700000000000000 PUSH1 0x0 DUP3 ADD MSTORE POP JUMP JUMPDEST PUSH32 0x4E6F7420617574686F72697A6564000000000000000000000000000000000000 PUSH1 0x0 DUP3 ADD MSTORE POP JUMP JUMPDEST PUSH2 0xA37 DUP2 PUSH2 0x919 JUMP JUMPDEST DUP2 EQ PUSH2 0xA42 JUMPI PUSH1 0x0 DUP1 REVERT JUMPDEST POP JUMP JUMPDEST PUSH2 0xA4E DUP2 PUSH2 0x945 JUMP JUMPDEST DUP2 EQ PUSH2 0xA59 JUMPI PUSH1 0x0 DUP1 REVERT JUMPDEST POP JUMP INVALID LOG2 PUSH5 0x6970667358 0x22 SLT KECCAK256 PUSH20 0xCBE7E260824872249E61EE3AEB0FE9E81896A95E PUSH24 0xAFCEDD1FDD6508A2744B64736F6C63430008070033000000 "
				},
				"gasEstimates": {
					"creation": {
						"codeDepositCost": "541200",
						"executionCost": "infinite",
						"totalCost": "infinite"
					},
					"external": {
						"owner1()": "2536",
						"owner2()": "2514",
						"swap(uint256,uint256)": "infinite",
						"token1()": "2641",
						"token2()": "2578"
					},
					"internal": {
						"_safeTransferFrom(contract IERC20,address,address,uint256)": "infinite"
					}
				},
				"methodIdentifiers": {
					"owner1()": "73688914",
					"owner2()": "52709725",
					"swap(uint256,uint256)": "d96073cf",
					"token1()": "d21220a7",
					"token2()": "25be124e"
				}
			},
			"userdoc": {
				"kind": "user",
				"methods": {},
				"version": 1
			}
		}
	}
}