{
	"contracts/TokenSwap.sol": {
		"TokenSwap": {
			"abi": [
				{
					"inputs": [
						{
							"internalType": "address",
							"name": "_token1",
							"type": "address"
						},
						{
							"internalType": "address",
							"name": "_owner1",
							"type": "address"
						},
						{
							"internalType": "uint256",
							"name": "_amount1",
							"type": "uint256"
						},
						{
							"internalType": "address",
							"name": "_token2",
							"type": "address"
						},
						{
							"internalType": "address",
							"name": "_owner2",
							"type": "address"
						},
						{
							"internalType": "uint256",
							"name": "_amount2",
							"type": "uint256"
						}
					],
					"stateMutability": "nonpayable",
					"type": "constructor"
				},
				{
					"inputs": [],
					"name": "swap",
					"outputs": [],
					"stateMutability": "nonpayable",
					"type": "function"
				}
			],
			"devdoc": {
				"kind": "dev",
				"methods": {},
				"version": 1
			},
			"evm": {
				"assembly": "    /* \"contracts/TokenSwap.sol\":89:1392  contract TokenSwap {... */\n  mstore(0x40, 0x80)\n    /* \"contracts/TokenSwap.sol\":278:625  constructor(... */\n  callvalue\n  dup1\n  iszero\n  tag_1\n  jumpi\n  0x00\n  dup1\n  revert\ntag_1:\n  pop\n  mload(0x40)\n  sub(codesize, bytecodeSize)\n  dup1\n  bytecodeSize\n  dup4\n  codecopy\n  dup2\n  dup2\n  add\n  0x40\n  mstore\n  dup2\n  add\n  swap1\n  tag_2\n  swap2\n  swap1\n  tag_3\n  jump\t// in\ntag_2:\n    /* \"contracts/TokenSwap.sol\":468:475  _token1 */\n  dup6\n    /* \"contracts/TokenSwap.sol\":452:458  token1 */\n  0x00\n  dup1\n    /* \"contracts/TokenSwap.sol\":452:476  token1 = IERC20(_token1) */\n  0x0100\n  exp\n  dup2\n  sload\n  dup2\n  0xffffffffffffffffffffffffffffffffffffffff\n  mul\n  not\n  and\n  swap1\n  dup4\n  0xffffffffffffffffffffffffffffffffffffffff\n  and\n  mul\n  or\n  swap1\n  sstore\n  pop\n    /* \"contracts/TokenSwap.sol\":495:502  _owner1 */\n  dup5\n    /* \"contracts/TokenSwap.sol\":486:492  owner1 */\n  0x01\n  0x00\n    /* \"contracts/TokenSwap.sol\":486:502  owner1 = _owner1 */\n  0x0100\n  exp\n  dup2\n  sload\n  dup2\n  0xffffffffffffffffffffffffffffffffffffffff\n  mul\n  not\n  and\n  swap1\n  dup4\n  0xffffffffffffffffffffffffffffffffffffffff\n  and\n  mul\n  or\n  swap1\n  sstore\n  pop\n    /* \"contracts/TokenSwap.sol\":522:530  _amount1 */\n  dup4\n    /* \"contracts/TokenSwap.sol\":512:519  amount1 */\n  0x02\n    /* \"contracts/TokenSwap.sol\":512:530  amount1 = _amount1 */\n  dup2\n  swap1\n  sstore\n  pop\n    /* \"contracts/TokenSwap.sol\":556:563  _token2 */\n  dup3\n    /* \"contracts/TokenSwap.sol\":540:546  token2 */\n  0x03\n  0x00\n    /* \"contracts/TokenSwap.sol\":540:564  token2 = IERC20(_token2) */\n  0x0100\n  exp\n  dup2\n  sload\n  dup2\n  0xffffffffffffffffffffffffffffffffffffffff\n  mul\n  not\n  and\n  swap1\n  dup4\n  0xffffffffffffffffffffffffffffffffffffffff\n  and\n  mul\n  or\n  swap1\n  sstore\n  pop\n    /* \"contracts/TokenSwap.sol\":583:590  _owner2 */\n  dup2\n    /* \"contracts/TokenSwap.sol\":574:580  owner2 */\n  0x04\n  0x00\n    /* \"contracts/TokenSwap.sol\":574:590  owner2 = _owner2 */\n  0x0100\n  exp\n  dup2\n  sload\n  dup2\n  0xffffffffffffffffffffffffffffffffffffffff\n  mul\n  not\n  and\n  swap1\n  dup4\n  0xffffffffffffffffffffffffffffffffffffffff\n  and\n  mul\n  or\n  swap1\n  sstore\n  pop\n    /* \"contracts/TokenSwap.sol\":610:618  _amount2 */\n  dup1\n    /* \"contracts/TokenSwap.sol\":600:607  amount2 */\n  0x05\n    /* \"contracts/TokenSwap.sol\":600:618  amount2 = _amount2 */\n  dup2\n  swap1\n  sstore\n  pop\n    /* \"contracts/TokenSwap.sol\":278:625  constructor(... */\n  pop\n  pop\n  pop\n  pop\n  pop\n  pop\n    /* \"contracts/TokenSwap.sol\":89:1392  contract TokenSwap {... */\n  jump(tag_6)\n    /* \"#utility.yul\":7:150   */\ntag_8:\n    /* \"#utility.yul\":64:69   */\n  0x00\n    /* \"#utility.yul\":95:101   */\n  dup2\n    /* \"#utility.yul\":89:102   */\n  mload\n    /* \"#utility.yul\":80:102   */\n  swap1\n  pop\n    /* \"#utility.yul\":111:144   */\n  tag_10\n    /* \"#utility.yul\":138:143   */\n  dup2\n    /* \"#utility.yul\":111:144   */\n  tag_11\n  jump\t// in\ntag_10:\n    /* \"#utility.yul\":7:150   */\n  swap3\n  swap2\n  pop\n  pop\n  jump\t// out\n    /* \"#utility.yul\":156:299   */\ntag_12:\n    /* \"#utility.yul\":213:218   */\n  0x00\n    /* \"#utility.yul\":244:250   */\n  dup2\n    /* \"#utility.yul\":238:251   */\n  mload\n    /* \"#utility.yul\":229:251   */\n  swap1\n  pop\n    /* \"#utility.yul\":260:293   */\n  tag_14\n    /* \"#utility.yul\":287:292   */\n  dup2\n    /* \"#utility.yul\":260:293   */\n  tag_15\n  jump\t// in\ntag_14:\n    /* \"#utility.yul\":156:299   */\n  swap3\n  swap2\n  pop\n  pop\n  jump\t// out\n    /* \"#utility.yul\":305:1439   */\ntag_3:\n    /* \"#utility.yul\":420:426   */\n  0x00\n    /* \"#utility.yul\":428:434   */\n  dup1\n    /* \"#utility.yul\":436:442   */\n  0x00\n    /* \"#utility.yul\":444:450   */\n  dup1\n    /* \"#utility.yul\":452:458   */\n  0x00\n    /* \"#utility.yul\":460:466   */\n  dup1\n    /* \"#utility.yul\":509:512   */\n  0xc0\n    /* \"#utility.yul\":497:506   */\n  dup8\n    /* \"#utility.yul\":488:495   */\n  dup10\n    /* \"#utility.yul\":484:507   */\n  sub\n    /* \"#utility.yul\":480:513   */\n  slt\n    /* \"#utility.yul\":477:597   */\n  iszero\n  tag_17\n  jumpi\n    /* \"#utility.yul\":516:595   */\n  tag_18\n  tag_19\n  jump\t// in\ntag_18:\n    /* \"#utility.yul\":477:597   */\ntag_17:\n    /* \"#utility.yul\":636:637   */\n  0x00\n    /* \"#utility.yul\":661:725   */\n  tag_20\n    /* \"#utility.yul\":717:724   */\n  dup10\n    /* \"#utility.yul\":708:714   */\n  dup3\n    /* \"#utility.yul\":697:706   */\n  dup11\n    /* \"#utility.yul\":693:715   */\n  add\n    /* \"#utility.yul\":661:725   */\n  tag_8\n  jump\t// in\ntag_20:\n    /* \"#utility.yul\":651:725   */\n  swap7\n  pop\n    /* \"#utility.yul\":607:735   */\n  pop\n    /* \"#utility.yul\":774:776   */\n  0x20\n    /* \"#utility.yul\":800:864   */\n  tag_21\n    /* \"#utility.yul\":856:863   */\n  dup10\n    /* \"#utility.yul\":847:853   */\n  dup3\n    /* \"#utility.yul\":836:845   */\n  dup11\n    /* \"#utility.yul\":832:854   */\n  add\n    /* \"#utility.yul\":800:864   */\n  tag_8\n  jump\t// in\ntag_21:\n    /* \"#utility.yul\":790:864   */\n  swap6\n  pop\n    /* \"#utility.yul\":745:874   */\n  pop\n    /* \"#utility.yul\":913:915   */\n  0x40\n    /* \"#utility.yul\":939:1003   */\n  tag_22\n    /* \"#utility.yul\":995:1002   */\n  dup10\n    /* \"#utility.yul\":986:992   */\n  dup3\n    /* \"#utility.yul\":975:984   */\n  dup11\n    /* \"#utility.yul\":971:993   */\n  add\n    /* \"#utility.yul\":939:1003   */\n  tag_12\n  jump\t// in\ntag_22:\n    /* \"#utility.yul\":929:1003   */\n  swap5\n  pop\n    /* \"#utility.yul\":884:1013   */\n  pop\n    /* \"#utility.yul\":1052:1054   */\n  0x60\n    /* \"#utility.yul\":1078:1142   */\n  tag_23\n    /* \"#utility.yul\":1134:1141   */\n  dup10\n    /* \"#utility.yul\":1125:1131   */\n  dup3\n    /* \"#utility.yul\":1114:1123   */\n  dup11\n    /* \"#utility.yul\":1110:1132   */\n  add\n    /* \"#utility.yul\":1078:1142   */\n  tag_8\n  jump\t// in\ntag_23:\n    /* \"#utility.yul\":1068:1142   */\n  swap4\n  pop\n    /* \"#utility.yul\":1023:1152   */\n  pop\n    /* \"#utility.yul\":1191:1194   */\n  0x80\n    /* \"#utility.yul\":1218:1282   */\n  tag_24\n    /* \"#utility.yul\":1274:1281   */\n  dup10\n    /* \"#utility.yul\":1265:1271   */\n  dup3\n    /* \"#utility.yul\":1254:1263   */\n  dup11\n    /* \"#utility.yul\":1250:1272   */\n  add\n    /* \"#utility.yul\":1218:1282   */\n  tag_8\n  jump\t// in\ntag_24:\n    /* \"#utility.yul\":1208:1282   */\n  swap3\n  pop\n    /* \"#utility.yul\":1162:1292   */\n  pop\n    /* \"#utility.yul\":1331:1334   */\n  0xa0\n    /* \"#utility.yul\":1358:1422   */\n  tag_25\n    /* \"#utility.yul\":1414:1421   */\n  dup10\n    /* \"#utility.yul\":1405:1411   */\n  dup3\n    /* \"#utility.yul\":1394:1403   */\n  dup11\n    /* \"#utility.yul\":1390:1412   */\n  add\n    /* \"#utility.yul\":1358:1422   */\n  tag_12\n  jump\t// in\ntag_25:\n    /* \"#utility.yul\":1348:1422   */\n  swap2\n  pop\n    /* \"#utility.yul\":1302:1432   */\n  pop\n    /* \"#utility.yul\":305:1439   */\n  swap3\n  swap6\n  pop\n  swap3\n  swap6\n  pop\n  swap3\n  swap6\n  jump\t// out\n    /* \"#utility.yul\":1526:1622   */\ntag_28:\n    /* \"#utility.yul\":1563:1570   */\n  0x00\n    /* \"#utility.yul\":1592:1616   */\n  tag_30\n    /* \"#utility.yul\":1610:1615   */\n  dup3\n    /* \"#utility.yul\":1592:1616   */\n  tag_31\n  jump\t// in\ntag_30:\n    /* \"#utility.yul\":1581:1616   */\n  swap1\n  pop\n    /* \"#utility.yul\":1526:1622   */\n  swap2\n  swap1\n  pop\n  jump\t// out\n    /* \"#utility.yul\":1628:1754   */\ntag_31:\n    /* \"#utility.yul\":1665:1672   */\n  0x00\n    /* \"#utility.yul\":1705:1747   */\n  0xffffffffffffffffffffffffffffffffffffffff\n    /* \"#utility.yul\":1698:1703   */\n  dup3\n    /* \"#utility.yul\":1694:1748   */\n  and\n    /* \"#utility.yul\":1683:1748   */\n  swap1\n  pop\n    /* \"#utility.yul\":1628:1754   */\n  swap2\n  swap1\n  pop\n  jump\t// out\n    /* \"#utility.yul\":1760:1837   */\ntag_33:\n    /* \"#utility.yul\":1797:1804   */\n  0x00\n    /* \"#utility.yul\":1826:1831   */\n  dup2\n    /* \"#utility.yul\":1815:1831   */\n  swap1\n  pop\n    /* \"#utility.yul\":1760:1837   */\n  swap2\n  swap1\n  pop\n  jump\t// out\n    /* \"#utility.yul\":1966:2083   */\ntag_19:\n    /* \"#utility.yul\":2075:2076   */\n  0x00\n    /* \"#utility.yul\":2072:2073   */\n  dup1\n    /* \"#utility.yul\":2065:2077   */\n  revert\n    /* \"#utility.yul\":2089:2211   */\ntag_11:\n    /* \"#utility.yul\":2162:2186   */\n  tag_39\n    /* \"#utility.yul\":2180:2185   */\n  dup2\n    /* \"#utility.yul\":2162:2186   */\n  tag_28\n  jump\t// in\ntag_39:\n    /* \"#utility.yul\":2155:2160   */\n  dup2\n    /* \"#utility.yul\":2152:2187   */\n  eq\n    /* \"#utility.yul\":2142:2205   */\n  tag_40\n  jumpi\n    /* \"#utility.yul\":2201:2202   */\n  0x00\n    /* \"#utility.yul\":2198:2199   */\n  dup1\n    /* \"#utility.yul\":2191:2203   */\n  revert\n    /* \"#utility.yul\":2142:2205   */\ntag_40:\n    /* \"#utility.yul\":2089:2211   */\n  pop\n  jump\t// out\n    /* \"#utility.yul\":2217:2339   */\ntag_15:\n    /* \"#utility.yul\":2290:2314   */\n  tag_42\n    /* \"#utility.yul\":2308:2313   */\n  dup2\n    /* \"#utility.yul\":2290:2314   */\n  tag_33\n  jump\t// in\ntag_42:\n    /* \"#utility.yul\":2283:2288   */\n  dup2\n    /* \"#utility.yul\":2280:2315   */\n  eq\n    /* \"#utility.yul\":2270:2333   */\n  tag_43\n  jumpi\n    /* \"#utility.yul\":2329:2330   */\n  0x00\n    /* \"#utility.yul\":2326:2327   */\n  dup1\n    /* \"#utility.yul\":2319:2331   */\n  revert\n    /* \"#utility.yul\":2270:2333   */\ntag_43:\n    /* \"#utility.yul\":2217:2339   */\n  pop\n  jump\t// out\n    /* \"contracts/TokenSwap.sol\":89:1392  contract TokenSwap {... */\ntag_6:\n  dataSize(sub_0)\n  dup1\n  dataOffset(sub_0)\n  0x00\n  codecopy\n  0x00\n  return\nstop\n\nsub_0: assembly {\n        /* \"contracts/TokenSwap.sol\":89:1392  contract TokenSwap {... */\n      mstore(0x40, 0x80)\n      callvalue\n      dup1\n      iszero\n      tag_1\n      jumpi\n      0x00\n      dup1\n      revert\n    tag_1:\n      pop\n      jumpi(tag_2, lt(calldatasize, 0x04))\n      shr(0xe0, calldataload(0x00))\n      dup1\n      0x8119c065\n      eq\n      tag_3\n      jumpi\n    tag_2:\n      0x00\n      dup1\n      revert\n        /* \"contracts/TokenSwap.sol\":631:1127  function swap() public {... */\n    tag_3:\n      tag_4\n      tag_5\n      jump\t// in\n    tag_4:\n      stop\n    tag_5:\n        /* \"contracts/TokenSwap.sol\":686:692  owner1 */\n      0x01\n      0x00\n      swap1\n      sload\n      swap1\n      0x0100\n      exp\n      swap1\n      div\n      0xffffffffffffffffffffffffffffffffffffffff\n      and\n        /* \"contracts/TokenSwap.sol\":672:692  msg.sender == owner1 */\n      0xffffffffffffffffffffffffffffffffffffffff\n      and\n        /* \"contracts/TokenSwap.sol\":672:682  msg.sender */\n      caller\n        /* \"contracts/TokenSwap.sol\":672:692  msg.sender == owner1 */\n      0xffffffffffffffffffffffffffffffffffffffff\n      and\n      eq\n        /* \"contracts/TokenSwap.sol\":672:716  msg.sender == owner1 || msg.sender == owner2 */\n      dup1\n      tag_7\n      jumpi\n      pop\n        /* \"contracts/TokenSwap.sol\":710:716  owner2 */\n      0x04\n      0x00\n      swap1\n      sload\n      swap1\n      0x0100\n      exp\n      swap1\n      div\n      0xffffffffffffffffffffffffffffffffffffffff\n      and\n        /* \"contracts/TokenSwap.sol\":696:716  msg.sender == owner2 */\n      0xffffffffffffffffffffffffffffffffffffffff\n      and\n        /* \"contracts/TokenSwap.sol\":696:706  msg.sender */\n      caller\n        /* \"contracts/TokenSwap.sol\":696:716  msg.sender == owner2 */\n      0xffffffffffffffffffffffffffffffffffffffff\n      and\n      eq\n        /* \"contracts/TokenSwap.sol\":672:716  msg.sender == owner1 || msg.sender == owner2 */\n    tag_7:\n        /* \"contracts/TokenSwap.sol\":664:735  require(msg.sender == owner1 || msg.sender == owner2, \"Not authorized\") */\n      tag_8\n      jumpi\n      mload(0x40)\n      0x08c379a000000000000000000000000000000000000000000000000000000000\n      dup2\n      mstore\n      0x04\n      add\n      tag_9\n      swap1\n      tag_10\n      jump\t// in\n    tag_9:\n      mload(0x40)\n      dup1\n      swap2\n      sub\n      swap1\n      revert\n    tag_8:\n        /* \"contracts/TokenSwap.sol\":809:816  amount1 */\n      sload(0x02)\n        /* \"contracts/TokenSwap.sol\":766:772  token1 */\n      0x00\n      dup1\n      sload\n      swap1\n      0x0100\n      exp\n      swap1\n      div\n      0xffffffffffffffffffffffffffffffffffffffff\n      and\n        /* \"contracts/TokenSwap.sol\":766:782  token1.allowance */\n      0xffffffffffffffffffffffffffffffffffffffff\n      and\n      0xdd62ed3e\n        /* \"contracts/TokenSwap.sol\":783:789  owner1 */\n      0x01\n      0x00\n      swap1\n      sload\n      swap1\n      0x0100\n      exp\n      swap1\n      div\n      0xffffffffffffffffffffffffffffffffffffffff\n      and\n        /* \"contracts/TokenSwap.sol\":799:803  this */\n      address\n        /* \"contracts/TokenSwap.sol\":766:805  token1.allowance(owner1, address(this)) */\n      mload(0x40)\n      dup4\n      0xffffffff\n      and\n      0xe0\n      shl\n      dup2\n      mstore\n      0x04\n      add\n      tag_11\n      swap3\n      swap2\n      swap1\n      tag_12\n      jump\t// in\n    tag_11:\n      0x20\n      mload(0x40)\n      dup1\n      dup4\n      sub\n      dup2\n      dup7\n      dup1\n      extcodesize\n      iszero\n      dup1\n      iszero\n      tag_13\n      jumpi\n      0x00\n      dup1\n      revert\n    tag_13:\n      pop\n      gas\n      staticcall\n      iszero\n      dup1\n      iszero\n      tag_15\n      jumpi\n      returndatasize\n      0x00\n      dup1\n      returndatacopy\n      revert(0x00, returndatasize)\n    tag_15:\n      pop\n      pop\n      pop\n      pop\n      mload(0x40)\n      returndatasize\n      not(0x1f)\n      0x1f\n      dup3\n      add\n      and\n      dup3\n      add\n      dup1\n      0x40\n      mstore\n      pop\n      dup2\n      add\n      swap1\n      tag_16\n      swap2\n      swap1\n      tag_17\n      jump\t// in\n    tag_16:\n        /* \"contracts/TokenSwap.sol\":766:816  token1.allowance(owner1, address(this)) >= amount1 */\n      lt\n      iszero\n        /* \"contracts/TokenSwap.sol\":745:867  require(... */\n      tag_18\n      jumpi\n      mload(0x40)\n      0x08c379a000000000000000000000000000000000000000000000000000000000\n      dup2\n      mstore\n      0x04\n      add\n      tag_19\n      swap1\n      tag_20\n      jump\t// in\n    tag_19:\n      mload(0x40)\n      dup1\n      swap2\n      sub\n      swap1\n      revert\n    tag_18:\n        /* \"contracts/TokenSwap.sol\":941:948  amount2 */\n      sload(0x05)\n        /* \"contracts/TokenSwap.sol\":898:904  token2 */\n      0x03\n      0x00\n      swap1\n      sload\n      swap1\n      0x0100\n      exp\n      swap1\n      div\n      0xffffffffffffffffffffffffffffffffffffffff\n      and\n        /* \"contracts/TokenSwap.sol\":898:914  token2.allowance */\n      0xffffffffffffffffffffffffffffffffffffffff\n      and\n      0xdd62ed3e\n        /* \"contracts/TokenSwap.sol\":915:921  owner2 */\n      0x04\n      0x00\n      swap1\n      sload\n      swap1\n      0x0100\n      exp\n      swap1\n      div\n      0xffffffffffffffffffffffffffffffffffffffff\n      and\n        /* \"contracts/TokenSwap.sol\":931:935  this */\n      address\n        /* \"contracts/TokenSwap.sol\":898:937  token2.allowance(owner2, address(this)) */\n      mload(0x40)\n      dup4\n      0xffffffff\n      and\n      0xe0\n      shl\n      dup2\n      mstore\n      0x04\n      add\n      tag_21\n      swap3\n      swap2\n      swap1\n      tag_12\n      jump\t// in\n    tag_21:\n      0x20\n      mload(0x40)\n      dup1\n      dup4\n      sub\n      dup2\n      dup7\n      dup1\n      extcodesize\n      iszero\n      dup1\n      iszero\n      tag_22\n      jumpi\n      0x00\n      dup1\n      revert\n    tag_22:\n      pop\n      gas\n      staticcall\n      iszero\n      dup1\n      iszero\n      tag_24\n      jumpi\n      returndatasize\n      0x00\n      dup1\n      returndatacopy\n      revert(0x00, returndatasize)\n    tag_24:\n      pop\n      pop\n      pop\n      pop\n      mload(0x40)\n      returndatasize\n      not(0x1f)\n      0x1f\n      dup3\n      add\n      and\n      dup3\n      add\n      dup1\n      0x40\n      mstore\n      pop\n      dup2\n      add\n      swap1\n      tag_25\n      swap2\n      swap1\n      tag_17\n      jump\t// in\n    tag_25:\n        /* \"contracts/TokenSwap.sol\":898:948  token2.allowance(owner2, address(this)) >= amount2 */\n      lt\n      iszero\n        /* \"contracts/TokenSwap.sol\":877:999  require(... */\n      tag_26\n      jumpi\n      mload(0x40)\n      0x08c379a000000000000000000000000000000000000000000000000000000000\n      dup2\n      mstore\n      0x04\n      add\n      tag_27\n      swap1\n      tag_28\n      jump\t// in\n    tag_27:\n      mload(0x40)\n      dup1\n      swap2\n      sub\n      swap1\n      revert\n    tag_26:\n        /* \"contracts/TokenSwap.sol\":1010:1060  _safeTransferFrom(token1, owner1, owner2, amount1) */\n      tag_29\n        /* \"contracts/TokenSwap.sol\":1028:1034  token1 */\n      0x00\n      dup1\n      sload\n      swap1\n      0x0100\n      exp\n      swap1\n      div\n      0xffffffffffffffffffffffffffffffffffffffff\n      and\n        /* \"contracts/TokenSwap.sol\":1036:1042  owner1 */\n      0x01\n      0x00\n      swap1\n      sload\n      swap1\n      0x0100\n      exp\n      swap1\n      div\n      0xffffffffffffffffffffffffffffffffffffffff\n      and\n        /* \"contracts/TokenSwap.sol\":1044:1050  owner2 */\n      0x04\n      0x00\n      swap1\n      sload\n      swap1\n      0x0100\n      exp\n      swap1\n      div\n      0xffffffffffffffffffffffffffffffffffffffff\n      and\n        /* \"contracts/TokenSwap.sol\":1052:1059  amount1 */\n      sload(0x02)\n        /* \"contracts/TokenSwap.sol\":1010:1027  _safeTransferFrom */\n      tag_30\n        /* \"contracts/TokenSwap.sol\":1010:1060  _safeTransferFrom(token1, owner1, owner2, amount1) */\n      jump\t// in\n    tag_29:\n        /* \"contracts/TokenSwap.sol\":1070:1120  _safeTransferFrom(token2, owner2, owner1, amount2) */\n      tag_31\n        /* \"contracts/TokenSwap.sol\":1088:1094  token2 */\n      0x03\n      0x00\n      swap1\n      sload\n      swap1\n      0x0100\n      exp\n      swap1\n      div\n      0xffffffffffffffffffffffffffffffffffffffff\n      and\n        /* \"contracts/TokenSwap.sol\":1096:1102  owner2 */\n      0x04\n      0x00\n      swap1\n      sload\n      swap1\n      0x0100\n      exp\n      swap1\n      div\n      0xffffffffffffffffffffffffffffffffffffffff\n      and\n        /* \"contracts/TokenSwap.sol\":1104:1110  owner1 */\n      0x01\n      0x00\n      swap1\n      sload\n      swap1\n      0x0100\n      exp\n      swap1\n      div\n      0xffffffffffffffffffffffffffffffffffffffff\n      and\n        /* \"contracts/TokenSwap.sol\":1112:1119  amount2 */\n      sload(0x05)\n        /* \"contracts/TokenSwap.sol\":1070:1087  _safeTransferFrom */\n      tag_30\n        /* \"contracts/TokenSwap.sol\":1070:1120  _safeTransferFrom(token2, owner2, owner1, amount2) */\n      jump\t// in\n    tag_31:\n        /* \"contracts/TokenSwap.sol\":631:1127  function swap() public {... */\n      jump\t// out\n        /* \"contracts/TokenSwap.sol\":1133:1390  function _safeTransferFrom(... */\n    tag_30:\n        /* \"contracts/TokenSwap.sol\":1278:1287  bool sent */\n      0x00\n        /* \"contracts/TokenSwap.sol\":1290:1295  token */\n      dup5\n        /* \"contracts/TokenSwap.sol\":1290:1308  token.transferFrom */\n      0xffffffffffffffffffffffffffffffffffffffff\n      and\n      0x23b872dd\n        /* \"contracts/TokenSwap.sol\":1309:1315  sender */\n      dup6\n        /* \"contracts/TokenSwap.sol\":1317:1326  recipient */\n      dup6\n        /* \"contracts/TokenSwap.sol\":1328:1334  amount */\n      dup6\n        /* \"contracts/TokenSwap.sol\":1290:1335  token.transferFrom(sender, recipient, amount) */\n      mload(0x40)\n      dup5\n      0xffffffff\n      and\n      0xe0\n      shl\n      dup2\n      mstore\n      0x04\n      add\n      tag_33\n      swap4\n      swap3\n      swap2\n      swap1\n      tag_34\n      jump\t// in\n    tag_33:\n      0x20\n      mload(0x40)\n      dup1\n      dup4\n      sub\n      dup2\n      0x00\n      dup8\n      dup1\n      extcodesize\n      iszero\n      dup1\n      iszero\n      tag_35\n      jumpi\n      0x00\n      dup1\n      revert\n    tag_35:\n      pop\n      gas\n      call\n      iszero\n      dup1\n      iszero\n      tag_37\n      jumpi\n      returndatasize\n      0x00\n      dup1\n      returndatacopy\n      revert(0x00, returndatasize)\n    tag_37:\n      pop\n      pop\n      pop\n      pop\n      mload(0x40)\n      returndatasize\n      not(0x1f)\n      0x1f\n      dup3\n      add\n      and\n      dup3\n      add\n      dup1\n      0x40\n      mstore\n      pop\n      dup2\n      add\n      swap1\n      tag_38\n      swap2\n      swap1\n      tag_39\n      jump\t// in\n    tag_38:\n        /* \"contracts/TokenSwap.sol\":1278:1335  bool sent = token.transferFrom(sender, recipient, amount) */\n      swap1\n      pop\n        /* \"contracts/TokenSwap.sol\":1353:1357  sent */\n      dup1\n        /* \"contracts/TokenSwap.sol\":1345:1383  require(sent, \"Token transfer failed\") */\n      tag_40\n      jumpi\n      mload(0x40)\n      0x08c379a000000000000000000000000000000000000000000000000000000000\n      dup2\n      mstore\n      0x04\n      add\n      tag_41\n      swap1\n      tag_42\n      jump\t// in\n    tag_41:\n      mload(0x40)\n      dup1\n      swap2\n      sub\n      swap1\n      revert\n    tag_40:\n        /* \"contracts/TokenSwap.sol\":1268:1390  {... */\n      pop\n        /* \"contracts/TokenSwap.sol\":1133:1390  function _safeTransferFrom(... */\n      pop\n      pop\n      pop\n      pop\n      jump\t// out\n        /* \"#utility.yul\":7:144   */\n    tag_44:\n        /* \"#utility.yul\":61:66   */\n      0x00\n        /* \"#utility.yul\":92:98   */\n      dup2\n        /* \"#utility.yul\":86:99   */\n      mload\n        /* \"#utility.yul\":77:99   */\n      swap1\n      pop\n        /* \"#utility.yul\":108:138   */\n      tag_46\n        /* \"#utility.yul\":132:137   */\n      dup2\n        /* \"#utility.yul\":108:138   */\n      tag_47\n      jump\t// in\n    tag_46:\n        /* \"#utility.yul\":7:144   */\n      swap3\n      swap2\n      pop\n      pop\n      jump\t// out\n        /* \"#utility.yul\":150:293   */\n    tag_48:\n        /* \"#utility.yul\":207:212   */\n      0x00\n        /* \"#utility.yul\":238:244   */\n      dup2\n        /* \"#utility.yul\":232:245   */\n      mload\n        /* \"#utility.yul\":223:245   */\n      swap1\n      pop\n        /* \"#utility.yul\":254:287   */\n      tag_50\n        /* \"#utility.yul\":281:286   */\n      dup2\n        /* \"#utility.yul\":254:287   */\n      tag_51\n      jump\t// in\n    tag_50:\n        /* \"#utility.yul\":150:293   */\n      swap3\n      swap2\n      pop\n      pop\n      jump\t// out\n        /* \"#utility.yul\":299:644   */\n    tag_39:\n        /* \"#utility.yul\":366:372   */\n      0x00\n        /* \"#utility.yul\":415:417   */\n      0x20\n        /* \"#utility.yul\":403:412   */\n      dup3\n        /* \"#utility.yul\":394:401   */\n      dup5\n        /* \"#utility.yul\":390:413   */\n      sub\n        /* \"#utility.yul\":386:418   */\n      slt\n        /* \"#utility.yul\":383:502   */\n      iszero\n      tag_53\n      jumpi\n        /* \"#utility.yul\":421:500   */\n      tag_54\n      tag_55\n      jump\t// in\n    tag_54:\n        /* \"#utility.yul\":383:502   */\n    tag_53:\n        /* \"#utility.yul\":541:542   */\n      0x00\n        /* \"#utility.yul\":566:627   */\n      tag_56\n        /* \"#utility.yul\":619:626   */\n      dup5\n        /* \"#utility.yul\":610:616   */\n      dup3\n        /* \"#utility.yul\":599:608   */\n      dup6\n        /* \"#utility.yul\":595:617   */\n      add\n        /* \"#utility.yul\":566:627   */\n      tag_44\n      jump\t// in\n    tag_56:\n        /* \"#utility.yul\":556:627   */\n      swap2\n      pop\n        /* \"#utility.yul\":512:637   */\n      pop\n        /* \"#utility.yul\":299:644   */\n      swap3\n      swap2\n      pop\n      pop\n      jump\t// out\n        /* \"#utility.yul\":650:1001   */\n    tag_17:\n        /* \"#utility.yul\":720:726   */\n      0x00\n        /* \"#utility.yul\":769:771   */\n      0x20\n        /* \"#utility.yul\":757:766   */\n      dup3\n        /* \"#utility.yul\":748:755   */\n      dup5\n        /* \"#utility.yul\":744:767   */\n      sub\n        /* \"#utility.yul\":740:772   */\n      slt\n        /* \"#utility.yul\":737:856   */\n      iszero\n      tag_58\n      jumpi\n        /* \"#utility.yul\":775:854   */\n      tag_59\n      tag_55\n      jump\t// in\n    tag_59:\n        /* \"#utility.yul\":737:856   */\n    tag_58:\n        /* \"#utility.yul\":895:896   */\n      0x00\n        /* \"#utility.yul\":920:984   */\n      tag_60\n        /* \"#utility.yul\":976:983   */\n      dup5\n        /* \"#utility.yul\":967:973   */\n      dup3\n        /* \"#utility.yul\":956:965   */\n      dup6\n        /* \"#utility.yul\":952:974   */\n      add\n        /* \"#utility.yul\":920:984   */\n      tag_48\n      jump\t// in\n    tag_60:\n        /* \"#utility.yul\":910:984   */\n      swap2\n      pop\n        /* \"#utility.yul\":866:994   */\n      pop\n        /* \"#utility.yul\":650:1001   */\n      swap3\n      swap2\n      pop\n      pop\n      jump\t// out\n        /* \"#utility.yul\":1007:1125   */\n    tag_61:\n        /* \"#utility.yul\":1094:1118   */\n      tag_63\n        /* \"#utility.yul\":1112:1117   */\n      dup2\n        /* \"#utility.yul\":1094:1118   */\n      tag_64\n      jump\t// in\n    tag_63:\n        /* \"#utility.yul\":1089:1092   */\n      dup3\n        /* \"#utility.yul\":1082:1119   */\n      mstore\n        /* \"#utility.yul\":1007:1125   */\n      pop\n      pop\n      jump\t// out\n        /* \"#utility.yul\":1131:1497   */\n    tag_65:\n        /* \"#utility.yul\":1273:1276   */\n      0x00\n        /* \"#utility.yul\":1294:1361   */\n      tag_67\n        /* \"#utility.yul\":1358:1360   */\n      0x19\n        /* \"#utility.yul\":1353:1356   */\n      dup4\n        /* \"#utility.yul\":1294:1361   */\n      tag_68\n      jump\t// in\n    tag_67:\n        /* \"#utility.yul\":1287:1361   */\n      swap2\n      pop\n        /* \"#utility.yul\":1370:1463   */\n      tag_69\n        /* \"#utility.yul\":1459:1462   */\n      dup3\n        /* \"#utility.yul\":1370:1463   */\n      tag_70\n      jump\t// in\n    tag_69:\n        /* \"#utility.yul\":1488:1490   */\n      0x20\n        /* \"#utility.yul\":1483:1486   */\n      dup3\n        /* \"#utility.yul\":1479:1491   */\n      add\n        /* \"#utility.yul\":1472:1491   */\n      swap1\n      pop\n        /* \"#utility.yul\":1131:1497   */\n      swap2\n      swap1\n      pop\n      jump\t// out\n        /* \"#utility.yul\":1503:1869   */\n    tag_71:\n        /* \"#utility.yul\":1645:1648   */\n      0x00\n        /* \"#utility.yul\":1666:1733   */\n      tag_73\n        /* \"#utility.yul\":1730:1732   */\n      0x15\n        /* \"#utility.yul\":1725:1728   */\n      dup4\n        /* \"#utility.yul\":1666:1733   */\n      tag_68\n      jump\t// in\n    tag_73:\n        /* \"#utility.yul\":1659:1733   */\n      swap2\n      pop\n        /* \"#utility.yul\":1742:1835   */\n      tag_74\n        /* \"#utility.yul\":1831:1834   */\n      dup3\n        /* \"#utility.yul\":1742:1835   */\n      tag_75\n      jump\t// in\n    tag_74:\n        /* \"#utility.yul\":1860:1862   */\n      0x20\n        /* \"#utility.yul\":1855:1858   */\n      dup3\n        /* \"#utility.yul\":1851:1863   */\n      add\n        /* \"#utility.yul\":1844:1863   */\n      swap1\n      pop\n        /* \"#utility.yul\":1503:1869   */\n      swap2\n      swap1\n      pop\n      jump\t// out\n        /* \"#utility.yul\":1875:2241   */\n    tag_76:\n        /* \"#utility.yul\":2017:2020   */\n      0x00\n        /* \"#utility.yul\":2038:2105   */\n      tag_78\n        /* \"#utility.yul\":2102:2104   */\n      0x19\n        /* \"#utility.yul\":2097:2100   */\n      dup4\n        /* \"#utility.yul\":2038:2105   */\n      tag_68\n      jump\t// in\n    tag_78:\n        /* \"#utility.yul\":2031:2105   */\n      swap2\n      pop\n        /* \"#utility.yul\":2114:2207   */\n      tag_79\n        /* \"#utility.yul\":2203:2206   */\n      dup3\n        /* \"#utility.yul\":2114:2207   */\n      tag_80\n      jump\t// in\n    tag_79:\n        /* \"#utility.yul\":2232:2234   */\n      0x20\n        /* \"#utility.yul\":2227:2230   */\n      dup3\n        /* \"#utility.yul\":2223:2235   */\n      add\n        /* \"#utility.yul\":2216:2235   */\n      swap1\n      pop\n        /* \"#utility.yul\":1875:2241   */\n      swap2\n      swap1\n      pop\n      jump\t// out\n        /* \"#utility.yul\":2247:2613   */\n    tag_81:\n        /* \"#utility.yul\":2389:2392   */\n      0x00\n        /* \"#utility.yul\":2410:2477   */\n      tag_83\n        /* \"#utility.yul\":2474:2476   */\n      0x0e\n        /* \"#utility.yul\":2469:2472   */\n      dup4\n        /* \"#utility.yul\":2410:2477   */\n      tag_68\n      jump\t// in\n    tag_83:\n        /* \"#utility.yul\":2403:2477   */\n      swap2\n      pop\n        /* \"#utility.yul\":2486:2579   */\n      tag_84\n        /* \"#utility.yul\":2575:2578   */\n      dup3\n        /* \"#utility.yul\":2486:2579   */\n      tag_85\n      jump\t// in\n    tag_84:\n        /* \"#utility.yul\":2604:2606   */\n      0x20\n        /* \"#utility.yul\":2599:2602   */\n      dup3\n        /* \"#utility.yul\":2595:2607   */\n      add\n        /* \"#utility.yul\":2588:2607   */\n      swap1\n      pop\n        /* \"#utility.yul\":2247:2613   */\n      swap2\n      swap1\n      pop\n      jump\t// out\n        /* \"#utility.yul\":2619:2737   */\n    tag_86:\n        /* \"#utility.yul\":2706:2730   */\n      tag_88\n        /* \"#utility.yul\":2724:2729   */\n      dup2\n        /* \"#utility.yul\":2706:2730   */\n      tag_89\n      jump\t// in\n    tag_88:\n        /* \"#utility.yul\":2701:2704   */\n      dup3\n        /* \"#utility.yul\":2694:2731   */\n      mstore\n        /* \"#utility.yul\":2619:2737   */\n      pop\n      pop\n      jump\t// out\n        /* \"#utility.yul\":2743:3075   */\n    tag_12:\n        /* \"#utility.yul\":2864:2868   */\n      0x00\n        /* \"#utility.yul\":2902:2904   */\n      0x40\n        /* \"#utility.yul\":2891:2900   */\n      dup3\n        /* \"#utility.yul\":2887:2905   */\n      add\n        /* \"#utility.yul\":2879:2905   */\n      swap1\n      pop\n        /* \"#utility.yul\":2915:2986   */\n      tag_91\n        /* \"#utility.yul\":2983:2984   */\n      0x00\n        /* \"#utility.yul\":2972:2981   */\n      dup4\n        /* \"#utility.yul\":2968:2985   */\n      add\n        /* \"#utility.yul\":2959:2965   */\n      dup6\n        /* \"#utility.yul\":2915:2986   */\n      tag_61\n      jump\t// in\n    tag_91:\n        /* \"#utility.yul\":2996:3068   */\n      tag_92\n        /* \"#utility.yul\":3064:3066   */\n      0x20\n        /* \"#utility.yul\":3053:3062   */\n      dup4\n        /* \"#utility.yul\":3049:3067   */\n      add\n        /* \"#utility.yul\":3040:3046   */\n      dup5\n        /* \"#utility.yul\":2996:3068   */\n      tag_61\n      jump\t// in\n    tag_92:\n        /* \"#utility.yul\":2743:3075   */\n      swap4\n      swap3\n      pop\n      pop\n      pop\n      jump\t// out\n        /* \"#utility.yul\":3081:3523   */\n    tag_34:\n        /* \"#utility.yul\":3230:3234   */\n      0x00\n        /* \"#utility.yul\":3268:3270   */\n      0x60\n        /* \"#utility.yul\":3257:3266   */\n      dup3\n        /* \"#utility.yul\":3253:3271   */\n      add\n        /* \"#utility.yul\":3245:3271   */\n      swap1\n      pop\n        /* \"#utility.yul\":3281:3352   */\n      tag_94\n        /* \"#utility.yul\":3349:3350   */\n      0x00\n        /* \"#utility.yul\":3338:3347   */\n      dup4\n        /* \"#utility.yul\":3334:3351   */\n      add\n        /* \"#utility.yul\":3325:3331   */\n      dup7\n        /* \"#utility.yul\":3281:3352   */\n      tag_61\n      jump\t// in\n    tag_94:\n        /* \"#utility.yul\":3362:3434   */\n      tag_95\n        /* \"#utility.yul\":3430:3432   */\n      0x20\n        /* \"#utility.yul\":3419:3428   */\n      dup4\n        /* \"#utility.yul\":3415:3433   */\n      add\n        /* \"#utility.yul\":3406:3412   */\n      dup6\n        /* \"#utility.yul\":3362:3434   */\n      tag_61\n      jump\t// in\n    tag_95:\n        /* \"#utility.yul\":3444:3516   */\n      tag_96\n        /* \"#utility.yul\":3512:3514   */\n      0x40\n        /* \"#utility.yul\":3501:3510   */\n      dup4\n        /* \"#utility.yul\":3497:3515   */\n      add\n        /* \"#utility.yul\":3488:3494   */\n      dup5\n        /* \"#utility.yul\":3444:3516   */\n      tag_86\n      jump\t// in\n    tag_96:\n        /* \"#utility.yul\":3081:3523   */\n      swap5\n      swap4\n      pop\n      pop\n      pop\n      pop\n      jump\t// out\n        /* \"#utility.yul\":3529:3948   */\n    tag_28:\n        /* \"#utility.yul\":3695:3699   */\n      0x00\n        /* \"#utility.yul\":3733:3735   */\n      0x20\n        /* \"#utility.yul\":3722:3731   */\n      dup3\n        /* \"#utility.yul\":3718:3736   */\n      add\n        /* \"#utility.yul\":3710:3736   */\n      swap1\n      pop\n        /* \"#utility.yul\":3782:3791   */\n      dup2\n        /* \"#utility.yul\":3776:3780   */\n      dup2\n        /* \"#utility.yul\":3772:3792   */\n      sub\n        /* \"#utility.yul\":3768:3769   */\n      0x00\n        /* \"#utility.yul\":3757:3766   */\n      dup4\n        /* \"#utility.yul\":3753:3770   */\n      add\n        /* \"#utility.yul\":3746:3793   */\n      mstore\n        /* \"#utility.yul\":3810:3941   */\n      tag_98\n        /* \"#utility.yul\":3936:3940   */\n      dup2\n        /* \"#utility.yul\":3810:3941   */\n      tag_65\n      jump\t// in\n    tag_98:\n        /* \"#utility.yul\":3802:3941   */\n      swap1\n      pop\n        /* \"#utility.yul\":3529:3948   */\n      swap2\n      swap1\n      pop\n      jump\t// out\n        /* \"#utility.yul\":3954:4373   */\n    tag_42:\n        /* \"#utility.yul\":4120:4124   */\n      0x00\n        /* \"#utility.yul\":4158:4160   */\n      0x20\n        /* \"#utility.yul\":4147:4156   */\n      dup3\n        /* \"#utility.yul\":4143:4161   */\n      add\n        /* \"#utility.yul\":4135:4161   */\n      swap1\n      pop\n        /* \"#utility.yul\":4207:4216   */\n      dup2\n        /* \"#utility.yul\":4201:4205   */\n      dup2\n        /* \"#utility.yul\":4197:4217   */\n      sub\n        /* \"#utility.yul\":4193:4194   */\n      0x00\n        /* \"#utility.yul\":4182:4191   */\n      dup4\n        /* \"#utility.yul\":4178:4195   */\n      add\n        /* \"#utility.yul\":4171:4218   */\n      mstore\n        /* \"#utility.yul\":4235:4366   */\n      tag_100\n        /* \"#utility.yul\":4361:4365   */\n      dup2\n        /* \"#utility.yul\":4235:4366   */\n      tag_71\n      jump\t// in\n    tag_100:\n        /* \"#utility.yul\":4227:4366   */\n      swap1\n      pop\n        /* \"#utility.yul\":3954:4373   */\n      swap2\n      swap1\n      pop\n      jump\t// out\n        /* \"#utility.yul\":4379:4798   */\n    tag_20:\n        /* \"#utility.yul\":4545:4549   */\n      0x00\n        /* \"#utility.yul\":4583:4585   */\n      0x20\n        /* \"#utility.yul\":4572:4581   */\n      dup3\n        /* \"#utility.yul\":4568:4586   */\n      add\n        /* \"#utility.yul\":4560:4586   */\n      swap1\n      pop\n        /* \"#utility.yul\":4632:4641   */\n      dup2\n        /* \"#utility.yul\":4626:4630   */\n      dup2\n        /* \"#utility.yul\":4622:4642   */\n      sub\n        /* \"#utility.yul\":4618:4619   */\n      0x00\n        /* \"#utility.yul\":4607:4616   */\n      dup4\n        /* \"#utility.yul\":4603:4620   */\n      add\n        /* \"#utility.yul\":4596:4643   */\n      mstore\n        /* \"#utility.yul\":4660:4791   */\n      tag_102\n        /* \"#utility.yul\":4786:4790   */\n      dup2\n        /* \"#utility.yul\":4660:4791   */\n      tag_76\n      jump\t// in\n    tag_102:\n        /* \"#utility.yul\":4652:4791   */\n      swap1\n      pop\n        /* \"#utility.yul\":4379:4798   */\n      swap2\n      swap1\n      pop\n      jump\t// out\n        /* \"#utility.yul\":4804:5223   */\n    tag_10:\n        /* \"#utility.yul\":4970:4974   */\n      0x00\n        /* \"#utility.yul\":5008:5010   */\n      0x20\n        /* \"#utility.yul\":4997:5006   */\n      dup3\n        /* \"#utility.yul\":4993:5011   */\n      add\n        /* \"#utility.yul\":4985:5011   */\n      swap1\n      pop\n        /* \"#utility.yul\":5057:5066   */\n      dup2\n        /* \"#utility.yul\":5051:5055   */\n      dup2\n        /* \"#utility.yul\":5047:5067   */\n      sub\n        /* \"#utility.yul\":5043:5044   */\n      0x00\n        /* \"#utility.yul\":5032:5041   */\n      dup4\n        /* \"#utility.yul\":5028:5045   */\n      add\n        /* \"#utility.yul\":5021:5068   */\n      mstore\n        /* \"#utility.yul\":5085:5216   */\n      tag_104\n        /* \"#utility.yul\":5211:5215   */\n      dup2\n        /* \"#utility.yul\":5085:5216   */\n      tag_81\n      jump\t// in\n    tag_104:\n        /* \"#utility.yul\":5077:5216   */\n      swap1\n      pop\n        /* \"#utility.yul\":4804:5223   */\n      swap2\n      swap1\n      pop\n      jump\t// out\n        /* \"#utility.yul\":5310:5479   */\n    tag_68:\n        /* \"#utility.yul\":5394:5405   */\n      0x00\n        /* \"#utility.yul\":5428:5434   */\n      dup3\n        /* \"#utility.yul\":5423:5426   */\n      dup3\n        /* \"#utility.yul\":5416:5435   */\n      mstore\n        /* \"#utility.yul\":5468:5472   */\n      0x20\n        /* \"#utility.yul\":5463:5466   */\n      dup3\n        /* \"#utility.yul\":5459:5473   */\n      add\n        /* \"#utility.yul\":5444:5473   */\n      swap1\n      pop\n        /* \"#utility.yul\":5310:5479   */\n      swap3\n      swap2\n      pop\n      pop\n      jump\t// out\n        /* \"#utility.yul\":5485:5581   */\n    tag_64:\n        /* \"#utility.yul\":5522:5529   */\n      0x00\n        /* \"#utility.yul\":5551:5575   */\n      tag_109\n        /* \"#utility.yul\":5569:5574   */\n      dup3\n        /* \"#utility.yul\":5551:5575   */\n      tag_110\n      jump\t// in\n    tag_109:\n        /* \"#utility.yul\":5540:5575   */\n      swap1\n      pop\n        /* \"#utility.yul\":5485:5581   */\n      swap2\n      swap1\n      pop\n      jump\t// out\n        /* \"#utility.yul\":5587:5677   */\n    tag_111:\n        /* \"#utility.yul\":5621:5628   */\n      0x00\n        /* \"#utility.yul\":5664:5669   */\n      dup2\n        /* \"#utility.yul\":5657:5670   */\n      iszero\n        /* \"#utility.yul\":5650:5671   */\n      iszero\n        /* \"#utility.yul\":5639:5671   */\n      swap1\n      pop\n        /* \"#utility.yul\":5587:5677   */\n      swap2\n      swap1\n      pop\n      jump\t// out\n        /* \"#utility.yul\":5683:5809   */\n    tag_110:\n        /* \"#utility.yul\":5720:5727   */\n      0x00\n        /* \"#utility.yul\":5760:5802   */\n      0xffffffffffffffffffffffffffffffffffffffff\n        /* \"#utility.yul\":5753:5758   */\n      dup3\n        /* \"#utility.yul\":5749:5803   */\n      and\n        /* \"#utility.yul\":5738:5803   */\n      swap1\n      pop\n        /* \"#utility.yul\":5683:5809   */\n      swap2\n      swap1\n      pop\n      jump\t// out\n        /* \"#utility.yul\":5815:5892   */\n    tag_89:\n        /* \"#utility.yul\":5852:5859   */\n      0x00\n        /* \"#utility.yul\":5881:5886   */\n      dup2\n        /* \"#utility.yul\":5870:5886   */\n      swap1\n      pop\n        /* \"#utility.yul\":5815:5892   */\n      swap2\n      swap1\n      pop\n      jump\t// out\n        /* \"#utility.yul\":6021:6138   */\n    tag_55:\n        /* \"#utility.yul\":6130:6131   */\n      0x00\n        /* \"#utility.yul\":6127:6128   */\n      dup1\n        /* \"#utility.yul\":6120:6132   */\n      revert\n        /* \"#utility.yul\":6144:6319   */\n    tag_70:\n        /* \"#utility.yul\":6284:6311   */\n      0x546f6b656e203220616c6c6f77616e636520746f6f206c6f7700000000000000\n        /* \"#utility.yul\":6280:6281   */\n      0x00\n        /* \"#utility.yul\":6272:6278   */\n      dup3\n        /* \"#utility.yul\":6268:6282   */\n      add\n        /* \"#utility.yul\":6261:6312   */\n      mstore\n        /* \"#utility.yul\":6144:6319   */\n      pop\n      jump\t// out\n        /* \"#utility.yul\":6325:6496   */\n    tag_75:\n        /* \"#utility.yul\":6465:6488   */\n      0x546f6b656e207472616e73666572206661696c65640000000000000000000000\n        /* \"#utility.yul\":6461:6462   */\n      0x00\n        /* \"#utility.yul\":6453:6459   */\n      dup3\n        /* \"#utility.yul\":6449:6463   */\n      add\n        /* \"#utility.yul\":6442:6489   */\n      mstore\n        /* \"#utility.yul\":6325:6496   */\n      pop\n      jump\t// out\n        /* \"#utility.yul\":6502:6677   */\n    tag_80:\n        /* \"#utility.yul\":6642:6669   */\n      0x546f6b656e203120616c6c6f77616e636520746f6f206c6f7700000000000000\n        /* \"#utility.yul\":6638:6639   */\n      0x00\n        /* \"#utility.yul\":6630:6636   */\n      dup3\n        /* \"#utility.yul\":6626:6640   */\n      add\n        /* \"#utility.yul\":6619:6670   */\n      mstore\n        /* \"#utility.yul\":6502:6677   */\n      pop\n      jump\t// out\n        /* \"#utility.yul\":6683:6847   */\n    tag_85:\n        /* \"#utility.yul\":6823:6839   */\n      0x4e6f7420617574686f72697a6564000000000000000000000000000000000000\n        /* \"#utility.yul\":6819:6820   */\n      0x00\n        /* \"#utility.yul\":6811:6817   */\n      dup3\n        /* \"#utility.yul\":6807:6821   */\n      add\n        /* \"#utility.yul\":6800:6840   */\n      mstore\n        /* \"#utility.yul\":6683:6847   */\n      pop\n      jump\t// out\n        /* \"#utility.yul\":6853:6969   */\n    tag_47:\n        /* \"#utility.yul\":6923:6944   */\n      tag_123\n        /* \"#utility.yul\":6938:6943   */\n      dup2\n        /* \"#utility.yul\":6923:6944   */\n      tag_111\n      jump\t// in\n    tag_123:\n        /* \"#utility.yul\":6916:6921   */\n      dup2\n        /* \"#utility.yul\":6913:6945   */\n      eq\n        /* \"#utility.yul\":6903:6963   */\n      tag_124\n      jumpi\n        /* \"#utility.yul\":6959:6960   */\n      0x00\n        /* \"#utility.yul\":6956:6957   */\n      dup1\n        /* \"#utility.yul\":6949:6961   */\n      revert\n        /* \"#utility.yul\":6903:6963   */\n    tag_124:\n        /* \"#utility.yul\":6853:6969   */\n      pop\n      jump\t// out\n        /* \"#utility.yul\":6975:7097   */\n    tag_51:\n        /* \"#utility.yul\":7048:7072   */\n      tag_126\n        /* \"#utility.yul\":7066:7071   */\n      dup2\n        /* \"#utility.yul\":7048:7072   */\n      tag_89\n      jump\t// in\n    tag_126:\n        /* \"#utility.yul\":7041:7046   */\n      dup2\n        /* \"#utility.yul\":7038:7073   */\n      eq\n        /* \"#utility.yul\":7028:7091   */\n      tag_127\n      jumpi\n        /* \"#utility.yul\":7087:7088   */\n      0x00\n        /* \"#utility.yul\":7084:7085   */\n      dup1\n        /* \"#utility.yul\":7077:7089   */\n      revert\n        /* \"#utility.yul\":7028:7091   */\n    tag_127:\n        /* \"#utility.yul\":6975:7097   */\n      pop\n      jump\t// out\n\n    auxdata: 0xa2646970667358221220adf7b9ce7124ac925ac977a9ddb63a519a958cfe6491d70f3c404f065fb8c69164736f6c63430008070033\n}\n",
				"bytecode": {
					"linkReferences": {},
					"object": "60806040523480156200001157600080fd5b5060405162000b2138038062000b21833981810160405281019062000037919062000182565b856000806101000a81548173ffffffffffffffffffffffffffffffffffffffff021916908373ffffffffffffffffffffffffffffffffffffffff16021790555084600160006101000a81548173ffffffffffffffffffffffffffffffffffffffff021916908373ffffffffffffffffffffffffffffffffffffffff1602179055508360028190555082600360006101000a81548173ffffffffffffffffffffffffffffffffffffffff021916908373ffffffffffffffffffffffffffffffffffffffff16021790555081600460006101000a81548173ffffffffffffffffffffffffffffffffffffffff021916908373ffffffffffffffffffffffffffffffffffffffff1602179055508060058190555050505050505062000295565b600081519050620001658162000261565b92915050565b6000815190506200017c816200027b565b92915050565b60008060008060008060c08789031215620001a257620001a16200025c565b5b6000620001b289828a0162000154565b9650506020620001c589828a0162000154565b9550506040620001d889828a016200016b565b9450506060620001eb89828a0162000154565b9350506080620001fe89828a0162000154565b92505060a06200021189828a016200016b565b9150509295509295509295565b60006200022b8262000232565b9050919050565b600073ffffffffffffffffffffffffffffffffffffffff82169050919050565b6000819050919050565b600080fd5b6200026c816200021e565b81146200027857600080fd5b50565b620002868162000252565b81146200029257600080fd5b50565b61087c80620002a56000396000f3fe608060405234801561001057600080fd5b506004361061002b5760003560e01c80638119c06514610030575b600080fd5b61003861003a565b005b600160009054906101000a900473ffffffffffffffffffffffffffffffffffffffff1673ffffffffffffffffffffffffffffffffffffffff163373ffffffffffffffffffffffffffffffffffffffff1614806100e35750600460009054906101000a900473ffffffffffffffffffffffffffffffffffffffff1673ffffffffffffffffffffffffffffffffffffffff163373ffffffffffffffffffffffffffffffffffffffff16145b610122576040517f08c379a0000000000000000000000000000000000000000000000000000000008152600401610119906106f6565b60405180910390fd5b60025460008054906101000a900473ffffffffffffffffffffffffffffffffffffffff1673ffffffffffffffffffffffffffffffffffffffff1663dd62ed3e600160009054906101000a900473ffffffffffffffffffffffffffffffffffffffff16306040518363ffffffff1660e01b81526004016101a2929190610636565b60206040518083038186803b1580156101ba57600080fd5b505afa1580156101ce573d6000803e3d6000fd5b505050506040513d601f19601f820116820180604052508101906101f2919061055f565b1015610233576040517f08c379a000000000000000000000000000000000000000000000000000000000815260040161022a906106d6565b60405180910390fd5b600554600360009054906101000a900473ffffffffffffffffffffffffffffffffffffffff1673ffffffffffffffffffffffffffffffffffffffff1663dd62ed3e600460009054906101000a900473ffffffffffffffffffffffffffffffffffffffff16306040518363ffffffff1660e01b81526004016102b5929190610636565b60206040518083038186803b1580156102cd57600080fd5b505afa1580156102e1573d6000803e3d6000fd5b505050506040513d601f19601f82011682018060405250810190610305919061055f565b1015610346576040517f08c379a000000000000000000000000000000000000000000000000000000000815260040161033d90610696565b60405180910390fd5b6103b860008054906101000a900473ffffffffffffffffffffffffffffffffffffffff16600160009054906101000a900473ffffffffffffffffffffffffffffffffffffffff16600460009054906101000a900473ffffffffffffffffffffffffffffffffffffffff1660025461042e565b61042c600360009054906101000a900473ffffffffffffffffffffffffffffffffffffffff16600460009054906101000a900473ffffffffffffffffffffffffffffffffffffffff16600160009054906101000a900473ffffffffffffffffffffffffffffffffffffffff1660055461042e565b565b60008473ffffffffffffffffffffffffffffffffffffffff166323b872dd8585856040518463ffffffff1660e01b815260040161046d9392919061065f565b602060405180830381600087803b15801561048757600080fd5b505af115801561049b573d6000803e3d6000fd5b505050506040513d601f19601f820116820180604052508101906104bf9190610532565b905080610501576040517f08c379a00000000000000000000000000000000000000000000000000000000081526004016104f8906106b6565b60405180910390fd5b5050505050565b60008151905061051781610818565b92915050565b60008151905061052c8161082f565b92915050565b6000602082840312156105485761054761076f565b5b600061055684828501610508565b91505092915050565b6000602082840312156105755761057461076f565b5b60006105838482850161051d565b91505092915050565b61059581610727565b82525050565b60006105a8601983610716565b91506105b382610774565b602082019050919050565b60006105cb601583610716565b91506105d68261079d565b602082019050919050565b60006105ee601983610716565b91506105f9826107c6565b602082019050919050565b6000610611600e83610716565b915061061c826107ef565b602082019050919050565b61063081610765565b82525050565b600060408201905061064b600083018561058c565b610658602083018461058c565b9392505050565b6000606082019050610674600083018661058c565b610681602083018561058c565b61068e6040830184610627565b949350505050565b600060208201905081810360008301526106af8161059b565b9050919050565b600060208201905081810360008301526106cf816105be565b9050919050565b600060208201905081810360008301526106ef816105e1565b9050919050565b6000602082019050818103600083015261070f81610604565b9050919050565b600082825260208201905092915050565b600061073282610745565b9050919050565b60008115159050919050565b600073ffffffffffffffffffffffffffffffffffffffff82169050919050565b6000819050919050565b600080fd5b7f546f6b656e203220616c6c6f77616e636520746f6f206c6f7700000000000000600082015250565b7f546f6b656e207472616e73666572206661696c65640000000000000000000000600082015250565b7f546f6b656e203120616c6c6f77616e636520746f6f206c6f7700000000000000600082015250565b7f4e6f7420617574686f72697a6564000000000000000000000000000000000000600082015250565b61082181610739565b811461082c57600080fd5b50565b61083881610765565b811461084357600080fd5b5056fea2646970667358221220adf7b9ce7124ac925ac977a9ddb63a519a958cfe6491d70f3c404f065fb8c69164736f6c63430008070033",
					"opcodes": "PUSH1 0x80 PUSH1 0x40 MSTORE CALLVALUE DUP1 ISZERO PUSH3 0x11 JUMPI PUSH1 0x0 DUP1 REVERT JUMPDEST POP PUSH1 0x40 MLOAD PUSH3 0xB21 CODESIZE SUB DUP1 PUSH3 0xB21 DUP4 CODECOPY DUP2 DUP2 ADD PUSH1 0x40 MSTORE DUP2 ADD SWAP1 PUSH3 0x37 SWAP2 SWAP1 PUSH3 0x182 JUMP JUMPDEST DUP6 PUSH1 0x0 DUP1 PUSH2 0x100 EXP DUP2 SLOAD DUP2 PUSH20 0xFFFFFFFFFFFFFFFFFFFFFFFFFFFFFFFFFFFFFFFF MUL NOT AND SWAP1 DUP4 PUSH20 0xFFFFFFFFFFFFFFFFFFFFFFFFFFFFFFFFFFFFFFFF AND MUL OR SWAP1 SSTORE POP DUP5 PUSH1 0x1 PUSH1 0x0 PUSH2 0x100 EXP DUP2 SLOAD DUP2 PUSH20 0xFFFFFFFFFFFFFFFFFFFFFFFFFFFFFFFFFFFFFFFF MUL NOT AND SWAP1 DUP4 PUSH20 0xFFFFFFFFFFFFFFFFFFFFFFFFFFFFFFFFFFFFFFFF AND MUL OR SWAP1 SSTORE POP DUP4 PUSH1 0x2 DUP2 SWAP1 SSTORE POP DUP3 PUSH1 0x3 PUSH1 0x0 PUSH2 0x100 EXP DUP2 SLOAD DUP2 PUSH20 0xFFFFFFFFFFFFFFFFFFFFFFFFFFFFFFFFFFFFFFFF MUL NOT AND SWAP1 DUP4 PUSH20 0xFFFFFFFFFFFFFFFFFFFFFFFFFFFFFFFFFFFFFFFF AND MUL OR SWAP1 SSTORE POP DUP2 PUSH1 0x4 PUSH1 0x0 PUSH2 0x100 EXP DUP2 SLOAD DUP2 PUSH20 0xFFFFFFFFFFFFFFFFFFFFFFFFFFFFFFFFFFFFFFFF MUL NOT AND SWAP1 DUP4 PUSH20 0xFFFFFFFFFFFFFFFFFFFFFFFFFFFFFFFFFFFFFFFF AND MUL OR SWAP1 SSTORE POP DUP1 PUSH1 0x5 DUP2 SWAP1 SSTORE POP POP POP POP POP POP POP PUSH3 0x295 JUMP JUMPDEST PUSH1 0x0 DUP2 MLOAD SWAP1 POP PUSH3 0x165 DUP2 PUSH3 0x261 JUMP JUMPDEST SWAP3 SWAP2 POP POP JUMP JUMPDEST PUSH1 0x0 DUP2 MLOAD SWAP1 POP PUSH3 0x17C DUP2 PUSH3 0x27B JUMP JUMPDEST SWAP3 SWAP2 POP POP JUMP JUMPDEST PUSH1 0x0 DUP1 PUSH1 0x0 DUP1 PUSH1 0x0 DUP1 PUSH1 0xC0 DUP8 DUP10 SUB SLT ISZERO PUSH3 0x1A2 JUMPI PUSH3 0x1A1 PUSH3 0x25C JUMP JUMPDEST JUMPDEST PUSH1 0x0 PUSH3 0x1B2 DUP10 DUP3 DUP11 ADD PUSH3 0x154 JUMP JUMPDEST SWAP7 POP POP PUSH1 0x20 PUSH3 0x1C5 DUP10 DUP3 DUP11 ADD PUSH3 0x154 JUMP JUMPDEST SWAP6 POP POP PUSH1 0x40 PUSH3 0x1D8 DUP10 DUP3 DUP11 ADD PUSH3 0x16B JUMP JUMPDEST SWAP5 POP POP PUSH1 0x60 PUSH3 0x1EB DUP10 DUP3 DUP11 ADD PUSH3 0x154 JUMP JUMPDEST SWAP4 POP POP PUSH1 0x80 PUSH3 0x1FE DUP10 DUP3 DUP11 ADD PUSH3 0x154 JUMP JUMPDEST SWAP3 POP POP PUSH1 0xA0 PUSH3 0x211 DUP10 DUP3 DUP11 ADD PUSH3 0x16B JUMP JUMPDEST SWAP2 POP POP SWAP3 SWAP6 POP SWAP3 SWAP6 POP SWAP3 SWAP6 JUMP JUMPDEST PUSH1 0x0 PUSH3 0x22B DUP3 PUSH3 0x232 JUMP JUMPDEST SWAP1 POP SWAP2 SWAP1 POP JUMP JUMPDEST PUSH1 0x0 PUSH20 0xFFFFFFFFFFFFFFFFFFFFFFFFFFFFFFFFFFFFFFFF DUP3 AND SWAP1 POP SWAP2 SWAP1 POP JUMP JUMPDEST PUSH1 0x0 DUP2 SWAP1 POP SWAP2 SWAP1 POP JUMP JUMPDEST PUSH1 0x0 DUP1 REVERT JUMPDEST PUSH3 0x26C DUP2 PUSH3 0x21E JUMP JUMPDEST DUP2 EQ PUSH3 0x278 JUMPI PUSH1 0x0 DUP1 REVERT JUMPDEST POP JUMP JUMPDEST PUSH3 0x286 DUP2 PUSH3 0x252 JUMP JUMPDEST DUP2 EQ PUSH3 0x292 JUMPI PUSH1 0x0 DUP1 REVERT JUMPDEST POP JUMP JUMPDEST PUSH2 0x87C DUP1 PUSH3 0x2A5 PUSH1 0x0 CODECOPY PUSH1 0x0 RETURN INVALID PUSH1 0x80 PUSH1 0x40 MSTORE CALLVALUE DUP1 ISZERO PUSH2 0x10 JUMPI PUSH1 0x0 DUP1 REVERT JUMPDEST POP PUSH1 0x4 CALLDATASIZE LT PUSH2 0x2B JUMPI PUSH1 0x0 CALLDATALOAD PUSH1 0xE0 SHR DUP1 PUSH4 0x8119C065 EQ PUSH2 0x30 JUMPI JUMPDEST PUSH1 0x0 DUP1 REVERT JUMPDEST PUSH2 0x38 PUSH2 0x3A JUMP JUMPDEST STOP JUMPDEST PUSH1 0x1 PUSH1 0x0 SWAP1 SLOAD SWAP1 PUSH2 0x100 EXP SWAP1 DIV PUSH20 0xFFFFFFFFFFFFFFFFFFFFFFFFFFFFFFFFFFFFFFFF AND PUSH20 0xFFFFFFFFFFFFFFFFFFFFFFFFFFFFFFFFFFFFFFFF AND CALLER PUSH20 0xFFFFFFFFFFFFFFFFFFFFFFFFFFFFFFFFFFFFFFFF AND EQ DUP1 PUSH2 0xE3 JUMPI POP PUSH1 0x4 PUSH1 0x0 SWAP1 SLOAD SWAP1 PUSH2 0x100 EXP SWAP1 DIV PUSH20 0xFFFFFFFFFFFFFFFFFFFFFFFFFFFFFFFFFFFFFFFF AND PUSH20 0xFFFFFFFFFFFFFFFFFFFFFFFFFFFFFFFFFFFFFFFF AND CALLER PUSH20 0xFFFFFFFFFFFFFFFFFFFFFFFFFFFFFFFFFFFFFFFF AND EQ JUMPDEST PUSH2 0x122 JUMPI PUSH1 0x40 MLOAD PUSH32 0x8C379A000000000000000000000000000000000000000000000000000000000 DUP2 MSTORE PUSH1 0x4 ADD PUSH2 0x119 SWAP1 PUSH2 0x6F6 JUMP JUMPDEST PUSH1 0x40 MLOAD DUP1 SWAP2 SUB SWAP1 REVERT JUMPDEST PUSH1 0x2 SLOAD PUSH1 0x0 DUP1 SLOAD SWAP1 PUSH2 0x100 EXP SWAP1 DIV PUSH20 0xFFFFFFFFFFFFFFFFFFFFFFFFFFFFFFFFFFFFFFFF AND PUSH20 0xFFFFFFFFFFFFFFFFFFFFFFFFFFFFFFFFFFFFFFFF AND PUSH4 0xDD62ED3E PUSH1 0x1 PUSH1 0x0 SWAP1 SLOAD SWAP1 PUSH2 0x100 EXP SWAP1 DIV PUSH20 0xFFFFFFFFFFFFFFFFFFFFFFFFFFFFFFFFFFFFFFFF AND ADDRESS PUSH1 0x40 MLOAD DUP4 PUSH4 0xFFFFFFFF AND PUSH1 0xE0 SHL DUP2 MSTORE PUSH1 0x4 ADD PUSH2 0x1A2 SWAP3 SWAP2 SWAP1 PUSH2 0x636 JUMP JUMPDEST PUSH1 0x20 PUSH1 0x40 MLOAD DUP1 DUP4 SUB DUP2 DUP7 DUP1 EXTCODESIZE ISZERO DUP1 ISZERO PUSH2 0x1BA JUMPI PUSH1 0x0 DUP1 REVERT JUMPDEST POP GAS STATICCALL ISZERO DUP1 ISZERO PUSH2 0x1CE JUMPI RETURNDATASIZE PUSH1 0x0 DUP1 RETURNDATACOPY RETURNDATASIZE PUSH1 0x0 REVERT JUMPDEST POP POP POP POP PUSH1 0x40 MLOAD RETURNDATASIZE PUSH1 0x1F NOT PUSH1 0x1F DUP3 ADD AND DUP3 ADD DUP1 PUSH1 0x40 MSTORE POP DUP2 ADD SWAP1 PUSH2 0x1F2 SWAP2 SWAP1 PUSH2 0x55F JUMP JUMPDEST LT ISZERO PUSH2 0x233 JUMPI PUSH1 0x40 MLOAD PUSH32 0x8C379A000000000000000000000000000000000000000000000000000000000 DUP2 MSTORE PUSH1 0x4 ADD PUSH2 0x22A SWAP1 PUSH2 0x6D6 JUMP JUMPDEST PUSH1 0x40 MLOAD DUP1 SWAP2 SUB SWAP1 REVERT JUMPDEST PUSH1 0x5 SLOAD PUSH1 0x3 PUSH1 0x0 SWAP1 SLOAD SWAP1 PUSH2 0x100 EXP SWAP1 DIV PUSH20 0xFFFFFFFFFFFFFFFFFFFFFFFFFFFFFFFFFFFFFFFF AND PUSH20 0xFFFFFFFFFFFFFFFFFFFFFFFFFFFFFFFFFFFFFFFF AND PUSH4 0xDD62ED3E PUSH1 0x4 PUSH1 0x0 SWAP1 SLOAD SWAP1 PUSH2 0x100 EXP SWAP1 DIV PUSH20 0xFFFFFFFFFFFFFFFFFFFFFFFFFFFFFFFFFFFFFFFF AND ADDRESS PUSH1 0x40 MLOAD DUP4 PUSH4 0xFFFFFFFF AND PUSH1 0xE0 SHL DUP2 MSTORE PUSH1 0x4 ADD PUSH2 0x2B5 SWAP3 SWAP2 SWAP1 PUSH2 0x636 JUMP JUMPDEST PUSH1 0x20 PUSH1 0x40 MLOAD DUP1 DUP4 SUB DUP2 DUP7 DUP1 EXTCODESIZE ISZERO DUP1 ISZERO PUSH2 0x2CD JUMPI PUSH1 0x0 DUP1 REVERT JUMPDEST POP GAS STATICCALL ISZERO DUP1 ISZERO PUSH2 0x2E1 JUMPI RETURNDATASIZE PUSH1 0x0 DUP1 RETURNDATACOPY RETURNDATASIZE PUSH1 0x0 REVERT JUMPDEST POP POP POP POP PUSH1 0x40 MLOAD RETURNDATASIZE PUSH1 0x1F NOT PUSH1 0x1F DUP3 ADD AND DUP3 ADD DUP1 PUSH1 0x40 MSTORE POP DUP2 ADD SWAP1 PUSH2 0x305 SWAP2 SWAP1 PUSH2 0x55F JUMP JUMPDEST LT ISZERO PUSH2 0x346 JUMPI PUSH1 0x40 MLOAD PUSH32 0x8C379A000000000000000000000000000000000000000000000000000000000 DUP2 MSTORE PUSH1 0x4 ADD PUSH2 0x33D SWAP1 PUSH2 0x696 JUMP JUMPDEST PUSH1 0x40 MLOAD DUP1 SWAP2 SUB SWAP1 REVERT JUMPDEST PUSH2 0x3B8 PUSH1 0x0 DUP1 SLOAD SWAP1 PUSH2 0x100 EXP SWAP1 DIV PUSH20 0xFFFFFFFFFFFFFFFFFFFFFFFFFFFFFFFFFFFFFFFF AND PUSH1 0x1 PUSH1 0x0 SWAP1 SLOAD SWAP1 PUSH2 0x100 EXP SWAP1 DIV PUSH20 0xFFFFFFFFFFFFFFFFFFFFFFFFFFFFFFFFFFFFFFFF AND PUSH1 0x4 PUSH1 0x0 SWAP1 SLOAD SWAP1 PUSH2 0x100 EXP SWAP1 DIV PUSH20 0xFFFFFFFFFFFFFFFFFFFFFFFFFFFFFFFFFFFFFFFF AND PUSH1 0x2 SLOAD PUSH2 0x42E JUMP JUMPDEST PUSH2 0x42C PUSH1 0x3 PUSH1 0x0 SWAP1 SLOAD SWAP1 PUSH2 0x100 EXP SWAP1 DIV PUSH20 0xFFFFFFFFFFFFFFFFFFFFFFFFFFFFFFFFFFFFFFFF AND PUSH1 0x4 PUSH1 0x0 SWAP1 SLOAD SWAP1 PUSH2 0x100 EXP SWAP1 DIV PUSH20 0xFFFFFFFFFFFFFFFFFFFFFFFFFFFFFFFFFFFFFFFF AND PUSH1 0x1 PUSH1 0x0 SWAP1 SLOAD SWAP1 PUSH2 0x100 EXP SWAP1 DIV PUSH20 0xFFFFFFFFFFFFFFFFFFFFFFFFFFFFFFFFFFFFFFFF AND PUSH1 0x5 SLOAD PUSH2 0x42E JUMP JUMPDEST JUMP JUMPDEST PUSH1 0x0 DUP5 PUSH20 0xFFFFFFFFFFFFFFFFFFFFFFFFFFFFFFFFFFFFFFFF AND PUSH4 0x23B872DD DUP6 DUP6 DUP6 PUSH1 0x40 MLOAD DUP5 PUSH4 0xFFFFFFFF AND PUSH1 0xE0 SHL DUP2 MSTORE PUSH1 0x4 ADD PUSH2 0x46D SWAP4 SWAP3 SWAP2 SWAP1 PUSH2 0x65F JUMP JUMPDEST PUSH1 0x20 PUSH1 0x40 MLOAD DUP1 DUP4 SUB DUP2 PUSH1 0x0 DUP8 DUP1 EXTCODESIZE ISZERO DUP1 ISZERO PUSH2 0x487 JUMPI PUSH1 0x0 DUP1 REVERT JUMPDEST POP GAS CALL ISZERO DUP1 ISZERO PUSH2 0x49B JUMPI RETURNDATASIZE PUSH1 0x0 DUP1 RETURNDATACOPY RETURNDATASIZE PUSH1 0x0 REVERT JUMPDEST POP POP POP POP PUSH1 0x40 MLOAD RETURNDATASIZE PUSH1 0x1F NOT PUSH1 0x1F DUP3 ADD AND DUP3 ADD DUP1 PUSH1 0x40 MSTORE POP DUP2 ADD SWAP1 PUSH2 0x4BF SWAP2 SWAP1 PUSH2 0x532 JUMP JUMPDEST SWAP1 POP DUP1 PUSH2 0x501 JUMPI PUSH1 0x40 MLOAD PUSH32 0x8C379A000000000000000000000000000000000000000000000000000000000 DUP2 MSTORE PUSH1 0x4 ADD PUSH2 0x4F8 SWAP1 PUSH2 0x6B6 JUMP JUMPDEST PUSH1 0x40 MLOAD DUP1 SWAP2 SUB SWAP1 REVERT JUMPDEST POP POP POP POP POP JUMP JUMPDEST PUSH1 0x0 DUP2 MLOAD SWAP1 POP PUSH2 0x517 DUP2 PUSH2 0x818 JUMP JUMPDEST SWAP3 SWAP2 POP POP JUMP JUMPDEST PUSH1 0x0 DUP2 MLOAD SWAP1 POP PUSH2 0x52C DUP2 PUSH2 0x82F JUMP JUMPDEST SWAP3 SWAP2 POP POP JUMP JUMPDEST PUSH1 0x0 PUSH1 0x20 DUP3 DUP5 SUB SLT ISZERO PUSH2 0x548 JUMPI PUSH2 0x547 PUSH2 0x76F JUMP JUMPDEST JUMPDEST PUSH1 0x0 PUSH2 0x556 DUP5 DUP3 DUP6 ADD PUSH2 0x508 JUMP JUMPDEST SWAP2 POP POP SWAP3 SWAP2 POP POP JUMP JUMPDEST PUSH1 0x0 PUSH1 0x20 DUP3 DUP5 SUB SLT ISZERO PUSH2 0x575 JUMPI PUSH2 0x574 PUSH2 0x76F JUMP JUMPDEST JUMPDEST PUSH1 0x0 PUSH2 0x583 DUP5 DUP3 DUP6 ADD PUSH2 0x51D JUMP JUMPDEST SWAP2 POP POP SWAP3 SWAP2 POP POP JUMP JUMPDEST PUSH2 0x595 DUP2 PUSH2 0x727 JUMP JUMPDEST DUP3 MSTORE POP POP JUMP JUMPDEST PUSH1 0x0 PUSH2 0x5A8 PUSH1 0x19 DUP4 PUSH2 0x716 JUMP JUMPDEST SWAP2 POP PUSH2 0x5B3 DUP3 PUSH2 0x774 JUMP JUMPDEST PUSH1 0x20 DUP3 ADD SWAP1 POP SWAP2 SWAP1 POP JUMP JUMPDEST PUSH1 0x0 PUSH2 0x5CB PUSH1 0x15 DUP4 PUSH2 0x716 JUMP JUMPDEST SWAP2 POP PUSH2 0x5D6 DUP3 PUSH2 0x79D JUMP JUMPDEST PUSH1 0x20 DUP3 ADD SWAP1 POP SWAP2 SWAP1 POP JUMP JUMPDEST PUSH1 0x0 PUSH2 0x5EE PUSH1 0x19 DUP4 PUSH2 0x716 JUMP JUMPDEST SWAP2 POP PUSH2 0x5F9 DUP3 PUSH2 0x7C6 JUMP JUMPDEST PUSH1 0x20 DUP3 ADD SWAP1 POP SWAP2 SWAP1 POP JUMP JUMPDEST PUSH1 0x0 PUSH2 0x611 PUSH1 0xE DUP4 PUSH2 0x716 JUMP JUMPDEST SWAP2 POP PUSH2 0x61C DUP3 PUSH2 0x7EF JUMP JUMPDEST PUSH1 0x20 DUP3 ADD SWAP1 POP SWAP2 SWAP1 POP JUMP JUMPDEST PUSH2 0x630 DUP2 PUSH2 0x765 JUMP JUMPDEST DUP3 MSTORE POP POP JUMP JUMPDEST PUSH1 0x0 PUSH1 0x40 DUP3 ADD SWAP1 POP PUSH2 0x64B PUSH1 0x0 DUP4 ADD DUP6 PUSH2 0x58C JUMP JUMPDEST PUSH2 0x658 PUSH1 0x20 DUP4 ADD DUP5 PUSH2 0x58C JUMP JUMPDEST SWAP4 SWAP3 POP POP POP JUMP JUMPDEST PUSH1 0x0 PUSH1 0x60 DUP3 ADD SWAP1 POP PUSH2 0x674 PUSH1 0x0 DUP4 ADD DUP7 PUSH2 0x58C JUMP JUMPDEST PUSH2 0x681 PUSH1 0x20 DUP4 ADD DUP6 PUSH2 0x58C JUMP JUMPDEST PUSH2 0x68E PUSH1 0x40 DUP4 ADD DUP5 PUSH2 0x627 JUMP JUMPDEST SWAP5 SWAP4 POP POP POP POP JUMP JUMPDEST PUSH1 0x0 PUSH1 0x20 DUP3 ADD SWAP1 POP DUP2 DUP2 SUB PUSH1 0x0 DUP4 ADD MSTORE PUSH2 0x6AF DUP2 PUSH2 0x59B JUMP JUMPDEST SWAP1 POP SWAP2 SWAP1 POP JUMP JUMPDEST PUSH1 0x0 PUSH1 0x20 DUP3 ADD SWAP1 POP DUP2 DUP2 SUB PUSH1 0x0 DUP4 ADD MSTORE PUSH2 0x6CF DUP2 PUSH2 0x5BE JUMP JUMPDEST SWAP1 POP SWAP2 SWAP1 POP JUMP JUMPDEST PUSH1 0x0 PUSH1 0x20 DUP3 ADD SWAP1 POP DUP2 DUP2 SUB PUSH1 0x0 DUP4 ADD MSTORE PUSH2 0x6EF DUP2 PUSH2 0x5E1 JUMP JUMPDEST SWAP1 POP SWAP2 SWAP1 POP JUMP JUMPDEST PUSH1 0x0 PUSH1 0x20 DUP3 ADD SWAP1 POP DUP2 DUP2 SUB PUSH1 0x0 DUP4 ADD MSTORE PUSH2 0x70F DUP2 PUSH2 0x604 JUMP JUMPDEST SWAP1 POP SWAP2 SWAP1 POP JUMP JUMPDEST PUSH1 0x0 DUP3 DUP3 MSTORE PUSH1 0x20 DUP3 ADD SWAP1 POP SWAP3 SWAP2 POP POP JUMP JUMPDEST PUSH1 0x0 PUSH2 0x732 DUP3 PUSH2 0x745 JUMP JUMPDEST SWAP1 POP SWAP2 SWAP1 POP JUMP JUMPDEST PUSH1 0x0 DUP2 ISZERO ISZERO SWAP1 POP SWAP2 SWAP1 POP JUMP JUMPDEST PUSH1 0x0 PUSH20 0xFFFFFFFFFFFFFFFFFFFFFFFFFFFFFFFFFFFFFFFF DUP3 AND SWAP1 POP SWAP2 SWAP1 POP JUMP JUMPDEST PUSH1 0x0 DUP2 SWAP1 POP SWAP2 SWAP1 POP JUMP JUMPDEST PUSH1 0x0 DUP1 REVERT JUMPDEST PUSH32 0x546F6B656E203220616C6C6F77616E636520746F6F206C6F7700000000000000 PUSH1 0x0 DUP3 ADD MSTORE POP JUMP JUMPDEST PUSH32 0x546F6B656E207472616E73666572206661696C65640000000000000000000000 PUSH1 0x0 DUP3 ADD MSTORE POP JUMP JUMPDEST PUSH32 0x546F6B656E203120616C6C6F77616E636520746F6F206C6F7700000000000000 PUSH1 0x0 DUP3 ADD MSTORE POP JUMP JUMPDEST PUSH32 0x4E6F7420617574686F72697A6564000000000000000000000000000000000000 PUSH1 0x0 DUP3 ADD MSTORE POP JUMP JUMPDEST PUSH2 0x821 DUP2 PUSH2 0x739 JUMP JUMPDEST DUP2 EQ PUSH2 0x82C JUMPI PUSH1 0x0 DUP1 REVERT JUMPDEST POP JUMP JUMPDEST PUSH2 0x838 DUP2 PUSH2 0x765 JUMP JUMPDEST DUP2 EQ PUSH2 0x843 JUMPI PUSH1 0x0 DUP1 REVERT JUMPDEST POP JUMP INVALID LOG2 PUSH5 0x6970667358 0x22 SLT KECCAK256 0xAD 0xF7 0xB9 0xCE PUSH18 0x24AC925AC977A9DDB63A519A958CFE6491D7 0xF EXTCODECOPY BLOCKHASH 0x4F MOD 0x5F 0xB8 0xC6 SWAP2 PUSH5 0x736F6C6343 STOP ADDMOD SMOD STOP CALLER "
				},
				"gasEstimates": {
					"creation": {
						"codeDepositCost": "434400",
						"executionCost": "infinite",
						"totalCost": "infinite"
					},
					"external": {
						"swap()": "infinite"
					},
					"internal": {
						"_safeTransferFrom(contract IERC20,address,address,uint256)": "infinite"
					}
				},
				"methodIdentifiers": {
					"swap()": "8119c065"
				}
			},
			"userdoc": {
				"kind": "user",
				"methods": {},
				"version": 1
			}
		}
	}
}