{
	"contracts/TokenSwap.sol": {
		"TokenSwap": {
			"abi": [
				{
					"inputs": [],
					"stateMutability": "nonpayable",
					"type": "constructor"
				},
				{
					"stateMutability": "payable",
					"type": "fallback"
				},
				{
					"inputs": [
						{
							"internalType": "address",
							"name": "_tokenFrom",
							"type": "address"
						},
						{
							"internalType": "address",
							"name": "_addressFrom",
							"type": "address"
						},
						{
							"internalType": "uint256",
							"name": "_amountFrom",
							"type": "uint256"
						},
						{
							"internalType": "address",
							"name": "_tokenTo",
							"type": "address"
						},
						{
							"internalType": "address",
							"name": "_addressTo",
							"type": "address"
						},
						{
							"internalType": "uint256",
							"name": "_amountTo",
							"type": "uint256"
						}
					],
					"name": "swap",
					"outputs": [],
					"stateMutability": "nonpayable",
					"type": "function"
				},
				{
					"inputs": [],
					"name": "tokenFrom",
					"outputs": [
						{
							"internalType": "contract IERC20",
							"name": "",
							"type": "address"
						}
					],
					"stateMutability": "view",
					"type": "function"
				},
				{
					"inputs": [],
					"name": "tokenTo",
					"outputs": [
						{
							"internalType": "contract IERC20",
							"name": "",
							"type": "address"
						}
					],
					"stateMutability": "view",
					"type": "function"
				},
				{
					"stateMutability": "payable",
					"type": "receive"
				}
			],
			"devdoc": {
				"kind": "dev",
				"methods": {},
				"version": 1
			},
			"evm": {
				"assembly": "    /* \"contracts/TokenSwap.sol\":89:1268  contract TokenSwap {... */\n  mstore(0x40, 0x80)\n    /* \"contracts/TokenSwap.sol\":176:192  constructor() {} */\n  callvalue\n  dup1\n  iszero\n  tag_1\n  jumpi\n  0x00\n  dup1\n  revert\ntag_1:\n  pop\n    /* \"contracts/TokenSwap.sol\":89:1268  contract TokenSwap {... */\n  dataSize(sub_0)\n  dup1\n  dataOffset(sub_0)\n  0x00\n  codecopy\n  0x00\n  return\nstop\n\nsub_0: assembly {\n        /* \"contracts/TokenSwap.sol\":89:1268  contract TokenSwap {... */\n      mstore(0x40, 0x80)\n      jumpi(tag_1, lt(calldatasize, 0x04))\n      shr(0xe0, calldataload(0x00))\n      dup1\n      0x7c153534\n      eq\n      tag_3\n      jumpi\n      dup1\n      0x7ddf3320\n      eq\n      tag_4\n      jumpi\n      dup1\n      0xc17b7326\n      eq\n      tag_5\n      jumpi\n      jump(tag_2)\n    tag_1:\n      jumpi(tag_2, calldatasize)\n      stop\n    tag_2:\n      stop\n        /* \"contracts/TokenSwap.sol\":119:142  IERC20 public tokenFrom */\n    tag_3:\n      callvalue\n      dup1\n      iszero\n      tag_10\n      jumpi\n      0x00\n      dup1\n      revert\n    tag_10:\n      pop\n      tag_11\n      tag_12\n      jump\t// in\n    tag_11:\n      mload(0x40)\n      tag_13\n      swap2\n      swap1\n      tag_14\n      jump\t// in\n    tag_13:\n      mload(0x40)\n      dup1\n      swap2\n      sub\n      swap1\n      return\n        /* \"contracts/TokenSwap.sol\":198:930  function swap(... */\n    tag_4:\n      callvalue\n      dup1\n      iszero\n      tag_15\n      jumpi\n      0x00\n      dup1\n      revert\n    tag_15:\n      pop\n      tag_16\n      0x04\n      dup1\n      calldatasize\n      sub\n      dup2\n      add\n      swap1\n      tag_17\n      swap2\n      swap1\n      tag_18\n      jump\t// in\n    tag_17:\n      tag_19\n      jump\t// in\n    tag_16:\n      stop\n        /* \"contracts/TokenSwap.sol\":148:169  IERC20 public tokenTo */\n    tag_5:\n      callvalue\n      dup1\n      iszero\n      tag_20\n      jumpi\n      0x00\n      dup1\n      revert\n    tag_20:\n      pop\n      tag_21\n      tag_22\n      jump\t// in\n    tag_21:\n      mload(0x40)\n      tag_23\n      swap2\n      swap1\n      tag_14\n      jump\t// in\n    tag_23:\n      mload(0x40)\n      dup1\n      swap2\n      sub\n      swap1\n      return\n        /* \"contracts/TokenSwap.sol\":119:142  IERC20 public tokenFrom */\n    tag_12:\n      0x00\n      dup1\n      sload\n      swap1\n      0x0100\n      exp\n      swap1\n      div\n      0xffffffffffffffffffffffffffffffffffffffff\n      and\n      dup2\n      jump\t// out\n        /* \"contracts/TokenSwap.sol\":198:930  function swap(... */\n    tag_19:\n        /* \"contracts/TokenSwap.sol\":412:422  _tokenFrom */\n      dup6\n        /* \"contracts/TokenSwap.sol\":393:402  tokenFrom */\n      0x00\n      dup1\n        /* \"contracts/TokenSwap.sol\":393:423  tokenFrom = IERC20(_tokenFrom) */\n      0x0100\n      exp\n      dup2\n      sload\n      dup2\n      0xffffffffffffffffffffffffffffffffffffffff\n      mul\n      not\n      and\n      swap1\n      dup4\n      0xffffffffffffffffffffffffffffffffffffffff\n      and\n      mul\n      or\n      swap1\n      sstore\n      pop\n        /* \"contracts/TokenSwap.sol\":450:458  _tokenTo */\n      dup3\n        /* \"contracts/TokenSwap.sol\":433:440  tokenTo */\n      0x01\n      0x00\n        /* \"contracts/TokenSwap.sol\":433:459  tokenTo = IERC20(_tokenTo) */\n      0x0100\n      exp\n      dup2\n      sload\n      dup2\n      0xffffffffffffffffffffffffffffffffffffffff\n      mul\n      not\n      and\n      swap1\n      dup4\n      0xffffffffffffffffffffffffffffffffffffffff\n      and\n      mul\n      or\n      swap1\n      sstore\n      pop\n        /* \"contracts/TokenSwap.sol\":492:504  _addressFrom */\n      dup5\n        /* \"contracts/TokenSwap.sol\":478:504  msg.sender == _addressFrom */\n      0xffffffffffffffffffffffffffffffffffffffff\n      and\n        /* \"contracts/TokenSwap.sol\":478:488  msg.sender */\n      caller\n        /* \"contracts/TokenSwap.sol\":478:504  msg.sender == _addressFrom */\n      0xffffffffffffffffffffffffffffffffffffffff\n      and\n      eq\n        /* \"contracts/TokenSwap.sol\":478:532  msg.sender == _addressFrom || msg.sender == _addressTo */\n      dup1\n      tag_25\n      jumpi\n      pop\n        /* \"contracts/TokenSwap.sol\":522:532  _addressTo */\n      dup2\n        /* \"contracts/TokenSwap.sol\":508:532  msg.sender == _addressTo */\n      0xffffffffffffffffffffffffffffffffffffffff\n      and\n        /* \"contracts/TokenSwap.sol\":508:518  msg.sender */\n      caller\n        /* \"contracts/TokenSwap.sol\":508:532  msg.sender == _addressTo */\n      0xffffffffffffffffffffffffffffffffffffffff\n      and\n      eq\n        /* \"contracts/TokenSwap.sol\":478:532  msg.sender == _addressFrom || msg.sender == _addressTo */\n    tag_25:\n        /* \"contracts/TokenSwap.sol\":470:559  require(msg.sender == _addressFrom || msg.sender == _addressTo, \"Address swap not valid\") */\n      tag_26\n      jumpi\n      mload(0x40)\n      0x08c379a000000000000000000000000000000000000000000000000000000000\n      dup2\n      mstore\n      0x04\n      add\n      tag_27\n      swap1\n      tag_28\n      jump\t// in\n    tag_27:\n      mload(0x40)\n      dup1\n      swap2\n      sub\n      swap1\n      revert\n    tag_26:\n        /* \"contracts/TokenSwap.sol\":630:641  _amountFrom */\n      dup4\n        /* \"contracts/TokenSwap.sol\":577:586  tokenFrom */\n      0x00\n      dup1\n      sload\n      swap1\n      0x0100\n      exp\n      swap1\n      div\n      0xffffffffffffffffffffffffffffffffffffffff\n      and\n        /* \"contracts/TokenSwap.sol\":577:596  tokenFrom.allowance */\n      0xffffffffffffffffffffffffffffffffffffffff\n      and\n      0xdd62ed3e\n        /* \"contracts/TokenSwap.sol\":597:609  _addressFrom */\n      dup8\n        /* \"contracts/TokenSwap.sol\":620:624  this */\n      address\n        /* \"contracts/TokenSwap.sol\":577:626  tokenFrom.allowance(_addressFrom, address (this)) */\n      mload(0x40)\n      dup4\n      0xffffffff\n      and\n      0xe0\n      shl\n      dup2\n      mstore\n      0x04\n      add\n      tag_29\n      swap3\n      swap2\n      swap1\n      tag_30\n      jump\t// in\n    tag_29:\n      0x20\n      mload(0x40)\n      dup1\n      dup4\n      sub\n      dup2\n      dup7\n      dup1\n      extcodesize\n      iszero\n      dup1\n      iszero\n      tag_31\n      jumpi\n      0x00\n      dup1\n      revert\n    tag_31:\n      pop\n      gas\n      staticcall\n      iszero\n      dup1\n      iszero\n      tag_33\n      jumpi\n      returndatasize\n      0x00\n      dup1\n      returndatacopy\n      revert(0x00, returndatasize)\n    tag_33:\n      pop\n      pop\n      pop\n      pop\n      mload(0x40)\n      returndatasize\n      not(0x1f)\n      0x1f\n      dup3\n      add\n      and\n      dup3\n      add\n      dup1\n      0x40\n      mstore\n      pop\n      dup2\n      add\n      swap1\n      tag_34\n      swap2\n      swap1\n      tag_35\n      jump\t// in\n    tag_34:\n        /* \"contracts/TokenSwap.sol\":577:641  tokenFrom.allowance(_addressFrom, address (this)) >= _amountFrom */\n      lt\n      iszero\n        /* \"contracts/TokenSwap.sol\":569:670  require(tokenFrom.allowance(_addressFrom, address (this)) >= _amountFrom, \"Token allow From too low\") */\n      tag_36\n      jumpi\n      mload(0x40)\n      0x08c379a000000000000000000000000000000000000000000000000000000000\n      dup2\n      mstore\n      0x04\n      add\n      tag_37\n      swap1\n      tag_38\n      jump\t// in\n    tag_37:\n      mload(0x40)\n      dup1\n      swap2\n      sub\n      swap1\n      revert\n    tag_36:\n        /* \"contracts/TokenSwap.sol\":737:746  _amountTo */\n      dup1\n        /* \"contracts/TokenSwap.sol\":688:695  tokenTo */\n      0x01\n      0x00\n      swap1\n      sload\n      swap1\n      0x0100\n      exp\n      swap1\n      div\n      0xffffffffffffffffffffffffffffffffffffffff\n      and\n        /* \"contracts/TokenSwap.sol\":688:705  tokenTo.allowance */\n      0xffffffffffffffffffffffffffffffffffffffff\n      and\n      0xdd62ed3e\n        /* \"contracts/TokenSwap.sol\":706:716  _addressTo */\n      dup5\n        /* \"contracts/TokenSwap.sol\":727:731  this */\n      address\n        /* \"contracts/TokenSwap.sol\":688:733  tokenTo.allowance(_addressTo, address (this)) */\n      mload(0x40)\n      dup4\n      0xffffffff\n      and\n      0xe0\n      shl\n      dup2\n      mstore\n      0x04\n      add\n      tag_39\n      swap3\n      swap2\n      swap1\n      tag_30\n      jump\t// in\n    tag_39:\n      0x20\n      mload(0x40)\n      dup1\n      dup4\n      sub\n      dup2\n      dup7\n      dup1\n      extcodesize\n      iszero\n      dup1\n      iszero\n      tag_40\n      jumpi\n      0x00\n      dup1\n      revert\n    tag_40:\n      pop\n      gas\n      staticcall\n      iszero\n      dup1\n      iszero\n      tag_42\n      jumpi\n      returndatasize\n      0x00\n      dup1\n      returndatacopy\n      revert(0x00, returndatasize)\n    tag_42:\n      pop\n      pop\n      pop\n      pop\n      mload(0x40)\n      returndatasize\n      not(0x1f)\n      0x1f\n      dup3\n      add\n      and\n      dup3\n      add\n      dup1\n      0x40\n      mstore\n      pop\n      dup2\n      add\n      swap1\n      tag_43\n      swap2\n      swap1\n      tag_35\n      jump\t// in\n    tag_43:\n        /* \"contracts/TokenSwap.sol\":688:746  tokenTo.allowance(_addressTo, address (this)) >= _amountTo */\n      lt\n      iszero\n        /* \"contracts/TokenSwap.sol\":680:773  require(tokenTo.allowance(_addressTo, address (this)) >= _amountTo, \"Token allow To too low\") */\n      tag_44\n      jumpi\n      mload(0x40)\n      0x08c379a000000000000000000000000000000000000000000000000000000000\n      dup2\n      mstore\n      0x04\n      add\n      tag_45\n      swap1\n      tag_46\n      jump\t// in\n    tag_45:\n      mload(0x40)\n      dup1\n      swap2\n      sub\n      swap1\n      revert\n    tag_44:\n        /* \"contracts/TokenSwap.sol\":783:850  _safeTransferFrom(tokenFrom, _addressFrom, _addressTo, _amountFrom) */\n      tag_47\n        /* \"contracts/TokenSwap.sol\":801:810  tokenFrom */\n      0x00\n      dup1\n      sload\n      swap1\n      0x0100\n      exp\n      swap1\n      div\n      0xffffffffffffffffffffffffffffffffffffffff\n      and\n        /* \"contracts/TokenSwap.sol\":812:824  _addressFrom */\n      dup7\n        /* \"contracts/TokenSwap.sol\":826:836  _addressTo */\n      dup5\n        /* \"contracts/TokenSwap.sol\":838:849  _amountFrom */\n      dup8\n        /* \"contracts/TokenSwap.sol\":783:800  _safeTransferFrom */\n      tag_48\n        /* \"contracts/TokenSwap.sol\":783:850  _safeTransferFrom(tokenFrom, _addressFrom, _addressTo, _amountFrom) */\n      jump\t// in\n    tag_47:\n        /* \"contracts/TokenSwap.sol\":860:923  _safeTransferFrom(tokenTo, _addressTo, _addressFrom, _amountTo) */\n      tag_49\n        /* \"contracts/TokenSwap.sol\":878:885  tokenTo */\n      0x01\n      0x00\n      swap1\n      sload\n      swap1\n      0x0100\n      exp\n      swap1\n      div\n      0xffffffffffffffffffffffffffffffffffffffff\n      and\n        /* \"contracts/TokenSwap.sol\":887:897  _addressTo */\n      dup4\n        /* \"contracts/TokenSwap.sol\":899:911  _addressFrom */\n      dup8\n        /* \"contracts/TokenSwap.sol\":913:922  _amountTo */\n      dup5\n        /* \"contracts/TokenSwap.sol\":860:877  _safeTransferFrom */\n      tag_48\n        /* \"contracts/TokenSwap.sol\":860:923  _safeTransferFrom(tokenTo, _addressTo, _addressFrom, _amountTo) */\n      jump\t// in\n    tag_49:\n        /* \"contracts/TokenSwap.sol\":198:930  function swap(... */\n      pop\n      pop\n      pop\n      pop\n      pop\n      pop\n      jump\t// out\n        /* \"contracts/TokenSwap.sol\":148:169  IERC20 public tokenTo */\n    tag_22:\n      0x01\n      0x00\n      swap1\n      sload\n      swap1\n      0x0100\n      exp\n      swap1\n      div\n      0xffffffffffffffffffffffffffffffffffffffff\n      and\n      dup2\n      jump\t// out\n        /* \"contracts/TokenSwap.sol\":937:1194  function _safeTransferFrom(... */\n    tag_48:\n        /* \"contracts/TokenSwap.sol\":1082:1091  bool sent */\n      0x00\n        /* \"contracts/TokenSwap.sol\":1094:1099  token */\n      dup5\n        /* \"contracts/TokenSwap.sol\":1094:1112  token.transferFrom */\n      0xffffffffffffffffffffffffffffffffffffffff\n      and\n      0x23b872dd\n        /* \"contracts/TokenSwap.sol\":1113:1119  sender */\n      dup6\n        /* \"contracts/TokenSwap.sol\":1121:1130  recipient */\n      dup6\n        /* \"contracts/TokenSwap.sol\":1132:1138  amount */\n      dup6\n        /* \"contracts/TokenSwap.sol\":1094:1139  token.transferFrom(sender, recipient, amount) */\n      mload(0x40)\n      dup5\n      0xffffffff\n      and\n      0xe0\n      shl\n      dup2\n      mstore\n      0x04\n      add\n      tag_51\n      swap4\n      swap3\n      swap2\n      swap1\n      tag_52\n      jump\t// in\n    tag_51:\n      0x20\n      mload(0x40)\n      dup1\n      dup4\n      sub\n      dup2\n      0x00\n      dup8\n      dup1\n      extcodesize\n      iszero\n      dup1\n      iszero\n      tag_53\n      jumpi\n      0x00\n      dup1\n      revert\n    tag_53:\n      pop\n      gas\n      call\n      iszero\n      dup1\n      iszero\n      tag_55\n      jumpi\n      returndatasize\n      0x00\n      dup1\n      returndatacopy\n      revert(0x00, returndatasize)\n    tag_55:\n      pop\n      pop\n      pop\n      pop\n      mload(0x40)\n      returndatasize\n      not(0x1f)\n      0x1f\n      dup3\n      add\n      and\n      dup3\n      add\n      dup1\n      0x40\n      mstore\n      pop\n      dup2\n      add\n      swap1\n      tag_56\n      swap2\n      swap1\n      tag_57\n      jump\t// in\n    tag_56:\n        /* \"contracts/TokenSwap.sol\":1082:1139  bool sent = token.transferFrom(sender, recipient, amount) */\n      swap1\n      pop\n        /* \"contracts/TokenSwap.sol\":1157:1161  sent */\n      dup1\n        /* \"contracts/TokenSwap.sol\":1149:1187  require(sent, \"Token transfer failed\") */\n      tag_58\n      jumpi\n      mload(0x40)\n      0x08c379a000000000000000000000000000000000000000000000000000000000\n      dup2\n      mstore\n      0x04\n      add\n      tag_59\n      swap1\n      tag_60\n      jump\t// in\n    tag_59:\n      mload(0x40)\n      dup1\n      swap2\n      sub\n      swap1\n      revert\n    tag_58:\n        /* \"contracts/TokenSwap.sol\":1072:1194  {... */\n      pop\n        /* \"contracts/TokenSwap.sol\":937:1194  function _safeTransferFrom(... */\n      pop\n      pop\n      pop\n      pop\n      jump\t// out\n        /* \"#utility.yul\":7:146   */\n    tag_62:\n        /* \"#utility.yul\":53:58   */\n      0x00\n        /* \"#utility.yul\":91:97   */\n      dup2\n        /* \"#utility.yul\":78:98   */\n      calldataload\n        /* \"#utility.yul\":69:98   */\n      swap1\n      pop\n        /* \"#utility.yul\":107:140   */\n      tag_64\n        /* \"#utility.yul\":134:139   */\n      dup2\n        /* \"#utility.yul\":107:140   */\n      tag_65\n      jump\t// in\n    tag_64:\n        /* \"#utility.yul\":7:146   */\n      swap3\n      swap2\n      pop\n      pop\n      jump\t// out\n        /* \"#utility.yul\":152:289   */\n    tag_66:\n        /* \"#utility.yul\":206:211   */\n      0x00\n        /* \"#utility.yul\":237:243   */\n      dup2\n        /* \"#utility.yul\":231:244   */\n      mload\n        /* \"#utility.yul\":222:244   */\n      swap1\n      pop\n        /* \"#utility.yul\":253:283   */\n      tag_68\n        /* \"#utility.yul\":277:282   */\n      dup2\n        /* \"#utility.yul\":253:283   */\n      tag_69\n      jump\t// in\n    tag_68:\n        /* \"#utility.yul\":152:289   */\n      swap3\n      swap2\n      pop\n      pop\n      jump\t// out\n        /* \"#utility.yul\":295:434   */\n    tag_70:\n        /* \"#utility.yul\":341:346   */\n      0x00\n        /* \"#utility.yul\":379:385   */\n      dup2\n        /* \"#utility.yul\":366:386   */\n      calldataload\n        /* \"#utility.yul\":357:386   */\n      swap1\n      pop\n        /* \"#utility.yul\":395:428   */\n      tag_72\n        /* \"#utility.yul\":422:427   */\n      dup2\n        /* \"#utility.yul\":395:428   */\n      tag_73\n      jump\t// in\n    tag_72:\n        /* \"#utility.yul\":295:434   */\n      swap3\n      swap2\n      pop\n      pop\n      jump\t// out\n        /* \"#utility.yul\":440:583   */\n    tag_74:\n        /* \"#utility.yul\":497:502   */\n      0x00\n        /* \"#utility.yul\":528:534   */\n      dup2\n        /* \"#utility.yul\":522:535   */\n      mload\n        /* \"#utility.yul\":513:535   */\n      swap1\n      pop\n        /* \"#utility.yul\":544:577   */\n      tag_76\n        /* \"#utility.yul\":571:576   */\n      dup2\n        /* \"#utility.yul\":544:577   */\n      tag_73\n      jump\t// in\n    tag_76:\n        /* \"#utility.yul\":440:583   */\n      swap3\n      swap2\n      pop\n      pop\n      jump\t// out\n        /* \"#utility.yul\":589:1646   */\n    tag_18:\n        /* \"#utility.yul\":693:699   */\n      0x00\n        /* \"#utility.yul\":701:707   */\n      dup1\n        /* \"#utility.yul\":709:715   */\n      0x00\n        /* \"#utility.yul\":717:723   */\n      dup1\n        /* \"#utility.yul\":725:731   */\n      0x00\n        /* \"#utility.yul\":733:739   */\n      dup1\n        /* \"#utility.yul\":782:785   */\n      0xc0\n        /* \"#utility.yul\":770:779   */\n      dup8\n        /* \"#utility.yul\":761:768   */\n      dup10\n        /* \"#utility.yul\":757:780   */\n      sub\n        /* \"#utility.yul\":753:786   */\n      slt\n        /* \"#utility.yul\":750:870   */\n      iszero\n      tag_78\n      jumpi\n        /* \"#utility.yul\":789:868   */\n      tag_79\n      tag_80\n      jump\t// in\n    tag_79:\n        /* \"#utility.yul\":750:870   */\n    tag_78:\n        /* \"#utility.yul\":909:910   */\n      0x00\n        /* \"#utility.yul\":934:987   */\n      tag_81\n        /* \"#utility.yul\":979:986   */\n      dup10\n        /* \"#utility.yul\":970:976   */\n      dup3\n        /* \"#utility.yul\":959:968   */\n      dup11\n        /* \"#utility.yul\":955:977   */\n      add\n        /* \"#utility.yul\":934:987   */\n      tag_62\n      jump\t// in\n    tag_81:\n        /* \"#utility.yul\":924:987   */\n      swap7\n      pop\n        /* \"#utility.yul\":880:997   */\n      pop\n        /* \"#utility.yul\":1036:1038   */\n      0x20\n        /* \"#utility.yul\":1062:1115   */\n      tag_82\n        /* \"#utility.yul\":1107:1114   */\n      dup10\n        /* \"#utility.yul\":1098:1104   */\n      dup3\n        /* \"#utility.yul\":1087:1096   */\n      dup11\n        /* \"#utility.yul\":1083:1105   */\n      add\n        /* \"#utility.yul\":1062:1115   */\n      tag_62\n      jump\t// in\n    tag_82:\n        /* \"#utility.yul\":1052:1115   */\n      swap6\n      pop\n        /* \"#utility.yul\":1007:1125   */\n      pop\n        /* \"#utility.yul\":1164:1166   */\n      0x40\n        /* \"#utility.yul\":1190:1243   */\n      tag_83\n        /* \"#utility.yul\":1235:1242   */\n      dup10\n        /* \"#utility.yul\":1226:1232   */\n      dup3\n        /* \"#utility.yul\":1215:1224   */\n      dup11\n        /* \"#utility.yul\":1211:1233   */\n      add\n        /* \"#utility.yul\":1190:1243   */\n      tag_70\n      jump\t// in\n    tag_83:\n        /* \"#utility.yul\":1180:1243   */\n      swap5\n      pop\n        /* \"#utility.yul\":1135:1253   */\n      pop\n        /* \"#utility.yul\":1292:1294   */\n      0x60\n        /* \"#utility.yul\":1318:1371   */\n      tag_84\n        /* \"#utility.yul\":1363:1370   */\n      dup10\n        /* \"#utility.yul\":1354:1360   */\n      dup3\n        /* \"#utility.yul\":1343:1352   */\n      dup11\n        /* \"#utility.yul\":1339:1361   */\n      add\n        /* \"#utility.yul\":1318:1371   */\n      tag_62\n      jump\t// in\n    tag_84:\n        /* \"#utility.yul\":1308:1371   */\n      swap4\n      pop\n        /* \"#utility.yul\":1263:1381   */\n      pop\n        /* \"#utility.yul\":1420:1423   */\n      0x80\n        /* \"#utility.yul\":1447:1500   */\n      tag_85\n        /* \"#utility.yul\":1492:1499   */\n      dup10\n        /* \"#utility.yul\":1483:1489   */\n      dup3\n        /* \"#utility.yul\":1472:1481   */\n      dup11\n        /* \"#utility.yul\":1468:1490   */\n      add\n        /* \"#utility.yul\":1447:1500   */\n      tag_62\n      jump\t// in\n    tag_85:\n        /* \"#utility.yul\":1437:1500   */\n      swap3\n      pop\n        /* \"#utility.yul\":1391:1510   */\n      pop\n        /* \"#utility.yul\":1549:1552   */\n      0xa0\n        /* \"#utility.yul\":1576:1629   */\n      tag_86\n        /* \"#utility.yul\":1621:1628   */\n      dup10\n        /* \"#utility.yul\":1612:1618   */\n      dup3\n        /* \"#utility.yul\":1601:1610   */\n      dup11\n        /* \"#utility.yul\":1597:1619   */\n      add\n        /* \"#utility.yul\":1576:1629   */\n      tag_70\n      jump\t// in\n    tag_86:\n        /* \"#utility.yul\":1566:1629   */\n      swap2\n      pop\n        /* \"#utility.yul\":1520:1639   */\n      pop\n        /* \"#utility.yul\":589:1646   */\n      swap3\n      swap6\n      pop\n      swap3\n      swap6\n      pop\n      swap3\n      swap6\n      jump\t// out\n        /* \"#utility.yul\":1652:1997   */\n    tag_57:\n        /* \"#utility.yul\":1719:1725   */\n      0x00\n        /* \"#utility.yul\":1768:1770   */\n      0x20\n        /* \"#utility.yul\":1756:1765   */\n      dup3\n        /* \"#utility.yul\":1747:1754   */\n      dup5\n        /* \"#utility.yul\":1743:1766   */\n      sub\n        /* \"#utility.yul\":1739:1771   */\n      slt\n        /* \"#utility.yul\":1736:1855   */\n      iszero\n      tag_88\n      jumpi\n        /* \"#utility.yul\":1774:1853   */\n      tag_89\n      tag_80\n      jump\t// in\n    tag_89:\n        /* \"#utility.yul\":1736:1855   */\n    tag_88:\n        /* \"#utility.yul\":1894:1895   */\n      0x00\n        /* \"#utility.yul\":1919:1980   */\n      tag_90\n        /* \"#utility.yul\":1972:1979   */\n      dup5\n        /* \"#utility.yul\":1963:1969   */\n      dup3\n        /* \"#utility.yul\":1952:1961   */\n      dup6\n        /* \"#utility.yul\":1948:1970   */\n      add\n        /* \"#utility.yul\":1919:1980   */\n      tag_66\n      jump\t// in\n    tag_90:\n        /* \"#utility.yul\":1909:1980   */\n      swap2\n      pop\n        /* \"#utility.yul\":1865:1990   */\n      pop\n        /* \"#utility.yul\":1652:1997   */\n      swap3\n      swap2\n      pop\n      pop\n      jump\t// out\n        /* \"#utility.yul\":2003:2354   */\n    tag_35:\n        /* \"#utility.yul\":2073:2079   */\n      0x00\n        /* \"#utility.yul\":2122:2124   */\n      0x20\n        /* \"#utility.yul\":2110:2119   */\n      dup3\n        /* \"#utility.yul\":2101:2108   */\n      dup5\n        /* \"#utility.yul\":2097:2120   */\n      sub\n        /* \"#utility.yul\":2093:2125   */\n      slt\n        /* \"#utility.yul\":2090:2209   */\n      iszero\n      tag_92\n      jumpi\n        /* \"#utility.yul\":2128:2207   */\n      tag_93\n      tag_80\n      jump\t// in\n    tag_93:\n        /* \"#utility.yul\":2090:2209   */\n    tag_92:\n        /* \"#utility.yul\":2248:2249   */\n      0x00\n        /* \"#utility.yul\":2273:2337   */\n      tag_94\n        /* \"#utility.yul\":2329:2336   */\n      dup5\n        /* \"#utility.yul\":2320:2326   */\n      dup3\n        /* \"#utility.yul\":2309:2318   */\n      dup6\n        /* \"#utility.yul\":2305:2327   */\n      add\n        /* \"#utility.yul\":2273:2337   */\n      tag_74\n      jump\t// in\n    tag_94:\n        /* \"#utility.yul\":2263:2337   */\n      swap2\n      pop\n        /* \"#utility.yul\":2219:2347   */\n      pop\n        /* \"#utility.yul\":2003:2354   */\n      swap3\n      swap2\n      pop\n      pop\n      jump\t// out\n        /* \"#utility.yul\":2360:2478   */\n    tag_95:\n        /* \"#utility.yul\":2447:2471   */\n      tag_97\n        /* \"#utility.yul\":2465:2470   */\n      dup2\n        /* \"#utility.yul\":2447:2471   */\n      tag_98\n      jump\t// in\n    tag_97:\n        /* \"#utility.yul\":2442:2445   */\n      dup3\n        /* \"#utility.yul\":2435:2472   */\n      mstore\n        /* \"#utility.yul\":2360:2478   */\n      pop\n      pop\n      jump\t// out\n        /* \"#utility.yul\":2484:2641   */\n    tag_99:\n        /* \"#utility.yul\":2584:2634   */\n      tag_101\n        /* \"#utility.yul\":2628:2633   */\n      dup2\n        /* \"#utility.yul\":2584:2634   */\n      tag_102\n      jump\t// in\n    tag_101:\n        /* \"#utility.yul\":2579:2582   */\n      dup3\n        /* \"#utility.yul\":2572:2635   */\n      mstore\n        /* \"#utility.yul\":2484:2641   */\n      pop\n      pop\n      jump\t// out\n        /* \"#utility.yul\":2647:3013   */\n    tag_103:\n        /* \"#utility.yul\":2789:2792   */\n      0x00\n        /* \"#utility.yul\":2810:2877   */\n      tag_105\n        /* \"#utility.yul\":2874:2876   */\n      0x16\n        /* \"#utility.yul\":2869:2872   */\n      dup4\n        /* \"#utility.yul\":2810:2877   */\n      tag_106\n      jump\t// in\n    tag_105:\n        /* \"#utility.yul\":2803:2877   */\n      swap2\n      pop\n        /* \"#utility.yul\":2886:2979   */\n      tag_107\n        /* \"#utility.yul\":2975:2978   */\n      dup3\n        /* \"#utility.yul\":2886:2979   */\n      tag_108\n      jump\t// in\n    tag_107:\n        /* \"#utility.yul\":3004:3006   */\n      0x20\n        /* \"#utility.yul\":2999:3002   */\n      dup3\n        /* \"#utility.yul\":2995:3007   */\n      add\n        /* \"#utility.yul\":2988:3007   */\n      swap1\n      pop\n        /* \"#utility.yul\":2647:3013   */\n      swap2\n      swap1\n      pop\n      jump\t// out\n        /* \"#utility.yul\":3019:3385   */\n    tag_109:\n        /* \"#utility.yul\":3161:3164   */\n      0x00\n        /* \"#utility.yul\":3182:3249   */\n      tag_111\n        /* \"#utility.yul\":3246:3248   */\n      0x18\n        /* \"#utility.yul\":3241:3244   */\n      dup4\n        /* \"#utility.yul\":3182:3249   */\n      tag_106\n      jump\t// in\n    tag_111:\n        /* \"#utility.yul\":3175:3249   */\n      swap2\n      pop\n        /* \"#utility.yul\":3258:3351   */\n      tag_112\n        /* \"#utility.yul\":3347:3350   */\n      dup3\n        /* \"#utility.yul\":3258:3351   */\n      tag_113\n      jump\t// in\n    tag_112:\n        /* \"#utility.yul\":3376:3378   */\n      0x20\n        /* \"#utility.yul\":3371:3374   */\n      dup3\n        /* \"#utility.yul\":3367:3379   */\n      add\n        /* \"#utility.yul\":3360:3379   */\n      swap1\n      pop\n        /* \"#utility.yul\":3019:3385   */\n      swap2\n      swap1\n      pop\n      jump\t// out\n        /* \"#utility.yul\":3391:3757   */\n    tag_114:\n        /* \"#utility.yul\":3533:3536   */\n      0x00\n        /* \"#utility.yul\":3554:3621   */\n      tag_116\n        /* \"#utility.yul\":3618:3620   */\n      0x15\n        /* \"#utility.yul\":3613:3616   */\n      dup4\n        /* \"#utility.yul\":3554:3621   */\n      tag_106\n      jump\t// in\n    tag_116:\n        /* \"#utility.yul\":3547:3621   */\n      swap2\n      pop\n        /* \"#utility.yul\":3630:3723   */\n      tag_117\n        /* \"#utility.yul\":3719:3722   */\n      dup3\n        /* \"#utility.yul\":3630:3723   */\n      tag_118\n      jump\t// in\n    tag_117:\n        /* \"#utility.yul\":3748:3750   */\n      0x20\n        /* \"#utility.yul\":3743:3746   */\n      dup3\n        /* \"#utility.yul\":3739:3751   */\n      add\n        /* \"#utility.yul\":3732:3751   */\n      swap1\n      pop\n        /* \"#utility.yul\":3391:3757   */\n      swap2\n      swap1\n      pop\n      jump\t// out\n        /* \"#utility.yul\":3763:4129   */\n    tag_119:\n        /* \"#utility.yul\":3905:3908   */\n      0x00\n        /* \"#utility.yul\":3926:3993   */\n      tag_121\n        /* \"#utility.yul\":3990:3992   */\n      0x16\n        /* \"#utility.yul\":3985:3988   */\n      dup4\n        /* \"#utility.yul\":3926:3993   */\n      tag_106\n      jump\t// in\n    tag_121:\n        /* \"#utility.yul\":3919:3993   */\n      swap2\n      pop\n        /* \"#utility.yul\":4002:4095   */\n      tag_122\n        /* \"#utility.yul\":4091:4094   */\n      dup3\n        /* \"#utility.yul\":4002:4095   */\n      tag_123\n      jump\t// in\n    tag_122:\n        /* \"#utility.yul\":4120:4122   */\n      0x20\n        /* \"#utility.yul\":4115:4118   */\n      dup3\n        /* \"#utility.yul\":4111:4123   */\n      add\n        /* \"#utility.yul\":4104:4123   */\n      swap1\n      pop\n        /* \"#utility.yul\":3763:4129   */\n      swap2\n      swap1\n      pop\n      jump\t// out\n        /* \"#utility.yul\":4135:4253   */\n    tag_124:\n        /* \"#utility.yul\":4222:4246   */\n      tag_126\n        /* \"#utility.yul\":4240:4245   */\n      dup2\n        /* \"#utility.yul\":4222:4246   */\n      tag_127\n      jump\t// in\n    tag_126:\n        /* \"#utility.yul\":4217:4220   */\n      dup3\n        /* \"#utility.yul\":4210:4247   */\n      mstore\n        /* \"#utility.yul\":4135:4253   */\n      pop\n      pop\n      jump\t// out\n        /* \"#utility.yul\":4259:4591   */\n    tag_30:\n        /* \"#utility.yul\":4380:4384   */\n      0x00\n        /* \"#utility.yul\":4418:4420   */\n      0x40\n        /* \"#utility.yul\":4407:4416   */\n      dup3\n        /* \"#utility.yul\":4403:4421   */\n      add\n        /* \"#utility.yul\":4395:4421   */\n      swap1\n      pop\n        /* \"#utility.yul\":4431:4502   */\n      tag_129\n        /* \"#utility.yul\":4499:4500   */\n      0x00\n        /* \"#utility.yul\":4488:4497   */\n      dup4\n        /* \"#utility.yul\":4484:4501   */\n      add\n        /* \"#utility.yul\":4475:4481   */\n      dup6\n        /* \"#utility.yul\":4431:4502   */\n      tag_95\n      jump\t// in\n    tag_129:\n        /* \"#utility.yul\":4512:4584   */\n      tag_130\n        /* \"#utility.yul\":4580:4582   */\n      0x20\n        /* \"#utility.yul\":4569:4578   */\n      dup4\n        /* \"#utility.yul\":4565:4583   */\n      add\n        /* \"#utility.yul\":4556:4562   */\n      dup5\n        /* \"#utility.yul\":4512:4584   */\n      tag_95\n      jump\t// in\n    tag_130:\n        /* \"#utility.yul\":4259:4591   */\n      swap4\n      swap3\n      pop\n      pop\n      pop\n      jump\t// out\n        /* \"#utility.yul\":4597:5039   */\n    tag_52:\n        /* \"#utility.yul\":4746:4750   */\n      0x00\n        /* \"#utility.yul\":4784:4786   */\n      0x60\n        /* \"#utility.yul\":4773:4782   */\n      dup3\n        /* \"#utility.yul\":4769:4787   */\n      add\n        /* \"#utility.yul\":4761:4787   */\n      swap1\n      pop\n        /* \"#utility.yul\":4797:4868   */\n      tag_132\n        /* \"#utility.yul\":4865:4866   */\n      0x00\n        /* \"#utility.yul\":4854:4863   */\n      dup4\n        /* \"#utility.yul\":4850:4867   */\n      add\n        /* \"#utility.yul\":4841:4847   */\n      dup7\n        /* \"#utility.yul\":4797:4868   */\n      tag_95\n      jump\t// in\n    tag_132:\n        /* \"#utility.yul\":4878:4950   */\n      tag_133\n        /* \"#utility.yul\":4946:4948   */\n      0x20\n        /* \"#utility.yul\":4935:4944   */\n      dup4\n        /* \"#utility.yul\":4931:4949   */\n      add\n        /* \"#utility.yul\":4922:4928   */\n      dup6\n        /* \"#utility.yul\":4878:4950   */\n      tag_95\n      jump\t// in\n    tag_133:\n        /* \"#utility.yul\":4960:5032   */\n      tag_134\n        /* \"#utility.yul\":5028:5030   */\n      0x40\n        /* \"#utility.yul\":5017:5026   */\n      dup4\n        /* \"#utility.yul\":5013:5031   */\n      add\n        /* \"#utility.yul\":5004:5010   */\n      dup5\n        /* \"#utility.yul\":4960:5032   */\n      tag_124\n      jump\t// in\n    tag_134:\n        /* \"#utility.yul\":4597:5039   */\n      swap5\n      swap4\n      pop\n      pop\n      pop\n      pop\n      jump\t// out\n        /* \"#utility.yul\":5045:5293   */\n    tag_14:\n        /* \"#utility.yul\":5151:5155   */\n      0x00\n        /* \"#utility.yul\":5189:5191   */\n      0x20\n        /* \"#utility.yul\":5178:5187   */\n      dup3\n        /* \"#utility.yul\":5174:5192   */\n      add\n        /* \"#utility.yul\":5166:5192   */\n      swap1\n      pop\n        /* \"#utility.yul\":5202:5286   */\n      tag_136\n        /* \"#utility.yul\":5283:5284   */\n      0x00\n        /* \"#utility.yul\":5272:5281   */\n      dup4\n        /* \"#utility.yul\":5268:5285   */\n      add\n        /* \"#utility.yul\":5259:5265   */\n      dup5\n        /* \"#utility.yul\":5202:5286   */\n      tag_99\n      jump\t// in\n    tag_136:\n        /* \"#utility.yul\":5045:5293   */\n      swap3\n      swap2\n      pop\n      pop\n      jump\t// out\n        /* \"#utility.yul\":5299:5718   */\n    tag_46:\n        /* \"#utility.yul\":5465:5469   */\n      0x00\n        /* \"#utility.yul\":5503:5505   */\n      0x20\n        /* \"#utility.yul\":5492:5501   */\n      dup3\n        /* \"#utility.yul\":5488:5506   */\n      add\n        /* \"#utility.yul\":5480:5506   */\n      swap1\n      pop\n        /* \"#utility.yul\":5552:5561   */\n      dup2\n        /* \"#utility.yul\":5546:5550   */\n      dup2\n        /* \"#utility.yul\":5542:5562   */\n      sub\n        /* \"#utility.yul\":5538:5539   */\n      0x00\n        /* \"#utility.yul\":5527:5536   */\n      dup4\n        /* \"#utility.yul\":5523:5540   */\n      add\n        /* \"#utility.yul\":5516:5563   */\n      mstore\n        /* \"#utility.yul\":5580:5711   */\n      tag_138\n        /* \"#utility.yul\":5706:5710   */\n      dup2\n        /* \"#utility.yul\":5580:5711   */\n      tag_103\n      jump\t// in\n    tag_138:\n        /* \"#utility.yul\":5572:5711   */\n      swap1\n      pop\n        /* \"#utility.yul\":5299:5718   */\n      swap2\n      swap1\n      pop\n      jump\t// out\n        /* \"#utility.yul\":5724:6143   */\n    tag_38:\n        /* \"#utility.yul\":5890:5894   */\n      0x00\n        /* \"#utility.yul\":5928:5930   */\n      0x20\n        /* \"#utility.yul\":5917:5926   */\n      dup3\n        /* \"#utility.yul\":5913:5931   */\n      add\n        /* \"#utility.yul\":5905:5931   */\n      swap1\n      pop\n        /* \"#utility.yul\":5977:5986   */\n      dup2\n        /* \"#utility.yul\":5971:5975   */\n      dup2\n        /* \"#utility.yul\":5967:5987   */\n      sub\n        /* \"#utility.yul\":5963:5964   */\n      0x00\n        /* \"#utility.yul\":5952:5961   */\n      dup4\n        /* \"#utility.yul\":5948:5965   */\n      add\n        /* \"#utility.yul\":5941:5988   */\n      mstore\n        /* \"#utility.yul\":6005:6136   */\n      tag_140\n        /* \"#utility.yul\":6131:6135   */\n      dup2\n        /* \"#utility.yul\":6005:6136   */\n      tag_109\n      jump\t// in\n    tag_140:\n        /* \"#utility.yul\":5997:6136   */\n      swap1\n      pop\n        /* \"#utility.yul\":5724:6143   */\n      swap2\n      swap1\n      pop\n      jump\t// out\n        /* \"#utility.yul\":6149:6568   */\n    tag_60:\n        /* \"#utility.yul\":6315:6319   */\n      0x00\n        /* \"#utility.yul\":6353:6355   */\n      0x20\n        /* \"#utility.yul\":6342:6351   */\n      dup3\n        /* \"#utility.yul\":6338:6356   */\n      add\n        /* \"#utility.yul\":6330:6356   */\n      swap1\n      pop\n        /* \"#utility.yul\":6402:6411   */\n      dup2\n        /* \"#utility.yul\":6396:6400   */\n      dup2\n        /* \"#utility.yul\":6392:6412   */\n      sub\n        /* \"#utility.yul\":6388:6389   */\n      0x00\n        /* \"#utility.yul\":6377:6386   */\n      dup4\n        /* \"#utility.yul\":6373:6390   */\n      add\n        /* \"#utility.yul\":6366:6413   */\n      mstore\n        /* \"#utility.yul\":6430:6561   */\n      tag_142\n        /* \"#utility.yul\":6556:6560   */\n      dup2\n        /* \"#utility.yul\":6430:6561   */\n      tag_114\n      jump\t// in\n    tag_142:\n        /* \"#utility.yul\":6422:6561   */\n      swap1\n      pop\n        /* \"#utility.yul\":6149:6568   */\n      swap2\n      swap1\n      pop\n      jump\t// out\n        /* \"#utility.yul\":6574:6993   */\n    tag_28:\n        /* \"#utility.yul\":6740:6744   */\n      0x00\n        /* \"#utility.yul\":6778:6780   */\n      0x20\n        /* \"#utility.yul\":6767:6776   */\n      dup3\n        /* \"#utility.yul\":6763:6781   */\n      add\n        /* \"#utility.yul\":6755:6781   */\n      swap1\n      pop\n        /* \"#utility.yul\":6827:6836   */\n      dup2\n        /* \"#utility.yul\":6821:6825   */\n      dup2\n        /* \"#utility.yul\":6817:6837   */\n      sub\n        /* \"#utility.yul\":6813:6814   */\n      0x00\n        /* \"#utility.yul\":6802:6811   */\n      dup4\n        /* \"#utility.yul\":6798:6815   */\n      add\n        /* \"#utility.yul\":6791:6838   */\n      mstore\n        /* \"#utility.yul\":6855:6986   */\n      tag_144\n        /* \"#utility.yul\":6981:6985   */\n      dup2\n        /* \"#utility.yul\":6855:6986   */\n      tag_119\n      jump\t// in\n    tag_144:\n        /* \"#utility.yul\":6847:6986   */\n      swap1\n      pop\n        /* \"#utility.yul\":6574:6993   */\n      swap2\n      swap1\n      pop\n      jump\t// out\n        /* \"#utility.yul\":7080:7249   */\n    tag_106:\n        /* \"#utility.yul\":7164:7175   */\n      0x00\n        /* \"#utility.yul\":7198:7204   */\n      dup3\n        /* \"#utility.yul\":7193:7196   */\n      dup3\n        /* \"#utility.yul\":7186:7205   */\n      mstore\n        /* \"#utility.yul\":7238:7242   */\n      0x20\n        /* \"#utility.yul\":7233:7236   */\n      dup3\n        /* \"#utility.yul\":7229:7243   */\n      add\n        /* \"#utility.yul\":7214:7243   */\n      swap1\n      pop\n        /* \"#utility.yul\":7080:7249   */\n      swap3\n      swap2\n      pop\n      pop\n      jump\t// out\n        /* \"#utility.yul\":7255:7351   */\n    tag_98:\n        /* \"#utility.yul\":7292:7299   */\n      0x00\n        /* \"#utility.yul\":7321:7345   */\n      tag_149\n        /* \"#utility.yul\":7339:7344   */\n      dup3\n        /* \"#utility.yul\":7321:7345   */\n      tag_150\n      jump\t// in\n    tag_149:\n        /* \"#utility.yul\":7310:7345   */\n      swap1\n      pop\n        /* \"#utility.yul\":7255:7351   */\n      swap2\n      swap1\n      pop\n      jump\t// out\n        /* \"#utility.yul\":7357:7447   */\n    tag_151:\n        /* \"#utility.yul\":7391:7398   */\n      0x00\n        /* \"#utility.yul\":7434:7439   */\n      dup2\n        /* \"#utility.yul\":7427:7440   */\n      iszero\n        /* \"#utility.yul\":7420:7441   */\n      iszero\n        /* \"#utility.yul\":7409:7441   */\n      swap1\n      pop\n        /* \"#utility.yul\":7357:7447   */\n      swap2\n      swap1\n      pop\n      jump\t// out\n        /* \"#utility.yul\":7453:7579   */\n    tag_150:\n        /* \"#utility.yul\":7490:7497   */\n      0x00\n        /* \"#utility.yul\":7530:7572   */\n      0xffffffffffffffffffffffffffffffffffffffff\n        /* \"#utility.yul\":7523:7528   */\n      dup3\n        /* \"#utility.yul\":7519:7573   */\n      and\n        /* \"#utility.yul\":7508:7573   */\n      swap1\n      pop\n        /* \"#utility.yul\":7453:7579   */\n      swap2\n      swap1\n      pop\n      jump\t// out\n        /* \"#utility.yul\":7585:7662   */\n    tag_127:\n        /* \"#utility.yul\":7622:7629   */\n      0x00\n        /* \"#utility.yul\":7651:7656   */\n      dup2\n        /* \"#utility.yul\":7640:7656   */\n      swap1\n      pop\n        /* \"#utility.yul\":7585:7662   */\n      swap2\n      swap1\n      pop\n      jump\t// out\n        /* \"#utility.yul\":7668:7807   */\n    tag_102:\n        /* \"#utility.yul\":7731:7740   */\n      0x00\n        /* \"#utility.yul\":7764:7801   */\n      tag_156\n        /* \"#utility.yul\":7795:7800   */\n      dup3\n        /* \"#utility.yul\":7764:7801   */\n      tag_157\n      jump\t// in\n    tag_156:\n        /* \"#utility.yul\":7751:7801   */\n      swap1\n      pop\n        /* \"#utility.yul\":7668:7807   */\n      swap2\n      swap1\n      pop\n      jump\t// out\n        /* \"#utility.yul\":7813:7939   */\n    tag_157:\n        /* \"#utility.yul\":7863:7872   */\n      0x00\n        /* \"#utility.yul\":7896:7933   */\n      tag_159\n        /* \"#utility.yul\":7927:7932   */\n      dup3\n        /* \"#utility.yul\":7896:7933   */\n      tag_160\n      jump\t// in\n    tag_159:\n        /* \"#utility.yul\":7883:7933   */\n      swap1\n      pop\n        /* \"#utility.yul\":7813:7939   */\n      swap2\n      swap1\n      pop\n      jump\t// out\n        /* \"#utility.yul\":7945:8058   */\n    tag_160:\n        /* \"#utility.yul\":7995:8004   */\n      0x00\n        /* \"#utility.yul\":8028:8052   */\n      tag_162\n        /* \"#utility.yul\":8046:8051   */\n      dup3\n        /* \"#utility.yul\":8028:8052   */\n      tag_150\n      jump\t// in\n    tag_162:\n        /* \"#utility.yul\":8015:8052   */\n      swap1\n      pop\n        /* \"#utility.yul\":7945:8058   */\n      swap2\n      swap1\n      pop\n      jump\t// out\n        /* \"#utility.yul\":8187:8304   */\n    tag_80:\n        /* \"#utility.yul\":8296:8297   */\n      0x00\n        /* \"#utility.yul\":8293:8294   */\n      dup1\n        /* \"#utility.yul\":8286:8298   */\n      revert\n        /* \"#utility.yul\":8310:8482   */\n    tag_108:\n        /* \"#utility.yul\":8450:8474   */\n      0x546f6b656e20616c6c6f7720546f20746f6f206c6f7700000000000000000000\n        /* \"#utility.yul\":8446:8447   */\n      0x00\n        /* \"#utility.yul\":8438:8444   */\n      dup3\n        /* \"#utility.yul\":8434:8448   */\n      add\n        /* \"#utility.yul\":8427:8475   */\n      mstore\n        /* \"#utility.yul\":8310:8482   */\n      pop\n      jump\t// out\n        /* \"#utility.yul\":8488:8662   */\n    tag_113:\n        /* \"#utility.yul\":8628:8654   */\n      0x546f6b656e20616c6c6f772046726f6d20746f6f206c6f770000000000000000\n        /* \"#utility.yul\":8624:8625   */\n      0x00\n        /* \"#utility.yul\":8616:8622   */\n      dup3\n        /* \"#utility.yul\":8612:8626   */\n      add\n        /* \"#utility.yul\":8605:8655   */\n      mstore\n        /* \"#utility.yul\":8488:8662   */\n      pop\n      jump\t// out\n        /* \"#utility.yul\":8668:8839   */\n    tag_118:\n        /* \"#utility.yul\":8808:8831   */\n      0x546f6b656e207472616e73666572206661696c65640000000000000000000000\n        /* \"#utility.yul\":8804:8805   */\n      0x00\n        /* \"#utility.yul\":8796:8802   */\n      dup3\n        /* \"#utility.yul\":8792:8806   */\n      add\n        /* \"#utility.yul\":8785:8832   */\n      mstore\n        /* \"#utility.yul\":8668:8839   */\n      pop\n      jump\t// out\n        /* \"#utility.yul\":8845:9017   */\n    tag_123:\n        /* \"#utility.yul\":8985:9009   */\n      0x416464726573732073776170206e6f742076616c696400000000000000000000\n        /* \"#utility.yul\":8981:8982   */\n      0x00\n        /* \"#utility.yul\":8973:8979   */\n      dup3\n        /* \"#utility.yul\":8969:8983   */\n      add\n        /* \"#utility.yul\":8962:9010   */\n      mstore\n        /* \"#utility.yul\":8845:9017   */\n      pop\n      jump\t// out\n        /* \"#utility.yul\":9023:9145   */\n    tag_65:\n        /* \"#utility.yul\":9096:9120   */\n      tag_171\n        /* \"#utility.yul\":9114:9119   */\n      dup2\n        /* \"#utility.yul\":9096:9120   */\n      tag_98\n      jump\t// in\n    tag_171:\n        /* \"#utility.yul\":9089:9094   */\n      dup2\n        /* \"#utility.yul\":9086:9121   */\n      eq\n        /* \"#utility.yul\":9076:9139   */\n      tag_172\n      jumpi\n        /* \"#utility.yul\":9135:9136   */\n      0x00\n        /* \"#utility.yul\":9132:9133   */\n      dup1\n        /* \"#utility.yul\":9125:9137   */\n      revert\n        /* \"#utility.yul\":9076:9139   */\n    tag_172:\n        /* \"#utility.yul\":9023:9145   */\n      pop\n      jump\t// out\n        /* \"#utility.yul\":9151:9267   */\n    tag_69:\n        /* \"#utility.yul\":9221:9242   */\n      tag_174\n        /* \"#utility.yul\":9236:9241   */\n      dup2\n        /* \"#utility.yul\":9221:9242   */\n      tag_151\n      jump\t// in\n    tag_174:\n        /* \"#utility.yul\":9214:9219   */\n      dup2\n        /* \"#utility.yul\":9211:9243   */\n      eq\n        /* \"#utility.yul\":9201:9261   */\n      tag_175\n      jumpi\n        /* \"#utility.yul\":9257:9258   */\n      0x00\n        /* \"#utility.yul\":9254:9255   */\n      dup1\n        /* \"#utility.yul\":9247:9259   */\n      revert\n        /* \"#utility.yul\":9201:9261   */\n    tag_175:\n        /* \"#utility.yul\":9151:9267   */\n      pop\n      jump\t// out\n        /* \"#utility.yul\":9273:9395   */\n    tag_73:\n        /* \"#utility.yul\":9346:9370   */\n      tag_177\n        /* \"#utility.yul\":9364:9369   */\n      dup2\n        /* \"#utility.yul\":9346:9370   */\n      tag_127\n      jump\t// in\n    tag_177:\n        /* \"#utility.yul\":9339:9344   */\n      dup2\n        /* \"#utility.yul\":9336:9371   */\n      eq\n        /* \"#utility.yul\":9326:9389   */\n      tag_178\n      jumpi\n        /* \"#utility.yul\":9385:9386   */\n      0x00\n        /* \"#utility.yul\":9382:9383   */\n      dup1\n        /* \"#utility.yul\":9375:9387   */\n      revert\n        /* \"#utility.yul\":9326:9389   */\n    tag_178:\n        /* \"#utility.yul\":9273:9395   */\n      pop\n      jump\t// out\n\n    auxdata: 0xa26469706673582212205fbc491f10a424bee66424abfdc3456b091568ab40b8d8e3c3c846b4c317cb6d64736f6c63430008070033\n}\n",
				"bytecode": {
					"linkReferences": {},
					"object": "608060405234801561001057600080fd5b506109e9806100206000396000f3fe6080604052600436106100385760003560e01c80637c153534146100415780637ddf33201461006c578063c17b7326146100955761003f565b3661003f57005b005b34801561004d57600080fd5b506100566100c0565b604051610063919061079b565b60405180910390f35b34801561007857600080fd5b50610093600480360381019061008e919061059b565b6100e4565b005b3480156100a157600080fd5b506100aa610447565b6040516100b7919061079b565b60405180910390f35b60008054906101000a900473ffffffffffffffffffffffffffffffffffffffff1681565b856000806101000a81548173ffffffffffffffffffffffffffffffffffffffff021916908373ffffffffffffffffffffffffffffffffffffffff16021790555082600160006101000a81548173ffffffffffffffffffffffffffffffffffffffff021916908373ffffffffffffffffffffffffffffffffffffffff1602179055508473ffffffffffffffffffffffffffffffffffffffff163373ffffffffffffffffffffffffffffffffffffffff1614806101ca57508173ffffffffffffffffffffffffffffffffffffffff163373ffffffffffffffffffffffffffffffffffffffff16145b610209576040517f08c379a000000000000000000000000000000000000000000000000000000000815260040161020090610816565b60405180910390fd5b8360008054906101000a900473ffffffffffffffffffffffffffffffffffffffff1673ffffffffffffffffffffffffffffffffffffffff1663dd62ed3e87306040518363ffffffff1660e01b815260040161026592919061073b565b60206040518083038186803b15801561027d57600080fd5b505afa158015610291573d6000803e3d6000fd5b505050506040513d601f19601f820116820180604052508101906102b59190610655565b10156102f6576040517f08c379a00000000000000000000000000000000000000000000000000000000081526004016102ed906107d6565b60405180910390fd5b80600160009054906101000a900473ffffffffffffffffffffffffffffffffffffffff1673ffffffffffffffffffffffffffffffffffffffff1663dd62ed3e84306040518363ffffffff1660e01b815260040161035492919061073b565b60206040518083038186803b15801561036c57600080fd5b505afa158015610380573d6000803e3d6000fd5b505050506040513d601f19601f820116820180604052508101906103a49190610655565b10156103e5576040517f08c379a00000000000000000000000000000000000000000000000000000000081526004016103dc906107b6565b60405180910390fd5b61041160008054906101000a900473ffffffffffffffffffffffffffffffffffffffff1686848761046d565b61043f600160009054906101000a900473ffffffffffffffffffffffffffffffffffffffff1683878461046d565b505050505050565b600160009054906101000a900473ffffffffffffffffffffffffffffffffffffffff1681565b60008473ffffffffffffffffffffffffffffffffffffffff166323b872dd8585856040518463ffffffff1660e01b81526004016104ac93929190610764565b602060405180830381600087803b1580156104c657600080fd5b505af11580156104da573d6000803e3d6000fd5b505050506040513d601f19601f820116820180604052508101906104fe9190610628565b905080610540576040517f08c379a0000000000000000000000000000000000000000000000000000000008152600401610537906107f6565b60405180910390fd5b5050505050565b6000813590506105568161096e565b92915050565b60008151905061056b81610985565b92915050565b6000813590506105808161099c565b92915050565b6000815190506105958161099c565b92915050565b60008060008060008060c087890312156105b8576105b76108c5565b5b60006105c689828a01610547565b96505060206105d789828a01610547565b95505060406105e889828a01610571565b94505060606105f989828a01610547565b935050608061060a89828a01610547565b92505060a061061b89828a01610571565b9150509295509295509295565b60006020828403121561063e5761063d6108c5565b5b600061064c8482850161055c565b91505092915050565b60006020828403121561066b5761066a6108c5565b5b600061067984828501610586565b91505092915050565b61068b81610847565b82525050565b61069a8161088f565b82525050565b60006106ad601683610836565b91506106b8826108ca565b602082019050919050565b60006106d0601883610836565b91506106db826108f3565b602082019050919050565b60006106f3601583610836565b91506106fe8261091c565b602082019050919050565b6000610716601683610836565b915061072182610945565b602082019050919050565b61073581610885565b82525050565b60006040820190506107506000830185610682565b61075d6020830184610682565b9392505050565b60006060820190506107796000830186610682565b6107866020830185610682565b610793604083018461072c565b949350505050565b60006020820190506107b06000830184610691565b92915050565b600060208201905081810360008301526107cf816106a0565b9050919050565b600060208201905081810360008301526107ef816106c3565b9050919050565b6000602082019050818103600083015261080f816106e6565b9050919050565b6000602082019050818103600083015261082f81610709565b9050919050565b600082825260208201905092915050565b600061085282610865565b9050919050565b60008115159050919050565b600073ffffffffffffffffffffffffffffffffffffffff82169050919050565b6000819050919050565b600061089a826108a1565b9050919050565b60006108ac826108b3565b9050919050565b60006108be82610865565b9050919050565b600080fd5b7f546f6b656e20616c6c6f7720546f20746f6f206c6f7700000000000000000000600082015250565b7f546f6b656e20616c6c6f772046726f6d20746f6f206c6f770000000000000000600082015250565b7f546f6b656e207472616e73666572206661696c65640000000000000000000000600082015250565b7f416464726573732073776170206e6f742076616c696400000000000000000000600082015250565b61097781610847565b811461098257600080fd5b50565b61098e81610859565b811461099957600080fd5b50565b6109a581610885565b81146109b057600080fd5b5056fea26469706673582212205fbc491f10a424bee66424abfdc3456b091568ab40b8d8e3c3c846b4c317cb6d64736f6c63430008070033",
					"opcodes": "PUSH1 0x80 PUSH1 0x40 MSTORE CALLVALUE DUP1 ISZERO PUSH2 0x10 JUMPI PUSH1 0x0 DUP1 REVERT JUMPDEST POP PUSH2 0x9E9 DUP1 PUSH2 0x20 PUSH1 0x0 CODECOPY PUSH1 0x0 RETURN INVALID PUSH1 0x80 PUSH1 0x40 MSTORE PUSH1 0x4 CALLDATASIZE LT PUSH2 0x38 JUMPI PUSH1 0x0 CALLDATALOAD PUSH1 0xE0 SHR DUP1 PUSH4 0x7C153534 EQ PUSH2 0x41 JUMPI DUP1 PUSH4 0x7DDF3320 EQ PUSH2 0x6C JUMPI DUP1 PUSH4 0xC17B7326 EQ PUSH2 0x95 JUMPI PUSH2 0x3F JUMP JUMPDEST CALLDATASIZE PUSH2 0x3F JUMPI STOP JUMPDEST STOP JUMPDEST CALLVALUE DUP1 ISZERO PUSH2 0x4D JUMPI PUSH1 0x0 DUP1 REVERT JUMPDEST POP PUSH2 0x56 PUSH2 0xC0 JUMP JUMPDEST PUSH1 0x40 MLOAD PUSH2 0x63 SWAP2 SWAP1 PUSH2 0x79B JUMP JUMPDEST PUSH1 0x40 MLOAD DUP1 SWAP2 SUB SWAP1 RETURN JUMPDEST CALLVALUE DUP1 ISZERO PUSH2 0x78 JUMPI PUSH1 0x0 DUP1 REVERT JUMPDEST POP PUSH2 0x93 PUSH1 0x4 DUP1 CALLDATASIZE SUB DUP2 ADD SWAP1 PUSH2 0x8E SWAP2 SWAP1 PUSH2 0x59B JUMP JUMPDEST PUSH2 0xE4 JUMP JUMPDEST STOP JUMPDEST CALLVALUE DUP1 ISZERO PUSH2 0xA1 JUMPI PUSH1 0x0 DUP1 REVERT JUMPDEST POP PUSH2 0xAA PUSH2 0x447 JUMP JUMPDEST PUSH1 0x40 MLOAD PUSH2 0xB7 SWAP2 SWAP1 PUSH2 0x79B JUMP JUMPDEST PUSH1 0x40 MLOAD DUP1 SWAP2 SUB SWAP1 RETURN JUMPDEST PUSH1 0x0 DUP1 SLOAD SWAP1 PUSH2 0x100 EXP SWAP1 DIV PUSH20 0xFFFFFFFFFFFFFFFFFFFFFFFFFFFFFFFFFFFFFFFF AND DUP2 JUMP JUMPDEST DUP6 PUSH1 0x0 DUP1 PUSH2 0x100 EXP DUP2 SLOAD DUP2 PUSH20 0xFFFFFFFFFFFFFFFFFFFFFFFFFFFFFFFFFFFFFFFF MUL NOT AND SWAP1 DUP4 PUSH20 0xFFFFFFFFFFFFFFFFFFFFFFFFFFFFFFFFFFFFFFFF AND MUL OR SWAP1 SSTORE POP DUP3 PUSH1 0x1 PUSH1 0x0 PUSH2 0x100 EXP DUP2 SLOAD DUP2 PUSH20 0xFFFFFFFFFFFFFFFFFFFFFFFFFFFFFFFFFFFFFFFF MUL NOT AND SWAP1 DUP4 PUSH20 0xFFFFFFFFFFFFFFFFFFFFFFFFFFFFFFFFFFFFFFFF AND MUL OR SWAP1 SSTORE POP DUP5 PUSH20 0xFFFFFFFFFFFFFFFFFFFFFFFFFFFFFFFFFFFFFFFF AND CALLER PUSH20 0xFFFFFFFFFFFFFFFFFFFFFFFFFFFFFFFFFFFFFFFF AND EQ DUP1 PUSH2 0x1CA JUMPI POP DUP2 PUSH20 0xFFFFFFFFFFFFFFFFFFFFFFFFFFFFFFFFFFFFFFFF AND CALLER PUSH20 0xFFFFFFFFFFFFFFFFFFFFFFFFFFFFFFFFFFFFFFFF AND EQ JUMPDEST PUSH2 0x209 JUMPI PUSH1 0x40 MLOAD PUSH32 0x8C379A000000000000000000000000000000000000000000000000000000000 DUP2 MSTORE PUSH1 0x4 ADD PUSH2 0x200 SWAP1 PUSH2 0x816 JUMP JUMPDEST PUSH1 0x40 MLOAD DUP1 SWAP2 SUB SWAP1 REVERT JUMPDEST DUP4 PUSH1 0x0 DUP1 SLOAD SWAP1 PUSH2 0x100 EXP SWAP1 DIV PUSH20 0xFFFFFFFFFFFFFFFFFFFFFFFFFFFFFFFFFFFFFFFF AND PUSH20 0xFFFFFFFFFFFFFFFFFFFFFFFFFFFFFFFFFFFFFFFF AND PUSH4 0xDD62ED3E DUP8 ADDRESS PUSH1 0x40 MLOAD DUP4 PUSH4 0xFFFFFFFF AND PUSH1 0xE0 SHL DUP2 MSTORE PUSH1 0x4 ADD PUSH2 0x265 SWAP3 SWAP2 SWAP1 PUSH2 0x73B JUMP JUMPDEST PUSH1 0x20 PUSH1 0x40 MLOAD DUP1 DUP4 SUB DUP2 DUP7 DUP1 EXTCODESIZE ISZERO DUP1 ISZERO PUSH2 0x27D JUMPI PUSH1 0x0 DUP1 REVERT JUMPDEST POP GAS STATICCALL ISZERO DUP1 ISZERO PUSH2 0x291 JUMPI RETURNDATASIZE PUSH1 0x0 DUP1 RETURNDATACOPY RETURNDATASIZE PUSH1 0x0 REVERT JUMPDEST POP POP POP POP PUSH1 0x40 MLOAD RETURNDATASIZE PUSH1 0x1F NOT PUSH1 0x1F DUP3 ADD AND DUP3 ADD DUP1 PUSH1 0x40 MSTORE POP DUP2 ADD SWAP1 PUSH2 0x2B5 SWAP2 SWAP1 PUSH2 0x655 JUMP JUMPDEST LT ISZERO PUSH2 0x2F6 JUMPI PUSH1 0x40 MLOAD PUSH32 0x8C379A000000000000000000000000000000000000000000000000000000000 DUP2 MSTORE PUSH1 0x4 ADD PUSH2 0x2ED SWAP1 PUSH2 0x7D6 JUMP JUMPDEST PUSH1 0x40 MLOAD DUP1 SWAP2 SUB SWAP1 REVERT JUMPDEST DUP1 PUSH1 0x1 PUSH1 0x0 SWAP1 SLOAD SWAP1 PUSH2 0x100 EXP SWAP1 DIV PUSH20 0xFFFFFFFFFFFFFFFFFFFFFFFFFFFFFFFFFFFFFFFF AND PUSH20 0xFFFFFFFFFFFFFFFFFFFFFFFFFFFFFFFFFFFFFFFF AND PUSH4 0xDD62ED3E DUP5 ADDRESS PUSH1 0x40 MLOAD DUP4 PUSH4 0xFFFFFFFF AND PUSH1 0xE0 SHL DUP2 MSTORE PUSH1 0x4 ADD PUSH2 0x354 SWAP3 SWAP2 SWAP1 PUSH2 0x73B JUMP JUMPDEST PUSH1 0x20 PUSH1 0x40 MLOAD DUP1 DUP4 SUB DUP2 DUP7 DUP1 EXTCODESIZE ISZERO DUP1 ISZERO PUSH2 0x36C JUMPI PUSH1 0x0 DUP1 REVERT JUMPDEST POP GAS STATICCALL ISZERO DUP1 ISZERO PUSH2 0x380 JUMPI RETURNDATASIZE PUSH1 0x0 DUP1 RETURNDATACOPY RETURNDATASIZE PUSH1 0x0 REVERT JUMPDEST POP POP POP POP PUSH1 0x40 MLOAD RETURNDATASIZE PUSH1 0x1F NOT PUSH1 0x1F DUP3 ADD AND DUP3 ADD DUP1 PUSH1 0x40 MSTORE POP DUP2 ADD SWAP1 PUSH2 0x3A4 SWAP2 SWAP1 PUSH2 0x655 JUMP JUMPDEST LT ISZERO PUSH2 0x3E5 JUMPI PUSH1 0x40 MLOAD PUSH32 0x8C379A000000000000000000000000000000000000000000000000000000000 DUP2 MSTORE PUSH1 0x4 ADD PUSH2 0x3DC SWAP1 PUSH2 0x7B6 JUMP JUMPDEST PUSH1 0x40 MLOAD DUP1 SWAP2 SUB SWAP1 REVERT JUMPDEST PUSH2 0x411 PUSH1 0x0 DUP1 SLOAD SWAP1 PUSH2 0x100 EXP SWAP1 DIV PUSH20 0xFFFFFFFFFFFFFFFFFFFFFFFFFFFFFFFFFFFFFFFF AND DUP7 DUP5 DUP8 PUSH2 0x46D JUMP JUMPDEST PUSH2 0x43F PUSH1 0x1 PUSH1 0x0 SWAP1 SLOAD SWAP1 PUSH2 0x100 EXP SWAP1 DIV PUSH20 0xFFFFFFFFFFFFFFFFFFFFFFFFFFFFFFFFFFFFFFFF AND DUP4 DUP8 DUP5 PUSH2 0x46D JUMP JUMPDEST POP POP POP POP POP POP JUMP JUMPDEST PUSH1 0x1 PUSH1 0x0 SWAP1 SLOAD SWAP1 PUSH2 0x100 EXP SWAP1 DIV PUSH20 0xFFFFFFFFFFFFFFFFFFFFFFFFFFFFFFFFFFFFFFFF AND DUP2 JUMP JUMPDEST PUSH1 0x0 DUP5 PUSH20 0xFFFFFFFFFFFFFFFFFFFFFFFFFFFFFFFFFFFFFFFF AND PUSH4 0x23B872DD DUP6 DUP6 DUP6 PUSH1 0x40 MLOAD DUP5 PUSH4 0xFFFFFFFF AND PUSH1 0xE0 SHL DUP2 MSTORE PUSH1 0x4 ADD PUSH2 0x4AC SWAP4 SWAP3 SWAP2 SWAP1 PUSH2 0x764 JUMP JUMPDEST PUSH1 0x20 PUSH1 0x40 MLOAD DUP1 DUP4 SUB DUP2 PUSH1 0x0 DUP8 DUP1 EXTCODESIZE ISZERO DUP1 ISZERO PUSH2 0x4C6 JUMPI PUSH1 0x0 DUP1 REVERT JUMPDEST POP GAS CALL ISZERO DUP1 ISZERO PUSH2 0x4DA JUMPI RETURNDATASIZE PUSH1 0x0 DUP1 RETURNDATACOPY RETURNDATASIZE PUSH1 0x0 REVERT JUMPDEST POP POP POP POP PUSH1 0x40 MLOAD RETURNDATASIZE PUSH1 0x1F NOT PUSH1 0x1F DUP3 ADD AND DUP3 ADD DUP1 PUSH1 0x40 MSTORE POP DUP2 ADD SWAP1 PUSH2 0x4FE SWAP2 SWAP1 PUSH2 0x628 JUMP JUMPDEST SWAP1 POP DUP1 PUSH2 0x540 JUMPI PUSH1 0x40 MLOAD PUSH32 0x8C379A000000000000000000000000000000000000000000000000000000000 DUP2 MSTORE PUSH1 0x4 ADD PUSH2 0x537 SWAP1 PUSH2 0x7F6 JUMP JUMPDEST PUSH1 0x40 MLOAD DUP1 SWAP2 SUB SWAP1 REVERT JUMPDEST POP POP POP POP POP JUMP JUMPDEST PUSH1 0x0 DUP2 CALLDATALOAD SWAP1 POP PUSH2 0x556 DUP2 PUSH2 0x96E JUMP JUMPDEST SWAP3 SWAP2 POP POP JUMP JUMPDEST PUSH1 0x0 DUP2 MLOAD SWAP1 POP PUSH2 0x56B DUP2 PUSH2 0x985 JUMP JUMPDEST SWAP3 SWAP2 POP POP JUMP JUMPDEST PUSH1 0x0 DUP2 CALLDATALOAD SWAP1 POP PUSH2 0x580 DUP2 PUSH2 0x99C JUMP JUMPDEST SWAP3 SWAP2 POP POP JUMP JUMPDEST PUSH1 0x0 DUP2 MLOAD SWAP1 POP PUSH2 0x595 DUP2 PUSH2 0x99C JUMP JUMPDEST SWAP3 SWAP2 POP POP JUMP JUMPDEST PUSH1 0x0 DUP1 PUSH1 0x0 DUP1 PUSH1 0x0 DUP1 PUSH1 0xC0 DUP8 DUP10 SUB SLT ISZERO PUSH2 0x5B8 JUMPI PUSH2 0x5B7 PUSH2 0x8C5 JUMP JUMPDEST JUMPDEST PUSH1 0x0 PUSH2 0x5C6 DUP10 DUP3 DUP11 ADD PUSH2 0x547 JUMP JUMPDEST SWAP7 POP POP PUSH1 0x20 PUSH2 0x5D7 DUP10 DUP3 DUP11 ADD PUSH2 0x547 JUMP JUMPDEST SWAP6 POP POP PUSH1 0x40 PUSH2 0x5E8 DUP10 DUP3 DUP11 ADD PUSH2 0x571 JUMP JUMPDEST SWAP5 POP POP PUSH1 0x60 PUSH2 0x5F9 DUP10 DUP3 DUP11 ADD PUSH2 0x547 JUMP JUMPDEST SWAP4 POP POP PUSH1 0x80 PUSH2 0x60A DUP10 DUP3 DUP11 ADD PUSH2 0x547 JUMP JUMPDEST SWAP3 POP POP PUSH1 0xA0 PUSH2 0x61B DUP10 DUP3 DUP11 ADD PUSH2 0x571 JUMP JUMPDEST SWAP2 POP POP SWAP3 SWAP6 POP SWAP3 SWAP6 POP SWAP3 SWAP6 JUMP JUMPDEST PUSH1 0x0 PUSH1 0x20 DUP3 DUP5 SUB SLT ISZERO PUSH2 0x63E JUMPI PUSH2 0x63D PUSH2 0x8C5 JUMP JUMPDEST JUMPDEST PUSH1 0x0 PUSH2 0x64C DUP5 DUP3 DUP6 ADD PUSH2 0x55C JUMP JUMPDEST SWAP2 POP POP SWAP3 SWAP2 POP POP JUMP JUMPDEST PUSH1 0x0 PUSH1 0x20 DUP3 DUP5 SUB SLT ISZERO PUSH2 0x66B JUMPI PUSH2 0x66A PUSH2 0x8C5 JUMP JUMPDEST JUMPDEST PUSH1 0x0 PUSH2 0x679 DUP5 DUP3 DUP6 ADD PUSH2 0x586 JUMP JUMPDEST SWAP2 POP POP SWAP3 SWAP2 POP POP JUMP JUMPDEST PUSH2 0x68B DUP2 PUSH2 0x847 JUMP JUMPDEST DUP3 MSTORE POP POP JUMP JUMPDEST PUSH2 0x69A DUP2 PUSH2 0x88F JUMP JUMPDEST DUP3 MSTORE POP POP JUMP JUMPDEST PUSH1 0x0 PUSH2 0x6AD PUSH1 0x16 DUP4 PUSH2 0x836 JUMP JUMPDEST SWAP2 POP PUSH2 0x6B8 DUP3 PUSH2 0x8CA JUMP JUMPDEST PUSH1 0x20 DUP3 ADD SWAP1 POP SWAP2 SWAP1 POP JUMP JUMPDEST PUSH1 0x0 PUSH2 0x6D0 PUSH1 0x18 DUP4 PUSH2 0x836 JUMP JUMPDEST SWAP2 POP PUSH2 0x6DB DUP3 PUSH2 0x8F3 JUMP JUMPDEST PUSH1 0x20 DUP3 ADD SWAP1 POP SWAP2 SWAP1 POP JUMP JUMPDEST PUSH1 0x0 PUSH2 0x6F3 PUSH1 0x15 DUP4 PUSH2 0x836 JUMP JUMPDEST SWAP2 POP PUSH2 0x6FE DUP3 PUSH2 0x91C JUMP JUMPDEST PUSH1 0x20 DUP3 ADD SWAP1 POP SWAP2 SWAP1 POP JUMP JUMPDEST PUSH1 0x0 PUSH2 0x716 PUSH1 0x16 DUP4 PUSH2 0x836 JUMP JUMPDEST SWAP2 POP PUSH2 0x721 DUP3 PUSH2 0x945 JUMP JUMPDEST PUSH1 0x20 DUP3 ADD SWAP1 POP SWAP2 SWAP1 POP JUMP JUMPDEST PUSH2 0x735 DUP2 PUSH2 0x885 JUMP JUMPDEST DUP3 MSTORE POP POP JUMP JUMPDEST PUSH1 0x0 PUSH1 0x40 DUP3 ADD SWAP1 POP PUSH2 0x750 PUSH1 0x0 DUP4 ADD DUP6 PUSH2 0x682 JUMP JUMPDEST PUSH2 0x75D PUSH1 0x20 DUP4 ADD DUP5 PUSH2 0x682 JUMP JUMPDEST SWAP4 SWAP3 POP POP POP JUMP JUMPDEST PUSH1 0x0 PUSH1 0x60 DUP3 ADD SWAP1 POP PUSH2 0x779 PUSH1 0x0 DUP4 ADD DUP7 PUSH2 0x682 JUMP JUMPDEST PUSH2 0x786 PUSH1 0x20 DUP4 ADD DUP6 PUSH2 0x682 JUMP JUMPDEST PUSH2 0x793 PUSH1 0x40 DUP4 ADD DUP5 PUSH2 0x72C JUMP JUMPDEST SWAP5 SWAP4 POP POP POP POP JUMP JUMPDEST PUSH1 0x0 PUSH1 0x20 DUP3 ADD SWAP1 POP PUSH2 0x7B0 PUSH1 0x0 DUP4 ADD DUP5 PUSH2 0x691 JUMP JUMPDEST SWAP3 SWAP2 POP POP JUMP JUMPDEST PUSH1 0x0 PUSH1 0x20 DUP3 ADD SWAP1 POP DUP2 DUP2 SUB PUSH1 0x0 DUP4 ADD MSTORE PUSH2 0x7CF DUP2 PUSH2 0x6A0 JUMP JUMPDEST SWAP1 POP SWAP2 SWAP1 POP JUMP JUMPDEST PUSH1 0x0 PUSH1 0x20 DUP3 ADD SWAP1 POP DUP2 DUP2 SUB PUSH1 0x0 DUP4 ADD MSTORE PUSH2 0x7EF DUP2 PUSH2 0x6C3 JUMP JUMPDEST SWAP1 POP SWAP2 SWAP1 POP JUMP JUMPDEST PUSH1 0x0 PUSH1 0x20 DUP3 ADD SWAP1 POP DUP2 DUP2 SUB PUSH1 0x0 DUP4 ADD MSTORE PUSH2 0x80F DUP2 PUSH2 0x6E6 JUMP JUMPDEST SWAP1 POP SWAP2 SWAP1 POP JUMP JUMPDEST PUSH1 0x0 PUSH1 0x20 DUP3 ADD SWAP1 POP DUP2 DUP2 SUB PUSH1 0x0 DUP4 ADD MSTORE PUSH2 0x82F DUP2 PUSH2 0x709 JUMP JUMPDEST SWAP1 POP SWAP2 SWAP1 POP JUMP JUMPDEST PUSH1 0x0 DUP3 DUP3 MSTORE PUSH1 0x20 DUP3 ADD SWAP1 POP SWAP3 SWAP2 POP POP JUMP JUMPDEST PUSH1 0x0 PUSH2 0x852 DUP3 PUSH2 0x865 JUMP JUMPDEST SWAP1 POP SWAP2 SWAP1 POP JUMP JUMPDEST PUSH1 0x0 DUP2 ISZERO ISZERO SWAP1 POP SWAP2 SWAP1 POP JUMP JUMPDEST PUSH1 0x0 PUSH20 0xFFFFFFFFFFFFFFFFFFFFFFFFFFFFFFFFFFFFFFFF DUP3 AND SWAP1 POP SWAP2 SWAP1 POP JUMP JUMPDEST PUSH1 0x0 DUP2 SWAP1 POP SWAP2 SWAP1 POP JUMP JUMPDEST PUSH1 0x0 PUSH2 0x89A DUP3 PUSH2 0x8A1 JUMP JUMPDEST SWAP1 POP SWAP2 SWAP1 POP JUMP JUMPDEST PUSH1 0x0 PUSH2 0x8AC DUP3 PUSH2 0x8B3 JUMP JUMPDEST SWAP1 POP SWAP2 SWAP1 POP JUMP JUMPDEST PUSH1 0x0 PUSH2 0x8BE DUP3 PUSH2 0x865 JUMP JUMPDEST SWAP1 POP SWAP2 SWAP1 POP JUMP JUMPDEST PUSH1 0x0 DUP1 REVERT JUMPDEST PUSH32 0x546F6B656E20616C6C6F7720546F20746F6F206C6F7700000000000000000000 PUSH1 0x0 DUP3 ADD MSTORE POP JUMP JUMPDEST PUSH32 0x546F6B656E20616C6C6F772046726F6D20746F6F206C6F770000000000000000 PUSH1 0x0 DUP3 ADD MSTORE POP JUMP JUMPDEST PUSH32 0x546F6B656E207472616E73666572206661696C65640000000000000000000000 PUSH1 0x0 DUP3 ADD MSTORE POP JUMP JUMPDEST PUSH32 0x416464726573732073776170206E6F742076616C696400000000000000000000 PUSH1 0x0 DUP3 ADD MSTORE POP JUMP JUMPDEST PUSH2 0x977 DUP2 PUSH2 0x847 JUMP JUMPDEST DUP2 EQ PUSH2 0x982 JUMPI PUSH1 0x0 DUP1 REVERT JUMPDEST POP JUMP JUMPDEST PUSH2 0x98E DUP2 PUSH2 0x859 JUMP JUMPDEST DUP2 EQ PUSH2 0x999 JUMPI PUSH1 0x0 DUP1 REVERT JUMPDEST POP JUMP JUMPDEST PUSH2 0x9A5 DUP2 PUSH2 0x885 JUMP JUMPDEST DUP2 EQ PUSH2 0x9B0 JUMPI PUSH1 0x0 DUP1 REVERT JUMPDEST POP JUMP INVALID LOG2 PUSH5 0x6970667358 0x22 SLT KECCAK256 0x5F 0xBC 0x49 0x1F LT LOG4 0x24 0xBE 0xE6 PUSH5 0x24ABFDC345 PUSH12 0x91568AB40B8D8E3C3C846B4 0xC3 OR 0xCB PUSH14 0x64736F6C63430008070033000000 "
				},
				"gasEstimates": {
					"creation": {
						"codeDepositCost": "507400",
						"executionCost": "543",
						"totalCost": "507943"
					},
					"external": {
						"": "129",
						"swap(address,address,uint256,address,address,uint256)": "infinite",
						"tokenFrom()": "2575",
						"tokenTo()": "2622"
					},
					"internal": {
						"_safeTransferFrom(contract IERC20,address,address,uint256)": "infinite"
					}
				},
				"methodIdentifiers": {
					"swap(address,address,uint256,address,address,uint256)": "7ddf3320",
					"tokenFrom()": "7c153534",
					"tokenTo()": "c17b7326"
				}
			},
			"userdoc": {
				"kind": "user",
				"methods": {},
				"version": 1
			}
		}
	}
}