{
	"contracts/TokenSwap.sol": {
		"TokenSwap": {
			"abi": [
				{
					"inputs": [],
					"stateMutability": "nonpayable",
					"type": "constructor"
				},
				{
					"stateMutability": "payable",
					"type": "fallback"
				},
				{
					"inputs": [
						{
							"internalType": "address",
							"name": "_tokenFrom",
							"type": "address"
						},
						{
							"internalType": "uint256",
							"name": "_amountFrom",
							"type": "uint256"
						},
						{
							"internalType": "address",
							"name": "_tokenTo",
							"type": "address"
						},
						{
							"internalType": "uint256",
							"name": "_amountTo",
							"type": "uint256"
						}
					],
					"name": "swap",
					"outputs": [],
					"stateMutability": "nonpayable",
					"type": "function"
				},
				{
					"inputs": [],
					"name": "tokenFrom",
					"outputs": [
						{
							"internalType": "contract IERC20",
							"name": "",
							"type": "address"
						}
					],
					"stateMutability": "view",
					"type": "function"
				},
				{
					"inputs": [],
					"name": "tokenTo",
					"outputs": [
						{
							"internalType": "contract IERC20",
							"name": "",
							"type": "address"
						}
					],
					"stateMutability": "view",
					"type": "function"
				},
				{
					"stateMutability": "payable",
					"type": "receive"
				}
			],
			"devdoc": {
				"kind": "dev",
				"methods": {},
				"version": 1
			},
			"evm": {
				"assembly": "    /* \"contracts/TokenSwap.sol\":89:1371  contract TokenSwap {... */\n  mstore(0x40, 0x80)\n    /* \"contracts/TokenSwap.sol\":172:188  constructor() {} */\n  callvalue\n  dup1\n  iszero\n  tag_1\n  jumpi\n  0x00\n  dup1\n  revert\ntag_1:\n  pop\n    /* \"contracts/TokenSwap.sol\":89:1371  contract TokenSwap {... */\n  dataSize(sub_0)\n  dup1\n  dataOffset(sub_0)\n  0x00\n  codecopy\n  0x00\n  return\nstop\n\nsub_0: assembly {\n        /* \"contracts/TokenSwap.sol\":89:1371  contract TokenSwap {... */\n      mstore(0x40, 0x80)\n      jumpi(tag_1, lt(calldatasize, 0x04))\n      shr(0xe0, calldataload(0x00))\n      dup1\n      0x7c153534\n      eq\n      tag_3\n      jumpi\n      dup1\n      0x8a0ccd56\n      eq\n      tag_4\n      jumpi\n      dup1\n      0xc17b7326\n      eq\n      tag_5\n      jumpi\n      jump(tag_2)\n    tag_1:\n      jumpi(tag_2, calldatasize)\n      stop\n    tag_2:\n      stop\n        /* \"contracts/TokenSwap.sol\":115:138  IERC20 public tokenFrom */\n    tag_3:\n      callvalue\n      dup1\n      iszero\n      tag_10\n      jumpi\n      0x00\n      dup1\n      revert\n    tag_10:\n      pop\n      tag_11\n      tag_12\n      jump\t// in\n    tag_11:\n      mload(0x40)\n      tag_13\n      swap2\n      swap1\n      tag_14\n      jump\t// in\n    tag_13:\n      mload(0x40)\n      dup1\n      swap2\n      sub\n      swap1\n      return\n        /* \"contracts/TokenSwap.sol\":194:812  function swap(... */\n    tag_4:\n      callvalue\n      dup1\n      iszero\n      tag_15\n      jumpi\n      0x00\n      dup1\n      revert\n    tag_15:\n      pop\n      tag_16\n      0x04\n      dup1\n      calldatasize\n      sub\n      dup2\n      add\n      swap1\n      tag_17\n      swap2\n      swap1\n      tag_18\n      jump\t// in\n    tag_17:\n      tag_19\n      jump\t// in\n    tag_16:\n      stop\n        /* \"contracts/TokenSwap.sol\":144:165  IERC20 public tokenTo */\n    tag_5:\n      callvalue\n      dup1\n      iszero\n      tag_20\n      jumpi\n      0x00\n      dup1\n      revert\n    tag_20:\n      pop\n      tag_21\n      tag_22\n      jump\t// in\n    tag_21:\n      mload(0x40)\n      tag_23\n      swap2\n      swap1\n      tag_14\n      jump\t// in\n    tag_23:\n      mload(0x40)\n      dup1\n      swap2\n      sub\n      swap1\n      return\n        /* \"contracts/TokenSwap.sol\":115:138  IERC20 public tokenFrom */\n    tag_12:\n      0x00\n      dup1\n      sload\n      swap1\n      0x0100\n      exp\n      swap1\n      div\n      0xffffffffffffffffffffffffffffffffffffffff\n      and\n      dup2\n      jump\t// out\n        /* \"contracts/TokenSwap.sol\":194:812  function swap(... */\n    tag_19:\n        /* \"contracts/TokenSwap.sol\":331:351  address _addressSwap */\n      0x00\n        /* \"contracts/TokenSwap.sol\":354:364  msg.sender */\n      caller\n        /* \"contracts/TokenSwap.sol\":331:364  address _addressSwap = msg.sender */\n      swap1\n      pop\n        /* \"contracts/TokenSwap.sol\":393:403  _tokenFrom */\n      dup5\n        /* \"contracts/TokenSwap.sol\":374:383  tokenFrom */\n      0x00\n      dup1\n        /* \"contracts/TokenSwap.sol\":374:404  tokenFrom = IERC20(_tokenFrom) */\n      0x0100\n      exp\n      dup2\n      sload\n      dup2\n      0xffffffffffffffffffffffffffffffffffffffff\n      mul\n      not\n      and\n      swap1\n      dup4\n      0xffffffffffffffffffffffffffffffffffffffff\n      and\n      mul\n      or\n      swap1\n      sstore\n      pop\n        /* \"contracts/TokenSwap.sol\":431:439  _tokenTo */\n      dup3\n        /* \"contracts/TokenSwap.sol\":414:421  tokenTo */\n      0x01\n      0x00\n        /* \"contracts/TokenSwap.sol\":414:440  tokenTo = IERC20(_tokenTo) */\n      0x0100\n      exp\n      dup2\n      sload\n      dup2\n      0xffffffffffffffffffffffffffffffffffffffff\n      mul\n      not\n      and\n      swap1\n      dup4\n      0xffffffffffffffffffffffffffffffffffffffff\n      and\n      mul\n      or\n      swap1\n      sstore\n      pop\n        /* \"contracts/TokenSwap.sol\":512:523  _amountFrom */\n      dup4\n        /* \"contracts/TokenSwap.sol\":459:468  tokenFrom */\n      0x00\n      dup1\n      sload\n      swap1\n      0x0100\n      exp\n      swap1\n      div\n      0xffffffffffffffffffffffffffffffffffffffff\n      and\n        /* \"contracts/TokenSwap.sol\":459:478  tokenFrom.allowance */\n      0xffffffffffffffffffffffffffffffffffffffff\n      and\n      0xdd62ed3e\n        /* \"contracts/TokenSwap.sol\":479:491  _addressSwap */\n      dup4\n        /* \"contracts/TokenSwap.sol\":502:506  this */\n      address\n        /* \"contracts/TokenSwap.sol\":459:508  tokenFrom.allowance(_addressSwap, address (this)) */\n      mload(0x40)\n      dup4\n      0xffffffff\n      and\n      0xe0\n      shl\n      dup2\n      mstore\n      0x04\n      add\n      tag_25\n      swap3\n      swap2\n      swap1\n      tag_26\n      jump\t// in\n    tag_25:\n      0x20\n      mload(0x40)\n      dup1\n      dup4\n      sub\n      dup2\n      dup7\n      dup1\n      extcodesize\n      iszero\n      dup1\n      iszero\n      tag_27\n      jumpi\n      0x00\n      dup1\n      revert\n    tag_27:\n      pop\n      gas\n      staticcall\n      iszero\n      dup1\n      iszero\n      tag_29\n      jumpi\n      returndatasize\n      0x00\n      dup1\n      returndatacopy\n      revert(0x00, returndatasize)\n    tag_29:\n      pop\n      pop\n      pop\n      pop\n      mload(0x40)\n      returndatasize\n      not(0x1f)\n      0x1f\n      dup3\n      add\n      and\n      dup3\n      add\n      dup1\n      0x40\n      mstore\n      pop\n      dup2\n      add\n      swap1\n      tag_30\n      swap2\n      swap1\n      tag_31\n      jump\t// in\n    tag_30:\n        /* \"contracts/TokenSwap.sol\":459:523  tokenFrom.allowance(_addressSwap, address (this)) >= _amountFrom */\n      lt\n      iszero\n        /* \"contracts/TokenSwap.sol\":451:551  require(tokenFrom.allowance(_addressSwap, address (this)) >= _amountFrom, \"Allow tokenFrom too low\") */\n      tag_32\n      jumpi\n      mload(0x40)\n      0x08c379a000000000000000000000000000000000000000000000000000000000\n      dup2\n      mstore\n      0x04\n      add\n      tag_33\n      swap1\n      tag_34\n      jump\t// in\n    tag_33:\n      mload(0x40)\n      dup1\n      swap2\n      sub\n      swap1\n      revert\n    tag_32:\n        /* \"contracts/TokenSwap.sol\":605:614  _amountTo */\n      dup2\n        /* \"contracts/TokenSwap.sol\":569:576  tokenTo */\n      0x01\n      0x00\n      swap1\n      sload\n      swap1\n      0x0100\n      exp\n      swap1\n      div\n      0xffffffffffffffffffffffffffffffffffffffff\n      and\n        /* \"contracts/TokenSwap.sol\":569:586  tokenTo.balanceOf */\n      0xffffffffffffffffffffffffffffffffffffffff\n      and\n      0x70a08231\n        /* \"contracts/TokenSwap.sol\":595:599  this */\n      address\n        /* \"contracts/TokenSwap.sol\":569:601  tokenTo.balanceOf(address(this)) */\n      mload(0x40)\n      dup3\n      0xffffffff\n      and\n      0xe0\n      shl\n      dup2\n      mstore\n      0x04\n      add\n      tag_35\n      swap2\n      swap1\n      tag_36\n      jump\t// in\n    tag_35:\n      0x20\n      mload(0x40)\n      dup1\n      dup4\n      sub\n      dup2\n      dup7\n      dup1\n      extcodesize\n      iszero\n      dup1\n      iszero\n      tag_37\n      jumpi\n      0x00\n      dup1\n      revert\n    tag_37:\n      pop\n      gas\n      staticcall\n      iszero\n      dup1\n      iszero\n      tag_39\n      jumpi\n      returndatasize\n      0x00\n      dup1\n      returndatacopy\n      revert(0x00, returndatasize)\n    tag_39:\n      pop\n      pop\n      pop\n      pop\n      mload(0x40)\n      returndatasize\n      not(0x1f)\n      0x1f\n      dup3\n      add\n      and\n      dup3\n      add\n      dup1\n      0x40\n      mstore\n      pop\n      dup2\n      add\n      swap1\n      tag_40\n      swap2\n      swap1\n      tag_31\n      jump\t// in\n    tag_40:\n        /* \"contracts/TokenSwap.sol\":569:614  tokenTo.balanceOf(address(this)) >= _amountTo */\n      lt\n      iszero\n        /* \"contracts/TokenSwap.sol\":561:667  require(tokenTo.balanceOf(address(this)) >= _amountTo, \"Insufficient balance tokenTo to send back client\") */\n      tag_41\n      jumpi\n      mload(0x40)\n      0x08c379a000000000000000000000000000000000000000000000000000000000\n      dup2\n      mstore\n      0x04\n      add\n      tag_42\n      swap1\n      tag_43\n      jump\t// in\n    tag_42:\n      mload(0x40)\n      dup1\n      swap2\n      sub\n      swap1\n      revert\n    tag_41:\n        /* \"contracts/TokenSwap.sol\":678:748  _safeTransferFrom(tokenFrom, _addressSwap, address(this), _amountFrom) */\n      tag_44\n        /* \"contracts/TokenSwap.sol\":696:705  tokenFrom */\n      0x00\n      dup1\n      sload\n      swap1\n      0x0100\n      exp\n      swap1\n      div\n      0xffffffffffffffffffffffffffffffffffffffff\n      and\n        /* \"contracts/TokenSwap.sol\":707:719  _addressSwap */\n      dup3\n        /* \"contracts/TokenSwap.sol\":729:733  this */\n      address\n        /* \"contracts/TokenSwap.sol\":736:747  _amountFrom */\n      dup8\n        /* \"contracts/TokenSwap.sol\":678:695  _safeTransferFrom */\n      tag_45\n        /* \"contracts/TokenSwap.sol\":678:748  _safeTransferFrom(tokenFrom, _addressSwap, address(this), _amountFrom) */\n      jump\t// in\n    tag_44:\n        /* \"contracts/TokenSwap.sol\":758:805  _safeTransfer(tokenTo, _addressSwap, _amountTo) */\n      tag_46\n        /* \"contracts/TokenSwap.sol\":772:779  tokenTo */\n      0x01\n      0x00\n      swap1\n      sload\n      swap1\n      0x0100\n      exp\n      swap1\n      div\n      0xffffffffffffffffffffffffffffffffffffffff\n      and\n        /* \"contracts/TokenSwap.sol\":781:793  _addressSwap */\n      dup3\n        /* \"contracts/TokenSwap.sol\":795:804  _amountTo */\n      dup5\n        /* \"contracts/TokenSwap.sol\":758:771  _safeTransfer */\n      tag_47\n        /* \"contracts/TokenSwap.sol\":758:805  _safeTransfer(tokenTo, _addressSwap, _amountTo) */\n      jump\t// in\n    tag_46:\n        /* \"contracts/TokenSwap.sol\":320:812  {... */\n      pop\n        /* \"contracts/TokenSwap.sol\":194:812  function swap(... */\n      pop\n      pop\n      pop\n      pop\n      jump\t// out\n        /* \"contracts/TokenSwap.sol\":144:165  IERC20 public tokenTo */\n    tag_22:\n      0x01\n      0x00\n      swap1\n      sload\n      swap1\n      0x0100\n      exp\n      swap1\n      div\n      0xffffffffffffffffffffffffffffffffffffffff\n      and\n      dup2\n      jump\t// out\n        /* \"contracts/TokenSwap.sol\":818:1075  function _safeTransferFrom(... */\n    tag_45:\n        /* \"contracts/TokenSwap.sol\":963:972  bool sent */\n      0x00\n        /* \"contracts/TokenSwap.sol\":975:980  token */\n      dup5\n        /* \"contracts/TokenSwap.sol\":975:993  token.transferFrom */\n      0xffffffffffffffffffffffffffffffffffffffff\n      and\n      0x23b872dd\n        /* \"contracts/TokenSwap.sol\":994:1000  sender */\n      dup6\n        /* \"contracts/TokenSwap.sol\":1002:1011  recipient */\n      dup6\n        /* \"contracts/TokenSwap.sol\":1013:1019  amount */\n      dup6\n        /* \"contracts/TokenSwap.sol\":975:1020  token.transferFrom(sender, recipient, amount) */\n      mload(0x40)\n      dup5\n      0xffffffff\n      and\n      0xe0\n      shl\n      dup2\n      mstore\n      0x04\n      add\n      tag_49\n      swap4\n      swap3\n      swap2\n      swap1\n      tag_50\n      jump\t// in\n    tag_49:\n      0x20\n      mload(0x40)\n      dup1\n      dup4\n      sub\n      dup2\n      0x00\n      dup8\n      dup1\n      extcodesize\n      iszero\n      dup1\n      iszero\n      tag_51\n      jumpi\n      0x00\n      dup1\n      revert\n    tag_51:\n      pop\n      gas\n      call\n      iszero\n      dup1\n      iszero\n      tag_53\n      jumpi\n      returndatasize\n      0x00\n      dup1\n      returndatacopy\n      revert(0x00, returndatasize)\n    tag_53:\n      pop\n      pop\n      pop\n      pop\n      mload(0x40)\n      returndatasize\n      not(0x1f)\n      0x1f\n      dup3\n      add\n      and\n      dup3\n      add\n      dup1\n      0x40\n      mstore\n      pop\n      dup2\n      add\n      swap1\n      tag_54\n      swap2\n      swap1\n      tag_55\n      jump\t// in\n    tag_54:\n        /* \"contracts/TokenSwap.sol\":963:1020  bool sent = token.transferFrom(sender, recipient, amount) */\n      swap1\n      pop\n        /* \"contracts/TokenSwap.sol\":1038:1042  sent */\n      dup1\n        /* \"contracts/TokenSwap.sol\":1030:1068  require(sent, \"Token transfer failed\") */\n      tag_56\n      jumpi\n      mload(0x40)\n      0x08c379a000000000000000000000000000000000000000000000000000000000\n      dup2\n      mstore\n      0x04\n      add\n      tag_57\n      swap1\n      tag_58\n      jump\t// in\n    tag_57:\n      mload(0x40)\n      dup1\n      swap2\n      sub\n      swap1\n      revert\n    tag_56:\n        /* \"contracts/TokenSwap.sol\":953:1075  {... */\n      pop\n        /* \"contracts/TokenSwap.sol\":818:1075  function _safeTransferFrom(... */\n      pop\n      pop\n      pop\n      pop\n      jump\t// out\n        /* \"contracts/TokenSwap.sol\":1081:1298  function _safeTransfer(... */\n    tag_47:\n        /* \"contracts/TokenSwap.sol\":1198:1207  bool sent */\n      0x00\n        /* \"contracts/TokenSwap.sol\":1210:1215  token */\n      dup4\n        /* \"contracts/TokenSwap.sol\":1210:1224  token.transfer */\n      0xffffffffffffffffffffffffffffffffffffffff\n      and\n      0xa9059cbb\n        /* \"contracts/TokenSwap.sol\":1225:1234  recipient */\n      dup5\n        /* \"contracts/TokenSwap.sol\":1236:1242  amount */\n      dup5\n        /* \"contracts/TokenSwap.sol\":1210:1243  token.transfer(recipient, amount) */\n      mload(0x40)\n      dup4\n      0xffffffff\n      and\n      0xe0\n      shl\n      dup2\n      mstore\n      0x04\n      add\n      tag_60\n      swap3\n      swap2\n      swap1\n      tag_61\n      jump\t// in\n    tag_60:\n      0x20\n      mload(0x40)\n      dup1\n      dup4\n      sub\n      dup2\n      0x00\n      dup8\n      dup1\n      extcodesize\n      iszero\n      dup1\n      iszero\n      tag_62\n      jumpi\n      0x00\n      dup1\n      revert\n    tag_62:\n      pop\n      gas\n      call\n      iszero\n      dup1\n      iszero\n      tag_64\n      jumpi\n      returndatasize\n      0x00\n      dup1\n      returndatacopy\n      revert(0x00, returndatasize)\n    tag_64:\n      pop\n      pop\n      pop\n      pop\n      mload(0x40)\n      returndatasize\n      not(0x1f)\n      0x1f\n      dup3\n      add\n      and\n      dup3\n      add\n      dup1\n      0x40\n      mstore\n      pop\n      dup2\n      add\n      swap1\n      tag_65\n      swap2\n      swap1\n      tag_55\n      jump\t// in\n    tag_65:\n        /* \"contracts/TokenSwap.sol\":1198:1243  bool sent = token.transfer(recipient, amount) */\n      swap1\n      pop\n        /* \"contracts/TokenSwap.sol\":1261:1265  sent */\n      dup1\n        /* \"contracts/TokenSwap.sol\":1253:1291  require(sent, \"Token transfer failed\") */\n      tag_66\n      jumpi\n      mload(0x40)\n      0x08c379a000000000000000000000000000000000000000000000000000000000\n      dup2\n      mstore\n      0x04\n      add\n      tag_67\n      swap1\n      tag_58\n      jump\t// in\n    tag_67:\n      mload(0x40)\n      dup1\n      swap2\n      sub\n      swap1\n      revert\n    tag_66:\n        /* \"contracts/TokenSwap.sol\":1188:1298  {... */\n      pop\n        /* \"contracts/TokenSwap.sol\":1081:1298  function _safeTransfer(... */\n      pop\n      pop\n      pop\n      jump\t// out\n        /* \"#utility.yul\":7:146   */\n    tag_69:\n        /* \"#utility.yul\":53:58   */\n      0x00\n        /* \"#utility.yul\":91:97   */\n      dup2\n        /* \"#utility.yul\":78:98   */\n      calldataload\n        /* \"#utility.yul\":69:98   */\n      swap1\n      pop\n        /* \"#utility.yul\":107:140   */\n      tag_71\n        /* \"#utility.yul\":134:139   */\n      dup2\n        /* \"#utility.yul\":107:140   */\n      tag_72\n      jump\t// in\n    tag_71:\n        /* \"#utility.yul\":7:146   */\n      swap3\n      swap2\n      pop\n      pop\n      jump\t// out\n        /* \"#utility.yul\":152:289   */\n    tag_73:\n        /* \"#utility.yul\":206:211   */\n      0x00\n        /* \"#utility.yul\":237:243   */\n      dup2\n        /* \"#utility.yul\":231:244   */\n      mload\n        /* \"#utility.yul\":222:244   */\n      swap1\n      pop\n        /* \"#utility.yul\":253:283   */\n      tag_75\n        /* \"#utility.yul\":277:282   */\n      dup2\n        /* \"#utility.yul\":253:283   */\n      tag_76\n      jump\t// in\n    tag_75:\n        /* \"#utility.yul\":152:289   */\n      swap3\n      swap2\n      pop\n      pop\n      jump\t// out\n        /* \"#utility.yul\":295:434   */\n    tag_77:\n        /* \"#utility.yul\":341:346   */\n      0x00\n        /* \"#utility.yul\":379:385   */\n      dup2\n        /* \"#utility.yul\":366:386   */\n      calldataload\n        /* \"#utility.yul\":357:386   */\n      swap1\n      pop\n        /* \"#utility.yul\":395:428   */\n      tag_79\n        /* \"#utility.yul\":422:427   */\n      dup2\n        /* \"#utility.yul\":395:428   */\n      tag_80\n      jump\t// in\n    tag_79:\n        /* \"#utility.yul\":295:434   */\n      swap3\n      swap2\n      pop\n      pop\n      jump\t// out\n        /* \"#utility.yul\":440:583   */\n    tag_81:\n        /* \"#utility.yul\":497:502   */\n      0x00\n        /* \"#utility.yul\":528:534   */\n      dup2\n        /* \"#utility.yul\":522:535   */\n      mload\n        /* \"#utility.yul\":513:535   */\n      swap1\n      pop\n        /* \"#utility.yul\":544:577   */\n      tag_83\n        /* \"#utility.yul\":571:576   */\n      dup2\n        /* \"#utility.yul\":544:577   */\n      tag_80\n      jump\t// in\n    tag_83:\n        /* \"#utility.yul\":440:583   */\n      swap3\n      swap2\n      pop\n      pop\n      jump\t// out\n        /* \"#utility.yul\":589:1354   */\n    tag_18:\n        /* \"#utility.yul\":675:681   */\n      0x00\n        /* \"#utility.yul\":683:689   */\n      dup1\n        /* \"#utility.yul\":691:697   */\n      0x00\n        /* \"#utility.yul\":699:705   */\n      dup1\n        /* \"#utility.yul\":748:751   */\n      0x80\n        /* \"#utility.yul\":736:745   */\n      dup6\n        /* \"#utility.yul\":727:734   */\n      dup8\n        /* \"#utility.yul\":723:746   */\n      sub\n        /* \"#utility.yul\":719:752   */\n      slt\n        /* \"#utility.yul\":716:836   */\n      iszero\n      tag_85\n      jumpi\n        /* \"#utility.yul\":755:834   */\n      tag_86\n      tag_87\n      jump\t// in\n    tag_86:\n        /* \"#utility.yul\":716:836   */\n    tag_85:\n        /* \"#utility.yul\":875:876   */\n      0x00\n        /* \"#utility.yul\":900:953   */\n      tag_88\n        /* \"#utility.yul\":945:952   */\n      dup8\n        /* \"#utility.yul\":936:942   */\n      dup3\n        /* \"#utility.yul\":925:934   */\n      dup9\n        /* \"#utility.yul\":921:943   */\n      add\n        /* \"#utility.yul\":900:953   */\n      tag_69\n      jump\t// in\n    tag_88:\n        /* \"#utility.yul\":890:953   */\n      swap5\n      pop\n        /* \"#utility.yul\":846:963   */\n      pop\n        /* \"#utility.yul\":1002:1004   */\n      0x20\n        /* \"#utility.yul\":1028:1081   */\n      tag_89\n        /* \"#utility.yul\":1073:1080   */\n      dup8\n        /* \"#utility.yul\":1064:1070   */\n      dup3\n        /* \"#utility.yul\":1053:1062   */\n      dup9\n        /* \"#utility.yul\":1049:1071   */\n      add\n        /* \"#utility.yul\":1028:1081   */\n      tag_77\n      jump\t// in\n    tag_89:\n        /* \"#utility.yul\":1018:1081   */\n      swap4\n      pop\n        /* \"#utility.yul\":973:1091   */\n      pop\n        /* \"#utility.yul\":1130:1132   */\n      0x40\n        /* \"#utility.yul\":1156:1209   */\n      tag_90\n        /* \"#utility.yul\":1201:1208   */\n      dup8\n        /* \"#utility.yul\":1192:1198   */\n      dup3\n        /* \"#utility.yul\":1181:1190   */\n      dup9\n        /* \"#utility.yul\":1177:1199   */\n      add\n        /* \"#utility.yul\":1156:1209   */\n      tag_69\n      jump\t// in\n    tag_90:\n        /* \"#utility.yul\":1146:1209   */\n      swap3\n      pop\n        /* \"#utility.yul\":1101:1219   */\n      pop\n        /* \"#utility.yul\":1258:1260   */\n      0x60\n        /* \"#utility.yul\":1284:1337   */\n      tag_91\n        /* \"#utility.yul\":1329:1336   */\n      dup8\n        /* \"#utility.yul\":1320:1326   */\n      dup3\n        /* \"#utility.yul\":1309:1318   */\n      dup9\n        /* \"#utility.yul\":1305:1327   */\n      add\n        /* \"#utility.yul\":1284:1337   */\n      tag_77\n      jump\t// in\n    tag_91:\n        /* \"#utility.yul\":1274:1337   */\n      swap2\n      pop\n        /* \"#utility.yul\":1229:1347   */\n      pop\n        /* \"#utility.yul\":589:1354   */\n      swap3\n      swap6\n      swap2\n      swap5\n      pop\n      swap3\n      pop\n      jump\t// out\n        /* \"#utility.yul\":1360:1705   */\n    tag_55:\n        /* \"#utility.yul\":1427:1433   */\n      0x00\n        /* \"#utility.yul\":1476:1478   */\n      0x20\n        /* \"#utility.yul\":1464:1473   */\n      dup3\n        /* \"#utility.yul\":1455:1462   */\n      dup5\n        /* \"#utility.yul\":1451:1474   */\n      sub\n        /* \"#utility.yul\":1447:1479   */\n      slt\n        /* \"#utility.yul\":1444:1563   */\n      iszero\n      tag_93\n      jumpi\n        /* \"#utility.yul\":1482:1561   */\n      tag_94\n      tag_87\n      jump\t// in\n    tag_94:\n        /* \"#utility.yul\":1444:1563   */\n    tag_93:\n        /* \"#utility.yul\":1602:1603   */\n      0x00\n        /* \"#utility.yul\":1627:1688   */\n      tag_95\n        /* \"#utility.yul\":1680:1687   */\n      dup5\n        /* \"#utility.yul\":1671:1677   */\n      dup3\n        /* \"#utility.yul\":1660:1669   */\n      dup6\n        /* \"#utility.yul\":1656:1678   */\n      add\n        /* \"#utility.yul\":1627:1688   */\n      tag_73\n      jump\t// in\n    tag_95:\n        /* \"#utility.yul\":1617:1688   */\n      swap2\n      pop\n        /* \"#utility.yul\":1573:1698   */\n      pop\n        /* \"#utility.yul\":1360:1705   */\n      swap3\n      swap2\n      pop\n      pop\n      jump\t// out\n        /* \"#utility.yul\":1711:2062   */\n    tag_31:\n        /* \"#utility.yul\":1781:1787   */\n      0x00\n        /* \"#utility.yul\":1830:1832   */\n      0x20\n        /* \"#utility.yul\":1818:1827   */\n      dup3\n        /* \"#utility.yul\":1809:1816   */\n      dup5\n        /* \"#utility.yul\":1805:1828   */\n      sub\n        /* \"#utility.yul\":1801:1833   */\n      slt\n        /* \"#utility.yul\":1798:1917   */\n      iszero\n      tag_97\n      jumpi\n        /* \"#utility.yul\":1836:1915   */\n      tag_98\n      tag_87\n      jump\t// in\n    tag_98:\n        /* \"#utility.yul\":1798:1917   */\n    tag_97:\n        /* \"#utility.yul\":1956:1957   */\n      0x00\n        /* \"#utility.yul\":1981:2045   */\n      tag_99\n        /* \"#utility.yul\":2037:2044   */\n      dup5\n        /* \"#utility.yul\":2028:2034   */\n      dup3\n        /* \"#utility.yul\":2017:2026   */\n      dup6\n        /* \"#utility.yul\":2013:2035   */\n      add\n        /* \"#utility.yul\":1981:2045   */\n      tag_81\n      jump\t// in\n    tag_99:\n        /* \"#utility.yul\":1971:2045   */\n      swap2\n      pop\n        /* \"#utility.yul\":1927:2055   */\n      pop\n        /* \"#utility.yul\":1711:2062   */\n      swap3\n      swap2\n      pop\n      pop\n      jump\t// out\n        /* \"#utility.yul\":2068:2186   */\n    tag_100:\n        /* \"#utility.yul\":2155:2179   */\n      tag_102\n        /* \"#utility.yul\":2173:2178   */\n      dup2\n        /* \"#utility.yul\":2155:2179   */\n      tag_103\n      jump\t// in\n    tag_102:\n        /* \"#utility.yul\":2150:2153   */\n      dup3\n        /* \"#utility.yul\":2143:2180   */\n      mstore\n        /* \"#utility.yul\":2068:2186   */\n      pop\n      pop\n      jump\t// out\n        /* \"#utility.yul\":2192:2349   */\n    tag_104:\n        /* \"#utility.yul\":2292:2342   */\n      tag_106\n        /* \"#utility.yul\":2336:2341   */\n      dup2\n        /* \"#utility.yul\":2292:2342   */\n      tag_107\n      jump\t// in\n    tag_106:\n        /* \"#utility.yul\":2287:2290   */\n      dup3\n        /* \"#utility.yul\":2280:2343   */\n      mstore\n        /* \"#utility.yul\":2192:2349   */\n      pop\n      pop\n      jump\t// out\n        /* \"#utility.yul\":2355:2721   */\n    tag_108:\n        /* \"#utility.yul\":2497:2500   */\n      0x00\n        /* \"#utility.yul\":2518:2585   */\n      tag_110\n        /* \"#utility.yul\":2582:2584   */\n      0x30\n        /* \"#utility.yul\":2577:2580   */\n      dup4\n        /* \"#utility.yul\":2518:2585   */\n      tag_111\n      jump\t// in\n    tag_110:\n        /* \"#utility.yul\":2511:2585   */\n      swap2\n      pop\n        /* \"#utility.yul\":2594:2687   */\n      tag_112\n        /* \"#utility.yul\":2683:2686   */\n      dup3\n        /* \"#utility.yul\":2594:2687   */\n      tag_113\n      jump\t// in\n    tag_112:\n        /* \"#utility.yul\":2712:2714   */\n      0x40\n        /* \"#utility.yul\":2707:2710   */\n      dup3\n        /* \"#utility.yul\":2703:2715   */\n      add\n        /* \"#utility.yul\":2696:2715   */\n      swap1\n      pop\n        /* \"#utility.yul\":2355:2721   */\n      swap2\n      swap1\n      pop\n      jump\t// out\n        /* \"#utility.yul\":2727:3093   */\n    tag_114:\n        /* \"#utility.yul\":2869:2872   */\n      0x00\n        /* \"#utility.yul\":2890:2957   */\n      tag_116\n        /* \"#utility.yul\":2954:2956   */\n      0x15\n        /* \"#utility.yul\":2949:2952   */\n      dup4\n        /* \"#utility.yul\":2890:2957   */\n      tag_111\n      jump\t// in\n    tag_116:\n        /* \"#utility.yul\":2883:2957   */\n      swap2\n      pop\n        /* \"#utility.yul\":2966:3059   */\n      tag_117\n        /* \"#utility.yul\":3055:3058   */\n      dup3\n        /* \"#utility.yul\":2966:3059   */\n      tag_118\n      jump\t// in\n    tag_117:\n        /* \"#utility.yul\":3084:3086   */\n      0x20\n        /* \"#utility.yul\":3079:3082   */\n      dup3\n        /* \"#utility.yul\":3075:3087   */\n      add\n        /* \"#utility.yul\":3068:3087   */\n      swap1\n      pop\n        /* \"#utility.yul\":2727:3093   */\n      swap2\n      swap1\n      pop\n      jump\t// out\n        /* \"#utility.yul\":3099:3465   */\n    tag_119:\n        /* \"#utility.yul\":3241:3244   */\n      0x00\n        /* \"#utility.yul\":3262:3329   */\n      tag_121\n        /* \"#utility.yul\":3326:3328   */\n      0x17\n        /* \"#utility.yul\":3321:3324   */\n      dup4\n        /* \"#utility.yul\":3262:3329   */\n      tag_111\n      jump\t// in\n    tag_121:\n        /* \"#utility.yul\":3255:3329   */\n      swap2\n      pop\n        /* \"#utility.yul\":3338:3431   */\n      tag_122\n        /* \"#utility.yul\":3427:3430   */\n      dup3\n        /* \"#utility.yul\":3338:3431   */\n      tag_123\n      jump\t// in\n    tag_122:\n        /* \"#utility.yul\":3456:3458   */\n      0x20\n        /* \"#utility.yul\":3451:3454   */\n      dup3\n        /* \"#utility.yul\":3447:3459   */\n      add\n        /* \"#utility.yul\":3440:3459   */\n      swap1\n      pop\n        /* \"#utility.yul\":3099:3465   */\n      swap2\n      swap1\n      pop\n      jump\t// out\n        /* \"#utility.yul\":3471:3589   */\n    tag_124:\n        /* \"#utility.yul\":3558:3582   */\n      tag_126\n        /* \"#utility.yul\":3576:3581   */\n      dup2\n        /* \"#utility.yul\":3558:3582   */\n      tag_127\n      jump\t// in\n    tag_126:\n        /* \"#utility.yul\":3553:3556   */\n      dup3\n        /* \"#utility.yul\":3546:3583   */\n      mstore\n        /* \"#utility.yul\":3471:3589   */\n      pop\n      pop\n      jump\t// out\n        /* \"#utility.yul\":3595:3817   */\n    tag_36:\n        /* \"#utility.yul\":3688:3692   */\n      0x00\n        /* \"#utility.yul\":3726:3728   */\n      0x20\n        /* \"#utility.yul\":3715:3724   */\n      dup3\n        /* \"#utility.yul\":3711:3729   */\n      add\n        /* \"#utility.yul\":3703:3729   */\n      swap1\n      pop\n        /* \"#utility.yul\":3739:3810   */\n      tag_129\n        /* \"#utility.yul\":3807:3808   */\n      0x00\n        /* \"#utility.yul\":3796:3805   */\n      dup4\n        /* \"#utility.yul\":3792:3809   */\n      add\n        /* \"#utility.yul\":3783:3789   */\n      dup5\n        /* \"#utility.yul\":3739:3810   */\n      tag_100\n      jump\t// in\n    tag_129:\n        /* \"#utility.yul\":3595:3817   */\n      swap3\n      swap2\n      pop\n      pop\n      jump\t// out\n        /* \"#utility.yul\":3823:4155   */\n    tag_26:\n        /* \"#utility.yul\":3944:3948   */\n      0x00\n        /* \"#utility.yul\":3982:3984   */\n      0x40\n        /* \"#utility.yul\":3971:3980   */\n      dup3\n        /* \"#utility.yul\":3967:3985   */\n      add\n        /* \"#utility.yul\":3959:3985   */\n      swap1\n      pop\n        /* \"#utility.yul\":3995:4066   */\n      tag_131\n        /* \"#utility.yul\":4063:4064   */\n      0x00\n        /* \"#utility.yul\":4052:4061   */\n      dup4\n        /* \"#utility.yul\":4048:4065   */\n      add\n        /* \"#utility.yul\":4039:4045   */\n      dup6\n        /* \"#utility.yul\":3995:4066   */\n      tag_100\n      jump\t// in\n    tag_131:\n        /* \"#utility.yul\":4076:4148   */\n      tag_132\n        /* \"#utility.yul\":4144:4146   */\n      0x20\n        /* \"#utility.yul\":4133:4142   */\n      dup4\n        /* \"#utility.yul\":4129:4147   */\n      add\n        /* \"#utility.yul\":4120:4126   */\n      dup5\n        /* \"#utility.yul\":4076:4148   */\n      tag_100\n      jump\t// in\n    tag_132:\n        /* \"#utility.yul\":3823:4155   */\n      swap4\n      swap3\n      pop\n      pop\n      pop\n      jump\t// out\n        /* \"#utility.yul\":4161:4603   */\n    tag_50:\n        /* \"#utility.yul\":4310:4314   */\n      0x00\n        /* \"#utility.yul\":4348:4350   */\n      0x60\n        /* \"#utility.yul\":4337:4346   */\n      dup3\n        /* \"#utility.yul\":4333:4351   */\n      add\n        /* \"#utility.yul\":4325:4351   */\n      swap1\n      pop\n        /* \"#utility.yul\":4361:4432   */\n      tag_134\n        /* \"#utility.yul\":4429:4430   */\n      0x00\n        /* \"#utility.yul\":4418:4427   */\n      dup4\n        /* \"#utility.yul\":4414:4431   */\n      add\n        /* \"#utility.yul\":4405:4411   */\n      dup7\n        /* \"#utility.yul\":4361:4432   */\n      tag_100\n      jump\t// in\n    tag_134:\n        /* \"#utility.yul\":4442:4514   */\n      tag_135\n        /* \"#utility.yul\":4510:4512   */\n      0x20\n        /* \"#utility.yul\":4499:4508   */\n      dup4\n        /* \"#utility.yul\":4495:4513   */\n      add\n        /* \"#utility.yul\":4486:4492   */\n      dup6\n        /* \"#utility.yul\":4442:4514   */\n      tag_100\n      jump\t// in\n    tag_135:\n        /* \"#utility.yul\":4524:4596   */\n      tag_136\n        /* \"#utility.yul\":4592:4594   */\n      0x40\n        /* \"#utility.yul\":4581:4590   */\n      dup4\n        /* \"#utility.yul\":4577:4595   */\n      add\n        /* \"#utility.yul\":4568:4574   */\n      dup5\n        /* \"#utility.yul\":4524:4596   */\n      tag_124\n      jump\t// in\n    tag_136:\n        /* \"#utility.yul\":4161:4603   */\n      swap5\n      swap4\n      pop\n      pop\n      pop\n      pop\n      jump\t// out\n        /* \"#utility.yul\":4609:4941   */\n    tag_61:\n        /* \"#utility.yul\":4730:4734   */\n      0x00\n        /* \"#utility.yul\":4768:4770   */\n      0x40\n        /* \"#utility.yul\":4757:4766   */\n      dup3\n        /* \"#utility.yul\":4753:4771   */\n      add\n        /* \"#utility.yul\":4745:4771   */\n      swap1\n      pop\n        /* \"#utility.yul\":4781:4852   */\n      tag_138\n        /* \"#utility.yul\":4849:4850   */\n      0x00\n        /* \"#utility.yul\":4838:4847   */\n      dup4\n        /* \"#utility.yul\":4834:4851   */\n      add\n        /* \"#utility.yul\":4825:4831   */\n      dup6\n        /* \"#utility.yul\":4781:4852   */\n      tag_100\n      jump\t// in\n    tag_138:\n        /* \"#utility.yul\":4862:4934   */\n      tag_139\n        /* \"#utility.yul\":4930:4932   */\n      0x20\n        /* \"#utility.yul\":4919:4928   */\n      dup4\n        /* \"#utility.yul\":4915:4933   */\n      add\n        /* \"#utility.yul\":4906:4912   */\n      dup5\n        /* \"#utility.yul\":4862:4934   */\n      tag_124\n      jump\t// in\n    tag_139:\n        /* \"#utility.yul\":4609:4941   */\n      swap4\n      swap3\n      pop\n      pop\n      pop\n      jump\t// out\n        /* \"#utility.yul\":4947:5195   */\n    tag_14:\n        /* \"#utility.yul\":5053:5057   */\n      0x00\n        /* \"#utility.yul\":5091:5093   */\n      0x20\n        /* \"#utility.yul\":5080:5089   */\n      dup3\n        /* \"#utility.yul\":5076:5094   */\n      add\n        /* \"#utility.yul\":5068:5094   */\n      swap1\n      pop\n        /* \"#utility.yul\":5104:5188   */\n      tag_141\n        /* \"#utility.yul\":5185:5186   */\n      0x00\n        /* \"#utility.yul\":5174:5183   */\n      dup4\n        /* \"#utility.yul\":5170:5187   */\n      add\n        /* \"#utility.yul\":5161:5167   */\n      dup5\n        /* \"#utility.yul\":5104:5188   */\n      tag_104\n      jump\t// in\n    tag_141:\n        /* \"#utility.yul\":4947:5195   */\n      swap3\n      swap2\n      pop\n      pop\n      jump\t// out\n        /* \"#utility.yul\":5201:5620   */\n    tag_43:\n        /* \"#utility.yul\":5367:5371   */\n      0x00\n        /* \"#utility.yul\":5405:5407   */\n      0x20\n        /* \"#utility.yul\":5394:5403   */\n      dup3\n        /* \"#utility.yul\":5390:5408   */\n      add\n        /* \"#utility.yul\":5382:5408   */\n      swap1\n      pop\n        /* \"#utility.yul\":5454:5463   */\n      dup2\n        /* \"#utility.yul\":5448:5452   */\n      dup2\n        /* \"#utility.yul\":5444:5464   */\n      sub\n        /* \"#utility.yul\":5440:5441   */\n      0x00\n        /* \"#utility.yul\":5429:5438   */\n      dup4\n        /* \"#utility.yul\":5425:5442   */\n      add\n        /* \"#utility.yul\":5418:5465   */\n      mstore\n        /* \"#utility.yul\":5482:5613   */\n      tag_143\n        /* \"#utility.yul\":5608:5612   */\n      dup2\n        /* \"#utility.yul\":5482:5613   */\n      tag_108\n      jump\t// in\n    tag_143:\n        /* \"#utility.yul\":5474:5613   */\n      swap1\n      pop\n        /* \"#utility.yul\":5201:5620   */\n      swap2\n      swap1\n      pop\n      jump\t// out\n        /* \"#utility.yul\":5626:6045   */\n    tag_58:\n        /* \"#utility.yul\":5792:5796   */\n      0x00\n        /* \"#utility.yul\":5830:5832   */\n      0x20\n        /* \"#utility.yul\":5819:5828   */\n      dup3\n        /* \"#utility.yul\":5815:5833   */\n      add\n        /* \"#utility.yul\":5807:5833   */\n      swap1\n      pop\n        /* \"#utility.yul\":5879:5888   */\n      dup2\n        /* \"#utility.yul\":5873:5877   */\n      dup2\n        /* \"#utility.yul\":5869:5889   */\n      sub\n        /* \"#utility.yul\":5865:5866   */\n      0x00\n        /* \"#utility.yul\":5854:5863   */\n      dup4\n        /* \"#utility.yul\":5850:5867   */\n      add\n        /* \"#utility.yul\":5843:5890   */\n      mstore\n        /* \"#utility.yul\":5907:6038   */\n      tag_145\n        /* \"#utility.yul\":6033:6037   */\n      dup2\n        /* \"#utility.yul\":5907:6038   */\n      tag_114\n      jump\t// in\n    tag_145:\n        /* \"#utility.yul\":5899:6038   */\n      swap1\n      pop\n        /* \"#utility.yul\":5626:6045   */\n      swap2\n      swap1\n      pop\n      jump\t// out\n        /* \"#utility.yul\":6051:6470   */\n    tag_34:\n        /* \"#utility.yul\":6217:6221   */\n      0x00\n        /* \"#utility.yul\":6255:6257   */\n      0x20\n        /* \"#utility.yul\":6244:6253   */\n      dup3\n        /* \"#utility.yul\":6240:6258   */\n      add\n        /* \"#utility.yul\":6232:6258   */\n      swap1\n      pop\n        /* \"#utility.yul\":6304:6313   */\n      dup2\n        /* \"#utility.yul\":6298:6302   */\n      dup2\n        /* \"#utility.yul\":6294:6314   */\n      sub\n        /* \"#utility.yul\":6290:6291   */\n      0x00\n        /* \"#utility.yul\":6279:6288   */\n      dup4\n        /* \"#utility.yul\":6275:6292   */\n      add\n        /* \"#utility.yul\":6268:6315   */\n      mstore\n        /* \"#utility.yul\":6332:6463   */\n      tag_147\n        /* \"#utility.yul\":6458:6462   */\n      dup2\n        /* \"#utility.yul\":6332:6463   */\n      tag_119\n      jump\t// in\n    tag_147:\n        /* \"#utility.yul\":6324:6463   */\n      swap1\n      pop\n        /* \"#utility.yul\":6051:6470   */\n      swap2\n      swap1\n      pop\n      jump\t// out\n        /* \"#utility.yul\":6557:6726   */\n    tag_111:\n        /* \"#utility.yul\":6641:6652   */\n      0x00\n        /* \"#utility.yul\":6675:6681   */\n      dup3\n        /* \"#utility.yul\":6670:6673   */\n      dup3\n        /* \"#utility.yul\":6663:6682   */\n      mstore\n        /* \"#utility.yul\":6715:6719   */\n      0x20\n        /* \"#utility.yul\":6710:6713   */\n      dup3\n        /* \"#utility.yul\":6706:6720   */\n      add\n        /* \"#utility.yul\":6691:6720   */\n      swap1\n      pop\n        /* \"#utility.yul\":6557:6726   */\n      swap3\n      swap2\n      pop\n      pop\n      jump\t// out\n        /* \"#utility.yul\":6732:6828   */\n    tag_103:\n        /* \"#utility.yul\":6769:6776   */\n      0x00\n        /* \"#utility.yul\":6798:6822   */\n      tag_152\n        /* \"#utility.yul\":6816:6821   */\n      dup3\n        /* \"#utility.yul\":6798:6822   */\n      tag_153\n      jump\t// in\n    tag_152:\n        /* \"#utility.yul\":6787:6822   */\n      swap1\n      pop\n        /* \"#utility.yul\":6732:6828   */\n      swap2\n      swap1\n      pop\n      jump\t// out\n        /* \"#utility.yul\":6834:6924   */\n    tag_154:\n        /* \"#utility.yul\":6868:6875   */\n      0x00\n        /* \"#utility.yul\":6911:6916   */\n      dup2\n        /* \"#utility.yul\":6904:6917   */\n      iszero\n        /* \"#utility.yul\":6897:6918   */\n      iszero\n        /* \"#utility.yul\":6886:6918   */\n      swap1\n      pop\n        /* \"#utility.yul\":6834:6924   */\n      swap2\n      swap1\n      pop\n      jump\t// out\n        /* \"#utility.yul\":6930:7056   */\n    tag_153:\n        /* \"#utility.yul\":6967:6974   */\n      0x00\n        /* \"#utility.yul\":7007:7049   */\n      0xffffffffffffffffffffffffffffffffffffffff\n        /* \"#utility.yul\":7000:7005   */\n      dup3\n        /* \"#utility.yul\":6996:7050   */\n      and\n        /* \"#utility.yul\":6985:7050   */\n      swap1\n      pop\n        /* \"#utility.yul\":6930:7056   */\n      swap2\n      swap1\n      pop\n      jump\t// out\n        /* \"#utility.yul\":7062:7139   */\n    tag_127:\n        /* \"#utility.yul\":7099:7106   */\n      0x00\n        /* \"#utility.yul\":7128:7133   */\n      dup2\n        /* \"#utility.yul\":7117:7133   */\n      swap1\n      pop\n        /* \"#utility.yul\":7062:7139   */\n      swap2\n      swap1\n      pop\n      jump\t// out\n        /* \"#utility.yul\":7145:7284   */\n    tag_107:\n        /* \"#utility.yul\":7208:7217   */\n      0x00\n        /* \"#utility.yul\":7241:7278   */\n      tag_159\n        /* \"#utility.yul\":7272:7277   */\n      dup3\n        /* \"#utility.yul\":7241:7278   */\n      tag_160\n      jump\t// in\n    tag_159:\n        /* \"#utility.yul\":7228:7278   */\n      swap1\n      pop\n        /* \"#utility.yul\":7145:7284   */\n      swap2\n      swap1\n      pop\n      jump\t// out\n        /* \"#utility.yul\":7290:7416   */\n    tag_160:\n        /* \"#utility.yul\":7340:7349   */\n      0x00\n        /* \"#utility.yul\":7373:7410   */\n      tag_162\n        /* \"#utility.yul\":7404:7409   */\n      dup3\n        /* \"#utility.yul\":7373:7410   */\n      tag_163\n      jump\t// in\n    tag_162:\n        /* \"#utility.yul\":7360:7410   */\n      swap1\n      pop\n        /* \"#utility.yul\":7290:7416   */\n      swap2\n      swap1\n      pop\n      jump\t// out\n        /* \"#utility.yul\":7422:7535   */\n    tag_163:\n        /* \"#utility.yul\":7472:7481   */\n      0x00\n        /* \"#utility.yul\":7505:7529   */\n      tag_165\n        /* \"#utility.yul\":7523:7528   */\n      dup3\n        /* \"#utility.yul\":7505:7529   */\n      tag_153\n      jump\t// in\n    tag_165:\n        /* \"#utility.yul\":7492:7529   */\n      swap1\n      pop\n        /* \"#utility.yul\":7422:7535   */\n      swap2\n      swap1\n      pop\n      jump\t// out\n        /* \"#utility.yul\":7664:7781   */\n    tag_87:\n        /* \"#utility.yul\":7773:7774   */\n      0x00\n        /* \"#utility.yul\":7770:7771   */\n      dup1\n        /* \"#utility.yul\":7763:7775   */\n      revert\n        /* \"#utility.yul\":7787:8022   */\n    tag_113:\n        /* \"#utility.yul\":7927:7961   */\n      0x496e73756666696369656e742062616c616e636520746f6b656e546f20746f20\n        /* \"#utility.yul\":7923:7924   */\n      0x00\n        /* \"#utility.yul\":7915:7921   */\n      dup3\n        /* \"#utility.yul\":7911:7925   */\n      add\n        /* \"#utility.yul\":7904:7962   */\n      mstore\n        /* \"#utility.yul\":7996:8014   */\n      0x73656e64206261636b20636c69656e7400000000000000000000000000000000\n        /* \"#utility.yul\":7991:7993   */\n      0x20\n        /* \"#utility.yul\":7983:7989   */\n      dup3\n        /* \"#utility.yul\":7979:7994   */\n      add\n        /* \"#utility.yul\":7972:8015   */\n      mstore\n        /* \"#utility.yul\":7787:8022   */\n      pop\n      jump\t// out\n        /* \"#utility.yul\":8028:8199   */\n    tag_118:\n        /* \"#utility.yul\":8168:8191   */\n      0x546f6b656e207472616e73666572206661696c65640000000000000000000000\n        /* \"#utility.yul\":8164:8165   */\n      0x00\n        /* \"#utility.yul\":8156:8162   */\n      dup3\n        /* \"#utility.yul\":8152:8166   */\n      add\n        /* \"#utility.yul\":8145:8192   */\n      mstore\n        /* \"#utility.yul\":8028:8199   */\n      pop\n      jump\t// out\n        /* \"#utility.yul\":8205:8378   */\n    tag_123:\n        /* \"#utility.yul\":8345:8370   */\n      0x416c6c6f7720746f6b656e46726f6d20746f6f206c6f77000000000000000000\n        /* \"#utility.yul\":8341:8342   */\n      0x00\n        /* \"#utility.yul\":8333:8339   */\n      dup3\n        /* \"#utility.yul\":8329:8343   */\n      add\n        /* \"#utility.yul\":8322:8371   */\n      mstore\n        /* \"#utility.yul\":8205:8378   */\n      pop\n      jump\t// out\n        /* \"#utility.yul\":8384:8506   */\n    tag_72:\n        /* \"#utility.yul\":8457:8481   */\n      tag_173\n        /* \"#utility.yul\":8475:8480   */\n      dup2\n        /* \"#utility.yul\":8457:8481   */\n      tag_103\n      jump\t// in\n    tag_173:\n        /* \"#utility.yul\":8450:8455   */\n      dup2\n        /* \"#utility.yul\":8447:8482   */\n      eq\n        /* \"#utility.yul\":8437:8500   */\n      tag_174\n      jumpi\n        /* \"#utility.yul\":8496:8497   */\n      0x00\n        /* \"#utility.yul\":8493:8494   */\n      dup1\n        /* \"#utility.yul\":8486:8498   */\n      revert\n        /* \"#utility.yul\":8437:8500   */\n    tag_174:\n        /* \"#utility.yul\":8384:8506   */\n      pop\n      jump\t// out\n        /* \"#utility.yul\":8512:8628   */\n    tag_76:\n        /* \"#utility.yul\":8582:8603   */\n      tag_176\n        /* \"#utility.yul\":8597:8602   */\n      dup2\n        /* \"#utility.yul\":8582:8603   */\n      tag_154\n      jump\t// in\n    tag_176:\n        /* \"#utility.yul\":8575:8580   */\n      dup2\n        /* \"#utility.yul\":8572:8604   */\n      eq\n        /* \"#utility.yul\":8562:8622   */\n      tag_177\n      jumpi\n        /* \"#utility.yul\":8618:8619   */\n      0x00\n        /* \"#utility.yul\":8615:8616   */\n      dup1\n        /* \"#utility.yul\":8608:8620   */\n      revert\n        /* \"#utility.yul\":8562:8622   */\n    tag_177:\n        /* \"#utility.yul\":8512:8628   */\n      pop\n      jump\t// out\n        /* \"#utility.yul\":8634:8756   */\n    tag_80:\n        /* \"#utility.yul\":8707:8731   */\n      tag_179\n        /* \"#utility.yul\":8725:8730   */\n      dup2\n        /* \"#utility.yul\":8707:8731   */\n      tag_127\n      jump\t// in\n    tag_179:\n        /* \"#utility.yul\":8700:8705   */\n      dup2\n        /* \"#utility.yul\":8697:8732   */\n      eq\n        /* \"#utility.yul\":8687:8750   */\n      tag_180\n      jumpi\n        /* \"#utility.yul\":8746:8747   */\n      0x00\n        /* \"#utility.yul\":8743:8744   */\n      dup1\n        /* \"#utility.yul\":8736:8748   */\n      revert\n        /* \"#utility.yul\":8687:8750   */\n    tag_180:\n        /* \"#utility.yul\":8634:8756   */\n      pop\n      jump\t// out\n\n    auxdata: 0xa26469706673582212202704a68dfa210e3f5e493c0512f35af21dfeae474213c88f2ad4ea6fb69ce58164736f6c63430008070033\n}\n",
				"bytecode": {
					"linkReferences": {},
					"object": "608060405234801561001057600080fd5b506109f5806100206000396000f3fe6080604052600436106100385760003560e01c80637c153534146100415780638a0ccd561461006c578063c17b7326146100955761003f565b3661003f57005b005b34801561004d57600080fd5b506100566100c0565b60405161006391906107ca565b60405180910390f35b34801561007857600080fd5b50610093600480360381019061008e91906105cf565b6100e4565b005b3480156100a157600080fd5b506100aa6103a4565b6040516100b791906107ca565b60405180910390f35b60008054906101000a900473ffffffffffffffffffffffffffffffffffffffff1681565b6000339050846000806101000a81548173ffffffffffffffffffffffffffffffffffffffff021916908373ffffffffffffffffffffffffffffffffffffffff16021790555082600160006101000a81548173ffffffffffffffffffffffffffffffffffffffff021916908373ffffffffffffffffffffffffffffffffffffffff1602179055508360008054906101000a900473ffffffffffffffffffffffffffffffffffffffff1673ffffffffffffffffffffffffffffffffffffffff1663dd62ed3e83306040518363ffffffff1660e01b81526004016101c6929190610741565b60206040518083038186803b1580156101de57600080fd5b505afa1580156101f2573d6000803e3d6000fd5b505050506040513d601f19601f820116820180604052508101906102169190610663565b1015610257576040517f08c379a000000000000000000000000000000000000000000000000000000000815260040161024e90610825565b60405180910390fd5b81600160009054906101000a900473ffffffffffffffffffffffffffffffffffffffff1673ffffffffffffffffffffffffffffffffffffffff166370a08231306040518263ffffffff1660e01b81526004016102b39190610726565b60206040518083038186803b1580156102cb57600080fd5b505afa1580156102df573d6000803e3d6000fd5b505050506040513d601f19601f820116820180604052508101906103039190610663565b1015610344576040517f08c379a000000000000000000000000000000000000000000000000000000000815260040161033b906107e5565b60405180910390fd5b61037060008054906101000a900473ffffffffffffffffffffffffffffffffffffffff168230876103ca565b61039d600160009054906101000a900473ffffffffffffffffffffffffffffffffffffffff1682846104a4565b5050505050565b600160009054906101000a900473ffffffffffffffffffffffffffffffffffffffff1681565b60008473ffffffffffffffffffffffffffffffffffffffff166323b872dd8585856040518463ffffffff1660e01b81526004016104099392919061076a565b602060405180830381600087803b15801561042357600080fd5b505af1158015610437573d6000803e3d6000fd5b505050506040513d601f19601f8201168201806040525081019061045b9190610636565b90508061049d576040517f08c379a000000000000000000000000000000000000000000000000000000000815260040161049490610805565b60405180910390fd5b5050505050565b60008373ffffffffffffffffffffffffffffffffffffffff1663a9059cbb84846040518363ffffffff1660e01b81526004016104e19291906107a1565b602060405180830381600087803b1580156104fb57600080fd5b505af115801561050f573d6000803e3d6000fd5b505050506040513d601f19601f820116820180604052508101906105339190610636565b905080610575576040517f08c379a000000000000000000000000000000000000000000000000000000000815260040161056c90610805565b60405180910390fd5b50505050565b60008135905061058a8161097a565b92915050565b60008151905061059f81610991565b92915050565b6000813590506105b4816109a8565b92915050565b6000815190506105c9816109a8565b92915050565b600080600080608085870312156105e9576105e86108d4565b5b60006105f78782880161057b565b9450506020610608878288016105a5565b93505060406106198782880161057b565b925050606061062a878288016105a5565b91505092959194509250565b60006020828403121561064c5761064b6108d4565b5b600061065a84828501610590565b91505092915050565b600060208284031215610679576106786108d4565b5b6000610687848285016105ba565b91505092915050565b61069981610856565b82525050565b6106a88161089e565b82525050565b60006106bb603083610845565b91506106c6826108d9565b604082019050919050565b60006106de601583610845565b91506106e982610928565b602082019050919050565b6000610701601783610845565b915061070c82610951565b602082019050919050565b61072081610894565b82525050565b600060208201905061073b6000830184610690565b92915050565b60006040820190506107566000830185610690565b6107636020830184610690565b9392505050565b600060608201905061077f6000830186610690565b61078c6020830185610690565b6107996040830184610717565b949350505050565b60006040820190506107b66000830185610690565b6107c36020830184610717565b9392505050565b60006020820190506107df600083018461069f565b92915050565b600060208201905081810360008301526107fe816106ae565b9050919050565b6000602082019050818103600083015261081e816106d1565b9050919050565b6000602082019050818103600083015261083e816106f4565b9050919050565b600082825260208201905092915050565b600061086182610874565b9050919050565b60008115159050919050565b600073ffffffffffffffffffffffffffffffffffffffff82169050919050565b6000819050919050565b60006108a9826108b0565b9050919050565b60006108bb826108c2565b9050919050565b60006108cd82610874565b9050919050565b600080fd5b7f496e73756666696369656e742062616c616e636520746f6b656e546f20746f2060008201527f73656e64206261636b20636c69656e7400000000000000000000000000000000602082015250565b7f546f6b656e207472616e73666572206661696c65640000000000000000000000600082015250565b7f416c6c6f7720746f6b656e46726f6d20746f6f206c6f77000000000000000000600082015250565b61098381610856565b811461098e57600080fd5b50565b61099a81610868565b81146109a557600080fd5b50565b6109b181610894565b81146109bc57600080fd5b5056fea26469706673582212202704a68dfa210e3f5e493c0512f35af21dfeae474213c88f2ad4ea6fb69ce58164736f6c63430008070033",
					"opcodes": "PUSH1 0x80 PUSH1 0x40 MSTORE CALLVALUE DUP1 ISZERO PUSH2 0x10 JUMPI PUSH1 0x0 DUP1 REVERT JUMPDEST POP PUSH2 0x9F5 DUP1 PUSH2 0x20 PUSH1 0x0 CODECOPY PUSH1 0x0 RETURN INVALID PUSH1 0x80 PUSH1 0x40 MSTORE PUSH1 0x4 CALLDATASIZE LT PUSH2 0x38 JUMPI PUSH1 0x0 CALLDATALOAD PUSH1 0xE0 SHR DUP1 PUSH4 0x7C153534 EQ PUSH2 0x41 JUMPI DUP1 PUSH4 0x8A0CCD56 EQ PUSH2 0x6C JUMPI DUP1 PUSH4 0xC17B7326 EQ PUSH2 0x95 JUMPI PUSH2 0x3F JUMP JUMPDEST CALLDATASIZE PUSH2 0x3F JUMPI STOP JUMPDEST STOP JUMPDEST CALLVALUE DUP1 ISZERO PUSH2 0x4D JUMPI PUSH1 0x0 DUP1 REVERT JUMPDEST POP PUSH2 0x56 PUSH2 0xC0 JUMP JUMPDEST PUSH1 0x40 MLOAD PUSH2 0x63 SWAP2 SWAP1 PUSH2 0x7CA JUMP JUMPDEST PUSH1 0x40 MLOAD DUP1 SWAP2 SUB SWAP1 RETURN JUMPDEST CALLVALUE DUP1 ISZERO PUSH2 0x78 JUMPI PUSH1 0x0 DUP1 REVERT JUMPDEST POP PUSH2 0x93 PUSH1 0x4 DUP1 CALLDATASIZE SUB DUP2 ADD SWAP1 PUSH2 0x8E SWAP2 SWAP1 PUSH2 0x5CF JUMP JUMPDEST PUSH2 0xE4 JUMP JUMPDEST STOP JUMPDEST CALLVALUE DUP1 ISZERO PUSH2 0xA1 JUMPI PUSH1 0x0 DUP1 REVERT JUMPDEST POP PUSH2 0xAA PUSH2 0x3A4 JUMP JUMPDEST PUSH1 0x40 MLOAD PUSH2 0xB7 SWAP2 SWAP1 PUSH2 0x7CA JUMP JUMPDEST PUSH1 0x40 MLOAD DUP1 SWAP2 SUB SWAP1 RETURN JUMPDEST PUSH1 0x0 DUP1 SLOAD SWAP1 PUSH2 0x100 EXP SWAP1 DIV PUSH20 0xFFFFFFFFFFFFFFFFFFFFFFFFFFFFFFFFFFFFFFFF AND DUP2 JUMP JUMPDEST PUSH1 0x0 CALLER SWAP1 POP DUP5 PUSH1 0x0 DUP1 PUSH2 0x100 EXP DUP2 SLOAD DUP2 PUSH20 0xFFFFFFFFFFFFFFFFFFFFFFFFFFFFFFFFFFFFFFFF MUL NOT AND SWAP1 DUP4 PUSH20 0xFFFFFFFFFFFFFFFFFFFFFFFFFFFFFFFFFFFFFFFF AND MUL OR SWAP1 SSTORE POP DUP3 PUSH1 0x1 PUSH1 0x0 PUSH2 0x100 EXP DUP2 SLOAD DUP2 PUSH20 0xFFFFFFFFFFFFFFFFFFFFFFFFFFFFFFFFFFFFFFFF MUL NOT AND SWAP1 DUP4 PUSH20 0xFFFFFFFFFFFFFFFFFFFFFFFFFFFFFFFFFFFFFFFF AND MUL OR SWAP1 SSTORE POP DUP4 PUSH1 0x0 DUP1 SLOAD SWAP1 PUSH2 0x100 EXP SWAP1 DIV PUSH20 0xFFFFFFFFFFFFFFFFFFFFFFFFFFFFFFFFFFFFFFFF AND PUSH20 0xFFFFFFFFFFFFFFFFFFFFFFFFFFFFFFFFFFFFFFFF AND PUSH4 0xDD62ED3E DUP4 ADDRESS PUSH1 0x40 MLOAD DUP4 PUSH4 0xFFFFFFFF AND PUSH1 0xE0 SHL DUP2 MSTORE PUSH1 0x4 ADD PUSH2 0x1C6 SWAP3 SWAP2 SWAP1 PUSH2 0x741 JUMP JUMPDEST PUSH1 0x20 PUSH1 0x40 MLOAD DUP1 DUP4 SUB DUP2 DUP7 DUP1 EXTCODESIZE ISZERO DUP1 ISZERO PUSH2 0x1DE JUMPI PUSH1 0x0 DUP1 REVERT JUMPDEST POP GAS STATICCALL ISZERO DUP1 ISZERO PUSH2 0x1F2 JUMPI RETURNDATASIZE PUSH1 0x0 DUP1 RETURNDATACOPY RETURNDATASIZE PUSH1 0x0 REVERT JUMPDEST POP POP POP POP PUSH1 0x40 MLOAD RETURNDATASIZE PUSH1 0x1F NOT PUSH1 0x1F DUP3 ADD AND DUP3 ADD DUP1 PUSH1 0x40 MSTORE POP DUP2 ADD SWAP1 PUSH2 0x216 SWAP2 SWAP1 PUSH2 0x663 JUMP JUMPDEST LT ISZERO PUSH2 0x257 JUMPI PUSH1 0x40 MLOAD PUSH32 0x8C379A000000000000000000000000000000000000000000000000000000000 DUP2 MSTORE PUSH1 0x4 ADD PUSH2 0x24E SWAP1 PUSH2 0x825 JUMP JUMPDEST PUSH1 0x40 MLOAD DUP1 SWAP2 SUB SWAP1 REVERT JUMPDEST DUP2 PUSH1 0x1 PUSH1 0x0 SWAP1 SLOAD SWAP1 PUSH2 0x100 EXP SWAP1 DIV PUSH20 0xFFFFFFFFFFFFFFFFFFFFFFFFFFFFFFFFFFFFFFFF AND PUSH20 0xFFFFFFFFFFFFFFFFFFFFFFFFFFFFFFFFFFFFFFFF AND PUSH4 0x70A08231 ADDRESS PUSH1 0x40 MLOAD DUP3 PUSH4 0xFFFFFFFF AND PUSH1 0xE0 SHL DUP2 MSTORE PUSH1 0x4 ADD PUSH2 0x2B3 SWAP2 SWAP1 PUSH2 0x726 JUMP JUMPDEST PUSH1 0x20 PUSH1 0x40 MLOAD DUP1 DUP4 SUB DUP2 DUP7 DUP1 EXTCODESIZE ISZERO DUP1 ISZERO PUSH2 0x2CB JUMPI PUSH1 0x0 DUP1 REVERT JUMPDEST POP GAS STATICCALL ISZERO DUP1 ISZERO PUSH2 0x2DF JUMPI RETURNDATASIZE PUSH1 0x0 DUP1 RETURNDATACOPY RETURNDATASIZE PUSH1 0x0 REVERT JUMPDEST POP POP POP POP PUSH1 0x40 MLOAD RETURNDATASIZE PUSH1 0x1F NOT PUSH1 0x1F DUP3 ADD AND DUP3 ADD DUP1 PUSH1 0x40 MSTORE POP DUP2 ADD SWAP1 PUSH2 0x303 SWAP2 SWAP1 PUSH2 0x663 JUMP JUMPDEST LT ISZERO PUSH2 0x344 JUMPI PUSH1 0x40 MLOAD PUSH32 0x8C379A000000000000000000000000000000000000000000000000000000000 DUP2 MSTORE PUSH1 0x4 ADD PUSH2 0x33B SWAP1 PUSH2 0x7E5 JUMP JUMPDEST PUSH1 0x40 MLOAD DUP1 SWAP2 SUB SWAP1 REVERT JUMPDEST PUSH2 0x370 PUSH1 0x0 DUP1 SLOAD SWAP1 PUSH2 0x100 EXP SWAP1 DIV PUSH20 0xFFFFFFFFFFFFFFFFFFFFFFFFFFFFFFFFFFFFFFFF AND DUP3 ADDRESS DUP8 PUSH2 0x3CA JUMP JUMPDEST PUSH2 0x39D PUSH1 0x1 PUSH1 0x0 SWAP1 SLOAD SWAP1 PUSH2 0x100 EXP SWAP1 DIV PUSH20 0xFFFFFFFFFFFFFFFFFFFFFFFFFFFFFFFFFFFFFFFF AND DUP3 DUP5 PUSH2 0x4A4 JUMP JUMPDEST POP POP POP POP POP JUMP JUMPDEST PUSH1 0x1 PUSH1 0x0 SWAP1 SLOAD SWAP1 PUSH2 0x100 EXP SWAP1 DIV PUSH20 0xFFFFFFFFFFFFFFFFFFFFFFFFFFFFFFFFFFFFFFFF AND DUP2 JUMP JUMPDEST PUSH1 0x0 DUP5 PUSH20 0xFFFFFFFFFFFFFFFFFFFFFFFFFFFFFFFFFFFFFFFF AND PUSH4 0x23B872DD DUP6 DUP6 DUP6 PUSH1 0x40 MLOAD DUP5 PUSH4 0xFFFFFFFF AND PUSH1 0xE0 SHL DUP2 MSTORE PUSH1 0x4 ADD PUSH2 0x409 SWAP4 SWAP3 SWAP2 SWAP1 PUSH2 0x76A JUMP JUMPDEST PUSH1 0x20 PUSH1 0x40 MLOAD DUP1 DUP4 SUB DUP2 PUSH1 0x0 DUP8 DUP1 EXTCODESIZE ISZERO DUP1 ISZERO PUSH2 0x423 JUMPI PUSH1 0x0 DUP1 REVERT JUMPDEST POP GAS CALL ISZERO DUP1 ISZERO PUSH2 0x437 JUMPI RETURNDATASIZE PUSH1 0x0 DUP1 RETURNDATACOPY RETURNDATASIZE PUSH1 0x0 REVERT JUMPDEST POP POP POP POP PUSH1 0x40 MLOAD RETURNDATASIZE PUSH1 0x1F NOT PUSH1 0x1F DUP3 ADD AND DUP3 ADD DUP1 PUSH1 0x40 MSTORE POP DUP2 ADD SWAP1 PUSH2 0x45B SWAP2 SWAP1 PUSH2 0x636 JUMP JUMPDEST SWAP1 POP DUP1 PUSH2 0x49D JUMPI PUSH1 0x40 MLOAD PUSH32 0x8C379A000000000000000000000000000000000000000000000000000000000 DUP2 MSTORE PUSH1 0x4 ADD PUSH2 0x494 SWAP1 PUSH2 0x805 JUMP JUMPDEST PUSH1 0x40 MLOAD DUP1 SWAP2 SUB SWAP1 REVERT JUMPDEST POP POP POP POP POP JUMP JUMPDEST PUSH1 0x0 DUP4 PUSH20 0xFFFFFFFFFFFFFFFFFFFFFFFFFFFFFFFFFFFFFFFF AND PUSH4 0xA9059CBB DUP5 DUP5 PUSH1 0x40 MLOAD DUP4 PUSH4 0xFFFFFFFF AND PUSH1 0xE0 SHL DUP2 MSTORE PUSH1 0x4 ADD PUSH2 0x4E1 SWAP3 SWAP2 SWAP1 PUSH2 0x7A1 JUMP JUMPDEST PUSH1 0x20 PUSH1 0x40 MLOAD DUP1 DUP4 SUB DUP2 PUSH1 0x0 DUP8 DUP1 EXTCODESIZE ISZERO DUP1 ISZERO PUSH2 0x4FB JUMPI PUSH1 0x0 DUP1 REVERT JUMPDEST POP GAS CALL ISZERO DUP1 ISZERO PUSH2 0x50F JUMPI RETURNDATASIZE PUSH1 0x0 DUP1 RETURNDATACOPY RETURNDATASIZE PUSH1 0x0 REVERT JUMPDEST POP POP POP POP PUSH1 0x40 MLOAD RETURNDATASIZE PUSH1 0x1F NOT PUSH1 0x1F DUP3 ADD AND DUP3 ADD DUP1 PUSH1 0x40 MSTORE POP DUP2 ADD SWAP1 PUSH2 0x533 SWAP2 SWAP1 PUSH2 0x636 JUMP JUMPDEST SWAP1 POP DUP1 PUSH2 0x575 JUMPI PUSH1 0x40 MLOAD PUSH32 0x8C379A000000000000000000000000000000000000000000000000000000000 DUP2 MSTORE PUSH1 0x4 ADD PUSH2 0x56C SWAP1 PUSH2 0x805 JUMP JUMPDEST PUSH1 0x40 MLOAD DUP1 SWAP2 SUB SWAP1 REVERT JUMPDEST POP POP POP POP JUMP JUMPDEST PUSH1 0x0 DUP2 CALLDATALOAD SWAP1 POP PUSH2 0x58A DUP2 PUSH2 0x97A JUMP JUMPDEST SWAP3 SWAP2 POP POP JUMP JUMPDEST PUSH1 0x0 DUP2 MLOAD SWAP1 POP PUSH2 0x59F DUP2 PUSH2 0x991 JUMP JUMPDEST SWAP3 SWAP2 POP POP JUMP JUMPDEST PUSH1 0x0 DUP2 CALLDATALOAD SWAP1 POP PUSH2 0x5B4 DUP2 PUSH2 0x9A8 JUMP JUMPDEST SWAP3 SWAP2 POP POP JUMP JUMPDEST PUSH1 0x0 DUP2 MLOAD SWAP1 POP PUSH2 0x5C9 DUP2 PUSH2 0x9A8 JUMP JUMPDEST SWAP3 SWAP2 POP POP JUMP JUMPDEST PUSH1 0x0 DUP1 PUSH1 0x0 DUP1 PUSH1 0x80 DUP6 DUP8 SUB SLT ISZERO PUSH2 0x5E9 JUMPI PUSH2 0x5E8 PUSH2 0x8D4 JUMP JUMPDEST JUMPDEST PUSH1 0x0 PUSH2 0x5F7 DUP8 DUP3 DUP9 ADD PUSH2 0x57B JUMP JUMPDEST SWAP5 POP POP PUSH1 0x20 PUSH2 0x608 DUP8 DUP3 DUP9 ADD PUSH2 0x5A5 JUMP JUMPDEST SWAP4 POP POP PUSH1 0x40 PUSH2 0x619 DUP8 DUP3 DUP9 ADD PUSH2 0x57B JUMP JUMPDEST SWAP3 POP POP PUSH1 0x60 PUSH2 0x62A DUP8 DUP3 DUP9 ADD PUSH2 0x5A5 JUMP JUMPDEST SWAP2 POP POP SWAP3 SWAP6 SWAP2 SWAP5 POP SWAP3 POP JUMP JUMPDEST PUSH1 0x0 PUSH1 0x20 DUP3 DUP5 SUB SLT ISZERO PUSH2 0x64C JUMPI PUSH2 0x64B PUSH2 0x8D4 JUMP JUMPDEST JUMPDEST PUSH1 0x0 PUSH2 0x65A DUP5 DUP3 DUP6 ADD PUSH2 0x590 JUMP JUMPDEST SWAP2 POP POP SWAP3 SWAP2 POP POP JUMP JUMPDEST PUSH1 0x0 PUSH1 0x20 DUP3 DUP5 SUB SLT ISZERO PUSH2 0x679 JUMPI PUSH2 0x678 PUSH2 0x8D4 JUMP JUMPDEST JUMPDEST PUSH1 0x0 PUSH2 0x687 DUP5 DUP3 DUP6 ADD PUSH2 0x5BA JUMP JUMPDEST SWAP2 POP POP SWAP3 SWAP2 POP POP JUMP JUMPDEST PUSH2 0x699 DUP2 PUSH2 0x856 JUMP JUMPDEST DUP3 MSTORE POP POP JUMP JUMPDEST PUSH2 0x6A8 DUP2 PUSH2 0x89E JUMP JUMPDEST DUP3 MSTORE POP POP JUMP JUMPDEST PUSH1 0x0 PUSH2 0x6BB PUSH1 0x30 DUP4 PUSH2 0x845 JUMP JUMPDEST SWAP2 POP PUSH2 0x6C6 DUP3 PUSH2 0x8D9 JUMP JUMPDEST PUSH1 0x40 DUP3 ADD SWAP1 POP SWAP2 SWAP1 POP JUMP JUMPDEST PUSH1 0x0 PUSH2 0x6DE PUSH1 0x15 DUP4 PUSH2 0x845 JUMP JUMPDEST SWAP2 POP PUSH2 0x6E9 DUP3 PUSH2 0x928 JUMP JUMPDEST PUSH1 0x20 DUP3 ADD SWAP1 POP SWAP2 SWAP1 POP JUMP JUMPDEST PUSH1 0x0 PUSH2 0x701 PUSH1 0x17 DUP4 PUSH2 0x845 JUMP JUMPDEST SWAP2 POP PUSH2 0x70C DUP3 PUSH2 0x951 JUMP JUMPDEST PUSH1 0x20 DUP3 ADD SWAP1 POP SWAP2 SWAP1 POP JUMP JUMPDEST PUSH2 0x720 DUP2 PUSH2 0x894 JUMP JUMPDEST DUP3 MSTORE POP POP JUMP JUMPDEST PUSH1 0x0 PUSH1 0x20 DUP3 ADD SWAP1 POP PUSH2 0x73B PUSH1 0x0 DUP4 ADD DUP5 PUSH2 0x690 JUMP JUMPDEST SWAP3 SWAP2 POP POP JUMP JUMPDEST PUSH1 0x0 PUSH1 0x40 DUP3 ADD SWAP1 POP PUSH2 0x756 PUSH1 0x0 DUP4 ADD DUP6 PUSH2 0x690 JUMP JUMPDEST PUSH2 0x763 PUSH1 0x20 DUP4 ADD DUP5 PUSH2 0x690 JUMP JUMPDEST SWAP4 SWAP3 POP POP POP JUMP JUMPDEST PUSH1 0x0 PUSH1 0x60 DUP3 ADD SWAP1 POP PUSH2 0x77F PUSH1 0x0 DUP4 ADD DUP7 PUSH2 0x690 JUMP JUMPDEST PUSH2 0x78C PUSH1 0x20 DUP4 ADD DUP6 PUSH2 0x690 JUMP JUMPDEST PUSH2 0x799 PUSH1 0x40 DUP4 ADD DUP5 PUSH2 0x717 JUMP JUMPDEST SWAP5 SWAP4 POP POP POP POP JUMP JUMPDEST PUSH1 0x0 PUSH1 0x40 DUP3 ADD SWAP1 POP PUSH2 0x7B6 PUSH1 0x0 DUP4 ADD DUP6 PUSH2 0x690 JUMP JUMPDEST PUSH2 0x7C3 PUSH1 0x20 DUP4 ADD DUP5 PUSH2 0x717 JUMP JUMPDEST SWAP4 SWAP3 POP POP POP JUMP JUMPDEST PUSH1 0x0 PUSH1 0x20 DUP3 ADD SWAP1 POP PUSH2 0x7DF PUSH1 0x0 DUP4 ADD DUP5 PUSH2 0x69F JUMP JUMPDEST SWAP3 SWAP2 POP POP JUMP JUMPDEST PUSH1 0x0 PUSH1 0x20 DUP3 ADD SWAP1 POP DUP2 DUP2 SUB PUSH1 0x0 DUP4 ADD MSTORE PUSH2 0x7FE DUP2 PUSH2 0x6AE JUMP JUMPDEST SWAP1 POP SWAP2 SWAP1 POP JUMP JUMPDEST PUSH1 0x0 PUSH1 0x20 DUP3 ADD SWAP1 POP DUP2 DUP2 SUB PUSH1 0x0 DUP4 ADD MSTORE PUSH2 0x81E DUP2 PUSH2 0x6D1 JUMP JUMPDEST SWAP1 POP SWAP2 SWAP1 POP JUMP JUMPDEST PUSH1 0x0 PUSH1 0x20 DUP3 ADD SWAP1 POP DUP2 DUP2 SUB PUSH1 0x0 DUP4 ADD MSTORE PUSH2 0x83E DUP2 PUSH2 0x6F4 JUMP JUMPDEST SWAP1 POP SWAP2 SWAP1 POP JUMP JUMPDEST PUSH1 0x0 DUP3 DUP3 MSTORE PUSH1 0x20 DUP3 ADD SWAP1 POP SWAP3 SWAP2 POP POP JUMP JUMPDEST PUSH1 0x0 PUSH2 0x861 DUP3 PUSH2 0x874 JUMP JUMPDEST SWAP1 POP SWAP2 SWAP1 POP JUMP JUMPDEST PUSH1 0x0 DUP2 ISZERO ISZERO SWAP1 POP SWAP2 SWAP1 POP JUMP JUMPDEST PUSH1 0x0 PUSH20 0xFFFFFFFFFFFFFFFFFFFFFFFFFFFFFFFFFFFFFFFF DUP3 AND SWAP1 POP SWAP2 SWAP1 POP JUMP JUMPDEST PUSH1 0x0 DUP2 SWAP1 POP SWAP2 SWAP1 POP JUMP JUMPDEST PUSH1 0x0 PUSH2 0x8A9 DUP3 PUSH2 0x8B0 JUMP JUMPDEST SWAP1 POP SWAP2 SWAP1 POP JUMP JUMPDEST PUSH1 0x0 PUSH2 0x8BB DUP3 PUSH2 0x8C2 JUMP JUMPDEST SWAP1 POP SWAP2 SWAP1 POP JUMP JUMPDEST PUSH1 0x0 PUSH2 0x8CD DUP3 PUSH2 0x874 JUMP JUMPDEST SWAP1 POP SWAP2 SWAP1 POP JUMP JUMPDEST PUSH1 0x0 DUP1 REVERT JUMPDEST PUSH32 0x496E73756666696369656E742062616C616E636520746F6B656E546F20746F20 PUSH1 0x0 DUP3 ADD MSTORE PUSH32 0x73656E64206261636B20636C69656E7400000000000000000000000000000000 PUSH1 0x20 DUP3 ADD MSTORE POP JUMP JUMPDEST PUSH32 0x546F6B656E207472616E73666572206661696C65640000000000000000000000 PUSH1 0x0 DUP3 ADD MSTORE POP JUMP JUMPDEST PUSH32 0x416C6C6F7720746F6B656E46726F6D20746F6F206C6F77000000000000000000 PUSH1 0x0 DUP3 ADD MSTORE POP JUMP JUMPDEST PUSH2 0x983 DUP2 PUSH2 0x856 JUMP JUMPDEST DUP2 EQ PUSH2 0x98E JUMPI PUSH1 0x0 DUP1 REVERT JUMPDEST POP JUMP JUMPDEST PUSH2 0x99A DUP2 PUSH2 0x868 JUMP JUMPDEST DUP2 EQ PUSH2 0x9A5 JUMPI PUSH1 0x0 DUP1 REVERT JUMPDEST POP JUMP JUMPDEST PUSH2 0x9B1 DUP2 PUSH2 0x894 JUMP JUMPDEST DUP2 EQ PUSH2 0x9BC JUMPI PUSH1 0x0 DUP1 REVERT JUMPDEST POP JUMP INVALID LOG2 PUSH5 0x6970667358 0x22 SLT KECCAK256 0x27 DIV 0xA6 DUP14 STATICCALL 0x21 0xE EXTCODEHASH 0x5E 0x49 EXTCODECOPY SDIV SLT RETURN GAS CALLCODE SAR INVALID 0xAE SELFBALANCE TIMESTAMP SGT 0xC8 DUP16 0x2A 0xD4 0xEA PUSH16 0xB69CE58164736F6C6343000807003300 "
				},
				"gasEstimates": {
					"creation": {
						"codeDepositCost": "509800",
						"executionCost": "543",
						"totalCost": "510343"
					},
					"external": {
						"": "129",
						"swap(address,uint256,address,uint256)": "infinite",
						"tokenFrom()": "2575",
						"tokenTo()": "2622"
					},
					"internal": {
						"_safeTransfer(contract IERC20,address,uint256)": "infinite",
						"_safeTransferFrom(contract IERC20,address,address,uint256)": "infinite"
					}
				},
				"methodIdentifiers": {
					"swap(address,uint256,address,uint256)": "8a0ccd56",
					"tokenFrom()": "7c153534",
					"tokenTo()": "c17b7326"
				}
			},
			"userdoc": {
				"kind": "user",
				"methods": {},
				"version": 1
			}
		}
	}
}