{
	"contracts/TokenSwap.sol": {
		"TokenSwap": {
			"abi": [
				{
					"inputs": [],
					"stateMutability": "nonpayable",
					"type": "constructor"
				},
				{
					"stateMutability": "payable",
					"type": "fallback"
				},
				{
					"inputs": [
						{
							"internalType": "address",
							"name": "_tokenFrom",
							"type": "address"
						},
						{
							"internalType": "address",
							"name": "accountFrom",
							"type": "address"
						},
						{
							"internalType": "uint256",
							"name": "_amountFrom",
							"type": "uint256"
						},
						{
							"internalType": "address",
							"name": "_tokenTo",
							"type": "address"
						},
						{
							"internalType": "address",
							"name": "accountTo",
							"type": "address"
						},
						{
							"internalType": "uint256",
							"name": "_amountTo",
							"type": "uint256"
						}
					],
					"name": "swap",
					"outputs": [],
					"stateMutability": "nonpayable",
					"type": "function"
				},
				{
					"inputs": [],
					"name": "tokenFrom",
					"outputs": [
						{
							"internalType": "contract IERC20",
							"name": "",
							"type": "address"
						}
					],
					"stateMutability": "view",
					"type": "function"
				},
				{
					"inputs": [],
					"name": "tokenTo",
					"outputs": [
						{
							"internalType": "contract IERC20",
							"name": "",
							"type": "address"
						}
					],
					"stateMutability": "view",
					"type": "function"
				},
				{
					"stateMutability": "payable",
					"type": "receive"
				}
			],
			"devdoc": {
				"kind": "dev",
				"methods": {},
				"version": 1
			},
			"evm": {
				"assembly": "    /* \"contracts/TokenSwap.sol\":89:1377  contract TokenSwap {... */\n  mstore(0x40, 0x80)\n    /* \"contracts/TokenSwap.sol\":172:188  constructor() {} */\n  callvalue\n  dup1\n  iszero\n  tag_1\n  jumpi\n  0x00\n  dup1\n  revert\ntag_1:\n  pop\n    /* \"contracts/TokenSwap.sol\":89:1377  contract TokenSwap {... */\n  dataSize(sub_0)\n  dup1\n  dataOffset(sub_0)\n  0x00\n  codecopy\n  0x00\n  return\nstop\n\nsub_0: assembly {\n        /* \"contracts/TokenSwap.sol\":89:1377  contract TokenSwap {... */\n      mstore(0x40, 0x80)\n      jumpi(tag_1, lt(calldatasize, 0x04))\n      shr(0xe0, calldataload(0x00))\n      dup1\n      0x7c153534\n      eq\n      tag_3\n      jumpi\n      dup1\n      0x7ddf3320\n      eq\n      tag_4\n      jumpi\n      dup1\n      0xc17b7326\n      eq\n      tag_5\n      jumpi\n      jump(tag_2)\n    tag_1:\n      jumpi(tag_2, calldatasize)\n      stop\n    tag_2:\n      stop\n        /* \"contracts/TokenSwap.sol\":115:138  IERC20 public tokenFrom */\n    tag_3:\n      callvalue\n      dup1\n      iszero\n      tag_10\n      jumpi\n      0x00\n      dup1\n      revert\n    tag_10:\n      pop\n      tag_11\n      tag_12\n      jump\t// in\n    tag_11:\n      mload(0x40)\n      tag_13\n      swap2\n      swap1\n      tag_14\n      jump\t// in\n    tag_13:\n      mload(0x40)\n      dup1\n      swap2\n      sub\n      swap1\n      return\n        /* \"contracts/TokenSwap.sol\":194:818  function swap( address _tokenFrom, address accountFrom, uint _amountFrom, address _tokenTo, address accountTo, uint _amountTo) public {... */\n    tag_4:\n      callvalue\n      dup1\n      iszero\n      tag_15\n      jumpi\n      0x00\n      dup1\n      revert\n    tag_15:\n      pop\n      tag_16\n      0x04\n      dup1\n      calldatasize\n      sub\n      dup2\n      add\n      swap1\n      tag_17\n      swap2\n      swap1\n      tag_18\n      jump\t// in\n    tag_17:\n      tag_19\n      jump\t// in\n    tag_16:\n      stop\n        /* \"contracts/TokenSwap.sol\":144:165  IERC20 public tokenTo */\n    tag_5:\n      callvalue\n      dup1\n      iszero\n      tag_20\n      jumpi\n      0x00\n      dup1\n      revert\n    tag_20:\n      pop\n      tag_21\n      tag_22\n      jump\t// in\n    tag_21:\n      mload(0x40)\n      tag_23\n      swap2\n      swap1\n      tag_14\n      jump\t// in\n    tag_23:\n      mload(0x40)\n      dup1\n      swap2\n      sub\n      swap1\n      return\n        /* \"contracts/TokenSwap.sol\":115:138  IERC20 public tokenFrom */\n    tag_12:\n      0x00\n      dup1\n      sload\n      swap1\n      0x0100\n      exp\n      swap1\n      div\n      0xffffffffffffffffffffffffffffffffffffffff\n      and\n      dup2\n      jump\t// out\n        /* \"contracts/TokenSwap.sol\":194:818  function swap( address _tokenFrom, address accountFrom, uint _amountFrom, address _tokenTo, address accountTo, uint _amountTo) public {... */\n    tag_19:\n        /* \"contracts/TokenSwap.sol\":347:367  address _addressSwap */\n      0x00\n        /* \"contracts/TokenSwap.sol\":370:380  msg.sender */\n      caller\n        /* \"contracts/TokenSwap.sol\":347:380  address _addressSwap = msg.sender */\n      swap1\n      pop\n        /* \"contracts/TokenSwap.sol\":409:419  _tokenFrom */\n      dup7\n        /* \"contracts/TokenSwap.sol\":390:399  tokenFrom */\n      0x00\n      dup1\n        /* \"contracts/TokenSwap.sol\":390:420  tokenFrom = IERC20(_tokenFrom) */\n      0x0100\n      exp\n      dup2\n      sload\n      dup2\n      0xffffffffffffffffffffffffffffffffffffffff\n      mul\n      not\n      and\n      swap1\n      dup4\n      0xffffffffffffffffffffffffffffffffffffffff\n      and\n      mul\n      or\n      swap1\n      sstore\n      pop\n        /* \"contracts/TokenSwap.sol\":447:455  _tokenTo */\n      dup4\n        /* \"contracts/TokenSwap.sol\":430:437  tokenTo */\n      0x01\n      0x00\n        /* \"contracts/TokenSwap.sol\":430:456  tokenTo = IERC20(_tokenTo) */\n      0x0100\n      exp\n      dup2\n      sload\n      dup2\n      0xffffffffffffffffffffffffffffffffffffffff\n      mul\n      not\n      and\n      swap1\n      dup4\n      0xffffffffffffffffffffffffffffffffffffffff\n      and\n      mul\n      or\n      swap1\n      sstore\n      pop\n        /* \"contracts/TokenSwap.sol\":527:538  _amountFrom */\n      dup5\n        /* \"contracts/TokenSwap.sol\":475:484  tokenFrom */\n      0x00\n      dup1\n      sload\n      swap1\n      0x0100\n      exp\n      swap1\n      div\n      0xffffffffffffffffffffffffffffffffffffffff\n      and\n        /* \"contracts/TokenSwap.sol\":475:494  tokenFrom.allowance */\n      0xffffffffffffffffffffffffffffffffffffffff\n      and\n      0xdd62ed3e\n        /* \"contracts/TokenSwap.sol\":495:506  accountFrom */\n      dup9\n        /* \"contracts/TokenSwap.sol\":517:521  this */\n      address\n        /* \"contracts/TokenSwap.sol\":475:523  tokenFrom.allowance(accountFrom, address (this)) */\n      mload(0x40)\n      dup4\n      0xffffffff\n      and\n      0xe0\n      shl\n      dup2\n      mstore\n      0x04\n      add\n      tag_25\n      swap3\n      swap2\n      swap1\n      tag_26\n      jump\t// in\n    tag_25:\n      0x20\n      mload(0x40)\n      dup1\n      dup4\n      sub\n      dup2\n      dup7\n      gas\n      staticcall\n      iszero\n      dup1\n      iszero\n      tag_28\n      jumpi\n      returndatasize\n      0x00\n      dup1\n      returndatacopy\n      revert(0x00, returndatasize)\n    tag_28:\n      pop\n      pop\n      pop\n      pop\n      mload(0x40)\n      returndatasize\n      not(0x1f)\n      0x1f\n      dup3\n      add\n      and\n      dup3\n      add\n      dup1\n      0x40\n      mstore\n      pop\n      dup2\n      add\n      swap1\n      tag_29\n      swap2\n      swap1\n      tag_30\n      jump\t// in\n    tag_29:\n        /* \"contracts/TokenSwap.sol\":475:538  tokenFrom.allowance(accountFrom, address (this)) >= _amountFrom */\n      lt\n      iszero\n        /* \"contracts/TokenSwap.sol\":467:566  require(tokenFrom.allowance(accountFrom, address (this)) >= _amountFrom, \"Allow tokenFrom too low\") */\n      tag_31\n      jumpi\n      mload(0x40)\n      0x08c379a000000000000000000000000000000000000000000000000000000000\n      dup2\n      mstore\n      0x04\n      add\n      tag_32\n      swap1\n      tag_33\n      jump\t// in\n    tag_32:\n      mload(0x40)\n      dup1\n      swap2\n      sub\n      swap1\n      revert\n    tag_31:\n        /* \"contracts/TokenSwap.sol\":634:645  _amountFrom */\n      dup5\n        /* \"contracts/TokenSwap.sol\":584:591  tokenTo */\n      0x01\n      0x00\n      swap1\n      sload\n      swap1\n      0x0100\n      exp\n      swap1\n      div\n      0xffffffffffffffffffffffffffffffffffffffff\n      and\n        /* \"contracts/TokenSwap.sol\":584:601  tokenTo.allowance */\n      0xffffffffffffffffffffffffffffffffffffffff\n      and\n      0xdd62ed3e\n        /* \"contracts/TokenSwap.sol\":602:613  accountFrom */\n      dup9\n        /* \"contracts/TokenSwap.sol\":624:628  this */\n      address\n        /* \"contracts/TokenSwap.sol\":584:630  tokenTo.allowance(accountFrom, address (this)) */\n      mload(0x40)\n      dup4\n      0xffffffff\n      and\n      0xe0\n      shl\n      dup2\n      mstore\n      0x04\n      add\n      tag_34\n      swap3\n      swap2\n      swap1\n      tag_26\n      jump\t// in\n    tag_34:\n      0x20\n      mload(0x40)\n      dup1\n      dup4\n      sub\n      dup2\n      dup7\n      gas\n      staticcall\n      iszero\n      dup1\n      iszero\n      tag_36\n      jumpi\n      returndatasize\n      0x00\n      dup1\n      returndatacopy\n      revert(0x00, returndatasize)\n    tag_36:\n      pop\n      pop\n      pop\n      pop\n      mload(0x40)\n      returndatasize\n      not(0x1f)\n      0x1f\n      dup3\n      add\n      and\n      dup3\n      add\n      dup1\n      0x40\n      mstore\n      pop\n      dup2\n      add\n      swap1\n      tag_37\n      swap2\n      swap1\n      tag_30\n      jump\t// in\n    tag_37:\n        /* \"contracts/TokenSwap.sol\":584:645  tokenTo.allowance(accountFrom, address (this)) >= _amountFrom */\n      lt\n      iszero\n        /* \"contracts/TokenSwap.sol\":576:673  require(tokenTo.allowance(accountFrom, address (this)) >= _amountFrom, \"Allow tokenFrom too low\") */\n      tag_38\n      jumpi\n      mload(0x40)\n      0x08c379a000000000000000000000000000000000000000000000000000000000\n      dup2\n      mstore\n      0x04\n      add\n      tag_39\n      swap1\n      tag_33\n      jump\t// in\n    tag_39:\n      mload(0x40)\n      dup1\n      swap2\n      sub\n      swap1\n      revert\n    tag_38:\n        /* \"contracts/TokenSwap.sol\":684:754  _safeTransferFrom(tokenFrom, _addressSwap, address(this), _amountFrom) */\n      tag_40\n        /* \"contracts/TokenSwap.sol\":702:711  tokenFrom */\n      0x00\n      dup1\n      sload\n      swap1\n      0x0100\n      exp\n      swap1\n      div\n      0xffffffffffffffffffffffffffffffffffffffff\n      and\n        /* \"contracts/TokenSwap.sol\":713:725  _addressSwap */\n      dup3\n        /* \"contracts/TokenSwap.sol\":735:739  this */\n      address\n        /* \"contracts/TokenSwap.sol\":742:753  _amountFrom */\n      dup9\n        /* \"contracts/TokenSwap.sol\":684:701  _safeTransferFrom */\n      tag_41\n        /* \"contracts/TokenSwap.sol\":684:754  _safeTransferFrom(tokenFrom, _addressSwap, address(this), _amountFrom) */\n      jump\t// in\n    tag_40:\n        /* \"contracts/TokenSwap.sol\":764:811  _safeTransfer(tokenTo, _addressSwap, _amountTo) */\n      tag_42\n        /* \"contracts/TokenSwap.sol\":778:785  tokenTo */\n      0x01\n      0x00\n      swap1\n      sload\n      swap1\n      0x0100\n      exp\n      swap1\n      div\n      0xffffffffffffffffffffffffffffffffffffffff\n      and\n        /* \"contracts/TokenSwap.sol\":787:799  _addressSwap */\n      dup3\n        /* \"contracts/TokenSwap.sol\":801:810  _amountTo */\n      dup5\n        /* \"contracts/TokenSwap.sol\":764:777  _safeTransfer */\n      tag_43\n        /* \"contracts/TokenSwap.sol\":764:811  _safeTransfer(tokenTo, _addressSwap, _amountTo) */\n      jump\t// in\n    tag_42:\n        /* \"contracts/TokenSwap.sol\":328:818  {... */\n      pop\n        /* \"contracts/TokenSwap.sol\":194:818  function swap( address _tokenFrom, address accountFrom, uint _amountFrom, address _tokenTo, address accountTo, uint _amountTo) public {... */\n      pop\n      pop\n      pop\n      pop\n      pop\n      pop\n      jump\t// out\n        /* \"contracts/TokenSwap.sol\":144:165  IERC20 public tokenTo */\n    tag_22:\n      0x01\n      0x00\n      swap1\n      sload\n      swap1\n      0x0100\n      exp\n      swap1\n      div\n      0xffffffffffffffffffffffffffffffffffffffff\n      and\n      dup2\n      jump\t// out\n        /* \"contracts/TokenSwap.sol\":824:1081  function _safeTransferFrom(... */\n    tag_41:\n        /* \"contracts/TokenSwap.sol\":969:978  bool sent */\n      0x00\n        /* \"contracts/TokenSwap.sol\":981:986  token */\n      dup5\n        /* \"contracts/TokenSwap.sol\":981:999  token.transferFrom */\n      0xffffffffffffffffffffffffffffffffffffffff\n      and\n      0x23b872dd\n        /* \"contracts/TokenSwap.sol\":1000:1006  sender */\n      dup6\n        /* \"contracts/TokenSwap.sol\":1008:1017  recipient */\n      dup6\n        /* \"contracts/TokenSwap.sol\":1019:1025  amount */\n      dup6\n        /* \"contracts/TokenSwap.sol\":981:1026  token.transferFrom(sender, recipient, amount) */\n      mload(0x40)\n      dup5\n      0xffffffff\n      and\n      0xe0\n      shl\n      dup2\n      mstore\n      0x04\n      add\n      tag_45\n      swap4\n      swap3\n      swap2\n      swap1\n      tag_46\n      jump\t// in\n    tag_45:\n      0x20\n      mload(0x40)\n      dup1\n      dup4\n      sub\n      dup2\n      0x00\n      dup8\n      gas\n      call\n      iszero\n      dup1\n      iszero\n      tag_48\n      jumpi\n      returndatasize\n      0x00\n      dup1\n      returndatacopy\n      revert(0x00, returndatasize)\n    tag_48:\n      pop\n      pop\n      pop\n      pop\n      mload(0x40)\n      returndatasize\n      not(0x1f)\n      0x1f\n      dup3\n      add\n      and\n      dup3\n      add\n      dup1\n      0x40\n      mstore\n      pop\n      dup2\n      add\n      swap1\n      tag_49\n      swap2\n      swap1\n      tag_50\n      jump\t// in\n    tag_49:\n        /* \"contracts/TokenSwap.sol\":969:1026  bool sent = token.transferFrom(sender, recipient, amount) */\n      swap1\n      pop\n        /* \"contracts/TokenSwap.sol\":1044:1048  sent */\n      dup1\n        /* \"contracts/TokenSwap.sol\":1036:1074  require(sent, \"Token transfer failed\") */\n      tag_51\n      jumpi\n      mload(0x40)\n      0x08c379a000000000000000000000000000000000000000000000000000000000\n      dup2\n      mstore\n      0x04\n      add\n      tag_52\n      swap1\n      tag_53\n      jump\t// in\n    tag_52:\n      mload(0x40)\n      dup1\n      swap2\n      sub\n      swap1\n      revert\n    tag_51:\n        /* \"contracts/TokenSwap.sol\":959:1081  {... */\n      pop\n        /* \"contracts/TokenSwap.sol\":824:1081  function _safeTransferFrom(... */\n      pop\n      pop\n      pop\n      pop\n      jump\t// out\n        /* \"contracts/TokenSwap.sol\":1087:1304  function _safeTransfer(... */\n    tag_43:\n        /* \"contracts/TokenSwap.sol\":1204:1213  bool sent */\n      0x00\n        /* \"contracts/TokenSwap.sol\":1216:1221  token */\n      dup4\n        /* \"contracts/TokenSwap.sol\":1216:1230  token.transfer */\n      0xffffffffffffffffffffffffffffffffffffffff\n      and\n      0xa9059cbb\n        /* \"contracts/TokenSwap.sol\":1231:1240  recipient */\n      dup5\n        /* \"contracts/TokenSwap.sol\":1242:1248  amount */\n      dup5\n        /* \"contracts/TokenSwap.sol\":1216:1249  token.transfer(recipient, amount) */\n      mload(0x40)\n      dup4\n      0xffffffff\n      and\n      0xe0\n      shl\n      dup2\n      mstore\n      0x04\n      add\n      tag_55\n      swap3\n      swap2\n      swap1\n      tag_56\n      jump\t// in\n    tag_55:\n      0x20\n      mload(0x40)\n      dup1\n      dup4\n      sub\n      dup2\n      0x00\n      dup8\n      gas\n      call\n      iszero\n      dup1\n      iszero\n      tag_58\n      jumpi\n      returndatasize\n      0x00\n      dup1\n      returndatacopy\n      revert(0x00, returndatasize)\n    tag_58:\n      pop\n      pop\n      pop\n      pop\n      mload(0x40)\n      returndatasize\n      not(0x1f)\n      0x1f\n      dup3\n      add\n      and\n      dup3\n      add\n      dup1\n      0x40\n      mstore\n      pop\n      dup2\n      add\n      swap1\n      tag_59\n      swap2\n      swap1\n      tag_50\n      jump\t// in\n    tag_59:\n        /* \"contracts/TokenSwap.sol\":1204:1249  bool sent = token.transfer(recipient, amount) */\n      swap1\n      pop\n        /* \"contracts/TokenSwap.sol\":1267:1271  sent */\n      dup1\n        /* \"contracts/TokenSwap.sol\":1259:1297  require(sent, \"Token transfer failed\") */\n      tag_60\n      jumpi\n      mload(0x40)\n      0x08c379a000000000000000000000000000000000000000000000000000000000\n      dup2\n      mstore\n      0x04\n      add\n      tag_61\n      swap1\n      tag_53\n      jump\t// in\n    tag_61:\n      mload(0x40)\n      dup1\n      swap2\n      sub\n      swap1\n      revert\n    tag_60:\n        /* \"contracts/TokenSwap.sol\":1194:1304  {... */\n      pop\n        /* \"contracts/TokenSwap.sol\":1087:1304  function _safeTransfer(... */\n      pop\n      pop\n      pop\n      jump\t// out\n        /* \"#utility.yul\":7:133   */\n    tag_62:\n        /* \"#utility.yul\":44:51   */\n      0x00\n        /* \"#utility.yul\":84:126   */\n      0xffffffffffffffffffffffffffffffffffffffff\n        /* \"#utility.yul\":77:82   */\n      dup3\n        /* \"#utility.yul\":73:127   */\n      and\n        /* \"#utility.yul\":62:127   */\n      swap1\n      pop\n        /* \"#utility.yul\":7:133   */\n      swap2\n      swap1\n      pop\n      jump\t// out\n        /* \"#utility.yul\":139:199   */\n    tag_63:\n        /* \"#utility.yul\":167:170   */\n      0x00\n        /* \"#utility.yul\":188:193   */\n      dup2\n        /* \"#utility.yul\":181:193   */\n      swap1\n      pop\n        /* \"#utility.yul\":139:199   */\n      swap2\n      swap1\n      pop\n      jump\t// out\n        /* \"#utility.yul\":205:347   */\n    tag_64:\n        /* \"#utility.yul\":255:264   */\n      0x00\n        /* \"#utility.yul\":288:341   */\n      tag_92\n        /* \"#utility.yul\":306:340   */\n      tag_93\n        /* \"#utility.yul\":315:339   */\n      tag_94\n        /* \"#utility.yul\":333:338   */\n      dup5\n        /* \"#utility.yul\":315:339   */\n      tag_62\n      jump\t// in\n    tag_94:\n        /* \"#utility.yul\":306:340   */\n      tag_63\n      jump\t// in\n    tag_93:\n        /* \"#utility.yul\":288:341   */\n      tag_62\n      jump\t// in\n    tag_92:\n        /* \"#utility.yul\":275:341   */\n      swap1\n      pop\n        /* \"#utility.yul\":205:347   */\n      swap2\n      swap1\n      pop\n      jump\t// out\n        /* \"#utility.yul\":353:479   */\n    tag_65:\n        /* \"#utility.yul\":403:412   */\n      0x00\n        /* \"#utility.yul\":436:473   */\n      tag_96\n        /* \"#utility.yul\":467:472   */\n      dup3\n        /* \"#utility.yul\":436:473   */\n      tag_64\n      jump\t// in\n    tag_96:\n        /* \"#utility.yul\":423:473   */\n      swap1\n      pop\n        /* \"#utility.yul\":353:479   */\n      swap2\n      swap1\n      pop\n      jump\t// out\n        /* \"#utility.yul\":485:624   */\n    tag_66:\n        /* \"#utility.yul\":548:557   */\n      0x00\n        /* \"#utility.yul\":581:618   */\n      tag_98\n        /* \"#utility.yul\":612:617   */\n      dup3\n        /* \"#utility.yul\":581:618   */\n      tag_65\n      jump\t// in\n    tag_98:\n        /* \"#utility.yul\":568:618   */\n      swap1\n      pop\n        /* \"#utility.yul\":485:624   */\n      swap2\n      swap1\n      pop\n      jump\t// out\n        /* \"#utility.yul\":630:787   */\n    tag_67:\n        /* \"#utility.yul\":730:780   */\n      tag_100\n        /* \"#utility.yul\":774:779   */\n      dup2\n        /* \"#utility.yul\":730:780   */\n      tag_66\n      jump\t// in\n    tag_100:\n        /* \"#utility.yul\":725:728   */\n      dup3\n        /* \"#utility.yul\":718:781   */\n      mstore\n        /* \"#utility.yul\":630:787   */\n      pop\n      pop\n      jump\t// out\n        /* \"#utility.yul\":793:1041   */\n    tag_14:\n        /* \"#utility.yul\":899:903   */\n      0x00\n        /* \"#utility.yul\":937:939   */\n      0x20\n        /* \"#utility.yul\":926:935   */\n      dup3\n        /* \"#utility.yul\":922:940   */\n      add\n        /* \"#utility.yul\":914:940   */\n      swap1\n      pop\n        /* \"#utility.yul\":950:1034   */\n      tag_102\n        /* \"#utility.yul\":1031:1032   */\n      0x00\n        /* \"#utility.yul\":1020:1029   */\n      dup4\n        /* \"#utility.yul\":1016:1033   */\n      add\n        /* \"#utility.yul\":1007:1013   */\n      dup5\n        /* \"#utility.yul\":950:1034   */\n      tag_67\n      jump\t// in\n    tag_102:\n        /* \"#utility.yul\":793:1041   */\n      swap3\n      swap2\n      pop\n      pop\n      jump\t// out\n        /* \"#utility.yul\":1128:1245   */\n    tag_69:\n        /* \"#utility.yul\":1237:1238   */\n      0x00\n        /* \"#utility.yul\":1234:1235   */\n      dup1\n        /* \"#utility.yul\":1227:1239   */\n      revert\n        /* \"#utility.yul\":1374:1470   */\n    tag_71:\n        /* \"#utility.yul\":1411:1418   */\n      0x00\n        /* \"#utility.yul\":1440:1464   */\n      tag_107\n        /* \"#utility.yul\":1458:1463   */\n      dup3\n        /* \"#utility.yul\":1440:1464   */\n      tag_62\n      jump\t// in\n    tag_107:\n        /* \"#utility.yul\":1429:1464   */\n      swap1\n      pop\n        /* \"#utility.yul\":1374:1470   */\n      swap2\n      swap1\n      pop\n      jump\t// out\n        /* \"#utility.yul\":1476:1598   */\n    tag_72:\n        /* \"#utility.yul\":1549:1573   */\n      tag_109\n        /* \"#utility.yul\":1567:1572   */\n      dup2\n        /* \"#utility.yul\":1549:1573   */\n      tag_71\n      jump\t// in\n    tag_109:\n        /* \"#utility.yul\":1542:1547   */\n      dup2\n        /* \"#utility.yul\":1539:1574   */\n      eq\n        /* \"#utility.yul\":1529:1592   */\n      tag_110\n      jumpi\n        /* \"#utility.yul\":1588:1589   */\n      0x00\n        /* \"#utility.yul\":1585:1586   */\n      dup1\n        /* \"#utility.yul\":1578:1590   */\n      revert\n        /* \"#utility.yul\":1529:1592   */\n    tag_110:\n        /* \"#utility.yul\":1476:1598   */\n      pop\n      jump\t// out\n        /* \"#utility.yul\":1604:1743   */\n    tag_73:\n        /* \"#utility.yul\":1650:1655   */\n      0x00\n        /* \"#utility.yul\":1688:1694   */\n      dup2\n        /* \"#utility.yul\":1675:1695   */\n      calldataload\n        /* \"#utility.yul\":1666:1695   */\n      swap1\n      pop\n        /* \"#utility.yul\":1704:1737   */\n      tag_112\n        /* \"#utility.yul\":1731:1736   */\n      dup2\n        /* \"#utility.yul\":1704:1737   */\n      tag_72\n      jump\t// in\n    tag_112:\n        /* \"#utility.yul\":1604:1743   */\n      swap3\n      swap2\n      pop\n      pop\n      jump\t// out\n        /* \"#utility.yul\":1749:1826   */\n    tag_74:\n        /* \"#utility.yul\":1786:1793   */\n      0x00\n        /* \"#utility.yul\":1815:1820   */\n      dup2\n        /* \"#utility.yul\":1804:1820   */\n      swap1\n      pop\n        /* \"#utility.yul\":1749:1826   */\n      swap2\n      swap1\n      pop\n      jump\t// out\n        /* \"#utility.yul\":1832:1954   */\n    tag_75:\n        /* \"#utility.yul\":1905:1929   */\n      tag_115\n        /* \"#utility.yul\":1923:1928   */\n      dup2\n        /* \"#utility.yul\":1905:1929   */\n      tag_74\n      jump\t// in\n    tag_115:\n        /* \"#utility.yul\":1898:1903   */\n      dup2\n        /* \"#utility.yul\":1895:1930   */\n      eq\n        /* \"#utility.yul\":1885:1948   */\n      tag_116\n      jumpi\n        /* \"#utility.yul\":1944:1945   */\n      0x00\n        /* \"#utility.yul\":1941:1942   */\n      dup1\n        /* \"#utility.yul\":1934:1946   */\n      revert\n        /* \"#utility.yul\":1885:1948   */\n    tag_116:\n        /* \"#utility.yul\":1832:1954   */\n      pop\n      jump\t// out\n        /* \"#utility.yul\":1960:2099   */\n    tag_76:\n        /* \"#utility.yul\":2006:2011   */\n      0x00\n        /* \"#utility.yul\":2044:2050   */\n      dup2\n        /* \"#utility.yul\":2031:2051   */\n      calldataload\n        /* \"#utility.yul\":2022:2051   */\n      swap1\n      pop\n        /* \"#utility.yul\":2060:2093   */\n      tag_118\n        /* \"#utility.yul\":2087:2092   */\n      dup2\n        /* \"#utility.yul\":2060:2093   */\n      tag_75\n      jump\t// in\n    tag_118:\n        /* \"#utility.yul\":1960:2099   */\n      swap3\n      swap2\n      pop\n      pop\n      jump\t// out\n        /* \"#utility.yul\":2105:3162   */\n    tag_18:\n        /* \"#utility.yul\":2209:2215   */\n      0x00\n        /* \"#utility.yul\":2217:2223   */\n      dup1\n        /* \"#utility.yul\":2225:2231   */\n      0x00\n        /* \"#utility.yul\":2233:2239   */\n      dup1\n        /* \"#utility.yul\":2241:2247   */\n      0x00\n        /* \"#utility.yul\":2249:2255   */\n      dup1\n        /* \"#utility.yul\":2298:2301   */\n      0xc0\n        /* \"#utility.yul\":2286:2295   */\n      dup8\n        /* \"#utility.yul\":2277:2284   */\n      dup10\n        /* \"#utility.yul\":2273:2296   */\n      sub\n        /* \"#utility.yul\":2269:2302   */\n      slt\n        /* \"#utility.yul\":2266:2386   */\n      iszero\n      tag_120\n      jumpi\n        /* \"#utility.yul\":2305:2384   */\n      tag_121\n      tag_69\n      jump\t// in\n    tag_121:\n        /* \"#utility.yul\":2266:2386   */\n    tag_120:\n        /* \"#utility.yul\":2425:2426   */\n      0x00\n        /* \"#utility.yul\":2450:2503   */\n      tag_122\n        /* \"#utility.yul\":2495:2502   */\n      dup10\n        /* \"#utility.yul\":2486:2492   */\n      dup3\n        /* \"#utility.yul\":2475:2484   */\n      dup11\n        /* \"#utility.yul\":2471:2493   */\n      add\n        /* \"#utility.yul\":2450:2503   */\n      tag_73\n      jump\t// in\n    tag_122:\n        /* \"#utility.yul\":2440:2503   */\n      swap7\n      pop\n        /* \"#utility.yul\":2396:2513   */\n      pop\n        /* \"#utility.yul\":2552:2554   */\n      0x20\n        /* \"#utility.yul\":2578:2631   */\n      tag_123\n        /* \"#utility.yul\":2623:2630   */\n      dup10\n        /* \"#utility.yul\":2614:2620   */\n      dup3\n        /* \"#utility.yul\":2603:2612   */\n      dup11\n        /* \"#utility.yul\":2599:2621   */\n      add\n        /* \"#utility.yul\":2578:2631   */\n      tag_73\n      jump\t// in\n    tag_123:\n        /* \"#utility.yul\":2568:2631   */\n      swap6\n      pop\n        /* \"#utility.yul\":2523:2641   */\n      pop\n        /* \"#utility.yul\":2680:2682   */\n      0x40\n        /* \"#utility.yul\":2706:2759   */\n      tag_124\n        /* \"#utility.yul\":2751:2758   */\n      dup10\n        /* \"#utility.yul\":2742:2748   */\n      dup3\n        /* \"#utility.yul\":2731:2740   */\n      dup11\n        /* \"#utility.yul\":2727:2749   */\n      add\n        /* \"#utility.yul\":2706:2759   */\n      tag_76\n      jump\t// in\n    tag_124:\n        /* \"#utility.yul\":2696:2759   */\n      swap5\n      pop\n        /* \"#utility.yul\":2651:2769   */\n      pop\n        /* \"#utility.yul\":2808:2810   */\n      0x60\n        /* \"#utility.yul\":2834:2887   */\n      tag_125\n        /* \"#utility.yul\":2879:2886   */\n      dup10\n        /* \"#utility.yul\":2870:2876   */\n      dup3\n        /* \"#utility.yul\":2859:2868   */\n      dup11\n        /* \"#utility.yul\":2855:2877   */\n      add\n        /* \"#utility.yul\":2834:2887   */\n      tag_73\n      jump\t// in\n    tag_125:\n        /* \"#utility.yul\":2824:2887   */\n      swap4\n      pop\n        /* \"#utility.yul\":2779:2897   */\n      pop\n        /* \"#utility.yul\":2936:2939   */\n      0x80\n        /* \"#utility.yul\":2963:3016   */\n      tag_126\n        /* \"#utility.yul\":3008:3015   */\n      dup10\n        /* \"#utility.yul\":2999:3005   */\n      dup3\n        /* \"#utility.yul\":2988:2997   */\n      dup11\n        /* \"#utility.yul\":2984:3006   */\n      add\n        /* \"#utility.yul\":2963:3016   */\n      tag_73\n      jump\t// in\n    tag_126:\n        /* \"#utility.yul\":2953:3016   */\n      swap3\n      pop\n        /* \"#utility.yul\":2907:3026   */\n      pop\n        /* \"#utility.yul\":3065:3068   */\n      0xa0\n        /* \"#utility.yul\":3092:3145   */\n      tag_127\n        /* \"#utility.yul\":3137:3144   */\n      dup10\n        /* \"#utility.yul\":3128:3134   */\n      dup3\n        /* \"#utility.yul\":3117:3126   */\n      dup11\n        /* \"#utility.yul\":3113:3135   */\n      add\n        /* \"#utility.yul\":3092:3145   */\n      tag_76\n      jump\t// in\n    tag_127:\n        /* \"#utility.yul\":3082:3145   */\n      swap2\n      pop\n        /* \"#utility.yul\":3036:3155   */\n      pop\n        /* \"#utility.yul\":2105:3162   */\n      swap3\n      swap6\n      pop\n      swap3\n      swap6\n      pop\n      swap3\n      swap6\n      jump\t// out\n        /* \"#utility.yul\":3168:3286   */\n    tag_77:\n        /* \"#utility.yul\":3255:3279   */\n      tag_129\n        /* \"#utility.yul\":3273:3278   */\n      dup2\n        /* \"#utility.yul\":3255:3279   */\n      tag_71\n      jump\t// in\n    tag_129:\n        /* \"#utility.yul\":3250:3253   */\n      dup3\n        /* \"#utility.yul\":3243:3280   */\n      mstore\n        /* \"#utility.yul\":3168:3286   */\n      pop\n      pop\n      jump\t// out\n        /* \"#utility.yul\":3292:3624   */\n    tag_26:\n        /* \"#utility.yul\":3413:3417   */\n      0x00\n        /* \"#utility.yul\":3451:3453   */\n      0x40\n        /* \"#utility.yul\":3440:3449   */\n      dup3\n        /* \"#utility.yul\":3436:3454   */\n      add\n        /* \"#utility.yul\":3428:3454   */\n      swap1\n      pop\n        /* \"#utility.yul\":3464:3535   */\n      tag_131\n        /* \"#utility.yul\":3532:3533   */\n      0x00\n        /* \"#utility.yul\":3521:3530   */\n      dup4\n        /* \"#utility.yul\":3517:3534   */\n      add\n        /* \"#utility.yul\":3508:3514   */\n      dup6\n        /* \"#utility.yul\":3464:3535   */\n      tag_77\n      jump\t// in\n    tag_131:\n        /* \"#utility.yul\":3545:3617   */\n      tag_132\n        /* \"#utility.yul\":3613:3615   */\n      0x20\n        /* \"#utility.yul\":3602:3611   */\n      dup4\n        /* \"#utility.yul\":3598:3616   */\n      add\n        /* \"#utility.yul\":3589:3595   */\n      dup5\n        /* \"#utility.yul\":3545:3617   */\n      tag_77\n      jump\t// in\n    tag_132:\n        /* \"#utility.yul\":3292:3624   */\n      swap4\n      swap3\n      pop\n      pop\n      pop\n      jump\t// out\n        /* \"#utility.yul\":3630:3773   */\n    tag_78:\n        /* \"#utility.yul\":3687:3692   */\n      0x00\n        /* \"#utility.yul\":3718:3724   */\n      dup2\n        /* \"#utility.yul\":3712:3725   */\n      mload\n        /* \"#utility.yul\":3703:3725   */\n      swap1\n      pop\n        /* \"#utility.yul\":3734:3767   */\n      tag_134\n        /* \"#utility.yul\":3761:3766   */\n      dup2\n        /* \"#utility.yul\":3734:3767   */\n      tag_75\n      jump\t// in\n    tag_134:\n        /* \"#utility.yul\":3630:3773   */\n      swap3\n      swap2\n      pop\n      pop\n      jump\t// out\n        /* \"#utility.yul\":3779:4130   */\n    tag_30:\n        /* \"#utility.yul\":3849:3855   */\n      0x00\n        /* \"#utility.yul\":3898:3900   */\n      0x20\n        /* \"#utility.yul\":3886:3895   */\n      dup3\n        /* \"#utility.yul\":3877:3884   */\n      dup5\n        /* \"#utility.yul\":3873:3896   */\n      sub\n        /* \"#utility.yul\":3869:3901   */\n      slt\n        /* \"#utility.yul\":3866:3985   */\n      iszero\n      tag_136\n      jumpi\n        /* \"#utility.yul\":3904:3983   */\n      tag_137\n      tag_69\n      jump\t// in\n    tag_137:\n        /* \"#utility.yul\":3866:3985   */\n    tag_136:\n        /* \"#utility.yul\":4024:4025   */\n      0x00\n        /* \"#utility.yul\":4049:4113   */\n      tag_138\n        /* \"#utility.yul\":4105:4112   */\n      dup5\n        /* \"#utility.yul\":4096:4102   */\n      dup3\n        /* \"#utility.yul\":4085:4094   */\n      dup6\n        /* \"#utility.yul\":4081:4103   */\n      add\n        /* \"#utility.yul\":4049:4113   */\n      tag_78\n      jump\t// in\n    tag_138:\n        /* \"#utility.yul\":4039:4113   */\n      swap2\n      pop\n        /* \"#utility.yul\":3995:4123   */\n      pop\n        /* \"#utility.yul\":3779:4130   */\n      swap3\n      swap2\n      pop\n      pop\n      jump\t// out\n        /* \"#utility.yul\":4136:4305   */\n    tag_79:\n        /* \"#utility.yul\":4220:4231   */\n      0x00\n        /* \"#utility.yul\":4254:4260   */\n      dup3\n        /* \"#utility.yul\":4249:4252   */\n      dup3\n        /* \"#utility.yul\":4242:4261   */\n      mstore\n        /* \"#utility.yul\":4294:4298   */\n      0x20\n        /* \"#utility.yul\":4289:4292   */\n      dup3\n        /* \"#utility.yul\":4285:4299   */\n      add\n        /* \"#utility.yul\":4270:4299   */\n      swap1\n      pop\n        /* \"#utility.yul\":4136:4305   */\n      swap3\n      swap2\n      pop\n      pop\n      jump\t// out\n        /* \"#utility.yul\":4311:4484   */\n    tag_80:\n        /* \"#utility.yul\":4451:4476   */\n      0x416c6c6f7720746f6b656e46726f6d20746f6f206c6f77000000000000000000\n        /* \"#utility.yul\":4447:4448   */\n      0x00\n        /* \"#utility.yul\":4439:4445   */\n      dup3\n        /* \"#utility.yul\":4435:4449   */\n      add\n        /* \"#utility.yul\":4428:4477   */\n      mstore\n        /* \"#utility.yul\":4311:4484   */\n      pop\n      jump\t// out\n        /* \"#utility.yul\":4490:4856   */\n    tag_81:\n        /* \"#utility.yul\":4632:4635   */\n      0x00\n        /* \"#utility.yul\":4653:4720   */\n      tag_142\n        /* \"#utility.yul\":4717:4719   */\n      0x17\n        /* \"#utility.yul\":4712:4715   */\n      dup4\n        /* \"#utility.yul\":4653:4720   */\n      tag_79\n      jump\t// in\n    tag_142:\n        /* \"#utility.yul\":4646:4720   */\n      swap2\n      pop\n        /* \"#utility.yul\":4729:4822   */\n      tag_143\n        /* \"#utility.yul\":4818:4821   */\n      dup3\n        /* \"#utility.yul\":4729:4822   */\n      tag_80\n      jump\t// in\n    tag_143:\n        /* \"#utility.yul\":4847:4849   */\n      0x20\n        /* \"#utility.yul\":4842:4845   */\n      dup3\n        /* \"#utility.yul\":4838:4850   */\n      add\n        /* \"#utility.yul\":4831:4850   */\n      swap1\n      pop\n        /* \"#utility.yul\":4490:4856   */\n      swap2\n      swap1\n      pop\n      jump\t// out\n        /* \"#utility.yul\":4862:5281   */\n    tag_33:\n        /* \"#utility.yul\":5028:5032   */\n      0x00\n        /* \"#utility.yul\":5066:5068   */\n      0x20\n        /* \"#utility.yul\":5055:5064   */\n      dup3\n        /* \"#utility.yul\":5051:5069   */\n      add\n        /* \"#utility.yul\":5043:5069   */\n      swap1\n      pop\n        /* \"#utility.yul\":5115:5124   */\n      dup2\n        /* \"#utility.yul\":5109:5113   */\n      dup2\n        /* \"#utility.yul\":5105:5125   */\n      sub\n        /* \"#utility.yul\":5101:5102   */\n      0x00\n        /* \"#utility.yul\":5090:5099   */\n      dup4\n        /* \"#utility.yul\":5086:5103   */\n      add\n        /* \"#utility.yul\":5079:5126   */\n      mstore\n        /* \"#utility.yul\":5143:5274   */\n      tag_145\n        /* \"#utility.yul\":5269:5273   */\n      dup2\n        /* \"#utility.yul\":5143:5274   */\n      tag_81\n      jump\t// in\n    tag_145:\n        /* \"#utility.yul\":5135:5274   */\n      swap1\n      pop\n        /* \"#utility.yul\":4862:5281   */\n      swap2\n      swap1\n      pop\n      jump\t// out\n        /* \"#utility.yul\":5287:5405   */\n    tag_82:\n        /* \"#utility.yul\":5374:5398   */\n      tag_147\n        /* \"#utility.yul\":5392:5397   */\n      dup2\n        /* \"#utility.yul\":5374:5398   */\n      tag_74\n      jump\t// in\n    tag_147:\n        /* \"#utility.yul\":5369:5372   */\n      dup3\n        /* \"#utility.yul\":5362:5399   */\n      mstore\n        /* \"#utility.yul\":5287:5405   */\n      pop\n      pop\n      jump\t// out\n        /* \"#utility.yul\":5411:5853   */\n    tag_46:\n        /* \"#utility.yul\":5560:5564   */\n      0x00\n        /* \"#utility.yul\":5598:5600   */\n      0x60\n        /* \"#utility.yul\":5587:5596   */\n      dup3\n        /* \"#utility.yul\":5583:5601   */\n      add\n        /* \"#utility.yul\":5575:5601   */\n      swap1\n      pop\n        /* \"#utility.yul\":5611:5682   */\n      tag_149\n        /* \"#utility.yul\":5679:5680   */\n      0x00\n        /* \"#utility.yul\":5668:5677   */\n      dup4\n        /* \"#utility.yul\":5664:5681   */\n      add\n        /* \"#utility.yul\":5655:5661   */\n      dup7\n        /* \"#utility.yul\":5611:5682   */\n      tag_77\n      jump\t// in\n    tag_149:\n        /* \"#utility.yul\":5692:5764   */\n      tag_150\n        /* \"#utility.yul\":5760:5762   */\n      0x20\n        /* \"#utility.yul\":5749:5758   */\n      dup4\n        /* \"#utility.yul\":5745:5763   */\n      add\n        /* \"#utility.yul\":5736:5742   */\n      dup6\n        /* \"#utility.yul\":5692:5764   */\n      tag_77\n      jump\t// in\n    tag_150:\n        /* \"#utility.yul\":5774:5846   */\n      tag_151\n        /* \"#utility.yul\":5842:5844   */\n      0x40\n        /* \"#utility.yul\":5831:5840   */\n      dup4\n        /* \"#utility.yul\":5827:5845   */\n      add\n        /* \"#utility.yul\":5818:5824   */\n      dup5\n        /* \"#utility.yul\":5774:5846   */\n      tag_82\n      jump\t// in\n    tag_151:\n        /* \"#utility.yul\":5411:5853   */\n      swap5\n      swap4\n      pop\n      pop\n      pop\n      pop\n      jump\t// out\n        /* \"#utility.yul\":5859:5949   */\n    tag_83:\n        /* \"#utility.yul\":5893:5900   */\n      0x00\n        /* \"#utility.yul\":5936:5941   */\n      dup2\n        /* \"#utility.yul\":5929:5942   */\n      iszero\n        /* \"#utility.yul\":5922:5943   */\n      iszero\n        /* \"#utility.yul\":5911:5943   */\n      swap1\n      pop\n        /* \"#utility.yul\":5859:5949   */\n      swap2\n      swap1\n      pop\n      jump\t// out\n        /* \"#utility.yul\":5955:6071   */\n    tag_84:\n        /* \"#utility.yul\":6025:6046   */\n      tag_154\n        /* \"#utility.yul\":6040:6045   */\n      dup2\n        /* \"#utility.yul\":6025:6046   */\n      tag_83\n      jump\t// in\n    tag_154:\n        /* \"#utility.yul\":6018:6023   */\n      dup2\n        /* \"#utility.yul\":6015:6047   */\n      eq\n        /* \"#utility.yul\":6005:6065   */\n      tag_155\n      jumpi\n        /* \"#utility.yul\":6061:6062   */\n      0x00\n        /* \"#utility.yul\":6058:6059   */\n      dup1\n        /* \"#utility.yul\":6051:6063   */\n      revert\n        /* \"#utility.yul\":6005:6065   */\n    tag_155:\n        /* \"#utility.yul\":5955:6071   */\n      pop\n      jump\t// out\n        /* \"#utility.yul\":6077:6214   */\n    tag_85:\n        /* \"#utility.yul\":6131:6136   */\n      0x00\n        /* \"#utility.yul\":6162:6168   */\n      dup2\n        /* \"#utility.yul\":6156:6169   */\n      mload\n        /* \"#utility.yul\":6147:6169   */\n      swap1\n      pop\n        /* \"#utility.yul\":6178:6208   */\n      tag_157\n        /* \"#utility.yul\":6202:6207   */\n      dup2\n        /* \"#utility.yul\":6178:6208   */\n      tag_84\n      jump\t// in\n    tag_157:\n        /* \"#utility.yul\":6077:6214   */\n      swap3\n      swap2\n      pop\n      pop\n      jump\t// out\n        /* \"#utility.yul\":6220:6565   */\n    tag_50:\n        /* \"#utility.yul\":6287:6293   */\n      0x00\n        /* \"#utility.yul\":6336:6338   */\n      0x20\n        /* \"#utility.yul\":6324:6333   */\n      dup3\n        /* \"#utility.yul\":6315:6322   */\n      dup5\n        /* \"#utility.yul\":6311:6334   */\n      sub\n        /* \"#utility.yul\":6307:6339   */\n      slt\n        /* \"#utility.yul\":6304:6423   */\n      iszero\n      tag_159\n      jumpi\n        /* \"#utility.yul\":6342:6421   */\n      tag_160\n      tag_69\n      jump\t// in\n    tag_160:\n        /* \"#utility.yul\":6304:6423   */\n    tag_159:\n        /* \"#utility.yul\":6462:6463   */\n      0x00\n        /* \"#utility.yul\":6487:6548   */\n      tag_161\n        /* \"#utility.yul\":6540:6547   */\n      dup5\n        /* \"#utility.yul\":6531:6537   */\n      dup3\n        /* \"#utility.yul\":6520:6529   */\n      dup6\n        /* \"#utility.yul\":6516:6538   */\n      add\n        /* \"#utility.yul\":6487:6548   */\n      tag_85\n      jump\t// in\n    tag_161:\n        /* \"#utility.yul\":6477:6548   */\n      swap2\n      pop\n        /* \"#utility.yul\":6433:6558   */\n      pop\n        /* \"#utility.yul\":6220:6565   */\n      swap3\n      swap2\n      pop\n      pop\n      jump\t// out\n        /* \"#utility.yul\":6571:6742   */\n    tag_86:\n        /* \"#utility.yul\":6711:6734   */\n      0x546f6b656e207472616e73666572206661696c65640000000000000000000000\n        /* \"#utility.yul\":6707:6708   */\n      0x00\n        /* \"#utility.yul\":6699:6705   */\n      dup3\n        /* \"#utility.yul\":6695:6709   */\n      add\n        /* \"#utility.yul\":6688:6735   */\n      mstore\n        /* \"#utility.yul\":6571:6742   */\n      pop\n      jump\t// out\n        /* \"#utility.yul\":6748:7114   */\n    tag_87:\n        /* \"#utility.yul\":6890:6893   */\n      0x00\n        /* \"#utility.yul\":6911:6978   */\n      tag_164\n        /* \"#utility.yul\":6975:6977   */\n      0x15\n        /* \"#utility.yul\":6970:6973   */\n      dup4\n        /* \"#utility.yul\":6911:6978   */\n      tag_79\n      jump\t// in\n    tag_164:\n        /* \"#utility.yul\":6904:6978   */\n      swap2\n      pop\n        /* \"#utility.yul\":6987:7080   */\n      tag_165\n        /* \"#utility.yul\":7076:7079   */\n      dup3\n        /* \"#utility.yul\":6987:7080   */\n      tag_86\n      jump\t// in\n    tag_165:\n        /* \"#utility.yul\":7105:7107   */\n      0x20\n        /* \"#utility.yul\":7100:7103   */\n      dup3\n        /* \"#utility.yul\":7096:7108   */\n      add\n        /* \"#utility.yul\":7089:7108   */\n      swap1\n      pop\n        /* \"#utility.yul\":6748:7114   */\n      swap2\n      swap1\n      pop\n      jump\t// out\n        /* \"#utility.yul\":7120:7539   */\n    tag_53:\n        /* \"#utility.yul\":7286:7290   */\n      0x00\n        /* \"#utility.yul\":7324:7326   */\n      0x20\n        /* \"#utility.yul\":7313:7322   */\n      dup3\n        /* \"#utility.yul\":7309:7327   */\n      add\n        /* \"#utility.yul\":7301:7327   */\n      swap1\n      pop\n        /* \"#utility.yul\":7373:7382   */\n      dup2\n        /* \"#utility.yul\":7367:7371   */\n      dup2\n        /* \"#utility.yul\":7363:7383   */\n      sub\n        /* \"#utility.yul\":7359:7360   */\n      0x00\n        /* \"#utility.yul\":7348:7357   */\n      dup4\n        /* \"#utility.yul\":7344:7361   */\n      add\n        /* \"#utility.yul\":7337:7384   */\n      mstore\n        /* \"#utility.yul\":7401:7532   */\n      tag_167\n        /* \"#utility.yul\":7527:7531   */\n      dup2\n        /* \"#utility.yul\":7401:7532   */\n      tag_87\n      jump\t// in\n    tag_167:\n        /* \"#utility.yul\":7393:7532   */\n      swap1\n      pop\n        /* \"#utility.yul\":7120:7539   */\n      swap2\n      swap1\n      pop\n      jump\t// out\n        /* \"#utility.yul\":7545:7877   */\n    tag_56:\n        /* \"#utility.yul\":7666:7670   */\n      0x00\n        /* \"#utility.yul\":7704:7706   */\n      0x40\n        /* \"#utility.yul\":7693:7702   */\n      dup3\n        /* \"#utility.yul\":7689:7707   */\n      add\n        /* \"#utility.yul\":7681:7707   */\n      swap1\n      pop\n        /* \"#utility.yul\":7717:7788   */\n      tag_169\n        /* \"#utility.yul\":7785:7786   */\n      0x00\n        /* \"#utility.yul\":7774:7783   */\n      dup4\n        /* \"#utility.yul\":7770:7787   */\n      add\n        /* \"#utility.yul\":7761:7767   */\n      dup6\n        /* \"#utility.yul\":7717:7788   */\n      tag_77\n      jump\t// in\n    tag_169:\n        /* \"#utility.yul\":7798:7870   */\n      tag_170\n        /* \"#utility.yul\":7866:7868   */\n      0x20\n        /* \"#utility.yul\":7855:7864   */\n      dup4\n        /* \"#utility.yul\":7851:7869   */\n      add\n        /* \"#utility.yul\":7842:7848   */\n      dup5\n        /* \"#utility.yul\":7798:7870   */\n      tag_82\n      jump\t// in\n    tag_170:\n        /* \"#utility.yul\":7545:7877   */\n      swap4\n      swap3\n      pop\n      pop\n      pop\n      jump\t// out\n\n    auxdata: 0xa26469706673582212203723fb8294da0758af60c5c63fcb598727bc3ed893ed412eb1eec77125f715da64736f6c634300080d0033\n}\n",
				"bytecode": {
					"linkReferences": {},
					"object": "608060405234801561001057600080fd5b50610950806100206000396000f3fe6080604052600436106100385760003560e01c80637c153534146100415780637ddf33201461006c578063c17b7326146100955761003f565b3661003f57005b005b34801561004d57600080fd5b506100566100c0565b60405161006391906105c2565b60405180910390f35b34801561007857600080fd5b50610093600480360381019061008e9190610656565b6100e4565b005b3480156100a157600080fd5b506100aa61038a565b6040516100b791906105c2565b60405180910390f35b60008054906101000a900473ffffffffffffffffffffffffffffffffffffffff1681565b6000339050866000806101000a81548173ffffffffffffffffffffffffffffffffffffffff021916908373ffffffffffffffffffffffffffffffffffffffff16021790555083600160006101000a81548173ffffffffffffffffffffffffffffffffffffffff021916908373ffffffffffffffffffffffffffffffffffffffff1602179055508460008054906101000a900473ffffffffffffffffffffffffffffffffffffffff1673ffffffffffffffffffffffffffffffffffffffff1663dd62ed3e88306040518363ffffffff1660e01b81526004016101c69291906106f2565b602060405180830381865afa1580156101e3573d6000803e3d6000fd5b505050506040513d601f19601f820116820180604052508101906102079190610730565b1015610248576040517f08c379a000000000000000000000000000000000000000000000000000000000815260040161023f906107ba565b60405180910390fd5b84600160009054906101000a900473ffffffffffffffffffffffffffffffffffffffff1673ffffffffffffffffffffffffffffffffffffffff1663dd62ed3e88306040518363ffffffff1660e01b81526004016102a69291906106f2565b602060405180830381865afa1580156102c3573d6000803e3d6000fd5b505050506040513d601f19601f820116820180604052508101906102e79190610730565b1015610328576040517f08c379a000000000000000000000000000000000000000000000000000000000815260040161031f906107ba565b60405180910390fd5b61035460008054906101000a900473ffffffffffffffffffffffffffffffffffffffff168230886103b0565b610381600160009054906101000a900473ffffffffffffffffffffffffffffffffffffffff16828461047b565b50505050505050565b600160009054906101000a900473ffffffffffffffffffffffffffffffffffffffff1681565b60008473ffffffffffffffffffffffffffffffffffffffff166323b872dd8585856040518463ffffffff1660e01b81526004016103ef939291906107e9565b6020604051808303816000875af115801561040e573d6000803e3d6000fd5b505050506040513d601f19601f820116820180604052508101906104329190610858565b905080610474576040517f08c379a000000000000000000000000000000000000000000000000000000000815260040161046b906108d1565b60405180910390fd5b5050505050565b60008373ffffffffffffffffffffffffffffffffffffffff1663a9059cbb84846040518363ffffffff1660e01b81526004016104b89291906108f1565b6020604051808303816000875af11580156104d7573d6000803e3d6000fd5b505050506040513d601f19601f820116820180604052508101906104fb9190610858565b90508061053d576040517f08c379a0000000000000000000000000000000000000000000000000000000008152600401610534906108d1565b60405180910390fd5b50505050565b600073ffffffffffffffffffffffffffffffffffffffff82169050919050565b6000819050919050565b600061058861058361057e84610543565b610563565b610543565b9050919050565b600061059a8261056d565b9050919050565b60006105ac8261058f565b9050919050565b6105bc816105a1565b82525050565b60006020820190506105d760008301846105b3565b92915050565b600080fd5b60006105ed82610543565b9050919050565b6105fd816105e2565b811461060857600080fd5b50565b60008135905061061a816105f4565b92915050565b6000819050919050565b61063381610620565b811461063e57600080fd5b50565b6000813590506106508161062a565b92915050565b60008060008060008060c08789031215610673576106726105dd565b5b600061068189828a0161060b565b965050602061069289828a0161060b565b95505060406106a389828a01610641565b94505060606106b489828a0161060b565b93505060806106c589828a0161060b565b92505060a06106d689828a01610641565b9150509295509295509295565b6106ec816105e2565b82525050565b600060408201905061070760008301856106e3565b61071460208301846106e3565b9392505050565b60008151905061072a8161062a565b92915050565b600060208284031215610746576107456105dd565b5b60006107548482850161071b565b91505092915050565b600082825260208201905092915050565b7f416c6c6f7720746f6b656e46726f6d20746f6f206c6f77000000000000000000600082015250565b60006107a460178361075d565b91506107af8261076e565b602082019050919050565b600060208201905081810360008301526107d381610797565b9050919050565b6107e381610620565b82525050565b60006060820190506107fe60008301866106e3565b61080b60208301856106e3565b61081860408301846107da565b949350505050565b60008115159050919050565b61083581610820565b811461084057600080fd5b50565b6000815190506108528161082c565b92915050565b60006020828403121561086e5761086d6105dd565b5b600061087c84828501610843565b91505092915050565b7f546f6b656e207472616e73666572206661696c65640000000000000000000000600082015250565b60006108bb60158361075d565b91506108c682610885565b602082019050919050565b600060208201905081810360008301526108ea816108ae565b9050919050565b600060408201905061090660008301856106e3565b61091360208301846107da565b939250505056fea26469706673582212203723fb8294da0758af60c5c63fcb598727bc3ed893ed412eb1eec77125f715da64736f6c634300080d0033",
					"opcodes": "PUSH1 0x80 PUSH1 0x40 MSTORE CALLVALUE DUP1 ISZERO PUSH2 0x10 JUMPI PUSH1 0x0 DUP1 REVERT JUMPDEST POP PUSH2 0x950 DUP1 PUSH2 0x20 PUSH1 0x0 CODECOPY PUSH1 0x0 RETURN INVALID PUSH1 0x80 PUSH1 0x40 MSTORE PUSH1 0x4 CALLDATASIZE LT PUSH2 0x38 JUMPI PUSH1 0x0 CALLDATALOAD PUSH1 0xE0 SHR DUP1 PUSH4 0x7C153534 EQ PUSH2 0x41 JUMPI DUP1 PUSH4 0x7DDF3320 EQ PUSH2 0x6C JUMPI DUP1 PUSH4 0xC17B7326 EQ PUSH2 0x95 JUMPI PUSH2 0x3F JUMP JUMPDEST CALLDATASIZE PUSH2 0x3F JUMPI STOP JUMPDEST STOP JUMPDEST CALLVALUE DUP1 ISZERO PUSH2 0x4D JUMPI PUSH1 0x0 DUP1 REVERT JUMPDEST POP PUSH2 0x56 PUSH2 0xC0 JUMP JUMPDEST PUSH1 0x40 MLOAD PUSH2 0x63 SWAP2 SWAP1 PUSH2 0x5C2 JUMP JUMPDEST PUSH1 0x40 MLOAD DUP1 SWAP2 SUB SWAP1 RETURN JUMPDEST CALLVALUE DUP1 ISZERO PUSH2 0x78 JUMPI PUSH1 0x0 DUP1 REVERT JUMPDEST POP PUSH2 0x93 PUSH1 0x4 DUP1 CALLDATASIZE SUB DUP2 ADD SWAP1 PUSH2 0x8E SWAP2 SWAP1 PUSH2 0x656 JUMP JUMPDEST PUSH2 0xE4 JUMP JUMPDEST STOP JUMPDEST CALLVALUE DUP1 ISZERO PUSH2 0xA1 JUMPI PUSH1 0x0 DUP1 REVERT JUMPDEST POP PUSH2 0xAA PUSH2 0x38A JUMP JUMPDEST PUSH1 0x40 MLOAD PUSH2 0xB7 SWAP2 SWAP1 PUSH2 0x5C2 JUMP JUMPDEST PUSH1 0x40 MLOAD DUP1 SWAP2 SUB SWAP1 RETURN JUMPDEST PUSH1 0x0 DUP1 SLOAD SWAP1 PUSH2 0x100 EXP SWAP1 DIV PUSH20 0xFFFFFFFFFFFFFFFFFFFFFFFFFFFFFFFFFFFFFFFF AND DUP2 JUMP JUMPDEST PUSH1 0x0 CALLER SWAP1 POP DUP7 PUSH1 0x0 DUP1 PUSH2 0x100 EXP DUP2 SLOAD DUP2 PUSH20 0xFFFFFFFFFFFFFFFFFFFFFFFFFFFFFFFFFFFFFFFF MUL NOT AND SWAP1 DUP4 PUSH20 0xFFFFFFFFFFFFFFFFFFFFFFFFFFFFFFFFFFFFFFFF AND MUL OR SWAP1 SSTORE POP DUP4 PUSH1 0x1 PUSH1 0x0 PUSH2 0x100 EXP DUP2 SLOAD DUP2 PUSH20 0xFFFFFFFFFFFFFFFFFFFFFFFFFFFFFFFFFFFFFFFF MUL NOT AND SWAP1 DUP4 PUSH20 0xFFFFFFFFFFFFFFFFFFFFFFFFFFFFFFFFFFFFFFFF AND MUL OR SWAP1 SSTORE POP DUP5 PUSH1 0x0 DUP1 SLOAD SWAP1 PUSH2 0x100 EXP SWAP1 DIV PUSH20 0xFFFFFFFFFFFFFFFFFFFFFFFFFFFFFFFFFFFFFFFF AND PUSH20 0xFFFFFFFFFFFFFFFFFFFFFFFFFFFFFFFFFFFFFFFF AND PUSH4 0xDD62ED3E DUP9 ADDRESS PUSH1 0x40 MLOAD DUP4 PUSH4 0xFFFFFFFF AND PUSH1 0xE0 SHL DUP2 MSTORE PUSH1 0x4 ADD PUSH2 0x1C6 SWAP3 SWAP2 SWAP1 PUSH2 0x6F2 JUMP JUMPDEST PUSH1 0x20 PUSH1 0x40 MLOAD DUP1 DUP4 SUB DUP2 DUP7 GAS STATICCALL ISZERO DUP1 ISZERO PUSH2 0x1E3 JUMPI RETURNDATASIZE PUSH1 0x0 DUP1 RETURNDATACOPY RETURNDATASIZE PUSH1 0x0 REVERT JUMPDEST POP POP POP POP PUSH1 0x40 MLOAD RETURNDATASIZE PUSH1 0x1F NOT PUSH1 0x1F DUP3 ADD AND DUP3 ADD DUP1 PUSH1 0x40 MSTORE POP DUP2 ADD SWAP1 PUSH2 0x207 SWAP2 SWAP1 PUSH2 0x730 JUMP JUMPDEST LT ISZERO PUSH2 0x248 JUMPI PUSH1 0x40 MLOAD PUSH32 0x8C379A000000000000000000000000000000000000000000000000000000000 DUP2 MSTORE PUSH1 0x4 ADD PUSH2 0x23F SWAP1 PUSH2 0x7BA JUMP JUMPDEST PUSH1 0x40 MLOAD DUP1 SWAP2 SUB SWAP1 REVERT JUMPDEST DUP5 PUSH1 0x1 PUSH1 0x0 SWAP1 SLOAD SWAP1 PUSH2 0x100 EXP SWAP1 DIV PUSH20 0xFFFFFFFFFFFFFFFFFFFFFFFFFFFFFFFFFFFFFFFF AND PUSH20 0xFFFFFFFFFFFFFFFFFFFFFFFFFFFFFFFFFFFFFFFF AND PUSH4 0xDD62ED3E DUP9 ADDRESS PUSH1 0x40 MLOAD DUP4 PUSH4 0xFFFFFFFF AND PUSH1 0xE0 SHL DUP2 MSTORE PUSH1 0x4 ADD PUSH2 0x2A6 SWAP3 SWAP2 SWAP1 PUSH2 0x6F2 JUMP JUMPDEST PUSH1 0x20 PUSH1 0x40 MLOAD DUP1 DUP4 SUB DUP2 DUP7 GAS STATICCALL ISZERO DUP1 ISZERO PUSH2 0x2C3 JUMPI RETURNDATASIZE PUSH1 0x0 DUP1 RETURNDATACOPY RETURNDATASIZE PUSH1 0x0 REVERT JUMPDEST POP POP POP POP PUSH1 0x40 MLOAD RETURNDATASIZE PUSH1 0x1F NOT PUSH1 0x1F DUP3 ADD AND DUP3 ADD DUP1 PUSH1 0x40 MSTORE POP DUP2 ADD SWAP1 PUSH2 0x2E7 SWAP2 SWAP1 PUSH2 0x730 JUMP JUMPDEST LT ISZERO PUSH2 0x328 JUMPI PUSH1 0x40 MLOAD PUSH32 0x8C379A000000000000000000000000000000000000000000000000000000000 DUP2 MSTORE PUSH1 0x4 ADD PUSH2 0x31F SWAP1 PUSH2 0x7BA JUMP JUMPDEST PUSH1 0x40 MLOAD DUP1 SWAP2 SUB SWAP1 REVERT JUMPDEST PUSH2 0x354 PUSH1 0x0 DUP1 SLOAD SWAP1 PUSH2 0x100 EXP SWAP1 DIV PUSH20 0xFFFFFFFFFFFFFFFFFFFFFFFFFFFFFFFFFFFFFFFF AND DUP3 ADDRESS DUP9 PUSH2 0x3B0 JUMP JUMPDEST PUSH2 0x381 PUSH1 0x1 PUSH1 0x0 SWAP1 SLOAD SWAP1 PUSH2 0x100 EXP SWAP1 DIV PUSH20 0xFFFFFFFFFFFFFFFFFFFFFFFFFFFFFFFFFFFFFFFF AND DUP3 DUP5 PUSH2 0x47B JUMP JUMPDEST POP POP POP POP POP POP POP JUMP JUMPDEST PUSH1 0x1 PUSH1 0x0 SWAP1 SLOAD SWAP1 PUSH2 0x100 EXP SWAP1 DIV PUSH20 0xFFFFFFFFFFFFFFFFFFFFFFFFFFFFFFFFFFFFFFFF AND DUP2 JUMP JUMPDEST PUSH1 0x0 DUP5 PUSH20 0xFFFFFFFFFFFFFFFFFFFFFFFFFFFFFFFFFFFFFFFF AND PUSH4 0x23B872DD DUP6 DUP6 DUP6 PUSH1 0x40 MLOAD DUP5 PUSH4 0xFFFFFFFF AND PUSH1 0xE0 SHL DUP2 MSTORE PUSH1 0x4 ADD PUSH2 0x3EF SWAP4 SWAP3 SWAP2 SWAP1 PUSH2 0x7E9 JUMP JUMPDEST PUSH1 0x20 PUSH1 0x40 MLOAD DUP1 DUP4 SUB DUP2 PUSH1 0x0 DUP8 GAS CALL ISZERO DUP1 ISZERO PUSH2 0x40E JUMPI RETURNDATASIZE PUSH1 0x0 DUP1 RETURNDATACOPY RETURNDATASIZE PUSH1 0x0 REVERT JUMPDEST POP POP POP POP PUSH1 0x40 MLOAD RETURNDATASIZE PUSH1 0x1F NOT PUSH1 0x1F DUP3 ADD AND DUP3 ADD DUP1 PUSH1 0x40 MSTORE POP DUP2 ADD SWAP1 PUSH2 0x432 SWAP2 SWAP1 PUSH2 0x858 JUMP JUMPDEST SWAP1 POP DUP1 PUSH2 0x474 JUMPI PUSH1 0x40 MLOAD PUSH32 0x8C379A000000000000000000000000000000000000000000000000000000000 DUP2 MSTORE PUSH1 0x4 ADD PUSH2 0x46B SWAP1 PUSH2 0x8D1 JUMP JUMPDEST PUSH1 0x40 MLOAD DUP1 SWAP2 SUB SWAP1 REVERT JUMPDEST POP POP POP POP POP JUMP JUMPDEST PUSH1 0x0 DUP4 PUSH20 0xFFFFFFFFFFFFFFFFFFFFFFFFFFFFFFFFFFFFFFFF AND PUSH4 0xA9059CBB DUP5 DUP5 PUSH1 0x40 MLOAD DUP4 PUSH4 0xFFFFFFFF AND PUSH1 0xE0 SHL DUP2 MSTORE PUSH1 0x4 ADD PUSH2 0x4B8 SWAP3 SWAP2 SWAP1 PUSH2 0x8F1 JUMP JUMPDEST PUSH1 0x20 PUSH1 0x40 MLOAD DUP1 DUP4 SUB DUP2 PUSH1 0x0 DUP8 GAS CALL ISZERO DUP1 ISZERO PUSH2 0x4D7 JUMPI RETURNDATASIZE PUSH1 0x0 DUP1 RETURNDATACOPY RETURNDATASIZE PUSH1 0x0 REVERT JUMPDEST POP POP POP POP PUSH1 0x40 MLOAD RETURNDATASIZE PUSH1 0x1F NOT PUSH1 0x1F DUP3 ADD AND DUP3 ADD DUP1 PUSH1 0x40 MSTORE POP DUP2 ADD SWAP1 PUSH2 0x4FB SWAP2 SWAP1 PUSH2 0x858 JUMP JUMPDEST SWAP1 POP DUP1 PUSH2 0x53D JUMPI PUSH1 0x40 MLOAD PUSH32 0x8C379A000000000000000000000000000000000000000000000000000000000 DUP2 MSTORE PUSH1 0x4 ADD PUSH2 0x534 SWAP1 PUSH2 0x8D1 JUMP JUMPDEST PUSH1 0x40 MLOAD DUP1 SWAP2 SUB SWAP1 REVERT JUMPDEST POP POP POP POP JUMP JUMPDEST PUSH1 0x0 PUSH20 0xFFFFFFFFFFFFFFFFFFFFFFFFFFFFFFFFFFFFFFFF DUP3 AND SWAP1 POP SWAP2 SWAP1 POP JUMP JUMPDEST PUSH1 0x0 DUP2 SWAP1 POP SWAP2 SWAP1 POP JUMP JUMPDEST PUSH1 0x0 PUSH2 0x588 PUSH2 0x583 PUSH2 0x57E DUP5 PUSH2 0x543 JUMP JUMPDEST PUSH2 0x563 JUMP JUMPDEST PUSH2 0x543 JUMP JUMPDEST SWAP1 POP SWAP2 SWAP1 POP JUMP JUMPDEST PUSH1 0x0 PUSH2 0x59A DUP3 PUSH2 0x56D JUMP JUMPDEST SWAP1 POP SWAP2 SWAP1 POP JUMP JUMPDEST PUSH1 0x0 PUSH2 0x5AC DUP3 PUSH2 0x58F JUMP JUMPDEST SWAP1 POP SWAP2 SWAP1 POP JUMP JUMPDEST PUSH2 0x5BC DUP2 PUSH2 0x5A1 JUMP JUMPDEST DUP3 MSTORE POP POP JUMP JUMPDEST PUSH1 0x0 PUSH1 0x20 DUP3 ADD SWAP1 POP PUSH2 0x5D7 PUSH1 0x0 DUP4 ADD DUP5 PUSH2 0x5B3 JUMP JUMPDEST SWAP3 SWAP2 POP POP JUMP JUMPDEST PUSH1 0x0 DUP1 REVERT JUMPDEST PUSH1 0x0 PUSH2 0x5ED DUP3 PUSH2 0x543 JUMP JUMPDEST SWAP1 POP SWAP2 SWAP1 POP JUMP JUMPDEST PUSH2 0x5FD DUP2 PUSH2 0x5E2 JUMP JUMPDEST DUP2 EQ PUSH2 0x608 JUMPI PUSH1 0x0 DUP1 REVERT JUMPDEST POP JUMP JUMPDEST PUSH1 0x0 DUP2 CALLDATALOAD SWAP1 POP PUSH2 0x61A DUP2 PUSH2 0x5F4 JUMP JUMPDEST SWAP3 SWAP2 POP POP JUMP JUMPDEST PUSH1 0x0 DUP2 SWAP1 POP SWAP2 SWAP1 POP JUMP JUMPDEST PUSH2 0x633 DUP2 PUSH2 0x620 JUMP JUMPDEST DUP2 EQ PUSH2 0x63E JUMPI PUSH1 0x0 DUP1 REVERT JUMPDEST POP JUMP JUMPDEST PUSH1 0x0 DUP2 CALLDATALOAD SWAP1 POP PUSH2 0x650 DUP2 PUSH2 0x62A JUMP JUMPDEST SWAP3 SWAP2 POP POP JUMP JUMPDEST PUSH1 0x0 DUP1 PUSH1 0x0 DUP1 PUSH1 0x0 DUP1 PUSH1 0xC0 DUP8 DUP10 SUB SLT ISZERO PUSH2 0x673 JUMPI PUSH2 0x672 PUSH2 0x5DD JUMP JUMPDEST JUMPDEST PUSH1 0x0 PUSH2 0x681 DUP10 DUP3 DUP11 ADD PUSH2 0x60B JUMP JUMPDEST SWAP7 POP POP PUSH1 0x20 PUSH2 0x692 DUP10 DUP3 DUP11 ADD PUSH2 0x60B JUMP JUMPDEST SWAP6 POP POP PUSH1 0x40 PUSH2 0x6A3 DUP10 DUP3 DUP11 ADD PUSH2 0x641 JUMP JUMPDEST SWAP5 POP POP PUSH1 0x60 PUSH2 0x6B4 DUP10 DUP3 DUP11 ADD PUSH2 0x60B JUMP JUMPDEST SWAP4 POP POP PUSH1 0x80 PUSH2 0x6C5 DUP10 DUP3 DUP11 ADD PUSH2 0x60B JUMP JUMPDEST SWAP3 POP POP PUSH1 0xA0 PUSH2 0x6D6 DUP10 DUP3 DUP11 ADD PUSH2 0x641 JUMP JUMPDEST SWAP2 POP POP SWAP3 SWAP6 POP SWAP3 SWAP6 POP SWAP3 SWAP6 JUMP JUMPDEST PUSH2 0x6EC DUP2 PUSH2 0x5E2 JUMP JUMPDEST DUP3 MSTORE POP POP JUMP JUMPDEST PUSH1 0x0 PUSH1 0x40 DUP3 ADD SWAP1 POP PUSH2 0x707 PUSH1 0x0 DUP4 ADD DUP6 PUSH2 0x6E3 JUMP JUMPDEST PUSH2 0x714 PUSH1 0x20 DUP4 ADD DUP5 PUSH2 0x6E3 JUMP JUMPDEST SWAP4 SWAP3 POP POP POP JUMP JUMPDEST PUSH1 0x0 DUP2 MLOAD SWAP1 POP PUSH2 0x72A DUP2 PUSH2 0x62A JUMP JUMPDEST SWAP3 SWAP2 POP POP JUMP JUMPDEST PUSH1 0x0 PUSH1 0x20 DUP3 DUP5 SUB SLT ISZERO PUSH2 0x746 JUMPI PUSH2 0x745 PUSH2 0x5DD JUMP JUMPDEST JUMPDEST PUSH1 0x0 PUSH2 0x754 DUP5 DUP3 DUP6 ADD PUSH2 0x71B JUMP JUMPDEST SWAP2 POP POP SWAP3 SWAP2 POP POP JUMP JUMPDEST PUSH1 0x0 DUP3 DUP3 MSTORE PUSH1 0x20 DUP3 ADD SWAP1 POP SWAP3 SWAP2 POP POP JUMP JUMPDEST PUSH32 0x416C6C6F7720746F6B656E46726F6D20746F6F206C6F77000000000000000000 PUSH1 0x0 DUP3 ADD MSTORE POP JUMP JUMPDEST PUSH1 0x0 PUSH2 0x7A4 PUSH1 0x17 DUP4 PUSH2 0x75D JUMP JUMPDEST SWAP2 POP PUSH2 0x7AF DUP3 PUSH2 0x76E JUMP JUMPDEST PUSH1 0x20 DUP3 ADD SWAP1 POP SWAP2 SWAP1 POP JUMP JUMPDEST PUSH1 0x0 PUSH1 0x20 DUP3 ADD SWAP1 POP DUP2 DUP2 SUB PUSH1 0x0 DUP4 ADD MSTORE PUSH2 0x7D3 DUP2 PUSH2 0x797 JUMP JUMPDEST SWAP1 POP SWAP2 SWAP1 POP JUMP JUMPDEST PUSH2 0x7E3 DUP2 PUSH2 0x620 JUMP JUMPDEST DUP3 MSTORE POP POP JUMP JUMPDEST PUSH1 0x0 PUSH1 0x60 DUP3 ADD SWAP1 POP PUSH2 0x7FE PUSH1 0x0 DUP4 ADD DUP7 PUSH2 0x6E3 JUMP JUMPDEST PUSH2 0x80B PUSH1 0x20 DUP4 ADD DUP6 PUSH2 0x6E3 JUMP JUMPDEST PUSH2 0x818 PUSH1 0x40 DUP4 ADD DUP5 PUSH2 0x7DA JUMP JUMPDEST SWAP5 SWAP4 POP POP POP POP JUMP JUMPDEST PUSH1 0x0 DUP2 ISZERO ISZERO SWAP1 POP SWAP2 SWAP1 POP JUMP JUMPDEST PUSH2 0x835 DUP2 PUSH2 0x820 JUMP JUMPDEST DUP2 EQ PUSH2 0x840 JUMPI PUSH1 0x0 DUP1 REVERT JUMPDEST POP JUMP JUMPDEST PUSH1 0x0 DUP2 MLOAD SWAP1 POP PUSH2 0x852 DUP2 PUSH2 0x82C JUMP JUMPDEST SWAP3 SWAP2 POP POP JUMP JUMPDEST PUSH1 0x0 PUSH1 0x20 DUP3 DUP5 SUB SLT ISZERO PUSH2 0x86E JUMPI PUSH2 0x86D PUSH2 0x5DD JUMP JUMPDEST JUMPDEST PUSH1 0x0 PUSH2 0x87C DUP5 DUP3 DUP6 ADD PUSH2 0x843 JUMP JUMPDEST SWAP2 POP POP SWAP3 SWAP2 POP POP JUMP JUMPDEST PUSH32 0x546F6B656E207472616E73666572206661696C65640000000000000000000000 PUSH1 0x0 DUP3 ADD MSTORE POP JUMP JUMPDEST PUSH1 0x0 PUSH2 0x8BB PUSH1 0x15 DUP4 PUSH2 0x75D JUMP JUMPDEST SWAP2 POP PUSH2 0x8C6 DUP3 PUSH2 0x885 JUMP JUMPDEST PUSH1 0x20 DUP3 ADD SWAP1 POP SWAP2 SWAP1 POP JUMP JUMPDEST PUSH1 0x0 PUSH1 0x20 DUP3 ADD SWAP1 POP DUP2 DUP2 SUB PUSH1 0x0 DUP4 ADD MSTORE PUSH2 0x8EA DUP2 PUSH2 0x8AE JUMP JUMPDEST SWAP1 POP SWAP2 SWAP1 POP JUMP JUMPDEST PUSH1 0x0 PUSH1 0x40 DUP3 ADD SWAP1 POP PUSH2 0x906 PUSH1 0x0 DUP4 ADD DUP6 PUSH2 0x6E3 JUMP JUMPDEST PUSH2 0x913 PUSH1 0x20 DUP4 ADD DUP5 PUSH2 0x7DA JUMP JUMPDEST SWAP4 SWAP3 POP POP POP JUMP INVALID LOG2 PUSH5 0x6970667358 0x22 SLT KECCAK256 CALLDATACOPY 0x23 0xFB DUP3 SWAP5 0xDA SMOD PC 0xAF PUSH1 0xC5 0xC6 EXTCODEHASH 0xCB MSIZE DUP8 0x27 0xBC RETURNDATACOPY 0xD8 SWAP4 0xED COINBASE 0x2E 0xB1 0xEE 0xC7 PUSH18 0x25F715DA64736F6C634300080D0033000000 "
				},
				"gasEstimates": {
					"creation": {
						"codeDepositCost": "476800",
						"executionCost": "511",
						"totalCost": "477311"
					},
					"external": {
						"": "129",
						"swap(address,address,uint256,address,address,uint256)": "infinite",
						"tokenFrom()": "infinite",
						"tokenTo()": "infinite"
					},
					"internal": {
						"_safeTransfer(contract IERC20,address,uint256)": "infinite",
						"_safeTransferFrom(contract IERC20,address,address,uint256)": "infinite"
					}
				},
				"methodIdentifiers": {
					"swap(address,address,uint256,address,address,uint256)": "7ddf3320",
					"tokenFrom()": "7c153534",
					"tokenTo()": "c17b7326"
				}
			},
			"userdoc": {
				"kind": "user",
				"methods": {},
				"version": 1
			}
		}
	}
}