{
	"contracts/FeeCollector.sol": {
		"FeeCollector": {
			"abi": [
				{
					"inputs": [],
					"stateMutability": "nonpayable",
					"type": "constructor"
				},
				{
					"anonymous": false,
					"inputs": [
						{
							"indexed": false,
							"internalType": "address",
							"name": "_from",
							"type": "address"
						},
						{
							"indexed": false,
							"internalType": "uint256",
							"name": "_amount",
							"type": "uint256"
						}
					],
					"name": "TransferReceived",
					"type": "event"
				},
				{
					"anonymous": false,
					"inputs": [
						{
							"indexed": false,
							"internalType": "address",
							"name": "_from",
							"type": "address"
						},
						{
							"indexed": false,
							"internalType": "address",
							"name": "_destAddr",
							"type": "address"
						},
						{
							"indexed": false,
							"internalType": "uint256",
							"name": "_amount",
							"type": "uint256"
						}
					],
					"name": "TransferSent",
					"type": "event"
				},
				{
					"inputs": [],
					"name": "balance",
					"outputs": [
						{
							"internalType": "uint256",
							"name": "",
							"type": "uint256"
						}
					],
					"stateMutability": "view",
					"type": "function"
				},
				{
					"inputs": [],
					"name": "owner",
					"outputs": [
						{
							"internalType": "address",
							"name": "",
							"type": "address"
						}
					],
					"stateMutability": "view",
					"type": "function"
				},
				{
					"inputs": [
						{
							"internalType": "contract IERC20",
							"name": "token",
							"type": "address"
						},
						{
							"internalType": "address",
							"name": "to",
							"type": "address"
						},
						{
							"internalType": "uint256",
							"name": "amount",
							"type": "uint256"
						}
					],
					"name": "transferERC20",
					"outputs": [],
					"stateMutability": "nonpayable",
					"type": "function"
				},
				{
					"inputs": [
						{
							"internalType": "uint256",
							"name": "amount",
							"type": "uint256"
						},
						{
							"internalType": "address payable",
							"name": "destAddr",
							"type": "address"
						}
					],
					"name": "withdraw",
					"outputs": [],
					"stateMutability": "nonpayable",
					"type": "function"
				},
				{
					"stateMutability": "payable",
					"type": "receive"
				}
			],
			"devdoc": {
				"kind": "dev",
				"methods": {},
				"version": 1
			},
			"evm": {
				"assembly": "    /* \"contracts/FeeCollector.sol\":89:1203  contract FeeCollector  {... */\n  mstore(0x40, 0x80)\n    /* \"contracts/FeeCollector.sol\":311:360  constructor() {... */\n  callvalue\n  dup1\n  iszero\n  tag_1\n  jumpi\n  0x00\n  dup1\n  revert\ntag_1:\n  pop\n    /* \"contracts/FeeCollector.sol\":343:353  msg.sender */\n  caller\n    /* \"contracts/FeeCollector.sol\":335:340  owner */\n  0x00\n  dup1\n    /* \"contracts/FeeCollector.sol\":335:353  owner = msg.sender */\n  0x0100\n  exp\n  dup2\n  sload\n  dup2\n  0xffffffffffffffffffffffffffffffffffffffff\n  mul\n  not\n  and\n  swap1\n  dup4\n  0xffffffffffffffffffffffffffffffffffffffff\n  and\n  mul\n  or\n  swap1\n  sstore\n  pop\n    /* \"contracts/FeeCollector.sol\":89:1203  contract FeeCollector  {... */\n  dataSize(sub_0)\n  dup1\n  dataOffset(sub_0)\n  0x00\n  codecopy\n  0x00\n  return\nstop\n\nsub_0: assembly {\n        /* \"contracts/FeeCollector.sol\":89:1203  contract FeeCollector  {... */\n      mstore(0x40, 0x80)\n      jumpi(tag_1, lt(calldatasize, 0x04))\n      shr(0xe0, calldataload(0x00))\n      dup1\n      0xf714ce\n      eq\n      tag_3\n      jumpi\n      dup1\n      0x8da5cb5b\n      eq\n      tag_4\n      jumpi\n      dup1\n      0x9db5dbe4\n      eq\n      tag_5\n      jumpi\n      dup1\n      0xb69ef8a8\n      eq\n      tag_6\n      jumpi\n      jump(tag_2)\n    tag_1:\n      jumpi(tag_2, calldatasize)\n        /* \"contracts/FeeCollector.sol\":418:427  msg.value */\n      callvalue\n        /* \"contracts/FeeCollector.sol\":407:414  balance */\n      0x01\n      0x00\n        /* \"contracts/FeeCollector.sol\":407:427  balance += msg.value */\n      dup3\n      dup3\n      sload\n      tag_9\n      swap2\n      swap1\n      tag_10\n      jump\t// in\n    tag_9:\n      swap3\n      pop\n      pop\n      dup2\n      swap1\n      sstore\n      pop\n        /* \"contracts/FeeCollector.sol\":442:481  TransferReceived(msg.sender, msg.value) */\n      0xf1b03f708b9c39f453fe3f0cef84164c7d6f7df836df0796e1e9c2bce6ee397e\n        /* \"contracts/FeeCollector.sol\":459:469  msg.sender */\n      caller\n        /* \"contracts/FeeCollector.sol\":471:480  msg.value */\n      callvalue\n        /* \"contracts/FeeCollector.sol\":442:481  TransferReceived(msg.sender, msg.value) */\n      mload(0x40)\n      tag_11\n      swap3\n      swap2\n      swap1\n      tag_12\n      jump\t// in\n    tag_11:\n      mload(0x40)\n      dup1\n      swap2\n      sub\n      swap1\n      log1\n        /* \"contracts/FeeCollector.sol\":89:1203  contract FeeCollector  {... */\n      stop\n    tag_2:\n      0x00\n      dup1\n      revert\n        /* \"contracts/FeeCollector.sol\":502:831  function withdraw(uint amount, address payable destAddr) public {... */\n    tag_3:\n      callvalue\n      dup1\n      iszero\n      tag_13\n      jumpi\n      0x00\n      dup1\n      revert\n    tag_13:\n      pop\n      tag_14\n      0x04\n      dup1\n      calldatasize\n      sub\n      dup2\n      add\n      swap1\n      tag_15\n      swap2\n      swap1\n      tag_16\n      jump\t// in\n    tag_15:\n      tag_17\n      jump\t// in\n    tag_14:\n      stop\n        /* \"contracts/FeeCollector.sol\":118:138  address public owner */\n    tag_4:\n      callvalue\n      dup1\n      iszero\n      tag_18\n      jumpi\n      0x00\n      dup1\n      revert\n    tag_18:\n      pop\n      tag_19\n      tag_20\n      jump\t// in\n    tag_19:\n      mload(0x40)\n      tag_21\n      swap2\n      swap1\n      tag_22\n      jump\t// in\n    tag_21:\n      mload(0x40)\n      dup1\n      swap2\n      sub\n      swap1\n      return\n        /* \"contracts/FeeCollector.sol\":841:1201  function transferERC20(IERC20 token, address to, uint256 amount) public {... */\n    tag_5:\n      callvalue\n      dup1\n      iszero\n      tag_23\n      jumpi\n      0x00\n      dup1\n      revert\n    tag_23:\n      pop\n      tag_24\n      0x04\n      dup1\n      calldatasize\n      sub\n      dup2\n      add\n      swap1\n      tag_25\n      swap2\n      swap1\n      tag_26\n      jump\t// in\n    tag_25:\n      tag_27\n      jump\t// in\n    tag_24:\n      stop\n        /* \"contracts/FeeCollector.sol\":144:166  uint256 public balance */\n    tag_6:\n      callvalue\n      dup1\n      iszero\n      tag_28\n      jumpi\n      0x00\n      dup1\n      revert\n    tag_28:\n      pop\n      tag_29\n      tag_30\n      jump\t// in\n    tag_29:\n      mload(0x40)\n      tag_31\n      swap2\n      swap1\n      tag_32\n      jump\t// in\n    tag_31:\n      mload(0x40)\n      dup1\n      swap2\n      sub\n      swap1\n      return\n        /* \"contracts/FeeCollector.sol\":502:831  function withdraw(uint amount, address payable destAddr) public {... */\n    tag_17:\n        /* \"contracts/FeeCollector.sol\":598:603  owner */\n      0x00\n      dup1\n      sload\n      swap1\n      0x0100\n      exp\n      swap1\n      div\n      0xffffffffffffffffffffffffffffffffffffffff\n      and\n        /* \"contracts/FeeCollector.sol\":584:603  msg.sender == owner */\n      0xffffffffffffffffffffffffffffffffffffffff\n      and\n        /* \"contracts/FeeCollector.sol\":584:594  msg.sender */\n      caller\n        /* \"contracts/FeeCollector.sol\":584:603  msg.sender == owner */\n      0xffffffffffffffffffffffffffffffffffffffff\n      and\n      eq\n        /* \"contracts/FeeCollector.sol\":576:637  require(msg.sender == owner, \"Only owner can withdraw funds\") */\n      tag_34\n      jumpi\n      mload(0x40)\n      0x08c379a000000000000000000000000000000000000000000000000000000000\n      dup2\n      mstore\n      0x04\n      add\n      tag_35\n      swap1\n      tag_36\n      jump\t// in\n    tag_35:\n      mload(0x40)\n      dup1\n      swap2\n      sub\n      swap1\n      revert\n    tag_34:\n        /* \"contracts/FeeCollector.sol\":666:673  balance */\n      sload(0x01)\n        /* \"contracts/FeeCollector.sol\":656:662  amount */\n      dup3\n        /* \"contracts/FeeCollector.sol\":656:673  amount <= balance */\n      gt\n      iszero\n        /* \"contracts/FeeCollector.sol\":648:696  require(amount <= balance, \"Insufficient funds\") */\n      tag_37\n      jumpi\n      mload(0x40)\n      0x08c379a000000000000000000000000000000000000000000000000000000000\n      dup2\n      mstore\n      0x04\n      add\n      tag_38\n      swap1\n      tag_39\n      jump\t// in\n    tag_38:\n      mload(0x40)\n      dup1\n      swap2\n      sub\n      swap1\n      revert\n    tag_37:\n        /* \"contracts/FeeCollector.sol\":715:723  destAddr */\n      dup1\n        /* \"contracts/FeeCollector.sol\":715:732  destAddr.transfer */\n      0xffffffffffffffffffffffffffffffffffffffff\n      and\n        /* \"contracts/FeeCollector.sol\":715:740  destAddr.transfer(amount) */\n      0x08fc\n        /* \"contracts/FeeCollector.sol\":733:739  amount */\n      dup4\n        /* \"contracts/FeeCollector.sol\":715:740  destAddr.transfer(amount) */\n      swap1\n      dup2\n      iszero\n      mul\n      swap1\n      mload(0x40)\n      0x00\n      mload(0x40)\n      dup1\n      dup4\n      sub\n      dup2\n      dup6\n      dup9\n      dup9\n      call\n      swap4\n      pop\n      pop\n      pop\n      pop\n      iszero\n      dup1\n      iszero\n      tag_41\n      jumpi\n      returndatasize\n      0x00\n      dup1\n      returndatacopy\n      revert(0x00, returndatasize)\n    tag_41:\n      pop\n        /* \"contracts/FeeCollector.sol\":761:767  amount */\n      dup2\n        /* \"contracts/FeeCollector.sol\":750:757  balance */\n      0x01\n      0x00\n        /* \"contracts/FeeCollector.sol\":750:767  balance -= amount */\n      dup3\n      dup3\n      sload\n      tag_42\n      swap2\n      swap1\n      tag_43\n      jump\t// in\n    tag_42:\n      swap3\n      pop\n      pop\n      dup2\n      swap1\n      sstore\n      pop\n        /* \"contracts/FeeCollector.sol\":782:824  TransferSent(msg.sender, destAddr, amount) */\n      0xfda3a3e0e1479b43cb1c701f7576187f4c4ad80768d627387e00184302f7d88e\n        /* \"contracts/FeeCollector.sol\":795:805  msg.sender */\n      caller\n        /* \"contracts/FeeCollector.sol\":807:815  destAddr */\n      dup3\n        /* \"contracts/FeeCollector.sol\":817:823  amount */\n      dup5\n        /* \"contracts/FeeCollector.sol\":782:824  TransferSent(msg.sender, destAddr, amount) */\n      mload(0x40)\n      tag_44\n      swap4\n      swap3\n      swap2\n      swap1\n      tag_45\n      jump\t// in\n    tag_44:\n      mload(0x40)\n      dup1\n      swap2\n      sub\n      swap1\n      log1\n        /* \"contracts/FeeCollector.sol\":502:831  function withdraw(uint amount, address payable destAddr) public {... */\n      pop\n      pop\n      jump\t// out\n        /* \"contracts/FeeCollector.sol\":118:138  address public owner */\n    tag_20:\n      0x00\n      dup1\n      sload\n      swap1\n      0x0100\n      exp\n      swap1\n      div\n      0xffffffffffffffffffffffffffffffffffffffff\n      and\n      dup2\n      jump\t// out\n        /* \"contracts/FeeCollector.sol\":841:1201  function transferERC20(IERC20 token, address to, uint256 amount) public {... */\n    tag_27:\n        /* \"contracts/FeeCollector.sol\":945:950  owner */\n      0x00\n      dup1\n      sload\n      swap1\n      0x0100\n      exp\n      swap1\n      div\n      0xffffffffffffffffffffffffffffffffffffffff\n      and\n        /* \"contracts/FeeCollector.sol\":931:950  msg.sender == owner */\n      0xffffffffffffffffffffffffffffffffffffffff\n      and\n        /* \"contracts/FeeCollector.sol\":931:941  msg.sender */\n      caller\n        /* \"contracts/FeeCollector.sol\":931:950  msg.sender == owner */\n      0xffffffffffffffffffffffffffffffffffffffff\n      and\n      eq\n        /* \"contracts/FeeCollector.sol\":923:984  require(msg.sender == owner, \"Only owner can withdraw funds\") */\n      tag_47\n      jumpi\n      mload(0x40)\n      0x08c379a000000000000000000000000000000000000000000000000000000000\n      dup2\n      mstore\n      0x04\n      add\n      tag_48\n      swap1\n      tag_36\n      jump\t// in\n    tag_48:\n      mload(0x40)\n      dup1\n      swap2\n      sub\n      swap1\n      revert\n    tag_47:\n        /* \"contracts/FeeCollector.sol\":995:1015  uint256 erc20balance */\n      0x00\n        /* \"contracts/FeeCollector.sol\":1018:1023  token */\n      dup4\n        /* \"contracts/FeeCollector.sol\":1018:1033  token.balanceOf */\n      0xffffffffffffffffffffffffffffffffffffffff\n      and\n      0x70a08231\n        /* \"contracts/FeeCollector.sol\":1042:1046  this */\n      address\n        /* \"contracts/FeeCollector.sol\":1018:1048  token.balanceOf(address(this)) */\n      mload(0x40)\n      dup3\n      0xffffffff\n      and\n      0xe0\n      shl\n      dup2\n      mstore\n      0x04\n      add\n      tag_49\n      swap2\n      swap1\n      tag_22\n      jump\t// in\n    tag_49:\n      0x20\n      mload(0x40)\n      dup1\n      dup4\n      sub\n      dup2\n      dup7\n      dup1\n      extcodesize\n      iszero\n      dup1\n      iszero\n      tag_50\n      jumpi\n      0x00\n      dup1\n      revert\n    tag_50:\n      pop\n      gas\n      staticcall\n      iszero\n      dup1\n      iszero\n      tag_52\n      jumpi\n      returndatasize\n      0x00\n      dup1\n      returndatacopy\n      revert(0x00, returndatasize)\n    tag_52:\n      pop\n      pop\n      pop\n      pop\n      mload(0x40)\n      returndatasize\n      not(0x1f)\n      0x1f\n      dup3\n      add\n      and\n      dup3\n      add\n      dup1\n      0x40\n      mstore\n      pop\n      dup2\n      add\n      swap1\n      tag_53\n      swap2\n      swap1\n      tag_54\n      jump\t// in\n    tag_53:\n        /* \"contracts/FeeCollector.sol\":995:1048  uint256 erc20balance = token.balanceOf(address(this)) */\n      swap1\n      pop\n        /* \"contracts/FeeCollector.sol\":1076:1088  erc20balance */\n      dup1\n        /* \"contracts/FeeCollector.sol\":1066:1072  amount */\n      dup3\n        /* \"contracts/FeeCollector.sol\":1066:1088  amount <= erc20balance */\n      gt\n      iszero\n        /* \"contracts/FeeCollector.sol\":1058:1107  require(amount <= erc20balance, \"balance is low\") */\n      tag_55\n      jumpi\n      mload(0x40)\n      0x08c379a000000000000000000000000000000000000000000000000000000000\n      dup2\n      mstore\n      0x04\n      add\n      tag_56\n      swap1\n      tag_57\n      jump\t// in\n    tag_56:\n      mload(0x40)\n      dup1\n      swap2\n      sub\n      swap1\n      revert\n    tag_55:\n        /* \"contracts/FeeCollector.sol\":1117:1122  token */\n      dup4\n        /* \"contracts/FeeCollector.sol\":1117:1131  token.transfer */\n      0xffffffffffffffffffffffffffffffffffffffff\n      and\n      0xa9059cbb\n        /* \"contracts/FeeCollector.sol\":1132:1134  to */\n      dup5\n        /* \"contracts/FeeCollector.sol\":1136:1142  amount */\n      dup5\n        /* \"contracts/FeeCollector.sol\":1117:1143  token.transfer(to, amount) */\n      mload(0x40)\n      dup4\n      0xffffffff\n      and\n      0xe0\n      shl\n      dup2\n      mstore\n      0x04\n      add\n      tag_58\n      swap3\n      swap2\n      swap1\n      tag_12\n      jump\t// in\n    tag_58:\n      0x20\n      mload(0x40)\n      dup1\n      dup4\n      sub\n      dup2\n      0x00\n      dup8\n      dup1\n      extcodesize\n      iszero\n      dup1\n      iszero\n      tag_59\n      jumpi\n      0x00\n      dup1\n      revert\n    tag_59:\n      pop\n      gas\n      call\n      iszero\n      dup1\n      iszero\n      tag_61\n      jumpi\n      returndatasize\n      0x00\n      dup1\n      returndatacopy\n      revert(0x00, returndatasize)\n    tag_61:\n      pop\n      pop\n      pop\n      pop\n      mload(0x40)\n      returndatasize\n      not(0x1f)\n      0x1f\n      dup3\n      add\n      and\n      dup3\n      add\n      dup1\n      0x40\n      mstore\n      pop\n      dup2\n      add\n      swap1\n      tag_62\n      swap2\n      swap1\n      tag_63\n      jump\t// in\n    tag_62:\n      pop\n        /* \"contracts/FeeCollector.sol\":1158:1194  TransferSent(msg.sender, to, amount) */\n      0xfda3a3e0e1479b43cb1c701f7576187f4c4ad80768d627387e00184302f7d88e\n        /* \"contracts/FeeCollector.sol\":1171:1181  msg.sender */\n      caller\n        /* \"contracts/FeeCollector.sol\":1183:1185  to */\n      dup5\n        /* \"contracts/FeeCollector.sol\":1187:1193  amount */\n      dup5\n        /* \"contracts/FeeCollector.sol\":1158:1194  TransferSent(msg.sender, to, amount) */\n      mload(0x40)\n      tag_64\n      swap4\n      swap3\n      swap2\n      swap1\n      tag_65\n      jump\t// in\n    tag_64:\n      mload(0x40)\n      dup1\n      swap2\n      sub\n      swap1\n      log1\n        /* \"contracts/FeeCollector.sol\":913:1201  {... */\n      pop\n        /* \"contracts/FeeCollector.sol\":841:1201  function transferERC20(IERC20 token, address to, uint256 amount) public {... */\n      pop\n      pop\n      pop\n      jump\t// out\n        /* \"contracts/FeeCollector.sol\":144:166  uint256 public balance */\n    tag_30:\n      sload(0x01)\n      dup2\n      jump\t// out\n        /* \"#utility.yul\":7:146   */\n    tag_67:\n        /* \"#utility.yul\":53:58   */\n      0x00\n        /* \"#utility.yul\":91:97   */\n      dup2\n        /* \"#utility.yul\":78:98   */\n      calldataload\n        /* \"#utility.yul\":69:98   */\n      swap1\n      pop\n        /* \"#utility.yul\":107:140   */\n      tag_69\n        /* \"#utility.yul\":134:139   */\n      dup2\n        /* \"#utility.yul\":107:140   */\n      tag_70\n      jump\t// in\n    tag_69:\n        /* \"#utility.yul\":7:146   */\n      swap3\n      swap2\n      pop\n      pop\n      jump\t// out\n        /* \"#utility.yul\":152:307   */\n    tag_71:\n        /* \"#utility.yul\":206:211   */\n      0x00\n        /* \"#utility.yul\":244:250   */\n      dup2\n        /* \"#utility.yul\":231:251   */\n      calldataload\n        /* \"#utility.yul\":222:251   */\n      swap1\n      pop\n        /* \"#utility.yul\":260:301   */\n      tag_73\n        /* \"#utility.yul\":295:300   */\n      dup2\n        /* \"#utility.yul\":260:301   */\n      tag_74\n      jump\t// in\n    tag_73:\n        /* \"#utility.yul\":152:307   */\n      swap3\n      swap2\n      pop\n      pop\n      jump\t// out\n        /* \"#utility.yul\":313:450   */\n    tag_75:\n        /* \"#utility.yul\":367:372   */\n      0x00\n        /* \"#utility.yul\":398:404   */\n      dup2\n        /* \"#utility.yul\":392:405   */\n      mload\n        /* \"#utility.yul\":383:405   */\n      swap1\n      pop\n        /* \"#utility.yul\":414:444   */\n      tag_77\n        /* \"#utility.yul\":438:443   */\n      dup2\n        /* \"#utility.yul\":414:444   */\n      tag_78\n      jump\t// in\n    tag_77:\n        /* \"#utility.yul\":313:450   */\n      swap3\n      swap2\n      pop\n      pop\n      jump\t// out\n        /* \"#utility.yul\":456:623   */\n    tag_79:\n        /* \"#utility.yul\":516:521   */\n      0x00\n        /* \"#utility.yul\":554:560   */\n      dup2\n        /* \"#utility.yul\":541:561   */\n      calldataload\n        /* \"#utility.yul\":532:561   */\n      swap1\n      pop\n        /* \"#utility.yul\":570:617   */\n      tag_81\n        /* \"#utility.yul\":611:616   */\n      dup2\n        /* \"#utility.yul\":570:617   */\n      tag_82\n      jump\t// in\n    tag_81:\n        /* \"#utility.yul\":456:623   */\n      swap3\n      swap2\n      pop\n      pop\n      jump\t// out\n        /* \"#utility.yul\":629:768   */\n    tag_83:\n        /* \"#utility.yul\":675:680   */\n      0x00\n        /* \"#utility.yul\":713:719   */\n      dup2\n        /* \"#utility.yul\":700:720   */\n      calldataload\n        /* \"#utility.yul\":691:720   */\n      swap1\n      pop\n        /* \"#utility.yul\":729:762   */\n      tag_85\n        /* \"#utility.yul\":756:761   */\n      dup2\n        /* \"#utility.yul\":729:762   */\n      tag_86\n      jump\t// in\n    tag_85:\n        /* \"#utility.yul\":629:768   */\n      swap3\n      swap2\n      pop\n      pop\n      jump\t// out\n        /* \"#utility.yul\":774:917   */\n    tag_87:\n        /* \"#utility.yul\":831:836   */\n      0x00\n        /* \"#utility.yul\":862:868   */\n      dup2\n        /* \"#utility.yul\":856:869   */\n      mload\n        /* \"#utility.yul\":847:869   */\n      swap1\n      pop\n        /* \"#utility.yul\":878:911   */\n      tag_89\n        /* \"#utility.yul\":905:910   */\n      dup2\n        /* \"#utility.yul\":878:911   */\n      tag_86\n      jump\t// in\n    tag_89:\n        /* \"#utility.yul\":774:917   */\n      swap3\n      swap2\n      pop\n      pop\n      jump\t// out\n        /* \"#utility.yul\":923:1268   */\n    tag_63:\n        /* \"#utility.yul\":990:996   */\n      0x00\n        /* \"#utility.yul\":1039:1041   */\n      0x20\n        /* \"#utility.yul\":1027:1036   */\n      dup3\n        /* \"#utility.yul\":1018:1025   */\n      dup5\n        /* \"#utility.yul\":1014:1037   */\n      sub\n        /* \"#utility.yul\":1010:1042   */\n      slt\n        /* \"#utility.yul\":1007:1126   */\n      iszero\n      tag_91\n      jumpi\n        /* \"#utility.yul\":1045:1124   */\n      tag_92\n      tag_93\n      jump\t// in\n    tag_92:\n        /* \"#utility.yul\":1007:1126   */\n    tag_91:\n        /* \"#utility.yul\":1165:1166   */\n      0x00\n        /* \"#utility.yul\":1190:1251   */\n      tag_94\n        /* \"#utility.yul\":1243:1250   */\n      dup5\n        /* \"#utility.yul\":1234:1240   */\n      dup3\n        /* \"#utility.yul\":1223:1232   */\n      dup6\n        /* \"#utility.yul\":1219:1241   */\n      add\n        /* \"#utility.yul\":1190:1251   */\n      tag_75\n      jump\t// in\n    tag_94:\n        /* \"#utility.yul\":1180:1251   */\n      swap2\n      pop\n        /* \"#utility.yul\":1136:1261   */\n      pop\n        /* \"#utility.yul\":923:1268   */\n      swap3\n      swap2\n      pop\n      pop\n      jump\t// out\n        /* \"#utility.yul\":1274:1921   */\n    tag_26:\n        /* \"#utility.yul\":1365:1371   */\n      0x00\n        /* \"#utility.yul\":1373:1379   */\n      dup1\n        /* \"#utility.yul\":1381:1387   */\n      0x00\n        /* \"#utility.yul\":1430:1432   */\n      0x60\n        /* \"#utility.yul\":1418:1427   */\n      dup5\n        /* \"#utility.yul\":1409:1416   */\n      dup7\n        /* \"#utility.yul\":1405:1428   */\n      sub\n        /* \"#utility.yul\":1401:1433   */\n      slt\n        /* \"#utility.yul\":1398:1517   */\n      iszero\n      tag_96\n      jumpi\n        /* \"#utility.yul\":1436:1515   */\n      tag_97\n      tag_93\n      jump\t// in\n    tag_97:\n        /* \"#utility.yul\":1398:1517   */\n    tag_96:\n        /* \"#utility.yul\":1556:1557   */\n      0x00\n        /* \"#utility.yul\":1581:1648   */\n      tag_98\n        /* \"#utility.yul\":1640:1647   */\n      dup7\n        /* \"#utility.yul\":1631:1637   */\n      dup3\n        /* \"#utility.yul\":1620:1629   */\n      dup8\n        /* \"#utility.yul\":1616:1638   */\n      add\n        /* \"#utility.yul\":1581:1648   */\n      tag_79\n      jump\t// in\n    tag_98:\n        /* \"#utility.yul\":1571:1648   */\n      swap4\n      pop\n        /* \"#utility.yul\":1527:1658   */\n      pop\n        /* \"#utility.yul\":1697:1699   */\n      0x20\n        /* \"#utility.yul\":1723:1776   */\n      tag_99\n        /* \"#utility.yul\":1768:1775   */\n      dup7\n        /* \"#utility.yul\":1759:1765   */\n      dup3\n        /* \"#utility.yul\":1748:1757   */\n      dup8\n        /* \"#utility.yul\":1744:1766   */\n      add\n        /* \"#utility.yul\":1723:1776   */\n      tag_67\n      jump\t// in\n    tag_99:\n        /* \"#utility.yul\":1713:1776   */\n      swap3\n      pop\n        /* \"#utility.yul\":1668:1786   */\n      pop\n        /* \"#utility.yul\":1825:1827   */\n      0x40\n        /* \"#utility.yul\":1851:1904   */\n      tag_100\n        /* \"#utility.yul\":1896:1903   */\n      dup7\n        /* \"#utility.yul\":1887:1893   */\n      dup3\n        /* \"#utility.yul\":1876:1885   */\n      dup8\n        /* \"#utility.yul\":1872:1894   */\n      add\n        /* \"#utility.yul\":1851:1904   */\n      tag_83\n      jump\t// in\n    tag_100:\n        /* \"#utility.yul\":1841:1904   */\n      swap2\n      pop\n        /* \"#utility.yul\":1796:1914   */\n      pop\n        /* \"#utility.yul\":1274:1921   */\n      swap3\n      pop\n      swap3\n      pop\n      swap3\n      jump\t// out\n        /* \"#utility.yul\":1927:2278   */\n    tag_54:\n        /* \"#utility.yul\":1997:2003   */\n      0x00\n        /* \"#utility.yul\":2046:2048   */\n      0x20\n        /* \"#utility.yul\":2034:2043   */\n      dup3\n        /* \"#utility.yul\":2025:2032   */\n      dup5\n        /* \"#utility.yul\":2021:2044   */\n      sub\n        /* \"#utility.yul\":2017:2049   */\n      slt\n        /* \"#utility.yul\":2014:2133   */\n      iszero\n      tag_102\n      jumpi\n        /* \"#utility.yul\":2052:2131   */\n      tag_103\n      tag_93\n      jump\t// in\n    tag_103:\n        /* \"#utility.yul\":2014:2133   */\n    tag_102:\n        /* \"#utility.yul\":2172:2173   */\n      0x00\n        /* \"#utility.yul\":2197:2261   */\n      tag_104\n        /* \"#utility.yul\":2253:2260   */\n      dup5\n        /* \"#utility.yul\":2244:2250   */\n      dup3\n        /* \"#utility.yul\":2233:2242   */\n      dup6\n        /* \"#utility.yul\":2229:2251   */\n      add\n        /* \"#utility.yul\":2197:2261   */\n      tag_87\n      jump\t// in\n    tag_104:\n        /* \"#utility.yul\":2187:2261   */\n      swap2\n      pop\n        /* \"#utility.yul\":2143:2271   */\n      pop\n        /* \"#utility.yul\":1927:2278   */\n      swap3\n      swap2\n      pop\n      pop\n      jump\t// out\n        /* \"#utility.yul\":2284:2774   */\n    tag_16:\n        /* \"#utility.yul\":2360:2366   */\n      0x00\n        /* \"#utility.yul\":2368:2374   */\n      dup1\n        /* \"#utility.yul\":2417:2419   */\n      0x40\n        /* \"#utility.yul\":2405:2414   */\n      dup4\n        /* \"#utility.yul\":2396:2403   */\n      dup6\n        /* \"#utility.yul\":2392:2415   */\n      sub\n        /* \"#utility.yul\":2388:2420   */\n      slt\n        /* \"#utility.yul\":2385:2504   */\n      iszero\n      tag_106\n      jumpi\n        /* \"#utility.yul\":2423:2502   */\n      tag_107\n      tag_93\n      jump\t// in\n    tag_107:\n        /* \"#utility.yul\":2385:2504   */\n    tag_106:\n        /* \"#utility.yul\":2543:2544   */\n      0x00\n        /* \"#utility.yul\":2568:2621   */\n      tag_108\n        /* \"#utility.yul\":2613:2620   */\n      dup6\n        /* \"#utility.yul\":2604:2610   */\n      dup3\n        /* \"#utility.yul\":2593:2602   */\n      dup7\n        /* \"#utility.yul\":2589:2611   */\n      add\n        /* \"#utility.yul\":2568:2621   */\n      tag_83\n      jump\t// in\n    tag_108:\n        /* \"#utility.yul\":2558:2621   */\n      swap3\n      pop\n        /* \"#utility.yul\":2514:2631   */\n      pop\n        /* \"#utility.yul\":2670:2672   */\n      0x20\n        /* \"#utility.yul\":2696:2757   */\n      tag_109\n        /* \"#utility.yul\":2749:2756   */\n      dup6\n        /* \"#utility.yul\":2740:2746   */\n      dup3\n        /* \"#utility.yul\":2729:2738   */\n      dup7\n        /* \"#utility.yul\":2725:2747   */\n      add\n        /* \"#utility.yul\":2696:2757   */\n      tag_71\n      jump\t// in\n    tag_109:\n        /* \"#utility.yul\":2686:2757   */\n      swap2\n      pop\n        /* \"#utility.yul\":2641:2767   */\n      pop\n        /* \"#utility.yul\":2284:2774   */\n      swap3\n      pop\n      swap3\n      swap1\n      pop\n      jump\t// out\n        /* \"#utility.yul\":2780:2927   */\n    tag_110:\n        /* \"#utility.yul\":2875:2920   */\n      tag_112\n        /* \"#utility.yul\":2914:2919   */\n      dup2\n        /* \"#utility.yul\":2875:2920   */\n      tag_113\n      jump\t// in\n    tag_112:\n        /* \"#utility.yul\":2870:2873   */\n      dup3\n        /* \"#utility.yul\":2863:2921   */\n      mstore\n        /* \"#utility.yul\":2780:2927   */\n      pop\n      pop\n      jump\t// out\n        /* \"#utility.yul\":2933:3051   */\n    tag_114:\n        /* \"#utility.yul\":3020:3044   */\n      tag_116\n        /* \"#utility.yul\":3038:3043   */\n      dup2\n        /* \"#utility.yul\":3020:3044   */\n      tag_117\n      jump\t// in\n    tag_116:\n        /* \"#utility.yul\":3015:3018   */\n      dup3\n        /* \"#utility.yul\":3008:3045   */\n      mstore\n        /* \"#utility.yul\":2933:3051   */\n      pop\n      pop\n      jump\t// out\n        /* \"#utility.yul\":3057:3423   */\n    tag_118:\n        /* \"#utility.yul\":3199:3202   */\n      0x00\n        /* \"#utility.yul\":3220:3287   */\n      tag_120\n        /* \"#utility.yul\":3284:3286   */\n      0x1d\n        /* \"#utility.yul\":3279:3282   */\n      dup4\n        /* \"#utility.yul\":3220:3287   */\n      tag_121\n      jump\t// in\n    tag_120:\n        /* \"#utility.yul\":3213:3287   */\n      swap2\n      pop\n        /* \"#utility.yul\":3296:3389   */\n      tag_122\n        /* \"#utility.yul\":3385:3388   */\n      dup3\n        /* \"#utility.yul\":3296:3389   */\n      tag_123\n      jump\t// in\n    tag_122:\n        /* \"#utility.yul\":3414:3416   */\n      0x20\n        /* \"#utility.yul\":3409:3412   */\n      dup3\n        /* \"#utility.yul\":3405:3417   */\n      add\n        /* \"#utility.yul\":3398:3417   */\n      swap1\n      pop\n        /* \"#utility.yul\":3057:3423   */\n      swap2\n      swap1\n      pop\n      jump\t// out\n        /* \"#utility.yul\":3429:3795   */\n    tag_124:\n        /* \"#utility.yul\":3571:3574   */\n      0x00\n        /* \"#utility.yul\":3592:3659   */\n      tag_126\n        /* \"#utility.yul\":3656:3658   */\n      0x12\n        /* \"#utility.yul\":3651:3654   */\n      dup4\n        /* \"#utility.yul\":3592:3659   */\n      tag_121\n      jump\t// in\n    tag_126:\n        /* \"#utility.yul\":3585:3659   */\n      swap2\n      pop\n        /* \"#utility.yul\":3668:3761   */\n      tag_127\n        /* \"#utility.yul\":3757:3760   */\n      dup3\n        /* \"#utility.yul\":3668:3761   */\n      tag_128\n      jump\t// in\n    tag_127:\n        /* \"#utility.yul\":3786:3788   */\n      0x20\n        /* \"#utility.yul\":3781:3784   */\n      dup3\n        /* \"#utility.yul\":3777:3789   */\n      add\n        /* \"#utility.yul\":3770:3789   */\n      swap1\n      pop\n        /* \"#utility.yul\":3429:3795   */\n      swap2\n      swap1\n      pop\n      jump\t// out\n        /* \"#utility.yul\":3801:4167   */\n    tag_129:\n        /* \"#utility.yul\":3943:3946   */\n      0x00\n        /* \"#utility.yul\":3964:4031   */\n      tag_131\n        /* \"#utility.yul\":4028:4030   */\n      0x0e\n        /* \"#utility.yul\":4023:4026   */\n      dup4\n        /* \"#utility.yul\":3964:4031   */\n      tag_121\n      jump\t// in\n    tag_131:\n        /* \"#utility.yul\":3957:4031   */\n      swap2\n      pop\n        /* \"#utility.yul\":4040:4133   */\n      tag_132\n        /* \"#utility.yul\":4129:4132   */\n      dup3\n        /* \"#utility.yul\":4040:4133   */\n      tag_133\n      jump\t// in\n    tag_132:\n        /* \"#utility.yul\":4158:4160   */\n      0x20\n        /* \"#utility.yul\":4153:4156   */\n      dup3\n        /* \"#utility.yul\":4149:4161   */\n      add\n        /* \"#utility.yul\":4142:4161   */\n      swap1\n      pop\n        /* \"#utility.yul\":3801:4167   */\n      swap2\n      swap1\n      pop\n      jump\t// out\n        /* \"#utility.yul\":4173:4291   */\n    tag_134:\n        /* \"#utility.yul\":4260:4284   */\n      tag_136\n        /* \"#utility.yul\":4278:4283   */\n      dup2\n        /* \"#utility.yul\":4260:4284   */\n      tag_137\n      jump\t// in\n    tag_136:\n        /* \"#utility.yul\":4255:4258   */\n      dup3\n        /* \"#utility.yul\":4248:4285   */\n      mstore\n        /* \"#utility.yul\":4173:4291   */\n      pop\n      pop\n      jump\t// out\n        /* \"#utility.yul\":4297:4519   */\n    tag_22:\n        /* \"#utility.yul\":4390:4394   */\n      0x00\n        /* \"#utility.yul\":4428:4430   */\n      0x20\n        /* \"#utility.yul\":4417:4426   */\n      dup3\n        /* \"#utility.yul\":4413:4431   */\n      add\n        /* \"#utility.yul\":4405:4431   */\n      swap1\n      pop\n        /* \"#utility.yul\":4441:4512   */\n      tag_139\n        /* \"#utility.yul\":4509:4510   */\n      0x00\n        /* \"#utility.yul\":4498:4507   */\n      dup4\n        /* \"#utility.yul\":4494:4511   */\n      add\n        /* \"#utility.yul\":4485:4491   */\n      dup5\n        /* \"#utility.yul\":4441:4512   */\n      tag_114\n      jump\t// in\n    tag_139:\n        /* \"#utility.yul\":4297:4519   */\n      swap3\n      swap2\n      pop\n      pop\n      jump\t// out\n        /* \"#utility.yul\":4525:4983   */\n    tag_45:\n        /* \"#utility.yul\":4682:4686   */\n      0x00\n        /* \"#utility.yul\":4720:4722   */\n      0x60\n        /* \"#utility.yul\":4709:4718   */\n      dup3\n        /* \"#utility.yul\":4705:4723   */\n      add\n        /* \"#utility.yul\":4697:4723   */\n      swap1\n      pop\n        /* \"#utility.yul\":4733:4804   */\n      tag_141\n        /* \"#utility.yul\":4801:4802   */\n      0x00\n        /* \"#utility.yul\":4790:4799   */\n      dup4\n        /* \"#utility.yul\":4786:4803   */\n      add\n        /* \"#utility.yul\":4777:4783   */\n      dup7\n        /* \"#utility.yul\":4733:4804   */\n      tag_114\n      jump\t// in\n    tag_141:\n        /* \"#utility.yul\":4814:4894   */\n      tag_142\n        /* \"#utility.yul\":4890:4892   */\n      0x20\n        /* \"#utility.yul\":4879:4888   */\n      dup4\n        /* \"#utility.yul\":4875:4893   */\n      add\n        /* \"#utility.yul\":4866:4872   */\n      dup6\n        /* \"#utility.yul\":4814:4894   */\n      tag_110\n      jump\t// in\n    tag_142:\n        /* \"#utility.yul\":4904:4976   */\n      tag_143\n        /* \"#utility.yul\":4972:4974   */\n      0x40\n        /* \"#utility.yul\":4961:4970   */\n      dup4\n        /* \"#utility.yul\":4957:4975   */\n      add\n        /* \"#utility.yul\":4948:4954   */\n      dup5\n        /* \"#utility.yul\":4904:4976   */\n      tag_134\n      jump\t// in\n    tag_143:\n        /* \"#utility.yul\":4525:4983   */\n      swap5\n      swap4\n      pop\n      pop\n      pop\n      pop\n      jump\t// out\n        /* \"#utility.yul\":4989:5431   */\n    tag_65:\n        /* \"#utility.yul\":5138:5142   */\n      0x00\n        /* \"#utility.yul\":5176:5178   */\n      0x60\n        /* \"#utility.yul\":5165:5174   */\n      dup3\n        /* \"#utility.yul\":5161:5179   */\n      add\n        /* \"#utility.yul\":5153:5179   */\n      swap1\n      pop\n        /* \"#utility.yul\":5189:5260   */\n      tag_145\n        /* \"#utility.yul\":5257:5258   */\n      0x00\n        /* \"#utility.yul\":5246:5255   */\n      dup4\n        /* \"#utility.yul\":5242:5259   */\n      add\n        /* \"#utility.yul\":5233:5239   */\n      dup7\n        /* \"#utility.yul\":5189:5260   */\n      tag_114\n      jump\t// in\n    tag_145:\n        /* \"#utility.yul\":5270:5342   */\n      tag_146\n        /* \"#utility.yul\":5338:5340   */\n      0x20\n        /* \"#utility.yul\":5327:5336   */\n      dup4\n        /* \"#utility.yul\":5323:5341   */\n      add\n        /* \"#utility.yul\":5314:5320   */\n      dup6\n        /* \"#utility.yul\":5270:5342   */\n      tag_114\n      jump\t// in\n    tag_146:\n        /* \"#utility.yul\":5352:5424   */\n      tag_147\n        /* \"#utility.yul\":5420:5422   */\n      0x40\n        /* \"#utility.yul\":5409:5418   */\n      dup4\n        /* \"#utility.yul\":5405:5423   */\n      add\n        /* \"#utility.yul\":5396:5402   */\n      dup5\n        /* \"#utility.yul\":5352:5424   */\n      tag_134\n      jump\t// in\n    tag_147:\n        /* \"#utility.yul\":4989:5431   */\n      swap5\n      swap4\n      pop\n      pop\n      pop\n      pop\n      jump\t// out\n        /* \"#utility.yul\":5437:5769   */\n    tag_12:\n        /* \"#utility.yul\":5558:5562   */\n      0x00\n        /* \"#utility.yul\":5596:5598   */\n      0x40\n        /* \"#utility.yul\":5585:5594   */\n      dup3\n        /* \"#utility.yul\":5581:5599   */\n      add\n        /* \"#utility.yul\":5573:5599   */\n      swap1\n      pop\n        /* \"#utility.yul\":5609:5680   */\n      tag_149\n        /* \"#utility.yul\":5677:5678   */\n      0x00\n        /* \"#utility.yul\":5666:5675   */\n      dup4\n        /* \"#utility.yul\":5662:5679   */\n      add\n        /* \"#utility.yul\":5653:5659   */\n      dup6\n        /* \"#utility.yul\":5609:5680   */\n      tag_114\n      jump\t// in\n    tag_149:\n        /* \"#utility.yul\":5690:5762   */\n      tag_150\n        /* \"#utility.yul\":5758:5760   */\n      0x20\n        /* \"#utility.yul\":5747:5756   */\n      dup4\n        /* \"#utility.yul\":5743:5761   */\n      add\n        /* \"#utility.yul\":5734:5740   */\n      dup5\n        /* \"#utility.yul\":5690:5762   */\n      tag_134\n      jump\t// in\n    tag_150:\n        /* \"#utility.yul\":5437:5769   */\n      swap4\n      swap3\n      pop\n      pop\n      pop\n      jump\t// out\n        /* \"#utility.yul\":5775:6194   */\n    tag_36:\n        /* \"#utility.yul\":5941:5945   */\n      0x00\n        /* \"#utility.yul\":5979:5981   */\n      0x20\n        /* \"#utility.yul\":5968:5977   */\n      dup3\n        /* \"#utility.yul\":5964:5982   */\n      add\n        /* \"#utility.yul\":5956:5982   */\n      swap1\n      pop\n        /* \"#utility.yul\":6028:6037   */\n      dup2\n        /* \"#utility.yul\":6022:6026   */\n      dup2\n        /* \"#utility.yul\":6018:6038   */\n      sub\n        /* \"#utility.yul\":6014:6015   */\n      0x00\n        /* \"#utility.yul\":6003:6012   */\n      dup4\n        /* \"#utility.yul\":5999:6016   */\n      add\n        /* \"#utility.yul\":5992:6039   */\n      mstore\n        /* \"#utility.yul\":6056:6187   */\n      tag_152\n        /* \"#utility.yul\":6182:6186   */\n      dup2\n        /* \"#utility.yul\":6056:6187   */\n      tag_118\n      jump\t// in\n    tag_152:\n        /* \"#utility.yul\":6048:6187   */\n      swap1\n      pop\n        /* \"#utility.yul\":5775:6194   */\n      swap2\n      swap1\n      pop\n      jump\t// out\n        /* \"#utility.yul\":6200:6619   */\n    tag_39:\n        /* \"#utility.yul\":6366:6370   */\n      0x00\n        /* \"#utility.yul\":6404:6406   */\n      0x20\n        /* \"#utility.yul\":6393:6402   */\n      dup3\n        /* \"#utility.yul\":6389:6407   */\n      add\n        /* \"#utility.yul\":6381:6407   */\n      swap1\n      pop\n        /* \"#utility.yul\":6453:6462   */\n      dup2\n        /* \"#utility.yul\":6447:6451   */\n      dup2\n        /* \"#utility.yul\":6443:6463   */\n      sub\n        /* \"#utility.yul\":6439:6440   */\n      0x00\n        /* \"#utility.yul\":6428:6437   */\n      dup4\n        /* \"#utility.yul\":6424:6441   */\n      add\n        /* \"#utility.yul\":6417:6464   */\n      mstore\n        /* \"#utility.yul\":6481:6612   */\n      tag_154\n        /* \"#utility.yul\":6607:6611   */\n      dup2\n        /* \"#utility.yul\":6481:6612   */\n      tag_124\n      jump\t// in\n    tag_154:\n        /* \"#utility.yul\":6473:6612   */\n      swap1\n      pop\n        /* \"#utility.yul\":6200:6619   */\n      swap2\n      swap1\n      pop\n      jump\t// out\n        /* \"#utility.yul\":6625:7044   */\n    tag_57:\n        /* \"#utility.yul\":6791:6795   */\n      0x00\n        /* \"#utility.yul\":6829:6831   */\n      0x20\n        /* \"#utility.yul\":6818:6827   */\n      dup3\n        /* \"#utility.yul\":6814:6832   */\n      add\n        /* \"#utility.yul\":6806:6832   */\n      swap1\n      pop\n        /* \"#utility.yul\":6878:6887   */\n      dup2\n        /* \"#utility.yul\":6872:6876   */\n      dup2\n        /* \"#utility.yul\":6868:6888   */\n      sub\n        /* \"#utility.yul\":6864:6865   */\n      0x00\n        /* \"#utility.yul\":6853:6862   */\n      dup4\n        /* \"#utility.yul\":6849:6866   */\n      add\n        /* \"#utility.yul\":6842:6889   */\n      mstore\n        /* \"#utility.yul\":6906:7037   */\n      tag_156\n        /* \"#utility.yul\":7032:7036   */\n      dup2\n        /* \"#utility.yul\":6906:7037   */\n      tag_129\n      jump\t// in\n    tag_156:\n        /* \"#utility.yul\":6898:7037   */\n      swap1\n      pop\n        /* \"#utility.yul\":6625:7044   */\n      swap2\n      swap1\n      pop\n      jump\t// out\n        /* \"#utility.yul\":7050:7272   */\n    tag_32:\n        /* \"#utility.yul\":7143:7147   */\n      0x00\n        /* \"#utility.yul\":7181:7183   */\n      0x20\n        /* \"#utility.yul\":7170:7179   */\n      dup3\n        /* \"#utility.yul\":7166:7184   */\n      add\n        /* \"#utility.yul\":7158:7184   */\n      swap1\n      pop\n        /* \"#utility.yul\":7194:7265   */\n      tag_158\n        /* \"#utility.yul\":7262:7263   */\n      0x00\n        /* \"#utility.yul\":7251:7260   */\n      dup4\n        /* \"#utility.yul\":7247:7264   */\n      add\n        /* \"#utility.yul\":7238:7244   */\n      dup5\n        /* \"#utility.yul\":7194:7265   */\n      tag_134\n      jump\t// in\n    tag_158:\n        /* \"#utility.yul\":7050:7272   */\n      swap3\n      swap2\n      pop\n      pop\n      jump\t// out\n        /* \"#utility.yul\":7359:7528   */\n    tag_121:\n        /* \"#utility.yul\":7443:7454   */\n      0x00\n        /* \"#utility.yul\":7477:7483   */\n      dup3\n        /* \"#utility.yul\":7472:7475   */\n      dup3\n        /* \"#utility.yul\":7465:7484   */\n      mstore\n        /* \"#utility.yul\":7517:7521   */\n      0x20\n        /* \"#utility.yul\":7512:7515   */\n      dup3\n        /* \"#utility.yul\":7508:7522   */\n      add\n        /* \"#utility.yul\":7493:7522   */\n      swap1\n      pop\n        /* \"#utility.yul\":7359:7528   */\n      swap3\n      swap2\n      pop\n      pop\n      jump\t// out\n        /* \"#utility.yul\":7534:7839   */\n    tag_10:\n        /* \"#utility.yul\":7574:7577   */\n      0x00\n        /* \"#utility.yul\":7593:7613   */\n      tag_163\n        /* \"#utility.yul\":7611:7612   */\n      dup3\n        /* \"#utility.yul\":7593:7613   */\n      tag_137\n      jump\t// in\n    tag_163:\n        /* \"#utility.yul\":7588:7613   */\n      swap2\n      pop\n        /* \"#utility.yul\":7627:7647   */\n      tag_164\n        /* \"#utility.yul\":7645:7646   */\n      dup4\n        /* \"#utility.yul\":7627:7647   */\n      tag_137\n      jump\t// in\n    tag_164:\n        /* \"#utility.yul\":7622:7647   */\n      swap3\n      pop\n        /* \"#utility.yul\":7781:7782   */\n      dup3\n        /* \"#utility.yul\":7713:7779   */\n      0xffffffffffffffffffffffffffffffffffffffffffffffffffffffffffffffff\n        /* \"#utility.yul\":7709:7783   */\n      sub\n        /* \"#utility.yul\":7706:7707   */\n      dup3\n        /* \"#utility.yul\":7703:7784   */\n      gt\n        /* \"#utility.yul\":7700:7807   */\n      iszero\n      tag_165\n      jumpi\n        /* \"#utility.yul\":7787:7805   */\n      tag_166\n      tag_167\n      jump\t// in\n    tag_166:\n        /* \"#utility.yul\":7700:7807   */\n    tag_165:\n        /* \"#utility.yul\":7831:7832   */\n      dup3\n        /* \"#utility.yul\":7828:7829   */\n      dup3\n        /* \"#utility.yul\":7824:7833   */\n      add\n        /* \"#utility.yul\":7817:7833   */\n      swap1\n      pop\n        /* \"#utility.yul\":7534:7839   */\n      swap3\n      swap2\n      pop\n      pop\n      jump\t// out\n        /* \"#utility.yul\":7845:8036   */\n    tag_43:\n        /* \"#utility.yul\":7885:7889   */\n      0x00\n        /* \"#utility.yul\":7905:7925   */\n      tag_169\n        /* \"#utility.yul\":7923:7924   */\n      dup3\n        /* \"#utility.yul\":7905:7925   */\n      tag_137\n      jump\t// in\n    tag_169:\n        /* \"#utility.yul\":7900:7925   */\n      swap2\n      pop\n        /* \"#utility.yul\":7939:7959   */\n      tag_170\n        /* \"#utility.yul\":7957:7958   */\n      dup4\n        /* \"#utility.yul\":7939:7959   */\n      tag_137\n      jump\t// in\n    tag_170:\n        /* \"#utility.yul\":7934:7959   */\n      swap3\n      pop\n        /* \"#utility.yul\":7978:7979   */\n      dup3\n        /* \"#utility.yul\":7975:7976   */\n      dup3\n        /* \"#utility.yul\":7972:7980   */\n      lt\n        /* \"#utility.yul\":7969:8003   */\n      iszero\n      tag_171\n      jumpi\n        /* \"#utility.yul\":7983:8001   */\n      tag_172\n      tag_167\n      jump\t// in\n    tag_172:\n        /* \"#utility.yul\":7969:8003   */\n    tag_171:\n        /* \"#utility.yul\":8028:8029   */\n      dup3\n        /* \"#utility.yul\":8025:8026   */\n      dup3\n        /* \"#utility.yul\":8021:8030   */\n      sub\n        /* \"#utility.yul\":8013:8030   */\n      swap1\n      pop\n        /* \"#utility.yul\":7845:8036   */\n      swap3\n      swap2\n      pop\n      pop\n      jump\t// out\n        /* \"#utility.yul\":8042:8138   */\n    tag_117:\n        /* \"#utility.yul\":8079:8086   */\n      0x00\n        /* \"#utility.yul\":8108:8132   */\n      tag_174\n        /* \"#utility.yul\":8126:8131   */\n      dup3\n        /* \"#utility.yul\":8108:8132   */\n      tag_175\n      jump\t// in\n    tag_174:\n        /* \"#utility.yul\":8097:8132   */\n      swap1\n      pop\n        /* \"#utility.yul\":8042:8138   */\n      swap2\n      swap1\n      pop\n      jump\t// out\n        /* \"#utility.yul\":8144:8248   */\n    tag_176:\n        /* \"#utility.yul\":8189:8196   */\n      0x00\n        /* \"#utility.yul\":8218:8242   */\n      tag_178\n        /* \"#utility.yul\":8236:8241   */\n      dup3\n        /* \"#utility.yul\":8218:8242   */\n      tag_175\n      jump\t// in\n    tag_178:\n        /* \"#utility.yul\":8207:8242   */\n      swap1\n      pop\n        /* \"#utility.yul\":8144:8248   */\n      swap2\n      swap1\n      pop\n      jump\t// out\n        /* \"#utility.yul\":8254:8344   */\n    tag_179:\n        /* \"#utility.yul\":8288:8295   */\n      0x00\n        /* \"#utility.yul\":8331:8336   */\n      dup2\n        /* \"#utility.yul\":8324:8337   */\n      iszero\n        /* \"#utility.yul\":8317:8338   */\n      iszero\n        /* \"#utility.yul\":8306:8338   */\n      swap1\n      pop\n        /* \"#utility.yul\":8254:8344   */\n      swap2\n      swap1\n      pop\n      jump\t// out\n        /* \"#utility.yul\":8350:8460   */\n    tag_181:\n        /* \"#utility.yul\":8401:8408   */\n      0x00\n        /* \"#utility.yul\":8430:8454   */\n      tag_183\n        /* \"#utility.yul\":8448:8453   */\n      dup3\n        /* \"#utility.yul\":8430:8454   */\n      tag_117\n      jump\t// in\n    tag_183:\n        /* \"#utility.yul\":8419:8454   */\n      swap1\n      pop\n        /* \"#utility.yul\":8350:8460   */\n      swap2\n      swap1\n      pop\n      jump\t// out\n        /* \"#utility.yul\":8466:8592   */\n    tag_175:\n        /* \"#utility.yul\":8503:8510   */\n      0x00\n        /* \"#utility.yul\":8543:8585   */\n      0xffffffffffffffffffffffffffffffffffffffff\n        /* \"#utility.yul\":8536:8541   */\n      dup3\n        /* \"#utility.yul\":8532:8586   */\n      and\n        /* \"#utility.yul\":8521:8586   */\n      swap1\n      pop\n        /* \"#utility.yul\":8466:8592   */\n      swap2\n      swap1\n      pop\n      jump\t// out\n        /* \"#utility.yul\":8598:8675   */\n    tag_137:\n        /* \"#utility.yul\":8635:8642   */\n      0x00\n        /* \"#utility.yul\":8664:8669   */\n      dup2\n        /* \"#utility.yul\":8653:8669   */\n      swap1\n      pop\n        /* \"#utility.yul\":8598:8675   */\n      swap2\n      swap1\n      pop\n      jump\t// out\n        /* \"#utility.yul\":8681:8815   */\n    tag_113:\n        /* \"#utility.yul\":8739:8748   */\n      0x00\n        /* \"#utility.yul\":8772:8809   */\n      tag_187\n        /* \"#utility.yul\":8803:8808   */\n      dup3\n        /* \"#utility.yul\":8772:8809   */\n      tag_188\n      jump\t// in\n    tag_187:\n        /* \"#utility.yul\":8759:8809   */\n      swap1\n      pop\n        /* \"#utility.yul\":8681:8815   */\n      swap2\n      swap1\n      pop\n      jump\t// out\n        /* \"#utility.yul\":8821:8947   */\n    tag_188:\n        /* \"#utility.yul\":8871:8880   */\n      0x00\n        /* \"#utility.yul\":8904:8941   */\n      tag_190\n        /* \"#utility.yul\":8935:8940   */\n      dup3\n        /* \"#utility.yul\":8904:8941   */\n      tag_191\n      jump\t// in\n    tag_190:\n        /* \"#utility.yul\":8891:8941   */\n      swap1\n      pop\n        /* \"#utility.yul\":8821:8947   */\n      swap2\n      swap1\n      pop\n      jump\t// out\n        /* \"#utility.yul\":8953:9066   */\n    tag_191:\n        /* \"#utility.yul\":9003:9012   */\n      0x00\n        /* \"#utility.yul\":9036:9060   */\n      tag_193\n        /* \"#utility.yul\":9054:9059   */\n      dup3\n        /* \"#utility.yul\":9036:9060   */\n      tag_175\n      jump\t// in\n    tag_193:\n        /* \"#utility.yul\":9023:9060   */\n      swap1\n      pop\n        /* \"#utility.yul\":8953:9066   */\n      swap2\n      swap1\n      pop\n      jump\t// out\n        /* \"#utility.yul\":9072:9252   */\n    tag_167:\n        /* \"#utility.yul\":9120:9197   */\n      0x4e487b7100000000000000000000000000000000000000000000000000000000\n        /* \"#utility.yul\":9117:9118   */\n      0x00\n        /* \"#utility.yul\":9110:9198   */\n      mstore\n        /* \"#utility.yul\":9217:9221   */\n      0x11\n        /* \"#utility.yul\":9214:9215   */\n      0x04\n        /* \"#utility.yul\":9207:9222   */\n      mstore\n        /* \"#utility.yul\":9241:9245   */\n      0x24\n        /* \"#utility.yul\":9238:9239   */\n      0x00\n        /* \"#utility.yul\":9231:9246   */\n      revert\n        /* \"#utility.yul\":9381:9498   */\n    tag_93:\n        /* \"#utility.yul\":9490:9491   */\n      0x00\n        /* \"#utility.yul\":9487:9488   */\n      dup1\n        /* \"#utility.yul\":9480:9492   */\n      revert\n        /* \"#utility.yul\":9504:9683   */\n    tag_123:\n        /* \"#utility.yul\":9644:9675   */\n      0x4f6e6c79206f776e65722063616e2077697468647261772066756e6473000000\n        /* \"#utility.yul\":9640:9641   */\n      0x00\n        /* \"#utility.yul\":9632:9638   */\n      dup3\n        /* \"#utility.yul\":9628:9642   */\n      add\n        /* \"#utility.yul\":9621:9676   */\n      mstore\n        /* \"#utility.yul\":9504:9683   */\n      pop\n      jump\t// out\n        /* \"#utility.yul\":9689:9857   */\n    tag_128:\n        /* \"#utility.yul\":9829:9849   */\n      0x496e73756666696369656e742066756e64730000000000000000000000000000\n        /* \"#utility.yul\":9825:9826   */\n      0x00\n        /* \"#utility.yul\":9817:9823   */\n      dup3\n        /* \"#utility.yul\":9813:9827   */\n      add\n        /* \"#utility.yul\":9806:9850   */\n      mstore\n        /* \"#utility.yul\":9689:9857   */\n      pop\n      jump\t// out\n        /* \"#utility.yul\":9863:10027   */\n    tag_133:\n        /* \"#utility.yul\":10003:10019   */\n      0x62616c616e6365206973206c6f77000000000000000000000000000000000000\n        /* \"#utility.yul\":9999:10000   */\n      0x00\n        /* \"#utility.yul\":9991:9997   */\n      dup3\n        /* \"#utility.yul\":9987:10001   */\n      add\n        /* \"#utility.yul\":9980:10020   */\n      mstore\n        /* \"#utility.yul\":9863:10027   */\n      pop\n      jump\t// out\n        /* \"#utility.yul\":10033:10155   */\n    tag_70:\n        /* \"#utility.yul\":10106:10130   */\n      tag_202\n        /* \"#utility.yul\":10124:10129   */\n      dup2\n        /* \"#utility.yul\":10106:10130   */\n      tag_117\n      jump\t// in\n    tag_202:\n        /* \"#utility.yul\":10099:10104   */\n      dup2\n        /* \"#utility.yul\":10096:10131   */\n      eq\n        /* \"#utility.yul\":10086:10149   */\n      tag_203\n      jumpi\n        /* \"#utility.yul\":10145:10146   */\n      0x00\n        /* \"#utility.yul\":10142:10143   */\n      dup1\n        /* \"#utility.yul\":10135:10147   */\n      revert\n        /* \"#utility.yul\":10086:10149   */\n    tag_203:\n        /* \"#utility.yul\":10033:10155   */\n      pop\n      jump\t// out\n        /* \"#utility.yul\":10161:10299   */\n    tag_74:\n        /* \"#utility.yul\":10242:10274   */\n      tag_205\n        /* \"#utility.yul\":10268:10273   */\n      dup2\n        /* \"#utility.yul\":10242:10274   */\n      tag_176\n      jump\t// in\n    tag_205:\n        /* \"#utility.yul\":10235:10240   */\n      dup2\n        /* \"#utility.yul\":10232:10275   */\n      eq\n        /* \"#utility.yul\":10222:10293   */\n      tag_206\n      jumpi\n        /* \"#utility.yul\":10289:10290   */\n      0x00\n        /* \"#utility.yul\":10286:10287   */\n      dup1\n        /* \"#utility.yul\":10279:10291   */\n      revert\n        /* \"#utility.yul\":10222:10293   */\n    tag_206:\n        /* \"#utility.yul\":10161:10299   */\n      pop\n      jump\t// out\n        /* \"#utility.yul\":10305:10421   */\n    tag_78:\n        /* \"#utility.yul\":10375:10396   */\n      tag_208\n        /* \"#utility.yul\":10390:10395   */\n      dup2\n        /* \"#utility.yul\":10375:10396   */\n      tag_179\n      jump\t// in\n    tag_208:\n        /* \"#utility.yul\":10368:10373   */\n      dup2\n        /* \"#utility.yul\":10365:10397   */\n      eq\n        /* \"#utility.yul\":10355:10415   */\n      tag_209\n      jumpi\n        /* \"#utility.yul\":10411:10412   */\n      0x00\n        /* \"#utility.yul\":10408:10409   */\n      dup1\n        /* \"#utility.yul\":10401:10413   */\n      revert\n        /* \"#utility.yul\":10355:10415   */\n    tag_209:\n        /* \"#utility.yul\":10305:10421   */\n      pop\n      jump\t// out\n        /* \"#utility.yul\":10427:10577   */\n    tag_82:\n        /* \"#utility.yul\":10514:10552   */\n      tag_211\n        /* \"#utility.yul\":10546:10551   */\n      dup2\n        /* \"#utility.yul\":10514:10552   */\n      tag_181\n      jump\t// in\n    tag_211:\n        /* \"#utility.yul\":10507:10512   */\n      dup2\n        /* \"#utility.yul\":10504:10553   */\n      eq\n        /* \"#utility.yul\":10494:10571   */\n      tag_212\n      jumpi\n        /* \"#utility.yul\":10567:10568   */\n      0x00\n        /* \"#utility.yul\":10564:10565   */\n      dup1\n        /* \"#utility.yul\":10557:10569   */\n      revert\n        /* \"#utility.yul\":10494:10571   */\n    tag_212:\n        /* \"#utility.yul\":10427:10577   */\n      pop\n      jump\t// out\n        /* \"#utility.yul\":10583:10705   */\n    tag_86:\n        /* \"#utility.yul\":10656:10680   */\n      tag_214\n        /* \"#utility.yul\":10674:10679   */\n      dup2\n        /* \"#utility.yul\":10656:10680   */\n      tag_137\n      jump\t// in\n    tag_214:\n        /* \"#utility.yul\":10649:10654   */\n      dup2\n        /* \"#utility.yul\":10646:10681   */\n      eq\n        /* \"#utility.yul\":10636:10699   */\n      tag_215\n      jumpi\n        /* \"#utility.yul\":10695:10696   */\n      0x00\n        /* \"#utility.yul\":10692:10693   */\n      dup1\n        /* \"#utility.yul\":10685:10697   */\n      revert\n        /* \"#utility.yul\":10636:10699   */\n    tag_215:\n        /* \"#utility.yul\":10583:10705   */\n      pop\n      jump\t// out\n\n    auxdata: 0xa264697066735822122048fdec7e435d6faf13dc332cf036aa7786a492180c568543a2f8da2f7919b3a964736f6c63430008070033\n}\n",
				"bytecode": {
					"linkReferences": {},
					"object": "608060405234801561001057600080fd5b50336000806101000a81548173ffffffffffffffffffffffffffffffffffffffff021916908373ffffffffffffffffffffffffffffffffffffffff160217905550610ad4806100606000396000f3fe6080604052600436106100425760003560e01c8062f714ce146100a05780638da5cb5b146100c95780639db5dbe4146100f4578063b69ef8a81461011d5761009b565b3661009b5734600160008282546100599190610850565b925050819055507ff1b03f708b9c39f453fe3f0cef84164c7d6f7df836df0796e1e9c2bce6ee397e333460405161009192919061079b565b60405180910390a1005b600080fd5b3480156100ac57600080fd5b506100c760048036038101906100c2919061063c565b610148565b005b3480156100d557600080fd5b506100de6102ba565b6040516100eb9190610712565b60405180910390f35b34801561010057600080fd5b5061011b600480360381019061011691906105bc565b6102de565b005b34801561012957600080fd5b5061013261050b565b60405161013f9190610824565b60405180910390f35b60008054906101000a900473ffffffffffffffffffffffffffffffffffffffff1673ffffffffffffffffffffffffffffffffffffffff163373ffffffffffffffffffffffffffffffffffffffff16146101d6576040517f08c379a00000000000000000000000000000000000000000000000000000000081526004016101cd906107c4565b60405180910390fd5b60015482111561021b576040517f08c379a0000000000000000000000000000000000000000000000000000000008152600401610212906107e4565b60405180910390fd5b8073ffffffffffffffffffffffffffffffffffffffff166108fc839081150290604051600060405180830381858888f19350505050158015610261573d6000803e3d6000fd5b50816001600082825461027491906108a6565b925050819055507ffda3a3e0e1479b43cb1c701f7576187f4c4ad80768d627387e00184302f7d88e3382846040516102ae9392919061072d565b60405180910390a15050565b60008054906101000a900473ffffffffffffffffffffffffffffffffffffffff1681565b60008054906101000a900473ffffffffffffffffffffffffffffffffffffffff1673ffffffffffffffffffffffffffffffffffffffff163373ffffffffffffffffffffffffffffffffffffffff161461036c576040517f08c379a0000000000000000000000000000000000000000000000000000000008152600401610363906107c4565b60405180910390fd5b60008373ffffffffffffffffffffffffffffffffffffffff166370a08231306040518263ffffffff1660e01b81526004016103a79190610712565b60206040518083038186803b1580156103bf57600080fd5b505afa1580156103d3573d6000803e3d6000fd5b505050506040513d601f19601f820116820180604052508101906103f7919061060f565b90508082111561043c576040517f08c379a000000000000000000000000000000000000000000000000000000000815260040161043390610804565b60405180910390fd5b8373ffffffffffffffffffffffffffffffffffffffff1663a9059cbb84846040518363ffffffff1660e01b815260040161047792919061079b565b602060405180830381600087803b15801561049157600080fd5b505af11580156104a5573d6000803e3d6000fd5b505050506040513d601f19601f820116820180604052508101906104c9919061058f565b507ffda3a3e0e1479b43cb1c701f7576187f4c4ad80768d627387e00184302f7d88e3384846040516104fd93929190610764565b60405180910390a150505050565b60015481565b60008135905061052081610a2b565b92915050565b60008135905061053581610a42565b92915050565b60008151905061054a81610a59565b92915050565b60008135905061055f81610a70565b92915050565b60008135905061057481610a87565b92915050565b60008151905061058981610a87565b92915050565b6000602082840312156105a5576105a46109ab565b5b60006105b38482850161053b565b91505092915050565b6000806000606084860312156105d5576105d46109ab565b5b60006105e386828701610550565b93505060206105f486828701610511565b925050604061060586828701610565565b9150509250925092565b600060208284031215610625576106246109ab565b5b60006106338482850161057a565b91505092915050565b60008060408385031215610653576106526109ab565b5b600061066185828601610565565b925050602061067285828601610526565b9150509250929050565b61068581610946565b82525050565b610694816108da565b82525050565b60006106a7601d8361083f565b91506106b2826109b0565b602082019050919050565b60006106ca60128361083f565b91506106d5826109d9565b602082019050919050565b60006106ed600e8361083f565b91506106f882610a02565b602082019050919050565b61070c8161093c565b82525050565b6000602082019050610727600083018461068b565b92915050565b6000606082019050610742600083018661068b565b61074f602083018561067c565b61075c6040830184610703565b949350505050565b6000606082019050610779600083018661068b565b610786602083018561068b565b6107936040830184610703565b949350505050565b60006040820190506107b0600083018561068b565b6107bd6020830184610703565b9392505050565b600060208201905081810360008301526107dd8161069a565b9050919050565b600060208201905081810360008301526107fd816106bd565b9050919050565b6000602082019050818103600083015261081d816106e0565b9050919050565b60006020820190506108396000830184610703565b92915050565b600082825260208201905092915050565b600061085b8261093c565b91506108668361093c565b9250827fffffffffffffffffffffffffffffffffffffffffffffffffffffffffffffffff0382111561089b5761089a61097c565b5b828201905092915050565b60006108b18261093c565b91506108bc8361093c565b9250828210156108cf576108ce61097c565b5b828203905092915050565b60006108e58261091c565b9050919050565b60006108f78261091c565b9050919050565b60008115159050919050565b6000610915826108da565b9050919050565b600073ffffffffffffffffffffffffffffffffffffffff82169050919050565b6000819050919050565b600061095182610958565b9050919050565b60006109638261096a565b9050919050565b60006109758261091c565b9050919050565b7f4e487b7100000000000000000000000000000000000000000000000000000000600052601160045260246000fd5b600080fd5b7f4f6e6c79206f776e65722063616e2077697468647261772066756e6473000000600082015250565b7f496e73756666696369656e742066756e64730000000000000000000000000000600082015250565b7f62616c616e6365206973206c6f77000000000000000000000000000000000000600082015250565b610a34816108da565b8114610a3f57600080fd5b50565b610a4b816108ec565b8114610a5657600080fd5b50565b610a62816108fe565b8114610a6d57600080fd5b50565b610a798161090a565b8114610a8457600080fd5b50565b610a908161093c565b8114610a9b57600080fd5b5056fea264697066735822122048fdec7e435d6faf13dc332cf036aa7786a492180c568543a2f8da2f7919b3a964736f6c63430008070033",
					"opcodes": "PUSH1 0x80 PUSH1 0x40 MSTORE CALLVALUE DUP1 ISZERO PUSH2 0x10 JUMPI PUSH1 0x0 DUP1 REVERT JUMPDEST POP CALLER PUSH1 0x0 DUP1 PUSH2 0x100 EXP DUP2 SLOAD DUP2 PUSH20 0xFFFFFFFFFFFFFFFFFFFFFFFFFFFFFFFFFFFFFFFF MUL NOT AND SWAP1 DUP4 PUSH20 0xFFFFFFFFFFFFFFFFFFFFFFFFFFFFFFFFFFFFFFFF AND MUL OR SWAP1 SSTORE POP PUSH2 0xAD4 DUP1 PUSH2 0x60 PUSH1 0x0 CODECOPY PUSH1 0x0 RETURN INVALID PUSH1 0x80 PUSH1 0x40 MSTORE PUSH1 0x4 CALLDATASIZE LT PUSH2 0x42 JUMPI PUSH1 0x0 CALLDATALOAD PUSH1 0xE0 SHR DUP1 PUSH3 0xF714CE EQ PUSH2 0xA0 JUMPI DUP1 PUSH4 0x8DA5CB5B EQ PUSH2 0xC9 JUMPI DUP1 PUSH4 0x9DB5DBE4 EQ PUSH2 0xF4 JUMPI DUP1 PUSH4 0xB69EF8A8 EQ PUSH2 0x11D JUMPI PUSH2 0x9B JUMP JUMPDEST CALLDATASIZE PUSH2 0x9B JUMPI CALLVALUE PUSH1 0x1 PUSH1 0x0 DUP3 DUP3 SLOAD PUSH2 0x59 SWAP2 SWAP1 PUSH2 0x850 JUMP JUMPDEST SWAP3 POP POP DUP2 SWAP1 SSTORE POP PUSH32 0xF1B03F708B9C39F453FE3F0CEF84164C7D6F7DF836DF0796E1E9C2BCE6EE397E CALLER CALLVALUE PUSH1 0x40 MLOAD PUSH2 0x91 SWAP3 SWAP2 SWAP1 PUSH2 0x79B JUMP JUMPDEST PUSH1 0x40 MLOAD DUP1 SWAP2 SUB SWAP1 LOG1 STOP JUMPDEST PUSH1 0x0 DUP1 REVERT JUMPDEST CALLVALUE DUP1 ISZERO PUSH2 0xAC JUMPI PUSH1 0x0 DUP1 REVERT JUMPDEST POP PUSH2 0xC7 PUSH1 0x4 DUP1 CALLDATASIZE SUB DUP2 ADD SWAP1 PUSH2 0xC2 SWAP2 SWAP1 PUSH2 0x63C JUMP JUMPDEST PUSH2 0x148 JUMP JUMPDEST STOP JUMPDEST CALLVALUE DUP1 ISZERO PUSH2 0xD5 JUMPI PUSH1 0x0 DUP1 REVERT JUMPDEST POP PUSH2 0xDE PUSH2 0x2BA JUMP JUMPDEST PUSH1 0x40 MLOAD PUSH2 0xEB SWAP2 SWAP1 PUSH2 0x712 JUMP JUMPDEST PUSH1 0x40 MLOAD DUP1 SWAP2 SUB SWAP1 RETURN JUMPDEST CALLVALUE DUP1 ISZERO PUSH2 0x100 JUMPI PUSH1 0x0 DUP1 REVERT JUMPDEST POP PUSH2 0x11B PUSH1 0x4 DUP1 CALLDATASIZE SUB DUP2 ADD SWAP1 PUSH2 0x116 SWAP2 SWAP1 PUSH2 0x5BC JUMP JUMPDEST PUSH2 0x2DE JUMP JUMPDEST STOP JUMPDEST CALLVALUE DUP1 ISZERO PUSH2 0x129 JUMPI PUSH1 0x0 DUP1 REVERT JUMPDEST POP PUSH2 0x132 PUSH2 0x50B JUMP JUMPDEST PUSH1 0x40 MLOAD PUSH2 0x13F SWAP2 SWAP1 PUSH2 0x824 JUMP JUMPDEST PUSH1 0x40 MLOAD DUP1 SWAP2 SUB SWAP1 RETURN JUMPDEST PUSH1 0x0 DUP1 SLOAD SWAP1 PUSH2 0x100 EXP SWAP1 DIV PUSH20 0xFFFFFFFFFFFFFFFFFFFFFFFFFFFFFFFFFFFFFFFF AND PUSH20 0xFFFFFFFFFFFFFFFFFFFFFFFFFFFFFFFFFFFFFFFF AND CALLER PUSH20 0xFFFFFFFFFFFFFFFFFFFFFFFFFFFFFFFFFFFFFFFF AND EQ PUSH2 0x1D6 JUMPI PUSH1 0x40 MLOAD PUSH32 0x8C379A000000000000000000000000000000000000000000000000000000000 DUP2 MSTORE PUSH1 0x4 ADD PUSH2 0x1CD SWAP1 PUSH2 0x7C4 JUMP JUMPDEST PUSH1 0x40 MLOAD DUP1 SWAP2 SUB SWAP1 REVERT JUMPDEST PUSH1 0x1 SLOAD DUP3 GT ISZERO PUSH2 0x21B JUMPI PUSH1 0x40 MLOAD PUSH32 0x8C379A000000000000000000000000000000000000000000000000000000000 DUP2 MSTORE PUSH1 0x4 ADD PUSH2 0x212 SWAP1 PUSH2 0x7E4 JUMP JUMPDEST PUSH1 0x40 MLOAD DUP1 SWAP2 SUB SWAP1 REVERT JUMPDEST DUP1 PUSH20 0xFFFFFFFFFFFFFFFFFFFFFFFFFFFFFFFFFFFFFFFF AND PUSH2 0x8FC DUP4 SWAP1 DUP2 ISZERO MUL SWAP1 PUSH1 0x40 MLOAD PUSH1 0x0 PUSH1 0x40 MLOAD DUP1 DUP4 SUB DUP2 DUP6 DUP9 DUP9 CALL SWAP4 POP POP POP POP ISZERO DUP1 ISZERO PUSH2 0x261 JUMPI RETURNDATASIZE PUSH1 0x0 DUP1 RETURNDATACOPY RETURNDATASIZE PUSH1 0x0 REVERT JUMPDEST POP DUP2 PUSH1 0x1 PUSH1 0x0 DUP3 DUP3 SLOAD PUSH2 0x274 SWAP2 SWAP1 PUSH2 0x8A6 JUMP JUMPDEST SWAP3 POP POP DUP2 SWAP1 SSTORE POP PUSH32 0xFDA3A3E0E1479B43CB1C701F7576187F4C4AD80768D627387E00184302F7D88E CALLER DUP3 DUP5 PUSH1 0x40 MLOAD PUSH2 0x2AE SWAP4 SWAP3 SWAP2 SWAP1 PUSH2 0x72D JUMP JUMPDEST PUSH1 0x40 MLOAD DUP1 SWAP2 SUB SWAP1 LOG1 POP POP JUMP JUMPDEST PUSH1 0x0 DUP1 SLOAD SWAP1 PUSH2 0x100 EXP SWAP1 DIV PUSH20 0xFFFFFFFFFFFFFFFFFFFFFFFFFFFFFFFFFFFFFFFF AND DUP2 JUMP JUMPDEST PUSH1 0x0 DUP1 SLOAD SWAP1 PUSH2 0x100 EXP SWAP1 DIV PUSH20 0xFFFFFFFFFFFFFFFFFFFFFFFFFFFFFFFFFFFFFFFF AND PUSH20 0xFFFFFFFFFFFFFFFFFFFFFFFFFFFFFFFFFFFFFFFF AND CALLER PUSH20 0xFFFFFFFFFFFFFFFFFFFFFFFFFFFFFFFFFFFFFFFF AND EQ PUSH2 0x36C JUMPI PUSH1 0x40 MLOAD PUSH32 0x8C379A000000000000000000000000000000000000000000000000000000000 DUP2 MSTORE PUSH1 0x4 ADD PUSH2 0x363 SWAP1 PUSH2 0x7C4 JUMP JUMPDEST PUSH1 0x40 MLOAD DUP1 SWAP2 SUB SWAP1 REVERT JUMPDEST PUSH1 0x0 DUP4 PUSH20 0xFFFFFFFFFFFFFFFFFFFFFFFFFFFFFFFFFFFFFFFF AND PUSH4 0x70A08231 ADDRESS PUSH1 0x40 MLOAD DUP3 PUSH4 0xFFFFFFFF AND PUSH1 0xE0 SHL DUP2 MSTORE PUSH1 0x4 ADD PUSH2 0x3A7 SWAP2 SWAP1 PUSH2 0x712 JUMP JUMPDEST PUSH1 0x20 PUSH1 0x40 MLOAD DUP1 DUP4 SUB DUP2 DUP7 DUP1 EXTCODESIZE ISZERO DUP1 ISZERO PUSH2 0x3BF JUMPI PUSH1 0x0 DUP1 REVERT JUMPDEST POP GAS STATICCALL ISZERO DUP1 ISZERO PUSH2 0x3D3 JUMPI RETURNDATASIZE PUSH1 0x0 DUP1 RETURNDATACOPY RETURNDATASIZE PUSH1 0x0 REVERT JUMPDEST POP POP POP POP PUSH1 0x40 MLOAD RETURNDATASIZE PUSH1 0x1F NOT PUSH1 0x1F DUP3 ADD AND DUP3 ADD DUP1 PUSH1 0x40 MSTORE POP DUP2 ADD SWAP1 PUSH2 0x3F7 SWAP2 SWAP1 PUSH2 0x60F JUMP JUMPDEST SWAP1 POP DUP1 DUP3 GT ISZERO PUSH2 0x43C JUMPI PUSH1 0x40 MLOAD PUSH32 0x8C379A000000000000000000000000000000000000000000000000000000000 DUP2 MSTORE PUSH1 0x4 ADD PUSH2 0x433 SWAP1 PUSH2 0x804 JUMP JUMPDEST PUSH1 0x40 MLOAD DUP1 SWAP2 SUB SWAP1 REVERT JUMPDEST DUP4 PUSH20 0xFFFFFFFFFFFFFFFFFFFFFFFFFFFFFFFFFFFFFFFF AND PUSH4 0xA9059CBB DUP5 DUP5 PUSH1 0x40 MLOAD DUP4 PUSH4 0xFFFFFFFF AND PUSH1 0xE0 SHL DUP2 MSTORE PUSH1 0x4 ADD PUSH2 0x477 SWAP3 SWAP2 SWAP1 PUSH2 0x79B JUMP JUMPDEST PUSH1 0x20 PUSH1 0x40 MLOAD DUP1 DUP4 SUB DUP2 PUSH1 0x0 DUP8 DUP1 EXTCODESIZE ISZERO DUP1 ISZERO PUSH2 0x491 JUMPI PUSH1 0x0 DUP1 REVERT JUMPDEST POP GAS CALL ISZERO DUP1 ISZERO PUSH2 0x4A5 JUMPI RETURNDATASIZE PUSH1 0x0 DUP1 RETURNDATACOPY RETURNDATASIZE PUSH1 0x0 REVERT JUMPDEST POP POP POP POP PUSH1 0x40 MLOAD RETURNDATASIZE PUSH1 0x1F NOT PUSH1 0x1F DUP3 ADD AND DUP3 ADD DUP1 PUSH1 0x40 MSTORE POP DUP2 ADD SWAP1 PUSH2 0x4C9 SWAP2 SWAP1 PUSH2 0x58F JUMP JUMPDEST POP PUSH32 0xFDA3A3E0E1479B43CB1C701F7576187F4C4AD80768D627387E00184302F7D88E CALLER DUP5 DUP5 PUSH1 0x40 MLOAD PUSH2 0x4FD SWAP4 SWAP3 SWAP2 SWAP1 PUSH2 0x764 JUMP JUMPDEST PUSH1 0x40 MLOAD DUP1 SWAP2 SUB SWAP1 LOG1 POP POP POP POP JUMP JUMPDEST PUSH1 0x1 SLOAD DUP2 JUMP JUMPDEST PUSH1 0x0 DUP2 CALLDATALOAD SWAP1 POP PUSH2 0x520 DUP2 PUSH2 0xA2B JUMP JUMPDEST SWAP3 SWAP2 POP POP JUMP JUMPDEST PUSH1 0x0 DUP2 CALLDATALOAD SWAP1 POP PUSH2 0x535 DUP2 PUSH2 0xA42 JUMP JUMPDEST SWAP3 SWAP2 POP POP JUMP JUMPDEST PUSH1 0x0 DUP2 MLOAD SWAP1 POP PUSH2 0x54A DUP2 PUSH2 0xA59 JUMP JUMPDEST SWAP3 SWAP2 POP POP JUMP JUMPDEST PUSH1 0x0 DUP2 CALLDATALOAD SWAP1 POP PUSH2 0x55F DUP2 PUSH2 0xA70 JUMP JUMPDEST SWAP3 SWAP2 POP POP JUMP JUMPDEST PUSH1 0x0 DUP2 CALLDATALOAD SWAP1 POP PUSH2 0x574 DUP2 PUSH2 0xA87 JUMP JUMPDEST SWAP3 SWAP2 POP POP JUMP JUMPDEST PUSH1 0x0 DUP2 MLOAD SWAP1 POP PUSH2 0x589 DUP2 PUSH2 0xA87 JUMP JUMPDEST SWAP3 SWAP2 POP POP JUMP JUMPDEST PUSH1 0x0 PUSH1 0x20 DUP3 DUP5 SUB SLT ISZERO PUSH2 0x5A5 JUMPI PUSH2 0x5A4 PUSH2 0x9AB JUMP JUMPDEST JUMPDEST PUSH1 0x0 PUSH2 0x5B3 DUP5 DUP3 DUP6 ADD PUSH2 0x53B JUMP JUMPDEST SWAP2 POP POP SWAP3 SWAP2 POP POP JUMP JUMPDEST PUSH1 0x0 DUP1 PUSH1 0x0 PUSH1 0x60 DUP5 DUP7 SUB SLT ISZERO PUSH2 0x5D5 JUMPI PUSH2 0x5D4 PUSH2 0x9AB JUMP JUMPDEST JUMPDEST PUSH1 0x0 PUSH2 0x5E3 DUP7 DUP3 DUP8 ADD PUSH2 0x550 JUMP JUMPDEST SWAP4 POP POP PUSH1 0x20 PUSH2 0x5F4 DUP7 DUP3 DUP8 ADD PUSH2 0x511 JUMP JUMPDEST SWAP3 POP POP PUSH1 0x40 PUSH2 0x605 DUP7 DUP3 DUP8 ADD PUSH2 0x565 JUMP JUMPDEST SWAP2 POP POP SWAP3 POP SWAP3 POP SWAP3 JUMP JUMPDEST PUSH1 0x0 PUSH1 0x20 DUP3 DUP5 SUB SLT ISZERO PUSH2 0x625 JUMPI PUSH2 0x624 PUSH2 0x9AB JUMP JUMPDEST JUMPDEST PUSH1 0x0 PUSH2 0x633 DUP5 DUP3 DUP6 ADD PUSH2 0x57A JUMP JUMPDEST SWAP2 POP POP SWAP3 SWAP2 POP POP JUMP JUMPDEST PUSH1 0x0 DUP1 PUSH1 0x40 DUP4 DUP6 SUB SLT ISZERO PUSH2 0x653 JUMPI PUSH2 0x652 PUSH2 0x9AB JUMP JUMPDEST JUMPDEST PUSH1 0x0 PUSH2 0x661 DUP6 DUP3 DUP7 ADD PUSH2 0x565 JUMP JUMPDEST SWAP3 POP POP PUSH1 0x20 PUSH2 0x672 DUP6 DUP3 DUP7 ADD PUSH2 0x526 JUMP JUMPDEST SWAP2 POP POP SWAP3 POP SWAP3 SWAP1 POP JUMP JUMPDEST PUSH2 0x685 DUP2 PUSH2 0x946 JUMP JUMPDEST DUP3 MSTORE POP POP JUMP JUMPDEST PUSH2 0x694 DUP2 PUSH2 0x8DA JUMP JUMPDEST DUP3 MSTORE POP POP JUMP JUMPDEST PUSH1 0x0 PUSH2 0x6A7 PUSH1 0x1D DUP4 PUSH2 0x83F JUMP JUMPDEST SWAP2 POP PUSH2 0x6B2 DUP3 PUSH2 0x9B0 JUMP JUMPDEST PUSH1 0x20 DUP3 ADD SWAP1 POP SWAP2 SWAP1 POP JUMP JUMPDEST PUSH1 0x0 PUSH2 0x6CA PUSH1 0x12 DUP4 PUSH2 0x83F JUMP JUMPDEST SWAP2 POP PUSH2 0x6D5 DUP3 PUSH2 0x9D9 JUMP JUMPDEST PUSH1 0x20 DUP3 ADD SWAP1 POP SWAP2 SWAP1 POP JUMP JUMPDEST PUSH1 0x0 PUSH2 0x6ED PUSH1 0xE DUP4 PUSH2 0x83F JUMP JUMPDEST SWAP2 POP PUSH2 0x6F8 DUP3 PUSH2 0xA02 JUMP JUMPDEST PUSH1 0x20 DUP3 ADD SWAP1 POP SWAP2 SWAP1 POP JUMP JUMPDEST PUSH2 0x70C DUP2 PUSH2 0x93C JUMP JUMPDEST DUP3 MSTORE POP POP JUMP JUMPDEST PUSH1 0x0 PUSH1 0x20 DUP3 ADD SWAP1 POP PUSH2 0x727 PUSH1 0x0 DUP4 ADD DUP5 PUSH2 0x68B JUMP JUMPDEST SWAP3 SWAP2 POP POP JUMP JUMPDEST PUSH1 0x0 PUSH1 0x60 DUP3 ADD SWAP1 POP PUSH2 0x742 PUSH1 0x0 DUP4 ADD DUP7 PUSH2 0x68B JUMP JUMPDEST PUSH2 0x74F PUSH1 0x20 DUP4 ADD DUP6 PUSH2 0x67C JUMP JUMPDEST PUSH2 0x75C PUSH1 0x40 DUP4 ADD DUP5 PUSH2 0x703 JUMP JUMPDEST SWAP5 SWAP4 POP POP POP POP JUMP JUMPDEST PUSH1 0x0 PUSH1 0x60 DUP3 ADD SWAP1 POP PUSH2 0x779 PUSH1 0x0 DUP4 ADD DUP7 PUSH2 0x68B JUMP JUMPDEST PUSH2 0x786 PUSH1 0x20 DUP4 ADD DUP6 PUSH2 0x68B JUMP JUMPDEST PUSH2 0x793 PUSH1 0x40 DUP4 ADD DUP5 PUSH2 0x703 JUMP JUMPDEST SWAP5 SWAP4 POP POP POP POP JUMP JUMPDEST PUSH1 0x0 PUSH1 0x40 DUP3 ADD SWAP1 POP PUSH2 0x7B0 PUSH1 0x0 DUP4 ADD DUP6 PUSH2 0x68B JUMP JUMPDEST PUSH2 0x7BD PUSH1 0x20 DUP4 ADD DUP5 PUSH2 0x703 JUMP JUMPDEST SWAP4 SWAP3 POP POP POP JUMP JUMPDEST PUSH1 0x0 PUSH1 0x20 DUP3 ADD SWAP1 POP DUP2 DUP2 SUB PUSH1 0x0 DUP4 ADD MSTORE PUSH2 0x7DD DUP2 PUSH2 0x69A JUMP JUMPDEST SWAP1 POP SWAP2 SWAP1 POP JUMP JUMPDEST PUSH1 0x0 PUSH1 0x20 DUP3 ADD SWAP1 POP DUP2 DUP2 SUB PUSH1 0x0 DUP4 ADD MSTORE PUSH2 0x7FD DUP2 PUSH2 0x6BD JUMP JUMPDEST SWAP1 POP SWAP2 SWAP1 POP JUMP JUMPDEST PUSH1 0x0 PUSH1 0x20 DUP3 ADD SWAP1 POP DUP2 DUP2 SUB PUSH1 0x0 DUP4 ADD MSTORE PUSH2 0x81D DUP2 PUSH2 0x6E0 JUMP JUMPDEST SWAP1 POP SWAP2 SWAP1 POP JUMP JUMPDEST PUSH1 0x0 PUSH1 0x20 DUP3 ADD SWAP1 POP PUSH2 0x839 PUSH1 0x0 DUP4 ADD DUP5 PUSH2 0x703 JUMP JUMPDEST SWAP3 SWAP2 POP POP JUMP JUMPDEST PUSH1 0x0 DUP3 DUP3 MSTORE PUSH1 0x20 DUP3 ADD SWAP1 POP SWAP3 SWAP2 POP POP JUMP JUMPDEST PUSH1 0x0 PUSH2 0x85B DUP3 PUSH2 0x93C JUMP JUMPDEST SWAP2 POP PUSH2 0x866 DUP4 PUSH2 0x93C JUMP JUMPDEST SWAP3 POP DUP3 PUSH32 0xFFFFFFFFFFFFFFFFFFFFFFFFFFFFFFFFFFFFFFFFFFFFFFFFFFFFFFFFFFFFFFFF SUB DUP3 GT ISZERO PUSH2 0x89B JUMPI PUSH2 0x89A PUSH2 0x97C JUMP JUMPDEST JUMPDEST DUP3 DUP3 ADD SWAP1 POP SWAP3 SWAP2 POP POP JUMP JUMPDEST PUSH1 0x0 PUSH2 0x8B1 DUP3 PUSH2 0x93C JUMP JUMPDEST SWAP2 POP PUSH2 0x8BC DUP4 PUSH2 0x93C JUMP JUMPDEST SWAP3 POP DUP3 DUP3 LT ISZERO PUSH2 0x8CF JUMPI PUSH2 0x8CE PUSH2 0x97C JUMP JUMPDEST JUMPDEST DUP3 DUP3 SUB SWAP1 POP SWAP3 SWAP2 POP POP JUMP JUMPDEST PUSH1 0x0 PUSH2 0x8E5 DUP3 PUSH2 0x91C JUMP JUMPDEST SWAP1 POP SWAP2 SWAP1 POP JUMP JUMPDEST PUSH1 0x0 PUSH2 0x8F7 DUP3 PUSH2 0x91C JUMP JUMPDEST SWAP1 POP SWAP2 SWAP1 POP JUMP JUMPDEST PUSH1 0x0 DUP2 ISZERO ISZERO SWAP1 POP SWAP2 SWAP1 POP JUMP JUMPDEST PUSH1 0x0 PUSH2 0x915 DUP3 PUSH2 0x8DA JUMP JUMPDEST SWAP1 POP SWAP2 SWAP1 POP JUMP JUMPDEST PUSH1 0x0 PUSH20 0xFFFFFFFFFFFFFFFFFFFFFFFFFFFFFFFFFFFFFFFF DUP3 AND SWAP1 POP SWAP2 SWAP1 POP JUMP JUMPDEST PUSH1 0x0 DUP2 SWAP1 POP SWAP2 SWAP1 POP JUMP JUMPDEST PUSH1 0x0 PUSH2 0x951 DUP3 PUSH2 0x958 JUMP JUMPDEST SWAP1 POP SWAP2 SWAP1 POP JUMP JUMPDEST PUSH1 0x0 PUSH2 0x963 DUP3 PUSH2 0x96A JUMP JUMPDEST SWAP1 POP SWAP2 SWAP1 POP JUMP JUMPDEST PUSH1 0x0 PUSH2 0x975 DUP3 PUSH2 0x91C JUMP JUMPDEST SWAP1 POP SWAP2 SWAP1 POP JUMP JUMPDEST PUSH32 0x4E487B7100000000000000000000000000000000000000000000000000000000 PUSH1 0x0 MSTORE PUSH1 0x11 PUSH1 0x4 MSTORE PUSH1 0x24 PUSH1 0x0 REVERT JUMPDEST PUSH1 0x0 DUP1 REVERT JUMPDEST PUSH32 0x4F6E6C79206F776E65722063616E2077697468647261772066756E6473000000 PUSH1 0x0 DUP3 ADD MSTORE POP JUMP JUMPDEST PUSH32 0x496E73756666696369656E742066756E64730000000000000000000000000000 PUSH1 0x0 DUP3 ADD MSTORE POP JUMP JUMPDEST PUSH32 0x62616C616E6365206973206C6F77000000000000000000000000000000000000 PUSH1 0x0 DUP3 ADD MSTORE POP JUMP JUMPDEST PUSH2 0xA34 DUP2 PUSH2 0x8DA JUMP JUMPDEST DUP2 EQ PUSH2 0xA3F JUMPI PUSH1 0x0 DUP1 REVERT JUMPDEST POP JUMP JUMPDEST PUSH2 0xA4B DUP2 PUSH2 0x8EC JUMP JUMPDEST DUP2 EQ PUSH2 0xA56 JUMPI PUSH1 0x0 DUP1 REVERT JUMPDEST POP JUMP JUMPDEST PUSH2 0xA62 DUP2 PUSH2 0x8FE JUMP JUMPDEST DUP2 EQ PUSH2 0xA6D JUMPI PUSH1 0x0 DUP1 REVERT JUMPDEST POP JUMP JUMPDEST PUSH2 0xA79 DUP2 PUSH2 0x90A JUMP JUMPDEST DUP2 EQ PUSH2 0xA84 JUMPI PUSH1 0x0 DUP1 REVERT JUMPDEST POP JUMP JUMPDEST PUSH2 0xA90 DUP2 PUSH2 0x93C JUMP JUMPDEST DUP2 EQ PUSH2 0xA9B JUMPI PUSH1 0x0 DUP1 REVERT JUMPDEST POP JUMP INVALID LOG2 PUSH5 0x6970667358 0x22 SLT KECCAK256 BASEFEE REVERT 0xEC PUSH31 0x435D6FAF13DC332CF036AA7786A492180C568543A2F8DA2F7919B3A964736F PUSH13 0x63430008070033000000000000 "
				},
				"gasEstimates": {
					"creation": {
						"codeDepositCost": "554400",
						"executionCost": "24853",
						"totalCost": "579253"
					},
					"external": {
						"balance()": "2473",
						"owner()": "2511",
						"transferERC20(address,address,uint256)": "infinite",
						"withdraw(uint256,address)": "infinite"
					}
				},
				"methodIdentifiers": {
					"balance()": "b69ef8a8",
					"owner()": "8da5cb5b",
					"transferERC20(address,address,uint256)": "9db5dbe4",
					"withdraw(uint256,address)": "00f714ce"
				}
			},
			"userdoc": {
				"kind": "user",
				"methods": {},
				"version": 1
			}
		}
	}
}