{
	"contracts/TokenSwap.sol": {
		"TokenSwap": {
			"abi": [
				{
					"inputs": [
						{
							"internalType": "string",
							"name": "_name",
							"type": "string"
						},
						{
							"internalType": "string",
							"name": "_symbol",
							"type": "string"
						}
					],
					"stateMutability": "nonpayable",
					"type": "constructor"
				},
				{
					"inputs": [
						{
							"internalType": "address",
							"name": "",
							"type": "address"
						}
					],
					"name": "balanceReceived",
					"outputs": [
						{
							"internalType": "uint256",
							"name": "",
							"type": "uint256"
						}
					],
					"stateMutability": "view",
					"type": "function"
				},
				{
					"inputs": [],
					"name": "receiveToken",
					"outputs": [],
					"stateMutability": "payable",
					"type": "function"
				},
				{
					"inputs": [],
					"name": "token",
					"outputs": [
						{
							"internalType": "contract IERC20",
							"name": "",
							"type": "address"
						}
					],
					"stateMutability": "view",
					"type": "function"
				},
				{
					"stateMutability": "payable",
					"type": "receive"
				}
			],
			"devdoc": {
				"kind": "dev",
				"methods": {},
				"version": 1
			},
			"evm": {
				"assembly": "    /* \"contracts/TokenSwap.sol\":110:726  contract TokenSwap {... */\n  mstore(0x40, 0x80)\n    /* \"contracts/TokenSwap.sol\":163:269  constructor(string memory _name, string memory _symbol) {... */\n  callvalue\n  dup1\n  iszero\n  tag_1\n  jumpi\n  0x00\n  dup1\n  revert\ntag_1:\n  pop\n  mload(0x40)\n  sub(codesize, bytecodeSize)\n  dup1\n  bytecodeSize\n  dup4\n  codecopy\n  dup2\n  dup2\n  add\n  0x40\n  mstore\n  dup2\n  add\n  swap1\n  tag_2\n  swap2\n  swap1\n  tag_3\n  jump\t// in\ntag_2:\n    /* \"contracts/TokenSwap.sol\":247:252  _name */\n  dup2\n    /* \"contracts/TokenSwap.sol\":254:261  _symbol */\n  dup2\n    /* \"contracts/TokenSwap.sol\":237:262  new ERC20(_name, _symbol) */\n  mload(0x40)\n  tag_6\n  swap1\n  tag_7\n  jump\t// in\ntag_6:\n  tag_8\n  swap3\n  swap2\n  swap1\n  tag_9\n  jump\t// in\ntag_8:\n  mload(0x40)\n  dup1\n  swap2\n  sub\n  swap1\n  0x00\n  create\n  dup1\n  iszero\n  dup1\n  iszero\n  tag_10\n  jumpi\n  returndatasize\n  0x00\n  dup1\n  returndatacopy\n  revert(0x00, returndatasize)\ntag_10:\n  pop\n    /* \"contracts/TokenSwap.sol\":229:234  token */\n  0x00\n  dup1\n    /* \"contracts/TokenSwap.sol\":229:262  token = new ERC20(_name, _symbol) */\n  0x0100\n  exp\n  dup2\n  sload\n  dup2\n  0xffffffffffffffffffffffffffffffffffffffff\n  mul\n  not\n  and\n  swap1\n  dup4\n  0xffffffffffffffffffffffffffffffffffffffff\n  and\n  mul\n  or\n  swap1\n  sstore\n  pop\n    /* \"contracts/TokenSwap.sol\":163:269  constructor(string memory _name, string memory _symbol) {... */\n  pop\n  pop\n    /* \"contracts/TokenSwap.sol\":110:726  contract TokenSwap {... */\n  jump(tag_11)\ntag_7:\n  dataSize(sub_1)\n  dup1\n  dataOffset(sub_1)\n  dup4\n  codecopy\n  add\n  swap1\n  jump\t// out\n    /* \"#utility.yul\":7:428   */\ntag_13:\n    /* \"#utility.yul\":96:101   */\n  0x00\n    /* \"#utility.yul\":121:187   */\n  tag_15\n    /* \"#utility.yul\":137:186   */\n  tag_16\n    /* \"#utility.yul\":179:185   */\n  dup5\n    /* \"#utility.yul\":137:186   */\n  tag_17\n  jump\t// in\ntag_16:\n    /* \"#utility.yul\":121:187   */\n  tag_18\n  jump\t// in\ntag_15:\n    /* \"#utility.yul\":112:187   */\n  swap1\n  pop\n    /* \"#utility.yul\":210:216   */\n  dup3\n    /* \"#utility.yul\":203:208   */\n  dup2\n    /* \"#utility.yul\":196:217   */\n  mstore\n    /* \"#utility.yul\":248:252   */\n  0x20\n    /* \"#utility.yul\":241:246   */\n  dup2\n    /* \"#utility.yul\":237:253   */\n  add\n    /* \"#utility.yul\":286:289   */\n  dup5\n    /* \"#utility.yul\":277:283   */\n  dup5\n    /* \"#utility.yul\":272:275   */\n  dup5\n    /* \"#utility.yul\":268:284   */\n  add\n    /* \"#utility.yul\":265:290   */\n  gt\n    /* \"#utility.yul\":262:374   */\n  iszero\n  tag_19\n  jumpi\n    /* \"#utility.yul\":293:372   */\n  tag_20\n  tag_21\n  jump\t// in\ntag_20:\n    /* \"#utility.yul\":262:374   */\ntag_19:\n    /* \"#utility.yul\":383:422   */\n  tag_22\n    /* \"#utility.yul\":415:421   */\n  dup5\n    /* \"#utility.yul\":410:413   */\n  dup3\n    /* \"#utility.yul\":405:408   */\n  dup6\n    /* \"#utility.yul\":383:422   */\n  tag_23\n  jump\t// in\ntag_22:\n    /* \"#utility.yul\":102:428   */\n  pop\n    /* \"#utility.yul\":7:428   */\n  swap4\n  swap3\n  pop\n  pop\n  pop\n  jump\t// out\n    /* \"#utility.yul\":448:803   */\ntag_24:\n    /* \"#utility.yul\":515:520   */\n  0x00\n    /* \"#utility.yul\":564:567   */\n  dup3\n    /* \"#utility.yul\":557:561   */\n  0x1f\n    /* \"#utility.yul\":549:555   */\n  dup4\n    /* \"#utility.yul\":545:562   */\n  add\n    /* \"#utility.yul\":541:568   */\n  slt\n    /* \"#utility.yul\":531:653   */\n  tag_26\n  jumpi\n    /* \"#utility.yul\":572:651   */\n  tag_27\n  tag_28\n  jump\t// in\ntag_27:\n    /* \"#utility.yul\":531:653   */\ntag_26:\n    /* \"#utility.yul\":682:688   */\n  dup2\n    /* \"#utility.yul\":676:689   */\n  mload\n    /* \"#utility.yul\":707:797   */\n  tag_29\n    /* \"#utility.yul\":793:796   */\n  dup5\n    /* \"#utility.yul\":785:791   */\n  dup3\n    /* \"#utility.yul\":778:782   */\n  0x20\n    /* \"#utility.yul\":770:776   */\n  dup7\n    /* \"#utility.yul\":766:783   */\n  add\n    /* \"#utility.yul\":707:797   */\n  tag_13\n  jump\t// in\ntag_29:\n    /* \"#utility.yul\":698:797   */\n  swap2\n  pop\n    /* \"#utility.yul\":521:803   */\n  pop\n    /* \"#utility.yul\":448:803   */\n  swap3\n  swap2\n  pop\n  pop\n  jump\t// out\n    /* \"#utility.yul\":809:1662   */\ntag_3:\n    /* \"#utility.yul\":908:914   */\n  0x00\n    /* \"#utility.yul\":916:922   */\n  dup1\n    /* \"#utility.yul\":965:967   */\n  0x40\n    /* \"#utility.yul\":953:962   */\n  dup4\n    /* \"#utility.yul\":944:951   */\n  dup6\n    /* \"#utility.yul\":940:963   */\n  sub\n    /* \"#utility.yul\":936:968   */\n  slt\n    /* \"#utility.yul\":933:1052   */\n  iszero\n  tag_31\n  jumpi\n    /* \"#utility.yul\":971:1050   */\n  tag_32\n  tag_33\n  jump\t// in\ntag_32:\n    /* \"#utility.yul\":933:1052   */\ntag_31:\n    /* \"#utility.yul\":1112:1113   */\n  0x00\n    /* \"#utility.yul\":1101:1110   */\n  dup4\n    /* \"#utility.yul\":1097:1114   */\n  add\n    /* \"#utility.yul\":1091:1115   */\n  mload\n    /* \"#utility.yul\":1142:1160   */\n  0xffffffffffffffff\n    /* \"#utility.yul\":1134:1140   */\n  dup2\n    /* \"#utility.yul\":1131:1161   */\n  gt\n    /* \"#utility.yul\":1128:1245   */\n  iszero\n  tag_34\n  jumpi\n    /* \"#utility.yul\":1164:1243   */\n  tag_35\n  tag_36\n  jump\t// in\ntag_35:\n    /* \"#utility.yul\":1128:1245   */\ntag_34:\n    /* \"#utility.yul\":1269:1343   */\n  tag_37\n    /* \"#utility.yul\":1335:1342   */\n  dup6\n    /* \"#utility.yul\":1326:1332   */\n  dup3\n    /* \"#utility.yul\":1315:1324   */\n  dup7\n    /* \"#utility.yul\":1311:1333   */\n  add\n    /* \"#utility.yul\":1269:1343   */\n  tag_24\n  jump\t// in\ntag_37:\n    /* \"#utility.yul\":1259:1343   */\n  swap3\n  pop\n    /* \"#utility.yul\":1062:1353   */\n  pop\n    /* \"#utility.yul\":1413:1415   */\n  0x20\n    /* \"#utility.yul\":1402:1411   */\n  dup4\n    /* \"#utility.yul\":1398:1416   */\n  add\n    /* \"#utility.yul\":1392:1417   */\n  mload\n    /* \"#utility.yul\":1444:1462   */\n  0xffffffffffffffff\n    /* \"#utility.yul\":1436:1442   */\n  dup2\n    /* \"#utility.yul\":1433:1463   */\n  gt\n    /* \"#utility.yul\":1430:1547   */\n  iszero\n  tag_38\n  jumpi\n    /* \"#utility.yul\":1466:1545   */\n  tag_39\n  tag_36\n  jump\t// in\ntag_39:\n    /* \"#utility.yul\":1430:1547   */\ntag_38:\n    /* \"#utility.yul\":1571:1645   */\n  tag_40\n    /* \"#utility.yul\":1637:1644   */\n  dup6\n    /* \"#utility.yul\":1628:1634   */\n  dup3\n    /* \"#utility.yul\":1617:1626   */\n  dup7\n    /* \"#utility.yul\":1613:1635   */\n  add\n    /* \"#utility.yul\":1571:1645   */\n  tag_24\n  jump\t// in\ntag_40:\n    /* \"#utility.yul\":1561:1645   */\n  swap2\n  pop\n    /* \"#utility.yul\":1363:1655   */\n  pop\n    /* \"#utility.yul\":809:1662   */\n  swap3\n  pop\n  swap3\n  swap1\n  pop\n  jump\t// out\n    /* \"#utility.yul\":1668:2032   */\ntag_41:\n    /* \"#utility.yul\":1756:1759   */\n  0x00\n    /* \"#utility.yul\":1784:1823   */\n  tag_43\n    /* \"#utility.yul\":1817:1822   */\n  dup3\n    /* \"#utility.yul\":1784:1823   */\n  tag_44\n  jump\t// in\ntag_43:\n    /* \"#utility.yul\":1839:1910   */\n  tag_45\n    /* \"#utility.yul\":1903:1909   */\n  dup2\n    /* \"#utility.yul\":1898:1901   */\n  dup6\n    /* \"#utility.yul\":1839:1910   */\n  tag_46\n  jump\t// in\ntag_45:\n    /* \"#utility.yul\":1832:1910   */\n  swap4\n  pop\n    /* \"#utility.yul\":1919:1971   */\n  tag_47\n    /* \"#utility.yul\":1964:1970   */\n  dup2\n    /* \"#utility.yul\":1959:1962   */\n  dup6\n    /* \"#utility.yul\":1952:1956   */\n  0x20\n    /* \"#utility.yul\":1945:1950   */\n  dup7\n    /* \"#utility.yul\":1941:1957   */\n  add\n    /* \"#utility.yul\":1919:1971   */\n  tag_23\n  jump\t// in\ntag_47:\n    /* \"#utility.yul\":1996:2025   */\n  tag_48\n    /* \"#utility.yul\":2018:2024   */\n  dup2\n    /* \"#utility.yul\":1996:2025   */\n  tag_49\n  jump\t// in\ntag_48:\n    /* \"#utility.yul\":1991:1994   */\n  dup5\n    /* \"#utility.yul\":1987:2026   */\n  add\n    /* \"#utility.yul\":1980:2026   */\n  swap2\n  pop\n    /* \"#utility.yul\":1760:2032   */\n  pop\n    /* \"#utility.yul\":1668:2032   */\n  swap3\n  swap2\n  pop\n  pop\n  jump\t// out\n    /* \"#utility.yul\":2038:2552   */\ntag_9:\n    /* \"#utility.yul\":2199:2203   */\n  0x00\n    /* \"#utility.yul\":2237:2239   */\n  0x40\n    /* \"#utility.yul\":2226:2235   */\n  dup3\n    /* \"#utility.yul\":2222:2240   */\n  add\n    /* \"#utility.yul\":2214:2240   */\n  swap1\n  pop\n    /* \"#utility.yul\":2286:2295   */\n  dup2\n    /* \"#utility.yul\":2280:2284   */\n  dup2\n    /* \"#utility.yul\":2276:2296   */\n  sub\n    /* \"#utility.yul\":2272:2273   */\n  0x00\n    /* \"#utility.yul\":2261:2270   */\n  dup4\n    /* \"#utility.yul\":2257:2274   */\n  add\n    /* \"#utility.yul\":2250:2297   */\n  mstore\n    /* \"#utility.yul\":2314:2392   */\n  tag_51\n    /* \"#utility.yul\":2387:2391   */\n  dup2\n    /* \"#utility.yul\":2378:2384   */\n  dup6\n    /* \"#utility.yul\":2314:2392   */\n  tag_41\n  jump\t// in\ntag_51:\n    /* \"#utility.yul\":2306:2392   */\n  swap1\n  pop\n    /* \"#utility.yul\":2439:2448   */\n  dup2\n    /* \"#utility.yul\":2433:2437   */\n  dup2\n    /* \"#utility.yul\":2429:2449   */\n  sub\n    /* \"#utility.yul\":2424:2426   */\n  0x20\n    /* \"#utility.yul\":2413:2422   */\n  dup4\n    /* \"#utility.yul\":2409:2427   */\n  add\n    /* \"#utility.yul\":2402:2450   */\n  mstore\n    /* \"#utility.yul\":2467:2545   */\n  tag_52\n    /* \"#utility.yul\":2540:2544   */\n  dup2\n    /* \"#utility.yul\":2531:2537   */\n  dup5\n    /* \"#utility.yul\":2467:2545   */\n  tag_41\n  jump\t// in\ntag_52:\n    /* \"#utility.yul\":2459:2545   */\n  swap1\n  pop\n    /* \"#utility.yul\":2038:2552   */\n  swap4\n  swap3\n  pop\n  pop\n  pop\n  jump\t// out\n    /* \"#utility.yul\":2558:2687   */\ntag_18:\n    /* \"#utility.yul\":2592:2598   */\n  0x00\n    /* \"#utility.yul\":2619:2639   */\n  tag_54\n  tag_55\n  jump\t// in\ntag_54:\n    /* \"#utility.yul\":2609:2639   */\n  swap1\n  pop\n    /* \"#utility.yul\":2648:2681   */\n  tag_56\n    /* \"#utility.yul\":2676:2680   */\n  dup3\n    /* \"#utility.yul\":2668:2674   */\n  dup3\n    /* \"#utility.yul\":2648:2681   */\n  tag_57\n  jump\t// in\ntag_56:\n    /* \"#utility.yul\":2558:2687   */\n  swap2\n  swap1\n  pop\n  jump\t// out\n    /* \"#utility.yul\":2693:2768   */\ntag_55:\n    /* \"#utility.yul\":2726:2732   */\n  0x00\n    /* \"#utility.yul\":2759:2761   */\n  0x40\n    /* \"#utility.yul\":2753:2762   */\n  mload\n    /* \"#utility.yul\":2743:2762   */\n  swap1\n  pop\n    /* \"#utility.yul\":2693:2768   */\n  swap1\n  jump\t// out\n    /* \"#utility.yul\":2774:3082   */\ntag_17:\n    /* \"#utility.yul\":2836:2840   */\n  0x00\n    /* \"#utility.yul\":2926:2944   */\n  0xffffffffffffffff\n    /* \"#utility.yul\":2918:2924   */\n  dup3\n    /* \"#utility.yul\":2915:2945   */\n  gt\n    /* \"#utility.yul\":2912:2968   */\n  iszero\n  tag_60\n  jumpi\n    /* \"#utility.yul\":2948:2966   */\n  tag_61\n  tag_62\n  jump\t// in\ntag_61:\n    /* \"#utility.yul\":2912:2968   */\ntag_60:\n    /* \"#utility.yul\":2986:3015   */\n  tag_63\n    /* \"#utility.yul\":3008:3014   */\n  dup3\n    /* \"#utility.yul\":2986:3015   */\n  tag_49\n  jump\t// in\ntag_63:\n    /* \"#utility.yul\":2978:3015   */\n  swap1\n  pop\n    /* \"#utility.yul\":3070:3074   */\n  0x20\n    /* \"#utility.yul\":3064:3068   */\n  dup2\n    /* \"#utility.yul\":3060:3075   */\n  add\n    /* \"#utility.yul\":3052:3075   */\n  swap1\n  pop\n    /* \"#utility.yul\":2774:3082   */\n  swap2\n  swap1\n  pop\n  jump\t// out\n    /* \"#utility.yul\":3088:3187   */\ntag_44:\n    /* \"#utility.yul\":3140:3146   */\n  0x00\n    /* \"#utility.yul\":3174:3179   */\n  dup2\n    /* \"#utility.yul\":3168:3180   */\n  mload\n    /* \"#utility.yul\":3158:3180   */\n  swap1\n  pop\n    /* \"#utility.yul\":3088:3187   */\n  swap2\n  swap1\n  pop\n  jump\t// out\n    /* \"#utility.yul\":3193:3362   */\ntag_46:\n    /* \"#utility.yul\":3277:3288   */\n  0x00\n    /* \"#utility.yul\":3311:3317   */\n  dup3\n    /* \"#utility.yul\":3306:3309   */\n  dup3\n    /* \"#utility.yul\":3299:3318   */\n  mstore\n    /* \"#utility.yul\":3351:3355   */\n  0x20\n    /* \"#utility.yul\":3346:3349   */\n  dup3\n    /* \"#utility.yul\":3342:3356   */\n  add\n    /* \"#utility.yul\":3327:3356   */\n  swap1\n  pop\n    /* \"#utility.yul\":3193:3362   */\n  swap3\n  swap2\n  pop\n  pop\n  jump\t// out\n    /* \"#utility.yul\":3368:3675   */\ntag_23:\n    /* \"#utility.yul\":3436:3437   */\n  0x00\n    /* \"#utility.yul\":3446:3559   */\ntag_67:\n    /* \"#utility.yul\":3460:3466   */\n  dup4\n    /* \"#utility.yul\":3457:3458   */\n  dup2\n    /* \"#utility.yul\":3454:3467   */\n  lt\n    /* \"#utility.yul\":3446:3559   */\n  iszero\n  tag_69\n  jumpi\n    /* \"#utility.yul\":3545:3546   */\n  dup1\n    /* \"#utility.yul\":3540:3543   */\n  dup3\n    /* \"#utility.yul\":3536:3547   */\n  add\n    /* \"#utility.yul\":3530:3548   */\n  mload\n    /* \"#utility.yul\":3526:3527   */\n  dup2\n    /* \"#utility.yul\":3521:3524   */\n  dup5\n    /* \"#utility.yul\":3517:3528   */\n  add\n    /* \"#utility.yul\":3510:3549   */\n  mstore\n    /* \"#utility.yul\":3482:3484   */\n  0x20\n    /* \"#utility.yul\":3479:3480   */\n  dup2\n    /* \"#utility.yul\":3475:3485   */\n  add\n    /* \"#utility.yul\":3470:3485   */\n  swap1\n  pop\n    /* \"#utility.yul\":3446:3559   */\n  jump(tag_67)\ntag_69:\n    /* \"#utility.yul\":3577:3583   */\n  dup4\n    /* \"#utility.yul\":3574:3575   */\n  dup2\n    /* \"#utility.yul\":3571:3584   */\n  gt\n    /* \"#utility.yul\":3568:3669   */\n  iszero\n  tag_70\n  jumpi\n    /* \"#utility.yul\":3657:3658   */\n  0x00\n    /* \"#utility.yul\":3648:3654   */\n  dup5\n    /* \"#utility.yul\":3643:3646   */\n  dup5\n    /* \"#utility.yul\":3639:3655   */\n  add\n    /* \"#utility.yul\":3632:3659   */\n  mstore\n    /* \"#utility.yul\":3568:3669   */\ntag_70:\n    /* \"#utility.yul\":3417:3675   */\n  pop\n    /* \"#utility.yul\":3368:3675   */\n  pop\n  pop\n  pop\n  jump\t// out\n    /* \"#utility.yul\":3681:3962   */\ntag_57:\n    /* \"#utility.yul\":3764:3791   */\n  tag_72\n    /* \"#utility.yul\":3786:3790   */\n  dup3\n    /* \"#utility.yul\":3764:3791   */\n  tag_49\n  jump\t// in\ntag_72:\n    /* \"#utility.yul\":3756:3762   */\n  dup2\n    /* \"#utility.yul\":3752:3792   */\n  add\n    /* \"#utility.yul\":3894:3900   */\n  dup2\n    /* \"#utility.yul\":3882:3892   */\n  dup2\n    /* \"#utility.yul\":3879:3901   */\n  lt\n    /* \"#utility.yul\":3858:3876   */\n  0xffffffffffffffff\n    /* \"#utility.yul\":3846:3856   */\n  dup3\n    /* \"#utility.yul\":3843:3877   */\n  gt\n    /* \"#utility.yul\":3840:3902   */\n  or\n    /* \"#utility.yul\":3837:3925   */\n  iszero\n  tag_73\n  jumpi\n    /* \"#utility.yul\":3905:3923   */\n  tag_74\n  tag_62\n  jump\t// in\ntag_74:\n    /* \"#utility.yul\":3837:3925   */\ntag_73:\n    /* \"#utility.yul\":3945:3955   */\n  dup1\n    /* \"#utility.yul\":3941:3943   */\n  0x40\n    /* \"#utility.yul\":3934:3956   */\n  mstore\n    /* \"#utility.yul\":3724:3962   */\n  pop\n    /* \"#utility.yul\":3681:3962   */\n  pop\n  pop\n  jump\t// out\n    /* \"#utility.yul\":3968:4148   */\ntag_62:\n    /* \"#utility.yul\":4016:4093   */\n  0x4e487b7100000000000000000000000000000000000000000000000000000000\n    /* \"#utility.yul\":4013:4014   */\n  0x00\n    /* \"#utility.yul\":4006:4094   */\n  mstore\n    /* \"#utility.yul\":4113:4117   */\n  0x41\n    /* \"#utility.yul\":4110:4111   */\n  0x04\n    /* \"#utility.yul\":4103:4118   */\n  mstore\n    /* \"#utility.yul\":4137:4141   */\n  0x24\n    /* \"#utility.yul\":4134:4135   */\n  0x00\n    /* \"#utility.yul\":4127:4142   */\n  revert\n    /* \"#utility.yul\":4154:4271   */\ntag_28:\n    /* \"#utility.yul\":4263:4264   */\n  0x00\n    /* \"#utility.yul\":4260:4261   */\n  dup1\n    /* \"#utility.yul\":4253:4265   */\n  revert\n    /* \"#utility.yul\":4277:4394   */\ntag_21:\n    /* \"#utility.yul\":4386:4387   */\n  0x00\n    /* \"#utility.yul\":4383:4384   */\n  dup1\n    /* \"#utility.yul\":4376:4388   */\n  revert\n    /* \"#utility.yul\":4400:4517   */\ntag_36:\n    /* \"#utility.yul\":4509:4510   */\n  0x00\n    /* \"#utility.yul\":4506:4507   */\n  dup1\n    /* \"#utility.yul\":4499:4511   */\n  revert\n    /* \"#utility.yul\":4523:4640   */\ntag_33:\n    /* \"#utility.yul\":4632:4633   */\n  0x00\n    /* \"#utility.yul\":4629:4630   */\n  dup1\n    /* \"#utility.yul\":4622:4634   */\n  revert\n    /* \"#utility.yul\":4646:4748   */\ntag_49:\n    /* \"#utility.yul\":4687:4693   */\n  0x00\n    /* \"#utility.yul\":4738:4740   */\n  0x1f\n    /* \"#utility.yul\":4734:4741   */\n  not\n    /* \"#utility.yul\":4729:4731   */\n  0x1f\n    /* \"#utility.yul\":4722:4727   */\n  dup4\n    /* \"#utility.yul\":4718:4732   */\n  add\n    /* \"#utility.yul\":4714:4742   */\n  and\n    /* \"#utility.yul\":4704:4742   */\n  swap1\n  pop\n    /* \"#utility.yul\":4646:4748   */\n  swap2\n  swap1\n  pop\n  jump\t// out\n    /* \"contracts/TokenSwap.sol\":110:726  contract TokenSwap {... */\ntag_11:\n  dataSize(sub_0)\n  dup1\n  dataOffset(sub_0)\n  0x00\n  codecopy\n  0x00\n  return\nstop\n\nsub_0: assembly {\n        /* \"contracts/TokenSwap.sol\":110:726  contract TokenSwap {... */\n      mstore(0x40, 0x80)\n      jumpi(tag_1, lt(calldatasize, 0x04))\n      shr(0xe0, calldataload(0x00))\n      dup1\n      0xd18a42e1\n      eq\n      tag_3\n      jumpi\n      dup1\n      0xe9ba77fb\n      eq\n      tag_4\n      jumpi\n      dup1\n      0xfc0c546a\n      eq\n      tag_5\n      jumpi\n      jump(tag_2)\n    tag_1:\n      jumpi(tag_2, calldatasize)\n        /* \"contracts/TokenSwap.sol\":702:716  receiveToken() */\n      tag_8\n        /* \"contracts/TokenSwap.sol\":702:714  receiveToken */\n      tag_9\n        /* \"contracts/TokenSwap.sol\":702:716  receiveToken() */\n      jump\t// in\n    tag_8:\n        /* \"contracts/TokenSwap.sol\":110:726  contract TokenSwap {... */\n      stop\n    tag_2:\n      0x00\n      dup1\n      revert\n        /* \"contracts/TokenSwap.sol\":275:322  mapping(address => uint) public balanceReceived */\n    tag_3:\n      callvalue\n      dup1\n      iszero\n      tag_10\n      jumpi\n      0x00\n      dup1\n      revert\n    tag_10:\n      pop\n      tag_11\n      0x04\n      dup1\n      calldatasize\n      sub\n      dup2\n      add\n      swap1\n      tag_12\n      swap2\n      swap1\n      tag_13\n      jump\t// in\n    tag_12:\n      tag_14\n      jump\t// in\n    tag_11:\n      mload(0x40)\n      tag_15\n      swap2\n      swap1\n      tag_16\n      jump\t// in\n    tag_15:\n      mload(0x40)\n      dup1\n      swap2\n      sub\n      swap1\n      return\n        /* \"contracts/TokenSwap.sol\":329:659  function receiveToken() public payable {... */\n    tag_4:\n      tag_17\n      tag_9\n      jump\t// in\n    tag_17:\n      stop\n        /* \"contracts/TokenSwap.sol\":136:155  IERC20 public token */\n    tag_5:\n      callvalue\n      dup1\n      iszero\n      tag_18\n      jumpi\n      0x00\n      dup1\n      revert\n    tag_18:\n      pop\n      tag_19\n      tag_20\n      jump\t// in\n    tag_19:\n      mload(0x40)\n      tag_21\n      swap2\n      swap1\n      tag_22\n      jump\t// in\n    tag_21:\n      mload(0x40)\n      dup1\n      swap2\n      sub\n      swap1\n      return\n        /* \"contracts/TokenSwap.sol\":329:659  function receiveToken() public payable {... */\n    tag_9:\n        /* \"contracts/TokenSwap.sol\":428:443  balanceReceived */\n      0x01\n        /* \"contracts/TokenSwap.sol\":428:455  balanceReceived[msg.sender] */\n      0x00\n        /* \"contracts/TokenSwap.sol\":444:454  msg.sender */\n      caller\n        /* \"contracts/TokenSwap.sol\":428:455  balanceReceived[msg.sender] */\n      0xffffffffffffffffffffffffffffffffffffffff\n      and\n      0xffffffffffffffffffffffffffffffffffffffff\n      and\n      dup2\n      mstore\n      0x20\n      add\n      swap1\n      dup2\n      mstore\n      0x20\n      add\n      0x00\n      keccak256\n      sload\n        /* \"contracts/TokenSwap.sol\":415:424  msg.value */\n      callvalue\n        /* \"contracts/TokenSwap.sol\":385:400  balanceReceived */\n      0x01\n        /* \"contracts/TokenSwap.sol\":385:412  balanceReceived[msg.sender] */\n      0x00\n        /* \"contracts/TokenSwap.sol\":401:411  msg.sender */\n      caller\n        /* \"contracts/TokenSwap.sol\":385:412  balanceReceived[msg.sender] */\n      0xffffffffffffffffffffffffffffffffffffffff\n      and\n      0xffffffffffffffffffffffffffffffffffffffff\n      and\n      dup2\n      mstore\n      0x20\n      add\n      swap1\n      dup2\n      mstore\n      0x20\n      add\n      0x00\n      keccak256\n      sload\n        /* \"contracts/TokenSwap.sol\":385:424  balanceReceived[msg.sender] + msg.value */\n      tag_24\n      swap2\n      swap1\n      tag_25\n      jump\t// in\n    tag_24:\n        /* \"contracts/TokenSwap.sol\":385:455  balanceReceived[msg.sender] + msg.value >= balanceReceived[msg.sender] */\n      lt\n      iszero\n        /* \"contracts/TokenSwap.sol\":378:456  assert(balanceReceived[msg.sender] + msg.value >= balanceReceived[msg.sender]) */\n      tag_26\n      jumpi\n      tag_27\n      tag_28\n      jump\t// in\n    tag_27:\n    tag_26:\n        /* \"contracts/TokenSwap.sol\":467:478  uint amount */\n      0x00\n        /* \"contracts/TokenSwap.sol\":481:490  msg.value */\n      callvalue\n        /* \"contracts/TokenSwap.sol\":467:490  uint amount = msg.value */\n      swap1\n      pop\n        /* \"contracts/TokenSwap.sol\":500:521  address senderAccount */\n      0x00\n        /* \"contracts/TokenSwap.sol\":532:542  msg.sender */\n      caller\n        /* \"contracts/TokenSwap.sol\":500:543  address senderAccount = address(msg.sender) */\n      swap1\n      pop\n        /* \"contracts/TokenSwap.sol\":553:568  uint256 balance */\n      0x00\n        /* \"contracts/TokenSwap.sol\":571:576  token */\n      dup1\n      0x00\n      swap1\n      sload\n      swap1\n      0x0100\n      exp\n      swap1\n      div\n      0xffffffffffffffffffffffffffffffffffffffff\n      and\n        /* \"contracts/TokenSwap.sol\":571:586  token.balanceOf */\n      0xffffffffffffffffffffffffffffffffffffffff\n      and\n      0x70a08231\n        /* \"contracts/TokenSwap.sol\":587:600  senderAccount */\n      dup4\n        /* \"contracts/TokenSwap.sol\":571:601  token.balanceOf(senderAccount) */\n      mload(0x40)\n      dup3\n      0xffffffff\n      and\n      0xe0\n      shl\n      dup2\n      mstore\n      0x04\n      add\n      tag_29\n      swap2\n      swap1\n      tag_30\n      jump\t// in\n    tag_29:\n      0x20\n      mload(0x40)\n      dup1\n      dup4\n      sub\n      dup2\n      dup7\n      dup1\n      extcodesize\n      iszero\n      dup1\n      iszero\n      tag_31\n      jumpi\n      0x00\n      dup1\n      revert\n    tag_31:\n      pop\n      gas\n      staticcall\n      iszero\n      dup1\n      iszero\n      tag_33\n      jumpi\n      returndatasize\n      0x00\n      dup1\n      returndatacopy\n      revert(0x00, returndatasize)\n    tag_33:\n      pop\n      pop\n      pop\n      pop\n      mload(0x40)\n      returndatasize\n      not(0x1f)\n      0x1f\n      dup3\n      add\n      and\n      dup3\n      add\n      dup1\n      0x40\n      mstore\n      pop\n      dup2\n      add\n      swap1\n      tag_34\n      swap2\n      swap1\n      tag_35\n      jump\t// in\n    tag_34:\n        /* \"contracts/TokenSwap.sol\":553:601  uint256 balance = token.balanceOf(senderAccount) */\n      swap1\n      pop\n        /* \"contracts/TokenSwap.sol\":643:652  msg.value */\n      callvalue\n        /* \"contracts/TokenSwap.sol\":612:627  balanceReceived */\n      0x01\n        /* \"contracts/TokenSwap.sol\":612:639  balanceReceived[msg.sender] */\n      0x00\n        /* \"contracts/TokenSwap.sol\":628:638  msg.sender */\n      caller\n        /* \"contracts/TokenSwap.sol\":612:639  balanceReceived[msg.sender] */\n      0xffffffffffffffffffffffffffffffffffffffff\n      and\n      0xffffffffffffffffffffffffffffffffffffffff\n      and\n      dup2\n      mstore\n      0x20\n      add\n      swap1\n      dup2\n      mstore\n      0x20\n      add\n      0x00\n      keccak256\n      0x00\n        /* \"contracts/TokenSwap.sol\":612:652  balanceReceived[msg.sender] += msg.value */\n      dup3\n      dup3\n      sload\n      tag_36\n      swap2\n      swap1\n      tag_25\n      jump\t// in\n    tag_36:\n      swap3\n      pop\n      pop\n      dup2\n      swap1\n      sstore\n      pop\n        /* \"contracts/TokenSwap.sol\":368:659  {... */\n      pop\n      pop\n      pop\n        /* \"contracts/TokenSwap.sol\":329:659  function receiveToken() public payable {... */\n      jump\t// out\n        /* \"contracts/TokenSwap.sol\":275:322  mapping(address => uint) public balanceReceived */\n    tag_14:\n      mstore(0x20, 0x01)\n      dup1\n      0x00\n      mstore\n      keccak256(0x00, 0x40)\n      0x00\n      swap2\n      pop\n      swap1\n      pop\n      sload\n      dup2\n      jump\t// out\n        /* \"contracts/TokenSwap.sol\":136:155  IERC20 public token */\n    tag_20:\n      0x00\n      dup1\n      sload\n      swap1\n      0x0100\n      exp\n      swap1\n      div\n      0xffffffffffffffffffffffffffffffffffffffff\n      and\n      dup2\n      jump\t// out\n        /* \"#utility.yul\":7:146   */\n    tag_38:\n        /* \"#utility.yul\":53:58   */\n      0x00\n        /* \"#utility.yul\":91:97   */\n      dup2\n        /* \"#utility.yul\":78:98   */\n      calldataload\n        /* \"#utility.yul\":69:98   */\n      swap1\n      pop\n        /* \"#utility.yul\":107:140   */\n      tag_40\n        /* \"#utility.yul\":134:139   */\n      dup2\n        /* \"#utility.yul\":107:140   */\n      tag_41\n      jump\t// in\n    tag_40:\n        /* \"#utility.yul\":7:146   */\n      swap3\n      swap2\n      pop\n      pop\n      jump\t// out\n        /* \"#utility.yul\":152:295   */\n    tag_42:\n        /* \"#utility.yul\":209:214   */\n      0x00\n        /* \"#utility.yul\":240:246   */\n      dup2\n        /* \"#utility.yul\":234:247   */\n      mload\n        /* \"#utility.yul\":225:247   */\n      swap1\n      pop\n        /* \"#utility.yul\":256:289   */\n      tag_44\n        /* \"#utility.yul\":283:288   */\n      dup2\n        /* \"#utility.yul\":256:289   */\n      tag_45\n      jump\t// in\n    tag_44:\n        /* \"#utility.yul\":152:295   */\n      swap3\n      swap2\n      pop\n      pop\n      jump\t// out\n        /* \"#utility.yul\":301:630   */\n    tag_13:\n        /* \"#utility.yul\":360:366   */\n      0x00\n        /* \"#utility.yul\":409:411   */\n      0x20\n        /* \"#utility.yul\":397:406   */\n      dup3\n        /* \"#utility.yul\":388:395   */\n      dup5\n        /* \"#utility.yul\":384:407   */\n      sub\n        /* \"#utility.yul\":380:412   */\n      slt\n        /* \"#utility.yul\":377:496   */\n      iszero\n      tag_47\n      jumpi\n        /* \"#utility.yul\":415:494   */\n      tag_48\n      tag_49\n      jump\t// in\n    tag_48:\n        /* \"#utility.yul\":377:496   */\n    tag_47:\n        /* \"#utility.yul\":535:536   */\n      0x00\n        /* \"#utility.yul\":560:613   */\n      tag_50\n        /* \"#utility.yul\":605:612   */\n      dup5\n        /* \"#utility.yul\":596:602   */\n      dup3\n        /* \"#utility.yul\":585:594   */\n      dup6\n        /* \"#utility.yul\":581:603   */\n      add\n        /* \"#utility.yul\":560:613   */\n      tag_38\n      jump\t// in\n    tag_50:\n        /* \"#utility.yul\":550:613   */\n      swap2\n      pop\n        /* \"#utility.yul\":506:623   */\n      pop\n        /* \"#utility.yul\":301:630   */\n      swap3\n      swap2\n      pop\n      pop\n      jump\t// out\n        /* \"#utility.yul\":636:987   */\n    tag_35:\n        /* \"#utility.yul\":706:712   */\n      0x00\n        /* \"#utility.yul\":755:757   */\n      0x20\n        /* \"#utility.yul\":743:752   */\n      dup3\n        /* \"#utility.yul\":734:741   */\n      dup5\n        /* \"#utility.yul\":730:753   */\n      sub\n        /* \"#utility.yul\":726:758   */\n      slt\n        /* \"#utility.yul\":723:842   */\n      iszero\n      tag_52\n      jumpi\n        /* \"#utility.yul\":761:840   */\n      tag_53\n      tag_49\n      jump\t// in\n    tag_53:\n        /* \"#utility.yul\":723:842   */\n    tag_52:\n        /* \"#utility.yul\":881:882   */\n      0x00\n        /* \"#utility.yul\":906:970   */\n      tag_54\n        /* \"#utility.yul\":962:969   */\n      dup5\n        /* \"#utility.yul\":953:959   */\n      dup3\n        /* \"#utility.yul\":942:951   */\n      dup6\n        /* \"#utility.yul\":938:960   */\n      add\n        /* \"#utility.yul\":906:970   */\n      tag_42\n      jump\t// in\n    tag_54:\n        /* \"#utility.yul\":896:970   */\n      swap2\n      pop\n        /* \"#utility.yul\":852:980   */\n      pop\n        /* \"#utility.yul\":636:987   */\n      swap3\n      swap2\n      pop\n      pop\n      jump\t// out\n        /* \"#utility.yul\":993:1111   */\n    tag_55:\n        /* \"#utility.yul\":1080:1104   */\n      tag_57\n        /* \"#utility.yul\":1098:1103   */\n      dup2\n        /* \"#utility.yul\":1080:1104   */\n      tag_58\n      jump\t// in\n    tag_57:\n        /* \"#utility.yul\":1075:1078   */\n      dup3\n        /* \"#utility.yul\":1068:1105   */\n      mstore\n        /* \"#utility.yul\":993:1111   */\n      pop\n      pop\n      jump\t// out\n        /* \"#utility.yul\":1117:1276   */\n    tag_59:\n        /* \"#utility.yul\":1218:1269   */\n      tag_61\n        /* \"#utility.yul\":1263:1268   */\n      dup2\n        /* \"#utility.yul\":1218:1269   */\n      tag_62\n      jump\t// in\n    tag_61:\n        /* \"#utility.yul\":1213:1216   */\n      dup3\n        /* \"#utility.yul\":1206:1270   */\n      mstore\n        /* \"#utility.yul\":1117:1276   */\n      pop\n      pop\n      jump\t// out\n        /* \"#utility.yul\":1282:1400   */\n    tag_63:\n        /* \"#utility.yul\":1369:1393   */\n      tag_65\n        /* \"#utility.yul\":1387:1392   */\n      dup2\n        /* \"#utility.yul\":1369:1393   */\n      tag_66\n      jump\t// in\n    tag_65:\n        /* \"#utility.yul\":1364:1367   */\n      dup3\n        /* \"#utility.yul\":1357:1394   */\n      mstore\n        /* \"#utility.yul\":1282:1400   */\n      pop\n      pop\n      jump\t// out\n        /* \"#utility.yul\":1406:1628   */\n    tag_30:\n        /* \"#utility.yul\":1499:1503   */\n      0x00\n        /* \"#utility.yul\":1537:1539   */\n      0x20\n        /* \"#utility.yul\":1526:1535   */\n      dup3\n        /* \"#utility.yul\":1522:1540   */\n      add\n        /* \"#utility.yul\":1514:1540   */\n      swap1\n      pop\n        /* \"#utility.yul\":1550:1621   */\n      tag_68\n        /* \"#utility.yul\":1618:1619   */\n      0x00\n        /* \"#utility.yul\":1607:1616   */\n      dup4\n        /* \"#utility.yul\":1603:1620   */\n      add\n        /* \"#utility.yul\":1594:1600   */\n      dup5\n        /* \"#utility.yul\":1550:1621   */\n      tag_55\n      jump\t// in\n    tag_68:\n        /* \"#utility.yul\":1406:1628   */\n      swap3\n      swap2\n      pop\n      pop\n      jump\t// out\n        /* \"#utility.yul\":1634:1884   */\n    tag_22:\n        /* \"#utility.yul\":1741:1745   */\n      0x00\n        /* \"#utility.yul\":1779:1781   */\n      0x20\n        /* \"#utility.yul\":1768:1777   */\n      dup3\n        /* \"#utility.yul\":1764:1782   */\n      add\n        /* \"#utility.yul\":1756:1782   */\n      swap1\n      pop\n        /* \"#utility.yul\":1792:1877   */\n      tag_70\n        /* \"#utility.yul\":1874:1875   */\n      0x00\n        /* \"#utility.yul\":1863:1872   */\n      dup4\n        /* \"#utility.yul\":1859:1876   */\n      add\n        /* \"#utility.yul\":1850:1856   */\n      dup5\n        /* \"#utility.yul\":1792:1877   */\n      tag_59\n      jump\t// in\n    tag_70:\n        /* \"#utility.yul\":1634:1884   */\n      swap3\n      swap2\n      pop\n      pop\n      jump\t// out\n        /* \"#utility.yul\":1890:2112   */\n    tag_16:\n        /* \"#utility.yul\":1983:1987   */\n      0x00\n        /* \"#utility.yul\":2021:2023   */\n      0x20\n        /* \"#utility.yul\":2010:2019   */\n      dup3\n        /* \"#utility.yul\":2006:2024   */\n      add\n        /* \"#utility.yul\":1998:2024   */\n      swap1\n      pop\n        /* \"#utility.yul\":2034:2105   */\n      tag_72\n        /* \"#utility.yul\":2102:2103   */\n      0x00\n        /* \"#utility.yul\":2091:2100   */\n      dup4\n        /* \"#utility.yul\":2087:2104   */\n      add\n        /* \"#utility.yul\":2078:2084   */\n      dup5\n        /* \"#utility.yul\":2034:2105   */\n      tag_63\n      jump\t// in\n    tag_72:\n        /* \"#utility.yul\":1890:2112   */\n      swap3\n      swap2\n      pop\n      pop\n      jump\t// out\n        /* \"#utility.yul\":2199:2504   */\n    tag_25:\n        /* \"#utility.yul\":2239:2242   */\n      0x00\n        /* \"#utility.yul\":2258:2278   */\n      tag_76\n        /* \"#utility.yul\":2276:2277   */\n      dup3\n        /* \"#utility.yul\":2258:2278   */\n      tag_66\n      jump\t// in\n    tag_76:\n        /* \"#utility.yul\":2253:2278   */\n      swap2\n      pop\n        /* \"#utility.yul\":2292:2312   */\n      tag_77\n        /* \"#utility.yul\":2310:2311   */\n      dup4\n        /* \"#utility.yul\":2292:2312   */\n      tag_66\n      jump\t// in\n    tag_77:\n        /* \"#utility.yul\":2287:2312   */\n      swap3\n      pop\n        /* \"#utility.yul\":2446:2447   */\n      dup3\n        /* \"#utility.yul\":2378:2444   */\n      0xffffffffffffffffffffffffffffffffffffffffffffffffffffffffffffffff\n        /* \"#utility.yul\":2374:2448   */\n      sub\n        /* \"#utility.yul\":2371:2372   */\n      dup3\n        /* \"#utility.yul\":2368:2449   */\n      gt\n        /* \"#utility.yul\":2365:2472   */\n      iszero\n      tag_78\n      jumpi\n        /* \"#utility.yul\":2452:2470   */\n      tag_79\n      tag_80\n      jump\t// in\n    tag_79:\n        /* \"#utility.yul\":2365:2472   */\n    tag_78:\n        /* \"#utility.yul\":2496:2497   */\n      dup3\n        /* \"#utility.yul\":2493:2494   */\n      dup3\n        /* \"#utility.yul\":2489:2498   */\n      add\n        /* \"#utility.yul\":2482:2498   */\n      swap1\n      pop\n        /* \"#utility.yul\":2199:2504   */\n      swap3\n      swap2\n      pop\n      pop\n      jump\t// out\n        /* \"#utility.yul\":2510:2606   */\n    tag_58:\n        /* \"#utility.yul\":2547:2554   */\n      0x00\n        /* \"#utility.yul\":2576:2600   */\n      tag_82\n        /* \"#utility.yul\":2594:2599   */\n      dup3\n        /* \"#utility.yul\":2576:2600   */\n      tag_83\n      jump\t// in\n    tag_82:\n        /* \"#utility.yul\":2565:2600   */\n      swap1\n      pop\n        /* \"#utility.yul\":2510:2606   */\n      swap2\n      swap1\n      pop\n      jump\t// out\n        /* \"#utility.yul\":2612:2738   */\n    tag_83:\n        /* \"#utility.yul\":2649:2656   */\n      0x00\n        /* \"#utility.yul\":2689:2731   */\n      0xffffffffffffffffffffffffffffffffffffffff\n        /* \"#utility.yul\":2682:2687   */\n      dup3\n        /* \"#utility.yul\":2678:2732   */\n      and\n        /* \"#utility.yul\":2667:2732   */\n      swap1\n      pop\n        /* \"#utility.yul\":2612:2738   */\n      swap2\n      swap1\n      pop\n      jump\t// out\n        /* \"#utility.yul\":2744:2821   */\n    tag_66:\n        /* \"#utility.yul\":2781:2788   */\n      0x00\n        /* \"#utility.yul\":2810:2815   */\n      dup2\n        /* \"#utility.yul\":2799:2815   */\n      swap1\n      pop\n        /* \"#utility.yul\":2744:2821   */\n      swap2\n      swap1\n      pop\n      jump\t// out\n        /* \"#utility.yul\":2827:2967   */\n    tag_62:\n        /* \"#utility.yul\":2891:2900   */\n      0x00\n        /* \"#utility.yul\":2924:2961   */\n      tag_87\n        /* \"#utility.yul\":2955:2960   */\n      dup3\n        /* \"#utility.yul\":2924:2961   */\n      tag_88\n      jump\t// in\n    tag_87:\n        /* \"#utility.yul\":2911:2961   */\n      swap1\n      pop\n        /* \"#utility.yul\":2827:2967   */\n      swap2\n      swap1\n      pop\n      jump\t// out\n        /* \"#utility.yul\":2973:3099   */\n    tag_88:\n        /* \"#utility.yul\":3023:3032   */\n      0x00\n        /* \"#utility.yul\":3056:3093   */\n      tag_90\n        /* \"#utility.yul\":3087:3092   */\n      dup3\n        /* \"#utility.yul\":3056:3093   */\n      tag_91\n      jump\t// in\n    tag_90:\n        /* \"#utility.yul\":3043:3093   */\n      swap1\n      pop\n        /* \"#utility.yul\":2973:3099   */\n      swap2\n      swap1\n      pop\n      jump\t// out\n        /* \"#utility.yul\":3105:3218   */\n    tag_91:\n        /* \"#utility.yul\":3155:3164   */\n      0x00\n        /* \"#utility.yul\":3188:3212   */\n      tag_93\n        /* \"#utility.yul\":3206:3211   */\n      dup3\n        /* \"#utility.yul\":3188:3212   */\n      tag_83\n      jump\t// in\n    tag_93:\n        /* \"#utility.yul\":3175:3212   */\n      swap1\n      pop\n        /* \"#utility.yul\":3105:3218   */\n      swap2\n      swap1\n      pop\n      jump\t// out\n        /* \"#utility.yul\":3224:3404   */\n    tag_28:\n        /* \"#utility.yul\":3272:3349   */\n      0x4e487b7100000000000000000000000000000000000000000000000000000000\n        /* \"#utility.yul\":3269:3270   */\n      0x00\n        /* \"#utility.yul\":3262:3350   */\n      mstore\n        /* \"#utility.yul\":3369:3373   */\n      0x01\n        /* \"#utility.yul\":3366:3367   */\n      0x04\n        /* \"#utility.yul\":3359:3374   */\n      mstore\n        /* \"#utility.yul\":3393:3397   */\n      0x24\n        /* \"#utility.yul\":3390:3391   */\n      0x00\n        /* \"#utility.yul\":3383:3398   */\n      revert\n        /* \"#utility.yul\":3410:3590   */\n    tag_80:\n        /* \"#utility.yul\":3458:3535   */\n      0x4e487b7100000000000000000000000000000000000000000000000000000000\n        /* \"#utility.yul\":3455:3456   */\n      0x00\n        /* \"#utility.yul\":3448:3536   */\n      mstore\n        /* \"#utility.yul\":3555:3559   */\n      0x11\n        /* \"#utility.yul\":3552:3553   */\n      0x04\n        /* \"#utility.yul\":3545:3560   */\n      mstore\n        /* \"#utility.yul\":3579:3583   */\n      0x24\n        /* \"#utility.yul\":3576:3577   */\n      0x00\n        /* \"#utility.yul\":3569:3584   */\n      revert\n        /* \"#utility.yul\":3719:3836   */\n    tag_49:\n        /* \"#utility.yul\":3828:3829   */\n      0x00\n        /* \"#utility.yul\":3825:3826   */\n      dup1\n        /* \"#utility.yul\":3818:3830   */\n      revert\n        /* \"#utility.yul\":3842:3964   */\n    tag_41:\n        /* \"#utility.yul\":3915:3939   */\n      tag_100\n        /* \"#utility.yul\":3933:3938   */\n      dup2\n        /* \"#utility.yul\":3915:3939   */\n      tag_58\n      jump\t// in\n    tag_100:\n        /* \"#utility.yul\":3908:3913   */\n      dup2\n        /* \"#utility.yul\":3905:3940   */\n      eq\n        /* \"#utility.yul\":3895:3958   */\n      tag_101\n      jumpi\n        /* \"#utility.yul\":3954:3955   */\n      0x00\n        /* \"#utility.yul\":3951:3952   */\n      dup1\n        /* \"#utility.yul\":3944:3956   */\n      revert\n        /* \"#utility.yul\":3895:3958   */\n    tag_101:\n        /* \"#utility.yul\":3842:3964   */\n      pop\n      jump\t// out\n        /* \"#utility.yul\":3970:4092   */\n    tag_45:\n        /* \"#utility.yul\":4043:4067   */\n      tag_103\n        /* \"#utility.yul\":4061:4066   */\n      dup2\n        /* \"#utility.yul\":4043:4067   */\n      tag_66\n      jump\t// in\n    tag_103:\n        /* \"#utility.yul\":4036:4041   */\n      dup2\n        /* \"#utility.yul\":4033:4068   */\n      eq\n        /* \"#utility.yul\":4023:4086   */\n      tag_104\n      jumpi\n        /* \"#utility.yul\":4082:4083   */\n      0x00\n        /* \"#utility.yul\":4079:4080   */\n      dup1\n        /* \"#utility.yul\":4072:4084   */\n      revert\n        /* \"#utility.yul\":4023:4086   */\n    tag_104:\n        /* \"#utility.yul\":3970:4092   */\n      pop\n      jump\t// out\n\n    auxdata: 0xa2646970667358221220c52bb9b515994889f61366afcb1439ee88d0523596f75f327dca3dca2ecb2c1864736f6c63430008070033\n}\n\nsub_1: assembly {\n        /* \"contracts/ERC20.sol\":89:8484  contract ERC20 is IERC20 {... */\n      mstore(0x40, 0x80)\n        /* \"contracts/ERC20.sol\":650:772  constructor (string memory _name, string memory _symbol) {... */\n      callvalue\n      dup1\n      iszero\n      tag_1\n      jumpi\n      0x00\n      dup1\n      revert\n    tag_1:\n      pop\n      mload(0x40)\n      sub(codesize, bytecodeSize)\n      dup1\n      bytecodeSize\n      dup4\n      codecopy\n      dup2\n      dup2\n      add\n      0x40\n      mstore\n      dup2\n      add\n      swap1\n      tag_2\n      swap2\n      swap1\n      tag_3\n      jump\t// in\n    tag_2:\n        /* \"contracts/ERC20.sol\":729:734  _name */\n      dup2\n        /* \"contracts/ERC20.sol\":717:726  tokenName */\n      0x03\n        /* \"contracts/ERC20.sol\":717:734  tokenName = _name */\n      swap1\n      dup1\n      mload\n      swap1\n      0x20\n      add\n      swap1\n      tag_6\n      swap3\n      swap2\n      swap1\n      tag_7\n      jump\t// in\n    tag_6:\n      pop\n        /* \"contracts/ERC20.sol\":758:765  _symbol */\n      dup1\n        /* \"contracts/ERC20.sol\":744:755  tokenSymbol */\n      0x04\n        /* \"contracts/ERC20.sol\":744:765  tokenSymbol = _symbol */\n      swap1\n      dup1\n      mload\n      swap1\n      0x20\n      add\n      swap1\n      tag_8\n      swap3\n      swap2\n      swap1\n      tag_7\n      jump\t// in\n    tag_8:\n      pop\n        /* \"contracts/ERC20.sol\":650:772  constructor (string memory _name, string memory _symbol) {... */\n      pop\n      pop\n        /* \"contracts/ERC20.sol\":89:8484  contract ERC20 is IERC20 {... */\n      jump(tag_9)\n    tag_7:\n      dup3\n      dup1\n      sload\n      tag_10\n      swap1\n      tag_11\n      jump\t// in\n    tag_10:\n      swap1\n      0x00\n      mstore\n      keccak256(0x00, 0x20)\n      swap1\n      0x1f\n      add\n      0x20\n      swap1\n      div\n      dup2\n      add\n      swap3\n      dup3\n      tag_13\n      jumpi\n      0x00\n      dup6\n      sstore\n      jump(tag_12)\n    tag_13:\n      dup3\n      0x1f\n      lt\n      tag_14\n      jumpi\n      dup1\n      mload\n      not(0xff)\n      and\n      dup4\n      dup1\n      add\n      or\n      dup6\n      sstore\n      jump(tag_12)\n    tag_14:\n      dup3\n      dup1\n      add\n      0x01\n      add\n      dup6\n      sstore\n      dup3\n      iszero\n      tag_12\n      jumpi\n      swap2\n      dup3\n      add\n    tag_15:\n      dup3\n      dup2\n      gt\n      iszero\n      tag_16\n      jumpi\n      dup3\n      mload\n      dup3\n      sstore\n      swap2\n      0x20\n      add\n      swap2\n      swap1\n      0x01\n      add\n      swap1\n      jump(tag_15)\n    tag_16:\n    tag_12:\n      pop\n      swap1\n      pop\n      tag_17\n      swap2\n      swap1\n      tag_18\n      jump\t// in\n    tag_17:\n      pop\n      swap1\n      jump\t// out\n    tag_18:\n    tag_19:\n      dup1\n      dup3\n      gt\n      iszero\n      tag_20\n      jumpi\n      0x00\n      dup2\n      0x00\n      swap1\n      sstore\n      pop\n      0x01\n      add\n      jump(tag_19)\n    tag_20:\n      pop\n      swap1\n      jump\t// out\n        /* \"#utility.yul\":7:428   */\n    tag_22:\n        /* \"#utility.yul\":96:101   */\n      0x00\n        /* \"#utility.yul\":121:187   */\n      tag_24\n        /* \"#utility.yul\":137:186   */\n      tag_25\n        /* \"#utility.yul\":179:185   */\n      dup5\n        /* \"#utility.yul\":137:186   */\n      tag_26\n      jump\t// in\n    tag_25:\n        /* \"#utility.yul\":121:187   */\n      tag_27\n      jump\t// in\n    tag_24:\n        /* \"#utility.yul\":112:187   */\n      swap1\n      pop\n        /* \"#utility.yul\":210:216   */\n      dup3\n        /* \"#utility.yul\":203:208   */\n      dup2\n        /* \"#utility.yul\":196:217   */\n      mstore\n        /* \"#utility.yul\":248:252   */\n      0x20\n        /* \"#utility.yul\":241:246   */\n      dup2\n        /* \"#utility.yul\":237:253   */\n      add\n        /* \"#utility.yul\":286:289   */\n      dup5\n        /* \"#utility.yul\":277:283   */\n      dup5\n        /* \"#utility.yul\":272:275   */\n      dup5\n        /* \"#utility.yul\":268:284   */\n      add\n        /* \"#utility.yul\":265:290   */\n      gt\n        /* \"#utility.yul\":262:374   */\n      iszero\n      tag_28\n      jumpi\n        /* \"#utility.yul\":293:372   */\n      tag_29\n      tag_30\n      jump\t// in\n    tag_29:\n        /* \"#utility.yul\":262:374   */\n    tag_28:\n        /* \"#utility.yul\":383:422   */\n      tag_31\n        /* \"#utility.yul\":415:421   */\n      dup5\n        /* \"#utility.yul\":410:413   */\n      dup3\n        /* \"#utility.yul\":405:408   */\n      dup6\n        /* \"#utility.yul\":383:422   */\n      tag_32\n      jump\t// in\n    tag_31:\n        /* \"#utility.yul\":102:428   */\n      pop\n        /* \"#utility.yul\":7:428   */\n      swap4\n      swap3\n      pop\n      pop\n      pop\n      jump\t// out\n        /* \"#utility.yul\":448:803   */\n    tag_33:\n        /* \"#utility.yul\":515:520   */\n      0x00\n        /* \"#utility.yul\":564:567   */\n      dup3\n        /* \"#utility.yul\":557:561   */\n      0x1f\n        /* \"#utility.yul\":549:555   */\n      dup4\n        /* \"#utility.yul\":545:562   */\n      add\n        /* \"#utility.yul\":541:568   */\n      slt\n        /* \"#utility.yul\":531:653   */\n      tag_35\n      jumpi\n        /* \"#utility.yul\":572:651   */\n      tag_36\n      tag_37\n      jump\t// in\n    tag_36:\n        /* \"#utility.yul\":531:653   */\n    tag_35:\n        /* \"#utility.yul\":682:688   */\n      dup2\n        /* \"#utility.yul\":676:689   */\n      mload\n        /* \"#utility.yul\":707:797   */\n      tag_38\n        /* \"#utility.yul\":793:796   */\n      dup5\n        /* \"#utility.yul\":785:791   */\n      dup3\n        /* \"#utility.yul\":778:782   */\n      0x20\n        /* \"#utility.yul\":770:776   */\n      dup7\n        /* \"#utility.yul\":766:783   */\n      add\n        /* \"#utility.yul\":707:797   */\n      tag_22\n      jump\t// in\n    tag_38:\n        /* \"#utility.yul\":698:797   */\n      swap2\n      pop\n        /* \"#utility.yul\":521:803   */\n      pop\n        /* \"#utility.yul\":448:803   */\n      swap3\n      swap2\n      pop\n      pop\n      jump\t// out\n        /* \"#utility.yul\":809:1662   */\n    tag_3:\n        /* \"#utility.yul\":908:914   */\n      0x00\n        /* \"#utility.yul\":916:922   */\n      dup1\n        /* \"#utility.yul\":965:967   */\n      0x40\n        /* \"#utility.yul\":953:962   */\n      dup4\n        /* \"#utility.yul\":944:951   */\n      dup6\n        /* \"#utility.yul\":940:963   */\n      sub\n        /* \"#utility.yul\":936:968   */\n      slt\n        /* \"#utility.yul\":933:1052   */\n      iszero\n      tag_40\n      jumpi\n        /* \"#utility.yul\":971:1050   */\n      tag_41\n      tag_42\n      jump\t// in\n    tag_41:\n        /* \"#utility.yul\":933:1052   */\n    tag_40:\n        /* \"#utility.yul\":1112:1113   */\n      0x00\n        /* \"#utility.yul\":1101:1110   */\n      dup4\n        /* \"#utility.yul\":1097:1114   */\n      add\n        /* \"#utility.yul\":1091:1115   */\n      mload\n        /* \"#utility.yul\":1142:1160   */\n      0xffffffffffffffff\n        /* \"#utility.yul\":1134:1140   */\n      dup2\n        /* \"#utility.yul\":1131:1161   */\n      gt\n        /* \"#utility.yul\":1128:1245   */\n      iszero\n      tag_43\n      jumpi\n        /* \"#utility.yul\":1164:1243   */\n      tag_44\n      tag_45\n      jump\t// in\n    tag_44:\n        /* \"#utility.yul\":1128:1245   */\n    tag_43:\n        /* \"#utility.yul\":1269:1343   */\n      tag_46\n        /* \"#utility.yul\":1335:1342   */\n      dup6\n        /* \"#utility.yul\":1326:1332   */\n      dup3\n        /* \"#utility.yul\":1315:1324   */\n      dup7\n        /* \"#utility.yul\":1311:1333   */\n      add\n        /* \"#utility.yul\":1269:1343   */\n      tag_33\n      jump\t// in\n    tag_46:\n        /* \"#utility.yul\":1259:1343   */\n      swap3\n      pop\n        /* \"#utility.yul\":1062:1353   */\n      pop\n        /* \"#utility.yul\":1413:1415   */\n      0x20\n        /* \"#utility.yul\":1402:1411   */\n      dup4\n        /* \"#utility.yul\":1398:1416   */\n      add\n        /* \"#utility.yul\":1392:1417   */\n      mload\n        /* \"#utility.yul\":1444:1462   */\n      0xffffffffffffffff\n        /* \"#utility.yul\":1436:1442   */\n      dup2\n        /* \"#utility.yul\":1433:1463   */\n      gt\n        /* \"#utility.yul\":1430:1547   */\n      iszero\n      tag_47\n      jumpi\n        /* \"#utility.yul\":1466:1545   */\n      tag_48\n      tag_45\n      jump\t// in\n    tag_48:\n        /* \"#utility.yul\":1430:1547   */\n    tag_47:\n        /* \"#utility.yul\":1571:1645   */\n      tag_49\n        /* \"#utility.yul\":1637:1644   */\n      dup6\n        /* \"#utility.yul\":1628:1634   */\n      dup3\n        /* \"#utility.yul\":1617:1626   */\n      dup7\n        /* \"#utility.yul\":1613:1635   */\n      add\n        /* \"#utility.yul\":1571:1645   */\n      tag_33\n      jump\t// in\n    tag_49:\n        /* \"#utility.yul\":1561:1645   */\n      swap2\n      pop\n        /* \"#utility.yul\":1363:1655   */\n      pop\n        /* \"#utility.yul\":809:1662   */\n      swap3\n      pop\n      swap3\n      swap1\n      pop\n      jump\t// out\n        /* \"#utility.yul\":1668:1797   */\n    tag_27:\n        /* \"#utility.yul\":1702:1708   */\n      0x00\n        /* \"#utility.yul\":1729:1749   */\n      tag_51\n      tag_52\n      jump\t// in\n    tag_51:\n        /* \"#utility.yul\":1719:1749   */\n      swap1\n      pop\n        /* \"#utility.yul\":1758:1791   */\n      tag_53\n        /* \"#utility.yul\":1786:1790   */\n      dup3\n        /* \"#utility.yul\":1778:1784   */\n      dup3\n        /* \"#utility.yul\":1758:1791   */\n      tag_54\n      jump\t// in\n    tag_53:\n        /* \"#utility.yul\":1668:1797   */\n      swap2\n      swap1\n      pop\n      jump\t// out\n        /* \"#utility.yul\":1803:1878   */\n    tag_52:\n        /* \"#utility.yul\":1836:1842   */\n      0x00\n        /* \"#utility.yul\":1869:1871   */\n      0x40\n        /* \"#utility.yul\":1863:1872   */\n      mload\n        /* \"#utility.yul\":1853:1872   */\n      swap1\n      pop\n        /* \"#utility.yul\":1803:1878   */\n      swap1\n      jump\t// out\n        /* \"#utility.yul\":1884:2192   */\n    tag_26:\n        /* \"#utility.yul\":1946:1950   */\n      0x00\n        /* \"#utility.yul\":2036:2054   */\n      0xffffffffffffffff\n        /* \"#utility.yul\":2028:2034   */\n      dup3\n        /* \"#utility.yul\":2025:2055   */\n      gt\n        /* \"#utility.yul\":2022:2078   */\n      iszero\n      tag_57\n      jumpi\n        /* \"#utility.yul\":2058:2076   */\n      tag_58\n      tag_59\n      jump\t// in\n    tag_58:\n        /* \"#utility.yul\":2022:2078   */\n    tag_57:\n        /* \"#utility.yul\":2096:2125   */\n      tag_60\n        /* \"#utility.yul\":2118:2124   */\n      dup3\n        /* \"#utility.yul\":2096:2125   */\n      tag_61\n      jump\t// in\n    tag_60:\n        /* \"#utility.yul\":2088:2125   */\n      swap1\n      pop\n        /* \"#utility.yul\":2180:2184   */\n      0x20\n        /* \"#utility.yul\":2174:2178   */\n      dup2\n        /* \"#utility.yul\":2170:2185   */\n      add\n        /* \"#utility.yul\":2162:2185   */\n      swap1\n      pop\n        /* \"#utility.yul\":1884:2192   */\n      swap2\n      swap1\n      pop\n      jump\t// out\n        /* \"#utility.yul\":2198:2505   */\n    tag_32:\n        /* \"#utility.yul\":2266:2267   */\n      0x00\n        /* \"#utility.yul\":2276:2389   */\n    tag_63:\n        /* \"#utility.yul\":2290:2296   */\n      dup4\n        /* \"#utility.yul\":2287:2288   */\n      dup2\n        /* \"#utility.yul\":2284:2297   */\n      lt\n        /* \"#utility.yul\":2276:2389   */\n      iszero\n      tag_65\n      jumpi\n        /* \"#utility.yul\":2375:2376   */\n      dup1\n        /* \"#utility.yul\":2370:2373   */\n      dup3\n        /* \"#utility.yul\":2366:2377   */\n      add\n        /* \"#utility.yul\":2360:2378   */\n      mload\n        /* \"#utility.yul\":2356:2357   */\n      dup2\n        /* \"#utility.yul\":2351:2354   */\n      dup5\n        /* \"#utility.yul\":2347:2358   */\n      add\n        /* \"#utility.yul\":2340:2379   */\n      mstore\n        /* \"#utility.yul\":2312:2314   */\n      0x20\n        /* \"#utility.yul\":2309:2310   */\n      dup2\n        /* \"#utility.yul\":2305:2315   */\n      add\n        /* \"#utility.yul\":2300:2315   */\n      swap1\n      pop\n        /* \"#utility.yul\":2276:2389   */\n      jump(tag_63)\n    tag_65:\n        /* \"#utility.yul\":2407:2413   */\n      dup4\n        /* \"#utility.yul\":2404:2405   */\n      dup2\n        /* \"#utility.yul\":2401:2414   */\n      gt\n        /* \"#utility.yul\":2398:2499   */\n      iszero\n      tag_66\n      jumpi\n        /* \"#utility.yul\":2487:2488   */\n      0x00\n        /* \"#utility.yul\":2478:2484   */\n      dup5\n        /* \"#utility.yul\":2473:2476   */\n      dup5\n        /* \"#utility.yul\":2469:2485   */\n      add\n        /* \"#utility.yul\":2462:2489   */\n      mstore\n        /* \"#utility.yul\":2398:2499   */\n    tag_66:\n        /* \"#utility.yul\":2247:2505   */\n      pop\n        /* \"#utility.yul\":2198:2505   */\n      pop\n      pop\n      pop\n      jump\t// out\n        /* \"#utility.yul\":2511:2831   */\n    tag_11:\n        /* \"#utility.yul\":2555:2561   */\n      0x00\n        /* \"#utility.yul\":2592:2593   */\n      0x02\n        /* \"#utility.yul\":2586:2590   */\n      dup3\n        /* \"#utility.yul\":2582:2594   */\n      div\n        /* \"#utility.yul\":2572:2594   */\n      swap1\n      pop\n        /* \"#utility.yul\":2639:2640   */\n      0x01\n        /* \"#utility.yul\":2633:2637   */\n      dup3\n        /* \"#utility.yul\":2629:2641   */\n      and\n        /* \"#utility.yul\":2660:2678   */\n      dup1\n        /* \"#utility.yul\":2650:2731   */\n      tag_68\n      jumpi\n        /* \"#utility.yul\":2716:2720   */\n      0x7f\n        /* \"#utility.yul\":2708:2714   */\n      dup3\n        /* \"#utility.yul\":2704:2721   */\n      and\n        /* \"#utility.yul\":2694:2721   */\n      swap2\n      pop\n        /* \"#utility.yul\":2650:2731   */\n    tag_68:\n        /* \"#utility.yul\":2778:2780   */\n      0x20\n        /* \"#utility.yul\":2770:2776   */\n      dup3\n        /* \"#utility.yul\":2767:2781   */\n      lt\n        /* \"#utility.yul\":2747:2765   */\n      dup2\n        /* \"#utility.yul\":2744:2782   */\n      eq\n        /* \"#utility.yul\":2741:2825   */\n      iszero\n      tag_69\n      jumpi\n        /* \"#utility.yul\":2797:2815   */\n      tag_70\n      tag_71\n      jump\t// in\n    tag_70:\n        /* \"#utility.yul\":2741:2825   */\n    tag_69:\n        /* \"#utility.yul\":2562:2831   */\n      pop\n        /* \"#utility.yul\":2511:2831   */\n      swap2\n      swap1\n      pop\n      jump\t// out\n        /* \"#utility.yul\":2837:3118   */\n    tag_54:\n        /* \"#utility.yul\":2920:2947   */\n      tag_73\n        /* \"#utility.yul\":2942:2946   */\n      dup3\n        /* \"#utility.yul\":2920:2947   */\n      tag_61\n      jump\t// in\n    tag_73:\n        /* \"#utility.yul\":2912:2918   */\n      dup2\n        /* \"#utility.yul\":2908:2948   */\n      add\n        /* \"#utility.yul\":3050:3056   */\n      dup2\n        /* \"#utility.yul\":3038:3048   */\n      dup2\n        /* \"#utility.yul\":3035:3057   */\n      lt\n        /* \"#utility.yul\":3014:3032   */\n      0xffffffffffffffff\n        /* \"#utility.yul\":3002:3012   */\n      dup3\n        /* \"#utility.yul\":2999:3033   */\n      gt\n        /* \"#utility.yul\":2996:3058   */\n      or\n        /* \"#utility.yul\":2993:3081   */\n      iszero\n      tag_74\n      jumpi\n        /* \"#utility.yul\":3061:3079   */\n      tag_75\n      tag_59\n      jump\t// in\n    tag_75:\n        /* \"#utility.yul\":2993:3081   */\n    tag_74:\n        /* \"#utility.yul\":3101:3111   */\n      dup1\n        /* \"#utility.yul\":3097:3099   */\n      0x40\n        /* \"#utility.yul\":3090:3112   */\n      mstore\n        /* \"#utility.yul\":2880:3118   */\n      pop\n        /* \"#utility.yul\":2837:3118   */\n      pop\n      pop\n      jump\t// out\n        /* \"#utility.yul\":3124:3304   */\n    tag_71:\n        /* \"#utility.yul\":3172:3249   */\n      0x4e487b7100000000000000000000000000000000000000000000000000000000\n        /* \"#utility.yul\":3169:3170   */\n      0x00\n        /* \"#utility.yul\":3162:3250   */\n      mstore\n        /* \"#utility.yul\":3269:3273   */\n      0x22\n        /* \"#utility.yul\":3266:3267   */\n      0x04\n        /* \"#utility.yul\":3259:3274   */\n      mstore\n        /* \"#utility.yul\":3293:3297   */\n      0x24\n        /* \"#utility.yul\":3290:3291   */\n      0x00\n        /* \"#utility.yul\":3283:3298   */\n      revert\n        /* \"#utility.yul\":3310:3490   */\n    tag_59:\n        /* \"#utility.yul\":3358:3435   */\n      0x4e487b7100000000000000000000000000000000000000000000000000000000\n        /* \"#utility.yul\":3355:3356   */\n      0x00\n        /* \"#utility.yul\":3348:3436   */\n      mstore\n        /* \"#utility.yul\":3455:3459   */\n      0x41\n        /* \"#utility.yul\":3452:3453   */\n      0x04\n        /* \"#utility.yul\":3445:3460   */\n      mstore\n        /* \"#utility.yul\":3479:3483   */\n      0x24\n        /* \"#utility.yul\":3476:3477   */\n      0x00\n        /* \"#utility.yul\":3469:3484   */\n      revert\n        /* \"#utility.yul\":3496:3613   */\n    tag_37:\n        /* \"#utility.yul\":3605:3606   */\n      0x00\n        /* \"#utility.yul\":3602:3603   */\n      dup1\n        /* \"#utility.yul\":3595:3607   */\n      revert\n        /* \"#utility.yul\":3619:3736   */\n    tag_30:\n        /* \"#utility.yul\":3728:3729   */\n      0x00\n        /* \"#utility.yul\":3725:3726   */\n      dup1\n        /* \"#utility.yul\":3718:3730   */\n      revert\n        /* \"#utility.yul\":3742:3859   */\n    tag_45:\n        /* \"#utility.yul\":3851:3852   */\n      0x00\n        /* \"#utility.yul\":3848:3849   */\n      dup1\n        /* \"#utility.yul\":3841:3853   */\n      revert\n        /* \"#utility.yul\":3865:3982   */\n    tag_42:\n        /* \"#utility.yul\":3974:3975   */\n      0x00\n        /* \"#utility.yul\":3971:3972   */\n      dup1\n        /* \"#utility.yul\":3964:3976   */\n      revert\n        /* \"#utility.yul\":3988:4090   */\n    tag_61:\n        /* \"#utility.yul\":4029:4035   */\n      0x00\n        /* \"#utility.yul\":4080:4082   */\n      0x1f\n        /* \"#utility.yul\":4076:4083   */\n      not\n        /* \"#utility.yul\":4071:4073   */\n      0x1f\n        /* \"#utility.yul\":4064:4069   */\n      dup4\n        /* \"#utility.yul\":4060:4074   */\n      add\n        /* \"#utility.yul\":4056:4084   */\n      and\n        /* \"#utility.yul\":4046:4084   */\n      swap1\n      pop\n        /* \"#utility.yul\":3988:4090   */\n      swap2\n      swap1\n      pop\n      jump\t// out\n        /* \"contracts/ERC20.sol\":89:8484  contract ERC20 is IERC20 {... */\n    tag_9:\n      dataSize(sub_0)\n      dup1\n      dataOffset(sub_0)\n      0x00\n      codecopy\n      0x00\n      return\n    stop\n\n    sub_0: assembly {\n            /* \"contracts/ERC20.sol\":89:8484  contract ERC20 is IERC20 {... */\n          mstore(0x40, 0x80)\n          callvalue\n          dup1\n          iszero\n          tag_1\n          jumpi\n          0x00\n          dup1\n          revert\n        tag_1:\n          pop\n          jumpi(tag_2, lt(calldatasize, 0x04))\n          shr(0xe0, calldataload(0x00))\n          dup1\n          0x39509351\n          gt\n          tag_14\n          jumpi\n          dup1\n          0x39509351\n          eq\n          tag_8\n          jumpi\n          dup1\n          0x70a08231\n          eq\n          tag_9\n          jumpi\n          dup1\n          0x95d89b41\n          eq\n          tag_10\n          jumpi\n          dup1\n          0xa457c2d7\n          eq\n          tag_11\n          jumpi\n          dup1\n          0xa9059cbb\n          eq\n          tag_12\n          jumpi\n          dup1\n          0xdd62ed3e\n          eq\n          tag_13\n          jumpi\n          jump(tag_2)\n        tag_14:\n          dup1\n          0x06fdde03\n          eq\n          tag_3\n          jumpi\n          dup1\n          0x095ea7b3\n          eq\n          tag_4\n          jumpi\n          dup1\n          0x18160ddd\n          eq\n          tag_5\n          jumpi\n          dup1\n          0x23b872dd\n          eq\n          tag_6\n          jumpi\n          dup1\n          0x313ce567\n          eq\n          tag_7\n          jumpi\n        tag_2:\n          0x00\n          dup1\n          revert\n            /* \"contracts/ERC20.sol\":837:930  function name() public view virtual returns (string memory) {... */\n        tag_3:\n          tag_15\n          tag_16\n          jump\t// in\n        tag_15:\n          mload(0x40)\n          tag_17\n          swap2\n          swap1\n          tag_18\n          jump\t// in\n        tag_17:\n          mload(0x40)\n          dup1\n          swap2\n          sub\n          swap1\n          return\n            /* \"contracts/ERC20.sol\":2924:3089  function approve(address spender, uint256 amount) public virtual override returns (bool) {... */\n        tag_4:\n          tag_19\n          0x04\n          dup1\n          calldatasize\n          sub\n          dup2\n          add\n          swap1\n          tag_20\n          swap2\n          swap1\n          tag_21\n          jump\t// in\n        tag_20:\n          tag_22\n          jump\t// in\n        tag_19:\n          mload(0x40)\n          tag_23\n          swap2\n          swap1\n          tag_24\n          jump\t// in\n        tag_23:\n          mload(0x40)\n          dup1\n          swap2\n          sub\n          swap1\n          return\n            /* \"contracts/ERC20.sol\":1906:2016  function totalSupply() public view virtual override returns (uint256) {... */\n        tag_5:\n          tag_25\n          tag_26\n          jump\t// in\n        tag_25:\n          mload(0x40)\n          tag_27\n          swap2\n          swap1\n          tag_28\n          jump\t// in\n        tag_27:\n          mload(0x40)\n          dup1\n          swap2\n          sub\n          swap1\n          return\n            /* \"contracts/ERC20.sol\":3556:3966  function transferFrom(address sender, address recipient, uint256 amount) public virtual override returns (bool) {... */\n        tag_6:\n          tag_29\n          0x04\n          dup1\n          calldatasize\n          sub\n          dup2\n          add\n          swap1\n          tag_30\n          swap2\n          swap1\n          tag_31\n          jump\t// in\n        tag_30:\n          tag_32\n          jump\t// in\n        tag_29:\n          mload(0x40)\n          tag_33\n          swap2\n          swap1\n          tag_24\n          jump\t// in\n        tag_33:\n          mload(0x40)\n          dup1\n          swap2\n          sub\n          swap1\n          return\n            /* \"contracts/ERC20.sol\":1764:1846  function decimals() public view virtual returns (uint8) {... */\n        tag_7:\n          tag_34\n          tag_35\n          jump\t// in\n        tag_34:\n          mload(0x40)\n          tag_36\n          swap2\n          swap1\n          tag_37\n          jump\t// in\n        tag_36:\n          mload(0x40)\n          dup1\n          swap2\n          sub\n          swap1\n          return\n            /* \"contracts/ERC20.sol\":4361:4569  function increaseAllowance(address spender, uint256 addedValue) public virtual returns (bool) {... */\n        tag_8:\n          tag_38\n          0x04\n          dup1\n          calldatasize\n          sub\n          dup2\n          add\n          swap1\n          tag_39\n          swap2\n          swap1\n          tag_21\n          jump\t// in\n        tag_39:\n          tag_40\n          jump\t// in\n        tag_38:\n          mload(0x40)\n          tag_41\n          swap2\n          swap1\n          tag_24\n          jump\t// in\n        tag_41:\n          mload(0x40)\n          dup1\n          swap2\n          sub\n          swap1\n          return\n            /* \"contracts/ERC20.sol\":2074:2198  function balanceOf(address account) public view virtual override returns (uint256) {... */\n        tag_9:\n          tag_42\n          0x04\n          dup1\n          calldatasize\n          sub\n          dup2\n          add\n          swap1\n          tag_43\n          swap2\n          swap1\n          tag_44\n          jump\t// in\n        tag_43:\n          tag_45\n          jump\t// in\n        tag_42:\n          mload(0x40)\n          tag_46\n          swap2\n          swap1\n          tag_28\n          jump\t// in\n        tag_46:\n          mload(0x40)\n          dup1\n          swap2\n          sub\n          swap1\n          return\n            /* \"contracts/ERC20.sol\":1043:1140  function symbol() public view virtual returns (string memory) {... */\n        tag_10:\n          tag_47\n          tag_48\n          jump\t// in\n        tag_47:\n          mload(0x40)\n          tag_49\n          swap2\n          swap1\n          tag_18\n          jump\t// in\n        tag_49:\n          mload(0x40)\n          dup1\n          swap2\n          sub\n          swap1\n          return\n            /* \"contracts/ERC20.sol\":5056:5423  function decreaseAllowance(address spender, uint256 subtractedValue) public virtual returns (bool) {... */\n        tag_11:\n          tag_50\n          0x04\n          dup1\n          calldatasize\n          sub\n          dup2\n          add\n          swap1\n          tag_51\n          swap2\n          swap1\n          tag_21\n          jump\t// in\n        tag_51:\n          tag_52\n          jump\t// in\n        tag_50:\n          mload(0x40)\n          tag_53\n          swap2\n          swap1\n          tag_24\n          jump\t// in\n        tag_53:\n          mload(0x40)\n          dup1\n          swap2\n          sub\n          swap1\n          return\n            /* \"contracts/ERC20.sol\":2401:2580  function transfer(address payable recipient, uint256 amount) public virtual override returns (bool) {... */\n        tag_12:\n          tag_54\n          0x04\n          dup1\n          calldatasize\n          sub\n          dup2\n          add\n          swap1\n          tag_55\n          swap2\n          swap1\n          tag_56\n          jump\t// in\n        tag_55:\n          tag_57\n          jump\t// in\n        tag_54:\n          mload(0x40)\n          tag_58\n          swap2\n          swap1\n          tag_24\n          jump\t// in\n        tag_58:\n          mload(0x40)\n          dup1\n          swap2\n          sub\n          swap1\n          return\n            /* \"contracts/ERC20.sol\":2638:2786  function allowance(address owner, address spender) public view virtual override returns (uint256) {... */\n        tag_13:\n          tag_59\n          0x04\n          dup1\n          calldatasize\n          sub\n          dup2\n          add\n          swap1\n          tag_60\n          swap2\n          swap1\n          tag_61\n          jump\t// in\n        tag_60:\n          tag_62\n          jump\t// in\n        tag_59:\n          mload(0x40)\n          tag_63\n          swap2\n          swap1\n          tag_28\n          jump\t// in\n        tag_63:\n          mload(0x40)\n          dup1\n          swap2\n          sub\n          swap1\n          return\n            /* \"contracts/ERC20.sol\":837:930  function name() public view virtual returns (string memory) {... */\n        tag_16:\n            /* \"contracts/ERC20.sol\":882:895  string memory */\n          0x60\n            /* \"contracts/ERC20.sol\":914:923  tokenName */\n          0x03\n            /* \"contracts/ERC20.sol\":907:923  return tokenName */\n          dup1\n          sload\n          tag_65\n          swap1\n          tag_66\n          jump\t// in\n        tag_65:\n          dup1\n          0x1f\n          add\n          0x20\n          dup1\n          swap2\n          div\n          mul\n          0x20\n          add\n          mload(0x40)\n          swap1\n          dup2\n          add\n          0x40\n          mstore\n          dup1\n          swap3\n          swap2\n          swap1\n          dup2\n          dup2\n          mstore\n          0x20\n          add\n          dup3\n          dup1\n          sload\n          tag_67\n          swap1\n          tag_66\n          jump\t// in\n        tag_67:\n          dup1\n          iszero\n          tag_68\n          jumpi\n          dup1\n          0x1f\n          lt\n          tag_69\n          jumpi\n          0x0100\n          dup1\n          dup4\n          sload\n          div\n          mul\n          dup4\n          mstore\n          swap2\n          0x20\n          add\n          swap2\n          jump(tag_68)\n        tag_69:\n          dup3\n          add\n          swap2\n          swap1\n          0x00\n          mstore\n          keccak256(0x00, 0x20)\n          swap1\n        tag_70:\n          dup2\n          sload\n          dup2\n          mstore\n          swap1\n          0x01\n          add\n          swap1\n          0x20\n          add\n          dup1\n          dup4\n          gt\n          tag_70\n          jumpi\n          dup3\n          swap1\n          sub\n          0x1f\n          and\n          dup3\n          add\n          swap2\n        tag_68:\n          pop\n          pop\n          pop\n          pop\n          pop\n          swap1\n          pop\n            /* \"contracts/ERC20.sol\":837:930  function name() public view virtual returns (string memory) {... */\n          swap1\n          jump\t// out\n            /* \"contracts/ERC20.sol\":2924:3089  function approve(address spender, uint256 amount) public virtual override returns (bool) {... */\n        tag_22:\n            /* \"contracts/ERC20.sol\":3007:3011  bool */\n          0x00\n            /* \"contracts/ERC20.sol\":3023:3061  doApprove(msg.sender, spender, amount) */\n          tag_72\n            /* \"contracts/ERC20.sol\":3033:3043  msg.sender */\n          caller\n            /* \"contracts/ERC20.sol\":3045:3052  spender */\n          dup5\n            /* \"contracts/ERC20.sol\":3054:3060  amount */\n          dup5\n            /* \"contracts/ERC20.sol\":3023:3032  doApprove */\n          tag_73\n            /* \"contracts/ERC20.sol\":3023:3061  doApprove(msg.sender, spender, amount) */\n          jump\t// in\n        tag_72:\n            /* \"contracts/ERC20.sol\":3078:3082  true */\n          0x01\n            /* \"contracts/ERC20.sol\":3071:3082  return true */\n          swap1\n          pop\n            /* \"contracts/ERC20.sol\":2924:3089  function approve(address spender, uint256 amount) public virtual override returns (bool) {... */\n          swap3\n          swap2\n          pop\n          pop\n          jump\t// out\n            /* \"contracts/ERC20.sol\":1906:2016  function totalSupply() public view virtual override returns (uint256) {... */\n        tag_26:\n            /* \"contracts/ERC20.sol\":1967:1974  uint256 */\n          0x00\n            /* \"contracts/ERC20.sol\":1993:2009  totalSupplyToken */\n          sload(0x02)\n            /* \"contracts/ERC20.sol\":1986:2009  return totalSupplyToken */\n          swap1\n          pop\n            /* \"contracts/ERC20.sol\":1906:2016  function totalSupply() public view virtual override returns (uint256) {... */\n          swap1\n          jump\t// out\n            /* \"contracts/ERC20.sol\":3556:3966  function transferFrom(address sender, address recipient, uint256 amount) public virtual override returns (bool) {... */\n        tag_32:\n            /* \"contracts/ERC20.sol\":3662:3666  bool */\n          0x00\n            /* \"contracts/ERC20.sol\":3679:3716  doTransfer(sender, recipient, amount) */\n          tag_76\n            /* \"contracts/ERC20.sol\":3690:3696  sender */\n          dup5\n            /* \"contracts/ERC20.sol\":3698:3707  recipient */\n          dup5\n            /* \"contracts/ERC20.sol\":3709:3715  amount */\n          dup5\n            /* \"contracts/ERC20.sol\":3679:3689  doTransfer */\n          tag_77\n            /* \"contracts/ERC20.sol\":3679:3716  doTransfer(sender, recipient, amount) */\n          jump\t// in\n        tag_76:\n            /* \"contracts/ERC20.sol\":3727:3751  uint256 currentAllowance */\n          0x00\n            /* \"contracts/ERC20.sol\":3754:3764  allowances */\n          0x01\n            /* \"contracts/ERC20.sol\":3754:3772  allowances[sender] */\n          0x00\n            /* \"contracts/ERC20.sol\":3765:3771  sender */\n          dup7\n            /* \"contracts/ERC20.sol\":3754:3772  allowances[sender] */\n          0xffffffffffffffffffffffffffffffffffffffff\n          and\n          0xffffffffffffffffffffffffffffffffffffffff\n          and\n          dup2\n          mstore\n          0x20\n          add\n          swap1\n          dup2\n          mstore\n          0x20\n          add\n          0x00\n          keccak256\n            /* \"contracts/ERC20.sol\":3754:3783  allowances[sender][recipient] */\n          0x00\n            /* \"contracts/ERC20.sol\":3773:3782  recipient */\n          dup6\n            /* \"contracts/ERC20.sol\":3754:3783  allowances[sender][recipient] */\n          0xffffffffffffffffffffffffffffffffffffffff\n          and\n          0xffffffffffffffffffffffffffffffffffffffff\n          and\n          dup2\n          mstore\n          0x20\n          add\n          swap1\n          dup2\n          mstore\n          0x20\n          add\n          0x00\n          keccak256\n          sload\n            /* \"contracts/ERC20.sol\":3727:3783  uint256 currentAllowance = allowances[sender][recipient] */\n          swap1\n          pop\n            /* \"contracts/ERC20.sol\":3821:3827  amount */\n          dup3\n            /* \"contracts/ERC20.sol\":3801:3817  currentAllowance */\n          dup2\n            /* \"contracts/ERC20.sol\":3801:3827  currentAllowance >= amount */\n          lt\n          iszero\n            /* \"contracts/ERC20.sol\":3793:3872  require(currentAllowance >= amount, \"ERC20: transfer amount exceeds allowance\") */\n          tag_78\n          jumpi\n          mload(0x40)\n          0x08c379a000000000000000000000000000000000000000000000000000000000\n          dup2\n          mstore\n          0x04\n          add\n          tag_79\n          swap1\n          tag_80\n          jump\t// in\n        tag_79:\n          mload(0x40)\n          dup1\n          swap2\n          sub\n          swap1\n          revert\n        tag_78:\n            /* \"contracts/ERC20.sol\":3882:3937  doApprove(sender, recipient, currentAllowance - amount) */\n          tag_81\n            /* \"contracts/ERC20.sol\":3892:3898  sender */\n          dup6\n            /* \"contracts/ERC20.sol\":3900:3909  recipient */\n          dup6\n            /* \"contracts/ERC20.sol\":3930:3936  amount */\n          dup6\n            /* \"contracts/ERC20.sol\":3911:3927  currentAllowance */\n          dup5\n            /* \"contracts/ERC20.sol\":3911:3936  currentAllowance - amount */\n          tag_82\n          swap2\n          swap1\n          tag_83\n          jump\t// in\n        tag_82:\n            /* \"contracts/ERC20.sol\":3882:3891  doApprove */\n          tag_73\n            /* \"contracts/ERC20.sol\":3882:3937  doApprove(sender, recipient, currentAllowance - amount) */\n          jump\t// in\n        tag_81:\n            /* \"contracts/ERC20.sol\":3955:3959  true */\n          0x01\n            /* \"contracts/ERC20.sol\":3948:3959  return true */\n          swap2\n          pop\n          pop\n            /* \"contracts/ERC20.sol\":3556:3966  function transferFrom(address sender, address recipient, uint256 amount) public virtual override returns (bool) {... */\n          swap4\n          swap3\n          pop\n          pop\n          pop\n          jump\t// out\n            /* \"contracts/ERC20.sol\":1764:1846  function decimals() public view virtual returns (uint8) {... */\n        tag_35:\n            /* \"contracts/ERC20.sol\":1813:1818  uint8 */\n          0x00\n            /* \"contracts/ERC20.sol\":1837:1839  18 */\n          0x12\n            /* \"contracts/ERC20.sol\":1830:1839  return 18 */\n          swap1\n          pop\n            /* \"contracts/ERC20.sol\":1764:1846  function decimals() public view virtual returns (uint8) {... */\n          swap1\n          jump\t// out\n            /* \"contracts/ERC20.sol\":4361:4569  function increaseAllowance(address spender, uint256 addedValue) public virtual returns (bool) {... */\n        tag_40:\n            /* \"contracts/ERC20.sol\":4449:4453  bool */\n          0x00\n            /* \"contracts/ERC20.sol\":4465:4541  doApprove(msg.sender, spender, allowances[msg.sender][spender] + addedValue) */\n          tag_86\n            /* \"contracts/ERC20.sol\":4475:4485  msg.sender */\n          caller\n            /* \"contracts/ERC20.sol\":4487:4494  spender */\n          dup5\n            /* \"contracts/ERC20.sol\":4530:4540  addedValue */\n          dup5\n            /* \"contracts/ERC20.sol\":4496:4506  allowances */\n          0x01\n            /* \"contracts/ERC20.sol\":4496:4518  allowances[msg.sender] */\n          0x00\n            /* \"contracts/ERC20.sol\":4507:4517  msg.sender */\n          caller\n            /* \"contracts/ERC20.sol\":4496:4518  allowances[msg.sender] */\n          0xffffffffffffffffffffffffffffffffffffffff\n          and\n          0xffffffffffffffffffffffffffffffffffffffff\n          and\n          dup2\n          mstore\n          0x20\n          add\n          swap1\n          dup2\n          mstore\n          0x20\n          add\n          0x00\n          keccak256\n            /* \"contracts/ERC20.sol\":4496:4527  allowances[msg.sender][spender] */\n          0x00\n            /* \"contracts/ERC20.sol\":4519:4526  spender */\n          dup9\n            /* \"contracts/ERC20.sol\":4496:4527  allowances[msg.sender][spender] */\n          0xffffffffffffffffffffffffffffffffffffffff\n          and\n          0xffffffffffffffffffffffffffffffffffffffff\n          and\n          dup2\n          mstore\n          0x20\n          add\n          swap1\n          dup2\n          mstore\n          0x20\n          add\n          0x00\n          keccak256\n          sload\n            /* \"contracts/ERC20.sol\":4496:4540  allowances[msg.sender][spender] + addedValue */\n          tag_87\n          swap2\n          swap1\n          tag_88\n          jump\t// in\n        tag_87:\n            /* \"contracts/ERC20.sol\":4465:4474  doApprove */\n          tag_73\n            /* \"contracts/ERC20.sol\":4465:4541  doApprove(msg.sender, spender, allowances[msg.sender][spender] + addedValue) */\n          jump\t// in\n        tag_86:\n            /* \"contracts/ERC20.sol\":4558:4562  true */\n          0x01\n            /* \"contracts/ERC20.sol\":4551:4562  return true */\n          swap1\n          pop\n            /* \"contracts/ERC20.sol\":4361:4569  function increaseAllowance(address spender, uint256 addedValue) public virtual returns (bool) {... */\n          swap3\n          swap2\n          pop\n          pop\n          jump\t// out\n            /* \"contracts/ERC20.sol\":2074:2198  function balanceOf(address account) public view virtual override returns (uint256) {... */\n        tag_45:\n            /* \"contracts/ERC20.sol\":2148:2155  uint256 */\n          0x00\n            /* \"contracts/ERC20.sol\":2174:2182  balances */\n          dup1\n            /* \"contracts/ERC20.sol\":2174:2191  balances[account] */\n          0x00\n            /* \"contracts/ERC20.sol\":2183:2190  account */\n          dup4\n            /* \"contracts/ERC20.sol\":2174:2191  balances[account] */\n          0xffffffffffffffffffffffffffffffffffffffff\n          and\n          0xffffffffffffffffffffffffffffffffffffffff\n          and\n          dup2\n          mstore\n          0x20\n          add\n          swap1\n          dup2\n          mstore\n          0x20\n          add\n          0x00\n          keccak256\n          sload\n            /* \"contracts/ERC20.sol\":2167:2191  return balances[account] */\n          swap1\n          pop\n            /* \"contracts/ERC20.sol\":2074:2198  function balanceOf(address account) public view virtual override returns (uint256) {... */\n          swap2\n          swap1\n          pop\n          jump\t// out\n            /* \"contracts/ERC20.sol\":1043:1140  function symbol() public view virtual returns (string memory) {... */\n        tag_48:\n            /* \"contracts/ERC20.sol\":1090:1103  string memory */\n          0x60\n            /* \"contracts/ERC20.sol\":1122:1133  tokenSymbol */\n          0x04\n            /* \"contracts/ERC20.sol\":1115:1133  return tokenSymbol */\n          dup1\n          sload\n          tag_91\n          swap1\n          tag_66\n          jump\t// in\n        tag_91:\n          dup1\n          0x1f\n          add\n          0x20\n          dup1\n          swap2\n          div\n          mul\n          0x20\n          add\n          mload(0x40)\n          swap1\n          dup2\n          add\n          0x40\n          mstore\n          dup1\n          swap3\n          swap2\n          swap1\n          dup2\n          dup2\n          mstore\n          0x20\n          add\n          dup3\n          dup1\n          sload\n          tag_92\n          swap1\n          tag_66\n          jump\t// in\n        tag_92:\n          dup1\n          iszero\n          tag_93\n          jumpi\n          dup1\n          0x1f\n          lt\n          tag_94\n          jumpi\n          0x0100\n          dup1\n          dup4\n          sload\n          div\n          mul\n          dup4\n          mstore\n          swap2\n          0x20\n          add\n          swap2\n          jump(tag_93)\n        tag_94:\n          dup3\n          add\n          swap2\n          swap1\n          0x00\n          mstore\n          keccak256(0x00, 0x20)\n          swap1\n        tag_95:\n          dup2\n          sload\n          dup2\n          mstore\n          swap1\n          0x01\n          add\n          swap1\n          0x20\n          add\n          dup1\n          dup4\n          gt\n          tag_95\n          jumpi\n          dup3\n          swap1\n          sub\n          0x1f\n          and\n          dup3\n          add\n          swap2\n        tag_93:\n          pop\n          pop\n          pop\n          pop\n          pop\n          swap1\n          pop\n            /* \"contracts/ERC20.sol\":1043:1140  function symbol() public view virtual returns (string memory) {... */\n          swap1\n          jump\t// out\n            /* \"contracts/ERC20.sol\":5056:5423  function decreaseAllowance(address spender, uint256 subtractedValue) public virtual returns (bool) {... */\n        tag_52:\n            /* \"contracts/ERC20.sol\":5149:5153  bool */\n          0x00\n            /* \"contracts/ERC20.sol\":5165:5189  uint256 currentAllowance */\n          dup1\n            /* \"contracts/ERC20.sol\":5192:5202  allowances */\n          0x01\n            /* \"contracts/ERC20.sol\":5192:5214  allowances[msg.sender] */\n          0x00\n            /* \"contracts/ERC20.sol\":5203:5213  msg.sender */\n          caller\n            /* \"contracts/ERC20.sol\":5192:5214  allowances[msg.sender] */\n          0xffffffffffffffffffffffffffffffffffffffff\n          and\n          0xffffffffffffffffffffffffffffffffffffffff\n          and\n          dup2\n          mstore\n          0x20\n          add\n          swap1\n          dup2\n          mstore\n          0x20\n          add\n          0x00\n          keccak256\n            /* \"contracts/ERC20.sol\":5192:5223  allowances[msg.sender][spender] */\n          0x00\n            /* \"contracts/ERC20.sol\":5215:5222  spender */\n          dup6\n            /* \"contracts/ERC20.sol\":5192:5223  allowances[msg.sender][spender] */\n          0xffffffffffffffffffffffffffffffffffffffff\n          and\n          0xffffffffffffffffffffffffffffffffffffffff\n          and\n          dup2\n          mstore\n          0x20\n          add\n          swap1\n          dup2\n          mstore\n          0x20\n          add\n          0x00\n          keccak256\n          sload\n            /* \"contracts/ERC20.sol\":5165:5223  uint256 currentAllowance = allowances[msg.sender][spender] */\n          swap1\n          pop\n            /* \"contracts/ERC20.sol\":5261:5276  subtractedValue */\n          dup3\n            /* \"contracts/ERC20.sol\":5241:5257  currentAllowance */\n          dup2\n            /* \"contracts/ERC20.sol\":5241:5276  currentAllowance >= subtractedValue */\n          lt\n          iszero\n            /* \"contracts/ERC20.sol\":5233:5318  require(currentAllowance >= subtractedValue, \"ERC20: decreased allowance below zero\") */\n          tag_97\n          jumpi\n          mload(0x40)\n          0x08c379a000000000000000000000000000000000000000000000000000000000\n          dup2\n          mstore\n          0x04\n          add\n          tag_98\n          swap1\n          tag_99\n          jump\t// in\n        tag_98:\n          mload(0x40)\n          dup1\n          swap2\n          sub\n          swap1\n          revert\n        tag_97:\n            /* \"contracts/ERC20.sol\":5328:5394  doApprove(msg.sender, spender, currentAllowance - subtractedValue) */\n          tag_100\n            /* \"contracts/ERC20.sol\":5338:5348  msg.sender */\n          caller\n            /* \"contracts/ERC20.sol\":5350:5357  spender */\n          dup6\n            /* \"contracts/ERC20.sol\":5378:5393  subtractedValue */\n          dup6\n            /* \"contracts/ERC20.sol\":5359:5375  currentAllowance */\n          dup5\n            /* \"contracts/ERC20.sol\":5359:5393  currentAllowance - subtractedValue */\n          tag_101\n          swap2\n          swap1\n          tag_83\n          jump\t// in\n        tag_101:\n            /* \"contracts/ERC20.sol\":5328:5337  doApprove */\n          tag_73\n            /* \"contracts/ERC20.sol\":5328:5394  doApprove(msg.sender, spender, currentAllowance - subtractedValue) */\n          jump\t// in\n        tag_100:\n            /* \"contracts/ERC20.sol\":5412:5416  true */\n          0x01\n            /* \"contracts/ERC20.sol\":5405:5416  return true */\n          swap2\n          pop\n          pop\n            /* \"contracts/ERC20.sol\":5056:5423  function decreaseAllowance(address spender, uint256 subtractedValue) public virtual returns (bool) {... */\n          swap3\n          swap2\n          pop\n          pop\n          jump\t// out\n            /* \"contracts/ERC20.sol\":2401:2580  function transfer(address payable recipient, uint256 amount) public virtual override returns (bool) {... */\n        tag_57:\n            /* \"contracts/ERC20.sol\":2495:2499  bool */\n          0x00\n            /* \"contracts/ERC20.sol\":2511:2552  doTransfer(msg.sender, recipient, amount) */\n          tag_103\n            /* \"contracts/ERC20.sol\":2522:2532  msg.sender */\n          caller\n            /* \"contracts/ERC20.sol\":2534:2543  recipient */\n          dup5\n            /* \"contracts/ERC20.sol\":2545:2551  amount */\n          dup5\n            /* \"contracts/ERC20.sol\":2511:2521  doTransfer */\n          tag_77\n            /* \"contracts/ERC20.sol\":2511:2552  doTransfer(msg.sender, recipient, amount) */\n          jump\t// in\n        tag_103:\n            /* \"contracts/ERC20.sol\":2569:2573  true */\n          0x01\n            /* \"contracts/ERC20.sol\":2562:2573  return true */\n          swap1\n          pop\n            /* \"contracts/ERC20.sol\":2401:2580  function transfer(address payable recipient, uint256 amount) public virtual override returns (bool) {... */\n          swap3\n          swap2\n          pop\n          pop\n          jump\t// out\n            /* \"contracts/ERC20.sol\":2638:2786  function allowance(address owner, address spender) public view virtual override returns (uint256) {... */\n        tag_62:\n            /* \"contracts/ERC20.sol\":2727:2734  uint256 */\n          0x00\n            /* \"contracts/ERC20.sol\":2753:2763  allowances */\n          0x01\n            /* \"contracts/ERC20.sol\":2753:2770  allowances[owner] */\n          0x00\n            /* \"contracts/ERC20.sol\":2764:2769  owner */\n          dup5\n            /* \"contracts/ERC20.sol\":2753:2770  allowances[owner] */\n          0xffffffffffffffffffffffffffffffffffffffff\n          and\n          0xffffffffffffffffffffffffffffffffffffffff\n          and\n          dup2\n          mstore\n          0x20\n          add\n          swap1\n          dup2\n          mstore\n          0x20\n          add\n          0x00\n          keccak256\n            /* \"contracts/ERC20.sol\":2753:2779  allowances[owner][spender] */\n          0x00\n            /* \"contracts/ERC20.sol\":2771:2778  spender */\n          dup4\n            /* \"contracts/ERC20.sol\":2753:2779  allowances[owner][spender] */\n          0xffffffffffffffffffffffffffffffffffffffff\n          and\n          0xffffffffffffffffffffffffffffffffffffffff\n          and\n          dup2\n          mstore\n          0x20\n          add\n          swap1\n          dup2\n          mstore\n          0x20\n          add\n          0x00\n          keccak256\n          sload\n            /* \"contracts/ERC20.sol\":2746:2779  return allowances[owner][spender] */\n          swap1\n          pop\n            /* \"contracts/ERC20.sol\":2638:2786  function allowance(address owner, address spender) public view virtual override returns (uint256) {... */\n          swap3\n          swap2\n          pop\n          pop\n          jump\t// out\n            /* \"contracts/ERC20.sol\":8141:8481  function doApprove(address owner, address spender, uint256 amount) internal virtual {... */\n        tag_73:\n            /* \"contracts/ERC20.sol\":8260:8261  0 */\n          0x00\n            /* \"contracts/ERC20.sol\":8243:8262  owner != address(0) */\n          0xffffffffffffffffffffffffffffffffffffffff\n          and\n            /* \"contracts/ERC20.sol\":8243:8248  owner */\n          dup4\n            /* \"contracts/ERC20.sol\":8243:8262  owner != address(0) */\n          0xffffffffffffffffffffffffffffffffffffffff\n          and\n          eq\n          iszero\n            /* \"contracts/ERC20.sol\":8235:8303  require(owner != address(0), \"ERC20: approve from the zero address\") */\n          tag_106\n          jumpi\n          mload(0x40)\n          0x08c379a000000000000000000000000000000000000000000000000000000000\n          dup2\n          mstore\n          0x04\n          add\n          tag_107\n          swap1\n          tag_108\n          jump\t// in\n        tag_107:\n          mload(0x40)\n          dup1\n          swap2\n          sub\n          swap1\n          revert\n        tag_106:\n            /* \"contracts/ERC20.sol\":8340:8341  0 */\n          0x00\n            /* \"contracts/ERC20.sol\":8321:8342  spender != address(0) */\n          0xffffffffffffffffffffffffffffffffffffffff\n          and\n            /* \"contracts/ERC20.sol\":8321:8328  spender */\n          dup3\n            /* \"contracts/ERC20.sol\":8321:8342  spender != address(0) */\n          0xffffffffffffffffffffffffffffffffffffffff\n          and\n          eq\n          iszero\n            /* \"contracts/ERC20.sol\":8313:8381  require(spender != address(0), \"ERC20: approve to the zero address\") */\n          tag_109\n          jumpi\n          mload(0x40)\n          0x08c379a000000000000000000000000000000000000000000000000000000000\n          dup2\n          mstore\n          0x04\n          add\n          tag_110\n          swap1\n          tag_111\n          jump\t// in\n        tag_110:\n          mload(0x40)\n          dup1\n          swap2\n          sub\n          swap1\n          revert\n        tag_109:\n            /* \"contracts/ERC20.sol\":8421:8427  amount */\n          dup1\n            /* \"contracts/ERC20.sol\":8392:8402  allowances */\n          0x01\n            /* \"contracts/ERC20.sol\":8392:8409  allowances[owner] */\n          0x00\n            /* \"contracts/ERC20.sol\":8403:8408  owner */\n          dup6\n            /* \"contracts/ERC20.sol\":8392:8409  allowances[owner] */\n          0xffffffffffffffffffffffffffffffffffffffff\n          and\n          0xffffffffffffffffffffffffffffffffffffffff\n          and\n          dup2\n          mstore\n          0x20\n          add\n          swap1\n          dup2\n          mstore\n          0x20\n          add\n          0x00\n          keccak256\n            /* \"contracts/ERC20.sol\":8392:8418  allowances[owner][spender] */\n          0x00\n            /* \"contracts/ERC20.sol\":8410:8417  spender */\n          dup5\n            /* \"contracts/ERC20.sol\":8392:8418  allowances[owner][spender] */\n          0xffffffffffffffffffffffffffffffffffffffff\n          and\n          0xffffffffffffffffffffffffffffffffffffffff\n          and\n          dup2\n          mstore\n          0x20\n          add\n          swap1\n          dup2\n          mstore\n          0x20\n          add\n          0x00\n          keccak256\n            /* \"contracts/ERC20.sol\":8392:8427  allowances[owner][spender] = amount */\n          dup2\n          swap1\n          sstore\n          pop\n            /* \"contracts/ERC20.sol\":8458:8465  spender */\n          dup2\n            /* \"contracts/ERC20.sol\":8442:8474  Approval(owner, spender, amount) */\n          0xffffffffffffffffffffffffffffffffffffffff\n          and\n            /* \"contracts/ERC20.sol\":8451:8456  owner */\n          dup4\n            /* \"contracts/ERC20.sol\":8442:8474  Approval(owner, spender, amount) */\n          0xffffffffffffffffffffffffffffffffffffffff\n          and\n          0x8c5be1e5ebec7d5bd14f71427d1e84f3dd0314c0f7b2291e5b200ac8c7c3b925\n            /* \"contracts/ERC20.sol\":8467:8473  amount */\n          dup4\n            /* \"contracts/ERC20.sol\":8442:8474  Approval(owner, spender, amount) */\n          mload(0x40)\n          tag_112\n          swap2\n          swap1\n          tag_28\n          jump\t// in\n        tag_112:\n          mload(0x40)\n          dup1\n          swap2\n          sub\n          swap1\n          log3\n            /* \"contracts/ERC20.sol\":8141:8481  function doApprove(address owner, address spender, uint256 amount) internal virtual {... */\n          pop\n          pop\n          pop\n          jump\t// out\n            /* \"contracts/ERC20.sol\":5897:6430  function doTransfer(address sender, address recipient, uint256 amount) internal virtual {... */\n        tag_77:\n            /* \"contracts/ERC20.sol\":6022:6023  0 */\n          0x00\n            /* \"contracts/ERC20.sol\":6004:6024  sender != address(0) */\n          0xffffffffffffffffffffffffffffffffffffffff\n          and\n            /* \"contracts/ERC20.sol\":6004:6010  sender */\n          dup4\n            /* \"contracts/ERC20.sol\":6004:6024  sender != address(0) */\n          0xffffffffffffffffffffffffffffffffffffffff\n          and\n          eq\n          iszero\n            /* \"contracts/ERC20.sol\":5996:6066  require(sender != address(0), \"ERC20: transfer from the zero address\") */\n          tag_114\n          jumpi\n          mload(0x40)\n          0x08c379a000000000000000000000000000000000000000000000000000000000\n          dup2\n          mstore\n          0x04\n          add\n          tag_115\n          swap1\n          tag_116\n          jump\t// in\n        tag_115:\n          mload(0x40)\n          dup1\n          swap2\n          sub\n          swap1\n          revert\n        tag_114:\n            /* \"contracts/ERC20.sol\":6105:6106  0 */\n          0x00\n            /* \"contracts/ERC20.sol\":6084:6107  recipient != address(0) */\n          0xffffffffffffffffffffffffffffffffffffffff\n          and\n            /* \"contracts/ERC20.sol\":6084:6093  recipient */\n          dup3\n            /* \"contracts/ERC20.sol\":6084:6107  recipient != address(0) */\n          0xffffffffffffffffffffffffffffffffffffffff\n          and\n          eq\n          iszero\n            /* \"contracts/ERC20.sol\":6076:6147  require(recipient != address(0), \"ERC20: transfer to the zero address\") */\n          tag_117\n          jumpi\n          mload(0x40)\n          0x08c379a000000000000000000000000000000000000000000000000000000000\n          dup2\n          mstore\n          0x04\n          add\n          tag_118\n          swap1\n          tag_119\n          jump\t// in\n        tag_118:\n          mload(0x40)\n          dup1\n          swap2\n          sub\n          swap1\n          revert\n        tag_117:\n            /* \"contracts/ERC20.sol\":6158:6179  uint256 senderBalance */\n          0x00\n            /* \"contracts/ERC20.sol\":6182:6190  balances */\n          dup1\n            /* \"contracts/ERC20.sol\":6182:6198  balances[sender] */\n          0x00\n            /* \"contracts/ERC20.sol\":6191:6197  sender */\n          dup6\n            /* \"contracts/ERC20.sol\":6182:6198  balances[sender] */\n          0xffffffffffffffffffffffffffffffffffffffff\n          and\n          0xffffffffffffffffffffffffffffffffffffffff\n          and\n          dup2\n          mstore\n          0x20\n          add\n          swap1\n          dup2\n          mstore\n          0x20\n          add\n          0x00\n          keccak256\n          sload\n            /* \"contracts/ERC20.sol\":6158:6198  uint256 senderBalance = balances[sender] */\n          swap1\n          pop\n            /* \"contracts/ERC20.sol\":6233:6239  amount */\n          dup2\n            /* \"contracts/ERC20.sol\":6216:6229  senderBalance */\n          dup2\n            /* \"contracts/ERC20.sol\":6216:6239  senderBalance >= amount */\n          lt\n          iszero\n            /* \"contracts/ERC20.sol\":6208:6282  require(senderBalance >= amount, \"ERC20: transfer amount exceeds balance\") */\n          tag_120\n          jumpi\n          mload(0x40)\n          0x08c379a000000000000000000000000000000000000000000000000000000000\n          dup2\n          mstore\n          0x04\n          add\n          tag_121\n          swap1\n          tag_122\n          jump\t// in\n        tag_121:\n          mload(0x40)\n          dup1\n          swap2\n          sub\n          swap1\n          revert\n        tag_120:\n            /* \"contracts/ERC20.sol\":6327:6333  amount */\n          dup2\n            /* \"contracts/ERC20.sol\":6311:6324  senderBalance */\n          dup2\n            /* \"contracts/ERC20.sol\":6311:6333  senderBalance - amount */\n          tag_123\n          swap2\n          swap1\n          tag_83\n          jump\t// in\n        tag_123:\n            /* \"contracts/ERC20.sol\":6292:6300  balances */\n          0x00\n            /* \"contracts/ERC20.sol\":6292:6308  balances[sender] */\n          dup1\n            /* \"contracts/ERC20.sol\":6301:6307  sender */\n          dup7\n            /* \"contracts/ERC20.sol\":6292:6308  balances[sender] */\n          0xffffffffffffffffffffffffffffffffffffffff\n          and\n          0xffffffffffffffffffffffffffffffffffffffff\n          and\n          dup2\n          mstore\n          0x20\n          add\n          swap1\n          dup2\n          mstore\n          0x20\n          add\n          0x00\n          keccak256\n            /* \"contracts/ERC20.sol\":6292:6333  balances[sender] = senderBalance - amount */\n          dup2\n          swap1\n          sstore\n          pop\n            /* \"contracts/ERC20.sol\":6366:6372  amount */\n          dup2\n            /* \"contracts/ERC20.sol\":6343:6351  balances */\n          0x00\n            /* \"contracts/ERC20.sol\":6343:6362  balances[recipient] */\n          dup1\n            /* \"contracts/ERC20.sol\":6352:6361  recipient */\n          dup6\n            /* \"contracts/ERC20.sol\":6343:6362  balances[recipient] */\n          0xffffffffffffffffffffffffffffffffffffffff\n          and\n          0xffffffffffffffffffffffffffffffffffffffff\n          and\n          dup2\n          mstore\n          0x20\n          add\n          swap1\n          dup2\n          mstore\n          0x20\n          add\n          0x00\n          keccak256\n          0x00\n            /* \"contracts/ERC20.sol\":6343:6372  balances[recipient] += amount */\n          dup3\n          dup3\n          sload\n          tag_124\n          swap2\n          swap1\n          tag_88\n          jump\t// in\n        tag_124:\n          swap3\n          pop\n          pop\n          dup2\n          swap1\n          sstore\n          pop\n            /* \"contracts/ERC20.sol\":6404:6413  recipient */\n          dup3\n            /* \"contracts/ERC20.sol\":6387:6422  Transfer(sender, recipient, amount) */\n          0xffffffffffffffffffffffffffffffffffffffff\n          and\n            /* \"contracts/ERC20.sol\":6396:6402  sender */\n          dup5\n            /* \"contracts/ERC20.sol\":6387:6422  Transfer(sender, recipient, amount) */\n          0xffffffffffffffffffffffffffffffffffffffff\n          and\n          0xddf252ad1be2c89b69c2b068fc378daa952ba7f163c4a11628f55a4df523b3ef\n            /* \"contracts/ERC20.sol\":6415:6421  amount */\n          dup5\n            /* \"contracts/ERC20.sol\":6387:6422  Transfer(sender, recipient, amount) */\n          mload(0x40)\n          tag_125\n          swap2\n          swap1\n          tag_28\n          jump\t// in\n        tag_125:\n          mload(0x40)\n          dup1\n          swap2\n          sub\n          swap1\n          log3\n            /* \"contracts/ERC20.sol\":5985:6430  {... */\n          pop\n            /* \"contracts/ERC20.sol\":5897:6430  function doTransfer(address sender, address recipient, uint256 amount) internal virtual {... */\n          pop\n          pop\n          pop\n          jump\t// out\n            /* \"#utility.yul\":7:146   */\n        tag_127:\n            /* \"#utility.yul\":53:58   */\n          0x00\n            /* \"#utility.yul\":91:97   */\n          dup2\n            /* \"#utility.yul\":78:98   */\n          calldataload\n            /* \"#utility.yul\":69:98   */\n          swap1\n          pop\n            /* \"#utility.yul\":107:140   */\n          tag_129\n            /* \"#utility.yul\":134:139   */\n          dup2\n            /* \"#utility.yul\":107:140   */\n          tag_130\n          jump\t// in\n        tag_129:\n            /* \"#utility.yul\":7:146   */\n          swap3\n          swap2\n          pop\n          pop\n          jump\t// out\n            /* \"#utility.yul\":152:307   */\n        tag_131:\n            /* \"#utility.yul\":206:211   */\n          0x00\n            /* \"#utility.yul\":244:250   */\n          dup2\n            /* \"#utility.yul\":231:251   */\n          calldataload\n            /* \"#utility.yul\":222:251   */\n          swap1\n          pop\n            /* \"#utility.yul\":260:301   */\n          tag_133\n            /* \"#utility.yul\":295:300   */\n          dup2\n            /* \"#utility.yul\":260:301   */\n          tag_134\n          jump\t// in\n        tag_133:\n            /* \"#utility.yul\":152:307   */\n          swap3\n          swap2\n          pop\n          pop\n          jump\t// out\n            /* \"#utility.yul\":313:452   */\n        tag_135:\n            /* \"#utility.yul\":359:364   */\n          0x00\n            /* \"#utility.yul\":397:403   */\n          dup2\n            /* \"#utility.yul\":384:404   */\n          calldataload\n            /* \"#utility.yul\":375:404   */\n          swap1\n          pop\n            /* \"#utility.yul\":413:446   */\n          tag_137\n            /* \"#utility.yul\":440:445   */\n          dup2\n            /* \"#utility.yul\":413:446   */\n          tag_138\n          jump\t// in\n        tag_137:\n            /* \"#utility.yul\":313:452   */\n          swap3\n          swap2\n          pop\n          pop\n          jump\t// out\n            /* \"#utility.yul\":458:787   */\n        tag_44:\n            /* \"#utility.yul\":517:523   */\n          0x00\n            /* \"#utility.yul\":566:568   */\n          0x20\n            /* \"#utility.yul\":554:563   */\n          dup3\n            /* \"#utility.yul\":545:552   */\n          dup5\n            /* \"#utility.yul\":541:564   */\n          sub\n            /* \"#utility.yul\":537:569   */\n          slt\n            /* \"#utility.yul\":534:653   */\n          iszero\n          tag_140\n          jumpi\n            /* \"#utility.yul\":572:651   */\n          tag_141\n          tag_142\n          jump\t// in\n        tag_141:\n            /* \"#utility.yul\":534:653   */\n        tag_140:\n            /* \"#utility.yul\":692:693   */\n          0x00\n            /* \"#utility.yul\":717:770   */\n          tag_143\n            /* \"#utility.yul\":762:769   */\n          dup5\n            /* \"#utility.yul\":753:759   */\n          dup3\n            /* \"#utility.yul\":742:751   */\n          dup6\n            /* \"#utility.yul\":738:760   */\n          add\n            /* \"#utility.yul\":717:770   */\n          tag_127\n          jump\t// in\n        tag_143:\n            /* \"#utility.yul\":707:770   */\n          swap2\n          pop\n            /* \"#utility.yul\":663:780   */\n          pop\n            /* \"#utility.yul\":458:787   */\n          swap3\n          swap2\n          pop\n          pop\n          jump\t// out\n            /* \"#utility.yul\":793:1283   */\n        tag_56:\n            /* \"#utility.yul\":869:875   */\n          0x00\n            /* \"#utility.yul\":877:883   */\n          dup1\n            /* \"#utility.yul\":926:928   */\n          0x40\n            /* \"#utility.yul\":914:923   */\n          dup4\n            /* \"#utility.yul\":905:912   */\n          dup6\n            /* \"#utility.yul\":901:924   */\n          sub\n            /* \"#utility.yul\":897:929   */\n          slt\n            /* \"#utility.yul\":894:1013   */\n          iszero\n          tag_145\n          jumpi\n            /* \"#utility.yul\":932:1011   */\n          tag_146\n          tag_142\n          jump\t// in\n        tag_146:\n            /* \"#utility.yul\":894:1013   */\n        tag_145:\n            /* \"#utility.yul\":1052:1053   */\n          0x00\n            /* \"#utility.yul\":1077:1138   */\n          tag_147\n            /* \"#utility.yul\":1130:1137   */\n          dup6\n            /* \"#utility.yul\":1121:1127   */\n          dup3\n            /* \"#utility.yul\":1110:1119   */\n          dup7\n            /* \"#utility.yul\":1106:1128   */\n          add\n            /* \"#utility.yul\":1077:1138   */\n          tag_131\n          jump\t// in\n        tag_147:\n            /* \"#utility.yul\":1067:1138   */\n          swap3\n          pop\n            /* \"#utility.yul\":1023:1148   */\n          pop\n            /* \"#utility.yul\":1187:1189   */\n          0x20\n            /* \"#utility.yul\":1213:1266   */\n          tag_148\n            /* \"#utility.yul\":1258:1265   */\n          dup6\n            /* \"#utility.yul\":1249:1255   */\n          dup3\n            /* \"#utility.yul\":1238:1247   */\n          dup7\n            /* \"#utility.yul\":1234:1256   */\n          add\n            /* \"#utility.yul\":1213:1266   */\n          tag_135\n          jump\t// in\n        tag_148:\n            /* \"#utility.yul\":1203:1266   */\n          swap2\n          pop\n            /* \"#utility.yul\":1158:1276   */\n          pop\n            /* \"#utility.yul\":793:1283   */\n          swap3\n          pop\n          swap3\n          swap1\n          pop\n          jump\t// out\n            /* \"#utility.yul\":1289:1763   */\n        tag_61:\n            /* \"#utility.yul\":1357:1363   */\n          0x00\n            /* \"#utility.yul\":1365:1371   */\n          dup1\n            /* \"#utility.yul\":1414:1416   */\n          0x40\n            /* \"#utility.yul\":1402:1411   */\n          dup4\n            /* \"#utility.yul\":1393:1400   */\n          dup6\n            /* \"#utility.yul\":1389:1412   */\n          sub\n            /* \"#utility.yul\":1385:1417   */\n          slt\n            /* \"#utility.yul\":1382:1501   */\n          iszero\n          tag_150\n          jumpi\n            /* \"#utility.yul\":1420:1499   */\n          tag_151\n          tag_142\n          jump\t// in\n        tag_151:\n            /* \"#utility.yul\":1382:1501   */\n        tag_150:\n            /* \"#utility.yul\":1540:1541   */\n          0x00\n            /* \"#utility.yul\":1565:1618   */\n          tag_152\n            /* \"#utility.yul\":1610:1617   */\n          dup6\n            /* \"#utility.yul\":1601:1607   */\n          dup3\n            /* \"#utility.yul\":1590:1599   */\n          dup7\n            /* \"#utility.yul\":1586:1608   */\n          add\n            /* \"#utility.yul\":1565:1618   */\n          tag_127\n          jump\t// in\n        tag_152:\n            /* \"#utility.yul\":1555:1618   */\n          swap3\n          pop\n            /* \"#utility.yul\":1511:1628   */\n          pop\n            /* \"#utility.yul\":1667:1669   */\n          0x20\n            /* \"#utility.yul\":1693:1746   */\n          tag_153\n            /* \"#utility.yul\":1738:1745   */\n          dup6\n            /* \"#utility.yul\":1729:1735   */\n          dup3\n            /* \"#utility.yul\":1718:1727   */\n          dup7\n            /* \"#utility.yul\":1714:1736   */\n          add\n            /* \"#utility.yul\":1693:1746   */\n          tag_127\n          jump\t// in\n        tag_153:\n            /* \"#utility.yul\":1683:1746   */\n          swap2\n          pop\n            /* \"#utility.yul\":1638:1756   */\n          pop\n            /* \"#utility.yul\":1289:1763   */\n          swap3\n          pop\n          swap3\n          swap1\n          pop\n          jump\t// out\n            /* \"#utility.yul\":1769:2388   */\n        tag_31:\n            /* \"#utility.yul\":1846:1852   */\n          0x00\n            /* \"#utility.yul\":1854:1860   */\n          dup1\n            /* \"#utility.yul\":1862:1868   */\n          0x00\n            /* \"#utility.yul\":1911:1913   */\n          0x60\n            /* \"#utility.yul\":1899:1908   */\n          dup5\n            /* \"#utility.yul\":1890:1897   */\n          dup7\n            /* \"#utility.yul\":1886:1909   */\n          sub\n            /* \"#utility.yul\":1882:1914   */\n          slt\n            /* \"#utility.yul\":1879:1998   */\n          iszero\n          tag_155\n          jumpi\n            /* \"#utility.yul\":1917:1996   */\n          tag_156\n          tag_142\n          jump\t// in\n        tag_156:\n            /* \"#utility.yul\":1879:1998   */\n        tag_155:\n            /* \"#utility.yul\":2037:2038   */\n          0x00\n            /* \"#utility.yul\":2062:2115   */\n          tag_157\n            /* \"#utility.yul\":2107:2114   */\n          dup7\n            /* \"#utility.yul\":2098:2104   */\n          dup3\n            /* \"#utility.yul\":2087:2096   */\n          dup8\n            /* \"#utility.yul\":2083:2105   */\n          add\n            /* \"#utility.yul\":2062:2115   */\n          tag_127\n          jump\t// in\n        tag_157:\n            /* \"#utility.yul\":2052:2115   */\n          swap4\n          pop\n            /* \"#utility.yul\":2008:2125   */\n          pop\n            /* \"#utility.yul\":2164:2166   */\n          0x20\n            /* \"#utility.yul\":2190:2243   */\n          tag_158\n            /* \"#utility.yul\":2235:2242   */\n          dup7\n            /* \"#utility.yul\":2226:2232   */\n          dup3\n            /* \"#utility.yul\":2215:2224   */\n          dup8\n            /* \"#utility.yul\":2211:2233   */\n          add\n            /* \"#utility.yul\":2190:2243   */\n          tag_127\n          jump\t// in\n        tag_158:\n            /* \"#utility.yul\":2180:2243   */\n          swap3\n          pop\n            /* \"#utility.yul\":2135:2253   */\n          pop\n            /* \"#utility.yul\":2292:2294   */\n          0x40\n            /* \"#utility.yul\":2318:2371   */\n          tag_159\n            /* \"#utility.yul\":2363:2370   */\n          dup7\n            /* \"#utility.yul\":2354:2360   */\n          dup3\n            /* \"#utility.yul\":2343:2352   */\n          dup8\n            /* \"#utility.yul\":2339:2361   */\n          add\n            /* \"#utility.yul\":2318:2371   */\n          tag_135\n          jump\t// in\n        tag_159:\n            /* \"#utility.yul\":2308:2371   */\n          swap2\n          pop\n            /* \"#utility.yul\":2263:2381   */\n          pop\n            /* \"#utility.yul\":1769:2388   */\n          swap3\n          pop\n          swap3\n          pop\n          swap3\n          jump\t// out\n            /* \"#utility.yul\":2394:2868   */\n        tag_21:\n            /* \"#utility.yul\":2462:2468   */\n          0x00\n            /* \"#utility.yul\":2470:2476   */\n          dup1\n            /* \"#utility.yul\":2519:2521   */\n          0x40\n            /* \"#utility.yul\":2507:2516   */\n          dup4\n            /* \"#utility.yul\":2498:2505   */\n          dup6\n            /* \"#utility.yul\":2494:2517   */\n          sub\n            /* \"#utility.yul\":2490:2522   */\n          slt\n            /* \"#utility.yul\":2487:2606   */\n          iszero\n          tag_161\n          jumpi\n            /* \"#utility.yul\":2525:2604   */\n          tag_162\n          tag_142\n          jump\t// in\n        tag_162:\n            /* \"#utility.yul\":2487:2606   */\n        tag_161:\n            /* \"#utility.yul\":2645:2646   */\n          0x00\n            /* \"#utility.yul\":2670:2723   */\n          tag_163\n            /* \"#utility.yul\":2715:2722   */\n          dup6\n            /* \"#utility.yul\":2706:2712   */\n          dup3\n            /* \"#utility.yul\":2695:2704   */\n          dup7\n            /* \"#utility.yul\":2691:2713   */\n          add\n            /* \"#utility.yul\":2670:2723   */\n          tag_127\n          jump\t// in\n        tag_163:\n            /* \"#utility.yul\":2660:2723   */\n          swap3\n          pop\n            /* \"#utility.yul\":2616:2733   */\n          pop\n            /* \"#utility.yul\":2772:2774   */\n          0x20\n            /* \"#utility.yul\":2798:2851   */\n          tag_164\n            /* \"#utility.yul\":2843:2850   */\n          dup6\n            /* \"#utility.yul\":2834:2840   */\n          dup3\n            /* \"#utility.yul\":2823:2832   */\n          dup7\n            /* \"#utility.yul\":2819:2841   */\n          add\n            /* \"#utility.yul\":2798:2851   */\n          tag_135\n          jump\t// in\n        tag_164:\n            /* \"#utility.yul\":2788:2851   */\n          swap2\n          pop\n            /* \"#utility.yul\":2743:2861   */\n          pop\n            /* \"#utility.yul\":2394:2868   */\n          swap3\n          pop\n          swap3\n          swap1\n          pop\n          jump\t// out\n            /* \"#utility.yul\":2874:2983   */\n        tag_165:\n            /* \"#utility.yul\":2955:2976   */\n          tag_167\n            /* \"#utility.yul\":2970:2975   */\n          dup2\n            /* \"#utility.yul\":2955:2976   */\n          tag_168\n          jump\t// in\n        tag_167:\n            /* \"#utility.yul\":2950:2953   */\n          dup3\n            /* \"#utility.yul\":2943:2977   */\n          mstore\n            /* \"#utility.yul\":2874:2983   */\n          pop\n          pop\n          jump\t// out\n            /* \"#utility.yul\":2989:3353   */\n        tag_169:\n            /* \"#utility.yul\":3077:3080   */\n          0x00\n            /* \"#utility.yul\":3105:3144   */\n          tag_171\n            /* \"#utility.yul\":3138:3143   */\n          dup3\n            /* \"#utility.yul\":3105:3144   */\n          tag_172\n          jump\t// in\n        tag_171:\n            /* \"#utility.yul\":3160:3231   */\n          tag_173\n            /* \"#utility.yul\":3224:3230   */\n          dup2\n            /* \"#utility.yul\":3219:3222   */\n          dup6\n            /* \"#utility.yul\":3160:3231   */\n          tag_174\n          jump\t// in\n        tag_173:\n            /* \"#utility.yul\":3153:3231   */\n          swap4\n          pop\n            /* \"#utility.yul\":3240:3292   */\n          tag_175\n            /* \"#utility.yul\":3285:3291   */\n          dup2\n            /* \"#utility.yul\":3280:3283   */\n          dup6\n            /* \"#utility.yul\":3273:3277   */\n          0x20\n            /* \"#utility.yul\":3266:3271   */\n          dup7\n            /* \"#utility.yul\":3262:3278   */\n          add\n            /* \"#utility.yul\":3240:3292   */\n          tag_176\n          jump\t// in\n        tag_175:\n            /* \"#utility.yul\":3317:3346   */\n          tag_177\n            /* \"#utility.yul\":3339:3345   */\n          dup2\n            /* \"#utility.yul\":3317:3346   */\n          tag_178\n          jump\t// in\n        tag_177:\n            /* \"#utility.yul\":3312:3315   */\n          dup5\n            /* \"#utility.yul\":3308:3347   */\n          add\n            /* \"#utility.yul\":3301:3347   */\n          swap2\n          pop\n            /* \"#utility.yul\":3081:3353   */\n          pop\n            /* \"#utility.yul\":2989:3353   */\n          swap3\n          swap2\n          pop\n          pop\n          jump\t// out\n            /* \"#utility.yul\":3359:3725   */\n        tag_179:\n            /* \"#utility.yul\":3501:3504   */\n          0x00\n            /* \"#utility.yul\":3522:3589   */\n          tag_181\n            /* \"#utility.yul\":3586:3588   */\n          0x23\n            /* \"#utility.yul\":3581:3584   */\n          dup4\n            /* \"#utility.yul\":3522:3589   */\n          tag_174\n          jump\t// in\n        tag_181:\n            /* \"#utility.yul\":3515:3589   */\n          swap2\n          pop\n            /* \"#utility.yul\":3598:3691   */\n          tag_182\n            /* \"#utility.yul\":3687:3690   */\n          dup3\n            /* \"#utility.yul\":3598:3691   */\n          tag_183\n          jump\t// in\n        tag_182:\n            /* \"#utility.yul\":3716:3718   */\n          0x40\n            /* \"#utility.yul\":3711:3714   */\n          dup3\n            /* \"#utility.yul\":3707:3719   */\n          add\n            /* \"#utility.yul\":3700:3719   */\n          swap1\n          pop\n            /* \"#utility.yul\":3359:3725   */\n          swap2\n          swap1\n          pop\n          jump\t// out\n            /* \"#utility.yul\":3731:4097   */\n        tag_184:\n            /* \"#utility.yul\":3873:3876   */\n          0x00\n            /* \"#utility.yul\":3894:3961   */\n          tag_186\n            /* \"#utility.yul\":3958:3960   */\n          0x22\n            /* \"#utility.yul\":3953:3956   */\n          dup4\n            /* \"#utility.yul\":3894:3961   */\n          tag_174\n          jump\t// in\n        tag_186:\n            /* \"#utility.yul\":3887:3961   */\n          swap2\n          pop\n            /* \"#utility.yul\":3970:4063   */\n          tag_187\n            /* \"#utility.yul\":4059:4062   */\n          dup3\n            /* \"#utility.yul\":3970:4063   */\n          tag_188\n          jump\t// in\n        tag_187:\n            /* \"#utility.yul\":4088:4090   */\n          0x40\n            /* \"#utility.yul\":4083:4086   */\n          dup3\n            /* \"#utility.yul\":4079:4091   */\n          add\n            /* \"#utility.yul\":4072:4091   */\n          swap1\n          pop\n            /* \"#utility.yul\":3731:4097   */\n          swap2\n          swap1\n          pop\n          jump\t// out\n            /* \"#utility.yul\":4103:4469   */\n        tag_189:\n            /* \"#utility.yul\":4245:4248   */\n          0x00\n            /* \"#utility.yul\":4266:4333   */\n          tag_191\n            /* \"#utility.yul\":4330:4332   */\n          0x26\n            /* \"#utility.yul\":4325:4328   */\n          dup4\n            /* \"#utility.yul\":4266:4333   */\n          tag_174\n          jump\t// in\n        tag_191:\n            /* \"#utility.yul\":4259:4333   */\n          swap2\n          pop\n            /* \"#utility.yul\":4342:4435   */\n          tag_192\n            /* \"#utility.yul\":4431:4434   */\n          dup3\n            /* \"#utility.yul\":4342:4435   */\n          tag_193\n          jump\t// in\n        tag_192:\n            /* \"#utility.yul\":4460:4462   */\n          0x40\n            /* \"#utility.yul\":4455:4458   */\n          dup3\n            /* \"#utility.yul\":4451:4463   */\n          add\n            /* \"#utility.yul\":4444:4463   */\n          swap1\n          pop\n            /* \"#utility.yul\":4103:4469   */\n          swap2\n          swap1\n          pop\n          jump\t// out\n            /* \"#utility.yul\":4475:4841   */\n        tag_194:\n            /* \"#utility.yul\":4617:4620   */\n          0x00\n            /* \"#utility.yul\":4638:4705   */\n          tag_196\n            /* \"#utility.yul\":4702:4704   */\n          0x28\n            /* \"#utility.yul\":4697:4700   */\n          dup4\n            /* \"#utility.yul\":4638:4705   */\n          tag_174\n          jump\t// in\n        tag_196:\n            /* \"#utility.yul\":4631:4705   */\n          swap2\n          pop\n            /* \"#utility.yul\":4714:4807   */\n          tag_197\n            /* \"#utility.yul\":4803:4806   */\n          dup3\n            /* \"#utility.yul\":4714:4807   */\n          tag_198\n          jump\t// in\n        tag_197:\n            /* \"#utility.yul\":4832:4834   */\n          0x40\n            /* \"#utility.yul\":4827:4830   */\n          dup3\n            /* \"#utility.yul\":4823:4835   */\n          add\n            /* \"#utility.yul\":4816:4835   */\n          swap1\n          pop\n            /* \"#utility.yul\":4475:4841   */\n          swap2\n          swap1\n          pop\n          jump\t// out\n            /* \"#utility.yul\":4847:5213   */\n        tag_199:\n            /* \"#utility.yul\":4989:4992   */\n          0x00\n            /* \"#utility.yul\":5010:5077   */\n          tag_201\n            /* \"#utility.yul\":5074:5076   */\n          0x25\n            /* \"#utility.yul\":5069:5072   */\n          dup4\n            /* \"#utility.yul\":5010:5077   */\n          tag_174\n          jump\t// in\n        tag_201:\n            /* \"#utility.yul\":5003:5077   */\n          swap2\n          pop\n            /* \"#utility.yul\":5086:5179   */\n          tag_202\n            /* \"#utility.yul\":5175:5178   */\n          dup3\n            /* \"#utility.yul\":5086:5179   */\n          tag_203\n          jump\t// in\n        tag_202:\n            /* \"#utility.yul\":5204:5206   */\n          0x40\n            /* \"#utility.yul\":5199:5202   */\n          dup3\n            /* \"#utility.yul\":5195:5207   */\n          add\n            /* \"#utility.yul\":5188:5207   */\n          swap1\n          pop\n            /* \"#utility.yul\":4847:5213   */\n          swap2\n          swap1\n          pop\n          jump\t// out\n            /* \"#utility.yul\":5219:5585   */\n        tag_204:\n            /* \"#utility.yul\":5361:5364   */\n          0x00\n            /* \"#utility.yul\":5382:5449   */\n          tag_206\n            /* \"#utility.yul\":5446:5448   */\n          0x24\n            /* \"#utility.yul\":5441:5444   */\n          dup4\n            /* \"#utility.yul\":5382:5449   */\n          tag_174\n          jump\t// in\n        tag_206:\n            /* \"#utility.yul\":5375:5449   */\n          swap2\n          pop\n            /* \"#utility.yul\":5458:5551   */\n          tag_207\n            /* \"#utility.yul\":5547:5550   */\n          dup3\n            /* \"#utility.yul\":5458:5551   */\n          tag_208\n          jump\t// in\n        tag_207:\n            /* \"#utility.yul\":5576:5578   */\n          0x40\n            /* \"#utility.yul\":5571:5574   */\n          dup3\n            /* \"#utility.yul\":5567:5579   */\n          add\n            /* \"#utility.yul\":5560:5579   */\n          swap1\n          pop\n            /* \"#utility.yul\":5219:5585   */\n          swap2\n          swap1\n          pop\n          jump\t// out\n            /* \"#utility.yul\":5591:5957   */\n        tag_209:\n            /* \"#utility.yul\":5733:5736   */\n          0x00\n            /* \"#utility.yul\":5754:5821   */\n          tag_211\n            /* \"#utility.yul\":5818:5820   */\n          0x25\n            /* \"#utility.yul\":5813:5816   */\n          dup4\n            /* \"#utility.yul\":5754:5821   */\n          tag_174\n          jump\t// in\n        tag_211:\n            /* \"#utility.yul\":5747:5821   */\n          swap2\n          pop\n            /* \"#utility.yul\":5830:5923   */\n          tag_212\n            /* \"#utility.yul\":5919:5922   */\n          dup3\n            /* \"#utility.yul\":5830:5923   */\n          tag_213\n          jump\t// in\n        tag_212:\n            /* \"#utility.yul\":5948:5950   */\n          0x40\n            /* \"#utility.yul\":5943:5946   */\n          dup3\n            /* \"#utility.yul\":5939:5951   */\n          add\n            /* \"#utility.yul\":5932:5951   */\n          swap1\n          pop\n            /* \"#utility.yul\":5591:5957   */\n          swap2\n          swap1\n          pop\n          jump\t// out\n            /* \"#utility.yul\":5963:6081   */\n        tag_214:\n            /* \"#utility.yul\":6050:6074   */\n          tag_216\n            /* \"#utility.yul\":6068:6073   */\n          dup2\n            /* \"#utility.yul\":6050:6074   */\n          tag_217\n          jump\t// in\n        tag_216:\n            /* \"#utility.yul\":6045:6048   */\n          dup3\n            /* \"#utility.yul\":6038:6075   */\n          mstore\n            /* \"#utility.yul\":5963:6081   */\n          pop\n          pop\n          jump\t// out\n            /* \"#utility.yul\":6087:6199   */\n        tag_218:\n            /* \"#utility.yul\":6170:6192   */\n          tag_220\n            /* \"#utility.yul\":6186:6191   */\n          dup2\n            /* \"#utility.yul\":6170:6192   */\n          tag_221\n          jump\t// in\n        tag_220:\n            /* \"#utility.yul\":6165:6168   */\n          dup3\n            /* \"#utility.yul\":6158:6193   */\n          mstore\n            /* \"#utility.yul\":6087:6199   */\n          pop\n          pop\n          jump\t// out\n            /* \"#utility.yul\":6205:6415   */\n        tag_24:\n            /* \"#utility.yul\":6292:6296   */\n          0x00\n            /* \"#utility.yul\":6330:6332   */\n          0x20\n            /* \"#utility.yul\":6319:6328   */\n          dup3\n            /* \"#utility.yul\":6315:6333   */\n          add\n            /* \"#utility.yul\":6307:6333   */\n          swap1\n          pop\n            /* \"#utility.yul\":6343:6408   */\n          tag_223\n            /* \"#utility.yul\":6405:6406   */\n          0x00\n            /* \"#utility.yul\":6394:6403   */\n          dup4\n            /* \"#utility.yul\":6390:6407   */\n          add\n            /* \"#utility.yul\":6381:6387   */\n          dup5\n            /* \"#utility.yul\":6343:6408   */\n          tag_165\n          jump\t// in\n        tag_223:\n            /* \"#utility.yul\":6205:6415   */\n          swap3\n          swap2\n          pop\n          pop\n          jump\t// out\n            /* \"#utility.yul\":6421:6734   */\n        tag_18:\n            /* \"#utility.yul\":6534:6538   */\n          0x00\n            /* \"#utility.yul\":6572:6574   */\n          0x20\n            /* \"#utility.yul\":6561:6570   */\n          dup3\n            /* \"#utility.yul\":6557:6575   */\n          add\n            /* \"#utility.yul\":6549:6575   */\n          swap1\n          pop\n            /* \"#utility.yul\":6621:6630   */\n          dup2\n            /* \"#utility.yul\":6615:6619   */\n          dup2\n            /* \"#utility.yul\":6611:6631   */\n          sub\n            /* \"#utility.yul\":6607:6608   */\n          0x00\n            /* \"#utility.yul\":6596:6605   */\n          dup4\n            /* \"#utility.yul\":6592:6609   */\n          add\n            /* \"#utility.yul\":6585:6632   */\n          mstore\n            /* \"#utility.yul\":6649:6727   */\n          tag_225\n            /* \"#utility.yul\":6722:6726   */\n          dup2\n            /* \"#utility.yul\":6713:6719   */\n          dup5\n            /* \"#utility.yul\":6649:6727   */\n          tag_169\n          jump\t// in\n        tag_225:\n            /* \"#utility.yul\":6641:6727   */\n          swap1\n          pop\n            /* \"#utility.yul\":6421:6734   */\n          swap3\n          swap2\n          pop\n          pop\n          jump\t// out\n            /* \"#utility.yul\":6740:7159   */\n        tag_119:\n            /* \"#utility.yul\":6906:6910   */\n          0x00\n            /* \"#utility.yul\":6944:6946   */\n          0x20\n            /* \"#utility.yul\":6933:6942   */\n          dup3\n            /* \"#utility.yul\":6929:6947   */\n          add\n            /* \"#utility.yul\":6921:6947   */\n          swap1\n          pop\n            /* \"#utility.yul\":6993:7002   */\n          dup2\n            /* \"#utility.yul\":6987:6991   */\n          dup2\n            /* \"#utility.yul\":6983:7003   */\n          sub\n            /* \"#utility.yul\":6979:6980   */\n          0x00\n            /* \"#utility.yul\":6968:6977   */\n          dup4\n            /* \"#utility.yul\":6964:6981   */\n          add\n            /* \"#utility.yul\":6957:7004   */\n          mstore\n            /* \"#utility.yul\":7021:7152   */\n          tag_227\n            /* \"#utility.yul\":7147:7151   */\n          dup2\n            /* \"#utility.yul\":7021:7152   */\n          tag_179\n          jump\t// in\n        tag_227:\n            /* \"#utility.yul\":7013:7152   */\n          swap1\n          pop\n            /* \"#utility.yul\":6740:7159   */\n          swap2\n          swap1\n          pop\n          jump\t// out\n            /* \"#utility.yul\":7165:7584   */\n        tag_111:\n            /* \"#utility.yul\":7331:7335   */\n          0x00\n            /* \"#utility.yul\":7369:7371   */\n          0x20\n            /* \"#utility.yul\":7358:7367   */\n          dup3\n            /* \"#utility.yul\":7354:7372   */\n          add\n            /* \"#utility.yul\":7346:7372   */\n          swap1\n          pop\n            /* \"#utility.yul\":7418:7427   */\n          dup2\n            /* \"#utility.yul\":7412:7416   */\n          dup2\n            /* \"#utility.yul\":7408:7428   */\n          sub\n            /* \"#utility.yul\":7404:7405   */\n          0x00\n            /* \"#utility.yul\":7393:7402   */\n          dup4\n            /* \"#utility.yul\":7389:7406   */\n          add\n            /* \"#utility.yul\":7382:7429   */\n          mstore\n            /* \"#utility.yul\":7446:7577   */\n          tag_229\n            /* \"#utility.yul\":7572:7576   */\n          dup2\n            /* \"#utility.yul\":7446:7577   */\n          tag_184\n          jump\t// in\n        tag_229:\n            /* \"#utility.yul\":7438:7577   */\n          swap1\n          pop\n            /* \"#utility.yul\":7165:7584   */\n          swap2\n          swap1\n          pop\n          jump\t// out\n            /* \"#utility.yul\":7590:8009   */\n        tag_122:\n            /* \"#utility.yul\":7756:7760   */\n          0x00\n            /* \"#utility.yul\":7794:7796   */\n          0x20\n            /* \"#utility.yul\":7783:7792   */\n          dup3\n            /* \"#utility.yul\":7779:7797   */\n          add\n            /* \"#utility.yul\":7771:7797   */\n          swap1\n          pop\n            /* \"#utility.yul\":7843:7852   */\n          dup2\n            /* \"#utility.yul\":7837:7841   */\n          dup2\n            /* \"#utility.yul\":7833:7853   */\n          sub\n            /* \"#utility.yul\":7829:7830   */\n          0x00\n            /* \"#utility.yul\":7818:7827   */\n          dup4\n            /* \"#utility.yul\":7814:7831   */\n          add\n            /* \"#utility.yul\":7807:7854   */\n          mstore\n            /* \"#utility.yul\":7871:8002   */\n          tag_231\n            /* \"#utility.yul\":7997:8001   */\n          dup2\n            /* \"#utility.yul\":7871:8002   */\n          tag_189\n          jump\t// in\n        tag_231:\n            /* \"#utility.yul\":7863:8002   */\n          swap1\n          pop\n            /* \"#utility.yul\":7590:8009   */\n          swap2\n          swap1\n          pop\n          jump\t// out\n            /* \"#utility.yul\":8015:8434   */\n        tag_80:\n            /* \"#utility.yul\":8181:8185   */\n          0x00\n            /* \"#utility.yul\":8219:8221   */\n          0x20\n            /* \"#utility.yul\":8208:8217   */\n          dup3\n            /* \"#utility.yul\":8204:8222   */\n          add\n            /* \"#utility.yul\":8196:8222   */\n          swap1\n          pop\n            /* \"#utility.yul\":8268:8277   */\n          dup2\n            /* \"#utility.yul\":8262:8266   */\n          dup2\n            /* \"#utility.yul\":8258:8278   */\n          sub\n            /* \"#utility.yul\":8254:8255   */\n          0x00\n            /* \"#utility.yul\":8243:8252   */\n          dup4\n            /* \"#utility.yul\":8239:8256   */\n          add\n            /* \"#utility.yul\":8232:8279   */\n          mstore\n            /* \"#utility.yul\":8296:8427   */\n          tag_233\n            /* \"#utility.yul\":8422:8426   */\n          dup2\n            /* \"#utility.yul\":8296:8427   */\n          tag_194\n          jump\t// in\n        tag_233:\n            /* \"#utility.yul\":8288:8427   */\n          swap1\n          pop\n            /* \"#utility.yul\":8015:8434   */\n          swap2\n          swap1\n          pop\n          jump\t// out\n            /* \"#utility.yul\":8440:8859   */\n        tag_116:\n            /* \"#utility.yul\":8606:8610   */\n          0x00\n            /* \"#utility.yul\":8644:8646   */\n          0x20\n            /* \"#utility.yul\":8633:8642   */\n          dup3\n            /* \"#utility.yul\":8629:8647   */\n          add\n            /* \"#utility.yul\":8621:8647   */\n          swap1\n          pop\n            /* \"#utility.yul\":8693:8702   */\n          dup2\n            /* \"#utility.yul\":8687:8691   */\n          dup2\n            /* \"#utility.yul\":8683:8703   */\n          sub\n            /* \"#utility.yul\":8679:8680   */\n          0x00\n            /* \"#utility.yul\":8668:8677   */\n          dup4\n            /* \"#utility.yul\":8664:8681   */\n          add\n            /* \"#utility.yul\":8657:8704   */\n          mstore\n            /* \"#utility.yul\":8721:8852   */\n          tag_235\n            /* \"#utility.yul\":8847:8851   */\n          dup2\n            /* \"#utility.yul\":8721:8852   */\n          tag_199\n          jump\t// in\n        tag_235:\n            /* \"#utility.yul\":8713:8852   */\n          swap1\n          pop\n            /* \"#utility.yul\":8440:8859   */\n          swap2\n          swap1\n          pop\n          jump\t// out\n            /* \"#utility.yul\":8865:9284   */\n        tag_108:\n            /* \"#utility.yul\":9031:9035   */\n          0x00\n            /* \"#utility.yul\":9069:9071   */\n          0x20\n            /* \"#utility.yul\":9058:9067   */\n          dup3\n            /* \"#utility.yul\":9054:9072   */\n          add\n            /* \"#utility.yul\":9046:9072   */\n          swap1\n          pop\n            /* \"#utility.yul\":9118:9127   */\n          dup2\n            /* \"#utility.yul\":9112:9116   */\n          dup2\n            /* \"#utility.yul\":9108:9128   */\n          sub\n            /* \"#utility.yul\":9104:9105   */\n          0x00\n            /* \"#utility.yul\":9093:9102   */\n          dup4\n            /* \"#utility.yul\":9089:9106   */\n          add\n            /* \"#utility.yul\":9082:9129   */\n          mstore\n            /* \"#utility.yul\":9146:9277   */\n          tag_237\n            /* \"#utility.yul\":9272:9276   */\n          dup2\n            /* \"#utility.yul\":9146:9277   */\n          tag_204\n          jump\t// in\n        tag_237:\n            /* \"#utility.yul\":9138:9277   */\n          swap1\n          pop\n            /* \"#utility.yul\":8865:9284   */\n          swap2\n          swap1\n          pop\n          jump\t// out\n            /* \"#utility.yul\":9290:9709   */\n        tag_99:\n            /* \"#utility.yul\":9456:9460   */\n          0x00\n            /* \"#utility.yul\":9494:9496   */\n          0x20\n            /* \"#utility.yul\":9483:9492   */\n          dup3\n            /* \"#utility.yul\":9479:9497   */\n          add\n            /* \"#utility.yul\":9471:9497   */\n          swap1\n          pop\n            /* \"#utility.yul\":9543:9552   */\n          dup2\n            /* \"#utility.yul\":9537:9541   */\n          dup2\n            /* \"#utility.yul\":9533:9553   */\n          sub\n            /* \"#utility.yul\":9529:9530   */\n          0x00\n            /* \"#utility.yul\":9518:9527   */\n          dup4\n            /* \"#utility.yul\":9514:9531   */\n          add\n            /* \"#utility.yul\":9507:9554   */\n          mstore\n            /* \"#utility.yul\":9571:9702   */\n          tag_239\n            /* \"#utility.yul\":9697:9701   */\n          dup2\n            /* \"#utility.yul\":9571:9702   */\n          tag_209\n          jump\t// in\n        tag_239:\n            /* \"#utility.yul\":9563:9702   */\n          swap1\n          pop\n            /* \"#utility.yul\":9290:9709   */\n          swap2\n          swap1\n          pop\n          jump\t// out\n            /* \"#utility.yul\":9715:9937   */\n        tag_28:\n            /* \"#utility.yul\":9808:9812   */\n          0x00\n            /* \"#utility.yul\":9846:9848   */\n          0x20\n            /* \"#utility.yul\":9835:9844   */\n          dup3\n            /* \"#utility.yul\":9831:9849   */\n          add\n            /* \"#utility.yul\":9823:9849   */\n          swap1\n          pop\n            /* \"#utility.yul\":9859:9930   */\n          tag_241\n            /* \"#utility.yul\":9927:9928   */\n          0x00\n            /* \"#utility.yul\":9916:9925   */\n          dup4\n            /* \"#utility.yul\":9912:9929   */\n          add\n            /* \"#utility.yul\":9903:9909   */\n          dup5\n            /* \"#utility.yul\":9859:9930   */\n          tag_214\n          jump\t// in\n        tag_241:\n            /* \"#utility.yul\":9715:9937   */\n          swap3\n          swap2\n          pop\n          pop\n          jump\t// out\n            /* \"#utility.yul\":9943:10157   */\n        tag_37:\n            /* \"#utility.yul\":10032:10036   */\n          0x00\n            /* \"#utility.yul\":10070:10072   */\n          0x20\n            /* \"#utility.yul\":10059:10068   */\n          dup3\n            /* \"#utility.yul\":10055:10073   */\n          add\n            /* \"#utility.yul\":10047:10073   */\n          swap1\n          pop\n            /* \"#utility.yul\":10083:10150   */\n          tag_243\n            /* \"#utility.yul\":10147:10148   */\n          0x00\n            /* \"#utility.yul\":10136:10145   */\n          dup4\n            /* \"#utility.yul\":10132:10149   */\n          add\n            /* \"#utility.yul\":10123:10129   */\n          dup5\n            /* \"#utility.yul\":10083:10150   */\n          tag_218\n          jump\t// in\n        tag_243:\n            /* \"#utility.yul\":9943:10157   */\n          swap3\n          swap2\n          pop\n          pop\n          jump\t// out\n            /* \"#utility.yul\":10244:10343   */\n        tag_172:\n            /* \"#utility.yul\":10296:10302   */\n          0x00\n            /* \"#utility.yul\":10330:10335   */\n          dup2\n            /* \"#utility.yul\":10324:10336   */\n          mload\n            /* \"#utility.yul\":10314:10336   */\n          swap1\n          pop\n            /* \"#utility.yul\":10244:10343   */\n          swap2\n          swap1\n          pop\n          jump\t// out\n            /* \"#utility.yul\":10349:10518   */\n        tag_174:\n            /* \"#utility.yul\":10433:10444   */\n          0x00\n            /* \"#utility.yul\":10467:10473   */\n          dup3\n            /* \"#utility.yul\":10462:10465   */\n          dup3\n            /* \"#utility.yul\":10455:10474   */\n          mstore\n            /* \"#utility.yul\":10507:10511   */\n          0x20\n            /* \"#utility.yul\":10502:10505   */\n          dup3\n            /* \"#utility.yul\":10498:10512   */\n          add\n            /* \"#utility.yul\":10483:10512   */\n          swap1\n          pop\n            /* \"#utility.yul\":10349:10518   */\n          swap3\n          swap2\n          pop\n          pop\n          jump\t// out\n            /* \"#utility.yul\":10524:10829   */\n        tag_88:\n            /* \"#utility.yul\":10564:10567   */\n          0x00\n            /* \"#utility.yul\":10583:10603   */\n          tag_249\n            /* \"#utility.yul\":10601:10602   */\n          dup3\n            /* \"#utility.yul\":10583:10603   */\n          tag_217\n          jump\t// in\n        tag_249:\n            /* \"#utility.yul\":10578:10603   */\n          swap2\n          pop\n            /* \"#utility.yul\":10617:10637   */\n          tag_250\n            /* \"#utility.yul\":10635:10636   */\n          dup4\n            /* \"#utility.yul\":10617:10637   */\n          tag_217\n          jump\t// in\n        tag_250:\n            /* \"#utility.yul\":10612:10637   */\n          swap3\n          pop\n            /* \"#utility.yul\":10771:10772   */\n          dup3\n            /* \"#utility.yul\":10703:10769   */\n          0xffffffffffffffffffffffffffffffffffffffffffffffffffffffffffffffff\n            /* \"#utility.yul\":10699:10773   */\n          sub\n            /* \"#utility.yul\":10696:10697   */\n          dup3\n            /* \"#utility.yul\":10693:10774   */\n          gt\n            /* \"#utility.yul\":10690:10797   */\n          iszero\n          tag_251\n          jumpi\n            /* \"#utility.yul\":10777:10795   */\n          tag_252\n          tag_253\n          jump\t// in\n        tag_252:\n            /* \"#utility.yul\":10690:10797   */\n        tag_251:\n            /* \"#utility.yul\":10821:10822   */\n          dup3\n            /* \"#utility.yul\":10818:10819   */\n          dup3\n            /* \"#utility.yul\":10814:10823   */\n          add\n            /* \"#utility.yul\":10807:10823   */\n          swap1\n          pop\n            /* \"#utility.yul\":10524:10829   */\n          swap3\n          swap2\n          pop\n          pop\n          jump\t// out\n            /* \"#utility.yul\":10835:11026   */\n        tag_83:\n            /* \"#utility.yul\":10875:10879   */\n          0x00\n            /* \"#utility.yul\":10895:10915   */\n          tag_255\n            /* \"#utility.yul\":10913:10914   */\n          dup3\n            /* \"#utility.yul\":10895:10915   */\n          tag_217\n          jump\t// in\n        tag_255:\n            /* \"#utility.yul\":10890:10915   */\n          swap2\n          pop\n            /* \"#utility.yul\":10929:10949   */\n          tag_256\n            /* \"#utility.yul\":10947:10948   */\n          dup4\n            /* \"#utility.yul\":10929:10949   */\n          tag_217\n          jump\t// in\n        tag_256:\n            /* \"#utility.yul\":10924:10949   */\n          swap3\n          pop\n            /* \"#utility.yul\":10968:10969   */\n          dup3\n            /* \"#utility.yul\":10965:10966   */\n          dup3\n            /* \"#utility.yul\":10962:10970   */\n          lt\n            /* \"#utility.yul\":10959:10993   */\n          iszero\n          tag_257\n          jumpi\n            /* \"#utility.yul\":10973:10991   */\n          tag_258\n          tag_253\n          jump\t// in\n        tag_258:\n            /* \"#utility.yul\":10959:10993   */\n        tag_257:\n            /* \"#utility.yul\":11018:11019   */\n          dup3\n            /* \"#utility.yul\":11015:11016   */\n          dup3\n            /* \"#utility.yul\":11011:11020   */\n          sub\n            /* \"#utility.yul\":11003:11020   */\n          swap1\n          pop\n            /* \"#utility.yul\":10835:11026   */\n          swap3\n          swap2\n          pop\n          pop\n          jump\t// out\n            /* \"#utility.yul\":11032:11128   */\n        tag_259:\n            /* \"#utility.yul\":11069:11076   */\n          0x00\n            /* \"#utility.yul\":11098:11122   */\n          tag_261\n            /* \"#utility.yul\":11116:11121   */\n          dup3\n            /* \"#utility.yul\":11098:11122   */\n          tag_262\n          jump\t// in\n        tag_261:\n            /* \"#utility.yul\":11087:11122   */\n          swap1\n          pop\n            /* \"#utility.yul\":11032:11128   */\n          swap2\n          swap1\n          pop\n          jump\t// out\n            /* \"#utility.yul\":11134:11238   */\n        tag_263:\n            /* \"#utility.yul\":11179:11186   */\n          0x00\n            /* \"#utility.yul\":11208:11232   */\n          tag_265\n            /* \"#utility.yul\":11226:11231   */\n          dup3\n            /* \"#utility.yul\":11208:11232   */\n          tag_262\n          jump\t// in\n        tag_265:\n            /* \"#utility.yul\":11197:11232   */\n          swap1\n          pop\n            /* \"#utility.yul\":11134:11238   */\n          swap2\n          swap1\n          pop\n          jump\t// out\n            /* \"#utility.yul\":11244:11334   */\n        tag_168:\n            /* \"#utility.yul\":11278:11285   */\n          0x00\n            /* \"#utility.yul\":11321:11326   */\n          dup2\n            /* \"#utility.yul\":11314:11327   */\n          iszero\n            /* \"#utility.yul\":11307:11328   */\n          iszero\n            /* \"#utility.yul\":11296:11328   */\n          swap1\n          pop\n            /* \"#utility.yul\":11244:11334   */\n          swap2\n          swap1\n          pop\n          jump\t// out\n            /* \"#utility.yul\":11340:11466   */\n        tag_262:\n            /* \"#utility.yul\":11377:11384   */\n          0x00\n            /* \"#utility.yul\":11417:11459   */\n          0xffffffffffffffffffffffffffffffffffffffff\n            /* \"#utility.yul\":11410:11415   */\n          dup3\n            /* \"#utility.yul\":11406:11460   */\n          and\n            /* \"#utility.yul\":11395:11460   */\n          swap1\n          pop\n            /* \"#utility.yul\":11340:11466   */\n          swap2\n          swap1\n          pop\n          jump\t// out\n            /* \"#utility.yul\":11472:11549   */\n        tag_217:\n            /* \"#utility.yul\":11509:11516   */\n          0x00\n            /* \"#utility.yul\":11538:11543   */\n          dup2\n            /* \"#utility.yul\":11527:11543   */\n          swap1\n          pop\n            /* \"#utility.yul\":11472:11549   */\n          swap2\n          swap1\n          pop\n          jump\t// out\n            /* \"#utility.yul\":11555:11641   */\n        tag_221:\n            /* \"#utility.yul\":11590:11597   */\n          0x00\n            /* \"#utility.yul\":11630:11634   */\n          0xff\n            /* \"#utility.yul\":11623:11628   */\n          dup3\n            /* \"#utility.yul\":11619:11635   */\n          and\n            /* \"#utility.yul\":11608:11635   */\n          swap1\n          pop\n            /* \"#utility.yul\":11555:11641   */\n          swap2\n          swap1\n          pop\n          jump\t// out\n            /* \"#utility.yul\":11647:11954   */\n        tag_176:\n            /* \"#utility.yul\":11715:11716   */\n          0x00\n            /* \"#utility.yul\":11725:11838   */\n        tag_271:\n            /* \"#utility.yul\":11739:11745   */\n          dup4\n            /* \"#utility.yul\":11736:11737   */\n          dup2\n            /* \"#utility.yul\":11733:11746   */\n          lt\n            /* \"#utility.yul\":11725:11838   */\n          iszero\n          tag_273\n          jumpi\n            /* \"#utility.yul\":11824:11825   */\n          dup1\n            /* \"#utility.yul\":11819:11822   */\n          dup3\n            /* \"#utility.yul\":11815:11826   */\n          add\n            /* \"#utility.yul\":11809:11827   */\n          mload\n            /* \"#utility.yul\":11805:11806   */\n          dup2\n            /* \"#utility.yul\":11800:11803   */\n          dup5\n            /* \"#utility.yul\":11796:11807   */\n          add\n            /* \"#utility.yul\":11789:11828   */\n          mstore\n            /* \"#utility.yul\":11761:11763   */\n          0x20\n            /* \"#utility.yul\":11758:11759   */\n          dup2\n            /* \"#utility.yul\":11754:11764   */\n          add\n            /* \"#utility.yul\":11749:11764   */\n          swap1\n          pop\n            /* \"#utility.yul\":11725:11838   */\n          jump(tag_271)\n        tag_273:\n            /* \"#utility.yul\":11856:11862   */\n          dup4\n            /* \"#utility.yul\":11853:11854   */\n          dup2\n            /* \"#utility.yul\":11850:11863   */\n          gt\n            /* \"#utility.yul\":11847:11948   */\n          iszero\n          tag_274\n          jumpi\n            /* \"#utility.yul\":11936:11937   */\n          0x00\n            /* \"#utility.yul\":11927:11933   */\n          dup5\n            /* \"#utility.yul\":11922:11925   */\n          dup5\n            /* \"#utility.yul\":11918:11934   */\n          add\n            /* \"#utility.yul\":11911:11938   */\n          mstore\n            /* \"#utility.yul\":11847:11948   */\n        tag_274:\n            /* \"#utility.yul\":11696:11954   */\n          pop\n            /* \"#utility.yul\":11647:11954   */\n          pop\n          pop\n          pop\n          jump\t// out\n            /* \"#utility.yul\":11960:12280   */\n        tag_66:\n            /* \"#utility.yul\":12004:12010   */\n          0x00\n            /* \"#utility.yul\":12041:12042   */\n          0x02\n            /* \"#utility.yul\":12035:12039   */\n          dup3\n            /* \"#utility.yul\":12031:12043   */\n          div\n            /* \"#utility.yul\":12021:12043   */\n          swap1\n          pop\n            /* \"#utility.yul\":12088:12089   */\n          0x01\n            /* \"#utility.yul\":12082:12086   */\n          dup3\n            /* \"#utility.yul\":12078:12090   */\n          and\n            /* \"#utility.yul\":12109:12127   */\n          dup1\n            /* \"#utility.yul\":12099:12180   */\n          tag_276\n          jumpi\n            /* \"#utility.yul\":12165:12169   */\n          0x7f\n            /* \"#utility.yul\":12157:12163   */\n          dup3\n            /* \"#utility.yul\":12153:12170   */\n          and\n            /* \"#utility.yul\":12143:12170   */\n          swap2\n          pop\n            /* \"#utility.yul\":12099:12180   */\n        tag_276:\n            /* \"#utility.yul\":12227:12229   */\n          0x20\n            /* \"#utility.yul\":12219:12225   */\n          dup3\n            /* \"#utility.yul\":12216:12230   */\n          lt\n            /* \"#utility.yul\":12196:12214   */\n          dup2\n            /* \"#utility.yul\":12193:12231   */\n          eq\n            /* \"#utility.yul\":12190:12274   */\n          iszero\n          tag_277\n          jumpi\n            /* \"#utility.yul\":12246:12264   */\n          tag_278\n          tag_279\n          jump\t// in\n        tag_278:\n            /* \"#utility.yul\":12190:12274   */\n        tag_277:\n            /* \"#utility.yul\":12011:12280   */\n          pop\n            /* \"#utility.yul\":11960:12280   */\n          swap2\n          swap1\n          pop\n          jump\t// out\n            /* \"#utility.yul\":12286:12466   */\n        tag_253:\n            /* \"#utility.yul\":12334:12411   */\n          0x4e487b7100000000000000000000000000000000000000000000000000000000\n            /* \"#utility.yul\":12331:12332   */\n          0x00\n            /* \"#utility.yul\":12324:12412   */\n          mstore\n            /* \"#utility.yul\":12431:12435   */\n          0x11\n            /* \"#utility.yul\":12428:12429   */\n          0x04\n            /* \"#utility.yul\":12421:12436   */\n          mstore\n            /* \"#utility.yul\":12455:12459   */\n          0x24\n            /* \"#utility.yul\":12452:12453   */\n          0x00\n            /* \"#utility.yul\":12445:12460   */\n          revert\n            /* \"#utility.yul\":12472:12652   */\n        tag_279:\n            /* \"#utility.yul\":12520:12597   */\n          0x4e487b7100000000000000000000000000000000000000000000000000000000\n            /* \"#utility.yul\":12517:12518   */\n          0x00\n            /* \"#utility.yul\":12510:12598   */\n          mstore\n            /* \"#utility.yul\":12617:12621   */\n          0x22\n            /* \"#utility.yul\":12614:12615   */\n          0x04\n            /* \"#utility.yul\":12607:12622   */\n          mstore\n            /* \"#utility.yul\":12641:12645   */\n          0x24\n            /* \"#utility.yul\":12638:12639   */\n          0x00\n            /* \"#utility.yul\":12631:12646   */\n          revert\n            /* \"#utility.yul\":12781:12898   */\n        tag_142:\n            /* \"#utility.yul\":12890:12891   */\n          0x00\n            /* \"#utility.yul\":12887:12888   */\n          dup1\n            /* \"#utility.yul\":12880:12892   */\n          revert\n            /* \"#utility.yul\":12904:13006   */\n        tag_178:\n            /* \"#utility.yul\":12945:12951   */\n          0x00\n            /* \"#utility.yul\":12996:12998   */\n          0x1f\n            /* \"#utility.yul\":12992:12999   */\n          not\n            /* \"#utility.yul\":12987:12989   */\n          0x1f\n            /* \"#utility.yul\":12980:12985   */\n          dup4\n            /* \"#utility.yul\":12976:12990   */\n          add\n            /* \"#utility.yul\":12972:13000   */\n          and\n            /* \"#utility.yul\":12962:13000   */\n          swap1\n          pop\n            /* \"#utility.yul\":12904:13006   */\n          swap2\n          swap1\n          pop\n          jump\t// out\n            /* \"#utility.yul\":13012:13234   */\n        tag_183:\n            /* \"#utility.yul\":13152:13186   */\n          0x45524332303a207472616e7366657220746f20746865207a65726f2061646472\n            /* \"#utility.yul\":13148:13149   */\n          0x00\n            /* \"#utility.yul\":13140:13146   */\n          dup3\n            /* \"#utility.yul\":13136:13150   */\n          add\n            /* \"#utility.yul\":13129:13187   */\n          mstore\n            /* \"#utility.yul\":13221:13226   */\n          0x6573730000000000000000000000000000000000000000000000000000000000\n            /* \"#utility.yul\":13216:13218   */\n          0x20\n            /* \"#utility.yul\":13208:13214   */\n          dup3\n            /* \"#utility.yul\":13204:13219   */\n          add\n            /* \"#utility.yul\":13197:13227   */\n          mstore\n            /* \"#utility.yul\":13012:13234   */\n          pop\n          jump\t// out\n            /* \"#utility.yul\":13240:13461   */\n        tag_188:\n            /* \"#utility.yul\":13380:13414   */\n          0x45524332303a20617070726f766520746f20746865207a65726f206164647265\n            /* \"#utility.yul\":13376:13377   */\n          0x00\n            /* \"#utility.yul\":13368:13374   */\n          dup3\n            /* \"#utility.yul\":13364:13378   */\n          add\n            /* \"#utility.yul\":13357:13415   */\n          mstore\n            /* \"#utility.yul\":13449:13453   */\n          0x7373000000000000000000000000000000000000000000000000000000000000\n            /* \"#utility.yul\":13444:13446   */\n          0x20\n            /* \"#utility.yul\":13436:13442   */\n          dup3\n            /* \"#utility.yul\":13432:13447   */\n          add\n            /* \"#utility.yul\":13425:13454   */\n          mstore\n            /* \"#utility.yul\":13240:13461   */\n          pop\n          jump\t// out\n            /* \"#utility.yul\":13467:13692   */\n        tag_193:\n            /* \"#utility.yul\":13607:13641   */\n          0x45524332303a207472616e7366657220616d6f756e7420657863656564732062\n            /* \"#utility.yul\":13603:13604   */\n          0x00\n            /* \"#utility.yul\":13595:13601   */\n          dup3\n            /* \"#utility.yul\":13591:13605   */\n          add\n            /* \"#utility.yul\":13584:13642   */\n          mstore\n            /* \"#utility.yul\":13676:13684   */\n          0x616c616e63650000000000000000000000000000000000000000000000000000\n            /* \"#utility.yul\":13671:13673   */\n          0x20\n            /* \"#utility.yul\":13663:13669   */\n          dup3\n            /* \"#utility.yul\":13659:13674   */\n          add\n            /* \"#utility.yul\":13652:13685   */\n          mstore\n            /* \"#utility.yul\":13467:13692   */\n          pop\n          jump\t// out\n            /* \"#utility.yul\":13698:13925   */\n        tag_198:\n            /* \"#utility.yul\":13838:13872   */\n          0x45524332303a207472616e7366657220616d6f756e7420657863656564732061\n            /* \"#utility.yul\":13834:13835   */\n          0x00\n            /* \"#utility.yul\":13826:13832   */\n          dup3\n            /* \"#utility.yul\":13822:13836   */\n          add\n            /* \"#utility.yul\":13815:13873   */\n          mstore\n            /* \"#utility.yul\":13907:13917   */\n          0x6c6c6f77616e6365000000000000000000000000000000000000000000000000\n            /* \"#utility.yul\":13902:13904   */\n          0x20\n            /* \"#utility.yul\":13894:13900   */\n          dup3\n            /* \"#utility.yul\":13890:13905   */\n          add\n            /* \"#utility.yul\":13883:13918   */\n          mstore\n            /* \"#utility.yul\":13698:13925   */\n          pop\n          jump\t// out\n            /* \"#utility.yul\":13931:14155   */\n        tag_203:\n            /* \"#utility.yul\":14071:14105   */\n          0x45524332303a207472616e736665722066726f6d20746865207a65726f206164\n            /* \"#utility.yul\":14067:14068   */\n          0x00\n            /* \"#utility.yul\":14059:14065   */\n          dup3\n            /* \"#utility.yul\":14055:14069   */\n          add\n            /* \"#utility.yul\":14048:14106   */\n          mstore\n            /* \"#utility.yul\":14140:14147   */\n          0x6472657373000000000000000000000000000000000000000000000000000000\n            /* \"#utility.yul\":14135:14137   */\n          0x20\n            /* \"#utility.yul\":14127:14133   */\n          dup3\n            /* \"#utility.yul\":14123:14138   */\n          add\n            /* \"#utility.yul\":14116:14148   */\n          mstore\n            /* \"#utility.yul\":13931:14155   */\n          pop\n          jump\t// out\n            /* \"#utility.yul\":14161:14384   */\n        tag_208:\n            /* \"#utility.yul\":14301:14335   */\n          0x45524332303a20617070726f76652066726f6d20746865207a65726f20616464\n            /* \"#utility.yul\":14297:14298   */\n          0x00\n            /* \"#utility.yul\":14289:14295   */\n          dup3\n            /* \"#utility.yul\":14285:14299   */\n          add\n            /* \"#utility.yul\":14278:14336   */\n          mstore\n            /* \"#utility.yul\":14370:14376   */\n          0x7265737300000000000000000000000000000000000000000000000000000000\n            /* \"#utility.yul\":14365:14367   */\n          0x20\n            /* \"#utility.yul\":14357:14363   */\n          dup3\n            /* \"#utility.yul\":14353:14368   */\n          add\n            /* \"#utility.yul\":14346:14377   */\n          mstore\n            /* \"#utility.yul\":14161:14384   */\n          pop\n          jump\t// out\n            /* \"#utility.yul\":14390:14614   */\n        tag_213:\n            /* \"#utility.yul\":14530:14564   */\n          0x45524332303a2064656372656173656420616c6c6f77616e63652062656c6f77\n            /* \"#utility.yul\":14526:14527   */\n          0x00\n            /* \"#utility.yul\":14518:14524   */\n          dup3\n            /* \"#utility.yul\":14514:14528   */\n          add\n            /* \"#utility.yul\":14507:14565   */\n          mstore\n            /* \"#utility.yul\":14599:14606   */\n          0x207a65726f000000000000000000000000000000000000000000000000000000\n            /* \"#utility.yul\":14594:14596   */\n          0x20\n            /* \"#utility.yul\":14586:14592   */\n          dup3\n            /* \"#utility.yul\":14582:14597   */\n          add\n            /* \"#utility.yul\":14575:14607   */\n          mstore\n            /* \"#utility.yul\":14390:14614   */\n          pop\n          jump\t// out\n            /* \"#utility.yul\":14620:14742   */\n        tag_130:\n            /* \"#utility.yul\":14693:14717   */\n          tag_294\n            /* \"#utility.yul\":14711:14716   */\n          dup2\n            /* \"#utility.yul\":14693:14717   */\n          tag_259\n          jump\t// in\n        tag_294:\n            /* \"#utility.yul\":14686:14691   */\n          dup2\n            /* \"#utility.yul\":14683:14718   */\n          eq\n            /* \"#utility.yul\":14673:14736   */\n          tag_295\n          jumpi\n            /* \"#utility.yul\":14732:14733   */\n          0x00\n            /* \"#utility.yul\":14729:14730   */\n          dup1\n            /* \"#utility.yul\":14722:14734   */\n          revert\n            /* \"#utility.yul\":14673:14736   */\n        tag_295:\n            /* \"#utility.yul\":14620:14742   */\n          pop\n          jump\t// out\n            /* \"#utility.yul\":14748:14886   */\n        tag_134:\n            /* \"#utility.yul\":14829:14861   */\n          tag_297\n            /* \"#utility.yul\":14855:14860   */\n          dup2\n            /* \"#utility.yul\":14829:14861   */\n          tag_263\n          jump\t// in\n        tag_297:\n            /* \"#utility.yul\":14822:14827   */\n          dup2\n            /* \"#utility.yul\":14819:14862   */\n          eq\n            /* \"#utility.yul\":14809:14880   */\n          tag_298\n          jumpi\n            /* \"#utility.yul\":14876:14877   */\n          0x00\n            /* \"#utility.yul\":14873:14874   */\n          dup1\n            /* \"#utility.yul\":14866:14878   */\n          revert\n            /* \"#utility.yul\":14809:14880   */\n        tag_298:\n            /* \"#utility.yul\":14748:14886   */\n          pop\n          jump\t// out\n            /* \"#utility.yul\":14892:15014   */\n        tag_138:\n            /* \"#utility.yul\":14965:14989   */\n          tag_300\n            /* \"#utility.yul\":14983:14988   */\n          dup2\n            /* \"#utility.yul\":14965:14989   */\n          tag_217\n          jump\t// in\n        tag_300:\n            /* \"#utility.yul\":14958:14963   */\n          dup2\n            /* \"#utility.yul\":14955:14990   */\n          eq\n            /* \"#utility.yul\":14945:15008   */\n          tag_301\n          jumpi\n            /* \"#utility.yul\":15004:15005   */\n          0x00\n            /* \"#utility.yul\":15001:15002   */\n          dup1\n            /* \"#utility.yul\":14994:15006   */\n          revert\n            /* \"#utility.yul\":14945:15008   */\n        tag_301:\n            /* \"#utility.yul\":14892:15014   */\n          pop\n          jump\t// out\n\n        auxdata: 0xa2646970667358221220d99bfc6ebc98a9049764918e5e5559783fa66e1f776e8a7ea667623b15dd63ec64736f6c63430008070033\n    }\n}\n",
				"bytecode": {
					"linkReferences": {},
					"object": "60806040523480156200001157600080fd5b506040516200209838038062002098833981810160405281019062000037919062000145565b81816040516200004790620000b9565b620000549291906200020b565b604051809103906000f08015801562000071573d6000803e3d6000fd5b506000806101000a81548173ffffffffffffffffffffffffffffffffffffffff021916908373ffffffffffffffffffffffffffffffffffffffff160217905550505062000381565b6117cf80620008c983390190565b6000620000de620000d8846200026f565b62000246565b905082815260208101848484011115620000fd57620000fc62000361565b5b6200010a848285620002c1565b509392505050565b600082601f8301126200012a57620001296200035c565b5b81516200013c848260208601620000c7565b91505092915050565b600080604083850312156200015f576200015e6200036b565b5b600083015167ffffffffffffffff81111562000180576200017f62000366565b5b6200018e8582860162000112565b925050602083015167ffffffffffffffff811115620001b257620001b162000366565b5b620001c08582860162000112565b9150509250929050565b6000620001d782620002a5565b620001e38185620002b0565b9350620001f5818560208601620002c1565b620002008162000370565b840191505092915050565b60006040820190508181036000830152620002278185620001ca565b905081810360208301526200023d8184620001ca565b90509392505050565b60006200025262000265565b9050620002608282620002f7565b919050565b6000604051905090565b600067ffffffffffffffff8211156200028d576200028c6200032d565b5b620002988262000370565b9050602081019050919050565b600081519050919050565b600082825260208201905092915050565b60005b83811015620002e1578082015181840152602081019050620002c4565b83811115620002f1576000848401525b50505050565b620003028262000370565b810181811067ffffffffffffffff821117156200032457620003236200032d565b5b80604052505050565b7f4e487b7100000000000000000000000000000000000000000000000000000000600052604160045260246000fd5b600080fd5b600080fd5b600080fd5b600080fd5b6000601f19601f8301169050919050565b61053880620003916000396000f3fe6080604052600436106100385760003560e01c8063d18a42e11461004c578063e9ba77fb14610089578063fc0c546a1461009357610047565b36610047576100456100be565b005b600080fd5b34801561005857600080fd5b50610073600480360381019061006e91906102d1565b61026b565b604051610080919061038e565b60405180910390f35b6100916100be565b005b34801561009f57600080fd5b506100a8610283565b6040516100b59190610373565b60405180910390f35b600160003373ffffffffffffffffffffffffffffffffffffffff1673ffffffffffffffffffffffffffffffffffffffff1681526020019081526020016000205434600160003373ffffffffffffffffffffffffffffffffffffffff1673ffffffffffffffffffffffffffffffffffffffff1681526020019081526020016000205461014991906103a9565b101561015857610157610471565b5b6000349050600033905060008060009054906101000a900473ffffffffffffffffffffffffffffffffffffffff1673ffffffffffffffffffffffffffffffffffffffff166370a08231836040518263ffffffff1660e01b81526004016101be9190610358565b60206040518083038186803b1580156101d657600080fd5b505afa1580156101ea573d6000803e3d6000fd5b505050506040513d601f19601f8201168201806040525081019061020e91906102fe565b905034600160003373ffffffffffffffffffffffffffffffffffffffff1673ffffffffffffffffffffffffffffffffffffffff168152602001908152602001600020600082825461025f91906103a9565b92505081905550505050565b60016020528060005260406000206000915090505481565b60008054906101000a900473ffffffffffffffffffffffffffffffffffffffff1681565b6000813590506102b6816104d4565b92915050565b6000815190506102cb816104eb565b92915050565b6000602082840312156102e7576102e66104cf565b5b60006102f5848285016102a7565b91505092915050565b600060208284031215610314576103136104cf565b5b6000610322848285016102bc565b91505092915050565b610334816103ff565b82525050565b6103438161043b565b82525050565b61035281610431565b82525050565b600060208201905061036d600083018461032b565b92915050565b6000602082019050610388600083018461033a565b92915050565b60006020820190506103a36000830184610349565b92915050565b60006103b482610431565b91506103bf83610431565b9250827fffffffffffffffffffffffffffffffffffffffffffffffffffffffffffffffff038211156103f4576103f36104a0565b5b828201905092915050565b600061040a82610411565b9050919050565b600073ffffffffffffffffffffffffffffffffffffffff82169050919050565b6000819050919050565b60006104468261044d565b9050919050565b60006104588261045f565b9050919050565b600061046a82610411565b9050919050565b7f4e487b7100000000000000000000000000000000000000000000000000000000600052600160045260246000fd5b7f4e487b7100000000000000000000000000000000000000000000000000000000600052601160045260246000fd5b600080fd5b6104dd816103ff565b81146104e857600080fd5b50565b6104f481610431565b81146104ff57600080fd5b5056fea2646970667358221220c52bb9b515994889f61366afcb1439ee88d0523596f75f327dca3dca2ecb2c1864736f6c6343000807003360806040523480156200001157600080fd5b50604051620017cf380380620017cf83398181016040528101906200003791906200019f565b81600390805190602001906200004f92919062000071565b5080600490805190602001906200006892919062000071565b505050620003a8565b8280546200007f90620002b9565b90600052602060002090601f016020900481019282620000a35760008555620000ef565b82601f10620000be57805160ff1916838001178555620000ef565b82800160010185558215620000ef579182015b82811115620000ee578251825591602001919060010190620000d1565b5b509050620000fe919062000102565b5090565b5b808211156200011d57600081600090555060010162000103565b5090565b60006200013862000132846200024d565b62000224565b90508281526020810184848401111562000157576200015662000388565b5b6200016484828562000283565b509392505050565b600082601f83011262000184576200018362000383565b5b81516200019684826020860162000121565b91505092915050565b60008060408385031215620001b957620001b862000392565b5b600083015167ffffffffffffffff811115620001da57620001d96200038d565b5b620001e8858286016200016c565b925050602083015167ffffffffffffffff8111156200020c576200020b6200038d565b5b6200021a858286016200016c565b9150509250929050565b60006200023062000243565b90506200023e8282620002ef565b919050565b6000604051905090565b600067ffffffffffffffff8211156200026b576200026a62000354565b5b620002768262000397565b9050602081019050919050565b60005b83811015620002a357808201518184015260208101905062000286565b83811115620002b3576000848401525b50505050565b60006002820490506001821680620002d257607f821691505b60208210811415620002e957620002e862000325565b5b50919050565b620002fa8262000397565b810181811067ffffffffffffffff821117156200031c576200031b62000354565b5b80604052505050565b7f4e487b7100000000000000000000000000000000000000000000000000000000600052602260045260246000fd5b7f4e487b7100000000000000000000000000000000000000000000000000000000600052604160045260246000fd5b600080fd5b600080fd5b600080fd5b600080fd5b6000601f19601f8301169050919050565b61141780620003b86000396000f3fe608060405234801561001057600080fd5b50600436106100a95760003560e01c80633950935111610071578063395093511461016857806370a082311461019857806395d89b41146101c8578063a457c2d7146101e6578063a9059cbb14610216578063dd62ed3e14610246576100a9565b806306fdde03146100ae578063095ea7b3146100cc57806318160ddd146100fc57806323b872dd1461011a578063313ce5671461014a575b600080fd5b6100b6610276565b6040516100c39190610e55565b60405180910390f35b6100e660048036038101906100e19190610c9f565b610308565b6040516100f39190610e3a565b60405180910390f35b61010461031f565b6040516101119190610f57565b60405180910390f35b610134600480360381019061012f9190610c4c565b610329565b6040516101419190610e3a565b60405180910390f35b61015261041c565b60405161015f9190610f72565b60405180910390f35b610182600480360381019061017d9190610c9f565b610425565b60405161018f9190610e3a565b60405180910390f35b6101b260048036038101906101ad9190610b9f565b6104c3565b6040516101bf9190610f57565b60405180910390f35b6101d061050b565b6040516101dd9190610e55565b60405180910390f35b61020060048036038101906101fb9190610c9f565b61059d565b60405161020d9190610e3a565b60405180910390f35b610230600480360381019061022b9190610bcc565b610683565b60405161023d9190610e3a565b60405180910390f35b610260600480360381019061025b9190610c0c565b61069a565b60405161026d9190610f57565b60405180910390f35b606060038054610285906110cd565b80601f01602080910402602001604051908101604052809291908181526020018280546102b1906110cd565b80156102fe5780601f106102d3576101008083540402835291602001916102fe565b820191906000526020600020905b8154815290600101906020018083116102e157829003601f168201915b5050505050905090565b6000610315338484610721565b6001905092915050565b6000600254905090565b60006103368484846108ec565b6000600160008673ffffffffffffffffffffffffffffffffffffffff1673ffffffffffffffffffffffffffffffffffffffff16815260200190815260200160002060008573ffffffffffffffffffffffffffffffffffffffff1673ffffffffffffffffffffffffffffffffffffffff168152602001908152602001600020549050828110156103fa576040517f08c379a00000000000000000000000000000000000000000000000000000000081526004016103f190610ed7565b60405180910390fd5b6104108585858461040b9190610fff565b610721565b60019150509392505050565b60006012905090565b60006104b9338484600160003373ffffffffffffffffffffffffffffffffffffffff1673ffffffffffffffffffffffffffffffffffffffff16815260200190815260200160002060008873ffffffffffffffffffffffffffffffffffffffff1673ffffffffffffffffffffffffffffffffffffffff168152602001908152602001600020546104b49190610fa9565b610721565b6001905092915050565b60008060008373ffffffffffffffffffffffffffffffffffffffff1673ffffffffffffffffffffffffffffffffffffffff168152602001908152602001600020549050919050565b60606004805461051a906110cd565b80601f0160208091040260200160405190810160405280929190818152602001828054610546906110cd565b80156105935780601f1061056857610100808354040283529160200191610593565b820191906000526020600020905b81548152906001019060200180831161057657829003601f168201915b5050505050905090565b600080600160003373ffffffffffffffffffffffffffffffffffffffff1673ffffffffffffffffffffffffffffffffffffffff16815260200190815260200160002060008573ffffffffffffffffffffffffffffffffffffffff1673ffffffffffffffffffffffffffffffffffffffff16815260200190815260200160002054905082811015610662576040517f08c379a000000000000000000000000000000000000000000000000000000000815260040161065990610f37565b60405180910390fd5b610678338585846106739190610fff565b610721565b600191505092915050565b60006106903384846108ec565b6001905092915050565b6000600160008473ffffffffffffffffffffffffffffffffffffffff1673ffffffffffffffffffffffffffffffffffffffff16815260200190815260200160002060008373ffffffffffffffffffffffffffffffffffffffff1673ffffffffffffffffffffffffffffffffffffffff16815260200190815260200160002054905092915050565b600073ffffffffffffffffffffffffffffffffffffffff168373ffffffffffffffffffffffffffffffffffffffff161415610791576040517f08c379a000000000000000000000000000000000000000000000000000000000815260040161078890610f17565b60405180910390fd5b600073ffffffffffffffffffffffffffffffffffffffff168273ffffffffffffffffffffffffffffffffffffffff161415610801576040517f08c379a00000000000000000000000000000000000000000000000000000000081526004016107f890610e97565b60405180910390fd5b80600160008573ffffffffffffffffffffffffffffffffffffffff1673ffffffffffffffffffffffffffffffffffffffff16815260200190815260200160002060008473ffffffffffffffffffffffffffffffffffffffff1673ffffffffffffffffffffffffffffffffffffffff168152602001908152602001600020819055508173ffffffffffffffffffffffffffffffffffffffff168373ffffffffffffffffffffffffffffffffffffffff167f8c5be1e5ebec7d5bd14f71427d1e84f3dd0314c0f7b2291e5b200ac8c7c3b925836040516108df9190610f57565b60405180910390a3505050565b600073ffffffffffffffffffffffffffffffffffffffff168373ffffffffffffffffffffffffffffffffffffffff16141561095c576040517f08c379a000000000000000000000000000000000000000000000000000000000815260040161095390610ef7565b60405180910390fd5b600073ffffffffffffffffffffffffffffffffffffffff168273ffffffffffffffffffffffffffffffffffffffff1614156109cc576040517f08c379a00000000000000000000000000000000000000000000000000000000081526004016109c390610e77565b60405180910390fd5b60008060008573ffffffffffffffffffffffffffffffffffffffff1673ffffffffffffffffffffffffffffffffffffffff16815260200190815260200160002054905081811015610a52576040517f08c379a0000000000000000000000000000000000000000000000000000000008152600401610a4990610eb7565b60405180910390fd5b8181610a5e9190610fff565b6000808673ffffffffffffffffffffffffffffffffffffffff1673ffffffffffffffffffffffffffffffffffffffff16815260200190815260200160002081905550816000808573ffffffffffffffffffffffffffffffffffffffff1673ffffffffffffffffffffffffffffffffffffffff1681526020019081526020016000206000828254610aee9190610fa9565b925050819055508273ffffffffffffffffffffffffffffffffffffffff168473ffffffffffffffffffffffffffffffffffffffff167fddf252ad1be2c89b69c2b068fc378daa952ba7f163c4a11628f55a4df523b3ef84604051610b529190610f57565b60405180910390a350505050565b600081359050610b6f8161139c565b92915050565b600081359050610b84816113b3565b92915050565b600081359050610b99816113ca565b92915050565b600060208284031215610bb557610bb461115d565b5b6000610bc384828501610b60565b91505092915050565b60008060408385031215610be357610be261115d565b5b6000610bf185828601610b75565b9250506020610c0285828601610b8a565b9150509250929050565b60008060408385031215610c2357610c2261115d565b5b6000610c3185828601610b60565b9250506020610c4285828601610b60565b9150509250929050565b600080600060608486031215610c6557610c6461115d565b5b6000610c7386828701610b60565b9350506020610c8486828701610b60565b9250506040610c9586828701610b8a565b9150509250925092565b60008060408385031215610cb657610cb561115d565b5b6000610cc485828601610b60565b9250506020610cd585828601610b8a565b9150509250929050565b610ce881611057565b82525050565b6000610cf982610f8d565b610d038185610f98565b9350610d1381856020860161109a565b610d1c81611162565b840191505092915050565b6000610d34602383610f98565b9150610d3f82611173565b604082019050919050565b6000610d57602283610f98565b9150610d62826111c2565b604082019050919050565b6000610d7a602683610f98565b9150610d8582611211565b604082019050919050565b6000610d9d602883610f98565b9150610da882611260565b604082019050919050565b6000610dc0602583610f98565b9150610dcb826112af565b604082019050919050565b6000610de3602483610f98565b9150610dee826112fe565b604082019050919050565b6000610e06602583610f98565b9150610e118261134d565b604082019050919050565b610e2581611083565b82525050565b610e348161108d565b82525050565b6000602082019050610e4f6000830184610cdf565b92915050565b60006020820190508181036000830152610e6f8184610cee565b905092915050565b60006020820190508181036000830152610e9081610d27565b9050919050565b60006020820190508181036000830152610eb081610d4a565b9050919050565b60006020820190508181036000830152610ed081610d6d565b9050919050565b60006020820190508181036000830152610ef081610d90565b9050919050565b60006020820190508181036000830152610f1081610db3565b9050919050565b60006020820190508181036000830152610f3081610dd6565b9050919050565b60006020820190508181036000830152610f5081610df9565b9050919050565b6000602082019050610f6c6000830184610e1c565b92915050565b6000602082019050610f876000830184610e2b565b92915050565b600081519050919050565b600082825260208201905092915050565b6000610fb482611083565b9150610fbf83611083565b9250827fffffffffffffffffffffffffffffffffffffffffffffffffffffffffffffffff03821115610ff457610ff36110ff565b5b828201905092915050565b600061100a82611083565b915061101583611083565b925082821015611028576110276110ff565b5b828203905092915050565b600061103e82611063565b9050919050565b600061105082611063565b9050919050565b60008115159050919050565b600073ffffffffffffffffffffffffffffffffffffffff82169050919050565b6000819050919050565b600060ff82169050919050565b60005b838110156110b857808201518184015260208101905061109d565b838111156110c7576000848401525b50505050565b600060028204905060018216806110e557607f821691505b602082108114156110f9576110f861112e565b5b50919050565b7f4e487b7100000000000000000000000000000000000000000000000000000000600052601160045260246000fd5b7f4e487b7100000000000000000000000000000000000000000000000000000000600052602260045260246000fd5b600080fd5b6000601f19601f8301169050919050565b7f45524332303a207472616e7366657220746f20746865207a65726f206164647260008201527f6573730000000000000000000000000000000000000000000000000000000000602082015250565b7f45524332303a20617070726f766520746f20746865207a65726f20616464726560008201527f7373000000000000000000000000000000000000000000000000000000000000602082015250565b7f45524332303a207472616e7366657220616d6f756e742065786365656473206260008201527f616c616e63650000000000000000000000000000000000000000000000000000602082015250565b7f45524332303a207472616e7366657220616d6f756e742065786365656473206160008201527f6c6c6f77616e6365000000000000000000000000000000000000000000000000602082015250565b7f45524332303a207472616e736665722066726f6d20746865207a65726f20616460008201527f6472657373000000000000000000000000000000000000000000000000000000602082015250565b7f45524332303a20617070726f76652066726f6d20746865207a65726f2061646460008201527f7265737300000000000000000000000000000000000000000000000000000000602082015250565b7f45524332303a2064656372656173656420616c6c6f77616e63652062656c6f7760008201527f207a65726f000000000000000000000000000000000000000000000000000000602082015250565b6113a581611033565b81146113b057600080fd5b50565b6113bc81611045565b81146113c757600080fd5b50565b6113d381611083565b81146113de57600080fd5b5056fea2646970667358221220d99bfc6ebc98a9049764918e5e5559783fa66e1f776e8a7ea667623b15dd63ec64736f6c63430008070033",
					"opcodes": "PUSH1 0x80 PUSH1 0x40 MSTORE CALLVALUE DUP1 ISZERO PUSH3 0x11 JUMPI PUSH1 0x0 DUP1 REVERT JUMPDEST POP PUSH1 0x40 MLOAD PUSH3 0x2098 CODESIZE SUB DUP1 PUSH3 0x2098 DUP4 CODECOPY DUP2 DUP2 ADD PUSH1 0x40 MSTORE DUP2 ADD SWAP1 PUSH3 0x37 SWAP2 SWAP1 PUSH3 0x145 JUMP JUMPDEST DUP2 DUP2 PUSH1 0x40 MLOAD PUSH3 0x47 SWAP1 PUSH3 0xB9 JUMP JUMPDEST PUSH3 0x54 SWAP3 SWAP2 SWAP1 PUSH3 0x20B JUMP JUMPDEST PUSH1 0x40 MLOAD DUP1 SWAP2 SUB SWAP1 PUSH1 0x0 CREATE DUP1 ISZERO DUP1 ISZERO PUSH3 0x71 JUMPI RETURNDATASIZE PUSH1 0x0 DUP1 RETURNDATACOPY RETURNDATASIZE PUSH1 0x0 REVERT JUMPDEST POP PUSH1 0x0 DUP1 PUSH2 0x100 EXP DUP2 SLOAD DUP2 PUSH20 0xFFFFFFFFFFFFFFFFFFFFFFFFFFFFFFFFFFFFFFFF MUL NOT AND SWAP1 DUP4 PUSH20 0xFFFFFFFFFFFFFFFFFFFFFFFFFFFFFFFFFFFFFFFF AND MUL OR SWAP1 SSTORE POP POP POP PUSH3 0x381 JUMP JUMPDEST PUSH2 0x17CF DUP1 PUSH3 0x8C9 DUP4 CODECOPY ADD SWAP1 JUMP JUMPDEST PUSH1 0x0 PUSH3 0xDE PUSH3 0xD8 DUP5 PUSH3 0x26F JUMP JUMPDEST PUSH3 0x246 JUMP JUMPDEST SWAP1 POP DUP3 DUP2 MSTORE PUSH1 0x20 DUP2 ADD DUP5 DUP5 DUP5 ADD GT ISZERO PUSH3 0xFD JUMPI PUSH3 0xFC PUSH3 0x361 JUMP JUMPDEST JUMPDEST PUSH3 0x10A DUP5 DUP3 DUP6 PUSH3 0x2C1 JUMP JUMPDEST POP SWAP4 SWAP3 POP POP POP JUMP JUMPDEST PUSH1 0x0 DUP3 PUSH1 0x1F DUP4 ADD SLT PUSH3 0x12A JUMPI PUSH3 0x129 PUSH3 0x35C JUMP JUMPDEST JUMPDEST DUP2 MLOAD PUSH3 0x13C DUP5 DUP3 PUSH1 0x20 DUP7 ADD PUSH3 0xC7 JUMP JUMPDEST SWAP2 POP POP SWAP3 SWAP2 POP POP JUMP JUMPDEST PUSH1 0x0 DUP1 PUSH1 0x40 DUP4 DUP6 SUB SLT ISZERO PUSH3 0x15F JUMPI PUSH3 0x15E PUSH3 0x36B JUMP JUMPDEST JUMPDEST PUSH1 0x0 DUP4 ADD MLOAD PUSH8 0xFFFFFFFFFFFFFFFF DUP2 GT ISZERO PUSH3 0x180 JUMPI PUSH3 0x17F PUSH3 0x366 JUMP JUMPDEST JUMPDEST PUSH3 0x18E DUP6 DUP3 DUP7 ADD PUSH3 0x112 JUMP JUMPDEST SWAP3 POP POP PUSH1 0x20 DUP4 ADD MLOAD PUSH8 0xFFFFFFFFFFFFFFFF DUP2 GT ISZERO PUSH3 0x1B2 JUMPI PUSH3 0x1B1 PUSH3 0x366 JUMP JUMPDEST JUMPDEST PUSH3 0x1C0 DUP6 DUP3 DUP7 ADD PUSH3 0x112 JUMP JUMPDEST SWAP2 POP POP SWAP3 POP SWAP3 SWAP1 POP JUMP JUMPDEST PUSH1 0x0 PUSH3 0x1D7 DUP3 PUSH3 0x2A5 JUMP JUMPDEST PUSH3 0x1E3 DUP2 DUP6 PUSH3 0x2B0 JUMP JUMPDEST SWAP4 POP PUSH3 0x1F5 DUP2 DUP6 PUSH1 0x20 DUP7 ADD PUSH3 0x2C1 JUMP JUMPDEST PUSH3 0x200 DUP2 PUSH3 0x370 JUMP JUMPDEST DUP5 ADD SWAP2 POP POP SWAP3 SWAP2 POP POP JUMP JUMPDEST PUSH1 0x0 PUSH1 0x40 DUP3 ADD SWAP1 POP DUP2 DUP2 SUB PUSH1 0x0 DUP4 ADD MSTORE PUSH3 0x227 DUP2 DUP6 PUSH3 0x1CA JUMP JUMPDEST SWAP1 POP DUP2 DUP2 SUB PUSH1 0x20 DUP4 ADD MSTORE PUSH3 0x23D DUP2 DUP5 PUSH3 0x1CA JUMP JUMPDEST SWAP1 POP SWAP4 SWAP3 POP POP POP JUMP JUMPDEST PUSH1 0x0 PUSH3 0x252 PUSH3 0x265 JUMP JUMPDEST SWAP1 POP PUSH3 0x260 DUP3 DUP3 PUSH3 0x2F7 JUMP JUMPDEST SWAP2 SWAP1 POP JUMP JUMPDEST PUSH1 0x0 PUSH1 0x40 MLOAD SWAP1 POP SWAP1 JUMP JUMPDEST PUSH1 0x0 PUSH8 0xFFFFFFFFFFFFFFFF DUP3 GT ISZERO PUSH3 0x28D JUMPI PUSH3 0x28C PUSH3 0x32D JUMP JUMPDEST JUMPDEST PUSH3 0x298 DUP3 PUSH3 0x370 JUMP JUMPDEST SWAP1 POP PUSH1 0x20 DUP2 ADD SWAP1 POP SWAP2 SWAP1 POP JUMP JUMPDEST PUSH1 0x0 DUP2 MLOAD SWAP1 POP SWAP2 SWAP1 POP JUMP JUMPDEST PUSH1 0x0 DUP3 DUP3 MSTORE PUSH1 0x20 DUP3 ADD SWAP1 POP SWAP3 SWAP2 POP POP JUMP JUMPDEST PUSH1 0x0 JUMPDEST DUP4 DUP2 LT ISZERO PUSH3 0x2E1 JUMPI DUP1 DUP3 ADD MLOAD DUP2 DUP5 ADD MSTORE PUSH1 0x20 DUP2 ADD SWAP1 POP PUSH3 0x2C4 JUMP JUMPDEST DUP4 DUP2 GT ISZERO PUSH3 0x2F1 JUMPI PUSH1 0x0 DUP5 DUP5 ADD MSTORE JUMPDEST POP POP POP POP JUMP JUMPDEST PUSH3 0x302 DUP3 PUSH3 0x370 JUMP JUMPDEST DUP2 ADD DUP2 DUP2 LT PUSH8 0xFFFFFFFFFFFFFFFF DUP3 GT OR ISZERO PUSH3 0x324 JUMPI PUSH3 0x323 PUSH3 0x32D JUMP JUMPDEST JUMPDEST DUP1 PUSH1 0x40 MSTORE POP POP POP JUMP JUMPDEST PUSH32 0x4E487B7100000000000000000000000000000000000000000000000000000000 PUSH1 0x0 MSTORE PUSH1 0x41 PUSH1 0x4 MSTORE PUSH1 0x24 PUSH1 0x0 REVERT JUMPDEST PUSH1 0x0 DUP1 REVERT JUMPDEST PUSH1 0x0 DUP1 REVERT JUMPDEST PUSH1 0x0 DUP1 REVERT JUMPDEST PUSH1 0x0 DUP1 REVERT JUMPDEST PUSH1 0x0 PUSH1 0x1F NOT PUSH1 0x1F DUP4 ADD AND SWAP1 POP SWAP2 SWAP1 POP JUMP JUMPDEST PUSH2 0x538 DUP1 PUSH3 0x391 PUSH1 0x0 CODECOPY PUSH1 0x0 RETURN INVALID PUSH1 0x80 PUSH1 0x40 MSTORE PUSH1 0x4 CALLDATASIZE LT PUSH2 0x38 JUMPI PUSH1 0x0 CALLDATALOAD PUSH1 0xE0 SHR DUP1 PUSH4 0xD18A42E1 EQ PUSH2 0x4C JUMPI DUP1 PUSH4 0xE9BA77FB EQ PUSH2 0x89 JUMPI DUP1 PUSH4 0xFC0C546A EQ PUSH2 0x93 JUMPI PUSH2 0x47 JUMP JUMPDEST CALLDATASIZE PUSH2 0x47 JUMPI PUSH2 0x45 PUSH2 0xBE JUMP JUMPDEST STOP JUMPDEST PUSH1 0x0 DUP1 REVERT JUMPDEST CALLVALUE DUP1 ISZERO PUSH2 0x58 JUMPI PUSH1 0x0 DUP1 REVERT JUMPDEST POP PUSH2 0x73 PUSH1 0x4 DUP1 CALLDATASIZE SUB DUP2 ADD SWAP1 PUSH2 0x6E SWAP2 SWAP1 PUSH2 0x2D1 JUMP JUMPDEST PUSH2 0x26B JUMP JUMPDEST PUSH1 0x40 MLOAD PUSH2 0x80 SWAP2 SWAP1 PUSH2 0x38E JUMP JUMPDEST PUSH1 0x40 MLOAD DUP1 SWAP2 SUB SWAP1 RETURN JUMPDEST PUSH2 0x91 PUSH2 0xBE JUMP JUMPDEST STOP JUMPDEST CALLVALUE DUP1 ISZERO PUSH2 0x9F JUMPI PUSH1 0x0 DUP1 REVERT JUMPDEST POP PUSH2 0xA8 PUSH2 0x283 JUMP JUMPDEST PUSH1 0x40 MLOAD PUSH2 0xB5 SWAP2 SWAP1 PUSH2 0x373 JUMP JUMPDEST PUSH1 0x40 MLOAD DUP1 SWAP2 SUB SWAP1 RETURN JUMPDEST PUSH1 0x1 PUSH1 0x0 CALLER PUSH20 0xFFFFFFFFFFFFFFFFFFFFFFFFFFFFFFFFFFFFFFFF AND PUSH20 0xFFFFFFFFFFFFFFFFFFFFFFFFFFFFFFFFFFFFFFFF AND DUP2 MSTORE PUSH1 0x20 ADD SWAP1 DUP2 MSTORE PUSH1 0x20 ADD PUSH1 0x0 KECCAK256 SLOAD CALLVALUE PUSH1 0x1 PUSH1 0x0 CALLER PUSH20 0xFFFFFFFFFFFFFFFFFFFFFFFFFFFFFFFFFFFFFFFF AND PUSH20 0xFFFFFFFFFFFFFFFFFFFFFFFFFFFFFFFFFFFFFFFF AND DUP2 MSTORE PUSH1 0x20 ADD SWAP1 DUP2 MSTORE PUSH1 0x20 ADD PUSH1 0x0 KECCAK256 SLOAD PUSH2 0x149 SWAP2 SWAP1 PUSH2 0x3A9 JUMP JUMPDEST LT ISZERO PUSH2 0x158 JUMPI PUSH2 0x157 PUSH2 0x471 JUMP JUMPDEST JUMPDEST PUSH1 0x0 CALLVALUE SWAP1 POP PUSH1 0x0 CALLER SWAP1 POP PUSH1 0x0 DUP1 PUSH1 0x0 SWAP1 SLOAD SWAP1 PUSH2 0x100 EXP SWAP1 DIV PUSH20 0xFFFFFFFFFFFFFFFFFFFFFFFFFFFFFFFFFFFFFFFF AND PUSH20 0xFFFFFFFFFFFFFFFFFFFFFFFFFFFFFFFFFFFFFFFF AND PUSH4 0x70A08231 DUP4 PUSH1 0x40 MLOAD DUP3 PUSH4 0xFFFFFFFF AND PUSH1 0xE0 SHL DUP2 MSTORE PUSH1 0x4 ADD PUSH2 0x1BE SWAP2 SWAP1 PUSH2 0x358 JUMP JUMPDEST PUSH1 0x20 PUSH1 0x40 MLOAD DUP1 DUP4 SUB DUP2 DUP7 DUP1 EXTCODESIZE ISZERO DUP1 ISZERO PUSH2 0x1D6 JUMPI PUSH1 0x0 DUP1 REVERT JUMPDEST POP GAS STATICCALL ISZERO DUP1 ISZERO PUSH2 0x1EA JUMPI RETURNDATASIZE PUSH1 0x0 DUP1 RETURNDATACOPY RETURNDATASIZE PUSH1 0x0 REVERT JUMPDEST POP POP POP POP PUSH1 0x40 MLOAD RETURNDATASIZE PUSH1 0x1F NOT PUSH1 0x1F DUP3 ADD AND DUP3 ADD DUP1 PUSH1 0x40 MSTORE POP DUP2 ADD SWAP1 PUSH2 0x20E SWAP2 SWAP1 PUSH2 0x2FE JUMP JUMPDEST SWAP1 POP CALLVALUE PUSH1 0x1 PUSH1 0x0 CALLER PUSH20 0xFFFFFFFFFFFFFFFFFFFFFFFFFFFFFFFFFFFFFFFF AND PUSH20 0xFFFFFFFFFFFFFFFFFFFFFFFFFFFFFFFFFFFFFFFF AND DUP2 MSTORE PUSH1 0x20 ADD SWAP1 DUP2 MSTORE PUSH1 0x20 ADD PUSH1 0x0 KECCAK256 PUSH1 0x0 DUP3 DUP3 SLOAD PUSH2 0x25F SWAP2 SWAP1 PUSH2 0x3A9 JUMP JUMPDEST SWAP3 POP POP DUP2 SWAP1 SSTORE POP POP POP POP JUMP JUMPDEST PUSH1 0x1 PUSH1 0x20 MSTORE DUP1 PUSH1 0x0 MSTORE PUSH1 0x40 PUSH1 0x0 KECCAK256 PUSH1 0x0 SWAP2 POP SWAP1 POP SLOAD DUP2 JUMP JUMPDEST PUSH1 0x0 DUP1 SLOAD SWAP1 PUSH2 0x100 EXP SWAP1 DIV PUSH20 0xFFFFFFFFFFFFFFFFFFFFFFFFFFFFFFFFFFFFFFFF AND DUP2 JUMP JUMPDEST PUSH1 0x0 DUP2 CALLDATALOAD SWAP1 POP PUSH2 0x2B6 DUP2 PUSH2 0x4D4 JUMP JUMPDEST SWAP3 SWAP2 POP POP JUMP JUMPDEST PUSH1 0x0 DUP2 MLOAD SWAP1 POP PUSH2 0x2CB DUP2 PUSH2 0x4EB JUMP JUMPDEST SWAP3 SWAP2 POP POP JUMP JUMPDEST PUSH1 0x0 PUSH1 0x20 DUP3 DUP5 SUB SLT ISZERO PUSH2 0x2E7 JUMPI PUSH2 0x2E6 PUSH2 0x4CF JUMP JUMPDEST JUMPDEST PUSH1 0x0 PUSH2 0x2F5 DUP5 DUP3 DUP6 ADD PUSH2 0x2A7 JUMP JUMPDEST SWAP2 POP POP SWAP3 SWAP2 POP POP JUMP JUMPDEST PUSH1 0x0 PUSH1 0x20 DUP3 DUP5 SUB SLT ISZERO PUSH2 0x314 JUMPI PUSH2 0x313 PUSH2 0x4CF JUMP JUMPDEST JUMPDEST PUSH1 0x0 PUSH2 0x322 DUP5 DUP3 DUP6 ADD PUSH2 0x2BC JUMP JUMPDEST SWAP2 POP POP SWAP3 SWAP2 POP POP JUMP JUMPDEST PUSH2 0x334 DUP2 PUSH2 0x3FF JUMP JUMPDEST DUP3 MSTORE POP POP JUMP JUMPDEST PUSH2 0x343 DUP2 PUSH2 0x43B JUMP JUMPDEST DUP3 MSTORE POP POP JUMP JUMPDEST PUSH2 0x352 DUP2 PUSH2 0x431 JUMP JUMPDEST DUP3 MSTORE POP POP JUMP JUMPDEST PUSH1 0x0 PUSH1 0x20 DUP3 ADD SWAP1 POP PUSH2 0x36D PUSH1 0x0 DUP4 ADD DUP5 PUSH2 0x32B JUMP JUMPDEST SWAP3 SWAP2 POP POP JUMP JUMPDEST PUSH1 0x0 PUSH1 0x20 DUP3 ADD SWAP1 POP PUSH2 0x388 PUSH1 0x0 DUP4 ADD DUP5 PUSH2 0x33A JUMP JUMPDEST SWAP3 SWAP2 POP POP JUMP JUMPDEST PUSH1 0x0 PUSH1 0x20 DUP3 ADD SWAP1 POP PUSH2 0x3A3 PUSH1 0x0 DUP4 ADD DUP5 PUSH2 0x349 JUMP JUMPDEST SWAP3 SWAP2 POP POP JUMP JUMPDEST PUSH1 0x0 PUSH2 0x3B4 DUP3 PUSH2 0x431 JUMP JUMPDEST SWAP2 POP PUSH2 0x3BF DUP4 PUSH2 0x431 JUMP JUMPDEST SWAP3 POP DUP3 PUSH32 0xFFFFFFFFFFFFFFFFFFFFFFFFFFFFFFFFFFFFFFFFFFFFFFFFFFFFFFFFFFFFFFFF SUB DUP3 GT ISZERO PUSH2 0x3F4 JUMPI PUSH2 0x3F3 PUSH2 0x4A0 JUMP JUMPDEST JUMPDEST DUP3 DUP3 ADD SWAP1 POP SWAP3 SWAP2 POP POP JUMP JUMPDEST PUSH1 0x0 PUSH2 0x40A DUP3 PUSH2 0x411 JUMP JUMPDEST SWAP1 POP SWAP2 SWAP1 POP JUMP JUMPDEST PUSH1 0x0 PUSH20 0xFFFFFFFFFFFFFFFFFFFFFFFFFFFFFFFFFFFFFFFF DUP3 AND SWAP1 POP SWAP2 SWAP1 POP JUMP JUMPDEST PUSH1 0x0 DUP2 SWAP1 POP SWAP2 SWAP1 POP JUMP JUMPDEST PUSH1 0x0 PUSH2 0x446 DUP3 PUSH2 0x44D JUMP JUMPDEST SWAP1 POP SWAP2 SWAP1 POP JUMP JUMPDEST PUSH1 0x0 PUSH2 0x458 DUP3 PUSH2 0x45F JUMP JUMPDEST SWAP1 POP SWAP2 SWAP1 POP JUMP JUMPDEST PUSH1 0x0 PUSH2 0x46A DUP3 PUSH2 0x411 JUMP JUMPDEST SWAP1 POP SWAP2 SWAP1 POP JUMP JUMPDEST PUSH32 0x4E487B7100000000000000000000000000000000000000000000000000000000 PUSH1 0x0 MSTORE PUSH1 0x1 PUSH1 0x4 MSTORE PUSH1 0x24 PUSH1 0x0 REVERT JUMPDEST PUSH32 0x4E487B7100000000000000000000000000000000000000000000000000000000 PUSH1 0x0 MSTORE PUSH1 0x11 PUSH1 0x4 MSTORE PUSH1 0x24 PUSH1 0x0 REVERT JUMPDEST PUSH1 0x0 DUP1 REVERT JUMPDEST PUSH2 0x4DD DUP2 PUSH2 0x3FF JUMP JUMPDEST DUP2 EQ PUSH2 0x4E8 JUMPI PUSH1 0x0 DUP1 REVERT JUMPDEST POP JUMP JUMPDEST PUSH2 0x4F4 DUP2 PUSH2 0x431 JUMP JUMPDEST DUP2 EQ PUSH2 0x4FF JUMPI PUSH1 0x0 DUP1 REVERT JUMPDEST POP JUMP INVALID LOG2 PUSH5 0x6970667358 0x22 SLT KECCAK256 0xC5 0x2B 0xB9 0xB5 ISZERO SWAP10 BASEFEE DUP10 0xF6 SGT PUSH7 0xAFCB1439EE88D0 MSTORE CALLDATALOAD SWAP7 0xF7 0x5F ORIGIN PUSH30 0xCA3DCA2ECB2C1864736F6C63430008070033608060405234801562000011 JUMPI PUSH1 0x0 DUP1 REVERT JUMPDEST POP PUSH1 0x40 MLOAD PUSH3 0x17CF CODESIZE SUB DUP1 PUSH3 0x17CF DUP4 CODECOPY DUP2 DUP2 ADD PUSH1 0x40 MSTORE DUP2 ADD SWAP1 PUSH3 0x37 SWAP2 SWAP1 PUSH3 0x19F JUMP JUMPDEST DUP2 PUSH1 0x3 SWAP1 DUP1 MLOAD SWAP1 PUSH1 0x20 ADD SWAP1 PUSH3 0x4F SWAP3 SWAP2 SWAP1 PUSH3 0x71 JUMP JUMPDEST POP DUP1 PUSH1 0x4 SWAP1 DUP1 MLOAD SWAP1 PUSH1 0x20 ADD SWAP1 PUSH3 0x68 SWAP3 SWAP2 SWAP1 PUSH3 0x71 JUMP JUMPDEST POP POP POP PUSH3 0x3A8 JUMP JUMPDEST DUP3 DUP1 SLOAD PUSH3 0x7F SWAP1 PUSH3 0x2B9 JUMP JUMPDEST SWAP1 PUSH1 0x0 MSTORE PUSH1 0x20 PUSH1 0x0 KECCAK256 SWAP1 PUSH1 0x1F ADD PUSH1 0x20 SWAP1 DIV DUP2 ADD SWAP3 DUP3 PUSH3 0xA3 JUMPI PUSH1 0x0 DUP6 SSTORE PUSH3 0xEF JUMP JUMPDEST DUP3 PUSH1 0x1F LT PUSH3 0xBE JUMPI DUP1 MLOAD PUSH1 0xFF NOT AND DUP4 DUP1 ADD OR DUP6 SSTORE PUSH3 0xEF JUMP JUMPDEST DUP3 DUP1 ADD PUSH1 0x1 ADD DUP6 SSTORE DUP3 ISZERO PUSH3 0xEF JUMPI SWAP2 DUP3 ADD JUMPDEST DUP3 DUP2 GT ISZERO PUSH3 0xEE JUMPI DUP3 MLOAD DUP3 SSTORE SWAP2 PUSH1 0x20 ADD SWAP2 SWAP1 PUSH1 0x1 ADD SWAP1 PUSH3 0xD1 JUMP JUMPDEST JUMPDEST POP SWAP1 POP PUSH3 0xFE SWAP2 SWAP1 PUSH3 0x102 JUMP JUMPDEST POP SWAP1 JUMP JUMPDEST JUMPDEST DUP1 DUP3 GT ISZERO PUSH3 0x11D JUMPI PUSH1 0x0 DUP2 PUSH1 0x0 SWAP1 SSTORE POP PUSH1 0x1 ADD PUSH3 0x103 JUMP JUMPDEST POP SWAP1 JUMP JUMPDEST PUSH1 0x0 PUSH3 0x138 PUSH3 0x132 DUP5 PUSH3 0x24D JUMP JUMPDEST PUSH3 0x224 JUMP JUMPDEST SWAP1 POP DUP3 DUP2 MSTORE PUSH1 0x20 DUP2 ADD DUP5 DUP5 DUP5 ADD GT ISZERO PUSH3 0x157 JUMPI PUSH3 0x156 PUSH3 0x388 JUMP JUMPDEST JUMPDEST PUSH3 0x164 DUP5 DUP3 DUP6 PUSH3 0x283 JUMP JUMPDEST POP SWAP4 SWAP3 POP POP POP JUMP JUMPDEST PUSH1 0x0 DUP3 PUSH1 0x1F DUP4 ADD SLT PUSH3 0x184 JUMPI PUSH3 0x183 PUSH3 0x383 JUMP JUMPDEST JUMPDEST DUP2 MLOAD PUSH3 0x196 DUP5 DUP3 PUSH1 0x20 DUP7 ADD PUSH3 0x121 JUMP JUMPDEST SWAP2 POP POP SWAP3 SWAP2 POP POP JUMP JUMPDEST PUSH1 0x0 DUP1 PUSH1 0x40 DUP4 DUP6 SUB SLT ISZERO PUSH3 0x1B9 JUMPI PUSH3 0x1B8 PUSH3 0x392 JUMP JUMPDEST JUMPDEST PUSH1 0x0 DUP4 ADD MLOAD PUSH8 0xFFFFFFFFFFFFFFFF DUP2 GT ISZERO PUSH3 0x1DA JUMPI PUSH3 0x1D9 PUSH3 0x38D JUMP JUMPDEST JUMPDEST PUSH3 0x1E8 DUP6 DUP3 DUP7 ADD PUSH3 0x16C JUMP JUMPDEST SWAP3 POP POP PUSH1 0x20 DUP4 ADD MLOAD PUSH8 0xFFFFFFFFFFFFFFFF DUP2 GT ISZERO PUSH3 0x20C JUMPI PUSH3 0x20B PUSH3 0x38D JUMP JUMPDEST JUMPDEST PUSH3 0x21A DUP6 DUP3 DUP7 ADD PUSH3 0x16C JUMP JUMPDEST SWAP2 POP POP SWAP3 POP SWAP3 SWAP1 POP JUMP JUMPDEST PUSH1 0x0 PUSH3 0x230 PUSH3 0x243 JUMP JUMPDEST SWAP1 POP PUSH3 0x23E DUP3 DUP3 PUSH3 0x2EF JUMP JUMPDEST SWAP2 SWAP1 POP JUMP JUMPDEST PUSH1 0x0 PUSH1 0x40 MLOAD SWAP1 POP SWAP1 JUMP JUMPDEST PUSH1 0x0 PUSH8 0xFFFFFFFFFFFFFFFF DUP3 GT ISZERO PUSH3 0x26B JUMPI PUSH3 0x26A PUSH3 0x354 JUMP JUMPDEST JUMPDEST PUSH3 0x276 DUP3 PUSH3 0x397 JUMP JUMPDEST SWAP1 POP PUSH1 0x20 DUP2 ADD SWAP1 POP SWAP2 SWAP1 POP JUMP JUMPDEST PUSH1 0x0 JUMPDEST DUP4 DUP2 LT ISZERO PUSH3 0x2A3 JUMPI DUP1 DUP3 ADD MLOAD DUP2 DUP5 ADD MSTORE PUSH1 0x20 DUP2 ADD SWAP1 POP PUSH3 0x286 JUMP JUMPDEST DUP4 DUP2 GT ISZERO PUSH3 0x2B3 JUMPI PUSH1 0x0 DUP5 DUP5 ADD MSTORE JUMPDEST POP POP POP POP JUMP JUMPDEST PUSH1 0x0 PUSH1 0x2 DUP3 DIV SWAP1 POP PUSH1 0x1 DUP3 AND DUP1 PUSH3 0x2D2 JUMPI PUSH1 0x7F DUP3 AND SWAP2 POP JUMPDEST PUSH1 0x20 DUP3 LT DUP2 EQ ISZERO PUSH3 0x2E9 JUMPI PUSH3 0x2E8 PUSH3 0x325 JUMP JUMPDEST JUMPDEST POP SWAP2 SWAP1 POP JUMP JUMPDEST PUSH3 0x2FA DUP3 PUSH3 0x397 JUMP JUMPDEST DUP2 ADD DUP2 DUP2 LT PUSH8 0xFFFFFFFFFFFFFFFF DUP3 GT OR ISZERO PUSH3 0x31C JUMPI PUSH3 0x31B PUSH3 0x354 JUMP JUMPDEST JUMPDEST DUP1 PUSH1 0x40 MSTORE POP POP POP JUMP JUMPDEST PUSH32 0x4E487B7100000000000000000000000000000000000000000000000000000000 PUSH1 0x0 MSTORE PUSH1 0x22 PUSH1 0x4 MSTORE PUSH1 0x24 PUSH1 0x0 REVERT JUMPDEST PUSH32 0x4E487B7100000000000000000000000000000000000000000000000000000000 PUSH1 0x0 MSTORE PUSH1 0x41 PUSH1 0x4 MSTORE PUSH1 0x24 PUSH1 0x0 REVERT JUMPDEST PUSH1 0x0 DUP1 REVERT JUMPDEST PUSH1 0x0 DUP1 REVERT JUMPDEST PUSH1 0x0 DUP1 REVERT JUMPDEST PUSH1 0x0 DUP1 REVERT JUMPDEST PUSH1 0x0 PUSH1 0x1F NOT PUSH1 0x1F DUP4 ADD AND SWAP1 POP SWAP2 SWAP1 POP JUMP JUMPDEST PUSH2 0x1417 DUP1 PUSH3 0x3B8 PUSH1 0x0 CODECOPY PUSH1 0x0 RETURN INVALID PUSH1 0x80 PUSH1 0x40 MSTORE CALLVALUE DUP1 ISZERO PUSH2 0x10 JUMPI PUSH1 0x0 DUP1 REVERT JUMPDEST POP PUSH1 0x4 CALLDATASIZE LT PUSH2 0xA9 JUMPI PUSH1 0x0 CALLDATALOAD PUSH1 0xE0 SHR DUP1 PUSH4 0x39509351 GT PUSH2 0x71 JUMPI DUP1 PUSH4 0x39509351 EQ PUSH2 0x168 JUMPI DUP1 PUSH4 0x70A08231 EQ PUSH2 0x198 JUMPI DUP1 PUSH4 0x95D89B41 EQ PUSH2 0x1C8 JUMPI DUP1 PUSH4 0xA457C2D7 EQ PUSH2 0x1E6 JUMPI DUP1 PUSH4 0xA9059CBB EQ PUSH2 0x216 JUMPI DUP1 PUSH4 0xDD62ED3E EQ PUSH2 0x246 JUMPI PUSH2 0xA9 JUMP JUMPDEST DUP1 PUSH4 0x6FDDE03 EQ PUSH2 0xAE JUMPI DUP1 PUSH4 0x95EA7B3 EQ PUSH2 0xCC JUMPI DUP1 PUSH4 0x18160DDD EQ PUSH2 0xFC JUMPI DUP1 PUSH4 0x23B872DD EQ PUSH2 0x11A JUMPI DUP1 PUSH4 0x313CE567 EQ PUSH2 0x14A JUMPI JUMPDEST PUSH1 0x0 DUP1 REVERT JUMPDEST PUSH2 0xB6 PUSH2 0x276 JUMP JUMPDEST PUSH1 0x40 MLOAD PUSH2 0xC3 SWAP2 SWAP1 PUSH2 0xE55 JUMP JUMPDEST PUSH1 0x40 MLOAD DUP1 SWAP2 SUB SWAP1 RETURN JUMPDEST PUSH2 0xE6 PUSH1 0x4 DUP1 CALLDATASIZE SUB DUP2 ADD SWAP1 PUSH2 0xE1 SWAP2 SWAP1 PUSH2 0xC9F JUMP JUMPDEST PUSH2 0x308 JUMP JUMPDEST PUSH1 0x40 MLOAD PUSH2 0xF3 SWAP2 SWAP1 PUSH2 0xE3A JUMP JUMPDEST PUSH1 0x40 MLOAD DUP1 SWAP2 SUB SWAP1 RETURN JUMPDEST PUSH2 0x104 PUSH2 0x31F JUMP JUMPDEST PUSH1 0x40 MLOAD PUSH2 0x111 SWAP2 SWAP1 PUSH2 0xF57 JUMP JUMPDEST PUSH1 0x40 MLOAD DUP1 SWAP2 SUB SWAP1 RETURN JUMPDEST PUSH2 0x134 PUSH1 0x4 DUP1 CALLDATASIZE SUB DUP2 ADD SWAP1 PUSH2 0x12F SWAP2 SWAP1 PUSH2 0xC4C JUMP JUMPDEST PUSH2 0x329 JUMP JUMPDEST PUSH1 0x40 MLOAD PUSH2 0x141 SWAP2 SWAP1 PUSH2 0xE3A JUMP JUMPDEST PUSH1 0x40 MLOAD DUP1 SWAP2 SUB SWAP1 RETURN JUMPDEST PUSH2 0x152 PUSH2 0x41C JUMP JUMPDEST PUSH1 0x40 MLOAD PUSH2 0x15F SWAP2 SWAP1 PUSH2 0xF72 JUMP JUMPDEST PUSH1 0x40 MLOAD DUP1 SWAP2 SUB SWAP1 RETURN JUMPDEST PUSH2 0x182 PUSH1 0x4 DUP1 CALLDATASIZE SUB DUP2 ADD SWAP1 PUSH2 0x17D SWAP2 SWAP1 PUSH2 0xC9F JUMP JUMPDEST PUSH2 0x425 JUMP JUMPDEST PUSH1 0x40 MLOAD PUSH2 0x18F SWAP2 SWAP1 PUSH2 0xE3A JUMP JUMPDEST PUSH1 0x40 MLOAD DUP1 SWAP2 SUB SWAP1 RETURN JUMPDEST PUSH2 0x1B2 PUSH1 0x4 DUP1 CALLDATASIZE SUB DUP2 ADD SWAP1 PUSH2 0x1AD SWAP2 SWAP1 PUSH2 0xB9F JUMP JUMPDEST PUSH2 0x4C3 JUMP JUMPDEST PUSH1 0x40 MLOAD PUSH2 0x1BF SWAP2 SWAP1 PUSH2 0xF57 JUMP JUMPDEST PUSH1 0x40 MLOAD DUP1 SWAP2 SUB SWAP1 RETURN JUMPDEST PUSH2 0x1D0 PUSH2 0x50B JUMP JUMPDEST PUSH1 0x40 MLOAD PUSH2 0x1DD SWAP2 SWAP1 PUSH2 0xE55 JUMP JUMPDEST PUSH1 0x40 MLOAD DUP1 SWAP2 SUB SWAP1 RETURN JUMPDEST PUSH2 0x200 PUSH1 0x4 DUP1 CALLDATASIZE SUB DUP2 ADD SWAP1 PUSH2 0x1FB SWAP2 SWAP1 PUSH2 0xC9F JUMP JUMPDEST PUSH2 0x59D JUMP JUMPDEST PUSH1 0x40 MLOAD PUSH2 0x20D SWAP2 SWAP1 PUSH2 0xE3A JUMP JUMPDEST PUSH1 0x40 MLOAD DUP1 SWAP2 SUB SWAP1 RETURN JUMPDEST PUSH2 0x230 PUSH1 0x4 DUP1 CALLDATASIZE SUB DUP2 ADD SWAP1 PUSH2 0x22B SWAP2 SWAP1 PUSH2 0xBCC JUMP JUMPDEST PUSH2 0x683 JUMP JUMPDEST PUSH1 0x40 MLOAD PUSH2 0x23D SWAP2 SWAP1 PUSH2 0xE3A JUMP JUMPDEST PUSH1 0x40 MLOAD DUP1 SWAP2 SUB SWAP1 RETURN JUMPDEST PUSH2 0x260 PUSH1 0x4 DUP1 CALLDATASIZE SUB DUP2 ADD SWAP1 PUSH2 0x25B SWAP2 SWAP1 PUSH2 0xC0C JUMP JUMPDEST PUSH2 0x69A JUMP JUMPDEST PUSH1 0x40 MLOAD PUSH2 0x26D SWAP2 SWAP1 PUSH2 0xF57 JUMP JUMPDEST PUSH1 0x40 MLOAD DUP1 SWAP2 SUB SWAP1 RETURN JUMPDEST PUSH1 0x60 PUSH1 0x3 DUP1 SLOAD PUSH2 0x285 SWAP1 PUSH2 0x10CD JUMP JUMPDEST DUP1 PUSH1 0x1F ADD PUSH1 0x20 DUP1 SWAP2 DIV MUL PUSH1 0x20 ADD PUSH1 0x40 MLOAD SWAP1 DUP2 ADD PUSH1 0x40 MSTORE DUP1 SWAP3 SWAP2 SWAP1 DUP2 DUP2 MSTORE PUSH1 0x20 ADD DUP3 DUP1 SLOAD PUSH2 0x2B1 SWAP1 PUSH2 0x10CD JUMP JUMPDEST DUP1 ISZERO PUSH2 0x2FE JUMPI DUP1 PUSH1 0x1F LT PUSH2 0x2D3 JUMPI PUSH2 0x100 DUP1 DUP4 SLOAD DIV MUL DUP4 MSTORE SWAP2 PUSH1 0x20 ADD SWAP2 PUSH2 0x2FE JUMP JUMPDEST DUP3 ADD SWAP2 SWAP1 PUSH1 0x0 MSTORE PUSH1 0x20 PUSH1 0x0 KECCAK256 SWAP1 JUMPDEST DUP2 SLOAD DUP2 MSTORE SWAP1 PUSH1 0x1 ADD SWAP1 PUSH1 0x20 ADD DUP1 DUP4 GT PUSH2 0x2E1 JUMPI DUP3 SWAP1 SUB PUSH1 0x1F AND DUP3 ADD SWAP2 JUMPDEST POP POP POP POP POP SWAP1 POP SWAP1 JUMP JUMPDEST PUSH1 0x0 PUSH2 0x315 CALLER DUP5 DUP5 PUSH2 0x721 JUMP JUMPDEST PUSH1 0x1 SWAP1 POP SWAP3 SWAP2 POP POP JUMP JUMPDEST PUSH1 0x0 PUSH1 0x2 SLOAD SWAP1 POP SWAP1 JUMP JUMPDEST PUSH1 0x0 PUSH2 0x336 DUP5 DUP5 DUP5 PUSH2 0x8EC JUMP JUMPDEST PUSH1 0x0 PUSH1 0x1 PUSH1 0x0 DUP7 PUSH20 0xFFFFFFFFFFFFFFFFFFFFFFFFFFFFFFFFFFFFFFFF AND PUSH20 0xFFFFFFFFFFFFFFFFFFFFFFFFFFFFFFFFFFFFFFFF AND DUP2 MSTORE PUSH1 0x20 ADD SWAP1 DUP2 MSTORE PUSH1 0x20 ADD PUSH1 0x0 KECCAK256 PUSH1 0x0 DUP6 PUSH20 0xFFFFFFFFFFFFFFFFFFFFFFFFFFFFFFFFFFFFFFFF AND PUSH20 0xFFFFFFFFFFFFFFFFFFFFFFFFFFFFFFFFFFFFFFFF AND DUP2 MSTORE PUSH1 0x20 ADD SWAP1 DUP2 MSTORE PUSH1 0x20 ADD PUSH1 0x0 KECCAK256 SLOAD SWAP1 POP DUP3 DUP2 LT ISZERO PUSH2 0x3FA JUMPI PUSH1 0x40 MLOAD PUSH32 0x8C379A000000000000000000000000000000000000000000000000000000000 DUP2 MSTORE PUSH1 0x4 ADD PUSH2 0x3F1 SWAP1 PUSH2 0xED7 JUMP JUMPDEST PUSH1 0x40 MLOAD DUP1 SWAP2 SUB SWAP1 REVERT JUMPDEST PUSH2 0x410 DUP6 DUP6 DUP6 DUP5 PUSH2 0x40B SWAP2 SWAP1 PUSH2 0xFFF JUMP JUMPDEST PUSH2 0x721 JUMP JUMPDEST PUSH1 0x1 SWAP2 POP POP SWAP4 SWAP3 POP POP POP JUMP JUMPDEST PUSH1 0x0 PUSH1 0x12 SWAP1 POP SWAP1 JUMP JUMPDEST PUSH1 0x0 PUSH2 0x4B9 CALLER DUP5 DUP5 PUSH1 0x1 PUSH1 0x0 CALLER PUSH20 0xFFFFFFFFFFFFFFFFFFFFFFFFFFFFFFFFFFFFFFFF AND PUSH20 0xFFFFFFFFFFFFFFFFFFFFFFFFFFFFFFFFFFFFFFFF AND DUP2 MSTORE PUSH1 0x20 ADD SWAP1 DUP2 MSTORE PUSH1 0x20 ADD PUSH1 0x0 KECCAK256 PUSH1 0x0 DUP9 PUSH20 0xFFFFFFFFFFFFFFFFFFFFFFFFFFFFFFFFFFFFFFFF AND PUSH20 0xFFFFFFFFFFFFFFFFFFFFFFFFFFFFFFFFFFFFFFFF AND DUP2 MSTORE PUSH1 0x20 ADD SWAP1 DUP2 MSTORE PUSH1 0x20 ADD PUSH1 0x0 KECCAK256 SLOAD PUSH2 0x4B4 SWAP2 SWAP1 PUSH2 0xFA9 JUMP JUMPDEST PUSH2 0x721 JUMP JUMPDEST PUSH1 0x1 SWAP1 POP SWAP3 SWAP2 POP POP JUMP JUMPDEST PUSH1 0x0 DUP1 PUSH1 0x0 DUP4 PUSH20 0xFFFFFFFFFFFFFFFFFFFFFFFFFFFFFFFFFFFFFFFF AND PUSH20 0xFFFFFFFFFFFFFFFFFFFFFFFFFFFFFFFFFFFFFFFF AND DUP2 MSTORE PUSH1 0x20 ADD SWAP1 DUP2 MSTORE PUSH1 0x20 ADD PUSH1 0x0 KECCAK256 SLOAD SWAP1 POP SWAP2 SWAP1 POP JUMP JUMPDEST PUSH1 0x60 PUSH1 0x4 DUP1 SLOAD PUSH2 0x51A SWAP1 PUSH2 0x10CD JUMP JUMPDEST DUP1 PUSH1 0x1F ADD PUSH1 0x20 DUP1 SWAP2 DIV MUL PUSH1 0x20 ADD PUSH1 0x40 MLOAD SWAP1 DUP2 ADD PUSH1 0x40 MSTORE DUP1 SWAP3 SWAP2 SWAP1 DUP2 DUP2 MSTORE PUSH1 0x20 ADD DUP3 DUP1 SLOAD PUSH2 0x546 SWAP1 PUSH2 0x10CD JUMP JUMPDEST DUP1 ISZERO PUSH2 0x593 JUMPI DUP1 PUSH1 0x1F LT PUSH2 0x568 JUMPI PUSH2 0x100 DUP1 DUP4 SLOAD DIV MUL DUP4 MSTORE SWAP2 PUSH1 0x20 ADD SWAP2 PUSH2 0x593 JUMP JUMPDEST DUP3 ADD SWAP2 SWAP1 PUSH1 0x0 MSTORE PUSH1 0x20 PUSH1 0x0 KECCAK256 SWAP1 JUMPDEST DUP2 SLOAD DUP2 MSTORE SWAP1 PUSH1 0x1 ADD SWAP1 PUSH1 0x20 ADD DUP1 DUP4 GT PUSH2 0x576 JUMPI DUP3 SWAP1 SUB PUSH1 0x1F AND DUP3 ADD SWAP2 JUMPDEST POP POP POP POP POP SWAP1 POP SWAP1 JUMP JUMPDEST PUSH1 0x0 DUP1 PUSH1 0x1 PUSH1 0x0 CALLER PUSH20 0xFFFFFFFFFFFFFFFFFFFFFFFFFFFFFFFFFFFFFFFF AND PUSH20 0xFFFFFFFFFFFFFFFFFFFFFFFFFFFFFFFFFFFFFFFF AND DUP2 MSTORE PUSH1 0x20 ADD SWAP1 DUP2 MSTORE PUSH1 0x20 ADD PUSH1 0x0 KECCAK256 PUSH1 0x0 DUP6 PUSH20 0xFFFFFFFFFFFFFFFFFFFFFFFFFFFFFFFFFFFFFFFF AND PUSH20 0xFFFFFFFFFFFFFFFFFFFFFFFFFFFFFFFFFFFFFFFF AND DUP2 MSTORE PUSH1 0x20 ADD SWAP1 DUP2 MSTORE PUSH1 0x20 ADD PUSH1 0x0 KECCAK256 SLOAD SWAP1 POP DUP3 DUP2 LT ISZERO PUSH2 0x662 JUMPI PUSH1 0x40 MLOAD PUSH32 0x8C379A000000000000000000000000000000000000000000000000000000000 DUP2 MSTORE PUSH1 0x4 ADD PUSH2 0x659 SWAP1 PUSH2 0xF37 JUMP JUMPDEST PUSH1 0x40 MLOAD DUP1 SWAP2 SUB SWAP1 REVERT JUMPDEST PUSH2 0x678 CALLER DUP6 DUP6 DUP5 PUSH2 0x673 SWAP2 SWAP1 PUSH2 0xFFF JUMP JUMPDEST PUSH2 0x721 JUMP JUMPDEST PUSH1 0x1 SWAP2 POP POP SWAP3 SWAP2 POP POP JUMP JUMPDEST PUSH1 0x0 PUSH2 0x690 CALLER DUP5 DUP5 PUSH2 0x8EC JUMP JUMPDEST PUSH1 0x1 SWAP1 POP SWAP3 SWAP2 POP POP JUMP JUMPDEST PUSH1 0x0 PUSH1 0x1 PUSH1 0x0 DUP5 PUSH20 0xFFFFFFFFFFFFFFFFFFFFFFFFFFFFFFFFFFFFFFFF AND PUSH20 0xFFFFFFFFFFFFFFFFFFFFFFFFFFFFFFFFFFFFFFFF AND DUP2 MSTORE PUSH1 0x20 ADD SWAP1 DUP2 MSTORE PUSH1 0x20 ADD PUSH1 0x0 KECCAK256 PUSH1 0x0 DUP4 PUSH20 0xFFFFFFFFFFFFFFFFFFFFFFFFFFFFFFFFFFFFFFFF AND PUSH20 0xFFFFFFFFFFFFFFFFFFFFFFFFFFFFFFFFFFFFFFFF AND DUP2 MSTORE PUSH1 0x20 ADD SWAP1 DUP2 MSTORE PUSH1 0x20 ADD PUSH1 0x0 KECCAK256 SLOAD SWAP1 POP SWAP3 SWAP2 POP POP JUMP JUMPDEST PUSH1 0x0 PUSH20 0xFFFFFFFFFFFFFFFFFFFFFFFFFFFFFFFFFFFFFFFF AND DUP4 PUSH20 0xFFFFFFFFFFFFFFFFFFFFFFFFFFFFFFFFFFFFFFFF AND EQ ISZERO PUSH2 0x791 JUMPI PUSH1 0x40 MLOAD PUSH32 0x8C379A000000000000000000000000000000000000000000000000000000000 DUP2 MSTORE PUSH1 0x4 ADD PUSH2 0x788 SWAP1 PUSH2 0xF17 JUMP JUMPDEST PUSH1 0x40 MLOAD DUP1 SWAP2 SUB SWAP1 REVERT JUMPDEST PUSH1 0x0 PUSH20 0xFFFFFFFFFFFFFFFFFFFFFFFFFFFFFFFFFFFFFFFF AND DUP3 PUSH20 0xFFFFFFFFFFFFFFFFFFFFFFFFFFFFFFFFFFFFFFFF AND EQ ISZERO PUSH2 0x801 JUMPI PUSH1 0x40 MLOAD PUSH32 0x8C379A000000000000000000000000000000000000000000000000000000000 DUP2 MSTORE PUSH1 0x4 ADD PUSH2 0x7F8 SWAP1 PUSH2 0xE97 JUMP JUMPDEST PUSH1 0x40 MLOAD DUP1 SWAP2 SUB SWAP1 REVERT JUMPDEST DUP1 PUSH1 0x1 PUSH1 0x0 DUP6 PUSH20 0xFFFFFFFFFFFFFFFFFFFFFFFFFFFFFFFFFFFFFFFF AND PUSH20 0xFFFFFFFFFFFFFFFFFFFFFFFFFFFFFFFFFFFFFFFF AND DUP2 MSTORE PUSH1 0x20 ADD SWAP1 DUP2 MSTORE PUSH1 0x20 ADD PUSH1 0x0 KECCAK256 PUSH1 0x0 DUP5 PUSH20 0xFFFFFFFFFFFFFFFFFFFFFFFFFFFFFFFFFFFFFFFF AND PUSH20 0xFFFFFFFFFFFFFFFFFFFFFFFFFFFFFFFFFFFFFFFF AND DUP2 MSTORE PUSH1 0x20 ADD SWAP1 DUP2 MSTORE PUSH1 0x20 ADD PUSH1 0x0 KECCAK256 DUP2 SWAP1 SSTORE POP DUP2 PUSH20 0xFFFFFFFFFFFFFFFFFFFFFFFFFFFFFFFFFFFFFFFF AND DUP4 PUSH20 0xFFFFFFFFFFFFFFFFFFFFFFFFFFFFFFFFFFFFFFFF AND PUSH32 0x8C5BE1E5EBEC7D5BD14F71427D1E84F3DD0314C0F7B2291E5B200AC8C7C3B925 DUP4 PUSH1 0x40 MLOAD PUSH2 0x8DF SWAP2 SWAP1 PUSH2 0xF57 JUMP JUMPDEST PUSH1 0x40 MLOAD DUP1 SWAP2 SUB SWAP1 LOG3 POP POP POP JUMP JUMPDEST PUSH1 0x0 PUSH20 0xFFFFFFFFFFFFFFFFFFFFFFFFFFFFFFFFFFFFFFFF AND DUP4 PUSH20 0xFFFFFFFFFFFFFFFFFFFFFFFFFFFFFFFFFFFFFFFF AND EQ ISZERO PUSH2 0x95C JUMPI PUSH1 0x40 MLOAD PUSH32 0x8C379A000000000000000000000000000000000000000000000000000000000 DUP2 MSTORE PUSH1 0x4 ADD PUSH2 0x953 SWAP1 PUSH2 0xEF7 JUMP JUMPDEST PUSH1 0x40 MLOAD DUP1 SWAP2 SUB SWAP1 REVERT JUMPDEST PUSH1 0x0 PUSH20 0xFFFFFFFFFFFFFFFFFFFFFFFFFFFFFFFFFFFFFFFF AND DUP3 PUSH20 0xFFFFFFFFFFFFFFFFFFFFFFFFFFFFFFFFFFFFFFFF AND EQ ISZERO PUSH2 0x9CC JUMPI PUSH1 0x40 MLOAD PUSH32 0x8C379A000000000000000000000000000000000000000000000000000000000 DUP2 MSTORE PUSH1 0x4 ADD PUSH2 0x9C3 SWAP1 PUSH2 0xE77 JUMP JUMPDEST PUSH1 0x40 MLOAD DUP1 SWAP2 SUB SWAP1 REVERT JUMPDEST PUSH1 0x0 DUP1 PUSH1 0x0 DUP6 PUSH20 0xFFFFFFFFFFFFFFFFFFFFFFFFFFFFFFFFFFFFFFFF AND PUSH20 0xFFFFFFFFFFFFFFFFFFFFFFFFFFFFFFFFFFFFFFFF AND DUP2 MSTORE PUSH1 0x20 ADD SWAP1 DUP2 MSTORE PUSH1 0x20 ADD PUSH1 0x0 KECCAK256 SLOAD SWAP1 POP DUP2 DUP2 LT ISZERO PUSH2 0xA52 JUMPI PUSH1 0x40 MLOAD PUSH32 0x8C379A000000000000000000000000000000000000000000000000000000000 DUP2 MSTORE PUSH1 0x4 ADD PUSH2 0xA49 SWAP1 PUSH2 0xEB7 JUMP JUMPDEST PUSH1 0x40 MLOAD DUP1 SWAP2 SUB SWAP1 REVERT JUMPDEST DUP2 DUP2 PUSH2 0xA5E SWAP2 SWAP1 PUSH2 0xFFF JUMP JUMPDEST PUSH1 0x0 DUP1 DUP7 PUSH20 0xFFFFFFFFFFFFFFFFFFFFFFFFFFFFFFFFFFFFFFFF AND PUSH20 0xFFFFFFFFFFFFFFFFFFFFFFFFFFFFFFFFFFFFFFFF AND DUP2 MSTORE PUSH1 0x20 ADD SWAP1 DUP2 MSTORE PUSH1 0x20 ADD PUSH1 0x0 KECCAK256 DUP2 SWAP1 SSTORE POP DUP2 PUSH1 0x0 DUP1 DUP6 PUSH20 0xFFFFFFFFFFFFFFFFFFFFFFFFFFFFFFFFFFFFFFFF AND PUSH20 0xFFFFFFFFFFFFFFFFFFFFFFFFFFFFFFFFFFFFFFFF AND DUP2 MSTORE PUSH1 0x20 ADD SWAP1 DUP2 MSTORE PUSH1 0x20 ADD PUSH1 0x0 KECCAK256 PUSH1 0x0 DUP3 DUP3 SLOAD PUSH2 0xAEE SWAP2 SWAP1 PUSH2 0xFA9 JUMP JUMPDEST SWAP3 POP POP DUP2 SWAP1 SSTORE POP DUP3 PUSH20 0xFFFFFFFFFFFFFFFFFFFFFFFFFFFFFFFFFFFFFFFF AND DUP5 PUSH20 0xFFFFFFFFFFFFFFFFFFFFFFFFFFFFFFFFFFFFFFFF AND PUSH32 0xDDF252AD1BE2C89B69C2B068FC378DAA952BA7F163C4A11628F55A4DF523B3EF DUP5 PUSH1 0x40 MLOAD PUSH2 0xB52 SWAP2 SWAP1 PUSH2 0xF57 JUMP JUMPDEST PUSH1 0x40 MLOAD DUP1 SWAP2 SUB SWAP1 LOG3 POP POP POP POP JUMP JUMPDEST PUSH1 0x0 DUP2 CALLDATALOAD SWAP1 POP PUSH2 0xB6F DUP2 PUSH2 0x139C JUMP JUMPDEST SWAP3 SWAP2 POP POP JUMP JUMPDEST PUSH1 0x0 DUP2 CALLDATALOAD SWAP1 POP PUSH2 0xB84 DUP2 PUSH2 0x13B3 JUMP JUMPDEST SWAP3 SWAP2 POP POP JUMP JUMPDEST PUSH1 0x0 DUP2 CALLDATALOAD SWAP1 POP PUSH2 0xB99 DUP2 PUSH2 0x13CA JUMP JUMPDEST SWAP3 SWAP2 POP POP JUMP JUMPDEST PUSH1 0x0 PUSH1 0x20 DUP3 DUP5 SUB SLT ISZERO PUSH2 0xBB5 JUMPI PUSH2 0xBB4 PUSH2 0x115D JUMP JUMPDEST JUMPDEST PUSH1 0x0 PUSH2 0xBC3 DUP5 DUP3 DUP6 ADD PUSH2 0xB60 JUMP JUMPDEST SWAP2 POP POP SWAP3 SWAP2 POP POP JUMP JUMPDEST PUSH1 0x0 DUP1 PUSH1 0x40 DUP4 DUP6 SUB SLT ISZERO PUSH2 0xBE3 JUMPI PUSH2 0xBE2 PUSH2 0x115D JUMP JUMPDEST JUMPDEST PUSH1 0x0 PUSH2 0xBF1 DUP6 DUP3 DUP7 ADD PUSH2 0xB75 JUMP JUMPDEST SWAP3 POP POP PUSH1 0x20 PUSH2 0xC02 DUP6 DUP3 DUP7 ADD PUSH2 0xB8A JUMP JUMPDEST SWAP2 POP POP SWAP3 POP SWAP3 SWAP1 POP JUMP JUMPDEST PUSH1 0x0 DUP1 PUSH1 0x40 DUP4 DUP6 SUB SLT ISZERO PUSH2 0xC23 JUMPI PUSH2 0xC22 PUSH2 0x115D JUMP JUMPDEST JUMPDEST PUSH1 0x0 PUSH2 0xC31 DUP6 DUP3 DUP7 ADD PUSH2 0xB60 JUMP JUMPDEST SWAP3 POP POP PUSH1 0x20 PUSH2 0xC42 DUP6 DUP3 DUP7 ADD PUSH2 0xB60 JUMP JUMPDEST SWAP2 POP POP SWAP3 POP SWAP3 SWAP1 POP JUMP JUMPDEST PUSH1 0x0 DUP1 PUSH1 0x0 PUSH1 0x60 DUP5 DUP7 SUB SLT ISZERO PUSH2 0xC65 JUMPI PUSH2 0xC64 PUSH2 0x115D JUMP JUMPDEST JUMPDEST PUSH1 0x0 PUSH2 0xC73 DUP7 DUP3 DUP8 ADD PUSH2 0xB60 JUMP JUMPDEST SWAP4 POP POP PUSH1 0x20 PUSH2 0xC84 DUP7 DUP3 DUP8 ADD PUSH2 0xB60 JUMP JUMPDEST SWAP3 POP POP PUSH1 0x40 PUSH2 0xC95 DUP7 DUP3 DUP8 ADD PUSH2 0xB8A JUMP JUMPDEST SWAP2 POP POP SWAP3 POP SWAP3 POP SWAP3 JUMP JUMPDEST PUSH1 0x0 DUP1 PUSH1 0x40 DUP4 DUP6 SUB SLT ISZERO PUSH2 0xCB6 JUMPI PUSH2 0xCB5 PUSH2 0x115D JUMP JUMPDEST JUMPDEST PUSH1 0x0 PUSH2 0xCC4 DUP6 DUP3 DUP7 ADD PUSH2 0xB60 JUMP JUMPDEST SWAP3 POP POP PUSH1 0x20 PUSH2 0xCD5 DUP6 DUP3 DUP7 ADD PUSH2 0xB8A JUMP JUMPDEST SWAP2 POP POP SWAP3 POP SWAP3 SWAP1 POP JUMP JUMPDEST PUSH2 0xCE8 DUP2 PUSH2 0x1057 JUMP JUMPDEST DUP3 MSTORE POP POP JUMP JUMPDEST PUSH1 0x0 PUSH2 0xCF9 DUP3 PUSH2 0xF8D JUMP JUMPDEST PUSH2 0xD03 DUP2 DUP6 PUSH2 0xF98 JUMP JUMPDEST SWAP4 POP PUSH2 0xD13 DUP2 DUP6 PUSH1 0x20 DUP7 ADD PUSH2 0x109A JUMP JUMPDEST PUSH2 0xD1C DUP2 PUSH2 0x1162 JUMP JUMPDEST DUP5 ADD SWAP2 POP POP SWAP3 SWAP2 POP POP JUMP JUMPDEST PUSH1 0x0 PUSH2 0xD34 PUSH1 0x23 DUP4 PUSH2 0xF98 JUMP JUMPDEST SWAP2 POP PUSH2 0xD3F DUP3 PUSH2 0x1173 JUMP JUMPDEST PUSH1 0x40 DUP3 ADD SWAP1 POP SWAP2 SWAP1 POP JUMP JUMPDEST PUSH1 0x0 PUSH2 0xD57 PUSH1 0x22 DUP4 PUSH2 0xF98 JUMP JUMPDEST SWAP2 POP PUSH2 0xD62 DUP3 PUSH2 0x11C2 JUMP JUMPDEST PUSH1 0x40 DUP3 ADD SWAP1 POP SWAP2 SWAP1 POP JUMP JUMPDEST PUSH1 0x0 PUSH2 0xD7A PUSH1 0x26 DUP4 PUSH2 0xF98 JUMP JUMPDEST SWAP2 POP PUSH2 0xD85 DUP3 PUSH2 0x1211 JUMP JUMPDEST PUSH1 0x40 DUP3 ADD SWAP1 POP SWAP2 SWAP1 POP JUMP JUMPDEST PUSH1 0x0 PUSH2 0xD9D PUSH1 0x28 DUP4 PUSH2 0xF98 JUMP JUMPDEST SWAP2 POP PUSH2 0xDA8 DUP3 PUSH2 0x1260 JUMP JUMPDEST PUSH1 0x40 DUP3 ADD SWAP1 POP SWAP2 SWAP1 POP JUMP JUMPDEST PUSH1 0x0 PUSH2 0xDC0 PUSH1 0x25 DUP4 PUSH2 0xF98 JUMP JUMPDEST SWAP2 POP PUSH2 0xDCB DUP3 PUSH2 0x12AF JUMP JUMPDEST PUSH1 0x40 DUP3 ADD SWAP1 POP SWAP2 SWAP1 POP JUMP JUMPDEST PUSH1 0x0 PUSH2 0xDE3 PUSH1 0x24 DUP4 PUSH2 0xF98 JUMP JUMPDEST SWAP2 POP PUSH2 0xDEE DUP3 PUSH2 0x12FE JUMP JUMPDEST PUSH1 0x40 DUP3 ADD SWAP1 POP SWAP2 SWAP1 POP JUMP JUMPDEST PUSH1 0x0 PUSH2 0xE06 PUSH1 0x25 DUP4 PUSH2 0xF98 JUMP JUMPDEST SWAP2 POP PUSH2 0xE11 DUP3 PUSH2 0x134D JUMP JUMPDEST PUSH1 0x40 DUP3 ADD SWAP1 POP SWAP2 SWAP1 POP JUMP JUMPDEST PUSH2 0xE25 DUP2 PUSH2 0x1083 JUMP JUMPDEST DUP3 MSTORE POP POP JUMP JUMPDEST PUSH2 0xE34 DUP2 PUSH2 0x108D JUMP JUMPDEST DUP3 MSTORE POP POP JUMP JUMPDEST PUSH1 0x0 PUSH1 0x20 DUP3 ADD SWAP1 POP PUSH2 0xE4F PUSH1 0x0 DUP4 ADD DUP5 PUSH2 0xCDF JUMP JUMPDEST SWAP3 SWAP2 POP POP JUMP JUMPDEST PUSH1 0x0 PUSH1 0x20 DUP3 ADD SWAP1 POP DUP2 DUP2 SUB PUSH1 0x0 DUP4 ADD MSTORE PUSH2 0xE6F DUP2 DUP5 PUSH2 0xCEE JUMP JUMPDEST SWAP1 POP SWAP3 SWAP2 POP POP JUMP JUMPDEST PUSH1 0x0 PUSH1 0x20 DUP3 ADD SWAP1 POP DUP2 DUP2 SUB PUSH1 0x0 DUP4 ADD MSTORE PUSH2 0xE90 DUP2 PUSH2 0xD27 JUMP JUMPDEST SWAP1 POP SWAP2 SWAP1 POP JUMP JUMPDEST PUSH1 0x0 PUSH1 0x20 DUP3 ADD SWAP1 POP DUP2 DUP2 SUB PUSH1 0x0 DUP4 ADD MSTORE PUSH2 0xEB0 DUP2 PUSH2 0xD4A JUMP JUMPDEST SWAP1 POP SWAP2 SWAP1 POP JUMP JUMPDEST PUSH1 0x0 PUSH1 0x20 DUP3 ADD SWAP1 POP DUP2 DUP2 SUB PUSH1 0x0 DUP4 ADD MSTORE PUSH2 0xED0 DUP2 PUSH2 0xD6D JUMP JUMPDEST SWAP1 POP SWAP2 SWAP1 POP JUMP JUMPDEST PUSH1 0x0 PUSH1 0x20 DUP3 ADD SWAP1 POP DUP2 DUP2 SUB PUSH1 0x0 DUP4 ADD MSTORE PUSH2 0xEF0 DUP2 PUSH2 0xD90 JUMP JUMPDEST SWAP1 POP SWAP2 SWAP1 POP JUMP JUMPDEST PUSH1 0x0 PUSH1 0x20 DUP3 ADD SWAP1 POP DUP2 DUP2 SUB PUSH1 0x0 DUP4 ADD MSTORE PUSH2 0xF10 DUP2 PUSH2 0xDB3 JUMP JUMPDEST SWAP1 POP SWAP2 SWAP1 POP JUMP JUMPDEST PUSH1 0x0 PUSH1 0x20 DUP3 ADD SWAP1 POP DUP2 DUP2 SUB PUSH1 0x0 DUP4 ADD MSTORE PUSH2 0xF30 DUP2 PUSH2 0xDD6 JUMP JUMPDEST SWAP1 POP SWAP2 SWAP1 POP JUMP JUMPDEST PUSH1 0x0 PUSH1 0x20 DUP3 ADD SWAP1 POP DUP2 DUP2 SUB PUSH1 0x0 DUP4 ADD MSTORE PUSH2 0xF50 DUP2 PUSH2 0xDF9 JUMP JUMPDEST SWAP1 POP SWAP2 SWAP1 POP JUMP JUMPDEST PUSH1 0x0 PUSH1 0x20 DUP3 ADD SWAP1 POP PUSH2 0xF6C PUSH1 0x0 DUP4 ADD DUP5 PUSH2 0xE1C JUMP JUMPDEST SWAP3 SWAP2 POP POP JUMP JUMPDEST PUSH1 0x0 PUSH1 0x20 DUP3 ADD SWAP1 POP PUSH2 0xF87 PUSH1 0x0 DUP4 ADD DUP5 PUSH2 0xE2B JUMP JUMPDEST SWAP3 SWAP2 POP POP JUMP JUMPDEST PUSH1 0x0 DUP2 MLOAD SWAP1 POP SWAP2 SWAP1 POP JUMP JUMPDEST PUSH1 0x0 DUP3 DUP3 MSTORE PUSH1 0x20 DUP3 ADD SWAP1 POP SWAP3 SWAP2 POP POP JUMP JUMPDEST PUSH1 0x0 PUSH2 0xFB4 DUP3 PUSH2 0x1083 JUMP JUMPDEST SWAP2 POP PUSH2 0xFBF DUP4 PUSH2 0x1083 JUMP JUMPDEST SWAP3 POP DUP3 PUSH32 0xFFFFFFFFFFFFFFFFFFFFFFFFFFFFFFFFFFFFFFFFFFFFFFFFFFFFFFFFFFFFFFFF SUB DUP3 GT ISZERO PUSH2 0xFF4 JUMPI PUSH2 0xFF3 PUSH2 0x10FF JUMP JUMPDEST JUMPDEST DUP3 DUP3 ADD SWAP1 POP SWAP3 SWAP2 POP POP JUMP JUMPDEST PUSH1 0x0 PUSH2 0x100A DUP3 PUSH2 0x1083 JUMP JUMPDEST SWAP2 POP PUSH2 0x1015 DUP4 PUSH2 0x1083 JUMP JUMPDEST SWAP3 POP DUP3 DUP3 LT ISZERO PUSH2 0x1028 JUMPI PUSH2 0x1027 PUSH2 0x10FF JUMP JUMPDEST JUMPDEST DUP3 DUP3 SUB SWAP1 POP SWAP3 SWAP2 POP POP JUMP JUMPDEST PUSH1 0x0 PUSH2 0x103E DUP3 PUSH2 0x1063 JUMP JUMPDEST SWAP1 POP SWAP2 SWAP1 POP JUMP JUMPDEST PUSH1 0x0 PUSH2 0x1050 DUP3 PUSH2 0x1063 JUMP JUMPDEST SWAP1 POP SWAP2 SWAP1 POP JUMP JUMPDEST PUSH1 0x0 DUP2 ISZERO ISZERO SWAP1 POP SWAP2 SWAP1 POP JUMP JUMPDEST PUSH1 0x0 PUSH20 0xFFFFFFFFFFFFFFFFFFFFFFFFFFFFFFFFFFFFFFFF DUP3 AND SWAP1 POP SWAP2 SWAP1 POP JUMP JUMPDEST PUSH1 0x0 DUP2 SWAP1 POP SWAP2 SWAP1 POP JUMP JUMPDEST PUSH1 0x0 PUSH1 0xFF DUP3 AND SWAP1 POP SWAP2 SWAP1 POP JUMP JUMPDEST PUSH1 0x0 JUMPDEST DUP4 DUP2 LT ISZERO PUSH2 0x10B8 JUMPI DUP1 DUP3 ADD MLOAD DUP2 DUP5 ADD MSTORE PUSH1 0x20 DUP2 ADD SWAP1 POP PUSH2 0x109D JUMP JUMPDEST DUP4 DUP2 GT ISZERO PUSH2 0x10C7 JUMPI PUSH1 0x0 DUP5 DUP5 ADD MSTORE JUMPDEST POP POP POP POP JUMP JUMPDEST PUSH1 0x0 PUSH1 0x2 DUP3 DIV SWAP1 POP PUSH1 0x1 DUP3 AND DUP1 PUSH2 0x10E5 JUMPI PUSH1 0x7F DUP3 AND SWAP2 POP JUMPDEST PUSH1 0x20 DUP3 LT DUP2 EQ ISZERO PUSH2 0x10F9 JUMPI PUSH2 0x10F8 PUSH2 0x112E JUMP JUMPDEST JUMPDEST POP SWAP2 SWAP1 POP JUMP JUMPDEST PUSH32 0x4E487B7100000000000000000000000000000000000000000000000000000000 PUSH1 0x0 MSTORE PUSH1 0x11 PUSH1 0x4 MSTORE PUSH1 0x24 PUSH1 0x0 REVERT JUMPDEST PUSH32 0x4E487B7100000000000000000000000000000000000000000000000000000000 PUSH1 0x0 MSTORE PUSH1 0x22 PUSH1 0x4 MSTORE PUSH1 0x24 PUSH1 0x0 REVERT JUMPDEST PUSH1 0x0 DUP1 REVERT JUMPDEST PUSH1 0x0 PUSH1 0x1F NOT PUSH1 0x1F DUP4 ADD AND SWAP1 POP SWAP2 SWAP1 POP JUMP JUMPDEST PUSH32 0x45524332303A207472616E7366657220746F20746865207A65726F2061646472 PUSH1 0x0 DUP3 ADD MSTORE PUSH32 0x6573730000000000000000000000000000000000000000000000000000000000 PUSH1 0x20 DUP3 ADD MSTORE POP JUMP JUMPDEST PUSH32 0x45524332303A20617070726F766520746F20746865207A65726F206164647265 PUSH1 0x0 DUP3 ADD MSTORE PUSH32 0x7373000000000000000000000000000000000000000000000000000000000000 PUSH1 0x20 DUP3 ADD MSTORE POP JUMP JUMPDEST PUSH32 0x45524332303A207472616E7366657220616D6F756E7420657863656564732062 PUSH1 0x0 DUP3 ADD MSTORE PUSH32 0x616C616E63650000000000000000000000000000000000000000000000000000 PUSH1 0x20 DUP3 ADD MSTORE POP JUMP JUMPDEST PUSH32 0x45524332303A207472616E7366657220616D6F756E7420657863656564732061 PUSH1 0x0 DUP3 ADD MSTORE PUSH32 0x6C6C6F77616E6365000000000000000000000000000000000000000000000000 PUSH1 0x20 DUP3 ADD MSTORE POP JUMP JUMPDEST PUSH32 0x45524332303A207472616E736665722066726F6D20746865207A65726F206164 PUSH1 0x0 DUP3 ADD MSTORE PUSH32 0x6472657373000000000000000000000000000000000000000000000000000000 PUSH1 0x20 DUP3 ADD MSTORE POP JUMP JUMPDEST PUSH32 0x45524332303A20617070726F76652066726F6D20746865207A65726F20616464 PUSH1 0x0 DUP3 ADD MSTORE PUSH32 0x7265737300000000000000000000000000000000000000000000000000000000 PUSH1 0x20 DUP3 ADD MSTORE POP JUMP JUMPDEST PUSH32 0x45524332303A2064656372656173656420616C6C6F77616E63652062656C6F77 PUSH1 0x0 DUP3 ADD MSTORE PUSH32 0x207A65726F000000000000000000000000000000000000000000000000000000 PUSH1 0x20 DUP3 ADD MSTORE POP JUMP JUMPDEST PUSH2 0x13A5 DUP2 PUSH2 0x1033 JUMP JUMPDEST DUP2 EQ PUSH2 0x13B0 JUMPI PUSH1 0x0 DUP1 REVERT JUMPDEST POP JUMP JUMPDEST PUSH2 0x13BC DUP2 PUSH2 0x1045 JUMP JUMPDEST DUP2 EQ PUSH2 0x13C7 JUMPI PUSH1 0x0 DUP1 REVERT JUMPDEST POP JUMP JUMPDEST PUSH2 0x13D3 DUP2 PUSH2 0x1083 JUMP JUMPDEST DUP2 EQ PUSH2 0x13DE JUMPI PUSH1 0x0 DUP1 REVERT JUMPDEST POP JUMP INVALID LOG2 PUSH5 0x6970667358 0x22 SLT KECCAK256 0xD9 SWAP12 0xFC PUSH15 0xBC98A9049764918E5E5559783FA66E 0x1F PUSH24 0x6E8A7EA667623B15DD63EC64736F6C634300080700330000 "
				},
				"gasEstimates": {
					"creation": {
						"codeDepositCost": "267200",
						"executionCost": "infinite",
						"totalCost": "infinite"
					},
					"external": {
						"balanceReceived(address)": "2792",
						"receiveToken()": "infinite",
						"token()": "2619"
					}
				},
				"methodIdentifiers": {
					"balanceReceived(address)": "d18a42e1",
					"receiveToken()": "e9ba77fb",
					"token()": "fc0c546a"
				}
			},
			"userdoc": {
				"kind": "user",
				"methods": {},
				"version": 1
			}
		}
	}
}