{
	"contracts/TokenSwap.sol": {
		"TokenSwap": {
			"abi": [
				{
					"inputs": [],
					"stateMutability": "nonpayable",
					"type": "constructor"
				},
				{
					"stateMutability": "payable",
					"type": "fallback"
				},
				{
					"inputs": [
						{
							"internalType": "address",
							"name": "_tokenFrom",
							"type": "address"
						},
						{
							"internalType": "address",
							"name": "_addressFrom",
							"type": "address"
						},
						{
							"internalType": "uint256",
							"name": "_amountFrom",
							"type": "uint256"
						},
						{
							"internalType": "address",
							"name": "_tokenTo",
							"type": "address"
						},
						{
							"internalType": "address",
							"name": "_addressTo",
							"type": "address"
						},
						{
							"internalType": "uint256",
							"name": "_amountTo",
							"type": "uint256"
						}
					],
					"name": "swap",
					"outputs": [],
					"stateMutability": "nonpayable",
					"type": "function"
				},
				{
					"stateMutability": "payable",
					"type": "receive"
				}
			],
			"devdoc": {
				"kind": "dev",
				"methods": {},
				"version": 1
			},
			"evm": {
				"assembly": "    /* \"contracts/TokenSwap.sol\":89:1270  contract TokenSwap {... */\n  mstore(0x40, 0x80)\n    /* \"contracts/TokenSwap.sol\":178:194  constructor() {} */\n  callvalue\n  dup1\n  iszero\n  tag_1\n  jumpi\n  0x00\n  dup1\n  revert\ntag_1:\n  pop\n    /* \"contracts/TokenSwap.sol\":89:1270  contract TokenSwap {... */\n  dataSize(sub_0)\n  dup1\n  dataOffset(sub_0)\n  0x00\n  codecopy\n  0x00\n  return\nstop\n\nsub_0: assembly {\n        /* \"contracts/TokenSwap.sol\":89:1270  contract TokenSwap {... */\n      mstore(0x40, 0x80)\n      jumpi(tag_1, lt(calldatasize, 0x04))\n      shr(0xe0, calldataload(0x00))\n      dup1\n      0x7ddf3320\n      eq\n      tag_3\n      jumpi\n      jump(tag_2)\n    tag_1:\n      jumpi(tag_2, calldatasize)\n      stop\n    tag_2:\n      stop\n        /* \"contracts/TokenSwap.sol\":200:932  function swap(... */\n    tag_3:\n      callvalue\n      dup1\n      iszero\n      tag_8\n      jumpi\n      0x00\n      dup1\n      revert\n    tag_8:\n      pop\n      tag_9\n      0x04\n      dup1\n      calldatasize\n      sub\n      dup2\n      add\n      swap1\n      tag_10\n      swap2\n      swap1\n      tag_11\n      jump\t// in\n    tag_10:\n      tag_12\n      jump\t// in\n    tag_9:\n      stop\n    tag_12:\n        /* \"contracts/TokenSwap.sol\":414:424  _tokenFrom */\n      dup6\n        /* \"contracts/TokenSwap.sol\":395:404  tokenFrom */\n      0x00\n      dup1\n        /* \"contracts/TokenSwap.sol\":395:425  tokenFrom = IERC20(_tokenFrom) */\n      0x0100\n      exp\n      dup2\n      sload\n      dup2\n      0xffffffffffffffffffffffffffffffffffffffff\n      mul\n      not\n      and\n      swap1\n      dup4\n      0xffffffffffffffffffffffffffffffffffffffff\n      and\n      mul\n      or\n      swap1\n      sstore\n      pop\n        /* \"contracts/TokenSwap.sol\":452:460  _tokenTo */\n      dup3\n        /* \"contracts/TokenSwap.sol\":435:442  tokenTo */\n      0x01\n      0x00\n        /* \"contracts/TokenSwap.sol\":435:461  tokenTo = IERC20(_tokenTo) */\n      0x0100\n      exp\n      dup2\n      sload\n      dup2\n      0xffffffffffffffffffffffffffffffffffffffff\n      mul\n      not\n      and\n      swap1\n      dup4\n      0xffffffffffffffffffffffffffffffffffffffff\n      and\n      mul\n      or\n      swap1\n      sstore\n      pop\n        /* \"contracts/TokenSwap.sol\":494:506  _addressFrom */\n      dup5\n        /* \"contracts/TokenSwap.sol\":480:506  msg.sender == _addressFrom */\n      0xffffffffffffffffffffffffffffffffffffffff\n      and\n        /* \"contracts/TokenSwap.sol\":480:490  msg.sender */\n      caller\n        /* \"contracts/TokenSwap.sol\":480:506  msg.sender == _addressFrom */\n      0xffffffffffffffffffffffffffffffffffffffff\n      and\n      eq\n        /* \"contracts/TokenSwap.sol\":480:534  msg.sender == _addressFrom || msg.sender == _addressTo */\n      dup1\n      tag_14\n      jumpi\n      pop\n        /* \"contracts/TokenSwap.sol\":524:534  _addressTo */\n      dup2\n        /* \"contracts/TokenSwap.sol\":510:534  msg.sender == _addressTo */\n      0xffffffffffffffffffffffffffffffffffffffff\n      and\n        /* \"contracts/TokenSwap.sol\":510:520  msg.sender */\n      caller\n        /* \"contracts/TokenSwap.sol\":510:534  msg.sender == _addressTo */\n      0xffffffffffffffffffffffffffffffffffffffff\n      and\n      eq\n        /* \"contracts/TokenSwap.sol\":480:534  msg.sender == _addressFrom || msg.sender == _addressTo */\n    tag_14:\n        /* \"contracts/TokenSwap.sol\":472:561  require(msg.sender == _addressFrom || msg.sender == _addressTo, \"Address swap not valid\") */\n      tag_15\n      jumpi\n      mload(0x40)\n      0x08c379a000000000000000000000000000000000000000000000000000000000\n      dup2\n      mstore\n      0x04\n      add\n      tag_16\n      swap1\n      tag_17\n      jump\t// in\n    tag_16:\n      mload(0x40)\n      dup1\n      swap2\n      sub\n      swap1\n      revert\n    tag_15:\n        /* \"contracts/TokenSwap.sol\":632:643  _amountFrom */\n      dup4\n        /* \"contracts/TokenSwap.sol\":579:588  tokenFrom */\n      0x00\n      dup1\n      sload\n      swap1\n      0x0100\n      exp\n      swap1\n      div\n      0xffffffffffffffffffffffffffffffffffffffff\n      and\n        /* \"contracts/TokenSwap.sol\":579:598  tokenFrom.allowance */\n      0xffffffffffffffffffffffffffffffffffffffff\n      and\n      0xdd62ed3e\n        /* \"contracts/TokenSwap.sol\":599:611  _addressFrom */\n      dup8\n        /* \"contracts/TokenSwap.sol\":622:626  this */\n      address\n        /* \"contracts/TokenSwap.sol\":579:628  tokenFrom.allowance(_addressFrom, address (this)) */\n      mload(0x40)\n      dup4\n      0xffffffff\n      and\n      0xe0\n      shl\n      dup2\n      mstore\n      0x04\n      add\n      tag_18\n      swap3\n      swap2\n      swap1\n      tag_19\n      jump\t// in\n    tag_18:\n      0x20\n      mload(0x40)\n      dup1\n      dup4\n      sub\n      dup2\n      dup7\n      dup1\n      extcodesize\n      iszero\n      dup1\n      iszero\n      tag_20\n      jumpi\n      0x00\n      dup1\n      revert\n    tag_20:\n      pop\n      gas\n      staticcall\n      iszero\n      dup1\n      iszero\n      tag_22\n      jumpi\n      returndatasize\n      0x00\n      dup1\n      returndatacopy\n      revert(0x00, returndatasize)\n    tag_22:\n      pop\n      pop\n      pop\n      pop\n      mload(0x40)\n      returndatasize\n      not(0x1f)\n      0x1f\n      dup3\n      add\n      and\n      dup3\n      add\n      dup1\n      0x40\n      mstore\n      pop\n      dup2\n      add\n      swap1\n      tag_23\n      swap2\n      swap1\n      tag_24\n      jump\t// in\n    tag_23:\n        /* \"contracts/TokenSwap.sol\":579:643  tokenFrom.allowance(_addressFrom, address (this)) >= _amountFrom */\n      lt\n      iszero\n        /* \"contracts/TokenSwap.sol\":571:672  require(tokenFrom.allowance(_addressFrom, address (this)) >= _amountFrom, \"Token allow From too low\") */\n      tag_25\n      jumpi\n      mload(0x40)\n      0x08c379a000000000000000000000000000000000000000000000000000000000\n      dup2\n      mstore\n      0x04\n      add\n      tag_26\n      swap1\n      tag_27\n      jump\t// in\n    tag_26:\n      mload(0x40)\n      dup1\n      swap2\n      sub\n      swap1\n      revert\n    tag_25:\n        /* \"contracts/TokenSwap.sol\":739:748  _amountTo */\n      dup1\n        /* \"contracts/TokenSwap.sol\":690:697  tokenTo */\n      0x01\n      0x00\n      swap1\n      sload\n      swap1\n      0x0100\n      exp\n      swap1\n      div\n      0xffffffffffffffffffffffffffffffffffffffff\n      and\n        /* \"contracts/TokenSwap.sol\":690:707  tokenTo.allowance */\n      0xffffffffffffffffffffffffffffffffffffffff\n      and\n      0xdd62ed3e\n        /* \"contracts/TokenSwap.sol\":708:718  _addressTo */\n      dup5\n        /* \"contracts/TokenSwap.sol\":729:733  this */\n      address\n        /* \"contracts/TokenSwap.sol\":690:735  tokenTo.allowance(_addressTo, address (this)) */\n      mload(0x40)\n      dup4\n      0xffffffff\n      and\n      0xe0\n      shl\n      dup2\n      mstore\n      0x04\n      add\n      tag_28\n      swap3\n      swap2\n      swap1\n      tag_19\n      jump\t// in\n    tag_28:\n      0x20\n      mload(0x40)\n      dup1\n      dup4\n      sub\n      dup2\n      dup7\n      dup1\n      extcodesize\n      iszero\n      dup1\n      iszero\n      tag_29\n      jumpi\n      0x00\n      dup1\n      revert\n    tag_29:\n      pop\n      gas\n      staticcall\n      iszero\n      dup1\n      iszero\n      tag_31\n      jumpi\n      returndatasize\n      0x00\n      dup1\n      returndatacopy\n      revert(0x00, returndatasize)\n    tag_31:\n      pop\n      pop\n      pop\n      pop\n      mload(0x40)\n      returndatasize\n      not(0x1f)\n      0x1f\n      dup3\n      add\n      and\n      dup3\n      add\n      dup1\n      0x40\n      mstore\n      pop\n      dup2\n      add\n      swap1\n      tag_32\n      swap2\n      swap1\n      tag_24\n      jump\t// in\n    tag_32:\n        /* \"contracts/TokenSwap.sol\":690:748  tokenTo.allowance(_addressTo, address (this)) >= _amountTo */\n      lt\n      iszero\n        /* \"contracts/TokenSwap.sol\":682:775  require(tokenTo.allowance(_addressTo, address (this)) >= _amountTo, \"Token allow To too low\") */\n      tag_33\n      jumpi\n      mload(0x40)\n      0x08c379a000000000000000000000000000000000000000000000000000000000\n      dup2\n      mstore\n      0x04\n      add\n      tag_34\n      swap1\n      tag_35\n      jump\t// in\n    tag_34:\n      mload(0x40)\n      dup1\n      swap2\n      sub\n      swap1\n      revert\n    tag_33:\n        /* \"contracts/TokenSwap.sol\":785:852  _safeTransferFrom(tokenFrom, _addressFrom, _addressTo, _amountFrom) */\n      tag_36\n        /* \"contracts/TokenSwap.sol\":803:812  tokenFrom */\n      0x00\n      dup1\n      sload\n      swap1\n      0x0100\n      exp\n      swap1\n      div\n      0xffffffffffffffffffffffffffffffffffffffff\n      and\n        /* \"contracts/TokenSwap.sol\":814:826  _addressFrom */\n      dup7\n        /* \"contracts/TokenSwap.sol\":828:838  _addressTo */\n      dup5\n        /* \"contracts/TokenSwap.sol\":840:851  _amountFrom */\n      dup8\n        /* \"contracts/TokenSwap.sol\":785:802  _safeTransferFrom */\n      tag_37\n        /* \"contracts/TokenSwap.sol\":785:852  _safeTransferFrom(tokenFrom, _addressFrom, _addressTo, _amountFrom) */\n      jump\t// in\n    tag_36:\n        /* \"contracts/TokenSwap.sol\":862:925  _safeTransferFrom(tokenTo, _addressTo, _addressFrom, _amountTo) */\n      tag_38\n        /* \"contracts/TokenSwap.sol\":880:887  tokenTo */\n      0x01\n      0x00\n      swap1\n      sload\n      swap1\n      0x0100\n      exp\n      swap1\n      div\n      0xffffffffffffffffffffffffffffffffffffffff\n      and\n        /* \"contracts/TokenSwap.sol\":889:899  _addressTo */\n      dup4\n        /* \"contracts/TokenSwap.sol\":901:913  _addressFrom */\n      dup8\n        /* \"contracts/TokenSwap.sol\":915:924  _amountTo */\n      dup5\n        /* \"contracts/TokenSwap.sol\":862:879  _safeTransferFrom */\n      tag_37\n        /* \"contracts/TokenSwap.sol\":862:925  _safeTransferFrom(tokenTo, _addressTo, _addressFrom, _amountTo) */\n      jump\t// in\n    tag_38:\n        /* \"contracts/TokenSwap.sol\":200:932  function swap(... */\n      pop\n      pop\n      pop\n      pop\n      pop\n      pop\n      jump\t// out\n        /* \"contracts/TokenSwap.sol\":939:1196  function _safeTransferFrom(... */\n    tag_37:\n        /* \"contracts/TokenSwap.sol\":1084:1093  bool sent */\n      0x00\n        /* \"contracts/TokenSwap.sol\":1096:1101  token */\n      dup5\n        /* \"contracts/TokenSwap.sol\":1096:1114  token.transferFrom */\n      0xffffffffffffffffffffffffffffffffffffffff\n      and\n      0x23b872dd\n        /* \"contracts/TokenSwap.sol\":1115:1121  sender */\n      dup6\n        /* \"contracts/TokenSwap.sol\":1123:1132  recipient */\n      dup6\n        /* \"contracts/TokenSwap.sol\":1134:1140  amount */\n      dup6\n        /* \"contracts/TokenSwap.sol\":1096:1141  token.transferFrom(sender, recipient, amount) */\n      mload(0x40)\n      dup5\n      0xffffffff\n      and\n      0xe0\n      shl\n      dup2\n      mstore\n      0x04\n      add\n      tag_40\n      swap4\n      swap3\n      swap2\n      swap1\n      tag_41\n      jump\t// in\n    tag_40:\n      0x20\n      mload(0x40)\n      dup1\n      dup4\n      sub\n      dup2\n      0x00\n      dup8\n      dup1\n      extcodesize\n      iszero\n      dup1\n      iszero\n      tag_42\n      jumpi\n      0x00\n      dup1\n      revert\n    tag_42:\n      pop\n      gas\n      call\n      iszero\n      dup1\n      iszero\n      tag_44\n      jumpi\n      returndatasize\n      0x00\n      dup1\n      returndatacopy\n      revert(0x00, returndatasize)\n    tag_44:\n      pop\n      pop\n      pop\n      pop\n      mload(0x40)\n      returndatasize\n      not(0x1f)\n      0x1f\n      dup3\n      add\n      and\n      dup3\n      add\n      dup1\n      0x40\n      mstore\n      pop\n      dup2\n      add\n      swap1\n      tag_45\n      swap2\n      swap1\n      tag_46\n      jump\t// in\n    tag_45:\n        /* \"contracts/TokenSwap.sol\":1084:1141  bool sent = token.transferFrom(sender, recipient, amount) */\n      swap1\n      pop\n        /* \"contracts/TokenSwap.sol\":1159:1163  sent */\n      dup1\n        /* \"contracts/TokenSwap.sol\":1151:1189  require(sent, \"Token transfer failed\") */\n      tag_47\n      jumpi\n      mload(0x40)\n      0x08c379a000000000000000000000000000000000000000000000000000000000\n      dup2\n      mstore\n      0x04\n      add\n      tag_48\n      swap1\n      tag_49\n      jump\t// in\n    tag_48:\n      mload(0x40)\n      dup1\n      swap2\n      sub\n      swap1\n      revert\n    tag_47:\n        /* \"contracts/TokenSwap.sol\":1074:1196  {... */\n      pop\n        /* \"contracts/TokenSwap.sol\":939:1196  function _safeTransferFrom(... */\n      pop\n      pop\n      pop\n      pop\n      jump\t// out\n        /* \"#utility.yul\":7:146   */\n    tag_51:\n        /* \"#utility.yul\":53:58   */\n      0x00\n        /* \"#utility.yul\":91:97   */\n      dup2\n        /* \"#utility.yul\":78:98   */\n      calldataload\n        /* \"#utility.yul\":69:98   */\n      swap1\n      pop\n        /* \"#utility.yul\":107:140   */\n      tag_53\n        /* \"#utility.yul\":134:139   */\n      dup2\n        /* \"#utility.yul\":107:140   */\n      tag_54\n      jump\t// in\n    tag_53:\n        /* \"#utility.yul\":7:146   */\n      swap3\n      swap2\n      pop\n      pop\n      jump\t// out\n        /* \"#utility.yul\":152:289   */\n    tag_55:\n        /* \"#utility.yul\":206:211   */\n      0x00\n        /* \"#utility.yul\":237:243   */\n      dup2\n        /* \"#utility.yul\":231:244   */\n      mload\n        /* \"#utility.yul\":222:244   */\n      swap1\n      pop\n        /* \"#utility.yul\":253:283   */\n      tag_57\n        /* \"#utility.yul\":277:282   */\n      dup2\n        /* \"#utility.yul\":253:283   */\n      tag_58\n      jump\t// in\n    tag_57:\n        /* \"#utility.yul\":152:289   */\n      swap3\n      swap2\n      pop\n      pop\n      jump\t// out\n        /* \"#utility.yul\":295:434   */\n    tag_59:\n        /* \"#utility.yul\":341:346   */\n      0x00\n        /* \"#utility.yul\":379:385   */\n      dup2\n        /* \"#utility.yul\":366:386   */\n      calldataload\n        /* \"#utility.yul\":357:386   */\n      swap1\n      pop\n        /* \"#utility.yul\":395:428   */\n      tag_61\n        /* \"#utility.yul\":422:427   */\n      dup2\n        /* \"#utility.yul\":395:428   */\n      tag_62\n      jump\t// in\n    tag_61:\n        /* \"#utility.yul\":295:434   */\n      swap3\n      swap2\n      pop\n      pop\n      jump\t// out\n        /* \"#utility.yul\":440:583   */\n    tag_63:\n        /* \"#utility.yul\":497:502   */\n      0x00\n        /* \"#utility.yul\":528:534   */\n      dup2\n        /* \"#utility.yul\":522:535   */\n      mload\n        /* \"#utility.yul\":513:535   */\n      swap1\n      pop\n        /* \"#utility.yul\":544:577   */\n      tag_65\n        /* \"#utility.yul\":571:576   */\n      dup2\n        /* \"#utility.yul\":544:577   */\n      tag_62\n      jump\t// in\n    tag_65:\n        /* \"#utility.yul\":440:583   */\n      swap3\n      swap2\n      pop\n      pop\n      jump\t// out\n        /* \"#utility.yul\":589:1646   */\n    tag_11:\n        /* \"#utility.yul\":693:699   */\n      0x00\n        /* \"#utility.yul\":701:707   */\n      dup1\n        /* \"#utility.yul\":709:715   */\n      0x00\n        /* \"#utility.yul\":717:723   */\n      dup1\n        /* \"#utility.yul\":725:731   */\n      0x00\n        /* \"#utility.yul\":733:739   */\n      dup1\n        /* \"#utility.yul\":782:785   */\n      0xc0\n        /* \"#utility.yul\":770:779   */\n      dup8\n        /* \"#utility.yul\":761:768   */\n      dup10\n        /* \"#utility.yul\":757:780   */\n      sub\n        /* \"#utility.yul\":753:786   */\n      slt\n        /* \"#utility.yul\":750:870   */\n      iszero\n      tag_67\n      jumpi\n        /* \"#utility.yul\":789:868   */\n      tag_68\n      tag_69\n      jump\t// in\n    tag_68:\n        /* \"#utility.yul\":750:870   */\n    tag_67:\n        /* \"#utility.yul\":909:910   */\n      0x00\n        /* \"#utility.yul\":934:987   */\n      tag_70\n        /* \"#utility.yul\":979:986   */\n      dup10\n        /* \"#utility.yul\":970:976   */\n      dup3\n        /* \"#utility.yul\":959:968   */\n      dup11\n        /* \"#utility.yul\":955:977   */\n      add\n        /* \"#utility.yul\":934:987   */\n      tag_51\n      jump\t// in\n    tag_70:\n        /* \"#utility.yul\":924:987   */\n      swap7\n      pop\n        /* \"#utility.yul\":880:997   */\n      pop\n        /* \"#utility.yul\":1036:1038   */\n      0x20\n        /* \"#utility.yul\":1062:1115   */\n      tag_71\n        /* \"#utility.yul\":1107:1114   */\n      dup10\n        /* \"#utility.yul\":1098:1104   */\n      dup3\n        /* \"#utility.yul\":1087:1096   */\n      dup11\n        /* \"#utility.yul\":1083:1105   */\n      add\n        /* \"#utility.yul\":1062:1115   */\n      tag_51\n      jump\t// in\n    tag_71:\n        /* \"#utility.yul\":1052:1115   */\n      swap6\n      pop\n        /* \"#utility.yul\":1007:1125   */\n      pop\n        /* \"#utility.yul\":1164:1166   */\n      0x40\n        /* \"#utility.yul\":1190:1243   */\n      tag_72\n        /* \"#utility.yul\":1235:1242   */\n      dup10\n        /* \"#utility.yul\":1226:1232   */\n      dup3\n        /* \"#utility.yul\":1215:1224   */\n      dup11\n        /* \"#utility.yul\":1211:1233   */\n      add\n        /* \"#utility.yul\":1190:1243   */\n      tag_59\n      jump\t// in\n    tag_72:\n        /* \"#utility.yul\":1180:1243   */\n      swap5\n      pop\n        /* \"#utility.yul\":1135:1253   */\n      pop\n        /* \"#utility.yul\":1292:1294   */\n      0x60\n        /* \"#utility.yul\":1318:1371   */\n      tag_73\n        /* \"#utility.yul\":1363:1370   */\n      dup10\n        /* \"#utility.yul\":1354:1360   */\n      dup3\n        /* \"#utility.yul\":1343:1352   */\n      dup11\n        /* \"#utility.yul\":1339:1361   */\n      add\n        /* \"#utility.yul\":1318:1371   */\n      tag_51\n      jump\t// in\n    tag_73:\n        /* \"#utility.yul\":1308:1371   */\n      swap4\n      pop\n        /* \"#utility.yul\":1263:1381   */\n      pop\n        /* \"#utility.yul\":1420:1423   */\n      0x80\n        /* \"#utility.yul\":1447:1500   */\n      tag_74\n        /* \"#utility.yul\":1492:1499   */\n      dup10\n        /* \"#utility.yul\":1483:1489   */\n      dup3\n        /* \"#utility.yul\":1472:1481   */\n      dup11\n        /* \"#utility.yul\":1468:1490   */\n      add\n        /* \"#utility.yul\":1447:1500   */\n      tag_51\n      jump\t// in\n    tag_74:\n        /* \"#utility.yul\":1437:1500   */\n      swap3\n      pop\n        /* \"#utility.yul\":1391:1510   */\n      pop\n        /* \"#utility.yul\":1549:1552   */\n      0xa0\n        /* \"#utility.yul\":1576:1629   */\n      tag_75\n        /* \"#utility.yul\":1621:1628   */\n      dup10\n        /* \"#utility.yul\":1612:1618   */\n      dup3\n        /* \"#utility.yul\":1601:1610   */\n      dup11\n        /* \"#utility.yul\":1597:1619   */\n      add\n        /* \"#utility.yul\":1576:1629   */\n      tag_59\n      jump\t// in\n    tag_75:\n        /* \"#utility.yul\":1566:1629   */\n      swap2\n      pop\n        /* \"#utility.yul\":1520:1639   */\n      pop\n        /* \"#utility.yul\":589:1646   */\n      swap3\n      swap6\n      pop\n      swap3\n      swap6\n      pop\n      swap3\n      swap6\n      jump\t// out\n        /* \"#utility.yul\":1652:1997   */\n    tag_46:\n        /* \"#utility.yul\":1719:1725   */\n      0x00\n        /* \"#utility.yul\":1768:1770   */\n      0x20\n        /* \"#utility.yul\":1756:1765   */\n      dup3\n        /* \"#utility.yul\":1747:1754   */\n      dup5\n        /* \"#utility.yul\":1743:1766   */\n      sub\n        /* \"#utility.yul\":1739:1771   */\n      slt\n        /* \"#utility.yul\":1736:1855   */\n      iszero\n      tag_77\n      jumpi\n        /* \"#utility.yul\":1774:1853   */\n      tag_78\n      tag_69\n      jump\t// in\n    tag_78:\n        /* \"#utility.yul\":1736:1855   */\n    tag_77:\n        /* \"#utility.yul\":1894:1895   */\n      0x00\n        /* \"#utility.yul\":1919:1980   */\n      tag_79\n        /* \"#utility.yul\":1972:1979   */\n      dup5\n        /* \"#utility.yul\":1963:1969   */\n      dup3\n        /* \"#utility.yul\":1952:1961   */\n      dup6\n        /* \"#utility.yul\":1948:1970   */\n      add\n        /* \"#utility.yul\":1919:1980   */\n      tag_55\n      jump\t// in\n    tag_79:\n        /* \"#utility.yul\":1909:1980   */\n      swap2\n      pop\n        /* \"#utility.yul\":1865:1990   */\n      pop\n        /* \"#utility.yul\":1652:1997   */\n      swap3\n      swap2\n      pop\n      pop\n      jump\t// out\n        /* \"#utility.yul\":2003:2354   */\n    tag_24:\n        /* \"#utility.yul\":2073:2079   */\n      0x00\n        /* \"#utility.yul\":2122:2124   */\n      0x20\n        /* \"#utility.yul\":2110:2119   */\n      dup3\n        /* \"#utility.yul\":2101:2108   */\n      dup5\n        /* \"#utility.yul\":2097:2120   */\n      sub\n        /* \"#utility.yul\":2093:2125   */\n      slt\n        /* \"#utility.yul\":2090:2209   */\n      iszero\n      tag_81\n      jumpi\n        /* \"#utility.yul\":2128:2207   */\n      tag_82\n      tag_69\n      jump\t// in\n    tag_82:\n        /* \"#utility.yul\":2090:2209   */\n    tag_81:\n        /* \"#utility.yul\":2248:2249   */\n      0x00\n        /* \"#utility.yul\":2273:2337   */\n      tag_83\n        /* \"#utility.yul\":2329:2336   */\n      dup5\n        /* \"#utility.yul\":2320:2326   */\n      dup3\n        /* \"#utility.yul\":2309:2318   */\n      dup6\n        /* \"#utility.yul\":2305:2327   */\n      add\n        /* \"#utility.yul\":2273:2337   */\n      tag_63\n      jump\t// in\n    tag_83:\n        /* \"#utility.yul\":2263:2337   */\n      swap2\n      pop\n        /* \"#utility.yul\":2219:2347   */\n      pop\n        /* \"#utility.yul\":2003:2354   */\n      swap3\n      swap2\n      pop\n      pop\n      jump\t// out\n        /* \"#utility.yul\":2360:2478   */\n    tag_84:\n        /* \"#utility.yul\":2447:2471   */\n      tag_86\n        /* \"#utility.yul\":2465:2470   */\n      dup2\n        /* \"#utility.yul\":2447:2471   */\n      tag_87\n      jump\t// in\n    tag_86:\n        /* \"#utility.yul\":2442:2445   */\n      dup3\n        /* \"#utility.yul\":2435:2472   */\n      mstore\n        /* \"#utility.yul\":2360:2478   */\n      pop\n      pop\n      jump\t// out\n        /* \"#utility.yul\":2484:2850   */\n    tag_88:\n        /* \"#utility.yul\":2626:2629   */\n      0x00\n        /* \"#utility.yul\":2647:2714   */\n      tag_90\n        /* \"#utility.yul\":2711:2713   */\n      0x16\n        /* \"#utility.yul\":2706:2709   */\n      dup4\n        /* \"#utility.yul\":2647:2714   */\n      tag_91\n      jump\t// in\n    tag_90:\n        /* \"#utility.yul\":2640:2714   */\n      swap2\n      pop\n        /* \"#utility.yul\":2723:2816   */\n      tag_92\n        /* \"#utility.yul\":2812:2815   */\n      dup3\n        /* \"#utility.yul\":2723:2816   */\n      tag_93\n      jump\t// in\n    tag_92:\n        /* \"#utility.yul\":2841:2843   */\n      0x20\n        /* \"#utility.yul\":2836:2839   */\n      dup3\n        /* \"#utility.yul\":2832:2844   */\n      add\n        /* \"#utility.yul\":2825:2844   */\n      swap1\n      pop\n        /* \"#utility.yul\":2484:2850   */\n      swap2\n      swap1\n      pop\n      jump\t// out\n        /* \"#utility.yul\":2856:3222   */\n    tag_94:\n        /* \"#utility.yul\":2998:3001   */\n      0x00\n        /* \"#utility.yul\":3019:3086   */\n      tag_96\n        /* \"#utility.yul\":3083:3085   */\n      0x18\n        /* \"#utility.yul\":3078:3081   */\n      dup4\n        /* \"#utility.yul\":3019:3086   */\n      tag_91\n      jump\t// in\n    tag_96:\n        /* \"#utility.yul\":3012:3086   */\n      swap2\n      pop\n        /* \"#utility.yul\":3095:3188   */\n      tag_97\n        /* \"#utility.yul\":3184:3187   */\n      dup3\n        /* \"#utility.yul\":3095:3188   */\n      tag_98\n      jump\t// in\n    tag_97:\n        /* \"#utility.yul\":3213:3215   */\n      0x20\n        /* \"#utility.yul\":3208:3211   */\n      dup3\n        /* \"#utility.yul\":3204:3216   */\n      add\n        /* \"#utility.yul\":3197:3216   */\n      swap1\n      pop\n        /* \"#utility.yul\":2856:3222   */\n      swap2\n      swap1\n      pop\n      jump\t// out\n        /* \"#utility.yul\":3228:3594   */\n    tag_99:\n        /* \"#utility.yul\":3370:3373   */\n      0x00\n        /* \"#utility.yul\":3391:3458   */\n      tag_101\n        /* \"#utility.yul\":3455:3457   */\n      0x15\n        /* \"#utility.yul\":3450:3453   */\n      dup4\n        /* \"#utility.yul\":3391:3458   */\n      tag_91\n      jump\t// in\n    tag_101:\n        /* \"#utility.yul\":3384:3458   */\n      swap2\n      pop\n        /* \"#utility.yul\":3467:3560   */\n      tag_102\n        /* \"#utility.yul\":3556:3559   */\n      dup3\n        /* \"#utility.yul\":3467:3560   */\n      tag_103\n      jump\t// in\n    tag_102:\n        /* \"#utility.yul\":3585:3587   */\n      0x20\n        /* \"#utility.yul\":3580:3583   */\n      dup3\n        /* \"#utility.yul\":3576:3588   */\n      add\n        /* \"#utility.yul\":3569:3588   */\n      swap1\n      pop\n        /* \"#utility.yul\":3228:3594   */\n      swap2\n      swap1\n      pop\n      jump\t// out\n        /* \"#utility.yul\":3600:3966   */\n    tag_104:\n        /* \"#utility.yul\":3742:3745   */\n      0x00\n        /* \"#utility.yul\":3763:3830   */\n      tag_106\n        /* \"#utility.yul\":3827:3829   */\n      0x16\n        /* \"#utility.yul\":3822:3825   */\n      dup4\n        /* \"#utility.yul\":3763:3830   */\n      tag_91\n      jump\t// in\n    tag_106:\n        /* \"#utility.yul\":3756:3830   */\n      swap2\n      pop\n        /* \"#utility.yul\":3839:3932   */\n      tag_107\n        /* \"#utility.yul\":3928:3931   */\n      dup3\n        /* \"#utility.yul\":3839:3932   */\n      tag_108\n      jump\t// in\n    tag_107:\n        /* \"#utility.yul\":3957:3959   */\n      0x20\n        /* \"#utility.yul\":3952:3955   */\n      dup3\n        /* \"#utility.yul\":3948:3960   */\n      add\n        /* \"#utility.yul\":3941:3960   */\n      swap1\n      pop\n        /* \"#utility.yul\":3600:3966   */\n      swap2\n      swap1\n      pop\n      jump\t// out\n        /* \"#utility.yul\":3972:4090   */\n    tag_109:\n        /* \"#utility.yul\":4059:4083   */\n      tag_111\n        /* \"#utility.yul\":4077:4082   */\n      dup2\n        /* \"#utility.yul\":4059:4083   */\n      tag_112\n      jump\t// in\n    tag_111:\n        /* \"#utility.yul\":4054:4057   */\n      dup3\n        /* \"#utility.yul\":4047:4084   */\n      mstore\n        /* \"#utility.yul\":3972:4090   */\n      pop\n      pop\n      jump\t// out\n        /* \"#utility.yul\":4096:4428   */\n    tag_19:\n        /* \"#utility.yul\":4217:4221   */\n      0x00\n        /* \"#utility.yul\":4255:4257   */\n      0x40\n        /* \"#utility.yul\":4244:4253   */\n      dup3\n        /* \"#utility.yul\":4240:4258   */\n      add\n        /* \"#utility.yul\":4232:4258   */\n      swap1\n      pop\n        /* \"#utility.yul\":4268:4339   */\n      tag_114\n        /* \"#utility.yul\":4336:4337   */\n      0x00\n        /* \"#utility.yul\":4325:4334   */\n      dup4\n        /* \"#utility.yul\":4321:4338   */\n      add\n        /* \"#utility.yul\":4312:4318   */\n      dup6\n        /* \"#utility.yul\":4268:4339   */\n      tag_84\n      jump\t// in\n    tag_114:\n        /* \"#utility.yul\":4349:4421   */\n      tag_115\n        /* \"#utility.yul\":4417:4419   */\n      0x20\n        /* \"#utility.yul\":4406:4415   */\n      dup4\n        /* \"#utility.yul\":4402:4420   */\n      add\n        /* \"#utility.yul\":4393:4399   */\n      dup5\n        /* \"#utility.yul\":4349:4421   */\n      tag_84\n      jump\t// in\n    tag_115:\n        /* \"#utility.yul\":4096:4428   */\n      swap4\n      swap3\n      pop\n      pop\n      pop\n      jump\t// out\n        /* \"#utility.yul\":4434:4876   */\n    tag_41:\n        /* \"#utility.yul\":4583:4587   */\n      0x00\n        /* \"#utility.yul\":4621:4623   */\n      0x60\n        /* \"#utility.yul\":4610:4619   */\n      dup3\n        /* \"#utility.yul\":4606:4624   */\n      add\n        /* \"#utility.yul\":4598:4624   */\n      swap1\n      pop\n        /* \"#utility.yul\":4634:4705   */\n      tag_117\n        /* \"#utility.yul\":4702:4703   */\n      0x00\n        /* \"#utility.yul\":4691:4700   */\n      dup4\n        /* \"#utility.yul\":4687:4704   */\n      add\n        /* \"#utility.yul\":4678:4684   */\n      dup7\n        /* \"#utility.yul\":4634:4705   */\n      tag_84\n      jump\t// in\n    tag_117:\n        /* \"#utility.yul\":4715:4787   */\n      tag_118\n        /* \"#utility.yul\":4783:4785   */\n      0x20\n        /* \"#utility.yul\":4772:4781   */\n      dup4\n        /* \"#utility.yul\":4768:4786   */\n      add\n        /* \"#utility.yul\":4759:4765   */\n      dup6\n        /* \"#utility.yul\":4715:4787   */\n      tag_84\n      jump\t// in\n    tag_118:\n        /* \"#utility.yul\":4797:4869   */\n      tag_119\n        /* \"#utility.yul\":4865:4867   */\n      0x40\n        /* \"#utility.yul\":4854:4863   */\n      dup4\n        /* \"#utility.yul\":4850:4868   */\n      add\n        /* \"#utility.yul\":4841:4847   */\n      dup5\n        /* \"#utility.yul\":4797:4869   */\n      tag_109\n      jump\t// in\n    tag_119:\n        /* \"#utility.yul\":4434:4876   */\n      swap5\n      swap4\n      pop\n      pop\n      pop\n      pop\n      jump\t// out\n        /* \"#utility.yul\":4882:5301   */\n    tag_35:\n        /* \"#utility.yul\":5048:5052   */\n      0x00\n        /* \"#utility.yul\":5086:5088   */\n      0x20\n        /* \"#utility.yul\":5075:5084   */\n      dup3\n        /* \"#utility.yul\":5071:5089   */\n      add\n        /* \"#utility.yul\":5063:5089   */\n      swap1\n      pop\n        /* \"#utility.yul\":5135:5144   */\n      dup2\n        /* \"#utility.yul\":5129:5133   */\n      dup2\n        /* \"#utility.yul\":5125:5145   */\n      sub\n        /* \"#utility.yul\":5121:5122   */\n      0x00\n        /* \"#utility.yul\":5110:5119   */\n      dup4\n        /* \"#utility.yul\":5106:5123   */\n      add\n        /* \"#utility.yul\":5099:5146   */\n      mstore\n        /* \"#utility.yul\":5163:5294   */\n      tag_121\n        /* \"#utility.yul\":5289:5293   */\n      dup2\n        /* \"#utility.yul\":5163:5294   */\n      tag_88\n      jump\t// in\n    tag_121:\n        /* \"#utility.yul\":5155:5294   */\n      swap1\n      pop\n        /* \"#utility.yul\":4882:5301   */\n      swap2\n      swap1\n      pop\n      jump\t// out\n        /* \"#utility.yul\":5307:5726   */\n    tag_27:\n        /* \"#utility.yul\":5473:5477   */\n      0x00\n        /* \"#utility.yul\":5511:5513   */\n      0x20\n        /* \"#utility.yul\":5500:5509   */\n      dup3\n        /* \"#utility.yul\":5496:5514   */\n      add\n        /* \"#utility.yul\":5488:5514   */\n      swap1\n      pop\n        /* \"#utility.yul\":5560:5569   */\n      dup2\n        /* \"#utility.yul\":5554:5558   */\n      dup2\n        /* \"#utility.yul\":5550:5570   */\n      sub\n        /* \"#utility.yul\":5546:5547   */\n      0x00\n        /* \"#utility.yul\":5535:5544   */\n      dup4\n        /* \"#utility.yul\":5531:5548   */\n      add\n        /* \"#utility.yul\":5524:5571   */\n      mstore\n        /* \"#utility.yul\":5588:5719   */\n      tag_123\n        /* \"#utility.yul\":5714:5718   */\n      dup2\n        /* \"#utility.yul\":5588:5719   */\n      tag_94\n      jump\t// in\n    tag_123:\n        /* \"#utility.yul\":5580:5719   */\n      swap1\n      pop\n        /* \"#utility.yul\":5307:5726   */\n      swap2\n      swap1\n      pop\n      jump\t// out\n        /* \"#utility.yul\":5732:6151   */\n    tag_49:\n        /* \"#utility.yul\":5898:5902   */\n      0x00\n        /* \"#utility.yul\":5936:5938   */\n      0x20\n        /* \"#utility.yul\":5925:5934   */\n      dup3\n        /* \"#utility.yul\":5921:5939   */\n      add\n        /* \"#utility.yul\":5913:5939   */\n      swap1\n      pop\n        /* \"#utility.yul\":5985:5994   */\n      dup2\n        /* \"#utility.yul\":5979:5983   */\n      dup2\n        /* \"#utility.yul\":5975:5995   */\n      sub\n        /* \"#utility.yul\":5971:5972   */\n      0x00\n        /* \"#utility.yul\":5960:5969   */\n      dup4\n        /* \"#utility.yul\":5956:5973   */\n      add\n        /* \"#utility.yul\":5949:5996   */\n      mstore\n        /* \"#utility.yul\":6013:6144   */\n      tag_125\n        /* \"#utility.yul\":6139:6143   */\n      dup2\n        /* \"#utility.yul\":6013:6144   */\n      tag_99\n      jump\t// in\n    tag_125:\n        /* \"#utility.yul\":6005:6144   */\n      swap1\n      pop\n        /* \"#utility.yul\":5732:6151   */\n      swap2\n      swap1\n      pop\n      jump\t// out\n        /* \"#utility.yul\":6157:6576   */\n    tag_17:\n        /* \"#utility.yul\":6323:6327   */\n      0x00\n        /* \"#utility.yul\":6361:6363   */\n      0x20\n        /* \"#utility.yul\":6350:6359   */\n      dup3\n        /* \"#utility.yul\":6346:6364   */\n      add\n        /* \"#utility.yul\":6338:6364   */\n      swap1\n      pop\n        /* \"#utility.yul\":6410:6419   */\n      dup2\n        /* \"#utility.yul\":6404:6408   */\n      dup2\n        /* \"#utility.yul\":6400:6420   */\n      sub\n        /* \"#utility.yul\":6396:6397   */\n      0x00\n        /* \"#utility.yul\":6385:6394   */\n      dup4\n        /* \"#utility.yul\":6381:6398   */\n      add\n        /* \"#utility.yul\":6374:6421   */\n      mstore\n        /* \"#utility.yul\":6438:6569   */\n      tag_127\n        /* \"#utility.yul\":6564:6568   */\n      dup2\n        /* \"#utility.yul\":6438:6569   */\n      tag_104\n      jump\t// in\n    tag_127:\n        /* \"#utility.yul\":6430:6569   */\n      swap1\n      pop\n        /* \"#utility.yul\":6157:6576   */\n      swap2\n      swap1\n      pop\n      jump\t// out\n        /* \"#utility.yul\":6663:6832   */\n    tag_91:\n        /* \"#utility.yul\":6747:6758   */\n      0x00\n        /* \"#utility.yul\":6781:6787   */\n      dup3\n        /* \"#utility.yul\":6776:6779   */\n      dup3\n        /* \"#utility.yul\":6769:6788   */\n      mstore\n        /* \"#utility.yul\":6821:6825   */\n      0x20\n        /* \"#utility.yul\":6816:6819   */\n      dup3\n        /* \"#utility.yul\":6812:6826   */\n      add\n        /* \"#utility.yul\":6797:6826   */\n      swap1\n      pop\n        /* \"#utility.yul\":6663:6832   */\n      swap3\n      swap2\n      pop\n      pop\n      jump\t// out\n        /* \"#utility.yul\":6838:6934   */\n    tag_87:\n        /* \"#utility.yul\":6875:6882   */\n      0x00\n        /* \"#utility.yul\":6904:6928   */\n      tag_132\n        /* \"#utility.yul\":6922:6927   */\n      dup3\n        /* \"#utility.yul\":6904:6928   */\n      tag_133\n      jump\t// in\n    tag_132:\n        /* \"#utility.yul\":6893:6928   */\n      swap1\n      pop\n        /* \"#utility.yul\":6838:6934   */\n      swap2\n      swap1\n      pop\n      jump\t// out\n        /* \"#utility.yul\":6940:7030   */\n    tag_134:\n        /* \"#utility.yul\":6974:6981   */\n      0x00\n        /* \"#utility.yul\":7017:7022   */\n      dup2\n        /* \"#utility.yul\":7010:7023   */\n      iszero\n        /* \"#utility.yul\":7003:7024   */\n      iszero\n        /* \"#utility.yul\":6992:7024   */\n      swap1\n      pop\n        /* \"#utility.yul\":6940:7030   */\n      swap2\n      swap1\n      pop\n      jump\t// out\n        /* \"#utility.yul\":7036:7162   */\n    tag_133:\n        /* \"#utility.yul\":7073:7080   */\n      0x00\n        /* \"#utility.yul\":7113:7155   */\n      0xffffffffffffffffffffffffffffffffffffffff\n        /* \"#utility.yul\":7106:7111   */\n      dup3\n        /* \"#utility.yul\":7102:7156   */\n      and\n        /* \"#utility.yul\":7091:7156   */\n      swap1\n      pop\n        /* \"#utility.yul\":7036:7162   */\n      swap2\n      swap1\n      pop\n      jump\t// out\n        /* \"#utility.yul\":7168:7245   */\n    tag_112:\n        /* \"#utility.yul\":7205:7212   */\n      0x00\n        /* \"#utility.yul\":7234:7239   */\n      dup2\n        /* \"#utility.yul\":7223:7239   */\n      swap1\n      pop\n        /* \"#utility.yul\":7168:7245   */\n      swap2\n      swap1\n      pop\n      jump\t// out\n        /* \"#utility.yul\":7374:7491   */\n    tag_69:\n        /* \"#utility.yul\":7483:7484   */\n      0x00\n        /* \"#utility.yul\":7480:7481   */\n      dup1\n        /* \"#utility.yul\":7473:7485   */\n      revert\n        /* \"#utility.yul\":7497:7669   */\n    tag_93:\n        /* \"#utility.yul\":7637:7661   */\n      0x546f6b656e20616c6c6f7720546f20746f6f206c6f7700000000000000000000\n        /* \"#utility.yul\":7633:7634   */\n      0x00\n        /* \"#utility.yul\":7625:7631   */\n      dup3\n        /* \"#utility.yul\":7621:7635   */\n      add\n        /* \"#utility.yul\":7614:7662   */\n      mstore\n        /* \"#utility.yul\":7497:7669   */\n      pop\n      jump\t// out\n        /* \"#utility.yul\":7675:7849   */\n    tag_98:\n        /* \"#utility.yul\":7815:7841   */\n      0x546f6b656e20616c6c6f772046726f6d20746f6f206c6f770000000000000000\n        /* \"#utility.yul\":7811:7812   */\n      0x00\n        /* \"#utility.yul\":7803:7809   */\n      dup3\n        /* \"#utility.yul\":7799:7813   */\n      add\n        /* \"#utility.yul\":7792:7842   */\n      mstore\n        /* \"#utility.yul\":7675:7849   */\n      pop\n      jump\t// out\n        /* \"#utility.yul\":7855:8026   */\n    tag_103:\n        /* \"#utility.yul\":7995:8018   */\n      0x546f6b656e207472616e73666572206661696c65640000000000000000000000\n        /* \"#utility.yul\":7991:7992   */\n      0x00\n        /* \"#utility.yul\":7983:7989   */\n      dup3\n        /* \"#utility.yul\":7979:7993   */\n      add\n        /* \"#utility.yul\":7972:8019   */\n      mstore\n        /* \"#utility.yul\":7855:8026   */\n      pop\n      jump\t// out\n        /* \"#utility.yul\":8032:8204   */\n    tag_108:\n        /* \"#utility.yul\":8172:8196   */\n      0x416464726573732073776170206e6f742076616c696400000000000000000000\n        /* \"#utility.yul\":8168:8169   */\n      0x00\n        /* \"#utility.yul\":8160:8166   */\n      dup3\n        /* \"#utility.yul\":8156:8170   */\n      add\n        /* \"#utility.yul\":8149:8197   */\n      mstore\n        /* \"#utility.yul\":8032:8204   */\n      pop\n      jump\t// out\n        /* \"#utility.yul\":8210:8332   */\n    tag_54:\n        /* \"#utility.yul\":8283:8307   */\n      tag_146\n        /* \"#utility.yul\":8301:8306   */\n      dup2\n        /* \"#utility.yul\":8283:8307   */\n      tag_87\n      jump\t// in\n    tag_146:\n        /* \"#utility.yul\":8276:8281   */\n      dup2\n        /* \"#utility.yul\":8273:8308   */\n      eq\n        /* \"#utility.yul\":8263:8326   */\n      tag_147\n      jumpi\n        /* \"#utility.yul\":8322:8323   */\n      0x00\n        /* \"#utility.yul\":8319:8320   */\n      dup1\n        /* \"#utility.yul\":8312:8324   */\n      revert\n        /* \"#utility.yul\":8263:8326   */\n    tag_147:\n        /* \"#utility.yul\":8210:8332   */\n      pop\n      jump\t// out\n        /* \"#utility.yul\":8338:8454   */\n    tag_58:\n        /* \"#utility.yul\":8408:8429   */\n      tag_149\n        /* \"#utility.yul\":8423:8428   */\n      dup2\n        /* \"#utility.yul\":8408:8429   */\n      tag_134\n      jump\t// in\n    tag_149:\n        /* \"#utility.yul\":8401:8406   */\n      dup2\n        /* \"#utility.yul\":8398:8430   */\n      eq\n        /* \"#utility.yul\":8388:8448   */\n      tag_150\n      jumpi\n        /* \"#utility.yul\":8444:8445   */\n      0x00\n        /* \"#utility.yul\":8441:8442   */\n      dup1\n        /* \"#utility.yul\":8434:8446   */\n      revert\n        /* \"#utility.yul\":8388:8448   */\n    tag_150:\n        /* \"#utility.yul\":8338:8454   */\n      pop\n      jump\t// out\n        /* \"#utility.yul\":8460:8582   */\n    tag_62:\n        /* \"#utility.yul\":8533:8557   */\n      tag_152\n        /* \"#utility.yul\":8551:8556   */\n      dup2\n        /* \"#utility.yul\":8533:8557   */\n      tag_112\n      jump\t// in\n    tag_152:\n        /* \"#utility.yul\":8526:8531   */\n      dup2\n        /* \"#utility.yul\":8523:8558   */\n      eq\n        /* \"#utility.yul\":8513:8576   */\n      tag_153\n      jumpi\n        /* \"#utility.yul\":8572:8573   */\n      0x00\n        /* \"#utility.yul\":8569:8570   */\n      dup1\n        /* \"#utility.yul\":8562:8574   */\n      revert\n        /* \"#utility.yul\":8513:8576   */\n    tag_153:\n        /* \"#utility.yul\":8460:8582   */\n      pop\n      jump\t// out\n\n    auxdata: 0xa2646970667358221220614b351cbfb6cf13187be63ba9c776a40190672fa501fd45d03dd086557e226164736f6c63430008070033\n}\n",
				"bytecode": {
					"linkReferences": {},
					"object": "608060405234801561001057600080fd5b506108d3806100206000396000f3fe6080604052600436106100225760003560e01c80637ddf33201461002b57610029565b3661002957005b005b34801561003757600080fd5b50610052600480360381019061004d91906104e5565b610054565b005b856000806101000a81548173ffffffffffffffffffffffffffffffffffffffff021916908373ffffffffffffffffffffffffffffffffffffffff16021790555082600160006101000a81548173ffffffffffffffffffffffffffffffffffffffff021916908373ffffffffffffffffffffffffffffffffffffffff1602179055508473ffffffffffffffffffffffffffffffffffffffff163373ffffffffffffffffffffffffffffffffffffffff16148061013a57508173ffffffffffffffffffffffffffffffffffffffff163373ffffffffffffffffffffffffffffffffffffffff16145b610179576040517f08c379a000000000000000000000000000000000000000000000000000000000815260040161017090610736565b60405180910390fd5b8360008054906101000a900473ffffffffffffffffffffffffffffffffffffffff1673ffffffffffffffffffffffffffffffffffffffff1663dd62ed3e87306040518363ffffffff1660e01b81526004016101d5929190610676565b60206040518083038186803b1580156101ed57600080fd5b505afa158015610201573d6000803e3d6000fd5b505050506040513d601f19601f82011682018060405250810190610225919061059f565b1015610266576040517f08c379a000000000000000000000000000000000000000000000000000000000815260040161025d906106f6565b60405180910390fd5b80600160009054906101000a900473ffffffffffffffffffffffffffffffffffffffff1673ffffffffffffffffffffffffffffffffffffffff1663dd62ed3e84306040518363ffffffff1660e01b81526004016102c4929190610676565b60206040518083038186803b1580156102dc57600080fd5b505afa1580156102f0573d6000803e3d6000fd5b505050506040513d601f19601f82011682018060405250810190610314919061059f565b1015610355576040517f08c379a000000000000000000000000000000000000000000000000000000000815260040161034c906106d6565b60405180910390fd5b61038160008054906101000a900473ffffffffffffffffffffffffffffffffffffffff168684876103b7565b6103af600160009054906101000a900473ffffffffffffffffffffffffffffffffffffffff168387846103b7565b505050505050565b60008473ffffffffffffffffffffffffffffffffffffffff166323b872dd8585856040518463ffffffff1660e01b81526004016103f69392919061069f565b602060405180830381600087803b15801561041057600080fd5b505af1158015610424573d6000803e3d6000fd5b505050506040513d601f19601f820116820180604052508101906104489190610572565b90508061048a576040517f08c379a000000000000000000000000000000000000000000000000000000000815260040161048190610716565b60405180910390fd5b5050505050565b6000813590506104a081610858565b92915050565b6000815190506104b58161086f565b92915050565b6000813590506104ca81610886565b92915050565b6000815190506104df81610886565b92915050565b60008060008060008060c08789031215610502576105016107af565b5b600061051089828a01610491565b965050602061052189828a01610491565b955050604061053289828a016104bb565b945050606061054389828a01610491565b935050608061055489828a01610491565b92505060a061056589828a016104bb565b9150509295509295509295565b600060208284031215610588576105876107af565b5b6000610596848285016104a6565b91505092915050565b6000602082840312156105b5576105b46107af565b5b60006105c3848285016104d0565b91505092915050565b6105d581610767565b82525050565b60006105e8601683610756565b91506105f3826107b4565b602082019050919050565b600061060b601883610756565b9150610616826107dd565b602082019050919050565b600061062e601583610756565b915061063982610806565b602082019050919050565b6000610651601683610756565b915061065c8261082f565b602082019050919050565b610670816107a5565b82525050565b600060408201905061068b60008301856105cc565b61069860208301846105cc565b9392505050565b60006060820190506106b460008301866105cc565b6106c160208301856105cc565b6106ce6040830184610667565b949350505050565b600060208201905081810360008301526106ef816105db565b9050919050565b6000602082019050818103600083015261070f816105fe565b9050919050565b6000602082019050818103600083015261072f81610621565b9050919050565b6000602082019050818103600083015261074f81610644565b9050919050565b600082825260208201905092915050565b600061077282610785565b9050919050565b60008115159050919050565b600073ffffffffffffffffffffffffffffffffffffffff82169050919050565b6000819050919050565b600080fd5b7f546f6b656e20616c6c6f7720546f20746f6f206c6f7700000000000000000000600082015250565b7f546f6b656e20616c6c6f772046726f6d20746f6f206c6f770000000000000000600082015250565b7f546f6b656e207472616e73666572206661696c65640000000000000000000000600082015250565b7f416464726573732073776170206e6f742076616c696400000000000000000000600082015250565b61086181610767565b811461086c57600080fd5b50565b61087881610779565b811461088357600080fd5b50565b61088f816107a5565b811461089a57600080fd5b5056fea2646970667358221220614b351cbfb6cf13187be63ba9c776a40190672fa501fd45d03dd086557e226164736f6c63430008070033",
					"opcodes": "PUSH1 0x80 PUSH1 0x40 MSTORE CALLVALUE DUP1 ISZERO PUSH2 0x10 JUMPI PUSH1 0x0 DUP1 REVERT JUMPDEST POP PUSH2 0x8D3 DUP1 PUSH2 0x20 PUSH1 0x0 CODECOPY PUSH1 0x0 RETURN INVALID PUSH1 0x80 PUSH1 0x40 MSTORE PUSH1 0x4 CALLDATASIZE LT PUSH2 0x22 JUMPI PUSH1 0x0 CALLDATALOAD PUSH1 0xE0 SHR DUP1 PUSH4 0x7DDF3320 EQ PUSH2 0x2B JUMPI PUSH2 0x29 JUMP JUMPDEST CALLDATASIZE PUSH2 0x29 JUMPI STOP JUMPDEST STOP JUMPDEST CALLVALUE DUP1 ISZERO PUSH2 0x37 JUMPI PUSH1 0x0 DUP1 REVERT JUMPDEST POP PUSH2 0x52 PUSH1 0x4 DUP1 CALLDATASIZE SUB DUP2 ADD SWAP1 PUSH2 0x4D SWAP2 SWAP1 PUSH2 0x4E5 JUMP JUMPDEST PUSH2 0x54 JUMP JUMPDEST STOP JUMPDEST DUP6 PUSH1 0x0 DUP1 PUSH2 0x100 EXP DUP2 SLOAD DUP2 PUSH20 0xFFFFFFFFFFFFFFFFFFFFFFFFFFFFFFFFFFFFFFFF MUL NOT AND SWAP1 DUP4 PUSH20 0xFFFFFFFFFFFFFFFFFFFFFFFFFFFFFFFFFFFFFFFF AND MUL OR SWAP1 SSTORE POP DUP3 PUSH1 0x1 PUSH1 0x0 PUSH2 0x100 EXP DUP2 SLOAD DUP2 PUSH20 0xFFFFFFFFFFFFFFFFFFFFFFFFFFFFFFFFFFFFFFFF MUL NOT AND SWAP1 DUP4 PUSH20 0xFFFFFFFFFFFFFFFFFFFFFFFFFFFFFFFFFFFFFFFF AND MUL OR SWAP1 SSTORE POP DUP5 PUSH20 0xFFFFFFFFFFFFFFFFFFFFFFFFFFFFFFFFFFFFFFFF AND CALLER PUSH20 0xFFFFFFFFFFFFFFFFFFFFFFFFFFFFFFFFFFFFFFFF AND EQ DUP1 PUSH2 0x13A JUMPI POP DUP2 PUSH20 0xFFFFFFFFFFFFFFFFFFFFFFFFFFFFFFFFFFFFFFFF AND CALLER PUSH20 0xFFFFFFFFFFFFFFFFFFFFFFFFFFFFFFFFFFFFFFFF AND EQ JUMPDEST PUSH2 0x179 JUMPI PUSH1 0x40 MLOAD PUSH32 0x8C379A000000000000000000000000000000000000000000000000000000000 DUP2 MSTORE PUSH1 0x4 ADD PUSH2 0x170 SWAP1 PUSH2 0x736 JUMP JUMPDEST PUSH1 0x40 MLOAD DUP1 SWAP2 SUB SWAP1 REVERT JUMPDEST DUP4 PUSH1 0x0 DUP1 SLOAD SWAP1 PUSH2 0x100 EXP SWAP1 DIV PUSH20 0xFFFFFFFFFFFFFFFFFFFFFFFFFFFFFFFFFFFFFFFF AND PUSH20 0xFFFFFFFFFFFFFFFFFFFFFFFFFFFFFFFFFFFFFFFF AND PUSH4 0xDD62ED3E DUP8 ADDRESS PUSH1 0x40 MLOAD DUP4 PUSH4 0xFFFFFFFF AND PUSH1 0xE0 SHL DUP2 MSTORE PUSH1 0x4 ADD PUSH2 0x1D5 SWAP3 SWAP2 SWAP1 PUSH2 0x676 JUMP JUMPDEST PUSH1 0x20 PUSH1 0x40 MLOAD DUP1 DUP4 SUB DUP2 DUP7 DUP1 EXTCODESIZE ISZERO DUP1 ISZERO PUSH2 0x1ED JUMPI PUSH1 0x0 DUP1 REVERT JUMPDEST POP GAS STATICCALL ISZERO DUP1 ISZERO PUSH2 0x201 JUMPI RETURNDATASIZE PUSH1 0x0 DUP1 RETURNDATACOPY RETURNDATASIZE PUSH1 0x0 REVERT JUMPDEST POP POP POP POP PUSH1 0x40 MLOAD RETURNDATASIZE PUSH1 0x1F NOT PUSH1 0x1F DUP3 ADD AND DUP3 ADD DUP1 PUSH1 0x40 MSTORE POP DUP2 ADD SWAP1 PUSH2 0x225 SWAP2 SWAP1 PUSH2 0x59F JUMP JUMPDEST LT ISZERO PUSH2 0x266 JUMPI PUSH1 0x40 MLOAD PUSH32 0x8C379A000000000000000000000000000000000000000000000000000000000 DUP2 MSTORE PUSH1 0x4 ADD PUSH2 0x25D SWAP1 PUSH2 0x6F6 JUMP JUMPDEST PUSH1 0x40 MLOAD DUP1 SWAP2 SUB SWAP1 REVERT JUMPDEST DUP1 PUSH1 0x1 PUSH1 0x0 SWAP1 SLOAD SWAP1 PUSH2 0x100 EXP SWAP1 DIV PUSH20 0xFFFFFFFFFFFFFFFFFFFFFFFFFFFFFFFFFFFFFFFF AND PUSH20 0xFFFFFFFFFFFFFFFFFFFFFFFFFFFFFFFFFFFFFFFF AND PUSH4 0xDD62ED3E DUP5 ADDRESS PUSH1 0x40 MLOAD DUP4 PUSH4 0xFFFFFFFF AND PUSH1 0xE0 SHL DUP2 MSTORE PUSH1 0x4 ADD PUSH2 0x2C4 SWAP3 SWAP2 SWAP1 PUSH2 0x676 JUMP JUMPDEST PUSH1 0x20 PUSH1 0x40 MLOAD DUP1 DUP4 SUB DUP2 DUP7 DUP1 EXTCODESIZE ISZERO DUP1 ISZERO PUSH2 0x2DC JUMPI PUSH1 0x0 DUP1 REVERT JUMPDEST POP GAS STATICCALL ISZERO DUP1 ISZERO PUSH2 0x2F0 JUMPI RETURNDATASIZE PUSH1 0x0 DUP1 RETURNDATACOPY RETURNDATASIZE PUSH1 0x0 REVERT JUMPDEST POP POP POP POP PUSH1 0x40 MLOAD RETURNDATASIZE PUSH1 0x1F NOT PUSH1 0x1F DUP3 ADD AND DUP3 ADD DUP1 PUSH1 0x40 MSTORE POP DUP2 ADD SWAP1 PUSH2 0x314 SWAP2 SWAP1 PUSH2 0x59F JUMP JUMPDEST LT ISZERO PUSH2 0x355 JUMPI PUSH1 0x40 MLOAD PUSH32 0x8C379A000000000000000000000000000000000000000000000000000000000 DUP2 MSTORE PUSH1 0x4 ADD PUSH2 0x34C SWAP1 PUSH2 0x6D6 JUMP JUMPDEST PUSH1 0x40 MLOAD DUP1 SWAP2 SUB SWAP1 REVERT JUMPDEST PUSH2 0x381 PUSH1 0x0 DUP1 SLOAD SWAP1 PUSH2 0x100 EXP SWAP1 DIV PUSH20 0xFFFFFFFFFFFFFFFFFFFFFFFFFFFFFFFFFFFFFFFF AND DUP7 DUP5 DUP8 PUSH2 0x3B7 JUMP JUMPDEST PUSH2 0x3AF PUSH1 0x1 PUSH1 0x0 SWAP1 SLOAD SWAP1 PUSH2 0x100 EXP SWAP1 DIV PUSH20 0xFFFFFFFFFFFFFFFFFFFFFFFFFFFFFFFFFFFFFFFF AND DUP4 DUP8 DUP5 PUSH2 0x3B7 JUMP JUMPDEST POP POP POP POP POP POP JUMP JUMPDEST PUSH1 0x0 DUP5 PUSH20 0xFFFFFFFFFFFFFFFFFFFFFFFFFFFFFFFFFFFFFFFF AND PUSH4 0x23B872DD DUP6 DUP6 DUP6 PUSH1 0x40 MLOAD DUP5 PUSH4 0xFFFFFFFF AND PUSH1 0xE0 SHL DUP2 MSTORE PUSH1 0x4 ADD PUSH2 0x3F6 SWAP4 SWAP3 SWAP2 SWAP1 PUSH2 0x69F JUMP JUMPDEST PUSH1 0x20 PUSH1 0x40 MLOAD DUP1 DUP4 SUB DUP2 PUSH1 0x0 DUP8 DUP1 EXTCODESIZE ISZERO DUP1 ISZERO PUSH2 0x410 JUMPI PUSH1 0x0 DUP1 REVERT JUMPDEST POP GAS CALL ISZERO DUP1 ISZERO PUSH2 0x424 JUMPI RETURNDATASIZE PUSH1 0x0 DUP1 RETURNDATACOPY RETURNDATASIZE PUSH1 0x0 REVERT JUMPDEST POP POP POP POP PUSH1 0x40 MLOAD RETURNDATASIZE PUSH1 0x1F NOT PUSH1 0x1F DUP3 ADD AND DUP3 ADD DUP1 PUSH1 0x40 MSTORE POP DUP2 ADD SWAP1 PUSH2 0x448 SWAP2 SWAP1 PUSH2 0x572 JUMP JUMPDEST SWAP1 POP DUP1 PUSH2 0x48A JUMPI PUSH1 0x40 MLOAD PUSH32 0x8C379A000000000000000000000000000000000000000000000000000000000 DUP2 MSTORE PUSH1 0x4 ADD PUSH2 0x481 SWAP1 PUSH2 0x716 JUMP JUMPDEST PUSH1 0x40 MLOAD DUP1 SWAP2 SUB SWAP1 REVERT JUMPDEST POP POP POP POP POP JUMP JUMPDEST PUSH1 0x0 DUP2 CALLDATALOAD SWAP1 POP PUSH2 0x4A0 DUP2 PUSH2 0x858 JUMP JUMPDEST SWAP3 SWAP2 POP POP JUMP JUMPDEST PUSH1 0x0 DUP2 MLOAD SWAP1 POP PUSH2 0x4B5 DUP2 PUSH2 0x86F JUMP JUMPDEST SWAP3 SWAP2 POP POP JUMP JUMPDEST PUSH1 0x0 DUP2 CALLDATALOAD SWAP1 POP PUSH2 0x4CA DUP2 PUSH2 0x886 JUMP JUMPDEST SWAP3 SWAP2 POP POP JUMP JUMPDEST PUSH1 0x0 DUP2 MLOAD SWAP1 POP PUSH2 0x4DF DUP2 PUSH2 0x886 JUMP JUMPDEST SWAP3 SWAP2 POP POP JUMP JUMPDEST PUSH1 0x0 DUP1 PUSH1 0x0 DUP1 PUSH1 0x0 DUP1 PUSH1 0xC0 DUP8 DUP10 SUB SLT ISZERO PUSH2 0x502 JUMPI PUSH2 0x501 PUSH2 0x7AF JUMP JUMPDEST JUMPDEST PUSH1 0x0 PUSH2 0x510 DUP10 DUP3 DUP11 ADD PUSH2 0x491 JUMP JUMPDEST SWAP7 POP POP PUSH1 0x20 PUSH2 0x521 DUP10 DUP3 DUP11 ADD PUSH2 0x491 JUMP JUMPDEST SWAP6 POP POP PUSH1 0x40 PUSH2 0x532 DUP10 DUP3 DUP11 ADD PUSH2 0x4BB JUMP JUMPDEST SWAP5 POP POP PUSH1 0x60 PUSH2 0x543 DUP10 DUP3 DUP11 ADD PUSH2 0x491 JUMP JUMPDEST SWAP4 POP POP PUSH1 0x80 PUSH2 0x554 DUP10 DUP3 DUP11 ADD PUSH2 0x491 JUMP JUMPDEST SWAP3 POP POP PUSH1 0xA0 PUSH2 0x565 DUP10 DUP3 DUP11 ADD PUSH2 0x4BB JUMP JUMPDEST SWAP2 POP POP SWAP3 SWAP6 POP SWAP3 SWAP6 POP SWAP3 SWAP6 JUMP JUMPDEST PUSH1 0x0 PUSH1 0x20 DUP3 DUP5 SUB SLT ISZERO PUSH2 0x588 JUMPI PUSH2 0x587 PUSH2 0x7AF JUMP JUMPDEST JUMPDEST PUSH1 0x0 PUSH2 0x596 DUP5 DUP3 DUP6 ADD PUSH2 0x4A6 JUMP JUMPDEST SWAP2 POP POP SWAP3 SWAP2 POP POP JUMP JUMPDEST PUSH1 0x0 PUSH1 0x20 DUP3 DUP5 SUB SLT ISZERO PUSH2 0x5B5 JUMPI PUSH2 0x5B4 PUSH2 0x7AF JUMP JUMPDEST JUMPDEST PUSH1 0x0 PUSH2 0x5C3 DUP5 DUP3 DUP6 ADD PUSH2 0x4D0 JUMP JUMPDEST SWAP2 POP POP SWAP3 SWAP2 POP POP JUMP JUMPDEST PUSH2 0x5D5 DUP2 PUSH2 0x767 JUMP JUMPDEST DUP3 MSTORE POP POP JUMP JUMPDEST PUSH1 0x0 PUSH2 0x5E8 PUSH1 0x16 DUP4 PUSH2 0x756 JUMP JUMPDEST SWAP2 POP PUSH2 0x5F3 DUP3 PUSH2 0x7B4 JUMP JUMPDEST PUSH1 0x20 DUP3 ADD SWAP1 POP SWAP2 SWAP1 POP JUMP JUMPDEST PUSH1 0x0 PUSH2 0x60B PUSH1 0x18 DUP4 PUSH2 0x756 JUMP JUMPDEST SWAP2 POP PUSH2 0x616 DUP3 PUSH2 0x7DD JUMP JUMPDEST PUSH1 0x20 DUP3 ADD SWAP1 POP SWAP2 SWAP1 POP JUMP JUMPDEST PUSH1 0x0 PUSH2 0x62E PUSH1 0x15 DUP4 PUSH2 0x756 JUMP JUMPDEST SWAP2 POP PUSH2 0x639 DUP3 PUSH2 0x806 JUMP JUMPDEST PUSH1 0x20 DUP3 ADD SWAP1 POP SWAP2 SWAP1 POP JUMP JUMPDEST PUSH1 0x0 PUSH2 0x651 PUSH1 0x16 DUP4 PUSH2 0x756 JUMP JUMPDEST SWAP2 POP PUSH2 0x65C DUP3 PUSH2 0x82F JUMP JUMPDEST PUSH1 0x20 DUP3 ADD SWAP1 POP SWAP2 SWAP1 POP JUMP JUMPDEST PUSH2 0x670 DUP2 PUSH2 0x7A5 JUMP JUMPDEST DUP3 MSTORE POP POP JUMP JUMPDEST PUSH1 0x0 PUSH1 0x40 DUP3 ADD SWAP1 POP PUSH2 0x68B PUSH1 0x0 DUP4 ADD DUP6 PUSH2 0x5CC JUMP JUMPDEST PUSH2 0x698 PUSH1 0x20 DUP4 ADD DUP5 PUSH2 0x5CC JUMP JUMPDEST SWAP4 SWAP3 POP POP POP JUMP JUMPDEST PUSH1 0x0 PUSH1 0x60 DUP3 ADD SWAP1 POP PUSH2 0x6B4 PUSH1 0x0 DUP4 ADD DUP7 PUSH2 0x5CC JUMP JUMPDEST PUSH2 0x6C1 PUSH1 0x20 DUP4 ADD DUP6 PUSH2 0x5CC JUMP JUMPDEST PUSH2 0x6CE PUSH1 0x40 DUP4 ADD DUP5 PUSH2 0x667 JUMP JUMPDEST SWAP5 SWAP4 POP POP POP POP JUMP JUMPDEST PUSH1 0x0 PUSH1 0x20 DUP3 ADD SWAP1 POP DUP2 DUP2 SUB PUSH1 0x0 DUP4 ADD MSTORE PUSH2 0x6EF DUP2 PUSH2 0x5DB JUMP JUMPDEST SWAP1 POP SWAP2 SWAP1 POP JUMP JUMPDEST PUSH1 0x0 PUSH1 0x20 DUP3 ADD SWAP1 POP DUP2 DUP2 SUB PUSH1 0x0 DUP4 ADD MSTORE PUSH2 0x70F DUP2 PUSH2 0x5FE JUMP JUMPDEST SWAP1 POP SWAP2 SWAP1 POP JUMP JUMPDEST PUSH1 0x0 PUSH1 0x20 DUP3 ADD SWAP1 POP DUP2 DUP2 SUB PUSH1 0x0 DUP4 ADD MSTORE PUSH2 0x72F DUP2 PUSH2 0x621 JUMP JUMPDEST SWAP1 POP SWAP2 SWAP1 POP JUMP JUMPDEST PUSH1 0x0 PUSH1 0x20 DUP3 ADD SWAP1 POP DUP2 DUP2 SUB PUSH1 0x0 DUP4 ADD MSTORE PUSH2 0x74F DUP2 PUSH2 0x644 JUMP JUMPDEST SWAP1 POP SWAP2 SWAP1 POP JUMP JUMPDEST PUSH1 0x0 DUP3 DUP3 MSTORE PUSH1 0x20 DUP3 ADD SWAP1 POP SWAP3 SWAP2 POP POP JUMP JUMPDEST PUSH1 0x0 PUSH2 0x772 DUP3 PUSH2 0x785 JUMP JUMPDEST SWAP1 POP SWAP2 SWAP1 POP JUMP JUMPDEST PUSH1 0x0 DUP2 ISZERO ISZERO SWAP1 POP SWAP2 SWAP1 POP JUMP JUMPDEST PUSH1 0x0 PUSH20 0xFFFFFFFFFFFFFFFFFFFFFFFFFFFFFFFFFFFFFFFF DUP3 AND SWAP1 POP SWAP2 SWAP1 POP JUMP JUMPDEST PUSH1 0x0 DUP2 SWAP1 POP SWAP2 SWAP1 POP JUMP JUMPDEST PUSH1 0x0 DUP1 REVERT JUMPDEST PUSH32 0x546F6B656E20616C6C6F7720546F20746F6F206C6F7700000000000000000000 PUSH1 0x0 DUP3 ADD MSTORE POP JUMP JUMPDEST PUSH32 0x546F6B656E20616C6C6F772046726F6D20746F6F206C6F770000000000000000 PUSH1 0x0 DUP3 ADD MSTORE POP JUMP JUMPDEST PUSH32 0x546F6B656E207472616E73666572206661696C65640000000000000000000000 PUSH1 0x0 DUP3 ADD MSTORE POP JUMP JUMPDEST PUSH32 0x416464726573732073776170206E6F742076616C696400000000000000000000 PUSH1 0x0 DUP3 ADD MSTORE POP JUMP JUMPDEST PUSH2 0x861 DUP2 PUSH2 0x767 JUMP JUMPDEST DUP2 EQ PUSH2 0x86C JUMPI PUSH1 0x0 DUP1 REVERT JUMPDEST POP JUMP JUMPDEST PUSH2 0x878 DUP2 PUSH2 0x779 JUMP JUMPDEST DUP2 EQ PUSH2 0x883 JUMPI PUSH1 0x0 DUP1 REVERT JUMPDEST POP JUMP JUMPDEST PUSH2 0x88F DUP2 PUSH2 0x7A5 JUMP JUMPDEST DUP2 EQ PUSH2 0x89A JUMPI PUSH1 0x0 DUP1 REVERT JUMPDEST POP JUMP INVALID LOG2 PUSH5 0x6970667358 0x22 SLT KECCAK256 PUSH2 0x4B35 SHR 0xBF 0xB6 0xCF SGT XOR PUSH28 0xE63BA9C776A40190672FA501FD45D03DD086557E226164736F6C6343 STOP ADDMOD SMOD STOP CALLER "
				},
				"gasEstimates": {
					"creation": {
						"codeDepositCost": "451800",
						"executionCost": "486",
						"totalCost": "452286"
					},
					"external": {
						"": "85",
						"swap(address,address,uint256,address,address,uint256)": "infinite"
					},
					"internal": {
						"_safeTransferFrom(contract IERC20,address,address,uint256)": "infinite"
					}
				},
				"methodIdentifiers": {
					"swap(address,address,uint256,address,address,uint256)": "7ddf3320"
				}
			},
			"userdoc": {
				"kind": "user",
				"methods": {},
				"version": 1
			}
		}
	}
}