{
	"contracts/Hero.sol": {
		"Hero": {
			"abi": [
				{
					"inputs": [
						{
							"internalType": "string",
							"name": "_hero",
							"type": "string"
						}
					],
					"stateMutability": "nonpayable",
					"type": "constructor"
				},
				{
					"inputs": [],
					"name": "getHero",
					"outputs": [
						{
							"internalType": "string",
							"name": "",
							"type": "string"
						}
					],
					"stateMutability": "view",
					"type": "function"
				},
				{
					"inputs": [
						{
							"internalType": "string",
							"name": "_hero",
							"type": "string"
						}
					],
					"name": "setHero",
					"outputs": [],
					"stateMutability": "nonpayable",
					"type": "function"
				}
			],
			"devdoc": {
				"kind": "dev",
				"methods": {},
				"version": 1
			},
			"evm": {
				"assembly": "    /* \"contracts/Hero.sol\":66:447  contract Hero{... */\n  mstore(0x40, 0x80)\n    /* \"contracts/Hero.sol\":121:211  constructor(string memory _hero)... */\n  callvalue\n  dup1\n  iszero\n  tag_1\n  jumpi\n  0x00\n  dup1\n  revert\ntag_1:\n  pop\n  mload(0x40)\n  sub(codesize, bytecodeSize)\n  dup1\n  bytecodeSize\n  dup4\n  codecopy\n  dup2\n  dup2\n  add\n  0x40\n  mstore\n  dup2\n  add\n  swap1\n  tag_2\n  swap2\n  swap1\n  tag_3\n  jump\t// in\ntag_2:\n    /* \"contracts/Hero.sol\":174:184  msg.sender */\n  caller\n    /* \"contracts/Hero.sol\":168:173  owner */\n  0x00\n  dup1\n    /* \"contracts/Hero.sol\":168:184  owner=msg.sender */\n  0x0100\n  exp\n  dup2\n  sload\n  dup2\n  0xffffffffffffffffffffffffffffffffffffffff\n  mul\n  not\n  and\n  swap1\n  dup4\n  0xffffffffffffffffffffffffffffffffffffffff\n  and\n  mul\n  or\n  swap1\n  sstore\n  pop\n    /* \"contracts/Hero.sol\":199:204  _hero */\n  dup1\n    /* \"contracts/Hero.sol\":194:198  hero */\n  0x01\n    /* \"contracts/Hero.sol\":194:204  hero=_hero */\n  swap1\n  dup1\n  mload\n  swap1\n  0x20\n  add\n  swap1\n  tag_6\n  swap3\n  swap2\n  swap1\n  tag_7\n  jump\t// in\ntag_6:\n  pop\n    /* \"contracts/Hero.sol\":121:211  constructor(string memory _hero)... */\n  pop\n    /* \"contracts/Hero.sol\":66:447  contract Hero{... */\n  jump(tag_8)\ntag_7:\n  dup3\n  dup1\n  sload\n  tag_9\n  swap1\n  tag_10\n  jump\t// in\ntag_9:\n  swap1\n  0x00\n  mstore\n  keccak256(0x00, 0x20)\n  swap1\n  0x1f\n  add\n  0x20\n  swap1\n  div\n  dup2\n  add\n  swap3\n  dup3\n  tag_12\n  jumpi\n  0x00\n  dup6\n  sstore\n  jump(tag_11)\ntag_12:\n  dup3\n  0x1f\n  lt\n  tag_13\n  jumpi\n  dup1\n  mload\n  not(0xff)\n  and\n  dup4\n  dup1\n  add\n  or\n  dup6\n  sstore\n  jump(tag_11)\ntag_13:\n  dup3\n  dup1\n  add\n  0x01\n  add\n  dup6\n  sstore\n  dup3\n  iszero\n  tag_11\n  jumpi\n  swap2\n  dup3\n  add\ntag_14:\n  dup3\n  dup2\n  gt\n  iszero\n  tag_15\n  jumpi\n  dup3\n  mload\n  dup3\n  sstore\n  swap2\n  0x20\n  add\n  swap2\n  swap1\n  0x01\n  add\n  swap1\n  jump(tag_14)\ntag_15:\ntag_11:\n  pop\n  swap1\n  pop\n  tag_16\n  swap2\n  swap1\n  tag_17\n  jump\t// in\ntag_16:\n  pop\n  swap1\n  jump\t// out\ntag_17:\ntag_18:\n  dup1\n  dup3\n  gt\n  iszero\n  tag_19\n  jumpi\n  0x00\n  dup2\n  0x00\n  swap1\n  sstore\n  pop\n  0x01\n  add\n  jump(tag_18)\ntag_19:\n  pop\n  swap1\n  jump\t// out\n    /* \"#utility.yul\":7:428   */\ntag_21:\n    /* \"#utility.yul\":96:101   */\n  0x00\n    /* \"#utility.yul\":121:187   */\n  tag_23\n    /* \"#utility.yul\":137:186   */\n  tag_24\n    /* \"#utility.yul\":179:185   */\n  dup5\n    /* \"#utility.yul\":137:186   */\n  tag_25\n  jump\t// in\ntag_24:\n    /* \"#utility.yul\":121:187   */\n  tag_26\n  jump\t// in\ntag_23:\n    /* \"#utility.yul\":112:187   */\n  swap1\n  pop\n    /* \"#utility.yul\":210:216   */\n  dup3\n    /* \"#utility.yul\":203:208   */\n  dup2\n    /* \"#utility.yul\":196:217   */\n  mstore\n    /* \"#utility.yul\":248:252   */\n  0x20\n    /* \"#utility.yul\":241:246   */\n  dup2\n    /* \"#utility.yul\":237:253   */\n  add\n    /* \"#utility.yul\":286:289   */\n  dup5\n    /* \"#utility.yul\":277:283   */\n  dup5\n    /* \"#utility.yul\":272:275   */\n  dup5\n    /* \"#utility.yul\":268:284   */\n  add\n    /* \"#utility.yul\":265:290   */\n  gt\n    /* \"#utility.yul\":262:374   */\n  iszero\n  tag_27\n  jumpi\n    /* \"#utility.yul\":293:372   */\n  tag_28\n  tag_29\n  jump\t// in\ntag_28:\n    /* \"#utility.yul\":262:374   */\ntag_27:\n    /* \"#utility.yul\":383:422   */\n  tag_30\n    /* \"#utility.yul\":415:421   */\n  dup5\n    /* \"#utility.yul\":410:413   */\n  dup3\n    /* \"#utility.yul\":405:408   */\n  dup6\n    /* \"#utility.yul\":383:422   */\n  tag_31\n  jump\t// in\ntag_30:\n    /* \"#utility.yul\":102:428   */\n  pop\n    /* \"#utility.yul\":7:428   */\n  swap4\n  swap3\n  pop\n  pop\n  pop\n  jump\t// out\n    /* \"#utility.yul\":448:803   */\ntag_32:\n    /* \"#utility.yul\":515:520   */\n  0x00\n    /* \"#utility.yul\":564:567   */\n  dup3\n    /* \"#utility.yul\":557:561   */\n  0x1f\n    /* \"#utility.yul\":549:555   */\n  dup4\n    /* \"#utility.yul\":545:562   */\n  add\n    /* \"#utility.yul\":541:568   */\n  slt\n    /* \"#utility.yul\":531:653   */\n  tag_34\n  jumpi\n    /* \"#utility.yul\":572:651   */\n  tag_35\n  tag_36\n  jump\t// in\ntag_35:\n    /* \"#utility.yul\":531:653   */\ntag_34:\n    /* \"#utility.yul\":682:688   */\n  dup2\n    /* \"#utility.yul\":676:689   */\n  mload\n    /* \"#utility.yul\":707:797   */\n  tag_37\n    /* \"#utility.yul\":793:796   */\n  dup5\n    /* \"#utility.yul\":785:791   */\n  dup3\n    /* \"#utility.yul\":778:782   */\n  0x20\n    /* \"#utility.yul\":770:776   */\n  dup7\n    /* \"#utility.yul\":766:783   */\n  add\n    /* \"#utility.yul\":707:797   */\n  tag_21\n  jump\t// in\ntag_37:\n    /* \"#utility.yul\":698:797   */\n  swap2\n  pop\n    /* \"#utility.yul\":521:803   */\n  pop\n    /* \"#utility.yul\":448:803   */\n  swap3\n  swap2\n  pop\n  pop\n  jump\t// out\n    /* \"#utility.yul\":809:1333   */\ntag_3:\n    /* \"#utility.yul\":889:895   */\n  0x00\n    /* \"#utility.yul\":938:940   */\n  0x20\n    /* \"#utility.yul\":926:935   */\n  dup3\n    /* \"#utility.yul\":917:924   */\n  dup5\n    /* \"#utility.yul\":913:936   */\n  sub\n    /* \"#utility.yul\":909:941   */\n  slt\n    /* \"#utility.yul\":906:1025   */\n  iszero\n  tag_39\n  jumpi\n    /* \"#utility.yul\":944:1023   */\n  tag_40\n  tag_41\n  jump\t// in\ntag_40:\n    /* \"#utility.yul\":906:1025   */\ntag_39:\n    /* \"#utility.yul\":1085:1086   */\n  0x00\n    /* \"#utility.yul\":1074:1083   */\n  dup3\n    /* \"#utility.yul\":1070:1087   */\n  add\n    /* \"#utility.yul\":1064:1088   */\n  mload\n    /* \"#utility.yul\":1115:1133   */\n  0xffffffffffffffff\n    /* \"#utility.yul\":1107:1113   */\n  dup2\n    /* \"#utility.yul\":1104:1134   */\n  gt\n    /* \"#utility.yul\":1101:1218   */\n  iszero\n  tag_42\n  jumpi\n    /* \"#utility.yul\":1137:1216   */\n  tag_43\n  tag_44\n  jump\t// in\ntag_43:\n    /* \"#utility.yul\":1101:1218   */\ntag_42:\n    /* \"#utility.yul\":1242:1316   */\n  tag_45\n    /* \"#utility.yul\":1308:1315   */\n  dup5\n    /* \"#utility.yul\":1299:1305   */\n  dup3\n    /* \"#utility.yul\":1288:1297   */\n  dup6\n    /* \"#utility.yul\":1284:1306   */\n  add\n    /* \"#utility.yul\":1242:1316   */\n  tag_32\n  jump\t// in\ntag_45:\n    /* \"#utility.yul\":1232:1316   */\n  swap2\n  pop\n    /* \"#utility.yul\":1035:1326   */\n  pop\n    /* \"#utility.yul\":809:1333   */\n  swap3\n  swap2\n  pop\n  pop\n  jump\t// out\n    /* \"#utility.yul\":1339:1468   */\ntag_26:\n    /* \"#utility.yul\":1373:1379   */\n  0x00\n    /* \"#utility.yul\":1400:1420   */\n  tag_47\n  tag_48\n  jump\t// in\ntag_47:\n    /* \"#utility.yul\":1390:1420   */\n  swap1\n  pop\n    /* \"#utility.yul\":1429:1462   */\n  tag_49\n    /* \"#utility.yul\":1457:1461   */\n  dup3\n    /* \"#utility.yul\":1449:1455   */\n  dup3\n    /* \"#utility.yul\":1429:1462   */\n  tag_50\n  jump\t// in\ntag_49:\n    /* \"#utility.yul\":1339:1468   */\n  swap2\n  swap1\n  pop\n  jump\t// out\n    /* \"#utility.yul\":1474:1549   */\ntag_48:\n    /* \"#utility.yul\":1507:1513   */\n  0x00\n    /* \"#utility.yul\":1540:1542   */\n  0x40\n    /* \"#utility.yul\":1534:1543   */\n  mload\n    /* \"#utility.yul\":1524:1543   */\n  swap1\n  pop\n    /* \"#utility.yul\":1474:1549   */\n  swap1\n  jump\t// out\n    /* \"#utility.yul\":1555:1863   */\ntag_25:\n    /* \"#utility.yul\":1617:1621   */\n  0x00\n    /* \"#utility.yul\":1707:1725   */\n  0xffffffffffffffff\n    /* \"#utility.yul\":1699:1705   */\n  dup3\n    /* \"#utility.yul\":1696:1726   */\n  gt\n    /* \"#utility.yul\":1693:1749   */\n  iszero\n  tag_53\n  jumpi\n    /* \"#utility.yul\":1729:1747   */\n  tag_54\n  tag_55\n  jump\t// in\ntag_54:\n    /* \"#utility.yul\":1693:1749   */\ntag_53:\n    /* \"#utility.yul\":1767:1796   */\n  tag_56\n    /* \"#utility.yul\":1789:1795   */\n  dup3\n    /* \"#utility.yul\":1767:1796   */\n  tag_57\n  jump\t// in\ntag_56:\n    /* \"#utility.yul\":1759:1796   */\n  swap1\n  pop\n    /* \"#utility.yul\":1851:1855   */\n  0x20\n    /* \"#utility.yul\":1845:1849   */\n  dup2\n    /* \"#utility.yul\":1841:1856   */\n  add\n    /* \"#utility.yul\":1833:1856   */\n  swap1\n  pop\n    /* \"#utility.yul\":1555:1863   */\n  swap2\n  swap1\n  pop\n  jump\t// out\n    /* \"#utility.yul\":1869:2176   */\ntag_31:\n    /* \"#utility.yul\":1937:1938   */\n  0x00\n    /* \"#utility.yul\":1947:2060   */\ntag_59:\n    /* \"#utility.yul\":1961:1967   */\n  dup4\n    /* \"#utility.yul\":1958:1959   */\n  dup2\n    /* \"#utility.yul\":1955:1968   */\n  lt\n    /* \"#utility.yul\":1947:2060   */\n  iszero\n  tag_61\n  jumpi\n    /* \"#utility.yul\":2046:2047   */\n  dup1\n    /* \"#utility.yul\":2041:2044   */\n  dup3\n    /* \"#utility.yul\":2037:2048   */\n  add\n    /* \"#utility.yul\":2031:2049   */\n  mload\n    /* \"#utility.yul\":2027:2028   */\n  dup2\n    /* \"#utility.yul\":2022:2025   */\n  dup5\n    /* \"#utility.yul\":2018:2029   */\n  add\n    /* \"#utility.yul\":2011:2050   */\n  mstore\n    /* \"#utility.yul\":1983:1985   */\n  0x20\n    /* \"#utility.yul\":1980:1981   */\n  dup2\n    /* \"#utility.yul\":1976:1986   */\n  add\n    /* \"#utility.yul\":1971:1986   */\n  swap1\n  pop\n    /* \"#utility.yul\":1947:2060   */\n  jump(tag_59)\ntag_61:\n    /* \"#utility.yul\":2078:2084   */\n  dup4\n    /* \"#utility.yul\":2075:2076   */\n  dup2\n    /* \"#utility.yul\":2072:2085   */\n  gt\n    /* \"#utility.yul\":2069:2170   */\n  iszero\n  tag_62\n  jumpi\n    /* \"#utility.yul\":2158:2159   */\n  0x00\n    /* \"#utility.yul\":2149:2155   */\n  dup5\n    /* \"#utility.yul\":2144:2147   */\n  dup5\n    /* \"#utility.yul\":2140:2156   */\n  add\n    /* \"#utility.yul\":2133:2160   */\n  mstore\n    /* \"#utility.yul\":2069:2170   */\ntag_62:\n    /* \"#utility.yul\":1918:2176   */\n  pop\n    /* \"#utility.yul\":1869:2176   */\n  pop\n  pop\n  pop\n  jump\t// out\n    /* \"#utility.yul\":2182:2502   */\ntag_10:\n    /* \"#utility.yul\":2226:2232   */\n  0x00\n    /* \"#utility.yul\":2263:2264   */\n  0x02\n    /* \"#utility.yul\":2257:2261   */\n  dup3\n    /* \"#utility.yul\":2253:2265   */\n  div\n    /* \"#utility.yul\":2243:2265   */\n  swap1\n  pop\n    /* \"#utility.yul\":2310:2311   */\n  0x01\n    /* \"#utility.yul\":2304:2308   */\n  dup3\n    /* \"#utility.yul\":2300:2312   */\n  and\n    /* \"#utility.yul\":2331:2349   */\n  dup1\n    /* \"#utility.yul\":2321:2402   */\n  tag_64\n  jumpi\n    /* \"#utility.yul\":2387:2391   */\n  0x7f\n    /* \"#utility.yul\":2379:2385   */\n  dup3\n    /* \"#utility.yul\":2375:2392   */\n  and\n    /* \"#utility.yul\":2365:2392   */\n  swap2\n  pop\n    /* \"#utility.yul\":2321:2402   */\ntag_64:\n    /* \"#utility.yul\":2449:2451   */\n  0x20\n    /* \"#utility.yul\":2441:2447   */\n  dup3\n    /* \"#utility.yul\":2438:2452   */\n  lt\n    /* \"#utility.yul\":2418:2436   */\n  dup2\n    /* \"#utility.yul\":2415:2453   */\n  eq\n    /* \"#utility.yul\":2412:2496   */\n  iszero\n  tag_65\n  jumpi\n    /* \"#utility.yul\":2468:2486   */\n  tag_66\n  tag_67\n  jump\t// in\ntag_66:\n    /* \"#utility.yul\":2412:2496   */\ntag_65:\n    /* \"#utility.yul\":2233:2502   */\n  pop\n    /* \"#utility.yul\":2182:2502   */\n  swap2\n  swap1\n  pop\n  jump\t// out\n    /* \"#utility.yul\":2508:2789   */\ntag_50:\n    /* \"#utility.yul\":2591:2618   */\n  tag_69\n    /* \"#utility.yul\":2613:2617   */\n  dup3\n    /* \"#utility.yul\":2591:2618   */\n  tag_57\n  jump\t// in\ntag_69:\n    /* \"#utility.yul\":2583:2589   */\n  dup2\n    /* \"#utility.yul\":2579:2619   */\n  add\n    /* \"#utility.yul\":2721:2727   */\n  dup2\n    /* \"#utility.yul\":2709:2719   */\n  dup2\n    /* \"#utility.yul\":2706:2728   */\n  lt\n    /* \"#utility.yul\":2685:2703   */\n  0xffffffffffffffff\n    /* \"#utility.yul\":2673:2683   */\n  dup3\n    /* \"#utility.yul\":2670:2704   */\n  gt\n    /* \"#utility.yul\":2667:2729   */\n  or\n    /* \"#utility.yul\":2664:2752   */\n  iszero\n  tag_70\n  jumpi\n    /* \"#utility.yul\":2732:2750   */\n  tag_71\n  tag_55\n  jump\t// in\ntag_71:\n    /* \"#utility.yul\":2664:2752   */\ntag_70:\n    /* \"#utility.yul\":2772:2782   */\n  dup1\n    /* \"#utility.yul\":2768:2770   */\n  0x40\n    /* \"#utility.yul\":2761:2783   */\n  mstore\n    /* \"#utility.yul\":2551:2789   */\n  pop\n    /* \"#utility.yul\":2508:2789   */\n  pop\n  pop\n  jump\t// out\n    /* \"#utility.yul\":2795:2975   */\ntag_67:\n    /* \"#utility.yul\":2843:2920   */\n  0x4e487b7100000000000000000000000000000000000000000000000000000000\n    /* \"#utility.yul\":2840:2841   */\n  0x00\n    /* \"#utility.yul\":2833:2921   */\n  mstore\n    /* \"#utility.yul\":2940:2944   */\n  0x22\n    /* \"#utility.yul\":2937:2938   */\n  0x04\n    /* \"#utility.yul\":2930:2945   */\n  mstore\n    /* \"#utility.yul\":2964:2968   */\n  0x24\n    /* \"#utility.yul\":2961:2962   */\n  0x00\n    /* \"#utility.yul\":2954:2969   */\n  revert\n    /* \"#utility.yul\":2981:3161   */\ntag_55:\n    /* \"#utility.yul\":3029:3106   */\n  0x4e487b7100000000000000000000000000000000000000000000000000000000\n    /* \"#utility.yul\":3026:3027   */\n  0x00\n    /* \"#utility.yul\":3019:3107   */\n  mstore\n    /* \"#utility.yul\":3126:3130   */\n  0x41\n    /* \"#utility.yul\":3123:3124   */\n  0x04\n    /* \"#utility.yul\":3116:3131   */\n  mstore\n    /* \"#utility.yul\":3150:3154   */\n  0x24\n    /* \"#utility.yul\":3147:3148   */\n  0x00\n    /* \"#utility.yul\":3140:3155   */\n  revert\n    /* \"#utility.yul\":3167:3284   */\ntag_36:\n    /* \"#utility.yul\":3276:3277   */\n  0x00\n    /* \"#utility.yul\":3273:3274   */\n  dup1\n    /* \"#utility.yul\":3266:3278   */\n  revert\n    /* \"#utility.yul\":3290:3407   */\ntag_29:\n    /* \"#utility.yul\":3399:3400   */\n  0x00\n    /* \"#utility.yul\":3396:3397   */\n  dup1\n    /* \"#utility.yul\":3389:3401   */\n  revert\n    /* \"#utility.yul\":3413:3530   */\ntag_44:\n    /* \"#utility.yul\":3522:3523   */\n  0x00\n    /* \"#utility.yul\":3519:3520   */\n  dup1\n    /* \"#utility.yul\":3512:3524   */\n  revert\n    /* \"#utility.yul\":3536:3653   */\ntag_41:\n    /* \"#utility.yul\":3645:3646   */\n  0x00\n    /* \"#utility.yul\":3642:3643   */\n  dup1\n    /* \"#utility.yul\":3635:3647   */\n  revert\n    /* \"#utility.yul\":3659:3761   */\ntag_57:\n    /* \"#utility.yul\":3700:3706   */\n  0x00\n    /* \"#utility.yul\":3751:3753   */\n  0x1f\n    /* \"#utility.yul\":3747:3754   */\n  not\n    /* \"#utility.yul\":3742:3744   */\n  0x1f\n    /* \"#utility.yul\":3735:3740   */\n  dup4\n    /* \"#utility.yul\":3731:3745   */\n  add\n    /* \"#utility.yul\":3727:3755   */\n  and\n    /* \"#utility.yul\":3717:3755   */\n  swap1\n  pop\n    /* \"#utility.yul\":3659:3761   */\n  swap2\n  swap1\n  pop\n  jump\t// out\n    /* \"contracts/Hero.sol\":66:447  contract Hero{... */\ntag_8:\n  dataSize(sub_0)\n  dup1\n  dataOffset(sub_0)\n  0x00\n  codecopy\n  0x00\n  return\nstop\n\nsub_0: assembly {\n        /* \"contracts/Hero.sol\":66:447  contract Hero{... */\n      mstore(0x40, 0x80)\n      callvalue\n      dup1\n      iszero\n      tag_1\n      jumpi\n      0x00\n      dup1\n      revert\n    tag_1:\n      pop\n      jumpi(tag_2, lt(calldatasize, 0x04))\n      shr(0xe0, calldataload(0x00))\n      dup1\n      0x1a126e14\n      eq\n      tag_3\n      jumpi\n      dup1\n      0x581bee2f\n      eq\n      tag_4\n      jumpi\n    tag_2:\n      0x00\n      dup1\n      revert\n        /* \"contracts/Hero.sol\":221:349  function setHero(string memory _hero)public... */\n    tag_3:\n      tag_5\n      0x04\n      dup1\n      calldatasize\n      sub\n      dup2\n      add\n      swap1\n      tag_6\n      swap2\n      swap1\n      tag_7\n      jump\t// in\n    tag_6:\n      tag_8\n      jump\t// in\n    tag_5:\n      stop\n        /* \"contracts/Hero.sol\":354:440  function getHero() public view returns(string memory)... */\n    tag_4:\n      tag_9\n      tag_10\n      jump\t// in\n    tag_9:\n      mload(0x40)\n      tag_11\n      swap2\n      swap1\n      tag_12\n      jump\t// in\n    tag_11:\n      mload(0x40)\n      dup1\n      swap2\n      sub\n      swap1\n      return\n        /* \"contracts/Hero.sol\":221:349  function setHero(string memory _hero)public... */\n    tag_8:\n        /* \"contracts/Hero.sol\":299:304  owner */\n      0x00\n      dup1\n      sload\n      swap1\n      0x0100\n      exp\n      swap1\n      div\n      0xffffffffffffffffffffffffffffffffffffffff\n      and\n        /* \"contracts/Hero.sol\":287:304  msg.sender==owner */\n      0xffffffffffffffffffffffffffffffffffffffff\n      and\n        /* \"contracts/Hero.sol\":287:297  msg.sender */\n      caller\n        /* \"contracts/Hero.sol\":287:304  msg.sender==owner */\n      0xffffffffffffffffffffffffffffffffffffffff\n      and\n      eq\n        /* \"contracts/Hero.sol\":279:321  require(msg.sender==owner,\"Not the owner\") */\n      tag_14\n      jumpi\n      mload(0x40)\n      0x08c379a000000000000000000000000000000000000000000000000000000000\n      dup2\n      mstore\n      0x04\n      add\n      tag_15\n      swap1\n      tag_16\n      jump\t// in\n    tag_15:\n      mload(0x40)\n      dup1\n      swap2\n      sub\n      swap1\n      revert\n    tag_14:\n        /* \"contracts/Hero.sol\":337:342  _hero */\n      dup1\n        /* \"contracts/Hero.sol\":331:335  hero */\n      0x01\n        /* \"contracts/Hero.sol\":331:342  hero =_hero */\n      swap1\n      dup1\n      mload\n      swap1\n      0x20\n      add\n      swap1\n      tag_17\n      swap3\n      swap2\n      swap1\n      tag_18\n      jump\t// in\n    tag_17:\n      pop\n        /* \"contracts/Hero.sol\":221:349  function setHero(string memory _hero)public... */\n      pop\n      jump\t// out\n        /* \"contracts/Hero.sol\":354:440  function getHero() public view returns(string memory)... */\n    tag_10:\n        /* \"contracts/Hero.sol\":393:406  string memory */\n      0x60\n        /* \"contracts/Hero.sol\":429:433  hero */\n      0x01\n        /* \"contracts/Hero.sol\":422:433  return hero */\n      dup1\n      sload\n      tag_20\n      swap1\n      tag_21\n      jump\t// in\n    tag_20:\n      dup1\n      0x1f\n      add\n      0x20\n      dup1\n      swap2\n      div\n      mul\n      0x20\n      add\n      mload(0x40)\n      swap1\n      dup2\n      add\n      0x40\n      mstore\n      dup1\n      swap3\n      swap2\n      swap1\n      dup2\n      dup2\n      mstore\n      0x20\n      add\n      dup3\n      dup1\n      sload\n      tag_22\n      swap1\n      tag_21\n      jump\t// in\n    tag_22:\n      dup1\n      iszero\n      tag_23\n      jumpi\n      dup1\n      0x1f\n      lt\n      tag_24\n      jumpi\n      0x0100\n      dup1\n      dup4\n      sload\n      div\n      mul\n      dup4\n      mstore\n      swap2\n      0x20\n      add\n      swap2\n      jump(tag_23)\n    tag_24:\n      dup3\n      add\n      swap2\n      swap1\n      0x00\n      mstore\n      keccak256(0x00, 0x20)\n      swap1\n    tag_25:\n      dup2\n      sload\n      dup2\n      mstore\n      swap1\n      0x01\n      add\n      swap1\n      0x20\n      add\n      dup1\n      dup4\n      gt\n      tag_25\n      jumpi\n      dup3\n      swap1\n      sub\n      0x1f\n      and\n      dup3\n      add\n      swap2\n    tag_23:\n      pop\n      pop\n      pop\n      pop\n      pop\n      swap1\n      pop\n        /* \"contracts/Hero.sol\":354:440  function getHero() public view returns(string memory)... */\n      swap1\n      jump\t// out\n    tag_18:\n      dup3\n      dup1\n      sload\n      tag_26\n      swap1\n      tag_21\n      jump\t// in\n    tag_26:\n      swap1\n      0x00\n      mstore\n      keccak256(0x00, 0x20)\n      swap1\n      0x1f\n      add\n      0x20\n      swap1\n      div\n      dup2\n      add\n      swap3\n      dup3\n      tag_28\n      jumpi\n      0x00\n      dup6\n      sstore\n      jump(tag_27)\n    tag_28:\n      dup3\n      0x1f\n      lt\n      tag_29\n      jumpi\n      dup1\n      mload\n      not(0xff)\n      and\n      dup4\n      dup1\n      add\n      or\n      dup6\n      sstore\n      jump(tag_27)\n    tag_29:\n      dup3\n      dup1\n      add\n      0x01\n      add\n      dup6\n      sstore\n      dup3\n      iszero\n      tag_27\n      jumpi\n      swap2\n      dup3\n      add\n    tag_30:\n      dup3\n      dup2\n      gt\n      iszero\n      tag_31\n      jumpi\n      dup3\n      mload\n      dup3\n      sstore\n      swap2\n      0x20\n      add\n      swap2\n      swap1\n      0x01\n      add\n      swap1\n      jump(tag_30)\n    tag_31:\n    tag_27:\n      pop\n      swap1\n      pop\n      tag_32\n      swap2\n      swap1\n      tag_33\n      jump\t// in\n    tag_32:\n      pop\n      swap1\n      jump\t// out\n    tag_33:\n    tag_34:\n      dup1\n      dup3\n      gt\n      iszero\n      tag_35\n      jumpi\n      0x00\n      dup2\n      0x00\n      swap1\n      sstore\n      pop\n      0x01\n      add\n      jump(tag_34)\n    tag_35:\n      pop\n      swap1\n      jump\t// out\n        /* \"#utility.yul\":7:419   */\n    tag_37:\n        /* \"#utility.yul\":85:90   */\n      0x00\n        /* \"#utility.yul\":110:176   */\n      tag_39\n        /* \"#utility.yul\":126:175   */\n      tag_40\n        /* \"#utility.yul\":168:174   */\n      dup5\n        /* \"#utility.yul\":126:175   */\n      tag_41\n      jump\t// in\n    tag_40:\n        /* \"#utility.yul\":110:176   */\n      tag_42\n      jump\t// in\n    tag_39:\n        /* \"#utility.yul\":101:176   */\n      swap1\n      pop\n        /* \"#utility.yul\":199:205   */\n      dup3\n        /* \"#utility.yul\":192:197   */\n      dup2\n        /* \"#utility.yul\":185:206   */\n      mstore\n        /* \"#utility.yul\":237:241   */\n      0x20\n        /* \"#utility.yul\":230:235   */\n      dup2\n        /* \"#utility.yul\":226:242   */\n      add\n        /* \"#utility.yul\":275:278   */\n      dup5\n        /* \"#utility.yul\":266:272   */\n      dup5\n        /* \"#utility.yul\":261:264   */\n      dup5\n        /* \"#utility.yul\":257:273   */\n      add\n        /* \"#utility.yul\":254:279   */\n      gt\n        /* \"#utility.yul\":251:363   */\n      iszero\n      tag_43\n      jumpi\n        /* \"#utility.yul\":282:361   */\n      tag_44\n      tag_45\n      jump\t// in\n    tag_44:\n        /* \"#utility.yul\":251:363   */\n    tag_43:\n        /* \"#utility.yul\":372:413   */\n      tag_46\n        /* \"#utility.yul\":406:412   */\n      dup5\n        /* \"#utility.yul\":401:404   */\n      dup3\n        /* \"#utility.yul\":396:399   */\n      dup6\n        /* \"#utility.yul\":372:413   */\n      tag_47\n      jump\t// in\n    tag_46:\n        /* \"#utility.yul\":91:419   */\n      pop\n        /* \"#utility.yul\":7:419   */\n      swap4\n      swap3\n      pop\n      pop\n      pop\n      jump\t// out\n        /* \"#utility.yul\":439:779   */\n    tag_48:\n        /* \"#utility.yul\":495:500   */\n      0x00\n        /* \"#utility.yul\":544:547   */\n      dup3\n        /* \"#utility.yul\":537:541   */\n      0x1f\n        /* \"#utility.yul\":529:535   */\n      dup4\n        /* \"#utility.yul\":525:542   */\n      add\n        /* \"#utility.yul\":521:548   */\n      slt\n        /* \"#utility.yul\":511:633   */\n      tag_50\n      jumpi\n        /* \"#utility.yul\":552:631   */\n      tag_51\n      tag_52\n      jump\t// in\n    tag_51:\n        /* \"#utility.yul\":511:633   */\n    tag_50:\n        /* \"#utility.yul\":669:675   */\n      dup2\n        /* \"#utility.yul\":656:676   */\n      calldataload\n        /* \"#utility.yul\":694:773   */\n      tag_53\n        /* \"#utility.yul\":769:772   */\n      dup5\n        /* \"#utility.yul\":761:767   */\n      dup3\n        /* \"#utility.yul\":754:758   */\n      0x20\n        /* \"#utility.yul\":746:752   */\n      dup7\n        /* \"#utility.yul\":742:759   */\n      add\n        /* \"#utility.yul\":694:773   */\n      tag_37\n      jump\t// in\n    tag_53:\n        /* \"#utility.yul\":685:773   */\n      swap2\n      pop\n        /* \"#utility.yul\":501:779   */\n      pop\n        /* \"#utility.yul\":439:779   */\n      swap3\n      swap2\n      pop\n      pop\n      jump\t// out\n        /* \"#utility.yul\":785:1294   */\n    tag_7:\n        /* \"#utility.yul\":854:860   */\n      0x00\n        /* \"#utility.yul\":903:905   */\n      0x20\n        /* \"#utility.yul\":891:900   */\n      dup3\n        /* \"#utility.yul\":882:889   */\n      dup5\n        /* \"#utility.yul\":878:901   */\n      sub\n        /* \"#utility.yul\":874:906   */\n      slt\n        /* \"#utility.yul\":871:990   */\n      iszero\n      tag_55\n      jumpi\n        /* \"#utility.yul\":909:988   */\n      tag_56\n      tag_57\n      jump\t// in\n    tag_56:\n        /* \"#utility.yul\":871:990   */\n    tag_55:\n        /* \"#utility.yul\":1057:1058   */\n      0x00\n        /* \"#utility.yul\":1046:1055   */\n      dup3\n        /* \"#utility.yul\":1042:1059   */\n      add\n        /* \"#utility.yul\":1029:1060   */\n      calldataload\n        /* \"#utility.yul\":1087:1105   */\n      0xffffffffffffffff\n        /* \"#utility.yul\":1079:1085   */\n      dup2\n        /* \"#utility.yul\":1076:1106   */\n      gt\n        /* \"#utility.yul\":1073:1190   */\n      iszero\n      tag_58\n      jumpi\n        /* \"#utility.yul\":1109:1188   */\n      tag_59\n      tag_60\n      jump\t// in\n    tag_59:\n        /* \"#utility.yul\":1073:1190   */\n    tag_58:\n        /* \"#utility.yul\":1214:1277   */\n      tag_61\n        /* \"#utility.yul\":1269:1276   */\n      dup5\n        /* \"#utility.yul\":1260:1266   */\n      dup3\n        /* \"#utility.yul\":1249:1258   */\n      dup6\n        /* \"#utility.yul\":1245:1267   */\n      add\n        /* \"#utility.yul\":1214:1277   */\n      tag_48\n      jump\t// in\n    tag_61:\n        /* \"#utility.yul\":1204:1277   */\n      swap2\n      pop\n        /* \"#utility.yul\":1000:1287   */\n      pop\n        /* \"#utility.yul\":785:1294   */\n      swap3\n      swap2\n      pop\n      pop\n      jump\t// out\n        /* \"#utility.yul\":1300:1664   */\n    tag_62:\n        /* \"#utility.yul\":1388:1391   */\n      0x00\n        /* \"#utility.yul\":1416:1455   */\n      tag_64\n        /* \"#utility.yul\":1449:1454   */\n      dup3\n        /* \"#utility.yul\":1416:1455   */\n      tag_65\n      jump\t// in\n    tag_64:\n        /* \"#utility.yul\":1471:1542   */\n      tag_66\n        /* \"#utility.yul\":1535:1541   */\n      dup2\n        /* \"#utility.yul\":1530:1533   */\n      dup6\n        /* \"#utility.yul\":1471:1542   */\n      tag_67\n      jump\t// in\n    tag_66:\n        /* \"#utility.yul\":1464:1542   */\n      swap4\n      pop\n        /* \"#utility.yul\":1551:1603   */\n      tag_68\n        /* \"#utility.yul\":1596:1602   */\n      dup2\n        /* \"#utility.yul\":1591:1594   */\n      dup6\n        /* \"#utility.yul\":1584:1588   */\n      0x20\n        /* \"#utility.yul\":1577:1582   */\n      dup7\n        /* \"#utility.yul\":1573:1589   */\n      add\n        /* \"#utility.yul\":1551:1603   */\n      tag_69\n      jump\t// in\n    tag_68:\n        /* \"#utility.yul\":1628:1657   */\n      tag_70\n        /* \"#utility.yul\":1650:1656   */\n      dup2\n        /* \"#utility.yul\":1628:1657   */\n      tag_71\n      jump\t// in\n    tag_70:\n        /* \"#utility.yul\":1623:1626   */\n      dup5\n        /* \"#utility.yul\":1619:1658   */\n      add\n        /* \"#utility.yul\":1612:1658   */\n      swap2\n      pop\n        /* \"#utility.yul\":1392:1664   */\n      pop\n        /* \"#utility.yul\":1300:1664   */\n      swap3\n      swap2\n      pop\n      pop\n      jump\t// out\n        /* \"#utility.yul\":1670:2036   */\n    tag_72:\n        /* \"#utility.yul\":1812:1815   */\n      0x00\n        /* \"#utility.yul\":1833:1900   */\n      tag_74\n        /* \"#utility.yul\":1897:1899   */\n      0x0d\n        /* \"#utility.yul\":1892:1895   */\n      dup4\n        /* \"#utility.yul\":1833:1900   */\n      tag_67\n      jump\t// in\n    tag_74:\n        /* \"#utility.yul\":1826:1900   */\n      swap2\n      pop\n        /* \"#utility.yul\":1909:2002   */\n      tag_75\n        /* \"#utility.yul\":1998:2001   */\n      dup3\n        /* \"#utility.yul\":1909:2002   */\n      tag_76\n      jump\t// in\n    tag_75:\n        /* \"#utility.yul\":2027:2029   */\n      0x20\n        /* \"#utility.yul\":2022:2025   */\n      dup3\n        /* \"#utility.yul\":2018:2030   */\n      add\n        /* \"#utility.yul\":2011:2030   */\n      swap1\n      pop\n        /* \"#utility.yul\":1670:2036   */\n      swap2\n      swap1\n      pop\n      jump\t// out\n        /* \"#utility.yul\":2042:2355   */\n    tag_12:\n        /* \"#utility.yul\":2155:2159   */\n      0x00\n        /* \"#utility.yul\":2193:2195   */\n      0x20\n        /* \"#utility.yul\":2182:2191   */\n      dup3\n        /* \"#utility.yul\":2178:2196   */\n      add\n        /* \"#utility.yul\":2170:2196   */\n      swap1\n      pop\n        /* \"#utility.yul\":2242:2251   */\n      dup2\n        /* \"#utility.yul\":2236:2240   */\n      dup2\n        /* \"#utility.yul\":2232:2252   */\n      sub\n        /* \"#utility.yul\":2228:2229   */\n      0x00\n        /* \"#utility.yul\":2217:2226   */\n      dup4\n        /* \"#utility.yul\":2213:2230   */\n      add\n        /* \"#utility.yul\":2206:2253   */\n      mstore\n        /* \"#utility.yul\":2270:2348   */\n      tag_78\n        /* \"#utility.yul\":2343:2347   */\n      dup2\n        /* \"#utility.yul\":2334:2340   */\n      dup5\n        /* \"#utility.yul\":2270:2348   */\n      tag_62\n      jump\t// in\n    tag_78:\n        /* \"#utility.yul\":2262:2348   */\n      swap1\n      pop\n        /* \"#utility.yul\":2042:2355   */\n      swap3\n      swap2\n      pop\n      pop\n      jump\t// out\n        /* \"#utility.yul\":2361:2780   */\n    tag_16:\n        /* \"#utility.yul\":2527:2531   */\n      0x00\n        /* \"#utility.yul\":2565:2567   */\n      0x20\n        /* \"#utility.yul\":2554:2563   */\n      dup3\n        /* \"#utility.yul\":2550:2568   */\n      add\n        /* \"#utility.yul\":2542:2568   */\n      swap1\n      pop\n        /* \"#utility.yul\":2614:2623   */\n      dup2\n        /* \"#utility.yul\":2608:2612   */\n      dup2\n        /* \"#utility.yul\":2604:2624   */\n      sub\n        /* \"#utility.yul\":2600:2601   */\n      0x00\n        /* \"#utility.yul\":2589:2598   */\n      dup4\n        /* \"#utility.yul\":2585:2602   */\n      add\n        /* \"#utility.yul\":2578:2625   */\n      mstore\n        /* \"#utility.yul\":2642:2773   */\n      tag_80\n        /* \"#utility.yul\":2768:2772   */\n      dup2\n        /* \"#utility.yul\":2642:2773   */\n      tag_72\n      jump\t// in\n    tag_80:\n        /* \"#utility.yul\":2634:2773   */\n      swap1\n      pop\n        /* \"#utility.yul\":2361:2780   */\n      swap2\n      swap1\n      pop\n      jump\t// out\n        /* \"#utility.yul\":2786:2915   */\n    tag_42:\n        /* \"#utility.yul\":2820:2826   */\n      0x00\n        /* \"#utility.yul\":2847:2867   */\n      tag_82\n      tag_83\n      jump\t// in\n    tag_82:\n        /* \"#utility.yul\":2837:2867   */\n      swap1\n      pop\n        /* \"#utility.yul\":2876:2909   */\n      tag_84\n        /* \"#utility.yul\":2904:2908   */\n      dup3\n        /* \"#utility.yul\":2896:2902   */\n      dup3\n        /* \"#utility.yul\":2876:2909   */\n      tag_85\n      jump\t// in\n    tag_84:\n        /* \"#utility.yul\":2786:2915   */\n      swap2\n      swap1\n      pop\n      jump\t// out\n        /* \"#utility.yul\":2921:2996   */\n    tag_83:\n        /* \"#utility.yul\":2954:2960   */\n      0x00\n        /* \"#utility.yul\":2987:2989   */\n      0x40\n        /* \"#utility.yul\":2981:2990   */\n      mload\n        /* \"#utility.yul\":2971:2990   */\n      swap1\n      pop\n        /* \"#utility.yul\":2921:2996   */\n      swap1\n      jump\t// out\n        /* \"#utility.yul\":3002:3310   */\n    tag_41:\n        /* \"#utility.yul\":3064:3068   */\n      0x00\n        /* \"#utility.yul\":3154:3172   */\n      0xffffffffffffffff\n        /* \"#utility.yul\":3146:3152   */\n      dup3\n        /* \"#utility.yul\":3143:3173   */\n      gt\n        /* \"#utility.yul\":3140:3196   */\n      iszero\n      tag_88\n      jumpi\n        /* \"#utility.yul\":3176:3194   */\n      tag_89\n      tag_90\n      jump\t// in\n    tag_89:\n        /* \"#utility.yul\":3140:3196   */\n    tag_88:\n        /* \"#utility.yul\":3214:3243   */\n      tag_91\n        /* \"#utility.yul\":3236:3242   */\n      dup3\n        /* \"#utility.yul\":3214:3243   */\n      tag_71\n      jump\t// in\n    tag_91:\n        /* \"#utility.yul\":3206:3243   */\n      swap1\n      pop\n        /* \"#utility.yul\":3298:3302   */\n      0x20\n        /* \"#utility.yul\":3292:3296   */\n      dup2\n        /* \"#utility.yul\":3288:3303   */\n      add\n        /* \"#utility.yul\":3280:3303   */\n      swap1\n      pop\n        /* \"#utility.yul\":3002:3310   */\n      swap2\n      swap1\n      pop\n      jump\t// out\n        /* \"#utility.yul\":3316:3415   */\n    tag_65:\n        /* \"#utility.yul\":3368:3374   */\n      0x00\n        /* \"#utility.yul\":3402:3407   */\n      dup2\n        /* \"#utility.yul\":3396:3408   */\n      mload\n        /* \"#utility.yul\":3386:3408   */\n      swap1\n      pop\n        /* \"#utility.yul\":3316:3415   */\n      swap2\n      swap1\n      pop\n      jump\t// out\n        /* \"#utility.yul\":3421:3590   */\n    tag_67:\n        /* \"#utility.yul\":3505:3516   */\n      0x00\n        /* \"#utility.yul\":3539:3545   */\n      dup3\n        /* \"#utility.yul\":3534:3537   */\n      dup3\n        /* \"#utility.yul\":3527:3546   */\n      mstore\n        /* \"#utility.yul\":3579:3583   */\n      0x20\n        /* \"#utility.yul\":3574:3577   */\n      dup3\n        /* \"#utility.yul\":3570:3584   */\n      add\n        /* \"#utility.yul\":3555:3584   */\n      swap1\n      pop\n        /* \"#utility.yul\":3421:3590   */\n      swap3\n      swap2\n      pop\n      pop\n      jump\t// out\n        /* \"#utility.yul\":3596:3750   */\n    tag_47:\n        /* \"#utility.yul\":3680:3686   */\n      dup3\n        /* \"#utility.yul\":3675:3678   */\n      dup2\n        /* \"#utility.yul\":3670:3673   */\n      dup4\n        /* \"#utility.yul\":3657:3687   */\n      calldatacopy\n        /* \"#utility.yul\":3742:3743   */\n      0x00\n        /* \"#utility.yul\":3733:3739   */\n      dup4\n        /* \"#utility.yul\":3728:3731   */\n      dup4\n        /* \"#utility.yul\":3724:3740   */\n      add\n        /* \"#utility.yul\":3717:3744   */\n      mstore\n        /* \"#utility.yul\":3596:3750   */\n      pop\n      pop\n      pop\n      jump\t// out\n        /* \"#utility.yul\":3756:4063   */\n    tag_69:\n        /* \"#utility.yul\":3824:3825   */\n      0x00\n        /* \"#utility.yul\":3834:3947   */\n    tag_96:\n        /* \"#utility.yul\":3848:3854   */\n      dup4\n        /* \"#utility.yul\":3845:3846   */\n      dup2\n        /* \"#utility.yul\":3842:3855   */\n      lt\n        /* \"#utility.yul\":3834:3947   */\n      iszero\n      tag_98\n      jumpi\n        /* \"#utility.yul\":3933:3934   */\n      dup1\n        /* \"#utility.yul\":3928:3931   */\n      dup3\n        /* \"#utility.yul\":3924:3935   */\n      add\n        /* \"#utility.yul\":3918:3936   */\n      mload\n        /* \"#utility.yul\":3914:3915   */\n      dup2\n        /* \"#utility.yul\":3909:3912   */\n      dup5\n        /* \"#utility.yul\":3905:3916   */\n      add\n        /* \"#utility.yul\":3898:3937   */\n      mstore\n        /* \"#utility.yul\":3870:3872   */\n      0x20\n        /* \"#utility.yul\":3867:3868   */\n      dup2\n        /* \"#utility.yul\":3863:3873   */\n      add\n        /* \"#utility.yul\":3858:3873   */\n      swap1\n      pop\n        /* \"#utility.yul\":3834:3947   */\n      jump(tag_96)\n    tag_98:\n        /* \"#utility.yul\":3965:3971   */\n      dup4\n        /* \"#utility.yul\":3962:3963   */\n      dup2\n        /* \"#utility.yul\":3959:3972   */\n      gt\n        /* \"#utility.yul\":3956:4057   */\n      iszero\n      tag_99\n      jumpi\n        /* \"#utility.yul\":4045:4046   */\n      0x00\n        /* \"#utility.yul\":4036:4042   */\n      dup5\n        /* \"#utility.yul\":4031:4034   */\n      dup5\n        /* \"#utility.yul\":4027:4043   */\n      add\n        /* \"#utility.yul\":4020:4047   */\n      mstore\n        /* \"#utility.yul\":3956:4057   */\n    tag_99:\n        /* \"#utility.yul\":3805:4063   */\n      pop\n        /* \"#utility.yul\":3756:4063   */\n      pop\n      pop\n      pop\n      jump\t// out\n        /* \"#utility.yul\":4069:4389   */\n    tag_21:\n        /* \"#utility.yul\":4113:4119   */\n      0x00\n        /* \"#utility.yul\":4150:4151   */\n      0x02\n        /* \"#utility.yul\":4144:4148   */\n      dup3\n        /* \"#utility.yul\":4140:4152   */\n      div\n        /* \"#utility.yul\":4130:4152   */\n      swap1\n      pop\n        /* \"#utility.yul\":4197:4198   */\n      0x01\n        /* \"#utility.yul\":4191:4195   */\n      dup3\n        /* \"#utility.yul\":4187:4199   */\n      and\n        /* \"#utility.yul\":4218:4236   */\n      dup1\n        /* \"#utility.yul\":4208:4289   */\n      tag_101\n      jumpi\n        /* \"#utility.yul\":4274:4278   */\n      0x7f\n        /* \"#utility.yul\":4266:4272   */\n      dup3\n        /* \"#utility.yul\":4262:4279   */\n      and\n        /* \"#utility.yul\":4252:4279   */\n      swap2\n      pop\n        /* \"#utility.yul\":4208:4289   */\n    tag_101:\n        /* \"#utility.yul\":4336:4338   */\n      0x20\n        /* \"#utility.yul\":4328:4334   */\n      dup3\n        /* \"#utility.yul\":4325:4339   */\n      lt\n        /* \"#utility.yul\":4305:4323   */\n      dup2\n        /* \"#utility.yul\":4302:4340   */\n      eq\n        /* \"#utility.yul\":4299:4383   */\n      iszero\n      tag_102\n      jumpi\n        /* \"#utility.yul\":4355:4373   */\n      tag_103\n      tag_104\n      jump\t// in\n    tag_103:\n        /* \"#utility.yul\":4299:4383   */\n    tag_102:\n        /* \"#utility.yul\":4120:4389   */\n      pop\n        /* \"#utility.yul\":4069:4389   */\n      swap2\n      swap1\n      pop\n      jump\t// out\n        /* \"#utility.yul\":4395:4676   */\n    tag_85:\n        /* \"#utility.yul\":4478:4505   */\n      tag_106\n        /* \"#utility.yul\":4500:4504   */\n      dup3\n        /* \"#utility.yul\":4478:4505   */\n      tag_71\n      jump\t// in\n    tag_106:\n        /* \"#utility.yul\":4470:4476   */\n      dup2\n        /* \"#utility.yul\":4466:4506   */\n      add\n        /* \"#utility.yul\":4608:4614   */\n      dup2\n        /* \"#utility.yul\":4596:4606   */\n      dup2\n        /* \"#utility.yul\":4593:4615   */\n      lt\n        /* \"#utility.yul\":4572:4590   */\n      0xffffffffffffffff\n        /* \"#utility.yul\":4560:4570   */\n      dup3\n        /* \"#utility.yul\":4557:4591   */\n      gt\n        /* \"#utility.yul\":4554:4616   */\n      or\n        /* \"#utility.yul\":4551:4639   */\n      iszero\n      tag_107\n      jumpi\n        /* \"#utility.yul\":4619:4637   */\n      tag_108\n      tag_90\n      jump\t// in\n    tag_108:\n        /* \"#utility.yul\":4551:4639   */\n    tag_107:\n        /* \"#utility.yul\":4659:4669   */\n      dup1\n        /* \"#utility.yul\":4655:4657   */\n      0x40\n        /* \"#utility.yul\":4648:4670   */\n      mstore\n        /* \"#utility.yul\":4438:4676   */\n      pop\n        /* \"#utility.yul\":4395:4676   */\n      pop\n      pop\n      jump\t// out\n        /* \"#utility.yul\":4682:4862   */\n    tag_104:\n        /* \"#utility.yul\":4730:4807   */\n      0x4e487b7100000000000000000000000000000000000000000000000000000000\n        /* \"#utility.yul\":4727:4728   */\n      0x00\n        /* \"#utility.yul\":4720:4808   */\n      mstore\n        /* \"#utility.yul\":4827:4831   */\n      0x22\n        /* \"#utility.yul\":4824:4825   */\n      0x04\n        /* \"#utility.yul\":4817:4832   */\n      mstore\n        /* \"#utility.yul\":4851:4855   */\n      0x24\n        /* \"#utility.yul\":4848:4849   */\n      0x00\n        /* \"#utility.yul\":4841:4856   */\n      revert\n        /* \"#utility.yul\":4868:5048   */\n    tag_90:\n        /* \"#utility.yul\":4916:4993   */\n      0x4e487b7100000000000000000000000000000000000000000000000000000000\n        /* \"#utility.yul\":4913:4914   */\n      0x00\n        /* \"#utility.yul\":4906:4994   */\n      mstore\n        /* \"#utility.yul\":5013:5017   */\n      0x41\n        /* \"#utility.yul\":5010:5011   */\n      0x04\n        /* \"#utility.yul\":5003:5018   */\n      mstore\n        /* \"#utility.yul\":5037:5041   */\n      0x24\n        /* \"#utility.yul\":5034:5035   */\n      0x00\n        /* \"#utility.yul\":5027:5042   */\n      revert\n        /* \"#utility.yul\":5054:5171   */\n    tag_52:\n        /* \"#utility.yul\":5163:5164   */\n      0x00\n        /* \"#utility.yul\":5160:5161   */\n      dup1\n        /* \"#utility.yul\":5153:5165   */\n      revert\n        /* \"#utility.yul\":5177:5294   */\n    tag_45:\n        /* \"#utility.yul\":5286:5287   */\n      0x00\n        /* \"#utility.yul\":5283:5284   */\n      dup1\n        /* \"#utility.yul\":5276:5288   */\n      revert\n        /* \"#utility.yul\":5300:5417   */\n    tag_60:\n        /* \"#utility.yul\":5409:5410   */\n      0x00\n        /* \"#utility.yul\":5406:5407   */\n      dup1\n        /* \"#utility.yul\":5399:5411   */\n      revert\n        /* \"#utility.yul\":5423:5540   */\n    tag_57:\n        /* \"#utility.yul\":5532:5533   */\n      0x00\n        /* \"#utility.yul\":5529:5530   */\n      dup1\n        /* \"#utility.yul\":5522:5534   */\n      revert\n        /* \"#utility.yul\":5546:5648   */\n    tag_71:\n        /* \"#utility.yul\":5587:5593   */\n      0x00\n        /* \"#utility.yul\":5638:5640   */\n      0x1f\n        /* \"#utility.yul\":5634:5641   */\n      not\n        /* \"#utility.yul\":5629:5631   */\n      0x1f\n        /* \"#utility.yul\":5622:5627   */\n      dup4\n        /* \"#utility.yul\":5618:5632   */\n      add\n        /* \"#utility.yul\":5614:5642   */\n      and\n        /* \"#utility.yul\":5604:5642   */\n      swap1\n      pop\n        /* \"#utility.yul\":5546:5648   */\n      swap2\n      swap1\n      pop\n      jump\t// out\n        /* \"#utility.yul\":5654:5817   */\n    tag_76:\n        /* \"#utility.yul\":5794:5809   */\n      0x4e6f7420746865206f776e657200000000000000000000000000000000000000\n        /* \"#utility.yul\":5790:5791   */\n      0x00\n        /* \"#utility.yul\":5782:5788   */\n      dup3\n        /* \"#utility.yul\":5778:5792   */\n      add\n        /* \"#utility.yul\":5771:5810   */\n      mstore\n        /* \"#utility.yul\":5654:5817   */\n      pop\n      jump\t// out\n\n    auxdata: 0xa2646970667358221220d1402d7a3dcaab1b8d9385ea7fd4d9ba45990da1dd3af4d473fff86064740e6364736f6c63430008070033\n}\n",
				"bytecode": {
					"linkReferences": {},
					"object": "60806040523480156200001157600080fd5b506040516200094c3803806200094c8339818101604052810190620000379190620001c5565b336000806101000a81548173ffffffffffffffffffffffffffffffffffffffff021916908373ffffffffffffffffffffffffffffffffffffffff16021790555080600190805190602001906200008f92919062000097565b50506200039a565b828054620000a590620002ab565b90600052602060002090601f016020900481019282620000c9576000855562000115565b82601f10620000e457805160ff191683800117855562000115565b8280016001018555821562000115579182015b8281111562000114578251825591602001919060010190620000f7565b5b50905062000124919062000128565b5090565b5b808211156200014357600081600090555060010162000129565b5090565b60006200015e62000158846200023f565b62000216565b9050828152602081018484840111156200017d576200017c6200037a565b5b6200018a84828562000275565b509392505050565b600082601f830112620001aa57620001a962000375565b5b8151620001bc84826020860162000147565b91505092915050565b600060208284031215620001de57620001dd62000384565b5b600082015167ffffffffffffffff811115620001ff57620001fe6200037f565b5b6200020d8482850162000192565b91505092915050565b60006200022262000235565b9050620002308282620002e1565b919050565b6000604051905090565b600067ffffffffffffffff8211156200025d576200025c62000346565b5b620002688262000389565b9050602081019050919050565b60005b838110156200029557808201518184015260208101905062000278565b83811115620002a5576000848401525b50505050565b60006002820490506001821680620002c457607f821691505b60208210811415620002db57620002da62000317565b5b50919050565b620002ec8262000389565b810181811067ffffffffffffffff821117156200030e576200030d62000346565b5b80604052505050565b7f4e487b7100000000000000000000000000000000000000000000000000000000600052602260045260246000fd5b7f4e487b7100000000000000000000000000000000000000000000000000000000600052604160045260246000fd5b600080fd5b600080fd5b600080fd5b600080fd5b6000601f19601f8301169050919050565b6105a280620003aa6000396000f3fe608060405234801561001057600080fd5b50600436106100365760003560e01c80631a126e141461003b578063581bee2f14610057575b600080fd5b610055600480360381019061005091906102c2565b610075565b005b61005f61011d565b60405161006c9190610367565b60405180910390f35b60008054906101000a900473ffffffffffffffffffffffffffffffffffffffff1673ffffffffffffffffffffffffffffffffffffffff163373ffffffffffffffffffffffffffffffffffffffff1614610103576040517f08c379a00000000000000000000000000000000000000000000000000000000081526004016100fa90610389565b60405180910390fd5b80600190805190602001906101199291906101af565b5050565b60606001805461012c9061045d565b80601f01602080910402602001604051908101604052809291908181526020018280546101589061045d565b80156101a55780601f1061017a576101008083540402835291602001916101a5565b820191906000526020600020905b81548152906001019060200180831161018857829003601f168201915b5050505050905090565b8280546101bb9061045d565b90600052602060002090601f0160209004810192826101dd5760008555610224565b82601f106101f657805160ff1916838001178555610224565b82800160010185558215610224579182015b82811115610223578251825591602001919060010190610208565b5b5090506102319190610235565b5090565b5b8082111561024e576000816000905550600101610236565b5090565b6000610265610260846103ce565b6103a9565b90508281526020810184848401111561028157610280610523565b5b61028c84828561041b565b509392505050565b600082601f8301126102a9576102a861051e565b5b81356102b9848260208601610252565b91505092915050565b6000602082840312156102d8576102d761052d565b5b600082013567ffffffffffffffff8111156102f6576102f5610528565b5b61030284828501610294565b91505092915050565b6000610316826103ff565b610320818561040a565b935061033081856020860161042a565b61033981610532565b840191505092915050565b6000610351600d8361040a565b915061035c82610543565b602082019050919050565b60006020820190508181036000830152610381818461030b565b905092915050565b600060208201905081810360008301526103a281610344565b9050919050565b60006103b36103c4565b90506103bf828261048f565b919050565b6000604051905090565b600067ffffffffffffffff8211156103e9576103e86104ef565b5b6103f282610532565b9050602081019050919050565b600081519050919050565b600082825260208201905092915050565b82818337600083830152505050565b60005b8381101561044857808201518184015260208101905061042d565b83811115610457576000848401525b50505050565b6000600282049050600182168061047557607f821691505b60208210811415610489576104886104c0565b5b50919050565b61049882610532565b810181811067ffffffffffffffff821117156104b7576104b66104ef565b5b80604052505050565b7f4e487b7100000000000000000000000000000000000000000000000000000000600052602260045260246000fd5b7f4e487b7100000000000000000000000000000000000000000000000000000000600052604160045260246000fd5b600080fd5b600080fd5b600080fd5b600080fd5b6000601f19601f8301169050919050565b7f4e6f7420746865206f776e65720000000000000000000000000000000000000060008201525056fea2646970667358221220d1402d7a3dcaab1b8d9385ea7fd4d9ba45990da1dd3af4d473fff86064740e6364736f6c63430008070033",
					"opcodes": "PUSH1 0x80 PUSH1 0x40 MSTORE CALLVALUE DUP1 ISZERO PUSH3 0x11 JUMPI PUSH1 0x0 DUP1 REVERT JUMPDEST POP PUSH1 0x40 MLOAD PUSH3 0x94C CODESIZE SUB DUP1 PUSH3 0x94C DUP4 CODECOPY DUP2 DUP2 ADD PUSH1 0x40 MSTORE DUP2 ADD SWAP1 PUSH3 0x37 SWAP2 SWAP1 PUSH3 0x1C5 JUMP JUMPDEST CALLER PUSH1 0x0 DUP1 PUSH2 0x100 EXP DUP2 SLOAD DUP2 PUSH20 0xFFFFFFFFFFFFFFFFFFFFFFFFFFFFFFFFFFFFFFFF MUL NOT AND SWAP1 DUP4 PUSH20 0xFFFFFFFFFFFFFFFFFFFFFFFFFFFFFFFFFFFFFFFF AND MUL OR SWAP1 SSTORE POP DUP1 PUSH1 0x1 SWAP1 DUP1 MLOAD SWAP1 PUSH1 0x20 ADD SWAP1 PUSH3 0x8F SWAP3 SWAP2 SWAP1 PUSH3 0x97 JUMP JUMPDEST POP POP PUSH3 0x39A JUMP JUMPDEST DUP3 DUP1 SLOAD PUSH3 0xA5 SWAP1 PUSH3 0x2AB JUMP JUMPDEST SWAP1 PUSH1 0x0 MSTORE PUSH1 0x20 PUSH1 0x0 KECCAK256 SWAP1 PUSH1 0x1F ADD PUSH1 0x20 SWAP1 DIV DUP2 ADD SWAP3 DUP3 PUSH3 0xC9 JUMPI PUSH1 0x0 DUP6 SSTORE PUSH3 0x115 JUMP JUMPDEST DUP3 PUSH1 0x1F LT PUSH3 0xE4 JUMPI DUP1 MLOAD PUSH1 0xFF NOT AND DUP4 DUP1 ADD OR DUP6 SSTORE PUSH3 0x115 JUMP JUMPDEST DUP3 DUP1 ADD PUSH1 0x1 ADD DUP6 SSTORE DUP3 ISZERO PUSH3 0x115 JUMPI SWAP2 DUP3 ADD JUMPDEST DUP3 DUP2 GT ISZERO PUSH3 0x114 JUMPI DUP3 MLOAD DUP3 SSTORE SWAP2 PUSH1 0x20 ADD SWAP2 SWAP1 PUSH1 0x1 ADD SWAP1 PUSH3 0xF7 JUMP JUMPDEST JUMPDEST POP SWAP1 POP PUSH3 0x124 SWAP2 SWAP1 PUSH3 0x128 JUMP JUMPDEST POP SWAP1 JUMP JUMPDEST JUMPDEST DUP1 DUP3 GT ISZERO PUSH3 0x143 JUMPI PUSH1 0x0 DUP2 PUSH1 0x0 SWAP1 SSTORE POP PUSH1 0x1 ADD PUSH3 0x129 JUMP JUMPDEST POP SWAP1 JUMP JUMPDEST PUSH1 0x0 PUSH3 0x15E PUSH3 0x158 DUP5 PUSH3 0x23F JUMP JUMPDEST PUSH3 0x216 JUMP JUMPDEST SWAP1 POP DUP3 DUP2 MSTORE PUSH1 0x20 DUP2 ADD DUP5 DUP5 DUP5 ADD GT ISZERO PUSH3 0x17D JUMPI PUSH3 0x17C PUSH3 0x37A JUMP JUMPDEST JUMPDEST PUSH3 0x18A DUP5 DUP3 DUP6 PUSH3 0x275 JUMP JUMPDEST POP SWAP4 SWAP3 POP POP POP JUMP JUMPDEST PUSH1 0x0 DUP3 PUSH1 0x1F DUP4 ADD SLT PUSH3 0x1AA JUMPI PUSH3 0x1A9 PUSH3 0x375 JUMP JUMPDEST JUMPDEST DUP2 MLOAD PUSH3 0x1BC DUP5 DUP3 PUSH1 0x20 DUP7 ADD PUSH3 0x147 JUMP JUMPDEST SWAP2 POP POP SWAP3 SWAP2 POP POP JUMP JUMPDEST PUSH1 0x0 PUSH1 0x20 DUP3 DUP5 SUB SLT ISZERO PUSH3 0x1DE JUMPI PUSH3 0x1DD PUSH3 0x384 JUMP JUMPDEST JUMPDEST PUSH1 0x0 DUP3 ADD MLOAD PUSH8 0xFFFFFFFFFFFFFFFF DUP2 GT ISZERO PUSH3 0x1FF JUMPI PUSH3 0x1FE PUSH3 0x37F JUMP JUMPDEST JUMPDEST PUSH3 0x20D DUP5 DUP3 DUP6 ADD PUSH3 0x192 JUMP JUMPDEST SWAP2 POP POP SWAP3 SWAP2 POP POP JUMP JUMPDEST PUSH1 0x0 PUSH3 0x222 PUSH3 0x235 JUMP JUMPDEST SWAP1 POP PUSH3 0x230 DUP3 DUP3 PUSH3 0x2E1 JUMP JUMPDEST SWAP2 SWAP1 POP JUMP JUMPDEST PUSH1 0x0 PUSH1 0x40 MLOAD SWAP1 POP SWAP1 JUMP JUMPDEST PUSH1 0x0 PUSH8 0xFFFFFFFFFFFFFFFF DUP3 GT ISZERO PUSH3 0x25D JUMPI PUSH3 0x25C PUSH3 0x346 JUMP JUMPDEST JUMPDEST PUSH3 0x268 DUP3 PUSH3 0x389 JUMP JUMPDEST SWAP1 POP PUSH1 0x20 DUP2 ADD SWAP1 POP SWAP2 SWAP1 POP JUMP JUMPDEST PUSH1 0x0 JUMPDEST DUP4 DUP2 LT ISZERO PUSH3 0x295 JUMPI DUP1 DUP3 ADD MLOAD DUP2 DUP5 ADD MSTORE PUSH1 0x20 DUP2 ADD SWAP1 POP PUSH3 0x278 JUMP JUMPDEST DUP4 DUP2 GT ISZERO PUSH3 0x2A5 JUMPI PUSH1 0x0 DUP5 DUP5 ADD MSTORE JUMPDEST POP POP POP POP JUMP JUMPDEST PUSH1 0x0 PUSH1 0x2 DUP3 DIV SWAP1 POP PUSH1 0x1 DUP3 AND DUP1 PUSH3 0x2C4 JUMPI PUSH1 0x7F DUP3 AND SWAP2 POP JUMPDEST PUSH1 0x20 DUP3 LT DUP2 EQ ISZERO PUSH3 0x2DB JUMPI PUSH3 0x2DA PUSH3 0x317 JUMP JUMPDEST JUMPDEST POP SWAP2 SWAP1 POP JUMP JUMPDEST PUSH3 0x2EC DUP3 PUSH3 0x389 JUMP JUMPDEST DUP2 ADD DUP2 DUP2 LT PUSH8 0xFFFFFFFFFFFFFFFF DUP3 GT OR ISZERO PUSH3 0x30E JUMPI PUSH3 0x30D PUSH3 0x346 JUMP JUMPDEST JUMPDEST DUP1 PUSH1 0x40 MSTORE POP POP POP JUMP JUMPDEST PUSH32 0x4E487B7100000000000000000000000000000000000000000000000000000000 PUSH1 0x0 MSTORE PUSH1 0x22 PUSH1 0x4 MSTORE PUSH1 0x24 PUSH1 0x0 REVERT JUMPDEST PUSH32 0x4E487B7100000000000000000000000000000000000000000000000000000000 PUSH1 0x0 MSTORE PUSH1 0x41 PUSH1 0x4 MSTORE PUSH1 0x24 PUSH1 0x0 REVERT JUMPDEST PUSH1 0x0 DUP1 REVERT JUMPDEST PUSH1 0x0 DUP1 REVERT JUMPDEST PUSH1 0x0 DUP1 REVERT JUMPDEST PUSH1 0x0 DUP1 REVERT JUMPDEST PUSH1 0x0 PUSH1 0x1F NOT PUSH1 0x1F DUP4 ADD AND SWAP1 POP SWAP2 SWAP1 POP JUMP JUMPDEST PUSH2 0x5A2 DUP1 PUSH3 0x3AA PUSH1 0x0 CODECOPY PUSH1 0x0 RETURN INVALID PUSH1 0x80 PUSH1 0x40 MSTORE CALLVALUE DUP1 ISZERO PUSH2 0x10 JUMPI PUSH1 0x0 DUP1 REVERT JUMPDEST POP PUSH1 0x4 CALLDATASIZE LT PUSH2 0x36 JUMPI PUSH1 0x0 CALLDATALOAD PUSH1 0xE0 SHR DUP1 PUSH4 0x1A126E14 EQ PUSH2 0x3B JUMPI DUP1 PUSH4 0x581BEE2F EQ PUSH2 0x57 JUMPI JUMPDEST PUSH1 0x0 DUP1 REVERT JUMPDEST PUSH2 0x55 PUSH1 0x4 DUP1 CALLDATASIZE SUB DUP2 ADD SWAP1 PUSH2 0x50 SWAP2 SWAP1 PUSH2 0x2C2 JUMP JUMPDEST PUSH2 0x75 JUMP JUMPDEST STOP JUMPDEST PUSH2 0x5F PUSH2 0x11D JUMP JUMPDEST PUSH1 0x40 MLOAD PUSH2 0x6C SWAP2 SWAP1 PUSH2 0x367 JUMP JUMPDEST PUSH1 0x40 MLOAD DUP1 SWAP2 SUB SWAP1 RETURN JUMPDEST PUSH1 0x0 DUP1 SLOAD SWAP1 PUSH2 0x100 EXP SWAP1 DIV PUSH20 0xFFFFFFFFFFFFFFFFFFFFFFFFFFFFFFFFFFFFFFFF AND PUSH20 0xFFFFFFFFFFFFFFFFFFFFFFFFFFFFFFFFFFFFFFFF AND CALLER PUSH20 0xFFFFFFFFFFFFFFFFFFFFFFFFFFFFFFFFFFFFFFFF AND EQ PUSH2 0x103 JUMPI PUSH1 0x40 MLOAD PUSH32 0x8C379A000000000000000000000000000000000000000000000000000000000 DUP2 MSTORE PUSH1 0x4 ADD PUSH2 0xFA SWAP1 PUSH2 0x389 JUMP JUMPDEST PUSH1 0x40 MLOAD DUP1 SWAP2 SUB SWAP1 REVERT JUMPDEST DUP1 PUSH1 0x1 SWAP1 DUP1 MLOAD SWAP1 PUSH1 0x20 ADD SWAP1 PUSH2 0x119 SWAP3 SWAP2 SWAP1 PUSH2 0x1AF JUMP JUMPDEST POP POP JUMP JUMPDEST PUSH1 0x60 PUSH1 0x1 DUP1 SLOAD PUSH2 0x12C SWAP1 PUSH2 0x45D JUMP JUMPDEST DUP1 PUSH1 0x1F ADD PUSH1 0x20 DUP1 SWAP2 DIV MUL PUSH1 0x20 ADD PUSH1 0x40 MLOAD SWAP1 DUP2 ADD PUSH1 0x40 MSTORE DUP1 SWAP3 SWAP2 SWAP1 DUP2 DUP2 MSTORE PUSH1 0x20 ADD DUP3 DUP1 SLOAD PUSH2 0x158 SWAP1 PUSH2 0x45D JUMP JUMPDEST DUP1 ISZERO PUSH2 0x1A5 JUMPI DUP1 PUSH1 0x1F LT PUSH2 0x17A JUMPI PUSH2 0x100 DUP1 DUP4 SLOAD DIV MUL DUP4 MSTORE SWAP2 PUSH1 0x20 ADD SWAP2 PUSH2 0x1A5 JUMP JUMPDEST DUP3 ADD SWAP2 SWAP1 PUSH1 0x0 MSTORE PUSH1 0x20 PUSH1 0x0 KECCAK256 SWAP1 JUMPDEST DUP2 SLOAD DUP2 MSTORE SWAP1 PUSH1 0x1 ADD SWAP1 PUSH1 0x20 ADD DUP1 DUP4 GT PUSH2 0x188 JUMPI DUP3 SWAP1 SUB PUSH1 0x1F AND DUP3 ADD SWAP2 JUMPDEST POP POP POP POP POP SWAP1 POP SWAP1 JUMP JUMPDEST DUP3 DUP1 SLOAD PUSH2 0x1BB SWAP1 PUSH2 0x45D JUMP JUMPDEST SWAP1 PUSH1 0x0 MSTORE PUSH1 0x20 PUSH1 0x0 KECCAK256 SWAP1 PUSH1 0x1F ADD PUSH1 0x20 SWAP1 DIV DUP2 ADD SWAP3 DUP3 PUSH2 0x1DD JUMPI PUSH1 0x0 DUP6 SSTORE PUSH2 0x224 JUMP JUMPDEST DUP3 PUSH1 0x1F LT PUSH2 0x1F6 JUMPI DUP1 MLOAD PUSH1 0xFF NOT AND DUP4 DUP1 ADD OR DUP6 SSTORE PUSH2 0x224 JUMP JUMPDEST DUP3 DUP1 ADD PUSH1 0x1 ADD DUP6 SSTORE DUP3 ISZERO PUSH2 0x224 JUMPI SWAP2 DUP3 ADD JUMPDEST DUP3 DUP2 GT ISZERO PUSH2 0x223 JUMPI DUP3 MLOAD DUP3 SSTORE SWAP2 PUSH1 0x20 ADD SWAP2 SWAP1 PUSH1 0x1 ADD SWAP1 PUSH2 0x208 JUMP JUMPDEST JUMPDEST POP SWAP1 POP PUSH2 0x231 SWAP2 SWAP1 PUSH2 0x235 JUMP JUMPDEST POP SWAP1 JUMP JUMPDEST JUMPDEST DUP1 DUP3 GT ISZERO PUSH2 0x24E JUMPI PUSH1 0x0 DUP2 PUSH1 0x0 SWAP1 SSTORE POP PUSH1 0x1 ADD PUSH2 0x236 JUMP JUMPDEST POP SWAP1 JUMP JUMPDEST PUSH1 0x0 PUSH2 0x265 PUSH2 0x260 DUP5 PUSH2 0x3CE JUMP JUMPDEST PUSH2 0x3A9 JUMP JUMPDEST SWAP1 POP DUP3 DUP2 MSTORE PUSH1 0x20 DUP2 ADD DUP5 DUP5 DUP5 ADD GT ISZERO PUSH2 0x281 JUMPI PUSH2 0x280 PUSH2 0x523 JUMP JUMPDEST JUMPDEST PUSH2 0x28C DUP5 DUP3 DUP6 PUSH2 0x41B JUMP JUMPDEST POP SWAP4 SWAP3 POP POP POP JUMP JUMPDEST PUSH1 0x0 DUP3 PUSH1 0x1F DUP4 ADD SLT PUSH2 0x2A9 JUMPI PUSH2 0x2A8 PUSH2 0x51E JUMP JUMPDEST JUMPDEST DUP2 CALLDATALOAD PUSH2 0x2B9 DUP5 DUP3 PUSH1 0x20 DUP7 ADD PUSH2 0x252 JUMP JUMPDEST SWAP2 POP POP SWAP3 SWAP2 POP POP JUMP JUMPDEST PUSH1 0x0 PUSH1 0x20 DUP3 DUP5 SUB SLT ISZERO PUSH2 0x2D8 JUMPI PUSH2 0x2D7 PUSH2 0x52D JUMP JUMPDEST JUMPDEST PUSH1 0x0 DUP3 ADD CALLDATALOAD PUSH8 0xFFFFFFFFFFFFFFFF DUP2 GT ISZERO PUSH2 0x2F6 JUMPI PUSH2 0x2F5 PUSH2 0x528 JUMP JUMPDEST JUMPDEST PUSH2 0x302 DUP5 DUP3 DUP6 ADD PUSH2 0x294 JUMP JUMPDEST SWAP2 POP POP SWAP3 SWAP2 POP POP JUMP JUMPDEST PUSH1 0x0 PUSH2 0x316 DUP3 PUSH2 0x3FF JUMP JUMPDEST PUSH2 0x320 DUP2 DUP6 PUSH2 0x40A JUMP JUMPDEST SWAP4 POP PUSH2 0x330 DUP2 DUP6 PUSH1 0x20 DUP7 ADD PUSH2 0x42A JUMP JUMPDEST PUSH2 0x339 DUP2 PUSH2 0x532 JUMP JUMPDEST DUP5 ADD SWAP2 POP POP SWAP3 SWAP2 POP POP JUMP JUMPDEST PUSH1 0x0 PUSH2 0x351 PUSH1 0xD DUP4 PUSH2 0x40A JUMP JUMPDEST SWAP2 POP PUSH2 0x35C DUP3 PUSH2 0x543 JUMP JUMPDEST PUSH1 0x20 DUP3 ADD SWAP1 POP SWAP2 SWAP1 POP JUMP JUMPDEST PUSH1 0x0 PUSH1 0x20 DUP3 ADD SWAP1 POP DUP2 DUP2 SUB PUSH1 0x0 DUP4 ADD MSTORE PUSH2 0x381 DUP2 DUP5 PUSH2 0x30B JUMP JUMPDEST SWAP1 POP SWAP3 SWAP2 POP POP JUMP JUMPDEST PUSH1 0x0 PUSH1 0x20 DUP3 ADD SWAP1 POP DUP2 DUP2 SUB PUSH1 0x0 DUP4 ADD MSTORE PUSH2 0x3A2 DUP2 PUSH2 0x344 JUMP JUMPDEST SWAP1 POP SWAP2 SWAP1 POP JUMP JUMPDEST PUSH1 0x0 PUSH2 0x3B3 PUSH2 0x3C4 JUMP JUMPDEST SWAP1 POP PUSH2 0x3BF DUP3 DUP3 PUSH2 0x48F JUMP JUMPDEST SWAP2 SWAP1 POP JUMP JUMPDEST PUSH1 0x0 PUSH1 0x40 MLOAD SWAP1 POP SWAP1 JUMP JUMPDEST PUSH1 0x0 PUSH8 0xFFFFFFFFFFFFFFFF DUP3 GT ISZERO PUSH2 0x3E9 JUMPI PUSH2 0x3E8 PUSH2 0x4EF JUMP JUMPDEST JUMPDEST PUSH2 0x3F2 DUP3 PUSH2 0x532 JUMP JUMPDEST SWAP1 POP PUSH1 0x20 DUP2 ADD SWAP1 POP SWAP2 SWAP1 POP JUMP JUMPDEST PUSH1 0x0 DUP2 MLOAD SWAP1 POP SWAP2 SWAP1 POP JUMP JUMPDEST PUSH1 0x0 DUP3 DUP3 MSTORE PUSH1 0x20 DUP3 ADD SWAP1 POP SWAP3 SWAP2 POP POP JUMP JUMPDEST DUP3 DUP2 DUP4 CALLDATACOPY PUSH1 0x0 DUP4 DUP4 ADD MSTORE POP POP POP JUMP JUMPDEST PUSH1 0x0 JUMPDEST DUP4 DUP2 LT ISZERO PUSH2 0x448 JUMPI DUP1 DUP3 ADD MLOAD DUP2 DUP5 ADD MSTORE PUSH1 0x20 DUP2 ADD SWAP1 POP PUSH2 0x42D JUMP JUMPDEST DUP4 DUP2 GT ISZERO PUSH2 0x457 JUMPI PUSH1 0x0 DUP5 DUP5 ADD MSTORE JUMPDEST POP POP POP POP JUMP JUMPDEST PUSH1 0x0 PUSH1 0x2 DUP3 DIV SWAP1 POP PUSH1 0x1 DUP3 AND DUP1 PUSH2 0x475 JUMPI PUSH1 0x7F DUP3 AND SWAP2 POP JUMPDEST PUSH1 0x20 DUP3 LT DUP2 EQ ISZERO PUSH2 0x489 JUMPI PUSH2 0x488 PUSH2 0x4C0 JUMP JUMPDEST JUMPDEST POP SWAP2 SWAP1 POP JUMP JUMPDEST PUSH2 0x498 DUP3 PUSH2 0x532 JUMP JUMPDEST DUP2 ADD DUP2 DUP2 LT PUSH8 0xFFFFFFFFFFFFFFFF DUP3 GT OR ISZERO PUSH2 0x4B7 JUMPI PUSH2 0x4B6 PUSH2 0x4EF JUMP JUMPDEST JUMPDEST DUP1 PUSH1 0x40 MSTORE POP POP POP JUMP JUMPDEST PUSH32 0x4E487B7100000000000000000000000000000000000000000000000000000000 PUSH1 0x0 MSTORE PUSH1 0x22 PUSH1 0x4 MSTORE PUSH1 0x24 PUSH1 0x0 REVERT JUMPDEST PUSH32 0x4E487B7100000000000000000000000000000000000000000000000000000000 PUSH1 0x0 MSTORE PUSH1 0x41 PUSH1 0x4 MSTORE PUSH1 0x24 PUSH1 0x0 REVERT JUMPDEST PUSH1 0x0 DUP1 REVERT JUMPDEST PUSH1 0x0 DUP1 REVERT JUMPDEST PUSH1 0x0 DUP1 REVERT JUMPDEST PUSH1 0x0 DUP1 REVERT JUMPDEST PUSH1 0x0 PUSH1 0x1F NOT PUSH1 0x1F DUP4 ADD AND SWAP1 POP SWAP2 SWAP1 POP JUMP JUMPDEST PUSH32 0x4E6F7420746865206F776E657200000000000000000000000000000000000000 PUSH1 0x0 DUP3 ADD MSTORE POP JUMP INVALID LOG2 PUSH5 0x6970667358 0x22 SLT KECCAK256 0xD1 BLOCKHASH 0x2D PUSH27 0x3DCAAB1B8D9385EA7FD4D9BA45990DA1DD3AF4D473FFF86064740E PUSH4 0x64736F6C PUSH4 0x43000807 STOP CALLER "
				},
				"gasEstimates": {
					"creation": {
						"codeDepositCost": "288400",
						"executionCost": "infinite",
						"totalCost": "infinite"
					},
					"external": {
						"getHero()": "infinite",
						"setHero(string)": "infinite"
					}
				},
				"methodIdentifiers": {
					"getHero()": "581bee2f",
					"setHero(string)": "1a126e14"
				}
			},
			"userdoc": {
				"kind": "user",
				"methods": {},
				"version": 1
			}
		}
	}
}