{
	"contracts/TokenSwap.sol": {
		"TokenSwap": {
			"abi": [
				{
					"inputs": [],
					"stateMutability": "nonpayable",
					"type": "constructor"
				},
				{
					"stateMutability": "payable",
					"type": "fallback"
				},
				{
					"inputs": [
						{
							"internalType": "address",
							"name": "_tokenFrom",
							"type": "address"
						},
						{
							"internalType": "address",
							"name": "_addressFrom",
							"type": "address"
						},
						{
							"internalType": "uint256",
							"name": "_amountFrom",
							"type": "uint256"
						},
						{
							"internalType": "address",
							"name": "_tokenTo",
							"type": "address"
						},
						{
							"internalType": "address",
							"name": "_addressTo",
							"type": "address"
						},
						{
							"internalType": "uint256",
							"name": "_amountTo",
							"type": "uint256"
						}
					],
					"name": "swap",
					"outputs": [],
					"stateMutability": "nonpayable",
					"type": "function"
				},
				{
					"inputs": [
						{
							"internalType": "address",
							"name": "_tokenFrom",
							"type": "address"
						},
						{
							"internalType": "uint256",
							"name": "_amountFrom",
							"type": "uint256"
						},
						{
							"internalType": "address",
							"name": "_tokenTo",
							"type": "address"
						},
						{
							"internalType": "uint256",
							"name": "_amountTo",
							"type": "uint256"
						}
					],
					"name": "swap_v2",
					"outputs": [],
					"stateMutability": "nonpayable",
					"type": "function"
				},
				{
					"inputs": [],
					"name": "tokenFrom",
					"outputs": [
						{
							"internalType": "contract IERC20",
							"name": "",
							"type": "address"
						}
					],
					"stateMutability": "view",
					"type": "function"
				},
				{
					"inputs": [],
					"name": "tokenTo",
					"outputs": [
						{
							"internalType": "contract IERC20",
							"name": "",
							"type": "address"
						}
					],
					"stateMutability": "view",
					"type": "function"
				},
				{
					"stateMutability": "payable",
					"type": "receive"
				}
			],
			"devdoc": {
				"kind": "dev",
				"methods": {},
				"version": 1
			},
			"evm": {
				"assembly": "    /* \"contracts/TokenSwap.sol\":89:2117  contract TokenSwap {... */\n  mstore(0x40, 0x80)\n    /* \"contracts/TokenSwap.sol\":176:192  constructor() {} */\n  callvalue\n  dup1\n  iszero\n  tag_1\n  jumpi\n  0x00\n  dup1\n  revert\ntag_1:\n  pop\n    /* \"contracts/TokenSwap.sol\":89:2117  contract TokenSwap {... */\n  dataSize(sub_0)\n  dup1\n  dataOffset(sub_0)\n  0x00\n  codecopy\n  0x00\n  return\nstop\n\nsub_0: assembly {\n        /* \"contracts/TokenSwap.sol\":89:2117  contract TokenSwap {... */\n      mstore(0x40, 0x80)\n      jumpi(tag_1, lt(calldatasize, 0x04))\n      shr(0xe0, calldataload(0x00))\n      dup1\n      0x30ba8901\n      eq\n      tag_3\n      jumpi\n      dup1\n      0x7c153534\n      eq\n      tag_4\n      jumpi\n      dup1\n      0x7ddf3320\n      eq\n      tag_5\n      jumpi\n      dup1\n      0xc17b7326\n      eq\n      tag_6\n      jumpi\n      jump(tag_2)\n    tag_1:\n      jumpi(tag_2, calldatasize)\n      stop\n    tag_2:\n      stop\n        /* \"contracts/TokenSwap.sol\":936:1557  function swap_v2(... */\n    tag_3:\n      callvalue\n      dup1\n      iszero\n      tag_11\n      jumpi\n      0x00\n      dup1\n      revert\n    tag_11:\n      pop\n      tag_12\n      0x04\n      dup1\n      calldatasize\n      sub\n      dup2\n      add\n      swap1\n      tag_13\n      swap2\n      swap1\n      tag_14\n      jump\t// in\n    tag_13:\n      tag_15\n      jump\t// in\n    tag_12:\n      stop\n        /* \"contracts/TokenSwap.sol\":119:142  IERC20 public tokenFrom */\n    tag_4:\n      callvalue\n      dup1\n      iszero\n      tag_16\n      jumpi\n      0x00\n      dup1\n      revert\n    tag_16:\n      pop\n      tag_17\n      tag_18\n      jump\t// in\n    tag_17:\n      mload(0x40)\n      tag_19\n      swap2\n      swap1\n      tag_20\n      jump\t// in\n    tag_19:\n      mload(0x40)\n      dup1\n      swap2\n      sub\n      swap1\n      return\n        /* \"contracts/TokenSwap.sol\":198:930  function swap(... */\n    tag_5:\n      callvalue\n      dup1\n      iszero\n      tag_21\n      jumpi\n      0x00\n      dup1\n      revert\n    tag_21:\n      pop\n      tag_22\n      0x04\n      dup1\n      calldatasize\n      sub\n      dup2\n      add\n      swap1\n      tag_23\n      swap2\n      swap1\n      tag_24\n      jump\t// in\n    tag_23:\n      tag_25\n      jump\t// in\n    tag_22:\n      stop\n        /* \"contracts/TokenSwap.sol\":148:169  IERC20 public tokenTo */\n    tag_6:\n      callvalue\n      dup1\n      iszero\n      tag_26\n      jumpi\n      0x00\n      dup1\n      revert\n    tag_26:\n      pop\n      tag_27\n      tag_28\n      jump\t// in\n    tag_27:\n      mload(0x40)\n      tag_29\n      swap2\n      swap1\n      tag_20\n      jump\t// in\n    tag_29:\n      mload(0x40)\n      dup1\n      swap2\n      sub\n      swap1\n      return\n        /* \"contracts/TokenSwap.sol\":936:1557  function swap_v2(... */\n    tag_15:\n        /* \"contracts/TokenSwap.sol\":1076:1096  address _addressSwap */\n      0x00\n        /* \"contracts/TokenSwap.sol\":1099:1109  msg.sender */\n      caller\n        /* \"contracts/TokenSwap.sol\":1076:1109  address _addressSwap = msg.sender */\n      swap1\n      pop\n        /* \"contracts/TokenSwap.sol\":1138:1148  _tokenFrom */\n      dup5\n        /* \"contracts/TokenSwap.sol\":1119:1128  tokenFrom */\n      0x00\n      dup1\n        /* \"contracts/TokenSwap.sol\":1119:1149  tokenFrom = IERC20(_tokenFrom) */\n      0x0100\n      exp\n      dup2\n      sload\n      dup2\n      0xffffffffffffffffffffffffffffffffffffffff\n      mul\n      not\n      and\n      swap1\n      dup4\n      0xffffffffffffffffffffffffffffffffffffffff\n      and\n      mul\n      or\n      swap1\n      sstore\n      pop\n        /* \"contracts/TokenSwap.sol\":1176:1184  _tokenTo */\n      dup3\n        /* \"contracts/TokenSwap.sol\":1159:1166  tokenTo */\n      0x01\n      0x00\n        /* \"contracts/TokenSwap.sol\":1159:1185  tokenTo = IERC20(_tokenTo) */\n      0x0100\n      exp\n      dup2\n      sload\n      dup2\n      0xffffffffffffffffffffffffffffffffffffffff\n      mul\n      not\n      and\n      swap1\n      dup4\n      0xffffffffffffffffffffffffffffffffffffffff\n      and\n      mul\n      or\n      swap1\n      sstore\n      pop\n        /* \"contracts/TokenSwap.sol\":1257:1268  _amountFrom */\n      dup4\n        /* \"contracts/TokenSwap.sol\":1204:1213  tokenFrom */\n      0x00\n      dup1\n      sload\n      swap1\n      0x0100\n      exp\n      swap1\n      div\n      0xffffffffffffffffffffffffffffffffffffffff\n      and\n        /* \"contracts/TokenSwap.sol\":1204:1223  tokenFrom.allowance */\n      0xffffffffffffffffffffffffffffffffffffffff\n      and\n      0xdd62ed3e\n        /* \"contracts/TokenSwap.sol\":1224:1236  _addressSwap */\n      dup4\n        /* \"contracts/TokenSwap.sol\":1247:1251  this */\n      address\n        /* \"contracts/TokenSwap.sol\":1204:1253  tokenFrom.allowance(_addressSwap, address (this)) */\n      mload(0x40)\n      dup4\n      0xffffffff\n      and\n      0xe0\n      shl\n      dup2\n      mstore\n      0x04\n      add\n      tag_31\n      swap3\n      swap2\n      swap1\n      tag_32\n      jump\t// in\n    tag_31:\n      0x20\n      mload(0x40)\n      dup1\n      dup4\n      sub\n      dup2\n      dup7\n      dup1\n      extcodesize\n      iszero\n      dup1\n      iszero\n      tag_33\n      jumpi\n      0x00\n      dup1\n      revert\n    tag_33:\n      pop\n      gas\n      staticcall\n      iszero\n      dup1\n      iszero\n      tag_35\n      jumpi\n      returndatasize\n      0x00\n      dup1\n      returndatacopy\n      revert(0x00, returndatasize)\n    tag_35:\n      pop\n      pop\n      pop\n      pop\n      mload(0x40)\n      returndatasize\n      not(0x1f)\n      0x1f\n      dup3\n      add\n      and\n      dup3\n      add\n      dup1\n      0x40\n      mstore\n      pop\n      dup2\n      add\n      swap1\n      tag_36\n      swap2\n      swap1\n      tag_37\n      jump\t// in\n    tag_36:\n        /* \"contracts/TokenSwap.sol\":1204:1268  tokenFrom.allowance(_addressSwap, address (this)) >= _amountFrom */\n      lt\n      iszero\n        /* \"contracts/TokenSwap.sol\":1196:1296  require(tokenFrom.allowance(_addressSwap, address (this)) >= _amountFrom, \"Allow tokenFrom too low\") */\n      tag_38\n      jumpi\n      mload(0x40)\n      0x08c379a000000000000000000000000000000000000000000000000000000000\n      dup2\n      mstore\n      0x04\n      add\n      tag_39\n      swap1\n      tag_40\n      jump\t// in\n    tag_39:\n      mload(0x40)\n      dup1\n      swap2\n      sub\n      swap1\n      revert\n    tag_38:\n        /* \"contracts/TokenSwap.sol\":1350:1359  _amountTo */\n      dup2\n        /* \"contracts/TokenSwap.sol\":1314:1321  tokenTo */\n      0x01\n      0x00\n      swap1\n      sload\n      swap1\n      0x0100\n      exp\n      swap1\n      div\n      0xffffffffffffffffffffffffffffffffffffffff\n      and\n        /* \"contracts/TokenSwap.sol\":1314:1331  tokenTo.balanceOf */\n      0xffffffffffffffffffffffffffffffffffffffff\n      and\n      0x70a08231\n        /* \"contracts/TokenSwap.sol\":1340:1344  this */\n      address\n        /* \"contracts/TokenSwap.sol\":1314:1346  tokenTo.balanceOf(address(this)) */\n      mload(0x40)\n      dup3\n      0xffffffff\n      and\n      0xe0\n      shl\n      dup2\n      mstore\n      0x04\n      add\n      tag_41\n      swap2\n      swap1\n      tag_42\n      jump\t// in\n    tag_41:\n      0x20\n      mload(0x40)\n      dup1\n      dup4\n      sub\n      dup2\n      dup7\n      dup1\n      extcodesize\n      iszero\n      dup1\n      iszero\n      tag_43\n      jumpi\n      0x00\n      dup1\n      revert\n    tag_43:\n      pop\n      gas\n      staticcall\n      iszero\n      dup1\n      iszero\n      tag_45\n      jumpi\n      returndatasize\n      0x00\n      dup1\n      returndatacopy\n      revert(0x00, returndatasize)\n    tag_45:\n      pop\n      pop\n      pop\n      pop\n      mload(0x40)\n      returndatasize\n      not(0x1f)\n      0x1f\n      dup3\n      add\n      and\n      dup3\n      add\n      dup1\n      0x40\n      mstore\n      pop\n      dup2\n      add\n      swap1\n      tag_46\n      swap2\n      swap1\n      tag_37\n      jump\t// in\n    tag_46:\n        /* \"contracts/TokenSwap.sol\":1314:1359  tokenTo.balanceOf(address(this)) >= _amountTo */\n      lt\n      iszero\n        /* \"contracts/TokenSwap.sol\":1306:1412  require(tokenTo.balanceOf(address(this)) >= _amountTo, 'Insufficient balance tokenTo to send back client') */\n      tag_47\n      jumpi\n      mload(0x40)\n      0x08c379a000000000000000000000000000000000000000000000000000000000\n      dup2\n      mstore\n      0x04\n      add\n      tag_48\n      swap1\n      tag_49\n      jump\t// in\n    tag_48:\n      mload(0x40)\n      dup1\n      swap2\n      sub\n      swap1\n      revert\n    tag_47:\n        /* \"contracts/TokenSwap.sol\":1423:1493  _safeTransferFrom(tokenFrom, _addressSwap, address(this), _amountFrom) */\n      tag_50\n        /* \"contracts/TokenSwap.sol\":1441:1450  tokenFrom */\n      0x00\n      dup1\n      sload\n      swap1\n      0x0100\n      exp\n      swap1\n      div\n      0xffffffffffffffffffffffffffffffffffffffff\n      and\n        /* \"contracts/TokenSwap.sol\":1452:1464  _addressSwap */\n      dup3\n        /* \"contracts/TokenSwap.sol\":1474:1478  this */\n      address\n        /* \"contracts/TokenSwap.sol\":1481:1492  _amountFrom */\n      dup8\n        /* \"contracts/TokenSwap.sol\":1423:1440  _safeTransferFrom */\n      tag_51\n        /* \"contracts/TokenSwap.sol\":1423:1493  _safeTransferFrom(tokenFrom, _addressSwap, address(this), _amountFrom) */\n      jump\t// in\n    tag_50:\n        /* \"contracts/TokenSwap.sol\":1503:1550  _safeTransfer(tokenTo, _addressSwap, _amountTo) */\n      tag_52\n        /* \"contracts/TokenSwap.sol\":1517:1524  tokenTo */\n      0x01\n      0x00\n      swap1\n      sload\n      swap1\n      0x0100\n      exp\n      swap1\n      div\n      0xffffffffffffffffffffffffffffffffffffffff\n      and\n        /* \"contracts/TokenSwap.sol\":1526:1538  _addressSwap */\n      dup3\n        /* \"contracts/TokenSwap.sol\":1540:1549  _amountTo */\n      dup5\n        /* \"contracts/TokenSwap.sol\":1503:1516  _safeTransfer */\n      tag_53\n        /* \"contracts/TokenSwap.sol\":1503:1550  _safeTransfer(tokenTo, _addressSwap, _amountTo) */\n      jump\t// in\n    tag_52:\n        /* \"contracts/TokenSwap.sol\":1065:1557  {... */\n      pop\n        /* \"contracts/TokenSwap.sol\":936:1557  function swap_v2(... */\n      pop\n      pop\n      pop\n      pop\n      jump\t// out\n        /* \"contracts/TokenSwap.sol\":119:142  IERC20 public tokenFrom */\n    tag_18:\n      0x00\n      dup1\n      sload\n      swap1\n      0x0100\n      exp\n      swap1\n      div\n      0xffffffffffffffffffffffffffffffffffffffff\n      and\n      dup2\n      jump\t// out\n        /* \"contracts/TokenSwap.sol\":198:930  function swap(... */\n    tag_25:\n        /* \"contracts/TokenSwap.sol\":412:422  _tokenFrom */\n      dup6\n        /* \"contracts/TokenSwap.sol\":393:402  tokenFrom */\n      0x00\n      dup1\n        /* \"contracts/TokenSwap.sol\":393:423  tokenFrom = IERC20(_tokenFrom) */\n      0x0100\n      exp\n      dup2\n      sload\n      dup2\n      0xffffffffffffffffffffffffffffffffffffffff\n      mul\n      not\n      and\n      swap1\n      dup4\n      0xffffffffffffffffffffffffffffffffffffffff\n      and\n      mul\n      or\n      swap1\n      sstore\n      pop\n        /* \"contracts/TokenSwap.sol\":450:458  _tokenTo */\n      dup3\n        /* \"contracts/TokenSwap.sol\":433:440  tokenTo */\n      0x01\n      0x00\n        /* \"contracts/TokenSwap.sol\":433:459  tokenTo = IERC20(_tokenTo) */\n      0x0100\n      exp\n      dup2\n      sload\n      dup2\n      0xffffffffffffffffffffffffffffffffffffffff\n      mul\n      not\n      and\n      swap1\n      dup4\n      0xffffffffffffffffffffffffffffffffffffffff\n      and\n      mul\n      or\n      swap1\n      sstore\n      pop\n        /* \"contracts/TokenSwap.sol\":492:504  _addressFrom */\n      dup5\n        /* \"contracts/TokenSwap.sol\":478:504  msg.sender == _addressFrom */\n      0xffffffffffffffffffffffffffffffffffffffff\n      and\n        /* \"contracts/TokenSwap.sol\":478:488  msg.sender */\n      caller\n        /* \"contracts/TokenSwap.sol\":478:504  msg.sender == _addressFrom */\n      0xffffffffffffffffffffffffffffffffffffffff\n      and\n      eq\n        /* \"contracts/TokenSwap.sol\":478:532  msg.sender == _addressFrom || msg.sender == _addressTo */\n      dup1\n      tag_55\n      jumpi\n      pop\n        /* \"contracts/TokenSwap.sol\":522:532  _addressTo */\n      dup2\n        /* \"contracts/TokenSwap.sol\":508:532  msg.sender == _addressTo */\n      0xffffffffffffffffffffffffffffffffffffffff\n      and\n        /* \"contracts/TokenSwap.sol\":508:518  msg.sender */\n      caller\n        /* \"contracts/TokenSwap.sol\":508:532  msg.sender == _addressTo */\n      0xffffffffffffffffffffffffffffffffffffffff\n      and\n      eq\n        /* \"contracts/TokenSwap.sol\":478:532  msg.sender == _addressFrom || msg.sender == _addressTo */\n    tag_55:\n        /* \"contracts/TokenSwap.sol\":470:559  require(msg.sender == _addressFrom || msg.sender == _addressTo, \"Address swap not valid\") */\n      tag_56\n      jumpi\n      mload(0x40)\n      0x08c379a000000000000000000000000000000000000000000000000000000000\n      dup2\n      mstore\n      0x04\n      add\n      tag_57\n      swap1\n      tag_58\n      jump\t// in\n    tag_57:\n      mload(0x40)\n      dup1\n      swap2\n      sub\n      swap1\n      revert\n    tag_56:\n        /* \"contracts/TokenSwap.sol\":630:641  _amountFrom */\n      dup4\n        /* \"contracts/TokenSwap.sol\":577:586  tokenFrom */\n      0x00\n      dup1\n      sload\n      swap1\n      0x0100\n      exp\n      swap1\n      div\n      0xffffffffffffffffffffffffffffffffffffffff\n      and\n        /* \"contracts/TokenSwap.sol\":577:596  tokenFrom.allowance */\n      0xffffffffffffffffffffffffffffffffffffffff\n      and\n      0xdd62ed3e\n        /* \"contracts/TokenSwap.sol\":597:609  _addressFrom */\n      dup8\n        /* \"contracts/TokenSwap.sol\":620:624  this */\n      address\n        /* \"contracts/TokenSwap.sol\":577:626  tokenFrom.allowance(_addressFrom, address (this)) */\n      mload(0x40)\n      dup4\n      0xffffffff\n      and\n      0xe0\n      shl\n      dup2\n      mstore\n      0x04\n      add\n      tag_59\n      swap3\n      swap2\n      swap1\n      tag_32\n      jump\t// in\n    tag_59:\n      0x20\n      mload(0x40)\n      dup1\n      dup4\n      sub\n      dup2\n      dup7\n      dup1\n      extcodesize\n      iszero\n      dup1\n      iszero\n      tag_60\n      jumpi\n      0x00\n      dup1\n      revert\n    tag_60:\n      pop\n      gas\n      staticcall\n      iszero\n      dup1\n      iszero\n      tag_62\n      jumpi\n      returndatasize\n      0x00\n      dup1\n      returndatacopy\n      revert(0x00, returndatasize)\n    tag_62:\n      pop\n      pop\n      pop\n      pop\n      mload(0x40)\n      returndatasize\n      not(0x1f)\n      0x1f\n      dup3\n      add\n      and\n      dup3\n      add\n      dup1\n      0x40\n      mstore\n      pop\n      dup2\n      add\n      swap1\n      tag_63\n      swap2\n      swap1\n      tag_37\n      jump\t// in\n    tag_63:\n        /* \"contracts/TokenSwap.sol\":577:641  tokenFrom.allowance(_addressFrom, address (this)) >= _amountFrom */\n      lt\n      iszero\n        /* \"contracts/TokenSwap.sol\":569:670  require(tokenFrom.allowance(_addressFrom, address (this)) >= _amountFrom, \"Token allow From too low\") */\n      tag_64\n      jumpi\n      mload(0x40)\n      0x08c379a000000000000000000000000000000000000000000000000000000000\n      dup2\n      mstore\n      0x04\n      add\n      tag_65\n      swap1\n      tag_66\n      jump\t// in\n    tag_65:\n      mload(0x40)\n      dup1\n      swap2\n      sub\n      swap1\n      revert\n    tag_64:\n        /* \"contracts/TokenSwap.sol\":737:746  _amountTo */\n      dup1\n        /* \"contracts/TokenSwap.sol\":688:695  tokenTo */\n      0x01\n      0x00\n      swap1\n      sload\n      swap1\n      0x0100\n      exp\n      swap1\n      div\n      0xffffffffffffffffffffffffffffffffffffffff\n      and\n        /* \"contracts/TokenSwap.sol\":688:705  tokenTo.allowance */\n      0xffffffffffffffffffffffffffffffffffffffff\n      and\n      0xdd62ed3e\n        /* \"contracts/TokenSwap.sol\":706:716  _addressTo */\n      dup5\n        /* \"contracts/TokenSwap.sol\":727:731  this */\n      address\n        /* \"contracts/TokenSwap.sol\":688:733  tokenTo.allowance(_addressTo, address (this)) */\n      mload(0x40)\n      dup4\n      0xffffffff\n      and\n      0xe0\n      shl\n      dup2\n      mstore\n      0x04\n      add\n      tag_67\n      swap3\n      swap2\n      swap1\n      tag_32\n      jump\t// in\n    tag_67:\n      0x20\n      mload(0x40)\n      dup1\n      dup4\n      sub\n      dup2\n      dup7\n      dup1\n      extcodesize\n      iszero\n      dup1\n      iszero\n      tag_68\n      jumpi\n      0x00\n      dup1\n      revert\n    tag_68:\n      pop\n      gas\n      staticcall\n      iszero\n      dup1\n      iszero\n      tag_70\n      jumpi\n      returndatasize\n      0x00\n      dup1\n      returndatacopy\n      revert(0x00, returndatasize)\n    tag_70:\n      pop\n      pop\n      pop\n      pop\n      mload(0x40)\n      returndatasize\n      not(0x1f)\n      0x1f\n      dup3\n      add\n      and\n      dup3\n      add\n      dup1\n      0x40\n      mstore\n      pop\n      dup2\n      add\n      swap1\n      tag_71\n      swap2\n      swap1\n      tag_37\n      jump\t// in\n    tag_71:\n        /* \"contracts/TokenSwap.sol\":688:746  tokenTo.allowance(_addressTo, address (this)) >= _amountTo */\n      lt\n      iszero\n        /* \"contracts/TokenSwap.sol\":680:773  require(tokenTo.allowance(_addressTo, address (this)) >= _amountTo, \"Token allow To too low\") */\n      tag_72\n      jumpi\n      mload(0x40)\n      0x08c379a000000000000000000000000000000000000000000000000000000000\n      dup2\n      mstore\n      0x04\n      add\n      tag_73\n      swap1\n      tag_74\n      jump\t// in\n    tag_73:\n      mload(0x40)\n      dup1\n      swap2\n      sub\n      swap1\n      revert\n    tag_72:\n        /* \"contracts/TokenSwap.sol\":783:850  _safeTransferFrom(tokenFrom, _addressFrom, _addressTo, _amountFrom) */\n      tag_75\n        /* \"contracts/TokenSwap.sol\":801:810  tokenFrom */\n      0x00\n      dup1\n      sload\n      swap1\n      0x0100\n      exp\n      swap1\n      div\n      0xffffffffffffffffffffffffffffffffffffffff\n      and\n        /* \"contracts/TokenSwap.sol\":812:824  _addressFrom */\n      dup7\n        /* \"contracts/TokenSwap.sol\":826:836  _addressTo */\n      dup5\n        /* \"contracts/TokenSwap.sol\":838:849  _amountFrom */\n      dup8\n        /* \"contracts/TokenSwap.sol\":783:800  _safeTransferFrom */\n      tag_51\n        /* \"contracts/TokenSwap.sol\":783:850  _safeTransferFrom(tokenFrom, _addressFrom, _addressTo, _amountFrom) */\n      jump\t// in\n    tag_75:\n        /* \"contracts/TokenSwap.sol\":860:923  _safeTransferFrom(tokenTo, _addressTo, _addressFrom, _amountTo) */\n      tag_76\n        /* \"contracts/TokenSwap.sol\":878:885  tokenTo */\n      0x01\n      0x00\n      swap1\n      sload\n      swap1\n      0x0100\n      exp\n      swap1\n      div\n      0xffffffffffffffffffffffffffffffffffffffff\n      and\n        /* \"contracts/TokenSwap.sol\":887:897  _addressTo */\n      dup4\n        /* \"contracts/TokenSwap.sol\":899:911  _addressFrom */\n      dup8\n        /* \"contracts/TokenSwap.sol\":913:922  _amountTo */\n      dup5\n        /* \"contracts/TokenSwap.sol\":860:877  _safeTransferFrom */\n      tag_51\n        /* \"contracts/TokenSwap.sol\":860:923  _safeTransferFrom(tokenTo, _addressTo, _addressFrom, _amountTo) */\n      jump\t// in\n    tag_76:\n        /* \"contracts/TokenSwap.sol\":198:930  function swap(... */\n      pop\n      pop\n      pop\n      pop\n      pop\n      pop\n      jump\t// out\n        /* \"contracts/TokenSwap.sol\":148:169  IERC20 public tokenTo */\n    tag_28:\n      0x01\n      0x00\n      swap1\n      sload\n      swap1\n      0x0100\n      exp\n      swap1\n      div\n      0xffffffffffffffffffffffffffffffffffffffff\n      and\n      dup2\n      jump\t// out\n        /* \"contracts/TokenSwap.sol\":1563:1820  function _safeTransferFrom(... */\n    tag_51:\n        /* \"contracts/TokenSwap.sol\":1708:1717  bool sent */\n      0x00\n        /* \"contracts/TokenSwap.sol\":1720:1725  token */\n      dup5\n        /* \"contracts/TokenSwap.sol\":1720:1738  token.transferFrom */\n      0xffffffffffffffffffffffffffffffffffffffff\n      and\n      0x23b872dd\n        /* \"contracts/TokenSwap.sol\":1739:1745  sender */\n      dup6\n        /* \"contracts/TokenSwap.sol\":1747:1756  recipient */\n      dup6\n        /* \"contracts/TokenSwap.sol\":1758:1764  amount */\n      dup6\n        /* \"contracts/TokenSwap.sol\":1720:1765  token.transferFrom(sender, recipient, amount) */\n      mload(0x40)\n      dup5\n      0xffffffff\n      and\n      0xe0\n      shl\n      dup2\n      mstore\n      0x04\n      add\n      tag_78\n      swap4\n      swap3\n      swap2\n      swap1\n      tag_79\n      jump\t// in\n    tag_78:\n      0x20\n      mload(0x40)\n      dup1\n      dup4\n      sub\n      dup2\n      0x00\n      dup8\n      dup1\n      extcodesize\n      iszero\n      dup1\n      iszero\n      tag_80\n      jumpi\n      0x00\n      dup1\n      revert\n    tag_80:\n      pop\n      gas\n      call\n      iszero\n      dup1\n      iszero\n      tag_82\n      jumpi\n      returndatasize\n      0x00\n      dup1\n      returndatacopy\n      revert(0x00, returndatasize)\n    tag_82:\n      pop\n      pop\n      pop\n      pop\n      mload(0x40)\n      returndatasize\n      not(0x1f)\n      0x1f\n      dup3\n      add\n      and\n      dup3\n      add\n      dup1\n      0x40\n      mstore\n      pop\n      dup2\n      add\n      swap1\n      tag_83\n      swap2\n      swap1\n      tag_84\n      jump\t// in\n    tag_83:\n        /* \"contracts/TokenSwap.sol\":1708:1765  bool sent = token.transferFrom(sender, recipient, amount) */\n      swap1\n      pop\n        /* \"contracts/TokenSwap.sol\":1783:1787  sent */\n      dup1\n        /* \"contracts/TokenSwap.sol\":1775:1813  require(sent, \"Token transfer failed\") */\n      tag_85\n      jumpi\n      mload(0x40)\n      0x08c379a000000000000000000000000000000000000000000000000000000000\n      dup2\n      mstore\n      0x04\n      add\n      tag_86\n      swap1\n      tag_87\n      jump\t// in\n    tag_86:\n      mload(0x40)\n      dup1\n      swap2\n      sub\n      swap1\n      revert\n    tag_85:\n        /* \"contracts/TokenSwap.sol\":1698:1820  {... */\n      pop\n        /* \"contracts/TokenSwap.sol\":1563:1820  function _safeTransferFrom(... */\n      pop\n      pop\n      pop\n      pop\n      jump\t// out\n        /* \"contracts/TokenSwap.sol\":1826:2043  function _safeTransfer(... */\n    tag_53:\n        /* \"contracts/TokenSwap.sol\":1943:1952  bool sent */\n      0x00\n        /* \"contracts/TokenSwap.sol\":1955:1960  token */\n      dup4\n        /* \"contracts/TokenSwap.sol\":1955:1969  token.transfer */\n      0xffffffffffffffffffffffffffffffffffffffff\n      and\n      0xa9059cbb\n        /* \"contracts/TokenSwap.sol\":1970:1979  recipient */\n      dup5\n        /* \"contracts/TokenSwap.sol\":1981:1987  amount */\n      dup5\n        /* \"contracts/TokenSwap.sol\":1955:1988  token.transfer(recipient, amount) */\n      mload(0x40)\n      dup4\n      0xffffffff\n      and\n      0xe0\n      shl\n      dup2\n      mstore\n      0x04\n      add\n      tag_89\n      swap3\n      swap2\n      swap1\n      tag_90\n      jump\t// in\n    tag_89:\n      0x20\n      mload(0x40)\n      dup1\n      dup4\n      sub\n      dup2\n      0x00\n      dup8\n      dup1\n      extcodesize\n      iszero\n      dup1\n      iszero\n      tag_91\n      jumpi\n      0x00\n      dup1\n      revert\n    tag_91:\n      pop\n      gas\n      call\n      iszero\n      dup1\n      iszero\n      tag_93\n      jumpi\n      returndatasize\n      0x00\n      dup1\n      returndatacopy\n      revert(0x00, returndatasize)\n    tag_93:\n      pop\n      pop\n      pop\n      pop\n      mload(0x40)\n      returndatasize\n      not(0x1f)\n      0x1f\n      dup3\n      add\n      and\n      dup3\n      add\n      dup1\n      0x40\n      mstore\n      pop\n      dup2\n      add\n      swap1\n      tag_94\n      swap2\n      swap1\n      tag_84\n      jump\t// in\n    tag_94:\n        /* \"contracts/TokenSwap.sol\":1943:1988  bool sent = token.transfer(recipient, amount) */\n      swap1\n      pop\n        /* \"contracts/TokenSwap.sol\":2006:2010  sent */\n      dup1\n        /* \"contracts/TokenSwap.sol\":1998:2036  require(sent, \"Token transfer failed\") */\n      tag_95\n      jumpi\n      mload(0x40)\n      0x08c379a000000000000000000000000000000000000000000000000000000000\n      dup2\n      mstore\n      0x04\n      add\n      tag_96\n      swap1\n      tag_87\n      jump\t// in\n    tag_96:\n      mload(0x40)\n      dup1\n      swap2\n      sub\n      swap1\n      revert\n    tag_95:\n        /* \"contracts/TokenSwap.sol\":1933:2043  {... */\n      pop\n        /* \"contracts/TokenSwap.sol\":1826:2043  function _safeTransfer(... */\n      pop\n      pop\n      pop\n      jump\t// out\n        /* \"#utility.yul\":7:146   */\n    tag_98:\n        /* \"#utility.yul\":53:58   */\n      0x00\n        /* \"#utility.yul\":91:97   */\n      dup2\n        /* \"#utility.yul\":78:98   */\n      calldataload\n        /* \"#utility.yul\":69:98   */\n      swap1\n      pop\n        /* \"#utility.yul\":107:140   */\n      tag_100\n        /* \"#utility.yul\":134:139   */\n      dup2\n        /* \"#utility.yul\":107:140   */\n      tag_101\n      jump\t// in\n    tag_100:\n        /* \"#utility.yul\":7:146   */\n      swap3\n      swap2\n      pop\n      pop\n      jump\t// out\n        /* \"#utility.yul\":152:289   */\n    tag_102:\n        /* \"#utility.yul\":206:211   */\n      0x00\n        /* \"#utility.yul\":237:243   */\n      dup2\n        /* \"#utility.yul\":231:244   */\n      mload\n        /* \"#utility.yul\":222:244   */\n      swap1\n      pop\n        /* \"#utility.yul\":253:283   */\n      tag_104\n        /* \"#utility.yul\":277:282   */\n      dup2\n        /* \"#utility.yul\":253:283   */\n      tag_105\n      jump\t// in\n    tag_104:\n        /* \"#utility.yul\":152:289   */\n      swap3\n      swap2\n      pop\n      pop\n      jump\t// out\n        /* \"#utility.yul\":295:434   */\n    tag_106:\n        /* \"#utility.yul\":341:346   */\n      0x00\n        /* \"#utility.yul\":379:385   */\n      dup2\n        /* \"#utility.yul\":366:386   */\n      calldataload\n        /* \"#utility.yul\":357:386   */\n      swap1\n      pop\n        /* \"#utility.yul\":395:428   */\n      tag_108\n        /* \"#utility.yul\":422:427   */\n      dup2\n        /* \"#utility.yul\":395:428   */\n      tag_109\n      jump\t// in\n    tag_108:\n        /* \"#utility.yul\":295:434   */\n      swap3\n      swap2\n      pop\n      pop\n      jump\t// out\n        /* \"#utility.yul\":440:583   */\n    tag_110:\n        /* \"#utility.yul\":497:502   */\n      0x00\n        /* \"#utility.yul\":528:534   */\n      dup2\n        /* \"#utility.yul\":522:535   */\n      mload\n        /* \"#utility.yul\":513:535   */\n      swap1\n      pop\n        /* \"#utility.yul\":544:577   */\n      tag_112\n        /* \"#utility.yul\":571:576   */\n      dup2\n        /* \"#utility.yul\":544:577   */\n      tag_109\n      jump\t// in\n    tag_112:\n        /* \"#utility.yul\":440:583   */\n      swap3\n      swap2\n      pop\n      pop\n      jump\t// out\n        /* \"#utility.yul\":589:1646   */\n    tag_24:\n        /* \"#utility.yul\":693:699   */\n      0x00\n        /* \"#utility.yul\":701:707   */\n      dup1\n        /* \"#utility.yul\":709:715   */\n      0x00\n        /* \"#utility.yul\":717:723   */\n      dup1\n        /* \"#utility.yul\":725:731   */\n      0x00\n        /* \"#utility.yul\":733:739   */\n      dup1\n        /* \"#utility.yul\":782:785   */\n      0xc0\n        /* \"#utility.yul\":770:779   */\n      dup8\n        /* \"#utility.yul\":761:768   */\n      dup10\n        /* \"#utility.yul\":757:780   */\n      sub\n        /* \"#utility.yul\":753:786   */\n      slt\n        /* \"#utility.yul\":750:870   */\n      iszero\n      tag_114\n      jumpi\n        /* \"#utility.yul\":789:868   */\n      tag_115\n      tag_116\n      jump\t// in\n    tag_115:\n        /* \"#utility.yul\":750:870   */\n    tag_114:\n        /* \"#utility.yul\":909:910   */\n      0x00\n        /* \"#utility.yul\":934:987   */\n      tag_117\n        /* \"#utility.yul\":979:986   */\n      dup10\n        /* \"#utility.yul\":970:976   */\n      dup3\n        /* \"#utility.yul\":959:968   */\n      dup11\n        /* \"#utility.yul\":955:977   */\n      add\n        /* \"#utility.yul\":934:987   */\n      tag_98\n      jump\t// in\n    tag_117:\n        /* \"#utility.yul\":924:987   */\n      swap7\n      pop\n        /* \"#utility.yul\":880:997   */\n      pop\n        /* \"#utility.yul\":1036:1038   */\n      0x20\n        /* \"#utility.yul\":1062:1115   */\n      tag_118\n        /* \"#utility.yul\":1107:1114   */\n      dup10\n        /* \"#utility.yul\":1098:1104   */\n      dup3\n        /* \"#utility.yul\":1087:1096   */\n      dup11\n        /* \"#utility.yul\":1083:1105   */\n      add\n        /* \"#utility.yul\":1062:1115   */\n      tag_98\n      jump\t// in\n    tag_118:\n        /* \"#utility.yul\":1052:1115   */\n      swap6\n      pop\n        /* \"#utility.yul\":1007:1125   */\n      pop\n        /* \"#utility.yul\":1164:1166   */\n      0x40\n        /* \"#utility.yul\":1190:1243   */\n      tag_119\n        /* \"#utility.yul\":1235:1242   */\n      dup10\n        /* \"#utility.yul\":1226:1232   */\n      dup3\n        /* \"#utility.yul\":1215:1224   */\n      dup11\n        /* \"#utility.yul\":1211:1233   */\n      add\n        /* \"#utility.yul\":1190:1243   */\n      tag_106\n      jump\t// in\n    tag_119:\n        /* \"#utility.yul\":1180:1243   */\n      swap5\n      pop\n        /* \"#utility.yul\":1135:1253   */\n      pop\n        /* \"#utility.yul\":1292:1294   */\n      0x60\n        /* \"#utility.yul\":1318:1371   */\n      tag_120\n        /* \"#utility.yul\":1363:1370   */\n      dup10\n        /* \"#utility.yul\":1354:1360   */\n      dup3\n        /* \"#utility.yul\":1343:1352   */\n      dup11\n        /* \"#utility.yul\":1339:1361   */\n      add\n        /* \"#utility.yul\":1318:1371   */\n      tag_98\n      jump\t// in\n    tag_120:\n        /* \"#utility.yul\":1308:1371   */\n      swap4\n      pop\n        /* \"#utility.yul\":1263:1381   */\n      pop\n        /* \"#utility.yul\":1420:1423   */\n      0x80\n        /* \"#utility.yul\":1447:1500   */\n      tag_121\n        /* \"#utility.yul\":1492:1499   */\n      dup10\n        /* \"#utility.yul\":1483:1489   */\n      dup3\n        /* \"#utility.yul\":1472:1481   */\n      dup11\n        /* \"#utility.yul\":1468:1490   */\n      add\n        /* \"#utility.yul\":1447:1500   */\n      tag_98\n      jump\t// in\n    tag_121:\n        /* \"#utility.yul\":1437:1500   */\n      swap3\n      pop\n        /* \"#utility.yul\":1391:1510   */\n      pop\n        /* \"#utility.yul\":1549:1552   */\n      0xa0\n        /* \"#utility.yul\":1576:1629   */\n      tag_122\n        /* \"#utility.yul\":1621:1628   */\n      dup10\n        /* \"#utility.yul\":1612:1618   */\n      dup3\n        /* \"#utility.yul\":1601:1610   */\n      dup11\n        /* \"#utility.yul\":1597:1619   */\n      add\n        /* \"#utility.yul\":1576:1629   */\n      tag_106\n      jump\t// in\n    tag_122:\n        /* \"#utility.yul\":1566:1629   */\n      swap2\n      pop\n        /* \"#utility.yul\":1520:1639   */\n      pop\n        /* \"#utility.yul\":589:1646   */\n      swap3\n      swap6\n      pop\n      swap3\n      swap6\n      pop\n      swap3\n      swap6\n      jump\t// out\n        /* \"#utility.yul\":1652:2417   */\n    tag_14:\n        /* \"#utility.yul\":1738:1744   */\n      0x00\n        /* \"#utility.yul\":1746:1752   */\n      dup1\n        /* \"#utility.yul\":1754:1760   */\n      0x00\n        /* \"#utility.yul\":1762:1768   */\n      dup1\n        /* \"#utility.yul\":1811:1814   */\n      0x80\n        /* \"#utility.yul\":1799:1808   */\n      dup6\n        /* \"#utility.yul\":1790:1797   */\n      dup8\n        /* \"#utility.yul\":1786:1809   */\n      sub\n        /* \"#utility.yul\":1782:1815   */\n      slt\n        /* \"#utility.yul\":1779:1899   */\n      iszero\n      tag_124\n      jumpi\n        /* \"#utility.yul\":1818:1897   */\n      tag_125\n      tag_116\n      jump\t// in\n    tag_125:\n        /* \"#utility.yul\":1779:1899   */\n    tag_124:\n        /* \"#utility.yul\":1938:1939   */\n      0x00\n        /* \"#utility.yul\":1963:2016   */\n      tag_126\n        /* \"#utility.yul\":2008:2015   */\n      dup8\n        /* \"#utility.yul\":1999:2005   */\n      dup3\n        /* \"#utility.yul\":1988:1997   */\n      dup9\n        /* \"#utility.yul\":1984:2006   */\n      add\n        /* \"#utility.yul\":1963:2016   */\n      tag_98\n      jump\t// in\n    tag_126:\n        /* \"#utility.yul\":1953:2016   */\n      swap5\n      pop\n        /* \"#utility.yul\":1909:2026   */\n      pop\n        /* \"#utility.yul\":2065:2067   */\n      0x20\n        /* \"#utility.yul\":2091:2144   */\n      tag_127\n        /* \"#utility.yul\":2136:2143   */\n      dup8\n        /* \"#utility.yul\":2127:2133   */\n      dup3\n        /* \"#utility.yul\":2116:2125   */\n      dup9\n        /* \"#utility.yul\":2112:2134   */\n      add\n        /* \"#utility.yul\":2091:2144   */\n      tag_106\n      jump\t// in\n    tag_127:\n        /* \"#utility.yul\":2081:2144   */\n      swap4\n      pop\n        /* \"#utility.yul\":2036:2154   */\n      pop\n        /* \"#utility.yul\":2193:2195   */\n      0x40\n        /* \"#utility.yul\":2219:2272   */\n      tag_128\n        /* \"#utility.yul\":2264:2271   */\n      dup8\n        /* \"#utility.yul\":2255:2261   */\n      dup3\n        /* \"#utility.yul\":2244:2253   */\n      dup9\n        /* \"#utility.yul\":2240:2262   */\n      add\n        /* \"#utility.yul\":2219:2272   */\n      tag_98\n      jump\t// in\n    tag_128:\n        /* \"#utility.yul\":2209:2272   */\n      swap3\n      pop\n        /* \"#utility.yul\":2164:2282   */\n      pop\n        /* \"#utility.yul\":2321:2323   */\n      0x60\n        /* \"#utility.yul\":2347:2400   */\n      tag_129\n        /* \"#utility.yul\":2392:2399   */\n      dup8\n        /* \"#utility.yul\":2383:2389   */\n      dup3\n        /* \"#utility.yul\":2372:2381   */\n      dup9\n        /* \"#utility.yul\":2368:2390   */\n      add\n        /* \"#utility.yul\":2347:2400   */\n      tag_106\n      jump\t// in\n    tag_129:\n        /* \"#utility.yul\":2337:2400   */\n      swap2\n      pop\n        /* \"#utility.yul\":2292:2410   */\n      pop\n        /* \"#utility.yul\":1652:2417   */\n      swap3\n      swap6\n      swap2\n      swap5\n      pop\n      swap3\n      pop\n      jump\t// out\n        /* \"#utility.yul\":2423:2768   */\n    tag_84:\n        /* \"#utility.yul\":2490:2496   */\n      0x00\n        /* \"#utility.yul\":2539:2541   */\n      0x20\n        /* \"#utility.yul\":2527:2536   */\n      dup3\n        /* \"#utility.yul\":2518:2525   */\n      dup5\n        /* \"#utility.yul\":2514:2537   */\n      sub\n        /* \"#utility.yul\":2510:2542   */\n      slt\n        /* \"#utility.yul\":2507:2626   */\n      iszero\n      tag_131\n      jumpi\n        /* \"#utility.yul\":2545:2624   */\n      tag_132\n      tag_116\n      jump\t// in\n    tag_132:\n        /* \"#utility.yul\":2507:2626   */\n    tag_131:\n        /* \"#utility.yul\":2665:2666   */\n      0x00\n        /* \"#utility.yul\":2690:2751   */\n      tag_133\n        /* \"#utility.yul\":2743:2750   */\n      dup5\n        /* \"#utility.yul\":2734:2740   */\n      dup3\n        /* \"#utility.yul\":2723:2732   */\n      dup6\n        /* \"#utility.yul\":2719:2741   */\n      add\n        /* \"#utility.yul\":2690:2751   */\n      tag_102\n      jump\t// in\n    tag_133:\n        /* \"#utility.yul\":2680:2751   */\n      swap2\n      pop\n        /* \"#utility.yul\":2636:2761   */\n      pop\n        /* \"#utility.yul\":2423:2768   */\n      swap3\n      swap2\n      pop\n      pop\n      jump\t// out\n        /* \"#utility.yul\":2774:3125   */\n    tag_37:\n        /* \"#utility.yul\":2844:2850   */\n      0x00\n        /* \"#utility.yul\":2893:2895   */\n      0x20\n        /* \"#utility.yul\":2881:2890   */\n      dup3\n        /* \"#utility.yul\":2872:2879   */\n      dup5\n        /* \"#utility.yul\":2868:2891   */\n      sub\n        /* \"#utility.yul\":2864:2896   */\n      slt\n        /* \"#utility.yul\":2861:2980   */\n      iszero\n      tag_135\n      jumpi\n        /* \"#utility.yul\":2899:2978   */\n      tag_136\n      tag_116\n      jump\t// in\n    tag_136:\n        /* \"#utility.yul\":2861:2980   */\n    tag_135:\n        /* \"#utility.yul\":3019:3020   */\n      0x00\n        /* \"#utility.yul\":3044:3108   */\n      tag_137\n        /* \"#utility.yul\":3100:3107   */\n      dup5\n        /* \"#utility.yul\":3091:3097   */\n      dup3\n        /* \"#utility.yul\":3080:3089   */\n      dup6\n        /* \"#utility.yul\":3076:3098   */\n      add\n        /* \"#utility.yul\":3044:3108   */\n      tag_110\n      jump\t// in\n    tag_137:\n        /* \"#utility.yul\":3034:3108   */\n      swap2\n      pop\n        /* \"#utility.yul\":2990:3118   */\n      pop\n        /* \"#utility.yul\":2774:3125   */\n      swap3\n      swap2\n      pop\n      pop\n      jump\t// out\n        /* \"#utility.yul\":3131:3249   */\n    tag_138:\n        /* \"#utility.yul\":3218:3242   */\n      tag_140\n        /* \"#utility.yul\":3236:3241   */\n      dup2\n        /* \"#utility.yul\":3218:3242   */\n      tag_141\n      jump\t// in\n    tag_140:\n        /* \"#utility.yul\":3213:3216   */\n      dup3\n        /* \"#utility.yul\":3206:3243   */\n      mstore\n        /* \"#utility.yul\":3131:3249   */\n      pop\n      pop\n      jump\t// out\n        /* \"#utility.yul\":3255:3412   */\n    tag_142:\n        /* \"#utility.yul\":3355:3405   */\n      tag_144\n        /* \"#utility.yul\":3399:3404   */\n      dup2\n        /* \"#utility.yul\":3355:3405   */\n      tag_145\n      jump\t// in\n    tag_144:\n        /* \"#utility.yul\":3350:3353   */\n      dup3\n        /* \"#utility.yul\":3343:3406   */\n      mstore\n        /* \"#utility.yul\":3255:3412   */\n      pop\n      pop\n      jump\t// out\n        /* \"#utility.yul\":3418:3784   */\n    tag_146:\n        /* \"#utility.yul\":3560:3563   */\n      0x00\n        /* \"#utility.yul\":3581:3648   */\n      tag_148\n        /* \"#utility.yul\":3645:3647   */\n      0x16\n        /* \"#utility.yul\":3640:3643   */\n      dup4\n        /* \"#utility.yul\":3581:3648   */\n      tag_149\n      jump\t// in\n    tag_148:\n        /* \"#utility.yul\":3574:3648   */\n      swap2\n      pop\n        /* \"#utility.yul\":3657:3750   */\n      tag_150\n        /* \"#utility.yul\":3746:3749   */\n      dup3\n        /* \"#utility.yul\":3657:3750   */\n      tag_151\n      jump\t// in\n    tag_150:\n        /* \"#utility.yul\":3775:3777   */\n      0x20\n        /* \"#utility.yul\":3770:3773   */\n      dup3\n        /* \"#utility.yul\":3766:3778   */\n      add\n        /* \"#utility.yul\":3759:3778   */\n      swap1\n      pop\n        /* \"#utility.yul\":3418:3784   */\n      swap2\n      swap1\n      pop\n      jump\t// out\n        /* \"#utility.yul\":3790:4156   */\n    tag_152:\n        /* \"#utility.yul\":3932:3935   */\n      0x00\n        /* \"#utility.yul\":3953:4020   */\n      tag_154\n        /* \"#utility.yul\":4017:4019   */\n      0x30\n        /* \"#utility.yul\":4012:4015   */\n      dup4\n        /* \"#utility.yul\":3953:4020   */\n      tag_149\n      jump\t// in\n    tag_154:\n        /* \"#utility.yul\":3946:4020   */\n      swap2\n      pop\n        /* \"#utility.yul\":4029:4122   */\n      tag_155\n        /* \"#utility.yul\":4118:4121   */\n      dup3\n        /* \"#utility.yul\":4029:4122   */\n      tag_156\n      jump\t// in\n    tag_155:\n        /* \"#utility.yul\":4147:4149   */\n      0x40\n        /* \"#utility.yul\":4142:4145   */\n      dup3\n        /* \"#utility.yul\":4138:4150   */\n      add\n        /* \"#utility.yul\":4131:4150   */\n      swap1\n      pop\n        /* \"#utility.yul\":3790:4156   */\n      swap2\n      swap1\n      pop\n      jump\t// out\n        /* \"#utility.yul\":4162:4528   */\n    tag_157:\n        /* \"#utility.yul\":4304:4307   */\n      0x00\n        /* \"#utility.yul\":4325:4392   */\n      tag_159\n        /* \"#utility.yul\":4389:4391   */\n      0x18\n        /* \"#utility.yul\":4384:4387   */\n      dup4\n        /* \"#utility.yul\":4325:4392   */\n      tag_149\n      jump\t// in\n    tag_159:\n        /* \"#utility.yul\":4318:4392   */\n      swap2\n      pop\n        /* \"#utility.yul\":4401:4494   */\n      tag_160\n        /* \"#utility.yul\":4490:4493   */\n      dup3\n        /* \"#utility.yul\":4401:4494   */\n      tag_161\n      jump\t// in\n    tag_160:\n        /* \"#utility.yul\":4519:4521   */\n      0x20\n        /* \"#utility.yul\":4514:4517   */\n      dup3\n        /* \"#utility.yul\":4510:4522   */\n      add\n        /* \"#utility.yul\":4503:4522   */\n      swap1\n      pop\n        /* \"#utility.yul\":4162:4528   */\n      swap2\n      swap1\n      pop\n      jump\t// out\n        /* \"#utility.yul\":4534:4900   */\n    tag_162:\n        /* \"#utility.yul\":4676:4679   */\n      0x00\n        /* \"#utility.yul\":4697:4764   */\n      tag_164\n        /* \"#utility.yul\":4761:4763   */\n      0x15\n        /* \"#utility.yul\":4756:4759   */\n      dup4\n        /* \"#utility.yul\":4697:4764   */\n      tag_149\n      jump\t// in\n    tag_164:\n        /* \"#utility.yul\":4690:4764   */\n      swap2\n      pop\n        /* \"#utility.yul\":4773:4866   */\n      tag_165\n        /* \"#utility.yul\":4862:4865   */\n      dup3\n        /* \"#utility.yul\":4773:4866   */\n      tag_166\n      jump\t// in\n    tag_165:\n        /* \"#utility.yul\":4891:4893   */\n      0x20\n        /* \"#utility.yul\":4886:4889   */\n      dup3\n        /* \"#utility.yul\":4882:4894   */\n      add\n        /* \"#utility.yul\":4875:4894   */\n      swap1\n      pop\n        /* \"#utility.yul\":4534:4900   */\n      swap2\n      swap1\n      pop\n      jump\t// out\n        /* \"#utility.yul\":4906:5272   */\n    tag_167:\n        /* \"#utility.yul\":5048:5051   */\n      0x00\n        /* \"#utility.yul\":5069:5136   */\n      tag_169\n        /* \"#utility.yul\":5133:5135   */\n      0x16\n        /* \"#utility.yul\":5128:5131   */\n      dup4\n        /* \"#utility.yul\":5069:5136   */\n      tag_149\n      jump\t// in\n    tag_169:\n        /* \"#utility.yul\":5062:5136   */\n      swap2\n      pop\n        /* \"#utility.yul\":5145:5238   */\n      tag_170\n        /* \"#utility.yul\":5234:5237   */\n      dup3\n        /* \"#utility.yul\":5145:5238   */\n      tag_171\n      jump\t// in\n    tag_170:\n        /* \"#utility.yul\":5263:5265   */\n      0x20\n        /* \"#utility.yul\":5258:5261   */\n      dup3\n        /* \"#utility.yul\":5254:5266   */\n      add\n        /* \"#utility.yul\":5247:5266   */\n      swap1\n      pop\n        /* \"#utility.yul\":4906:5272   */\n      swap2\n      swap1\n      pop\n      jump\t// out\n        /* \"#utility.yul\":5278:5644   */\n    tag_172:\n        /* \"#utility.yul\":5420:5423   */\n      0x00\n        /* \"#utility.yul\":5441:5508   */\n      tag_174\n        /* \"#utility.yul\":5505:5507   */\n      0x17\n        /* \"#utility.yul\":5500:5503   */\n      dup4\n        /* \"#utility.yul\":5441:5508   */\n      tag_149\n      jump\t// in\n    tag_174:\n        /* \"#utility.yul\":5434:5508   */\n      swap2\n      pop\n        /* \"#utility.yul\":5517:5610   */\n      tag_175\n        /* \"#utility.yul\":5606:5609   */\n      dup3\n        /* \"#utility.yul\":5517:5610   */\n      tag_176\n      jump\t// in\n    tag_175:\n        /* \"#utility.yul\":5635:5637   */\n      0x20\n        /* \"#utility.yul\":5630:5633   */\n      dup3\n        /* \"#utility.yul\":5626:5638   */\n      add\n        /* \"#utility.yul\":5619:5638   */\n      swap1\n      pop\n        /* \"#utility.yul\":5278:5644   */\n      swap2\n      swap1\n      pop\n      jump\t// out\n        /* \"#utility.yul\":5650:5768   */\n    tag_177:\n        /* \"#utility.yul\":5737:5761   */\n      tag_179\n        /* \"#utility.yul\":5755:5760   */\n      dup2\n        /* \"#utility.yul\":5737:5761   */\n      tag_180\n      jump\t// in\n    tag_179:\n        /* \"#utility.yul\":5732:5735   */\n      dup3\n        /* \"#utility.yul\":5725:5762   */\n      mstore\n        /* \"#utility.yul\":5650:5768   */\n      pop\n      pop\n      jump\t// out\n        /* \"#utility.yul\":5774:5996   */\n    tag_42:\n        /* \"#utility.yul\":5867:5871   */\n      0x00\n        /* \"#utility.yul\":5905:5907   */\n      0x20\n        /* \"#utility.yul\":5894:5903   */\n      dup3\n        /* \"#utility.yul\":5890:5908   */\n      add\n        /* \"#utility.yul\":5882:5908   */\n      swap1\n      pop\n        /* \"#utility.yul\":5918:5989   */\n      tag_182\n        /* \"#utility.yul\":5986:5987   */\n      0x00\n        /* \"#utility.yul\":5975:5984   */\n      dup4\n        /* \"#utility.yul\":5971:5988   */\n      add\n        /* \"#utility.yul\":5962:5968   */\n      dup5\n        /* \"#utility.yul\":5918:5989   */\n      tag_138\n      jump\t// in\n    tag_182:\n        /* \"#utility.yul\":5774:5996   */\n      swap3\n      swap2\n      pop\n      pop\n      jump\t// out\n        /* \"#utility.yul\":6002:6334   */\n    tag_32:\n        /* \"#utility.yul\":6123:6127   */\n      0x00\n        /* \"#utility.yul\":6161:6163   */\n      0x40\n        /* \"#utility.yul\":6150:6159   */\n      dup3\n        /* \"#utility.yul\":6146:6164   */\n      add\n        /* \"#utility.yul\":6138:6164   */\n      swap1\n      pop\n        /* \"#utility.yul\":6174:6245   */\n      tag_184\n        /* \"#utility.yul\":6242:6243   */\n      0x00\n        /* \"#utility.yul\":6231:6240   */\n      dup4\n        /* \"#utility.yul\":6227:6244   */\n      add\n        /* \"#utility.yul\":6218:6224   */\n      dup6\n        /* \"#utility.yul\":6174:6245   */\n      tag_138\n      jump\t// in\n    tag_184:\n        /* \"#utility.yul\":6255:6327   */\n      tag_185\n        /* \"#utility.yul\":6323:6325   */\n      0x20\n        /* \"#utility.yul\":6312:6321   */\n      dup4\n        /* \"#utility.yul\":6308:6326   */\n      add\n        /* \"#utility.yul\":6299:6305   */\n      dup5\n        /* \"#utility.yul\":6255:6327   */\n      tag_138\n      jump\t// in\n    tag_185:\n        /* \"#utility.yul\":6002:6334   */\n      swap4\n      swap3\n      pop\n      pop\n      pop\n      jump\t// out\n        /* \"#utility.yul\":6340:6782   */\n    tag_79:\n        /* \"#utility.yul\":6489:6493   */\n      0x00\n        /* \"#utility.yul\":6527:6529   */\n      0x60\n        /* \"#utility.yul\":6516:6525   */\n      dup3\n        /* \"#utility.yul\":6512:6530   */\n      add\n        /* \"#utility.yul\":6504:6530   */\n      swap1\n      pop\n        /* \"#utility.yul\":6540:6611   */\n      tag_187\n        /* \"#utility.yul\":6608:6609   */\n      0x00\n        /* \"#utility.yul\":6597:6606   */\n      dup4\n        /* \"#utility.yul\":6593:6610   */\n      add\n        /* \"#utility.yul\":6584:6590   */\n      dup7\n        /* \"#utility.yul\":6540:6611   */\n      tag_138\n      jump\t// in\n    tag_187:\n        /* \"#utility.yul\":6621:6693   */\n      tag_188\n        /* \"#utility.yul\":6689:6691   */\n      0x20\n        /* \"#utility.yul\":6678:6687   */\n      dup4\n        /* \"#utility.yul\":6674:6692   */\n      add\n        /* \"#utility.yul\":6665:6671   */\n      dup6\n        /* \"#utility.yul\":6621:6693   */\n      tag_138\n      jump\t// in\n    tag_188:\n        /* \"#utility.yul\":6703:6775   */\n      tag_189\n        /* \"#utility.yul\":6771:6773   */\n      0x40\n        /* \"#utility.yul\":6760:6769   */\n      dup4\n        /* \"#utility.yul\":6756:6774   */\n      add\n        /* \"#utility.yul\":6747:6753   */\n      dup5\n        /* \"#utility.yul\":6703:6775   */\n      tag_177\n      jump\t// in\n    tag_189:\n        /* \"#utility.yul\":6340:6782   */\n      swap5\n      swap4\n      pop\n      pop\n      pop\n      pop\n      jump\t// out\n        /* \"#utility.yul\":6788:7120   */\n    tag_90:\n        /* \"#utility.yul\":6909:6913   */\n      0x00\n        /* \"#utility.yul\":6947:6949   */\n      0x40\n        /* \"#utility.yul\":6936:6945   */\n      dup3\n        /* \"#utility.yul\":6932:6950   */\n      add\n        /* \"#utility.yul\":6924:6950   */\n      swap1\n      pop\n        /* \"#utility.yul\":6960:7031   */\n      tag_191\n        /* \"#utility.yul\":7028:7029   */\n      0x00\n        /* \"#utility.yul\":7017:7026   */\n      dup4\n        /* \"#utility.yul\":7013:7030   */\n      add\n        /* \"#utility.yul\":7004:7010   */\n      dup6\n        /* \"#utility.yul\":6960:7031   */\n      tag_138\n      jump\t// in\n    tag_191:\n        /* \"#utility.yul\":7041:7113   */\n      tag_192\n        /* \"#utility.yul\":7109:7111   */\n      0x20\n        /* \"#utility.yul\":7098:7107   */\n      dup4\n        /* \"#utility.yul\":7094:7112   */\n      add\n        /* \"#utility.yul\":7085:7091   */\n      dup5\n        /* \"#utility.yul\":7041:7113   */\n      tag_177\n      jump\t// in\n    tag_192:\n        /* \"#utility.yul\":6788:7120   */\n      swap4\n      swap3\n      pop\n      pop\n      pop\n      jump\t// out\n        /* \"#utility.yul\":7126:7374   */\n    tag_20:\n        /* \"#utility.yul\":7232:7236   */\n      0x00\n        /* \"#utility.yul\":7270:7272   */\n      0x20\n        /* \"#utility.yul\":7259:7268   */\n      dup3\n        /* \"#utility.yul\":7255:7273   */\n      add\n        /* \"#utility.yul\":7247:7273   */\n      swap1\n      pop\n        /* \"#utility.yul\":7283:7367   */\n      tag_194\n        /* \"#utility.yul\":7364:7365   */\n      0x00\n        /* \"#utility.yul\":7353:7362   */\n      dup4\n        /* \"#utility.yul\":7349:7366   */\n      add\n        /* \"#utility.yul\":7340:7346   */\n      dup5\n        /* \"#utility.yul\":7283:7367   */\n      tag_142\n      jump\t// in\n    tag_194:\n        /* \"#utility.yul\":7126:7374   */\n      swap3\n      swap2\n      pop\n      pop\n      jump\t// out\n        /* \"#utility.yul\":7380:7799   */\n    tag_74:\n        /* \"#utility.yul\":7546:7550   */\n      0x00\n        /* \"#utility.yul\":7584:7586   */\n      0x20\n        /* \"#utility.yul\":7573:7582   */\n      dup3\n        /* \"#utility.yul\":7569:7587   */\n      add\n        /* \"#utility.yul\":7561:7587   */\n      swap1\n      pop\n        /* \"#utility.yul\":7633:7642   */\n      dup2\n        /* \"#utility.yul\":7627:7631   */\n      dup2\n        /* \"#utility.yul\":7623:7643   */\n      sub\n        /* \"#utility.yul\":7619:7620   */\n      0x00\n        /* \"#utility.yul\":7608:7617   */\n      dup4\n        /* \"#utility.yul\":7604:7621   */\n      add\n        /* \"#utility.yul\":7597:7644   */\n      mstore\n        /* \"#utility.yul\":7661:7792   */\n      tag_196\n        /* \"#utility.yul\":7787:7791   */\n      dup2\n        /* \"#utility.yul\":7661:7792   */\n      tag_146\n      jump\t// in\n    tag_196:\n        /* \"#utility.yul\":7653:7792   */\n      swap1\n      pop\n        /* \"#utility.yul\":7380:7799   */\n      swap2\n      swap1\n      pop\n      jump\t// out\n        /* \"#utility.yul\":7805:8224   */\n    tag_49:\n        /* \"#utility.yul\":7971:7975   */\n      0x00\n        /* \"#utility.yul\":8009:8011   */\n      0x20\n        /* \"#utility.yul\":7998:8007   */\n      dup3\n        /* \"#utility.yul\":7994:8012   */\n      add\n        /* \"#utility.yul\":7986:8012   */\n      swap1\n      pop\n        /* \"#utility.yul\":8058:8067   */\n      dup2\n        /* \"#utility.yul\":8052:8056   */\n      dup2\n        /* \"#utility.yul\":8048:8068   */\n      sub\n        /* \"#utility.yul\":8044:8045   */\n      0x00\n        /* \"#utility.yul\":8033:8042   */\n      dup4\n        /* \"#utility.yul\":8029:8046   */\n      add\n        /* \"#utility.yul\":8022:8069   */\n      mstore\n        /* \"#utility.yul\":8086:8217   */\n      tag_198\n        /* \"#utility.yul\":8212:8216   */\n      dup2\n        /* \"#utility.yul\":8086:8217   */\n      tag_152\n      jump\t// in\n    tag_198:\n        /* \"#utility.yul\":8078:8217   */\n      swap1\n      pop\n        /* \"#utility.yul\":7805:8224   */\n      swap2\n      swap1\n      pop\n      jump\t// out\n        /* \"#utility.yul\":8230:8649   */\n    tag_66:\n        /* \"#utility.yul\":8396:8400   */\n      0x00\n        /* \"#utility.yul\":8434:8436   */\n      0x20\n        /* \"#utility.yul\":8423:8432   */\n      dup3\n        /* \"#utility.yul\":8419:8437   */\n      add\n        /* \"#utility.yul\":8411:8437   */\n      swap1\n      pop\n        /* \"#utility.yul\":8483:8492   */\n      dup2\n        /* \"#utility.yul\":8477:8481   */\n      dup2\n        /* \"#utility.yul\":8473:8493   */\n      sub\n        /* \"#utility.yul\":8469:8470   */\n      0x00\n        /* \"#utility.yul\":8458:8467   */\n      dup4\n        /* \"#utility.yul\":8454:8471   */\n      add\n        /* \"#utility.yul\":8447:8494   */\n      mstore\n        /* \"#utility.yul\":8511:8642   */\n      tag_200\n        /* \"#utility.yul\":8637:8641   */\n      dup2\n        /* \"#utility.yul\":8511:8642   */\n      tag_157\n      jump\t// in\n    tag_200:\n        /* \"#utility.yul\":8503:8642   */\n      swap1\n      pop\n        /* \"#utility.yul\":8230:8649   */\n      swap2\n      swap1\n      pop\n      jump\t// out\n        /* \"#utility.yul\":8655:9074   */\n    tag_87:\n        /* \"#utility.yul\":8821:8825   */\n      0x00\n        /* \"#utility.yul\":8859:8861   */\n      0x20\n        /* \"#utility.yul\":8848:8857   */\n      dup3\n        /* \"#utility.yul\":8844:8862   */\n      add\n        /* \"#utility.yul\":8836:8862   */\n      swap1\n      pop\n        /* \"#utility.yul\":8908:8917   */\n      dup2\n        /* \"#utility.yul\":8902:8906   */\n      dup2\n        /* \"#utility.yul\":8898:8918   */\n      sub\n        /* \"#utility.yul\":8894:8895   */\n      0x00\n        /* \"#utility.yul\":8883:8892   */\n      dup4\n        /* \"#utility.yul\":8879:8896   */\n      add\n        /* \"#utility.yul\":8872:8919   */\n      mstore\n        /* \"#utility.yul\":8936:9067   */\n      tag_202\n        /* \"#utility.yul\":9062:9066   */\n      dup2\n        /* \"#utility.yul\":8936:9067   */\n      tag_162\n      jump\t// in\n    tag_202:\n        /* \"#utility.yul\":8928:9067   */\n      swap1\n      pop\n        /* \"#utility.yul\":8655:9074   */\n      swap2\n      swap1\n      pop\n      jump\t// out\n        /* \"#utility.yul\":9080:9499   */\n    tag_58:\n        /* \"#utility.yul\":9246:9250   */\n      0x00\n        /* \"#utility.yul\":9284:9286   */\n      0x20\n        /* \"#utility.yul\":9273:9282   */\n      dup3\n        /* \"#utility.yul\":9269:9287   */\n      add\n        /* \"#utility.yul\":9261:9287   */\n      swap1\n      pop\n        /* \"#utility.yul\":9333:9342   */\n      dup2\n        /* \"#utility.yul\":9327:9331   */\n      dup2\n        /* \"#utility.yul\":9323:9343   */\n      sub\n        /* \"#utility.yul\":9319:9320   */\n      0x00\n        /* \"#utility.yul\":9308:9317   */\n      dup4\n        /* \"#utility.yul\":9304:9321   */\n      add\n        /* \"#utility.yul\":9297:9344   */\n      mstore\n        /* \"#utility.yul\":9361:9492   */\n      tag_204\n        /* \"#utility.yul\":9487:9491   */\n      dup2\n        /* \"#utility.yul\":9361:9492   */\n      tag_167\n      jump\t// in\n    tag_204:\n        /* \"#utility.yul\":9353:9492   */\n      swap1\n      pop\n        /* \"#utility.yul\":9080:9499   */\n      swap2\n      swap1\n      pop\n      jump\t// out\n        /* \"#utility.yul\":9505:9924   */\n    tag_40:\n        /* \"#utility.yul\":9671:9675   */\n      0x00\n        /* \"#utility.yul\":9709:9711   */\n      0x20\n        /* \"#utility.yul\":9698:9707   */\n      dup3\n        /* \"#utility.yul\":9694:9712   */\n      add\n        /* \"#utility.yul\":9686:9712   */\n      swap1\n      pop\n        /* \"#utility.yul\":9758:9767   */\n      dup2\n        /* \"#utility.yul\":9752:9756   */\n      dup2\n        /* \"#utility.yul\":9748:9768   */\n      sub\n        /* \"#utility.yul\":9744:9745   */\n      0x00\n        /* \"#utility.yul\":9733:9742   */\n      dup4\n        /* \"#utility.yul\":9729:9746   */\n      add\n        /* \"#utility.yul\":9722:9769   */\n      mstore\n        /* \"#utility.yul\":9786:9917   */\n      tag_206\n        /* \"#utility.yul\":9912:9916   */\n      dup2\n        /* \"#utility.yul\":9786:9917   */\n      tag_172\n      jump\t// in\n    tag_206:\n        /* \"#utility.yul\":9778:9917   */\n      swap1\n      pop\n        /* \"#utility.yul\":9505:9924   */\n      swap2\n      swap1\n      pop\n      jump\t// out\n        /* \"#utility.yul\":10011:10180   */\n    tag_149:\n        /* \"#utility.yul\":10095:10106   */\n      0x00\n        /* \"#utility.yul\":10129:10135   */\n      dup3\n        /* \"#utility.yul\":10124:10127   */\n      dup3\n        /* \"#utility.yul\":10117:10136   */\n      mstore\n        /* \"#utility.yul\":10169:10173   */\n      0x20\n        /* \"#utility.yul\":10164:10167   */\n      dup3\n        /* \"#utility.yul\":10160:10174   */\n      add\n        /* \"#utility.yul\":10145:10174   */\n      swap1\n      pop\n        /* \"#utility.yul\":10011:10180   */\n      swap3\n      swap2\n      pop\n      pop\n      jump\t// out\n        /* \"#utility.yul\":10186:10282   */\n    tag_141:\n        /* \"#utility.yul\":10223:10230   */\n      0x00\n        /* \"#utility.yul\":10252:10276   */\n      tag_211\n        /* \"#utility.yul\":10270:10275   */\n      dup3\n        /* \"#utility.yul\":10252:10276   */\n      tag_212\n      jump\t// in\n    tag_211:\n        /* \"#utility.yul\":10241:10276   */\n      swap1\n      pop\n        /* \"#utility.yul\":10186:10282   */\n      swap2\n      swap1\n      pop\n      jump\t// out\n        /* \"#utility.yul\":10288:10378   */\n    tag_213:\n        /* \"#utility.yul\":10322:10329   */\n      0x00\n        /* \"#utility.yul\":10365:10370   */\n      dup2\n        /* \"#utility.yul\":10358:10371   */\n      iszero\n        /* \"#utility.yul\":10351:10372   */\n      iszero\n        /* \"#utility.yul\":10340:10372   */\n      swap1\n      pop\n        /* \"#utility.yul\":10288:10378   */\n      swap2\n      swap1\n      pop\n      jump\t// out\n        /* \"#utility.yul\":10384:10510   */\n    tag_212:\n        /* \"#utility.yul\":10421:10428   */\n      0x00\n        /* \"#utility.yul\":10461:10503   */\n      0xffffffffffffffffffffffffffffffffffffffff\n        /* \"#utility.yul\":10454:10459   */\n      dup3\n        /* \"#utility.yul\":10450:10504   */\n      and\n        /* \"#utility.yul\":10439:10504   */\n      swap1\n      pop\n        /* \"#utility.yul\":10384:10510   */\n      swap2\n      swap1\n      pop\n      jump\t// out\n        /* \"#utility.yul\":10516:10593   */\n    tag_180:\n        /* \"#utility.yul\":10553:10560   */\n      0x00\n        /* \"#utility.yul\":10582:10587   */\n      dup2\n        /* \"#utility.yul\":10571:10587   */\n      swap1\n      pop\n        /* \"#utility.yul\":10516:10593   */\n      swap2\n      swap1\n      pop\n      jump\t// out\n        /* \"#utility.yul\":10599:10738   */\n    tag_145:\n        /* \"#utility.yul\":10662:10671   */\n      0x00\n        /* \"#utility.yul\":10695:10732   */\n      tag_218\n        /* \"#utility.yul\":10726:10731   */\n      dup3\n        /* \"#utility.yul\":10695:10732   */\n      tag_219\n      jump\t// in\n    tag_218:\n        /* \"#utility.yul\":10682:10732   */\n      swap1\n      pop\n        /* \"#utility.yul\":10599:10738   */\n      swap2\n      swap1\n      pop\n      jump\t// out\n        /* \"#utility.yul\":10744:10870   */\n    tag_219:\n        /* \"#utility.yul\":10794:10803   */\n      0x00\n        /* \"#utility.yul\":10827:10864   */\n      tag_221\n        /* \"#utility.yul\":10858:10863   */\n      dup3\n        /* \"#utility.yul\":10827:10864   */\n      tag_222\n      jump\t// in\n    tag_221:\n        /* \"#utility.yul\":10814:10864   */\n      swap1\n      pop\n        /* \"#utility.yul\":10744:10870   */\n      swap2\n      swap1\n      pop\n      jump\t// out\n        /* \"#utility.yul\":10876:10989   */\n    tag_222:\n        /* \"#utility.yul\":10926:10935   */\n      0x00\n        /* \"#utility.yul\":10959:10983   */\n      tag_224\n        /* \"#utility.yul\":10977:10982   */\n      dup3\n        /* \"#utility.yul\":10959:10983   */\n      tag_212\n      jump\t// in\n    tag_224:\n        /* \"#utility.yul\":10946:10983   */\n      swap1\n      pop\n        /* \"#utility.yul\":10876:10989   */\n      swap2\n      swap1\n      pop\n      jump\t// out\n        /* \"#utility.yul\":11118:11235   */\n    tag_116:\n        /* \"#utility.yul\":11227:11228   */\n      0x00\n        /* \"#utility.yul\":11224:11225   */\n      dup1\n        /* \"#utility.yul\":11217:11229   */\n      revert\n        /* \"#utility.yul\":11241:11413   */\n    tag_151:\n        /* \"#utility.yul\":11381:11405   */\n      0x546f6b656e20616c6c6f7720546f20746f6f206c6f7700000000000000000000\n        /* \"#utility.yul\":11377:11378   */\n      0x00\n        /* \"#utility.yul\":11369:11375   */\n      dup3\n        /* \"#utility.yul\":11365:11379   */\n      add\n        /* \"#utility.yul\":11358:11406   */\n      mstore\n        /* \"#utility.yul\":11241:11413   */\n      pop\n      jump\t// out\n        /* \"#utility.yul\":11419:11654   */\n    tag_156:\n        /* \"#utility.yul\":11559:11593   */\n      0x496e73756666696369656e742062616c616e636520746f6b656e546f20746f20\n        /* \"#utility.yul\":11555:11556   */\n      0x00\n        /* \"#utility.yul\":11547:11553   */\n      dup3\n        /* \"#utility.yul\":11543:11557   */\n      add\n        /* \"#utility.yul\":11536:11594   */\n      mstore\n        /* \"#utility.yul\":11628:11646   */\n      0x73656e64206261636b20636c69656e7400000000000000000000000000000000\n        /* \"#utility.yul\":11623:11625   */\n      0x20\n        /* \"#utility.yul\":11615:11621   */\n      dup3\n        /* \"#utility.yul\":11611:11626   */\n      add\n        /* \"#utility.yul\":11604:11647   */\n      mstore\n        /* \"#utility.yul\":11419:11654   */\n      pop\n      jump\t// out\n        /* \"#utility.yul\":11660:11834   */\n    tag_161:\n        /* \"#utility.yul\":11800:11826   */\n      0x546f6b656e20616c6c6f772046726f6d20746f6f206c6f770000000000000000\n        /* \"#utility.yul\":11796:11797   */\n      0x00\n        /* \"#utility.yul\":11788:11794   */\n      dup3\n        /* \"#utility.yul\":11784:11798   */\n      add\n        /* \"#utility.yul\":11777:11827   */\n      mstore\n        /* \"#utility.yul\":11660:11834   */\n      pop\n      jump\t// out\n        /* \"#utility.yul\":11840:12011   */\n    tag_166:\n        /* \"#utility.yul\":11980:12003   */\n      0x546f6b656e207472616e73666572206661696c65640000000000000000000000\n        /* \"#utility.yul\":11976:11977   */\n      0x00\n        /* \"#utility.yul\":11968:11974   */\n      dup3\n        /* \"#utility.yul\":11964:11978   */\n      add\n        /* \"#utility.yul\":11957:12004   */\n      mstore\n        /* \"#utility.yul\":11840:12011   */\n      pop\n      jump\t// out\n        /* \"#utility.yul\":12017:12189   */\n    tag_171:\n        /* \"#utility.yul\":12157:12181   */\n      0x416464726573732073776170206e6f742076616c696400000000000000000000\n        /* \"#utility.yul\":12153:12154   */\n      0x00\n        /* \"#utility.yul\":12145:12151   */\n      dup3\n        /* \"#utility.yul\":12141:12155   */\n      add\n        /* \"#utility.yul\":12134:12182   */\n      mstore\n        /* \"#utility.yul\":12017:12189   */\n      pop\n      jump\t// out\n        /* \"#utility.yul\":12195:12368   */\n    tag_176:\n        /* \"#utility.yul\":12335:12360   */\n      0x416c6c6f7720746f6b656e46726f6d20746f6f206c6f77000000000000000000\n        /* \"#utility.yul\":12331:12332   */\n      0x00\n        /* \"#utility.yul\":12323:12329   */\n      dup3\n        /* \"#utility.yul\":12319:12333   */\n      add\n        /* \"#utility.yul\":12312:12361   */\n      mstore\n        /* \"#utility.yul\":12195:12368   */\n      pop\n      jump\t// out\n        /* \"#utility.yul\":12374:12496   */\n    tag_101:\n        /* \"#utility.yul\":12447:12471   */\n      tag_235\n        /* \"#utility.yul\":12465:12470   */\n      dup2\n        /* \"#utility.yul\":12447:12471   */\n      tag_141\n      jump\t// in\n    tag_235:\n        /* \"#utility.yul\":12440:12445   */\n      dup2\n        /* \"#utility.yul\":12437:12472   */\n      eq\n        /* \"#utility.yul\":12427:12490   */\n      tag_236\n      jumpi\n        /* \"#utility.yul\":12486:12487   */\n      0x00\n        /* \"#utility.yul\":12483:12484   */\n      dup1\n        /* \"#utility.yul\":12476:12488   */\n      revert\n        /* \"#utility.yul\":12427:12490   */\n    tag_236:\n        /* \"#utility.yul\":12374:12496   */\n      pop\n      jump\t// out\n        /* \"#utility.yul\":12502:12618   */\n    tag_105:\n        /* \"#utility.yul\":12572:12593   */\n      tag_238\n        /* \"#utility.yul\":12587:12592   */\n      dup2\n        /* \"#utility.yul\":12572:12593   */\n      tag_213\n      jump\t// in\n    tag_238:\n        /* \"#utility.yul\":12565:12570   */\n      dup2\n        /* \"#utility.yul\":12562:12594   */\n      eq\n        /* \"#utility.yul\":12552:12612   */\n      tag_239\n      jumpi\n        /* \"#utility.yul\":12608:12609   */\n      0x00\n        /* \"#utility.yul\":12605:12606   */\n      dup1\n        /* \"#utility.yul\":12598:12610   */\n      revert\n        /* \"#utility.yul\":12552:12612   */\n    tag_239:\n        /* \"#utility.yul\":12502:12618   */\n      pop\n      jump\t// out\n        /* \"#utility.yul\":12624:12746   */\n    tag_109:\n        /* \"#utility.yul\":12697:12721   */\n      tag_241\n        /* \"#utility.yul\":12715:12720   */\n      dup2\n        /* \"#utility.yul\":12697:12721   */\n      tag_180\n      jump\t// in\n    tag_241:\n        /* \"#utility.yul\":12690:12695   */\n      dup2\n        /* \"#utility.yul\":12687:12722   */\n      eq\n        /* \"#utility.yul\":12677:12740   */\n      tag_242\n      jumpi\n        /* \"#utility.yul\":12736:12737   */\n      0x00\n        /* \"#utility.yul\":12733:12734   */\n      dup1\n        /* \"#utility.yul\":12726:12738   */\n      revert\n        /* \"#utility.yul\":12677:12740   */\n    tag_242:\n        /* \"#utility.yul\":12624:12746   */\n      pop\n      jump\t// out\n\n    auxdata: 0xa2646970667358221220d65105f873a251684d7e21c43b8e31a197a05fdfadc836c888d1a129615a817b64736f6c63430008070033\n}\n",
				"bytecode": {
					"linkReferences": {},
					"object": "608060405234801561001057600080fd5b50610f5d806100206000396000f3fe6080604052600436106100435760003560e01c806330ba89011461004c5780637c153534146100755780637ddf3320146100a0578063c17b7326146100c95761004a565b3661004a57005b005b34801561005857600080fd5b50610073600480360381019061006e91906109f3565b6100f4565b005b34801561008157600080fd5b5061008a6103b4565b6040516100979190610c57565b60405180910390f35b3480156100ac57600080fd5b506100c760048036038101906100c29190610966565b6103d8565b005b3480156100d557600080fd5b506100de61073b565b6040516100eb9190610c57565b60405180910390f35b6000339050846000806101000a81548173ffffffffffffffffffffffffffffffffffffffff021916908373ffffffffffffffffffffffffffffffffffffffff16021790555082600160006101000a81548173ffffffffffffffffffffffffffffffffffffffff021916908373ffffffffffffffffffffffffffffffffffffffff1602179055508360008054906101000a900473ffffffffffffffffffffffffffffffffffffffff1673ffffffffffffffffffffffffffffffffffffffff1663dd62ed3e83306040518363ffffffff1660e01b81526004016101d6929190610bce565b60206040518083038186803b1580156101ee57600080fd5b505afa158015610202573d6000803e3d6000fd5b505050506040513d601f19601f820116820180604052508101906102269190610a87565b1015610267576040517f08c379a000000000000000000000000000000000000000000000000000000000815260040161025e90610d12565b60405180910390fd5b81600160009054906101000a900473ffffffffffffffffffffffffffffffffffffffff1673ffffffffffffffffffffffffffffffffffffffff166370a08231306040518263ffffffff1660e01b81526004016102c39190610bb3565b60206040518083038186803b1580156102db57600080fd5b505afa1580156102ef573d6000803e3d6000fd5b505050506040513d601f19601f820116820180604052508101906103139190610a87565b1015610354576040517f08c379a000000000000000000000000000000000000000000000000000000000815260040161034b90610c92565b60405180910390fd5b61038060008054906101000a900473ffffffffffffffffffffffffffffffffffffffff16823087610761565b6103ad600160009054906101000a900473ffffffffffffffffffffffffffffffffffffffff16828461083b565b5050505050565b60008054906101000a900473ffffffffffffffffffffffffffffffffffffffff1681565b856000806101000a81548173ffffffffffffffffffffffffffffffffffffffff021916908373ffffffffffffffffffffffffffffffffffffffff16021790555082600160006101000a81548173ffffffffffffffffffffffffffffffffffffffff021916908373ffffffffffffffffffffffffffffffffffffffff1602179055508473ffffffffffffffffffffffffffffffffffffffff163373ffffffffffffffffffffffffffffffffffffffff1614806104be57508173ffffffffffffffffffffffffffffffffffffffff163373ffffffffffffffffffffffffffffffffffffffff16145b6104fd576040517f08c379a00000000000000000000000000000000000000000000000000000000081526004016104f490610cf2565b60405180910390fd5b8360008054906101000a900473ffffffffffffffffffffffffffffffffffffffff1673ffffffffffffffffffffffffffffffffffffffff1663dd62ed3e87306040518363ffffffff1660e01b8152600401610559929190610bce565b60206040518083038186803b15801561057157600080fd5b505afa158015610585573d6000803e3d6000fd5b505050506040513d601f19601f820116820180604052508101906105a99190610a87565b10156105ea576040517f08c379a00000000000000000000000000000000000000000000000000000000081526004016105e190610cb2565b60405180910390fd5b80600160009054906101000a900473ffffffffffffffffffffffffffffffffffffffff1673ffffffffffffffffffffffffffffffffffffffff1663dd62ed3e84306040518363ffffffff1660e01b8152600401610648929190610bce565b60206040518083038186803b15801561066057600080fd5b505afa158015610674573d6000803e3d6000fd5b505050506040513d601f19601f820116820180604052508101906106989190610a87565b10156106d9576040517f08c379a00000000000000000000000000000000000000000000000000000000081526004016106d090610c72565b60405180910390fd5b61070560008054906101000a900473ffffffffffffffffffffffffffffffffffffffff16868487610761565b610733600160009054906101000a900473ffffffffffffffffffffffffffffffffffffffff16838784610761565b505050505050565b600160009054906101000a900473ffffffffffffffffffffffffffffffffffffffff1681565b60008473ffffffffffffffffffffffffffffffffffffffff166323b872dd8585856040518463ffffffff1660e01b81526004016107a093929190610bf7565b602060405180830381600087803b1580156107ba57600080fd5b505af11580156107ce573d6000803e3d6000fd5b505050506040513d601f19601f820116820180604052508101906107f29190610a5a565b905080610834576040517f08c379a000000000000000000000000000000000000000000000000000000000815260040161082b90610cd2565b60405180910390fd5b5050505050565b60008373ffffffffffffffffffffffffffffffffffffffff1663a9059cbb84846040518363ffffffff1660e01b8152600401610878929190610c2e565b602060405180830381600087803b15801561089257600080fd5b505af11580156108a6573d6000803e3d6000fd5b505050506040513d601f19601f820116820180604052508101906108ca9190610a5a565b90508061090c576040517f08c379a000000000000000000000000000000000000000000000000000000000815260040161090390610cd2565b60405180910390fd5b50505050565b60008135905061092181610ee2565b92915050565b60008151905061093681610ef9565b92915050565b60008135905061094b81610f10565b92915050565b60008151905061096081610f10565b92915050565b60008060008060008060c0878903121561098357610982610dc1565b5b600061099189828a01610912565b96505060206109a289828a01610912565b95505060406109b389828a0161093c565b94505060606109c489828a01610912565b93505060806109d589828a01610912565b92505060a06109e689828a0161093c565b9150509295509295509295565b60008060008060808587031215610a0d57610a0c610dc1565b5b6000610a1b87828801610912565b9450506020610a2c8782880161093c565b9350506040610a3d87828801610912565b9250506060610a4e8782880161093c565b91505092959194509250565b600060208284031215610a7057610a6f610dc1565b5b6000610a7e84828501610927565b91505092915050565b600060208284031215610a9d57610a9c610dc1565b5b6000610aab84828501610951565b91505092915050565b610abd81610d43565b82525050565b610acc81610d8b565b82525050565b6000610adf601683610d32565b9150610aea82610dc6565b602082019050919050565b6000610b02603083610d32565b9150610b0d82610def565b604082019050919050565b6000610b25601883610d32565b9150610b3082610e3e565b602082019050919050565b6000610b48601583610d32565b9150610b5382610e67565b602082019050919050565b6000610b6b601683610d32565b9150610b7682610e90565b602082019050919050565b6000610b8e601783610d32565b9150610b9982610eb9565b602082019050919050565b610bad81610d81565b82525050565b6000602082019050610bc86000830184610ab4565b92915050565b6000604082019050610be36000830185610ab4565b610bf06020830184610ab4565b9392505050565b6000606082019050610c0c6000830186610ab4565b610c196020830185610ab4565b610c266040830184610ba4565b949350505050565b6000604082019050610c436000830185610ab4565b610c506020830184610ba4565b9392505050565b6000602082019050610c6c6000830184610ac3565b92915050565b60006020820190508181036000830152610c8b81610ad2565b9050919050565b60006020820190508181036000830152610cab81610af5565b9050919050565b60006020820190508181036000830152610ccb81610b18565b9050919050565b60006020820190508181036000830152610ceb81610b3b565b9050919050565b60006020820190508181036000830152610d0b81610b5e565b9050919050565b60006020820190508181036000830152610d2b81610b81565b9050919050565b600082825260208201905092915050565b6000610d4e82610d61565b9050919050565b60008115159050919050565b600073ffffffffffffffffffffffffffffffffffffffff82169050919050565b6000819050919050565b6000610d9682610d9d565b9050919050565b6000610da882610daf565b9050919050565b6000610dba82610d61565b9050919050565b600080fd5b7f546f6b656e20616c6c6f7720546f20746f6f206c6f7700000000000000000000600082015250565b7f496e73756666696369656e742062616c616e636520746f6b656e546f20746f2060008201527f73656e64206261636b20636c69656e7400000000000000000000000000000000602082015250565b7f546f6b656e20616c6c6f772046726f6d20746f6f206c6f770000000000000000600082015250565b7f546f6b656e207472616e73666572206661696c65640000000000000000000000600082015250565b7f416464726573732073776170206e6f742076616c696400000000000000000000600082015250565b7f416c6c6f7720746f6b656e46726f6d20746f6f206c6f77000000000000000000600082015250565b610eeb81610d43565b8114610ef657600080fd5b50565b610f0281610d55565b8114610f0d57600080fd5b50565b610f1981610d81565b8114610f2457600080fd5b5056fea2646970667358221220d65105f873a251684d7e21c43b8e31a197a05fdfadc836c888d1a129615a817b64736f6c63430008070033",
					"opcodes": "PUSH1 0x80 PUSH1 0x40 MSTORE CALLVALUE DUP1 ISZERO PUSH2 0x10 JUMPI PUSH1 0x0 DUP1 REVERT JUMPDEST POP PUSH2 0xF5D DUP1 PUSH2 0x20 PUSH1 0x0 CODECOPY PUSH1 0x0 RETURN INVALID PUSH1 0x80 PUSH1 0x40 MSTORE PUSH1 0x4 CALLDATASIZE LT PUSH2 0x43 JUMPI PUSH1 0x0 CALLDATALOAD PUSH1 0xE0 SHR DUP1 PUSH4 0x30BA8901 EQ PUSH2 0x4C JUMPI DUP1 PUSH4 0x7C153534 EQ PUSH2 0x75 JUMPI DUP1 PUSH4 0x7DDF3320 EQ PUSH2 0xA0 JUMPI DUP1 PUSH4 0xC17B7326 EQ PUSH2 0xC9 JUMPI PUSH2 0x4A JUMP JUMPDEST CALLDATASIZE PUSH2 0x4A JUMPI STOP JUMPDEST STOP JUMPDEST CALLVALUE DUP1 ISZERO PUSH2 0x58 JUMPI PUSH1 0x0 DUP1 REVERT JUMPDEST POP PUSH2 0x73 PUSH1 0x4 DUP1 CALLDATASIZE SUB DUP2 ADD SWAP1 PUSH2 0x6E SWAP2 SWAP1 PUSH2 0x9F3 JUMP JUMPDEST PUSH2 0xF4 JUMP JUMPDEST STOP JUMPDEST CALLVALUE DUP1 ISZERO PUSH2 0x81 JUMPI PUSH1 0x0 DUP1 REVERT JUMPDEST POP PUSH2 0x8A PUSH2 0x3B4 JUMP JUMPDEST PUSH1 0x40 MLOAD PUSH2 0x97 SWAP2 SWAP1 PUSH2 0xC57 JUMP JUMPDEST PUSH1 0x40 MLOAD DUP1 SWAP2 SUB SWAP1 RETURN JUMPDEST CALLVALUE DUP1 ISZERO PUSH2 0xAC JUMPI PUSH1 0x0 DUP1 REVERT JUMPDEST POP PUSH2 0xC7 PUSH1 0x4 DUP1 CALLDATASIZE SUB DUP2 ADD SWAP1 PUSH2 0xC2 SWAP2 SWAP1 PUSH2 0x966 JUMP JUMPDEST PUSH2 0x3D8 JUMP JUMPDEST STOP JUMPDEST CALLVALUE DUP1 ISZERO PUSH2 0xD5 JUMPI PUSH1 0x0 DUP1 REVERT JUMPDEST POP PUSH2 0xDE PUSH2 0x73B JUMP JUMPDEST PUSH1 0x40 MLOAD PUSH2 0xEB SWAP2 SWAP1 PUSH2 0xC57 JUMP JUMPDEST PUSH1 0x40 MLOAD DUP1 SWAP2 SUB SWAP1 RETURN JUMPDEST PUSH1 0x0 CALLER SWAP1 POP DUP5 PUSH1 0x0 DUP1 PUSH2 0x100 EXP DUP2 SLOAD DUP2 PUSH20 0xFFFFFFFFFFFFFFFFFFFFFFFFFFFFFFFFFFFFFFFF MUL NOT AND SWAP1 DUP4 PUSH20 0xFFFFFFFFFFFFFFFFFFFFFFFFFFFFFFFFFFFFFFFF AND MUL OR SWAP1 SSTORE POP DUP3 PUSH1 0x1 PUSH1 0x0 PUSH2 0x100 EXP DUP2 SLOAD DUP2 PUSH20 0xFFFFFFFFFFFFFFFFFFFFFFFFFFFFFFFFFFFFFFFF MUL NOT AND SWAP1 DUP4 PUSH20 0xFFFFFFFFFFFFFFFFFFFFFFFFFFFFFFFFFFFFFFFF AND MUL OR SWAP1 SSTORE POP DUP4 PUSH1 0x0 DUP1 SLOAD SWAP1 PUSH2 0x100 EXP SWAP1 DIV PUSH20 0xFFFFFFFFFFFFFFFFFFFFFFFFFFFFFFFFFFFFFFFF AND PUSH20 0xFFFFFFFFFFFFFFFFFFFFFFFFFFFFFFFFFFFFFFFF AND PUSH4 0xDD62ED3E DUP4 ADDRESS PUSH1 0x40 MLOAD DUP4 PUSH4 0xFFFFFFFF AND PUSH1 0xE0 SHL DUP2 MSTORE PUSH1 0x4 ADD PUSH2 0x1D6 SWAP3 SWAP2 SWAP1 PUSH2 0xBCE JUMP JUMPDEST PUSH1 0x20 PUSH1 0x40 MLOAD DUP1 DUP4 SUB DUP2 DUP7 DUP1 EXTCODESIZE ISZERO DUP1 ISZERO PUSH2 0x1EE JUMPI PUSH1 0x0 DUP1 REVERT JUMPDEST POP GAS STATICCALL ISZERO DUP1 ISZERO PUSH2 0x202 JUMPI RETURNDATASIZE PUSH1 0x0 DUP1 RETURNDATACOPY RETURNDATASIZE PUSH1 0x0 REVERT JUMPDEST POP POP POP POP PUSH1 0x40 MLOAD RETURNDATASIZE PUSH1 0x1F NOT PUSH1 0x1F DUP3 ADD AND DUP3 ADD DUP1 PUSH1 0x40 MSTORE POP DUP2 ADD SWAP1 PUSH2 0x226 SWAP2 SWAP1 PUSH2 0xA87 JUMP JUMPDEST LT ISZERO PUSH2 0x267 JUMPI PUSH1 0x40 MLOAD PUSH32 0x8C379A000000000000000000000000000000000000000000000000000000000 DUP2 MSTORE PUSH1 0x4 ADD PUSH2 0x25E SWAP1 PUSH2 0xD12 JUMP JUMPDEST PUSH1 0x40 MLOAD DUP1 SWAP2 SUB SWAP1 REVERT JUMPDEST DUP2 PUSH1 0x1 PUSH1 0x0 SWAP1 SLOAD SWAP1 PUSH2 0x100 EXP SWAP1 DIV PUSH20 0xFFFFFFFFFFFFFFFFFFFFFFFFFFFFFFFFFFFFFFFF AND PUSH20 0xFFFFFFFFFFFFFFFFFFFFFFFFFFFFFFFFFFFFFFFF AND PUSH4 0x70A08231 ADDRESS PUSH1 0x40 MLOAD DUP3 PUSH4 0xFFFFFFFF AND PUSH1 0xE0 SHL DUP2 MSTORE PUSH1 0x4 ADD PUSH2 0x2C3 SWAP2 SWAP1 PUSH2 0xBB3 JUMP JUMPDEST PUSH1 0x20 PUSH1 0x40 MLOAD DUP1 DUP4 SUB DUP2 DUP7 DUP1 EXTCODESIZE ISZERO DUP1 ISZERO PUSH2 0x2DB JUMPI PUSH1 0x0 DUP1 REVERT JUMPDEST POP GAS STATICCALL ISZERO DUP1 ISZERO PUSH2 0x2EF JUMPI RETURNDATASIZE PUSH1 0x0 DUP1 RETURNDATACOPY RETURNDATASIZE PUSH1 0x0 REVERT JUMPDEST POP POP POP POP PUSH1 0x40 MLOAD RETURNDATASIZE PUSH1 0x1F NOT PUSH1 0x1F DUP3 ADD AND DUP3 ADD DUP1 PUSH1 0x40 MSTORE POP DUP2 ADD SWAP1 PUSH2 0x313 SWAP2 SWAP1 PUSH2 0xA87 JUMP JUMPDEST LT ISZERO PUSH2 0x354 JUMPI PUSH1 0x40 MLOAD PUSH32 0x8C379A000000000000000000000000000000000000000000000000000000000 DUP2 MSTORE PUSH1 0x4 ADD PUSH2 0x34B SWAP1 PUSH2 0xC92 JUMP JUMPDEST PUSH1 0x40 MLOAD DUP1 SWAP2 SUB SWAP1 REVERT JUMPDEST PUSH2 0x380 PUSH1 0x0 DUP1 SLOAD SWAP1 PUSH2 0x100 EXP SWAP1 DIV PUSH20 0xFFFFFFFFFFFFFFFFFFFFFFFFFFFFFFFFFFFFFFFF AND DUP3 ADDRESS DUP8 PUSH2 0x761 JUMP JUMPDEST PUSH2 0x3AD PUSH1 0x1 PUSH1 0x0 SWAP1 SLOAD SWAP1 PUSH2 0x100 EXP SWAP1 DIV PUSH20 0xFFFFFFFFFFFFFFFFFFFFFFFFFFFFFFFFFFFFFFFF AND DUP3 DUP5 PUSH2 0x83B JUMP JUMPDEST POP POP POP POP POP JUMP JUMPDEST PUSH1 0x0 DUP1 SLOAD SWAP1 PUSH2 0x100 EXP SWAP1 DIV PUSH20 0xFFFFFFFFFFFFFFFFFFFFFFFFFFFFFFFFFFFFFFFF AND DUP2 JUMP JUMPDEST DUP6 PUSH1 0x0 DUP1 PUSH2 0x100 EXP DUP2 SLOAD DUP2 PUSH20 0xFFFFFFFFFFFFFFFFFFFFFFFFFFFFFFFFFFFFFFFF MUL NOT AND SWAP1 DUP4 PUSH20 0xFFFFFFFFFFFFFFFFFFFFFFFFFFFFFFFFFFFFFFFF AND MUL OR SWAP1 SSTORE POP DUP3 PUSH1 0x1 PUSH1 0x0 PUSH2 0x100 EXP DUP2 SLOAD DUP2 PUSH20 0xFFFFFFFFFFFFFFFFFFFFFFFFFFFFFFFFFFFFFFFF MUL NOT AND SWAP1 DUP4 PUSH20 0xFFFFFFFFFFFFFFFFFFFFFFFFFFFFFFFFFFFFFFFF AND MUL OR SWAP1 SSTORE POP DUP5 PUSH20 0xFFFFFFFFFFFFFFFFFFFFFFFFFFFFFFFFFFFFFFFF AND CALLER PUSH20 0xFFFFFFFFFFFFFFFFFFFFFFFFFFFFFFFFFFFFFFFF AND EQ DUP1 PUSH2 0x4BE JUMPI POP DUP2 PUSH20 0xFFFFFFFFFFFFFFFFFFFFFFFFFFFFFFFFFFFFFFFF AND CALLER PUSH20 0xFFFFFFFFFFFFFFFFFFFFFFFFFFFFFFFFFFFFFFFF AND EQ JUMPDEST PUSH2 0x4FD JUMPI PUSH1 0x40 MLOAD PUSH32 0x8C379A000000000000000000000000000000000000000000000000000000000 DUP2 MSTORE PUSH1 0x4 ADD PUSH2 0x4F4 SWAP1 PUSH2 0xCF2 JUMP JUMPDEST PUSH1 0x40 MLOAD DUP1 SWAP2 SUB SWAP1 REVERT JUMPDEST DUP4 PUSH1 0x0 DUP1 SLOAD SWAP1 PUSH2 0x100 EXP SWAP1 DIV PUSH20 0xFFFFFFFFFFFFFFFFFFFFFFFFFFFFFFFFFFFFFFFF AND PUSH20 0xFFFFFFFFFFFFFFFFFFFFFFFFFFFFFFFFFFFFFFFF AND PUSH4 0xDD62ED3E DUP8 ADDRESS PUSH1 0x40 MLOAD DUP4 PUSH4 0xFFFFFFFF AND PUSH1 0xE0 SHL DUP2 MSTORE PUSH1 0x4 ADD PUSH2 0x559 SWAP3 SWAP2 SWAP1 PUSH2 0xBCE JUMP JUMPDEST PUSH1 0x20 PUSH1 0x40 MLOAD DUP1 DUP4 SUB DUP2 DUP7 DUP1 EXTCODESIZE ISZERO DUP1 ISZERO PUSH2 0x571 JUMPI PUSH1 0x0 DUP1 REVERT JUMPDEST POP GAS STATICCALL ISZERO DUP1 ISZERO PUSH2 0x585 JUMPI RETURNDATASIZE PUSH1 0x0 DUP1 RETURNDATACOPY RETURNDATASIZE PUSH1 0x0 REVERT JUMPDEST POP POP POP POP PUSH1 0x40 MLOAD RETURNDATASIZE PUSH1 0x1F NOT PUSH1 0x1F DUP3 ADD AND DUP3 ADD DUP1 PUSH1 0x40 MSTORE POP DUP2 ADD SWAP1 PUSH2 0x5A9 SWAP2 SWAP1 PUSH2 0xA87 JUMP JUMPDEST LT ISZERO PUSH2 0x5EA JUMPI PUSH1 0x40 MLOAD PUSH32 0x8C379A000000000000000000000000000000000000000000000000000000000 DUP2 MSTORE PUSH1 0x4 ADD PUSH2 0x5E1 SWAP1 PUSH2 0xCB2 JUMP JUMPDEST PUSH1 0x40 MLOAD DUP1 SWAP2 SUB SWAP1 REVERT JUMPDEST DUP1 PUSH1 0x1 PUSH1 0x0 SWAP1 SLOAD SWAP1 PUSH2 0x100 EXP SWAP1 DIV PUSH20 0xFFFFFFFFFFFFFFFFFFFFFFFFFFFFFFFFFFFFFFFF AND PUSH20 0xFFFFFFFFFFFFFFFFFFFFFFFFFFFFFFFFFFFFFFFF AND PUSH4 0xDD62ED3E DUP5 ADDRESS PUSH1 0x40 MLOAD DUP4 PUSH4 0xFFFFFFFF AND PUSH1 0xE0 SHL DUP2 MSTORE PUSH1 0x4 ADD PUSH2 0x648 SWAP3 SWAP2 SWAP1 PUSH2 0xBCE JUMP JUMPDEST PUSH1 0x20 PUSH1 0x40 MLOAD DUP1 DUP4 SUB DUP2 DUP7 DUP1 EXTCODESIZE ISZERO DUP1 ISZERO PUSH2 0x660 JUMPI PUSH1 0x0 DUP1 REVERT JUMPDEST POP GAS STATICCALL ISZERO DUP1 ISZERO PUSH2 0x674 JUMPI RETURNDATASIZE PUSH1 0x0 DUP1 RETURNDATACOPY RETURNDATASIZE PUSH1 0x0 REVERT JUMPDEST POP POP POP POP PUSH1 0x40 MLOAD RETURNDATASIZE PUSH1 0x1F NOT PUSH1 0x1F DUP3 ADD AND DUP3 ADD DUP1 PUSH1 0x40 MSTORE POP DUP2 ADD SWAP1 PUSH2 0x698 SWAP2 SWAP1 PUSH2 0xA87 JUMP JUMPDEST LT ISZERO PUSH2 0x6D9 JUMPI PUSH1 0x40 MLOAD PUSH32 0x8C379A000000000000000000000000000000000000000000000000000000000 DUP2 MSTORE PUSH1 0x4 ADD PUSH2 0x6D0 SWAP1 PUSH2 0xC72 JUMP JUMPDEST PUSH1 0x40 MLOAD DUP1 SWAP2 SUB SWAP1 REVERT JUMPDEST PUSH2 0x705 PUSH1 0x0 DUP1 SLOAD SWAP1 PUSH2 0x100 EXP SWAP1 DIV PUSH20 0xFFFFFFFFFFFFFFFFFFFFFFFFFFFFFFFFFFFFFFFF AND DUP7 DUP5 DUP8 PUSH2 0x761 JUMP JUMPDEST PUSH2 0x733 PUSH1 0x1 PUSH1 0x0 SWAP1 SLOAD SWAP1 PUSH2 0x100 EXP SWAP1 DIV PUSH20 0xFFFFFFFFFFFFFFFFFFFFFFFFFFFFFFFFFFFFFFFF AND DUP4 DUP8 DUP5 PUSH2 0x761 JUMP JUMPDEST POP POP POP POP POP POP JUMP JUMPDEST PUSH1 0x1 PUSH1 0x0 SWAP1 SLOAD SWAP1 PUSH2 0x100 EXP SWAP1 DIV PUSH20 0xFFFFFFFFFFFFFFFFFFFFFFFFFFFFFFFFFFFFFFFF AND DUP2 JUMP JUMPDEST PUSH1 0x0 DUP5 PUSH20 0xFFFFFFFFFFFFFFFFFFFFFFFFFFFFFFFFFFFFFFFF AND PUSH4 0x23B872DD DUP6 DUP6 DUP6 PUSH1 0x40 MLOAD DUP5 PUSH4 0xFFFFFFFF AND PUSH1 0xE0 SHL DUP2 MSTORE PUSH1 0x4 ADD PUSH2 0x7A0 SWAP4 SWAP3 SWAP2 SWAP1 PUSH2 0xBF7 JUMP JUMPDEST PUSH1 0x20 PUSH1 0x40 MLOAD DUP1 DUP4 SUB DUP2 PUSH1 0x0 DUP8 DUP1 EXTCODESIZE ISZERO DUP1 ISZERO PUSH2 0x7BA JUMPI PUSH1 0x0 DUP1 REVERT JUMPDEST POP GAS CALL ISZERO DUP1 ISZERO PUSH2 0x7CE JUMPI RETURNDATASIZE PUSH1 0x0 DUP1 RETURNDATACOPY RETURNDATASIZE PUSH1 0x0 REVERT JUMPDEST POP POP POP POP PUSH1 0x40 MLOAD RETURNDATASIZE PUSH1 0x1F NOT PUSH1 0x1F DUP3 ADD AND DUP3 ADD DUP1 PUSH1 0x40 MSTORE POP DUP2 ADD SWAP1 PUSH2 0x7F2 SWAP2 SWAP1 PUSH2 0xA5A JUMP JUMPDEST SWAP1 POP DUP1 PUSH2 0x834 JUMPI PUSH1 0x40 MLOAD PUSH32 0x8C379A000000000000000000000000000000000000000000000000000000000 DUP2 MSTORE PUSH1 0x4 ADD PUSH2 0x82B SWAP1 PUSH2 0xCD2 JUMP JUMPDEST PUSH1 0x40 MLOAD DUP1 SWAP2 SUB SWAP1 REVERT JUMPDEST POP POP POP POP POP JUMP JUMPDEST PUSH1 0x0 DUP4 PUSH20 0xFFFFFFFFFFFFFFFFFFFFFFFFFFFFFFFFFFFFFFFF AND PUSH4 0xA9059CBB DUP5 DUP5 PUSH1 0x40 MLOAD DUP4 PUSH4 0xFFFFFFFF AND PUSH1 0xE0 SHL DUP2 MSTORE PUSH1 0x4 ADD PUSH2 0x878 SWAP3 SWAP2 SWAP1 PUSH2 0xC2E JUMP JUMPDEST PUSH1 0x20 PUSH1 0x40 MLOAD DUP1 DUP4 SUB DUP2 PUSH1 0x0 DUP8 DUP1 EXTCODESIZE ISZERO DUP1 ISZERO PUSH2 0x892 JUMPI PUSH1 0x0 DUP1 REVERT JUMPDEST POP GAS CALL ISZERO DUP1 ISZERO PUSH2 0x8A6 JUMPI RETURNDATASIZE PUSH1 0x0 DUP1 RETURNDATACOPY RETURNDATASIZE PUSH1 0x0 REVERT JUMPDEST POP POP POP POP PUSH1 0x40 MLOAD RETURNDATASIZE PUSH1 0x1F NOT PUSH1 0x1F DUP3 ADD AND DUP3 ADD DUP1 PUSH1 0x40 MSTORE POP DUP2 ADD SWAP1 PUSH2 0x8CA SWAP2 SWAP1 PUSH2 0xA5A JUMP JUMPDEST SWAP1 POP DUP1 PUSH2 0x90C JUMPI PUSH1 0x40 MLOAD PUSH32 0x8C379A000000000000000000000000000000000000000000000000000000000 DUP2 MSTORE PUSH1 0x4 ADD PUSH2 0x903 SWAP1 PUSH2 0xCD2 JUMP JUMPDEST PUSH1 0x40 MLOAD DUP1 SWAP2 SUB SWAP1 REVERT JUMPDEST POP POP POP POP JUMP JUMPDEST PUSH1 0x0 DUP2 CALLDATALOAD SWAP1 POP PUSH2 0x921 DUP2 PUSH2 0xEE2 JUMP JUMPDEST SWAP3 SWAP2 POP POP JUMP JUMPDEST PUSH1 0x0 DUP2 MLOAD SWAP1 POP PUSH2 0x936 DUP2 PUSH2 0xEF9 JUMP JUMPDEST SWAP3 SWAP2 POP POP JUMP JUMPDEST PUSH1 0x0 DUP2 CALLDATALOAD SWAP1 POP PUSH2 0x94B DUP2 PUSH2 0xF10 JUMP JUMPDEST SWAP3 SWAP2 POP POP JUMP JUMPDEST PUSH1 0x0 DUP2 MLOAD SWAP1 POP PUSH2 0x960 DUP2 PUSH2 0xF10 JUMP JUMPDEST SWAP3 SWAP2 POP POP JUMP JUMPDEST PUSH1 0x0 DUP1 PUSH1 0x0 DUP1 PUSH1 0x0 DUP1 PUSH1 0xC0 DUP8 DUP10 SUB SLT ISZERO PUSH2 0x983 JUMPI PUSH2 0x982 PUSH2 0xDC1 JUMP JUMPDEST JUMPDEST PUSH1 0x0 PUSH2 0x991 DUP10 DUP3 DUP11 ADD PUSH2 0x912 JUMP JUMPDEST SWAP7 POP POP PUSH1 0x20 PUSH2 0x9A2 DUP10 DUP3 DUP11 ADD PUSH2 0x912 JUMP JUMPDEST SWAP6 POP POP PUSH1 0x40 PUSH2 0x9B3 DUP10 DUP3 DUP11 ADD PUSH2 0x93C JUMP JUMPDEST SWAP5 POP POP PUSH1 0x60 PUSH2 0x9C4 DUP10 DUP3 DUP11 ADD PUSH2 0x912 JUMP JUMPDEST SWAP4 POP POP PUSH1 0x80 PUSH2 0x9D5 DUP10 DUP3 DUP11 ADD PUSH2 0x912 JUMP JUMPDEST SWAP3 POP POP PUSH1 0xA0 PUSH2 0x9E6 DUP10 DUP3 DUP11 ADD PUSH2 0x93C JUMP JUMPDEST SWAP2 POP POP SWAP3 SWAP6 POP SWAP3 SWAP6 POP SWAP3 SWAP6 JUMP JUMPDEST PUSH1 0x0 DUP1 PUSH1 0x0 DUP1 PUSH1 0x80 DUP6 DUP8 SUB SLT ISZERO PUSH2 0xA0D JUMPI PUSH2 0xA0C PUSH2 0xDC1 JUMP JUMPDEST JUMPDEST PUSH1 0x0 PUSH2 0xA1B DUP8 DUP3 DUP9 ADD PUSH2 0x912 JUMP JUMPDEST SWAP5 POP POP PUSH1 0x20 PUSH2 0xA2C DUP8 DUP3 DUP9 ADD PUSH2 0x93C JUMP JUMPDEST SWAP4 POP POP PUSH1 0x40 PUSH2 0xA3D DUP8 DUP3 DUP9 ADD PUSH2 0x912 JUMP JUMPDEST SWAP3 POP POP PUSH1 0x60 PUSH2 0xA4E DUP8 DUP3 DUP9 ADD PUSH2 0x93C JUMP JUMPDEST SWAP2 POP POP SWAP3 SWAP6 SWAP2 SWAP5 POP SWAP3 POP JUMP JUMPDEST PUSH1 0x0 PUSH1 0x20 DUP3 DUP5 SUB SLT ISZERO PUSH2 0xA70 JUMPI PUSH2 0xA6F PUSH2 0xDC1 JUMP JUMPDEST JUMPDEST PUSH1 0x0 PUSH2 0xA7E DUP5 DUP3 DUP6 ADD PUSH2 0x927 JUMP JUMPDEST SWAP2 POP POP SWAP3 SWAP2 POP POP JUMP JUMPDEST PUSH1 0x0 PUSH1 0x20 DUP3 DUP5 SUB SLT ISZERO PUSH2 0xA9D JUMPI PUSH2 0xA9C PUSH2 0xDC1 JUMP JUMPDEST JUMPDEST PUSH1 0x0 PUSH2 0xAAB DUP5 DUP3 DUP6 ADD PUSH2 0x951 JUMP JUMPDEST SWAP2 POP POP SWAP3 SWAP2 POP POP JUMP JUMPDEST PUSH2 0xABD DUP2 PUSH2 0xD43 JUMP JUMPDEST DUP3 MSTORE POP POP JUMP JUMPDEST PUSH2 0xACC DUP2 PUSH2 0xD8B JUMP JUMPDEST DUP3 MSTORE POP POP JUMP JUMPDEST PUSH1 0x0 PUSH2 0xADF PUSH1 0x16 DUP4 PUSH2 0xD32 JUMP JUMPDEST SWAP2 POP PUSH2 0xAEA DUP3 PUSH2 0xDC6 JUMP JUMPDEST PUSH1 0x20 DUP3 ADD SWAP1 POP SWAP2 SWAP1 POP JUMP JUMPDEST PUSH1 0x0 PUSH2 0xB02 PUSH1 0x30 DUP4 PUSH2 0xD32 JUMP JUMPDEST SWAP2 POP PUSH2 0xB0D DUP3 PUSH2 0xDEF JUMP JUMPDEST PUSH1 0x40 DUP3 ADD SWAP1 POP SWAP2 SWAP1 POP JUMP JUMPDEST PUSH1 0x0 PUSH2 0xB25 PUSH1 0x18 DUP4 PUSH2 0xD32 JUMP JUMPDEST SWAP2 POP PUSH2 0xB30 DUP3 PUSH2 0xE3E JUMP JUMPDEST PUSH1 0x20 DUP3 ADD SWAP1 POP SWAP2 SWAP1 POP JUMP JUMPDEST PUSH1 0x0 PUSH2 0xB48 PUSH1 0x15 DUP4 PUSH2 0xD32 JUMP JUMPDEST SWAP2 POP PUSH2 0xB53 DUP3 PUSH2 0xE67 JUMP JUMPDEST PUSH1 0x20 DUP3 ADD SWAP1 POP SWAP2 SWAP1 POP JUMP JUMPDEST PUSH1 0x0 PUSH2 0xB6B PUSH1 0x16 DUP4 PUSH2 0xD32 JUMP JUMPDEST SWAP2 POP PUSH2 0xB76 DUP3 PUSH2 0xE90 JUMP JUMPDEST PUSH1 0x20 DUP3 ADD SWAP1 POP SWAP2 SWAP1 POP JUMP JUMPDEST PUSH1 0x0 PUSH2 0xB8E PUSH1 0x17 DUP4 PUSH2 0xD32 JUMP JUMPDEST SWAP2 POP PUSH2 0xB99 DUP3 PUSH2 0xEB9 JUMP JUMPDEST PUSH1 0x20 DUP3 ADD SWAP1 POP SWAP2 SWAP1 POP JUMP JUMPDEST PUSH2 0xBAD DUP2 PUSH2 0xD81 JUMP JUMPDEST DUP3 MSTORE POP POP JUMP JUMPDEST PUSH1 0x0 PUSH1 0x20 DUP3 ADD SWAP1 POP PUSH2 0xBC8 PUSH1 0x0 DUP4 ADD DUP5 PUSH2 0xAB4 JUMP JUMPDEST SWAP3 SWAP2 POP POP JUMP JUMPDEST PUSH1 0x0 PUSH1 0x40 DUP3 ADD SWAP1 POP PUSH2 0xBE3 PUSH1 0x0 DUP4 ADD DUP6 PUSH2 0xAB4 JUMP JUMPDEST PUSH2 0xBF0 PUSH1 0x20 DUP4 ADD DUP5 PUSH2 0xAB4 JUMP JUMPDEST SWAP4 SWAP3 POP POP POP JUMP JUMPDEST PUSH1 0x0 PUSH1 0x60 DUP3 ADD SWAP1 POP PUSH2 0xC0C PUSH1 0x0 DUP4 ADD DUP7 PUSH2 0xAB4 JUMP JUMPDEST PUSH2 0xC19 PUSH1 0x20 DUP4 ADD DUP6 PUSH2 0xAB4 JUMP JUMPDEST PUSH2 0xC26 PUSH1 0x40 DUP4 ADD DUP5 PUSH2 0xBA4 JUMP JUMPDEST SWAP5 SWAP4 POP POP POP POP JUMP JUMPDEST PUSH1 0x0 PUSH1 0x40 DUP3 ADD SWAP1 POP PUSH2 0xC43 PUSH1 0x0 DUP4 ADD DUP6 PUSH2 0xAB4 JUMP JUMPDEST PUSH2 0xC50 PUSH1 0x20 DUP4 ADD DUP5 PUSH2 0xBA4 JUMP JUMPDEST SWAP4 SWAP3 POP POP POP JUMP JUMPDEST PUSH1 0x0 PUSH1 0x20 DUP3 ADD SWAP1 POP PUSH2 0xC6C PUSH1 0x0 DUP4 ADD DUP5 PUSH2 0xAC3 JUMP JUMPDEST SWAP3 SWAP2 POP POP JUMP JUMPDEST PUSH1 0x0 PUSH1 0x20 DUP3 ADD SWAP1 POP DUP2 DUP2 SUB PUSH1 0x0 DUP4 ADD MSTORE PUSH2 0xC8B DUP2 PUSH2 0xAD2 JUMP JUMPDEST SWAP1 POP SWAP2 SWAP1 POP JUMP JUMPDEST PUSH1 0x0 PUSH1 0x20 DUP3 ADD SWAP1 POP DUP2 DUP2 SUB PUSH1 0x0 DUP4 ADD MSTORE PUSH2 0xCAB DUP2 PUSH2 0xAF5 JUMP JUMPDEST SWAP1 POP SWAP2 SWAP1 POP JUMP JUMPDEST PUSH1 0x0 PUSH1 0x20 DUP3 ADD SWAP1 POP DUP2 DUP2 SUB PUSH1 0x0 DUP4 ADD MSTORE PUSH2 0xCCB DUP2 PUSH2 0xB18 JUMP JUMPDEST SWAP1 POP SWAP2 SWAP1 POP JUMP JUMPDEST PUSH1 0x0 PUSH1 0x20 DUP3 ADD SWAP1 POP DUP2 DUP2 SUB PUSH1 0x0 DUP4 ADD MSTORE PUSH2 0xCEB DUP2 PUSH2 0xB3B JUMP JUMPDEST SWAP1 POP SWAP2 SWAP1 POP JUMP JUMPDEST PUSH1 0x0 PUSH1 0x20 DUP3 ADD SWAP1 POP DUP2 DUP2 SUB PUSH1 0x0 DUP4 ADD MSTORE PUSH2 0xD0B DUP2 PUSH2 0xB5E JUMP JUMPDEST SWAP1 POP SWAP2 SWAP1 POP JUMP JUMPDEST PUSH1 0x0 PUSH1 0x20 DUP3 ADD SWAP1 POP DUP2 DUP2 SUB PUSH1 0x0 DUP4 ADD MSTORE PUSH2 0xD2B DUP2 PUSH2 0xB81 JUMP JUMPDEST SWAP1 POP SWAP2 SWAP1 POP JUMP JUMPDEST PUSH1 0x0 DUP3 DUP3 MSTORE PUSH1 0x20 DUP3 ADD SWAP1 POP SWAP3 SWAP2 POP POP JUMP JUMPDEST PUSH1 0x0 PUSH2 0xD4E DUP3 PUSH2 0xD61 JUMP JUMPDEST SWAP1 POP SWAP2 SWAP1 POP JUMP JUMPDEST PUSH1 0x0 DUP2 ISZERO ISZERO SWAP1 POP SWAP2 SWAP1 POP JUMP JUMPDEST PUSH1 0x0 PUSH20 0xFFFFFFFFFFFFFFFFFFFFFFFFFFFFFFFFFFFFFFFF DUP3 AND SWAP1 POP SWAP2 SWAP1 POP JUMP JUMPDEST PUSH1 0x0 DUP2 SWAP1 POP SWAP2 SWAP1 POP JUMP JUMPDEST PUSH1 0x0 PUSH2 0xD96 DUP3 PUSH2 0xD9D JUMP JUMPDEST SWAP1 POP SWAP2 SWAP1 POP JUMP JUMPDEST PUSH1 0x0 PUSH2 0xDA8 DUP3 PUSH2 0xDAF JUMP JUMPDEST SWAP1 POP SWAP2 SWAP1 POP JUMP JUMPDEST PUSH1 0x0 PUSH2 0xDBA DUP3 PUSH2 0xD61 JUMP JUMPDEST SWAP1 POP SWAP2 SWAP1 POP JUMP JUMPDEST PUSH1 0x0 DUP1 REVERT JUMPDEST PUSH32 0x546F6B656E20616C6C6F7720546F20746F6F206C6F7700000000000000000000 PUSH1 0x0 DUP3 ADD MSTORE POP JUMP JUMPDEST PUSH32 0x496E73756666696369656E742062616C616E636520746F6B656E546F20746F20 PUSH1 0x0 DUP3 ADD MSTORE PUSH32 0x73656E64206261636B20636C69656E7400000000000000000000000000000000 PUSH1 0x20 DUP3 ADD MSTORE POP JUMP JUMPDEST PUSH32 0x546F6B656E20616C6C6F772046726F6D20746F6F206C6F770000000000000000 PUSH1 0x0 DUP3 ADD MSTORE POP JUMP JUMPDEST PUSH32 0x546F6B656E207472616E73666572206661696C65640000000000000000000000 PUSH1 0x0 DUP3 ADD MSTORE POP JUMP JUMPDEST PUSH32 0x416464726573732073776170206E6F742076616C696400000000000000000000 PUSH1 0x0 DUP3 ADD MSTORE POP JUMP JUMPDEST PUSH32 0x416C6C6F7720746F6B656E46726F6D20746F6F206C6F77000000000000000000 PUSH1 0x0 DUP3 ADD MSTORE POP JUMP JUMPDEST PUSH2 0xEEB DUP2 PUSH2 0xD43 JUMP JUMPDEST DUP2 EQ PUSH2 0xEF6 JUMPI PUSH1 0x0 DUP1 REVERT JUMPDEST POP JUMP JUMPDEST PUSH2 0xF02 DUP2 PUSH2 0xD55 JUMP JUMPDEST DUP2 EQ PUSH2 0xF0D JUMPI PUSH1 0x0 DUP1 REVERT JUMPDEST POP JUMP JUMPDEST PUSH2 0xF19 DUP2 PUSH2 0xD81 JUMP JUMPDEST DUP2 EQ PUSH2 0xF24 JUMPI PUSH1 0x0 DUP1 REVERT JUMPDEST POP JUMP INVALID LOG2 PUSH5 0x6970667358 0x22 SLT KECCAK256 0xD6 MLOAD SDIV 0xF8 PUSH20 0xA251684D7E21C43B8E31A197A05FDFADC836C888 0xD1 LOG1 0x29 PUSH2 0x5A81 PUSH28 0x64736F6C634300080700330000000000000000000000000000000000 "
				},
				"gasEstimates": {
					"creation": {
						"codeDepositCost": "786600",
						"executionCost": "818",
						"totalCost": "787418"
					},
					"external": {
						"": "151",
						"swap(address,address,uint256,address,address,uint256)": "infinite",
						"swap_v2(address,uint256,address,uint256)": "infinite",
						"tokenFrom()": "2597",
						"tokenTo()": "2644"
					},
					"internal": {
						"_safeTransfer(contract IERC20,address,uint256)": "infinite",
						"_safeTransferFrom(contract IERC20,address,address,uint256)": "infinite"
					}
				},
				"methodIdentifiers": {
					"swap(address,address,uint256,address,address,uint256)": "7ddf3320",
					"swap_v2(address,uint256,address,uint256)": "30ba8901",
					"tokenFrom()": "7c153534",
					"tokenTo()": "c17b7326"
				}
			},
			"userdoc": {
				"kind": "user",
				"methods": {},
				"version": 1
			}
		}
	}
}