{
	"contracts/TokenSwap.sol": {
		"TokenSwap": {
			"abi": [
				{
					"inputs": [],
					"stateMutability": "nonpayable",
					"type": "constructor"
				},
				{
					"stateMutability": "payable",
					"type": "fallback"
				},
				{
					"inputs": [
						{
							"internalType": "address",
							"name": "_tokenFrom",
							"type": "address"
						},
						{
							"internalType": "address",
							"name": "_addressFrom",
							"type": "address"
						},
						{
							"internalType": "uint256",
							"name": "_amountFrom",
							"type": "uint256"
						},
						{
							"internalType": "address",
							"name": "_tokenTo",
							"type": "address"
						},
						{
							"internalType": "address",
							"name": "_addressTo",
							"type": "address"
						},
						{
							"internalType": "uint256",
							"name": "_amountTo",
							"type": "uint256"
						}
					],
					"name": "swap",
					"outputs": [],
					"stateMutability": "nonpayable",
					"type": "function"
				},
				{
					"inputs": [
						{
							"internalType": "address",
							"name": "_tokenFrom",
							"type": "address"
						},
						{
							"internalType": "uint256",
							"name": "_amountFrom",
							"type": "uint256"
						},
						{
							"internalType": "address",
							"name": "_tokenTo",
							"type": "address"
						},
						{
							"internalType": "uint256",
							"name": "_amountTo",
							"type": "uint256"
						}
					],
					"name": "swap_v2",
					"outputs": [],
					"stateMutability": "nonpayable",
					"type": "function"
				},
				{
					"inputs": [],
					"name": "tokenFrom",
					"outputs": [
						{
							"internalType": "contract IERC20",
							"name": "",
							"type": "address"
						}
					],
					"stateMutability": "view",
					"type": "function"
				},
				{
					"inputs": [],
					"name": "tokenTo",
					"outputs": [
						{
							"internalType": "contract IERC20",
							"name": "",
							"type": "address"
						}
					],
					"stateMutability": "view",
					"type": "function"
				},
				{
					"stateMutability": "payable",
					"type": "receive"
				}
			],
			"devdoc": {
				"kind": "dev",
				"methods": {},
				"version": 1
			},
			"evm": {
				"assembly": "    /* \"contracts/TokenSwap.sol\":111:2139  contract TokenSwap {... */\n  mstore(0x40, 0x80)\n    /* \"contracts/TokenSwap.sol\":198:214  constructor() {} */\n  callvalue\n  dup1\n  iszero\n  tag_1\n  jumpi\n  0x00\n  dup1\n  revert\ntag_1:\n  pop\n    /* \"contracts/TokenSwap.sol\":111:2139  contract TokenSwap {... */\n  dataSize(sub_0)\n  dup1\n  dataOffset(sub_0)\n  0x00\n  codecopy\n  0x00\n  return\nstop\n\nsub_0: assembly {\n        /* \"contracts/TokenSwap.sol\":111:2139  contract TokenSwap {... */\n      mstore(0x40, 0x80)\n      jumpi(tag_1, lt(calldatasize, 0x04))\n      shr(0xe0, calldataload(0x00))\n      dup1\n      0x30ba8901\n      eq\n      tag_3\n      jumpi\n      dup1\n      0x7c153534\n      eq\n      tag_4\n      jumpi\n      dup1\n      0x7ddf3320\n      eq\n      tag_5\n      jumpi\n      dup1\n      0xc17b7326\n      eq\n      tag_6\n      jumpi\n      jump(tag_2)\n    tag_1:\n      jumpi(tag_2, calldatasize)\n      stop\n    tag_2:\n      stop\n        /* \"contracts/TokenSwap.sol\":958:1579  function swap_v2(... */\n    tag_3:\n      callvalue\n      dup1\n      iszero\n      tag_11\n      jumpi\n      0x00\n      dup1\n      revert\n    tag_11:\n      pop\n      tag_12\n      0x04\n      dup1\n      calldatasize\n      sub\n      dup2\n      add\n      swap1\n      tag_13\n      swap2\n      swap1\n      tag_14\n      jump\t// in\n    tag_13:\n      tag_15\n      jump\t// in\n    tag_12:\n      stop\n        /* \"contracts/TokenSwap.sol\":141:164  IERC20 public tokenFrom */\n    tag_4:\n      callvalue\n      dup1\n      iszero\n      tag_16\n      jumpi\n      0x00\n      dup1\n      revert\n    tag_16:\n      pop\n      tag_17\n      tag_18\n      jump\t// in\n    tag_17:\n      mload(0x40)\n      tag_19\n      swap2\n      swap1\n      tag_20\n      jump\t// in\n    tag_19:\n      mload(0x40)\n      dup1\n      swap2\n      sub\n      swap1\n      return\n        /* \"contracts/TokenSwap.sol\":220:952  function swap(... */\n    tag_5:\n      callvalue\n      dup1\n      iszero\n      tag_21\n      jumpi\n      0x00\n      dup1\n      revert\n    tag_21:\n      pop\n      tag_22\n      0x04\n      dup1\n      calldatasize\n      sub\n      dup2\n      add\n      swap1\n      tag_23\n      swap2\n      swap1\n      tag_24\n      jump\t// in\n    tag_23:\n      tag_25\n      jump\t// in\n    tag_22:\n      stop\n        /* \"contracts/TokenSwap.sol\":170:191  IERC20 public tokenTo */\n    tag_6:\n      callvalue\n      dup1\n      iszero\n      tag_26\n      jumpi\n      0x00\n      dup1\n      revert\n    tag_26:\n      pop\n      tag_27\n      tag_28\n      jump\t// in\n    tag_27:\n      mload(0x40)\n      tag_29\n      swap2\n      swap1\n      tag_20\n      jump\t// in\n    tag_29:\n      mload(0x40)\n      dup1\n      swap2\n      sub\n      swap1\n      return\n        /* \"contracts/TokenSwap.sol\":958:1579  function swap_v2(... */\n    tag_15:\n        /* \"contracts/TokenSwap.sol\":1098:1118  address _addressSwap */\n      0x00\n        /* \"contracts/TokenSwap.sol\":1121:1131  msg.sender */\n      caller\n        /* \"contracts/TokenSwap.sol\":1098:1131  address _addressSwap = msg.sender */\n      swap1\n      pop\n        /* \"contracts/TokenSwap.sol\":1160:1170  _tokenFrom */\n      dup5\n        /* \"contracts/TokenSwap.sol\":1141:1150  tokenFrom */\n      0x00\n      dup1\n        /* \"contracts/TokenSwap.sol\":1141:1171  tokenFrom = IERC20(_tokenFrom) */\n      0x0100\n      exp\n      dup2\n      sload\n      dup2\n      0xffffffffffffffffffffffffffffffffffffffff\n      mul\n      not\n      and\n      swap1\n      dup4\n      0xffffffffffffffffffffffffffffffffffffffff\n      and\n      mul\n      or\n      swap1\n      sstore\n      pop\n        /* \"contracts/TokenSwap.sol\":1198:1206  _tokenTo */\n      dup3\n        /* \"contracts/TokenSwap.sol\":1181:1188  tokenTo */\n      0x01\n      0x00\n        /* \"contracts/TokenSwap.sol\":1181:1207  tokenTo = IERC20(_tokenTo) */\n      0x0100\n      exp\n      dup2\n      sload\n      dup2\n      0xffffffffffffffffffffffffffffffffffffffff\n      mul\n      not\n      and\n      swap1\n      dup4\n      0xffffffffffffffffffffffffffffffffffffffff\n      and\n      mul\n      or\n      swap1\n      sstore\n      pop\n        /* \"contracts/TokenSwap.sol\":1279:1290  _amountFrom */\n      dup4\n        /* \"contracts/TokenSwap.sol\":1226:1235  tokenFrom */\n      0x00\n      dup1\n      sload\n      swap1\n      0x0100\n      exp\n      swap1\n      div\n      0xffffffffffffffffffffffffffffffffffffffff\n      and\n        /* \"contracts/TokenSwap.sol\":1226:1245  tokenFrom.allowance */\n      0xffffffffffffffffffffffffffffffffffffffff\n      and\n      0xdd62ed3e\n        /* \"contracts/TokenSwap.sol\":1246:1258  _addressSwap */\n      dup4\n        /* \"contracts/TokenSwap.sol\":1269:1273  this */\n      address\n        /* \"contracts/TokenSwap.sol\":1226:1275  tokenFrom.allowance(_addressSwap, address (this)) */\n      mload(0x40)\n      dup4\n      0xffffffff\n      and\n      0xe0\n      shl\n      dup2\n      mstore\n      0x04\n      add\n      tag_31\n      swap3\n      swap2\n      swap1\n      tag_32\n      jump\t// in\n    tag_31:\n      0x20\n      mload(0x40)\n      dup1\n      dup4\n      sub\n      dup2\n      dup7\n      dup1\n      extcodesize\n      iszero\n      dup1\n      iszero\n      tag_33\n      jumpi\n      0x00\n      dup1\n      revert\n    tag_33:\n      pop\n      gas\n      staticcall\n      iszero\n      dup1\n      iszero\n      tag_35\n      jumpi\n      returndatasize\n      0x00\n      dup1\n      returndatacopy\n      revert(0x00, returndatasize)\n    tag_35:\n      pop\n      pop\n      pop\n      pop\n      mload(0x40)\n      returndatasize\n      not(0x1f)\n      0x1f\n      dup3\n      add\n      and\n      dup3\n      add\n      dup1\n      0x40\n      mstore\n      pop\n      dup2\n      add\n      swap1\n      tag_36\n      swap2\n      swap1\n      tag_37\n      jump\t// in\n    tag_36:\n        /* \"contracts/TokenSwap.sol\":1226:1290  tokenFrom.allowance(_addressSwap, address (this)) >= _amountFrom */\n      lt\n      iszero\n        /* \"contracts/TokenSwap.sol\":1218:1318  require(tokenFrom.allowance(_addressSwap, address (this)) >= _amountFrom, \"Allow tokenFrom too low\") */\n      tag_38\n      jumpi\n      mload(0x40)\n      0x08c379a000000000000000000000000000000000000000000000000000000000\n      dup2\n      mstore\n      0x04\n      add\n      tag_39\n      swap1\n      tag_40\n      jump\t// in\n    tag_39:\n      mload(0x40)\n      dup1\n      swap2\n      sub\n      swap1\n      revert\n    tag_38:\n        /* \"contracts/TokenSwap.sol\":1372:1381  _amountTo */\n      dup2\n        /* \"contracts/TokenSwap.sol\":1336:1343  tokenTo */\n      0x01\n      0x00\n      swap1\n      sload\n      swap1\n      0x0100\n      exp\n      swap1\n      div\n      0xffffffffffffffffffffffffffffffffffffffff\n      and\n        /* \"contracts/TokenSwap.sol\":1336:1353  tokenTo.balanceOf */\n      0xffffffffffffffffffffffffffffffffffffffff\n      and\n      0x70a08231\n        /* \"contracts/TokenSwap.sol\":1362:1366  this */\n      address\n        /* \"contracts/TokenSwap.sol\":1336:1368  tokenTo.balanceOf(address(this)) */\n      mload(0x40)\n      dup3\n      0xffffffff\n      and\n      0xe0\n      shl\n      dup2\n      mstore\n      0x04\n      add\n      tag_41\n      swap2\n      swap1\n      tag_42\n      jump\t// in\n    tag_41:\n      0x20\n      mload(0x40)\n      dup1\n      dup4\n      sub\n      dup2\n      dup7\n      dup1\n      extcodesize\n      iszero\n      dup1\n      iszero\n      tag_43\n      jumpi\n      0x00\n      dup1\n      revert\n    tag_43:\n      pop\n      gas\n      staticcall\n      iszero\n      dup1\n      iszero\n      tag_45\n      jumpi\n      returndatasize\n      0x00\n      dup1\n      returndatacopy\n      revert(0x00, returndatasize)\n    tag_45:\n      pop\n      pop\n      pop\n      pop\n      mload(0x40)\n      returndatasize\n      not(0x1f)\n      0x1f\n      dup3\n      add\n      and\n      dup3\n      add\n      dup1\n      0x40\n      mstore\n      pop\n      dup2\n      add\n      swap1\n      tag_46\n      swap2\n      swap1\n      tag_37\n      jump\t// in\n    tag_46:\n        /* \"contracts/TokenSwap.sol\":1336:1381  tokenTo.balanceOf(address(this)) >= _amountTo */\n      lt\n      iszero\n        /* \"contracts/TokenSwap.sol\":1328:1434  require(tokenTo.balanceOf(address(this)) >= _amountTo, 'Insufficient balance tokenTo to send back client') */\n      tag_47\n      jumpi\n      mload(0x40)\n      0x08c379a000000000000000000000000000000000000000000000000000000000\n      dup2\n      mstore\n      0x04\n      add\n      tag_48\n      swap1\n      tag_49\n      jump\t// in\n    tag_48:\n      mload(0x40)\n      dup1\n      swap2\n      sub\n      swap1\n      revert\n    tag_47:\n        /* \"contracts/TokenSwap.sol\":1445:1515  _safeTransferFrom(tokenFrom, _addressSwap, address(this), _amountFrom) */\n      tag_50\n        /* \"contracts/TokenSwap.sol\":1463:1472  tokenFrom */\n      0x00\n      dup1\n      sload\n      swap1\n      0x0100\n      exp\n      swap1\n      div\n      0xffffffffffffffffffffffffffffffffffffffff\n      and\n        /* \"contracts/TokenSwap.sol\":1474:1486  _addressSwap */\n      dup3\n        /* \"contracts/TokenSwap.sol\":1496:1500  this */\n      address\n        /* \"contracts/TokenSwap.sol\":1503:1514  _amountFrom */\n      dup8\n        /* \"contracts/TokenSwap.sol\":1445:1462  _safeTransferFrom */\n      tag_51\n        /* \"contracts/TokenSwap.sol\":1445:1515  _safeTransferFrom(tokenFrom, _addressSwap, address(this), _amountFrom) */\n      jump\t// in\n    tag_50:\n        /* \"contracts/TokenSwap.sol\":1525:1572  _safeTransfer(tokenTo, _addressSwap, _amountTo) */\n      tag_52\n        /* \"contracts/TokenSwap.sol\":1539:1546  tokenTo */\n      0x01\n      0x00\n      swap1\n      sload\n      swap1\n      0x0100\n      exp\n      swap1\n      div\n      0xffffffffffffffffffffffffffffffffffffffff\n      and\n        /* \"contracts/TokenSwap.sol\":1548:1560  _addressSwap */\n      dup3\n        /* \"contracts/TokenSwap.sol\":1562:1571  _amountTo */\n      dup5\n        /* \"contracts/TokenSwap.sol\":1525:1538  _safeTransfer */\n      tag_53\n        /* \"contracts/TokenSwap.sol\":1525:1572  _safeTransfer(tokenTo, _addressSwap, _amountTo) */\n      jump\t// in\n    tag_52:\n        /* \"contracts/TokenSwap.sol\":1087:1579  {... */\n      pop\n        /* \"contracts/TokenSwap.sol\":958:1579  function swap_v2(... */\n      pop\n      pop\n      pop\n      pop\n      jump\t// out\n        /* \"contracts/TokenSwap.sol\":141:164  IERC20 public tokenFrom */\n    tag_18:\n      0x00\n      dup1\n      sload\n      swap1\n      0x0100\n      exp\n      swap1\n      div\n      0xffffffffffffffffffffffffffffffffffffffff\n      and\n      dup2\n      jump\t// out\n        /* \"contracts/TokenSwap.sol\":220:952  function swap(... */\n    tag_25:\n        /* \"contracts/TokenSwap.sol\":434:444  _tokenFrom */\n      dup6\n        /* \"contracts/TokenSwap.sol\":415:424  tokenFrom */\n      0x00\n      dup1\n        /* \"contracts/TokenSwap.sol\":415:445  tokenFrom = IERC20(_tokenFrom) */\n      0x0100\n      exp\n      dup2\n      sload\n      dup2\n      0xffffffffffffffffffffffffffffffffffffffff\n      mul\n      not\n      and\n      swap1\n      dup4\n      0xffffffffffffffffffffffffffffffffffffffff\n      and\n      mul\n      or\n      swap1\n      sstore\n      pop\n        /* \"contracts/TokenSwap.sol\":472:480  _tokenTo */\n      dup3\n        /* \"contracts/TokenSwap.sol\":455:462  tokenTo */\n      0x01\n      0x00\n        /* \"contracts/TokenSwap.sol\":455:481  tokenTo = IERC20(_tokenTo) */\n      0x0100\n      exp\n      dup2\n      sload\n      dup2\n      0xffffffffffffffffffffffffffffffffffffffff\n      mul\n      not\n      and\n      swap1\n      dup4\n      0xffffffffffffffffffffffffffffffffffffffff\n      and\n      mul\n      or\n      swap1\n      sstore\n      pop\n        /* \"contracts/TokenSwap.sol\":514:526  _addressFrom */\n      dup5\n        /* \"contracts/TokenSwap.sol\":500:526  msg.sender == _addressFrom */\n      0xffffffffffffffffffffffffffffffffffffffff\n      and\n        /* \"contracts/TokenSwap.sol\":500:510  msg.sender */\n      caller\n        /* \"contracts/TokenSwap.sol\":500:526  msg.sender == _addressFrom */\n      0xffffffffffffffffffffffffffffffffffffffff\n      and\n      eq\n        /* \"contracts/TokenSwap.sol\":500:554  msg.sender == _addressFrom || msg.sender == _addressTo */\n      dup1\n      tag_55\n      jumpi\n      pop\n        /* \"contracts/TokenSwap.sol\":544:554  _addressTo */\n      dup2\n        /* \"contracts/TokenSwap.sol\":530:554  msg.sender == _addressTo */\n      0xffffffffffffffffffffffffffffffffffffffff\n      and\n        /* \"contracts/TokenSwap.sol\":530:540  msg.sender */\n      caller\n        /* \"contracts/TokenSwap.sol\":530:554  msg.sender == _addressTo */\n      0xffffffffffffffffffffffffffffffffffffffff\n      and\n      eq\n        /* \"contracts/TokenSwap.sol\":500:554  msg.sender == _addressFrom || msg.sender == _addressTo */\n    tag_55:\n        /* \"contracts/TokenSwap.sol\":492:581  require(msg.sender == _addressFrom || msg.sender == _addressTo, \"Address swap not valid\") */\n      tag_56\n      jumpi\n      mload(0x40)\n      0x08c379a000000000000000000000000000000000000000000000000000000000\n      dup2\n      mstore\n      0x04\n      add\n      tag_57\n      swap1\n      tag_58\n      jump\t// in\n    tag_57:\n      mload(0x40)\n      dup1\n      swap2\n      sub\n      swap1\n      revert\n    tag_56:\n        /* \"contracts/TokenSwap.sol\":652:663  _amountFrom */\n      dup4\n        /* \"contracts/TokenSwap.sol\":599:608  tokenFrom */\n      0x00\n      dup1\n      sload\n      swap1\n      0x0100\n      exp\n      swap1\n      div\n      0xffffffffffffffffffffffffffffffffffffffff\n      and\n        /* \"contracts/TokenSwap.sol\":599:618  tokenFrom.allowance */\n      0xffffffffffffffffffffffffffffffffffffffff\n      and\n      0xdd62ed3e\n        /* \"contracts/TokenSwap.sol\":619:631  _addressFrom */\n      dup8\n        /* \"contracts/TokenSwap.sol\":642:646  this */\n      address\n        /* \"contracts/TokenSwap.sol\":599:648  tokenFrom.allowance(_addressFrom, address (this)) */\n      mload(0x40)\n      dup4\n      0xffffffff\n      and\n      0xe0\n      shl\n      dup2\n      mstore\n      0x04\n      add\n      tag_59\n      swap3\n      swap2\n      swap1\n      tag_32\n      jump\t// in\n    tag_59:\n      0x20\n      mload(0x40)\n      dup1\n      dup4\n      sub\n      dup2\n      dup7\n      dup1\n      extcodesize\n      iszero\n      dup1\n      iszero\n      tag_60\n      jumpi\n      0x00\n      dup1\n      revert\n    tag_60:\n      pop\n      gas\n      staticcall\n      iszero\n      dup1\n      iszero\n      tag_62\n      jumpi\n      returndatasize\n      0x00\n      dup1\n      returndatacopy\n      revert(0x00, returndatasize)\n    tag_62:\n      pop\n      pop\n      pop\n      pop\n      mload(0x40)\n      returndatasize\n      not(0x1f)\n      0x1f\n      dup3\n      add\n      and\n      dup3\n      add\n      dup1\n      0x40\n      mstore\n      pop\n      dup2\n      add\n      swap1\n      tag_63\n      swap2\n      swap1\n      tag_37\n      jump\t// in\n    tag_63:\n        /* \"contracts/TokenSwap.sol\":599:663  tokenFrom.allowance(_addressFrom, address (this)) >= _amountFrom */\n      lt\n      iszero\n        /* \"contracts/TokenSwap.sol\":591:692  require(tokenFrom.allowance(_addressFrom, address (this)) >= _amountFrom, \"Token allow From too low\") */\n      tag_64\n      jumpi\n      mload(0x40)\n      0x08c379a000000000000000000000000000000000000000000000000000000000\n      dup2\n      mstore\n      0x04\n      add\n      tag_65\n      swap1\n      tag_66\n      jump\t// in\n    tag_65:\n      mload(0x40)\n      dup1\n      swap2\n      sub\n      swap1\n      revert\n    tag_64:\n        /* \"contracts/TokenSwap.sol\":759:768  _amountTo */\n      dup1\n        /* \"contracts/TokenSwap.sol\":710:717  tokenTo */\n      0x01\n      0x00\n      swap1\n      sload\n      swap1\n      0x0100\n      exp\n      swap1\n      div\n      0xffffffffffffffffffffffffffffffffffffffff\n      and\n        /* \"contracts/TokenSwap.sol\":710:727  tokenTo.allowance */\n      0xffffffffffffffffffffffffffffffffffffffff\n      and\n      0xdd62ed3e\n        /* \"contracts/TokenSwap.sol\":728:738  _addressTo */\n      dup5\n        /* \"contracts/TokenSwap.sol\":749:753  this */\n      address\n        /* \"contracts/TokenSwap.sol\":710:755  tokenTo.allowance(_addressTo, address (this)) */\n      mload(0x40)\n      dup4\n      0xffffffff\n      and\n      0xe0\n      shl\n      dup2\n      mstore\n      0x04\n      add\n      tag_67\n      swap3\n      swap2\n      swap1\n      tag_32\n      jump\t// in\n    tag_67:\n      0x20\n      mload(0x40)\n      dup1\n      dup4\n      sub\n      dup2\n      dup7\n      dup1\n      extcodesize\n      iszero\n      dup1\n      iszero\n      tag_68\n      jumpi\n      0x00\n      dup1\n      revert\n    tag_68:\n      pop\n      gas\n      staticcall\n      iszero\n      dup1\n      iszero\n      tag_70\n      jumpi\n      returndatasize\n      0x00\n      dup1\n      returndatacopy\n      revert(0x00, returndatasize)\n    tag_70:\n      pop\n      pop\n      pop\n      pop\n      mload(0x40)\n      returndatasize\n      not(0x1f)\n      0x1f\n      dup3\n      add\n      and\n      dup3\n      add\n      dup1\n      0x40\n      mstore\n      pop\n      dup2\n      add\n      swap1\n      tag_71\n      swap2\n      swap1\n      tag_37\n      jump\t// in\n    tag_71:\n        /* \"contracts/TokenSwap.sol\":710:768  tokenTo.allowance(_addressTo, address (this)) >= _amountTo */\n      lt\n      iszero\n        /* \"contracts/TokenSwap.sol\":702:795  require(tokenTo.allowance(_addressTo, address (this)) >= _amountTo, \"Token allow To too low\") */\n      tag_72\n      jumpi\n      mload(0x40)\n      0x08c379a000000000000000000000000000000000000000000000000000000000\n      dup2\n      mstore\n      0x04\n      add\n      tag_73\n      swap1\n      tag_74\n      jump\t// in\n    tag_73:\n      mload(0x40)\n      dup1\n      swap2\n      sub\n      swap1\n      revert\n    tag_72:\n        /* \"contracts/TokenSwap.sol\":805:872  _safeTransferFrom(tokenFrom, _addressFrom, _addressTo, _amountFrom) */\n      tag_75\n        /* \"contracts/TokenSwap.sol\":823:832  tokenFrom */\n      0x00\n      dup1\n      sload\n      swap1\n      0x0100\n      exp\n      swap1\n      div\n      0xffffffffffffffffffffffffffffffffffffffff\n      and\n        /* \"contracts/TokenSwap.sol\":834:846  _addressFrom */\n      dup7\n        /* \"contracts/TokenSwap.sol\":848:858  _addressTo */\n      dup5\n        /* \"contracts/TokenSwap.sol\":860:871  _amountFrom */\n      dup8\n        /* \"contracts/TokenSwap.sol\":805:822  _safeTransferFrom */\n      tag_51\n        /* \"contracts/TokenSwap.sol\":805:872  _safeTransferFrom(tokenFrom, _addressFrom, _addressTo, _amountFrom) */\n      jump\t// in\n    tag_75:\n        /* \"contracts/TokenSwap.sol\":882:945  _safeTransferFrom(tokenTo, _addressTo, _addressFrom, _amountTo) */\n      tag_76\n        /* \"contracts/TokenSwap.sol\":900:907  tokenTo */\n      0x01\n      0x00\n      swap1\n      sload\n      swap1\n      0x0100\n      exp\n      swap1\n      div\n      0xffffffffffffffffffffffffffffffffffffffff\n      and\n        /* \"contracts/TokenSwap.sol\":909:919  _addressTo */\n      dup4\n        /* \"contracts/TokenSwap.sol\":921:933  _addressFrom */\n      dup8\n        /* \"contracts/TokenSwap.sol\":935:944  _amountTo */\n      dup5\n        /* \"contracts/TokenSwap.sol\":882:899  _safeTransferFrom */\n      tag_51\n        /* \"contracts/TokenSwap.sol\":882:945  _safeTransferFrom(tokenTo, _addressTo, _addressFrom, _amountTo) */\n      jump\t// in\n    tag_76:\n        /* \"contracts/TokenSwap.sol\":220:952  function swap(... */\n      pop\n      pop\n      pop\n      pop\n      pop\n      pop\n      jump\t// out\n        /* \"contracts/TokenSwap.sol\":170:191  IERC20 public tokenTo */\n    tag_28:\n      0x01\n      0x00\n      swap1\n      sload\n      swap1\n      0x0100\n      exp\n      swap1\n      div\n      0xffffffffffffffffffffffffffffffffffffffff\n      and\n      dup2\n      jump\t// out\n        /* \"contracts/TokenSwap.sol\":1585:1842  function _safeTransferFrom(... */\n    tag_51:\n        /* \"contracts/TokenSwap.sol\":1730:1739  bool sent */\n      0x00\n        /* \"contracts/TokenSwap.sol\":1742:1747  token */\n      dup5\n        /* \"contracts/TokenSwap.sol\":1742:1760  token.transferFrom */\n      0xffffffffffffffffffffffffffffffffffffffff\n      and\n      0x23b872dd\n        /* \"contracts/TokenSwap.sol\":1761:1767  sender */\n      dup6\n        /* \"contracts/TokenSwap.sol\":1769:1778  recipient */\n      dup6\n        /* \"contracts/TokenSwap.sol\":1780:1786  amount */\n      dup6\n        /* \"contracts/TokenSwap.sol\":1742:1787  token.transferFrom(sender, recipient, amount) */\n      mload(0x40)\n      dup5\n      0xffffffff\n      and\n      0xe0\n      shl\n      dup2\n      mstore\n      0x04\n      add\n      tag_78\n      swap4\n      swap3\n      swap2\n      swap1\n      tag_79\n      jump\t// in\n    tag_78:\n      0x20\n      mload(0x40)\n      dup1\n      dup4\n      sub\n      dup2\n      0x00\n      dup8\n      dup1\n      extcodesize\n      iszero\n      dup1\n      iszero\n      tag_80\n      jumpi\n      0x00\n      dup1\n      revert\n    tag_80:\n      pop\n      gas\n      call\n      iszero\n      dup1\n      iszero\n      tag_82\n      jumpi\n      returndatasize\n      0x00\n      dup1\n      returndatacopy\n      revert(0x00, returndatasize)\n    tag_82:\n      pop\n      pop\n      pop\n      pop\n      mload(0x40)\n      returndatasize\n      not(0x1f)\n      0x1f\n      dup3\n      add\n      and\n      dup3\n      add\n      dup1\n      0x40\n      mstore\n      pop\n      dup2\n      add\n      swap1\n      tag_83\n      swap2\n      swap1\n      tag_84\n      jump\t// in\n    tag_83:\n        /* \"contracts/TokenSwap.sol\":1730:1787  bool sent = token.transferFrom(sender, recipient, amount) */\n      swap1\n      pop\n        /* \"contracts/TokenSwap.sol\":1805:1809  sent */\n      dup1\n        /* \"contracts/TokenSwap.sol\":1797:1835  require(sent, \"Token transfer failed\") */\n      tag_85\n      jumpi\n      mload(0x40)\n      0x08c379a000000000000000000000000000000000000000000000000000000000\n      dup2\n      mstore\n      0x04\n      add\n      tag_86\n      swap1\n      tag_87\n      jump\t// in\n    tag_86:\n      mload(0x40)\n      dup1\n      swap2\n      sub\n      swap1\n      revert\n    tag_85:\n        /* \"contracts/TokenSwap.sol\":1720:1842  {... */\n      pop\n        /* \"contracts/TokenSwap.sol\":1585:1842  function _safeTransferFrom(... */\n      pop\n      pop\n      pop\n      pop\n      jump\t// out\n        /* \"contracts/TokenSwap.sol\":1848:2065  function _safeTransfer(... */\n    tag_53:\n        /* \"contracts/TokenSwap.sol\":1965:1974  bool sent */\n      0x00\n        /* \"contracts/TokenSwap.sol\":1977:1982  token */\n      dup4\n        /* \"contracts/TokenSwap.sol\":1977:1991  token.transfer */\n      0xffffffffffffffffffffffffffffffffffffffff\n      and\n      0xa9059cbb\n        /* \"contracts/TokenSwap.sol\":1992:2001  recipient */\n      dup5\n        /* \"contracts/TokenSwap.sol\":2003:2009  amount */\n      dup5\n        /* \"contracts/TokenSwap.sol\":1977:2010  token.transfer(recipient, amount) */\n      mload(0x40)\n      dup4\n      0xffffffff\n      and\n      0xe0\n      shl\n      dup2\n      mstore\n      0x04\n      add\n      tag_89\n      swap3\n      swap2\n      swap1\n      tag_90\n      jump\t// in\n    tag_89:\n      0x20\n      mload(0x40)\n      dup1\n      dup4\n      sub\n      dup2\n      0x00\n      dup8\n      dup1\n      extcodesize\n      iszero\n      dup1\n      iszero\n      tag_91\n      jumpi\n      0x00\n      dup1\n      revert\n    tag_91:\n      pop\n      gas\n      call\n      iszero\n      dup1\n      iszero\n      tag_93\n      jumpi\n      returndatasize\n      0x00\n      dup1\n      returndatacopy\n      revert(0x00, returndatasize)\n    tag_93:\n      pop\n      pop\n      pop\n      pop\n      mload(0x40)\n      returndatasize\n      not(0x1f)\n      0x1f\n      dup3\n      add\n      and\n      dup3\n      add\n      dup1\n      0x40\n      mstore\n      pop\n      dup2\n      add\n      swap1\n      tag_94\n      swap2\n      swap1\n      tag_84\n      jump\t// in\n    tag_94:\n        /* \"contracts/TokenSwap.sol\":1965:2010  bool sent = token.transfer(recipient, amount) */\n      swap1\n      pop\n        /* \"contracts/TokenSwap.sol\":2028:2032  sent */\n      dup1\n        /* \"contracts/TokenSwap.sol\":2020:2058  require(sent, \"Token transfer failed\") */\n      tag_95\n      jumpi\n      mload(0x40)\n      0x08c379a000000000000000000000000000000000000000000000000000000000\n      dup2\n      mstore\n      0x04\n      add\n      tag_96\n      swap1\n      tag_87\n      jump\t// in\n    tag_96:\n      mload(0x40)\n      dup1\n      swap2\n      sub\n      swap1\n      revert\n    tag_95:\n        /* \"contracts/TokenSwap.sol\":1955:2065  {... */\n      pop\n        /* \"contracts/TokenSwap.sol\":1848:2065  function _safeTransfer(... */\n      pop\n      pop\n      pop\n      jump\t// out\n        /* \"#utility.yul\":7:146   */\n    tag_98:\n        /* \"#utility.yul\":53:58   */\n      0x00\n        /* \"#utility.yul\":91:97   */\n      dup2\n        /* \"#utility.yul\":78:98   */\n      calldataload\n        /* \"#utility.yul\":69:98   */\n      swap1\n      pop\n        /* \"#utility.yul\":107:140   */\n      tag_100\n        /* \"#utility.yul\":134:139   */\n      dup2\n        /* \"#utility.yul\":107:140   */\n      tag_101\n      jump\t// in\n    tag_100:\n        /* \"#utility.yul\":7:146   */\n      swap3\n      swap2\n      pop\n      pop\n      jump\t// out\n        /* \"#utility.yul\":152:289   */\n    tag_102:\n        /* \"#utility.yul\":206:211   */\n      0x00\n        /* \"#utility.yul\":237:243   */\n      dup2\n        /* \"#utility.yul\":231:244   */\n      mload\n        /* \"#utility.yul\":222:244   */\n      swap1\n      pop\n        /* \"#utility.yul\":253:283   */\n      tag_104\n        /* \"#utility.yul\":277:282   */\n      dup2\n        /* \"#utility.yul\":253:283   */\n      tag_105\n      jump\t// in\n    tag_104:\n        /* \"#utility.yul\":152:289   */\n      swap3\n      swap2\n      pop\n      pop\n      jump\t// out\n        /* \"#utility.yul\":295:434   */\n    tag_106:\n        /* \"#utility.yul\":341:346   */\n      0x00\n        /* \"#utility.yul\":379:385   */\n      dup2\n        /* \"#utility.yul\":366:386   */\n      calldataload\n        /* \"#utility.yul\":357:386   */\n      swap1\n      pop\n        /* \"#utility.yul\":395:428   */\n      tag_108\n        /* \"#utility.yul\":422:427   */\n      dup2\n        /* \"#utility.yul\":395:428   */\n      tag_109\n      jump\t// in\n    tag_108:\n        /* \"#utility.yul\":295:434   */\n      swap3\n      swap2\n      pop\n      pop\n      jump\t// out\n        /* \"#utility.yul\":440:583   */\n    tag_110:\n        /* \"#utility.yul\":497:502   */\n      0x00\n        /* \"#utility.yul\":528:534   */\n      dup2\n        /* \"#utility.yul\":522:535   */\n      mload\n        /* \"#utility.yul\":513:535   */\n      swap1\n      pop\n        /* \"#utility.yul\":544:577   */\n      tag_112\n        /* \"#utility.yul\":571:576   */\n      dup2\n        /* \"#utility.yul\":544:577   */\n      tag_109\n      jump\t// in\n    tag_112:\n        /* \"#utility.yul\":440:583   */\n      swap3\n      swap2\n      pop\n      pop\n      jump\t// out\n        /* \"#utility.yul\":589:1646   */\n    tag_24:\n        /* \"#utility.yul\":693:699   */\n      0x00\n        /* \"#utility.yul\":701:707   */\n      dup1\n        /* \"#utility.yul\":709:715   */\n      0x00\n        /* \"#utility.yul\":717:723   */\n      dup1\n        /* \"#utility.yul\":725:731   */\n      0x00\n        /* \"#utility.yul\":733:739   */\n      dup1\n        /* \"#utility.yul\":782:785   */\n      0xc0\n        /* \"#utility.yul\":770:779   */\n      dup8\n        /* \"#utility.yul\":761:768   */\n      dup10\n        /* \"#utility.yul\":757:780   */\n      sub\n        /* \"#utility.yul\":753:786   */\n      slt\n        /* \"#utility.yul\":750:870   */\n      iszero\n      tag_114\n      jumpi\n        /* \"#utility.yul\":789:868   */\n      tag_115\n      tag_116\n      jump\t// in\n    tag_115:\n        /* \"#utility.yul\":750:870   */\n    tag_114:\n        /* \"#utility.yul\":909:910   */\n      0x00\n        /* \"#utility.yul\":934:987   */\n      tag_117\n        /* \"#utility.yul\":979:986   */\n      dup10\n        /* \"#utility.yul\":970:976   */\n      dup3\n        /* \"#utility.yul\":959:968   */\n      dup11\n        /* \"#utility.yul\":955:977   */\n      add\n        /* \"#utility.yul\":934:987   */\n      tag_98\n      jump\t// in\n    tag_117:\n        /* \"#utility.yul\":924:987   */\n      swap7\n      pop\n        /* \"#utility.yul\":880:997   */\n      pop\n        /* \"#utility.yul\":1036:1038   */\n      0x20\n        /* \"#utility.yul\":1062:1115   */\n      tag_118\n        /* \"#utility.yul\":1107:1114   */\n      dup10\n        /* \"#utility.yul\":1098:1104   */\n      dup3\n        /* \"#utility.yul\":1087:1096   */\n      dup11\n        /* \"#utility.yul\":1083:1105   */\n      add\n        /* \"#utility.yul\":1062:1115   */\n      tag_98\n      jump\t// in\n    tag_118:\n        /* \"#utility.yul\":1052:1115   */\n      swap6\n      pop\n        /* \"#utility.yul\":1007:1125   */\n      pop\n        /* \"#utility.yul\":1164:1166   */\n      0x40\n        /* \"#utility.yul\":1190:1243   */\n      tag_119\n        /* \"#utility.yul\":1235:1242   */\n      dup10\n        /* \"#utility.yul\":1226:1232   */\n      dup3\n        /* \"#utility.yul\":1215:1224   */\n      dup11\n        /* \"#utility.yul\":1211:1233   */\n      add\n        /* \"#utility.yul\":1190:1243   */\n      tag_106\n      jump\t// in\n    tag_119:\n        /* \"#utility.yul\":1180:1243   */\n      swap5\n      pop\n        /* \"#utility.yul\":1135:1253   */\n      pop\n        /* \"#utility.yul\":1292:1294   */\n      0x60\n        /* \"#utility.yul\":1318:1371   */\n      tag_120\n        /* \"#utility.yul\":1363:1370   */\n      dup10\n        /* \"#utility.yul\":1354:1360   */\n      dup3\n        /* \"#utility.yul\":1343:1352   */\n      dup11\n        /* \"#utility.yul\":1339:1361   */\n      add\n        /* \"#utility.yul\":1318:1371   */\n      tag_98\n      jump\t// in\n    tag_120:\n        /* \"#utility.yul\":1308:1371   */\n      swap4\n      pop\n        /* \"#utility.yul\":1263:1381   */\n      pop\n        /* \"#utility.yul\":1420:1423   */\n      0x80\n        /* \"#utility.yul\":1447:1500   */\n      tag_121\n        /* \"#utility.yul\":1492:1499   */\n      dup10\n        /* \"#utility.yul\":1483:1489   */\n      dup3\n        /* \"#utility.yul\":1472:1481   */\n      dup11\n        /* \"#utility.yul\":1468:1490   */\n      add\n        /* \"#utility.yul\":1447:1500   */\n      tag_98\n      jump\t// in\n    tag_121:\n        /* \"#utility.yul\":1437:1500   */\n      swap3\n      pop\n        /* \"#utility.yul\":1391:1510   */\n      pop\n        /* \"#utility.yul\":1549:1552   */\n      0xa0\n        /* \"#utility.yul\":1576:1629   */\n      tag_122\n        /* \"#utility.yul\":1621:1628   */\n      dup10\n        /* \"#utility.yul\":1612:1618   */\n      dup3\n        /* \"#utility.yul\":1601:1610   */\n      dup11\n        /* \"#utility.yul\":1597:1619   */\n      add\n        /* \"#utility.yul\":1576:1629   */\n      tag_106\n      jump\t// in\n    tag_122:\n        /* \"#utility.yul\":1566:1629   */\n      swap2\n      pop\n        /* \"#utility.yul\":1520:1639   */\n      pop\n        /* \"#utility.yul\":589:1646   */\n      swap3\n      swap6\n      pop\n      swap3\n      swap6\n      pop\n      swap3\n      swap6\n      jump\t// out\n        /* \"#utility.yul\":1652:2417   */\n    tag_14:\n        /* \"#utility.yul\":1738:1744   */\n      0x00\n        /* \"#utility.yul\":1746:1752   */\n      dup1\n        /* \"#utility.yul\":1754:1760   */\n      0x00\n        /* \"#utility.yul\":1762:1768   */\n      dup1\n        /* \"#utility.yul\":1811:1814   */\n      0x80\n        /* \"#utility.yul\":1799:1808   */\n      dup6\n        /* \"#utility.yul\":1790:1797   */\n      dup8\n        /* \"#utility.yul\":1786:1809   */\n      sub\n        /* \"#utility.yul\":1782:1815   */\n      slt\n        /* \"#utility.yul\":1779:1899   */\n      iszero\n      tag_124\n      jumpi\n        /* \"#utility.yul\":1818:1897   */\n      tag_125\n      tag_116\n      jump\t// in\n    tag_125:\n        /* \"#utility.yul\":1779:1899   */\n    tag_124:\n        /* \"#utility.yul\":1938:1939   */\n      0x00\n        /* \"#utility.yul\":1963:2016   */\n      tag_126\n        /* \"#utility.yul\":2008:2015   */\n      dup8\n        /* \"#utility.yul\":1999:2005   */\n      dup3\n        /* \"#utility.yul\":1988:1997   */\n      dup9\n        /* \"#utility.yul\":1984:2006   */\n      add\n        /* \"#utility.yul\":1963:2016   */\n      tag_98\n      jump\t// in\n    tag_126:\n        /* \"#utility.yul\":1953:2016   */\n      swap5\n      pop\n        /* \"#utility.yul\":1909:2026   */\n      pop\n        /* \"#utility.yul\":2065:2067   */\n      0x20\n        /* \"#utility.yul\":2091:2144   */\n      tag_127\n        /* \"#utility.yul\":2136:2143   */\n      dup8\n        /* \"#utility.yul\":2127:2133   */\n      dup3\n        /* \"#utility.yul\":2116:2125   */\n      dup9\n        /* \"#utility.yul\":2112:2134   */\n      add\n        /* \"#utility.yul\":2091:2144   */\n      tag_106\n      jump\t// in\n    tag_127:\n        /* \"#utility.yul\":2081:2144   */\n      swap4\n      pop\n        /* \"#utility.yul\":2036:2154   */\n      pop\n        /* \"#utility.yul\":2193:2195   */\n      0x40\n        /* \"#utility.yul\":2219:2272   */\n      tag_128\n        /* \"#utility.yul\":2264:2271   */\n      dup8\n        /* \"#utility.yul\":2255:2261   */\n      dup3\n        /* \"#utility.yul\":2244:2253   */\n      dup9\n        /* \"#utility.yul\":2240:2262   */\n      add\n        /* \"#utility.yul\":2219:2272   */\n      tag_98\n      jump\t// in\n    tag_128:\n        /* \"#utility.yul\":2209:2272   */\n      swap3\n      pop\n        /* \"#utility.yul\":2164:2282   */\n      pop\n        /* \"#utility.yul\":2321:2323   */\n      0x60\n        /* \"#utility.yul\":2347:2400   */\n      tag_129\n        /* \"#utility.yul\":2392:2399   */\n      dup8\n        /* \"#utility.yul\":2383:2389   */\n      dup3\n        /* \"#utility.yul\":2372:2381   */\n      dup9\n        /* \"#utility.yul\":2368:2390   */\n      add\n        /* \"#utility.yul\":2347:2400   */\n      tag_106\n      jump\t// in\n    tag_129:\n        /* \"#utility.yul\":2337:2400   */\n      swap2\n      pop\n        /* \"#utility.yul\":2292:2410   */\n      pop\n        /* \"#utility.yul\":1652:2417   */\n      swap3\n      swap6\n      swap2\n      swap5\n      pop\n      swap3\n      pop\n      jump\t// out\n        /* \"#utility.yul\":2423:2768   */\n    tag_84:\n        /* \"#utility.yul\":2490:2496   */\n      0x00\n        /* \"#utility.yul\":2539:2541   */\n      0x20\n        /* \"#utility.yul\":2527:2536   */\n      dup3\n        /* \"#utility.yul\":2518:2525   */\n      dup5\n        /* \"#utility.yul\":2514:2537   */\n      sub\n        /* \"#utility.yul\":2510:2542   */\n      slt\n        /* \"#utility.yul\":2507:2626   */\n      iszero\n      tag_131\n      jumpi\n        /* \"#utility.yul\":2545:2624   */\n      tag_132\n      tag_116\n      jump\t// in\n    tag_132:\n        /* \"#utility.yul\":2507:2626   */\n    tag_131:\n        /* \"#utility.yul\":2665:2666   */\n      0x00\n        /* \"#utility.yul\":2690:2751   */\n      tag_133\n        /* \"#utility.yul\":2743:2750   */\n      dup5\n        /* \"#utility.yul\":2734:2740   */\n      dup3\n        /* \"#utility.yul\":2723:2732   */\n      dup6\n        /* \"#utility.yul\":2719:2741   */\n      add\n        /* \"#utility.yul\":2690:2751   */\n      tag_102\n      jump\t// in\n    tag_133:\n        /* \"#utility.yul\":2680:2751   */\n      swap2\n      pop\n        /* \"#utility.yul\":2636:2761   */\n      pop\n        /* \"#utility.yul\":2423:2768   */\n      swap3\n      swap2\n      pop\n      pop\n      jump\t// out\n        /* \"#utility.yul\":2774:3125   */\n    tag_37:\n        /* \"#utility.yul\":2844:2850   */\n      0x00\n        /* \"#utility.yul\":2893:2895   */\n      0x20\n        /* \"#utility.yul\":2881:2890   */\n      dup3\n        /* \"#utility.yul\":2872:2879   */\n      dup5\n        /* \"#utility.yul\":2868:2891   */\n      sub\n        /* \"#utility.yul\":2864:2896   */\n      slt\n        /* \"#utility.yul\":2861:2980   */\n      iszero\n      tag_135\n      jumpi\n        /* \"#utility.yul\":2899:2978   */\n      tag_136\n      tag_116\n      jump\t// in\n    tag_136:\n        /* \"#utility.yul\":2861:2980   */\n    tag_135:\n        /* \"#utility.yul\":3019:3020   */\n      0x00\n        /* \"#utility.yul\":3044:3108   */\n      tag_137\n        /* \"#utility.yul\":3100:3107   */\n      dup5\n        /* \"#utility.yul\":3091:3097   */\n      dup3\n        /* \"#utility.yul\":3080:3089   */\n      dup6\n        /* \"#utility.yul\":3076:3098   */\n      add\n        /* \"#utility.yul\":3044:3108   */\n      tag_110\n      jump\t// in\n    tag_137:\n        /* \"#utility.yul\":3034:3108   */\n      swap2\n      pop\n        /* \"#utility.yul\":2990:3118   */\n      pop\n        /* \"#utility.yul\":2774:3125   */\n      swap3\n      swap2\n      pop\n      pop\n      jump\t// out\n        /* \"#utility.yul\":3131:3249   */\n    tag_138:\n        /* \"#utility.yul\":3218:3242   */\n      tag_140\n        /* \"#utility.yul\":3236:3241   */\n      dup2\n        /* \"#utility.yul\":3218:3242   */\n      tag_141\n      jump\t// in\n    tag_140:\n        /* \"#utility.yul\":3213:3216   */\n      dup3\n        /* \"#utility.yul\":3206:3243   */\n      mstore\n        /* \"#utility.yul\":3131:3249   */\n      pop\n      pop\n      jump\t// out\n        /* \"#utility.yul\":3255:3414   */\n    tag_142:\n        /* \"#utility.yul\":3356:3407   */\n      tag_144\n        /* \"#utility.yul\":3401:3406   */\n      dup2\n        /* \"#utility.yul\":3356:3407   */\n      tag_145\n      jump\t// in\n    tag_144:\n        /* \"#utility.yul\":3351:3354   */\n      dup3\n        /* \"#utility.yul\":3344:3408   */\n      mstore\n        /* \"#utility.yul\":3255:3414   */\n      pop\n      pop\n      jump\t// out\n        /* \"#utility.yul\":3420:3786   */\n    tag_146:\n        /* \"#utility.yul\":3562:3565   */\n      0x00\n        /* \"#utility.yul\":3583:3650   */\n      tag_148\n        /* \"#utility.yul\":3647:3649   */\n      0x16\n        /* \"#utility.yul\":3642:3645   */\n      dup4\n        /* \"#utility.yul\":3583:3650   */\n      tag_149\n      jump\t// in\n    tag_148:\n        /* \"#utility.yul\":3576:3650   */\n      swap2\n      pop\n        /* \"#utility.yul\":3659:3752   */\n      tag_150\n        /* \"#utility.yul\":3748:3751   */\n      dup3\n        /* \"#utility.yul\":3659:3752   */\n      tag_151\n      jump\t// in\n    tag_150:\n        /* \"#utility.yul\":3777:3779   */\n      0x20\n        /* \"#utility.yul\":3772:3775   */\n      dup3\n        /* \"#utility.yul\":3768:3780   */\n      add\n        /* \"#utility.yul\":3761:3780   */\n      swap1\n      pop\n        /* \"#utility.yul\":3420:3786   */\n      swap2\n      swap1\n      pop\n      jump\t// out\n        /* \"#utility.yul\":3792:4158   */\n    tag_152:\n        /* \"#utility.yul\":3934:3937   */\n      0x00\n        /* \"#utility.yul\":3955:4022   */\n      tag_154\n        /* \"#utility.yul\":4019:4021   */\n      0x30\n        /* \"#utility.yul\":4014:4017   */\n      dup4\n        /* \"#utility.yul\":3955:4022   */\n      tag_149\n      jump\t// in\n    tag_154:\n        /* \"#utility.yul\":3948:4022   */\n      swap2\n      pop\n        /* \"#utility.yul\":4031:4124   */\n      tag_155\n        /* \"#utility.yul\":4120:4123   */\n      dup3\n        /* \"#utility.yul\":4031:4124   */\n      tag_156\n      jump\t// in\n    tag_155:\n        /* \"#utility.yul\":4149:4151   */\n      0x40\n        /* \"#utility.yul\":4144:4147   */\n      dup3\n        /* \"#utility.yul\":4140:4152   */\n      add\n        /* \"#utility.yul\":4133:4152   */\n      swap1\n      pop\n        /* \"#utility.yul\":3792:4158   */\n      swap2\n      swap1\n      pop\n      jump\t// out\n        /* \"#utility.yul\":4164:4530   */\n    tag_157:\n        /* \"#utility.yul\":4306:4309   */\n      0x00\n        /* \"#utility.yul\":4327:4394   */\n      tag_159\n        /* \"#utility.yul\":4391:4393   */\n      0x18\n        /* \"#utility.yul\":4386:4389   */\n      dup4\n        /* \"#utility.yul\":4327:4394   */\n      tag_149\n      jump\t// in\n    tag_159:\n        /* \"#utility.yul\":4320:4394   */\n      swap2\n      pop\n        /* \"#utility.yul\":4403:4496   */\n      tag_160\n        /* \"#utility.yul\":4492:4495   */\n      dup3\n        /* \"#utility.yul\":4403:4496   */\n      tag_161\n      jump\t// in\n    tag_160:\n        /* \"#utility.yul\":4521:4523   */\n      0x20\n        /* \"#utility.yul\":4516:4519   */\n      dup3\n        /* \"#utility.yul\":4512:4524   */\n      add\n        /* \"#utility.yul\":4505:4524   */\n      swap1\n      pop\n        /* \"#utility.yul\":4164:4530   */\n      swap2\n      swap1\n      pop\n      jump\t// out\n        /* \"#utility.yul\":4536:4902   */\n    tag_162:\n        /* \"#utility.yul\":4678:4681   */\n      0x00\n        /* \"#utility.yul\":4699:4766   */\n      tag_164\n        /* \"#utility.yul\":4763:4765   */\n      0x15\n        /* \"#utility.yul\":4758:4761   */\n      dup4\n        /* \"#utility.yul\":4699:4766   */\n      tag_149\n      jump\t// in\n    tag_164:\n        /* \"#utility.yul\":4692:4766   */\n      swap2\n      pop\n        /* \"#utility.yul\":4775:4868   */\n      tag_165\n        /* \"#utility.yul\":4864:4867   */\n      dup3\n        /* \"#utility.yul\":4775:4868   */\n      tag_166\n      jump\t// in\n    tag_165:\n        /* \"#utility.yul\":4893:4895   */\n      0x20\n        /* \"#utility.yul\":4888:4891   */\n      dup3\n        /* \"#utility.yul\":4884:4896   */\n      add\n        /* \"#utility.yul\":4877:4896   */\n      swap1\n      pop\n        /* \"#utility.yul\":4536:4902   */\n      swap2\n      swap1\n      pop\n      jump\t// out\n        /* \"#utility.yul\":4908:5274   */\n    tag_167:\n        /* \"#utility.yul\":5050:5053   */\n      0x00\n        /* \"#utility.yul\":5071:5138   */\n      tag_169\n        /* \"#utility.yul\":5135:5137   */\n      0x16\n        /* \"#utility.yul\":5130:5133   */\n      dup4\n        /* \"#utility.yul\":5071:5138   */\n      tag_149\n      jump\t// in\n    tag_169:\n        /* \"#utility.yul\":5064:5138   */\n      swap2\n      pop\n        /* \"#utility.yul\":5147:5240   */\n      tag_170\n        /* \"#utility.yul\":5236:5239   */\n      dup3\n        /* \"#utility.yul\":5147:5240   */\n      tag_171\n      jump\t// in\n    tag_170:\n        /* \"#utility.yul\":5265:5267   */\n      0x20\n        /* \"#utility.yul\":5260:5263   */\n      dup3\n        /* \"#utility.yul\":5256:5268   */\n      add\n        /* \"#utility.yul\":5249:5268   */\n      swap1\n      pop\n        /* \"#utility.yul\":4908:5274   */\n      swap2\n      swap1\n      pop\n      jump\t// out\n        /* \"#utility.yul\":5280:5646   */\n    tag_172:\n        /* \"#utility.yul\":5422:5425   */\n      0x00\n        /* \"#utility.yul\":5443:5510   */\n      tag_174\n        /* \"#utility.yul\":5507:5509   */\n      0x17\n        /* \"#utility.yul\":5502:5505   */\n      dup4\n        /* \"#utility.yul\":5443:5510   */\n      tag_149\n      jump\t// in\n    tag_174:\n        /* \"#utility.yul\":5436:5510   */\n      swap2\n      pop\n        /* \"#utility.yul\":5519:5612   */\n      tag_175\n        /* \"#utility.yul\":5608:5611   */\n      dup3\n        /* \"#utility.yul\":5519:5612   */\n      tag_176\n      jump\t// in\n    tag_175:\n        /* \"#utility.yul\":5637:5639   */\n      0x20\n        /* \"#utility.yul\":5632:5635   */\n      dup3\n        /* \"#utility.yul\":5628:5640   */\n      add\n        /* \"#utility.yul\":5621:5640   */\n      swap1\n      pop\n        /* \"#utility.yul\":5280:5646   */\n      swap2\n      swap1\n      pop\n      jump\t// out\n        /* \"#utility.yul\":5652:5770   */\n    tag_177:\n        /* \"#utility.yul\":5739:5763   */\n      tag_179\n        /* \"#utility.yul\":5757:5762   */\n      dup2\n        /* \"#utility.yul\":5739:5763   */\n      tag_180\n      jump\t// in\n    tag_179:\n        /* \"#utility.yul\":5734:5737   */\n      dup3\n        /* \"#utility.yul\":5727:5764   */\n      mstore\n        /* \"#utility.yul\":5652:5770   */\n      pop\n      pop\n      jump\t// out\n        /* \"#utility.yul\":5776:5998   */\n    tag_42:\n        /* \"#utility.yul\":5869:5873   */\n      0x00\n        /* \"#utility.yul\":5907:5909   */\n      0x20\n        /* \"#utility.yul\":5896:5905   */\n      dup3\n        /* \"#utility.yul\":5892:5910   */\n      add\n        /* \"#utility.yul\":5884:5910   */\n      swap1\n      pop\n        /* \"#utility.yul\":5920:5991   */\n      tag_182\n        /* \"#utility.yul\":5988:5989   */\n      0x00\n        /* \"#utility.yul\":5977:5986   */\n      dup4\n        /* \"#utility.yul\":5973:5990   */\n      add\n        /* \"#utility.yul\":5964:5970   */\n      dup5\n        /* \"#utility.yul\":5920:5991   */\n      tag_138\n      jump\t// in\n    tag_182:\n        /* \"#utility.yul\":5776:5998   */\n      swap3\n      swap2\n      pop\n      pop\n      jump\t// out\n        /* \"#utility.yul\":6004:6336   */\n    tag_32:\n        /* \"#utility.yul\":6125:6129   */\n      0x00\n        /* \"#utility.yul\":6163:6165   */\n      0x40\n        /* \"#utility.yul\":6152:6161   */\n      dup3\n        /* \"#utility.yul\":6148:6166   */\n      add\n        /* \"#utility.yul\":6140:6166   */\n      swap1\n      pop\n        /* \"#utility.yul\":6176:6247   */\n      tag_184\n        /* \"#utility.yul\":6244:6245   */\n      0x00\n        /* \"#utility.yul\":6233:6242   */\n      dup4\n        /* \"#utility.yul\":6229:6246   */\n      add\n        /* \"#utility.yul\":6220:6226   */\n      dup6\n        /* \"#utility.yul\":6176:6247   */\n      tag_138\n      jump\t// in\n    tag_184:\n        /* \"#utility.yul\":6257:6329   */\n      tag_185\n        /* \"#utility.yul\":6325:6327   */\n      0x20\n        /* \"#utility.yul\":6314:6323   */\n      dup4\n        /* \"#utility.yul\":6310:6328   */\n      add\n        /* \"#utility.yul\":6301:6307   */\n      dup5\n        /* \"#utility.yul\":6257:6329   */\n      tag_138\n      jump\t// in\n    tag_185:\n        /* \"#utility.yul\":6004:6336   */\n      swap4\n      swap3\n      pop\n      pop\n      pop\n      jump\t// out\n        /* \"#utility.yul\":6342:6784   */\n    tag_79:\n        /* \"#utility.yul\":6491:6495   */\n      0x00\n        /* \"#utility.yul\":6529:6531   */\n      0x60\n        /* \"#utility.yul\":6518:6527   */\n      dup3\n        /* \"#utility.yul\":6514:6532   */\n      add\n        /* \"#utility.yul\":6506:6532   */\n      swap1\n      pop\n        /* \"#utility.yul\":6542:6613   */\n      tag_187\n        /* \"#utility.yul\":6610:6611   */\n      0x00\n        /* \"#utility.yul\":6599:6608   */\n      dup4\n        /* \"#utility.yul\":6595:6612   */\n      add\n        /* \"#utility.yul\":6586:6592   */\n      dup7\n        /* \"#utility.yul\":6542:6613   */\n      tag_138\n      jump\t// in\n    tag_187:\n        /* \"#utility.yul\":6623:6695   */\n      tag_188\n        /* \"#utility.yul\":6691:6693   */\n      0x20\n        /* \"#utility.yul\":6680:6689   */\n      dup4\n        /* \"#utility.yul\":6676:6694   */\n      add\n        /* \"#utility.yul\":6667:6673   */\n      dup6\n        /* \"#utility.yul\":6623:6695   */\n      tag_138\n      jump\t// in\n    tag_188:\n        /* \"#utility.yul\":6705:6777   */\n      tag_189\n        /* \"#utility.yul\":6773:6775   */\n      0x40\n        /* \"#utility.yul\":6762:6771   */\n      dup4\n        /* \"#utility.yul\":6758:6776   */\n      add\n        /* \"#utility.yul\":6749:6755   */\n      dup5\n        /* \"#utility.yul\":6705:6777   */\n      tag_177\n      jump\t// in\n    tag_189:\n        /* \"#utility.yul\":6342:6784   */\n      swap5\n      swap4\n      pop\n      pop\n      pop\n      pop\n      jump\t// out\n        /* \"#utility.yul\":6790:7122   */\n    tag_90:\n        /* \"#utility.yul\":6911:6915   */\n      0x00\n        /* \"#utility.yul\":6949:6951   */\n      0x40\n        /* \"#utility.yul\":6938:6947   */\n      dup3\n        /* \"#utility.yul\":6934:6952   */\n      add\n        /* \"#utility.yul\":6926:6952   */\n      swap1\n      pop\n        /* \"#utility.yul\":6962:7033   */\n      tag_191\n        /* \"#utility.yul\":7030:7031   */\n      0x00\n        /* \"#utility.yul\":7019:7028   */\n      dup4\n        /* \"#utility.yul\":7015:7032   */\n      add\n        /* \"#utility.yul\":7006:7012   */\n      dup6\n        /* \"#utility.yul\":6962:7033   */\n      tag_138\n      jump\t// in\n    tag_191:\n        /* \"#utility.yul\":7043:7115   */\n      tag_192\n        /* \"#utility.yul\":7111:7113   */\n      0x20\n        /* \"#utility.yul\":7100:7109   */\n      dup4\n        /* \"#utility.yul\":7096:7114   */\n      add\n        /* \"#utility.yul\":7087:7093   */\n      dup5\n        /* \"#utility.yul\":7043:7115   */\n      tag_177\n      jump\t// in\n    tag_192:\n        /* \"#utility.yul\":6790:7122   */\n      swap4\n      swap3\n      pop\n      pop\n      pop\n      jump\t// out\n        /* \"#utility.yul\":7128:7378   */\n    tag_20:\n        /* \"#utility.yul\":7235:7239   */\n      0x00\n        /* \"#utility.yul\":7273:7275   */\n      0x20\n        /* \"#utility.yul\":7262:7271   */\n      dup3\n        /* \"#utility.yul\":7258:7276   */\n      add\n        /* \"#utility.yul\":7250:7276   */\n      swap1\n      pop\n        /* \"#utility.yul\":7286:7371   */\n      tag_194\n        /* \"#utility.yul\":7368:7369   */\n      0x00\n        /* \"#utility.yul\":7357:7366   */\n      dup4\n        /* \"#utility.yul\":7353:7370   */\n      add\n        /* \"#utility.yul\":7344:7350   */\n      dup5\n        /* \"#utility.yul\":7286:7371   */\n      tag_142\n      jump\t// in\n    tag_194:\n        /* \"#utility.yul\":7128:7378   */\n      swap3\n      swap2\n      pop\n      pop\n      jump\t// out\n        /* \"#utility.yul\":7384:7803   */\n    tag_74:\n        /* \"#utility.yul\":7550:7554   */\n      0x00\n        /* \"#utility.yul\":7588:7590   */\n      0x20\n        /* \"#utility.yul\":7577:7586   */\n      dup3\n        /* \"#utility.yul\":7573:7591   */\n      add\n        /* \"#utility.yul\":7565:7591   */\n      swap1\n      pop\n        /* \"#utility.yul\":7637:7646   */\n      dup2\n        /* \"#utility.yul\":7631:7635   */\n      dup2\n        /* \"#utility.yul\":7627:7647   */\n      sub\n        /* \"#utility.yul\":7623:7624   */\n      0x00\n        /* \"#utility.yul\":7612:7621   */\n      dup4\n        /* \"#utility.yul\":7608:7625   */\n      add\n        /* \"#utility.yul\":7601:7648   */\n      mstore\n        /* \"#utility.yul\":7665:7796   */\n      tag_196\n        /* \"#utility.yul\":7791:7795   */\n      dup2\n        /* \"#utility.yul\":7665:7796   */\n      tag_146\n      jump\t// in\n    tag_196:\n        /* \"#utility.yul\":7657:7796   */\n      swap1\n      pop\n        /* \"#utility.yul\":7384:7803   */\n      swap2\n      swap1\n      pop\n      jump\t// out\n        /* \"#utility.yul\":7809:8228   */\n    tag_49:\n        /* \"#utility.yul\":7975:7979   */\n      0x00\n        /* \"#utility.yul\":8013:8015   */\n      0x20\n        /* \"#utility.yul\":8002:8011   */\n      dup3\n        /* \"#utility.yul\":7998:8016   */\n      add\n        /* \"#utility.yul\":7990:8016   */\n      swap1\n      pop\n        /* \"#utility.yul\":8062:8071   */\n      dup2\n        /* \"#utility.yul\":8056:8060   */\n      dup2\n        /* \"#utility.yul\":8052:8072   */\n      sub\n        /* \"#utility.yul\":8048:8049   */\n      0x00\n        /* \"#utility.yul\":8037:8046   */\n      dup4\n        /* \"#utility.yul\":8033:8050   */\n      add\n        /* \"#utility.yul\":8026:8073   */\n      mstore\n        /* \"#utility.yul\":8090:8221   */\n      tag_198\n        /* \"#utility.yul\":8216:8220   */\n      dup2\n        /* \"#utility.yul\":8090:8221   */\n      tag_152\n      jump\t// in\n    tag_198:\n        /* \"#utility.yul\":8082:8221   */\n      swap1\n      pop\n        /* \"#utility.yul\":7809:8228   */\n      swap2\n      swap1\n      pop\n      jump\t// out\n        /* \"#utility.yul\":8234:8653   */\n    tag_66:\n        /* \"#utility.yul\":8400:8404   */\n      0x00\n        /* \"#utility.yul\":8438:8440   */\n      0x20\n        /* \"#utility.yul\":8427:8436   */\n      dup3\n        /* \"#utility.yul\":8423:8441   */\n      add\n        /* \"#utility.yul\":8415:8441   */\n      swap1\n      pop\n        /* \"#utility.yul\":8487:8496   */\n      dup2\n        /* \"#utility.yul\":8481:8485   */\n      dup2\n        /* \"#utility.yul\":8477:8497   */\n      sub\n        /* \"#utility.yul\":8473:8474   */\n      0x00\n        /* \"#utility.yul\":8462:8471   */\n      dup4\n        /* \"#utility.yul\":8458:8475   */\n      add\n        /* \"#utility.yul\":8451:8498   */\n      mstore\n        /* \"#utility.yul\":8515:8646   */\n      tag_200\n        /* \"#utility.yul\":8641:8645   */\n      dup2\n        /* \"#utility.yul\":8515:8646   */\n      tag_157\n      jump\t// in\n    tag_200:\n        /* \"#utility.yul\":8507:8646   */\n      swap1\n      pop\n        /* \"#utility.yul\":8234:8653   */\n      swap2\n      swap1\n      pop\n      jump\t// out\n        /* \"#utility.yul\":8659:9078   */\n    tag_87:\n        /* \"#utility.yul\":8825:8829   */\n      0x00\n        /* \"#utility.yul\":8863:8865   */\n      0x20\n        /* \"#utility.yul\":8852:8861   */\n      dup3\n        /* \"#utility.yul\":8848:8866   */\n      add\n        /* \"#utility.yul\":8840:8866   */\n      swap1\n      pop\n        /* \"#utility.yul\":8912:8921   */\n      dup2\n        /* \"#utility.yul\":8906:8910   */\n      dup2\n        /* \"#utility.yul\":8902:8922   */\n      sub\n        /* \"#utility.yul\":8898:8899   */\n      0x00\n        /* \"#utility.yul\":8887:8896   */\n      dup4\n        /* \"#utility.yul\":8883:8900   */\n      add\n        /* \"#utility.yul\":8876:8923   */\n      mstore\n        /* \"#utility.yul\":8940:9071   */\n      tag_202\n        /* \"#utility.yul\":9066:9070   */\n      dup2\n        /* \"#utility.yul\":8940:9071   */\n      tag_162\n      jump\t// in\n    tag_202:\n        /* \"#utility.yul\":8932:9071   */\n      swap1\n      pop\n        /* \"#utility.yul\":8659:9078   */\n      swap2\n      swap1\n      pop\n      jump\t// out\n        /* \"#utility.yul\":9084:9503   */\n    tag_58:\n        /* \"#utility.yul\":9250:9254   */\n      0x00\n        /* \"#utility.yul\":9288:9290   */\n      0x20\n        /* \"#utility.yul\":9277:9286   */\n      dup3\n        /* \"#utility.yul\":9273:9291   */\n      add\n        /* \"#utility.yul\":9265:9291   */\n      swap1\n      pop\n        /* \"#utility.yul\":9337:9346   */\n      dup2\n        /* \"#utility.yul\":9331:9335   */\n      dup2\n        /* \"#utility.yul\":9327:9347   */\n      sub\n        /* \"#utility.yul\":9323:9324   */\n      0x00\n        /* \"#utility.yul\":9312:9321   */\n      dup4\n        /* \"#utility.yul\":9308:9325   */\n      add\n        /* \"#utility.yul\":9301:9348   */\n      mstore\n        /* \"#utility.yul\":9365:9496   */\n      tag_204\n        /* \"#utility.yul\":9491:9495   */\n      dup2\n        /* \"#utility.yul\":9365:9496   */\n      tag_167\n      jump\t// in\n    tag_204:\n        /* \"#utility.yul\":9357:9496   */\n      swap1\n      pop\n        /* \"#utility.yul\":9084:9503   */\n      swap2\n      swap1\n      pop\n      jump\t// out\n        /* \"#utility.yul\":9509:9928   */\n    tag_40:\n        /* \"#utility.yul\":9675:9679   */\n      0x00\n        /* \"#utility.yul\":9713:9715   */\n      0x20\n        /* \"#utility.yul\":9702:9711   */\n      dup3\n        /* \"#utility.yul\":9698:9716   */\n      add\n        /* \"#utility.yul\":9690:9716   */\n      swap1\n      pop\n        /* \"#utility.yul\":9762:9771   */\n      dup2\n        /* \"#utility.yul\":9756:9760   */\n      dup2\n        /* \"#utility.yul\":9752:9772   */\n      sub\n        /* \"#utility.yul\":9748:9749   */\n      0x00\n        /* \"#utility.yul\":9737:9746   */\n      dup4\n        /* \"#utility.yul\":9733:9750   */\n      add\n        /* \"#utility.yul\":9726:9773   */\n      mstore\n        /* \"#utility.yul\":9790:9921   */\n      tag_206\n        /* \"#utility.yul\":9916:9920   */\n      dup2\n        /* \"#utility.yul\":9790:9921   */\n      tag_172\n      jump\t// in\n    tag_206:\n        /* \"#utility.yul\":9782:9921   */\n      swap1\n      pop\n        /* \"#utility.yul\":9509:9928   */\n      swap2\n      swap1\n      pop\n      jump\t// out\n        /* \"#utility.yul\":10015:10184   */\n    tag_149:\n        /* \"#utility.yul\":10099:10110   */\n      0x00\n        /* \"#utility.yul\":10133:10139   */\n      dup3\n        /* \"#utility.yul\":10128:10131   */\n      dup3\n        /* \"#utility.yul\":10121:10140   */\n      mstore\n        /* \"#utility.yul\":10173:10177   */\n      0x20\n        /* \"#utility.yul\":10168:10171   */\n      dup3\n        /* \"#utility.yul\":10164:10178   */\n      add\n        /* \"#utility.yul\":10149:10178   */\n      swap1\n      pop\n        /* \"#utility.yul\":10015:10184   */\n      swap3\n      swap2\n      pop\n      pop\n      jump\t// out\n        /* \"#utility.yul\":10190:10286   */\n    tag_141:\n        /* \"#utility.yul\":10227:10234   */\n      0x00\n        /* \"#utility.yul\":10256:10280   */\n      tag_211\n        /* \"#utility.yul\":10274:10279   */\n      dup3\n        /* \"#utility.yul\":10256:10280   */\n      tag_212\n      jump\t// in\n    tag_211:\n        /* \"#utility.yul\":10245:10280   */\n      swap1\n      pop\n        /* \"#utility.yul\":10190:10286   */\n      swap2\n      swap1\n      pop\n      jump\t// out\n        /* \"#utility.yul\":10292:10382   */\n    tag_213:\n        /* \"#utility.yul\":10326:10333   */\n      0x00\n        /* \"#utility.yul\":10369:10374   */\n      dup2\n        /* \"#utility.yul\":10362:10375   */\n      iszero\n        /* \"#utility.yul\":10355:10376   */\n      iszero\n        /* \"#utility.yul\":10344:10376   */\n      swap1\n      pop\n        /* \"#utility.yul\":10292:10382   */\n      swap2\n      swap1\n      pop\n      jump\t// out\n        /* \"#utility.yul\":10388:10514   */\n    tag_212:\n        /* \"#utility.yul\":10425:10432   */\n      0x00\n        /* \"#utility.yul\":10465:10507   */\n      0xffffffffffffffffffffffffffffffffffffffff\n        /* \"#utility.yul\":10458:10463   */\n      dup3\n        /* \"#utility.yul\":10454:10508   */\n      and\n        /* \"#utility.yul\":10443:10508   */\n      swap1\n      pop\n        /* \"#utility.yul\":10388:10514   */\n      swap2\n      swap1\n      pop\n      jump\t// out\n        /* \"#utility.yul\":10520:10597   */\n    tag_180:\n        /* \"#utility.yul\":10557:10564   */\n      0x00\n        /* \"#utility.yul\":10586:10591   */\n      dup2\n        /* \"#utility.yul\":10575:10591   */\n      swap1\n      pop\n        /* \"#utility.yul\":10520:10597   */\n      swap2\n      swap1\n      pop\n      jump\t// out\n        /* \"#utility.yul\":10603:10743   */\n    tag_145:\n        /* \"#utility.yul\":10667:10676   */\n      0x00\n        /* \"#utility.yul\":10700:10737   */\n      tag_218\n        /* \"#utility.yul\":10731:10736   */\n      dup3\n        /* \"#utility.yul\":10700:10737   */\n      tag_219\n      jump\t// in\n    tag_218:\n        /* \"#utility.yul\":10687:10737   */\n      swap1\n      pop\n        /* \"#utility.yul\":10603:10743   */\n      swap2\n      swap1\n      pop\n      jump\t// out\n        /* \"#utility.yul\":10749:10875   */\n    tag_219:\n        /* \"#utility.yul\":10799:10808   */\n      0x00\n        /* \"#utility.yul\":10832:10869   */\n      tag_221\n        /* \"#utility.yul\":10863:10868   */\n      dup3\n        /* \"#utility.yul\":10832:10869   */\n      tag_222\n      jump\t// in\n    tag_221:\n        /* \"#utility.yul\":10819:10869   */\n      swap1\n      pop\n        /* \"#utility.yul\":10749:10875   */\n      swap2\n      swap1\n      pop\n      jump\t// out\n        /* \"#utility.yul\":10881:10994   */\n    tag_222:\n        /* \"#utility.yul\":10931:10940   */\n      0x00\n        /* \"#utility.yul\":10964:10988   */\n      tag_224\n        /* \"#utility.yul\":10982:10987   */\n      dup3\n        /* \"#utility.yul\":10964:10988   */\n      tag_212\n      jump\t// in\n    tag_224:\n        /* \"#utility.yul\":10951:10988   */\n      swap1\n      pop\n        /* \"#utility.yul\":10881:10994   */\n      swap2\n      swap1\n      pop\n      jump\t// out\n        /* \"#utility.yul\":11123:11240   */\n    tag_116:\n        /* \"#utility.yul\":11232:11233   */\n      0x00\n        /* \"#utility.yul\":11229:11230   */\n      dup1\n        /* \"#utility.yul\":11222:11234   */\n      revert\n        /* \"#utility.yul\":11246:11418   */\n    tag_151:\n        /* \"#utility.yul\":11386:11410   */\n      0x546f6b656e20616c6c6f7720546f20746f6f206c6f7700000000000000000000\n        /* \"#utility.yul\":11382:11383   */\n      0x00\n        /* \"#utility.yul\":11374:11380   */\n      dup3\n        /* \"#utility.yul\":11370:11384   */\n      add\n        /* \"#utility.yul\":11363:11411   */\n      mstore\n        /* \"#utility.yul\":11246:11418   */\n      pop\n      jump\t// out\n        /* \"#utility.yul\":11424:11659   */\n    tag_156:\n        /* \"#utility.yul\":11564:11598   */\n      0x496e73756666696369656e742062616c616e636520746f6b656e546f20746f20\n        /* \"#utility.yul\":11560:11561   */\n      0x00\n        /* \"#utility.yul\":11552:11558   */\n      dup3\n        /* \"#utility.yul\":11548:11562   */\n      add\n        /* \"#utility.yul\":11541:11599   */\n      mstore\n        /* \"#utility.yul\":11633:11651   */\n      0x73656e64206261636b20636c69656e7400000000000000000000000000000000\n        /* \"#utility.yul\":11628:11630   */\n      0x20\n        /* \"#utility.yul\":11620:11626   */\n      dup3\n        /* \"#utility.yul\":11616:11631   */\n      add\n        /* \"#utility.yul\":11609:11652   */\n      mstore\n        /* \"#utility.yul\":11424:11659   */\n      pop\n      jump\t// out\n        /* \"#utility.yul\":11665:11839   */\n    tag_161:\n        /* \"#utility.yul\":11805:11831   */\n      0x546f6b656e20616c6c6f772046726f6d20746f6f206c6f770000000000000000\n        /* \"#utility.yul\":11801:11802   */\n      0x00\n        /* \"#utility.yul\":11793:11799   */\n      dup3\n        /* \"#utility.yul\":11789:11803   */\n      add\n        /* \"#utility.yul\":11782:11832   */\n      mstore\n        /* \"#utility.yul\":11665:11839   */\n      pop\n      jump\t// out\n        /* \"#utility.yul\":11845:12016   */\n    tag_166:\n        /* \"#utility.yul\":11985:12008   */\n      0x546f6b656e207472616e73666572206661696c65640000000000000000000000\n        /* \"#utility.yul\":11981:11982   */\n      0x00\n        /* \"#utility.yul\":11973:11979   */\n      dup3\n        /* \"#utility.yul\":11969:11983   */\n      add\n        /* \"#utility.yul\":11962:12009   */\n      mstore\n        /* \"#utility.yul\":11845:12016   */\n      pop\n      jump\t// out\n        /* \"#utility.yul\":12022:12194   */\n    tag_171:\n        /* \"#utility.yul\":12162:12186   */\n      0x416464726573732073776170206e6f742076616c696400000000000000000000\n        /* \"#utility.yul\":12158:12159   */\n      0x00\n        /* \"#utility.yul\":12150:12156   */\n      dup3\n        /* \"#utility.yul\":12146:12160   */\n      add\n        /* \"#utility.yul\":12139:12187   */\n      mstore\n        /* \"#utility.yul\":12022:12194   */\n      pop\n      jump\t// out\n        /* \"#utility.yul\":12200:12373   */\n    tag_176:\n        /* \"#utility.yul\":12340:12365   */\n      0x416c6c6f7720746f6b656e46726f6d20746f6f206c6f77000000000000000000\n        /* \"#utility.yul\":12336:12337   */\n      0x00\n        /* \"#utility.yul\":12328:12334   */\n      dup3\n        /* \"#utility.yul\":12324:12338   */\n      add\n        /* \"#utility.yul\":12317:12366   */\n      mstore\n        /* \"#utility.yul\":12200:12373   */\n      pop\n      jump\t// out\n        /* \"#utility.yul\":12379:12501   */\n    tag_101:\n        /* \"#utility.yul\":12452:12476   */\n      tag_235\n        /* \"#utility.yul\":12470:12475   */\n      dup2\n        /* \"#utility.yul\":12452:12476   */\n      tag_141\n      jump\t// in\n    tag_235:\n        /* \"#utility.yul\":12445:12450   */\n      dup2\n        /* \"#utility.yul\":12442:12477   */\n      eq\n        /* \"#utility.yul\":12432:12495   */\n      tag_236\n      jumpi\n        /* \"#utility.yul\":12491:12492   */\n      0x00\n        /* \"#utility.yul\":12488:12489   */\n      dup1\n        /* \"#utility.yul\":12481:12493   */\n      revert\n        /* \"#utility.yul\":12432:12495   */\n    tag_236:\n        /* \"#utility.yul\":12379:12501   */\n      pop\n      jump\t// out\n        /* \"#utility.yul\":12507:12623   */\n    tag_105:\n        /* \"#utility.yul\":12577:12598   */\n      tag_238\n        /* \"#utility.yul\":12592:12597   */\n      dup2\n        /* \"#utility.yul\":12577:12598   */\n      tag_213\n      jump\t// in\n    tag_238:\n        /* \"#utility.yul\":12570:12575   */\n      dup2\n        /* \"#utility.yul\":12567:12599   */\n      eq\n        /* \"#utility.yul\":12557:12617   */\n      tag_239\n      jumpi\n        /* \"#utility.yul\":12613:12614   */\n      0x00\n        /* \"#utility.yul\":12610:12611   */\n      dup1\n        /* \"#utility.yul\":12603:12615   */\n      revert\n        /* \"#utility.yul\":12557:12617   */\n    tag_239:\n        /* \"#utility.yul\":12507:12623   */\n      pop\n      jump\t// out\n        /* \"#utility.yul\":12629:12751   */\n    tag_109:\n        /* \"#utility.yul\":12702:12726   */\n      tag_241\n        /* \"#utility.yul\":12720:12725   */\n      dup2\n        /* \"#utility.yul\":12702:12726   */\n      tag_180\n      jump\t// in\n    tag_241:\n        /* \"#utility.yul\":12695:12700   */\n      dup2\n        /* \"#utility.yul\":12692:12727   */\n      eq\n        /* \"#utility.yul\":12682:12745   */\n      tag_242\n      jumpi\n        /* \"#utility.yul\":12741:12742   */\n      0x00\n        /* \"#utility.yul\":12738:12739   */\n      dup1\n        /* \"#utility.yul\":12731:12743   */\n      revert\n        /* \"#utility.yul\":12682:12745   */\n    tag_242:\n        /* \"#utility.yul\":12629:12751   */\n      pop\n      jump\t// out\n\n    auxdata: 0xa264697066735822122062e42b423ed3d973700a18352f0dc47a4995aab3afb3c8639cf47176d28e6bd464736f6c63430008070033\n}\n",
				"bytecode": {
					"linkReferences": {},
					"object": "608060405234801561001057600080fd5b50610f5d806100206000396000f3fe6080604052600436106100435760003560e01c806330ba89011461004c5780637c153534146100755780637ddf3320146100a0578063c17b7326146100c95761004a565b3661004a57005b005b34801561005857600080fd5b50610073600480360381019061006e91906109f3565b6100f4565b005b34801561008157600080fd5b5061008a6103b4565b6040516100979190610c57565b60405180910390f35b3480156100ac57600080fd5b506100c760048036038101906100c29190610966565b6103d8565b005b3480156100d557600080fd5b506100de61073b565b6040516100eb9190610c57565b60405180910390f35b6000339050846000806101000a81548173ffffffffffffffffffffffffffffffffffffffff021916908373ffffffffffffffffffffffffffffffffffffffff16021790555082600160006101000a81548173ffffffffffffffffffffffffffffffffffffffff021916908373ffffffffffffffffffffffffffffffffffffffff1602179055508360008054906101000a900473ffffffffffffffffffffffffffffffffffffffff1673ffffffffffffffffffffffffffffffffffffffff1663dd62ed3e83306040518363ffffffff1660e01b81526004016101d6929190610bce565b60206040518083038186803b1580156101ee57600080fd5b505afa158015610202573d6000803e3d6000fd5b505050506040513d601f19601f820116820180604052508101906102269190610a87565b1015610267576040517f08c379a000000000000000000000000000000000000000000000000000000000815260040161025e90610d12565b60405180910390fd5b81600160009054906101000a900473ffffffffffffffffffffffffffffffffffffffff1673ffffffffffffffffffffffffffffffffffffffff166370a08231306040518263ffffffff1660e01b81526004016102c39190610bb3565b60206040518083038186803b1580156102db57600080fd5b505afa1580156102ef573d6000803e3d6000fd5b505050506040513d601f19601f820116820180604052508101906103139190610a87565b1015610354576040517f08c379a000000000000000000000000000000000000000000000000000000000815260040161034b90610c92565b60405180910390fd5b61038060008054906101000a900473ffffffffffffffffffffffffffffffffffffffff16823087610761565b6103ad600160009054906101000a900473ffffffffffffffffffffffffffffffffffffffff16828461083b565b5050505050565b60008054906101000a900473ffffffffffffffffffffffffffffffffffffffff1681565b856000806101000a81548173ffffffffffffffffffffffffffffffffffffffff021916908373ffffffffffffffffffffffffffffffffffffffff16021790555082600160006101000a81548173ffffffffffffffffffffffffffffffffffffffff021916908373ffffffffffffffffffffffffffffffffffffffff1602179055508473ffffffffffffffffffffffffffffffffffffffff163373ffffffffffffffffffffffffffffffffffffffff1614806104be57508173ffffffffffffffffffffffffffffffffffffffff163373ffffffffffffffffffffffffffffffffffffffff16145b6104fd576040517f08c379a00000000000000000000000000000000000000000000000000000000081526004016104f490610cf2565b60405180910390fd5b8360008054906101000a900473ffffffffffffffffffffffffffffffffffffffff1673ffffffffffffffffffffffffffffffffffffffff1663dd62ed3e87306040518363ffffffff1660e01b8152600401610559929190610bce565b60206040518083038186803b15801561057157600080fd5b505afa158015610585573d6000803e3d6000fd5b505050506040513d601f19601f820116820180604052508101906105a99190610a87565b10156105ea576040517f08c379a00000000000000000000000000000000000000000000000000000000081526004016105e190610cb2565b60405180910390fd5b80600160009054906101000a900473ffffffffffffffffffffffffffffffffffffffff1673ffffffffffffffffffffffffffffffffffffffff1663dd62ed3e84306040518363ffffffff1660e01b8152600401610648929190610bce565b60206040518083038186803b15801561066057600080fd5b505afa158015610674573d6000803e3d6000fd5b505050506040513d601f19601f820116820180604052508101906106989190610a87565b10156106d9576040517f08c379a00000000000000000000000000000000000000000000000000000000081526004016106d090610c72565b60405180910390fd5b61070560008054906101000a900473ffffffffffffffffffffffffffffffffffffffff16868487610761565b610733600160009054906101000a900473ffffffffffffffffffffffffffffffffffffffff16838784610761565b505050505050565b600160009054906101000a900473ffffffffffffffffffffffffffffffffffffffff1681565b60008473ffffffffffffffffffffffffffffffffffffffff166323b872dd8585856040518463ffffffff1660e01b81526004016107a093929190610bf7565b602060405180830381600087803b1580156107ba57600080fd5b505af11580156107ce573d6000803e3d6000fd5b505050506040513d601f19601f820116820180604052508101906107f29190610a5a565b905080610834576040517f08c379a000000000000000000000000000000000000000000000000000000000815260040161082b90610cd2565b60405180910390fd5b5050505050565b60008373ffffffffffffffffffffffffffffffffffffffff1663a9059cbb84846040518363ffffffff1660e01b8152600401610878929190610c2e565b602060405180830381600087803b15801561089257600080fd5b505af11580156108a6573d6000803e3d6000fd5b505050506040513d601f19601f820116820180604052508101906108ca9190610a5a565b90508061090c576040517f08c379a000000000000000000000000000000000000000000000000000000000815260040161090390610cd2565b60405180910390fd5b50505050565b60008135905061092181610ee2565b92915050565b60008151905061093681610ef9565b92915050565b60008135905061094b81610f10565b92915050565b60008151905061096081610f10565b92915050565b60008060008060008060c0878903121561098357610982610dc1565b5b600061099189828a01610912565b96505060206109a289828a01610912565b95505060406109b389828a0161093c565b94505060606109c489828a01610912565b93505060806109d589828a01610912565b92505060a06109e689828a0161093c565b9150509295509295509295565b60008060008060808587031215610a0d57610a0c610dc1565b5b6000610a1b87828801610912565b9450506020610a2c8782880161093c565b9350506040610a3d87828801610912565b9250506060610a4e8782880161093c565b91505092959194509250565b600060208284031215610a7057610a6f610dc1565b5b6000610a7e84828501610927565b91505092915050565b600060208284031215610a9d57610a9c610dc1565b5b6000610aab84828501610951565b91505092915050565b610abd81610d43565b82525050565b610acc81610d8b565b82525050565b6000610adf601683610d32565b9150610aea82610dc6565b602082019050919050565b6000610b02603083610d32565b9150610b0d82610def565b604082019050919050565b6000610b25601883610d32565b9150610b3082610e3e565b602082019050919050565b6000610b48601583610d32565b9150610b5382610e67565b602082019050919050565b6000610b6b601683610d32565b9150610b7682610e90565b602082019050919050565b6000610b8e601783610d32565b9150610b9982610eb9565b602082019050919050565b610bad81610d81565b82525050565b6000602082019050610bc86000830184610ab4565b92915050565b6000604082019050610be36000830185610ab4565b610bf06020830184610ab4565b9392505050565b6000606082019050610c0c6000830186610ab4565b610c196020830185610ab4565b610c266040830184610ba4565b949350505050565b6000604082019050610c436000830185610ab4565b610c506020830184610ba4565b9392505050565b6000602082019050610c6c6000830184610ac3565b92915050565b60006020820190508181036000830152610c8b81610ad2565b9050919050565b60006020820190508181036000830152610cab81610af5565b9050919050565b60006020820190508181036000830152610ccb81610b18565b9050919050565b60006020820190508181036000830152610ceb81610b3b565b9050919050565b60006020820190508181036000830152610d0b81610b5e565b9050919050565b60006020820190508181036000830152610d2b81610b81565b9050919050565b600082825260208201905092915050565b6000610d4e82610d61565b9050919050565b60008115159050919050565b600073ffffffffffffffffffffffffffffffffffffffff82169050919050565b6000819050919050565b6000610d9682610d9d565b9050919050565b6000610da882610daf565b9050919050565b6000610dba82610d61565b9050919050565b600080fd5b7f546f6b656e20616c6c6f7720546f20746f6f206c6f7700000000000000000000600082015250565b7f496e73756666696369656e742062616c616e636520746f6b656e546f20746f2060008201527f73656e64206261636b20636c69656e7400000000000000000000000000000000602082015250565b7f546f6b656e20616c6c6f772046726f6d20746f6f206c6f770000000000000000600082015250565b7f546f6b656e207472616e73666572206661696c65640000000000000000000000600082015250565b7f416464726573732073776170206e6f742076616c696400000000000000000000600082015250565b7f416c6c6f7720746f6b656e46726f6d20746f6f206c6f77000000000000000000600082015250565b610eeb81610d43565b8114610ef657600080fd5b50565b610f0281610d55565b8114610f0d57600080fd5b50565b610f1981610d81565b8114610f2457600080fd5b5056fea264697066735822122062e42b423ed3d973700a18352f0dc47a4995aab3afb3c8639cf47176d28e6bd464736f6c63430008070033",
					"opcodes": "PUSH1 0x80 PUSH1 0x40 MSTORE CALLVALUE DUP1 ISZERO PUSH2 0x10 JUMPI PUSH1 0x0 DUP1 REVERT JUMPDEST POP PUSH2 0xF5D DUP1 PUSH2 0x20 PUSH1 0x0 CODECOPY PUSH1 0x0 RETURN INVALID PUSH1 0x80 PUSH1 0x40 MSTORE PUSH1 0x4 CALLDATASIZE LT PUSH2 0x43 JUMPI PUSH1 0x0 CALLDATALOAD PUSH1 0xE0 SHR DUP1 PUSH4 0x30BA8901 EQ PUSH2 0x4C JUMPI DUP1 PUSH4 0x7C153534 EQ PUSH2 0x75 JUMPI DUP1 PUSH4 0x7DDF3320 EQ PUSH2 0xA0 JUMPI DUP1 PUSH4 0xC17B7326 EQ PUSH2 0xC9 JUMPI PUSH2 0x4A JUMP JUMPDEST CALLDATASIZE PUSH2 0x4A JUMPI STOP JUMPDEST STOP JUMPDEST CALLVALUE DUP1 ISZERO PUSH2 0x58 JUMPI PUSH1 0x0 DUP1 REVERT JUMPDEST POP PUSH2 0x73 PUSH1 0x4 DUP1 CALLDATASIZE SUB DUP2 ADD SWAP1 PUSH2 0x6E SWAP2 SWAP1 PUSH2 0x9F3 JUMP JUMPDEST PUSH2 0xF4 JUMP JUMPDEST STOP JUMPDEST CALLVALUE DUP1 ISZERO PUSH2 0x81 JUMPI PUSH1 0x0 DUP1 REVERT JUMPDEST POP PUSH2 0x8A PUSH2 0x3B4 JUMP JUMPDEST PUSH1 0x40 MLOAD PUSH2 0x97 SWAP2 SWAP1 PUSH2 0xC57 JUMP JUMPDEST PUSH1 0x40 MLOAD DUP1 SWAP2 SUB SWAP1 RETURN JUMPDEST CALLVALUE DUP1 ISZERO PUSH2 0xAC JUMPI PUSH1 0x0 DUP1 REVERT JUMPDEST POP PUSH2 0xC7 PUSH1 0x4 DUP1 CALLDATASIZE SUB DUP2 ADD SWAP1 PUSH2 0xC2 SWAP2 SWAP1 PUSH2 0x966 JUMP JUMPDEST PUSH2 0x3D8 JUMP JUMPDEST STOP JUMPDEST CALLVALUE DUP1 ISZERO PUSH2 0xD5 JUMPI PUSH1 0x0 DUP1 REVERT JUMPDEST POP PUSH2 0xDE PUSH2 0x73B JUMP JUMPDEST PUSH1 0x40 MLOAD PUSH2 0xEB SWAP2 SWAP1 PUSH2 0xC57 JUMP JUMPDEST PUSH1 0x40 MLOAD DUP1 SWAP2 SUB SWAP1 RETURN JUMPDEST PUSH1 0x0 CALLER SWAP1 POP DUP5 PUSH1 0x0 DUP1 PUSH2 0x100 EXP DUP2 SLOAD DUP2 PUSH20 0xFFFFFFFFFFFFFFFFFFFFFFFFFFFFFFFFFFFFFFFF MUL NOT AND SWAP1 DUP4 PUSH20 0xFFFFFFFFFFFFFFFFFFFFFFFFFFFFFFFFFFFFFFFF AND MUL OR SWAP1 SSTORE POP DUP3 PUSH1 0x1 PUSH1 0x0 PUSH2 0x100 EXP DUP2 SLOAD DUP2 PUSH20 0xFFFFFFFFFFFFFFFFFFFFFFFFFFFFFFFFFFFFFFFF MUL NOT AND SWAP1 DUP4 PUSH20 0xFFFFFFFFFFFFFFFFFFFFFFFFFFFFFFFFFFFFFFFF AND MUL OR SWAP1 SSTORE POP DUP4 PUSH1 0x0 DUP1 SLOAD SWAP1 PUSH2 0x100 EXP SWAP1 DIV PUSH20 0xFFFFFFFFFFFFFFFFFFFFFFFFFFFFFFFFFFFFFFFF AND PUSH20 0xFFFFFFFFFFFFFFFFFFFFFFFFFFFFFFFFFFFFFFFF AND PUSH4 0xDD62ED3E DUP4 ADDRESS PUSH1 0x40 MLOAD DUP4 PUSH4 0xFFFFFFFF AND PUSH1 0xE0 SHL DUP2 MSTORE PUSH1 0x4 ADD PUSH2 0x1D6 SWAP3 SWAP2 SWAP1 PUSH2 0xBCE JUMP JUMPDEST PUSH1 0x20 PUSH1 0x40 MLOAD DUP1 DUP4 SUB DUP2 DUP7 DUP1 EXTCODESIZE ISZERO DUP1 ISZERO PUSH2 0x1EE JUMPI PUSH1 0x0 DUP1 REVERT JUMPDEST POP GAS STATICCALL ISZERO DUP1 ISZERO PUSH2 0x202 JUMPI RETURNDATASIZE PUSH1 0x0 DUP1 RETURNDATACOPY RETURNDATASIZE PUSH1 0x0 REVERT JUMPDEST POP POP POP POP PUSH1 0x40 MLOAD RETURNDATASIZE PUSH1 0x1F NOT PUSH1 0x1F DUP3 ADD AND DUP3 ADD DUP1 PUSH1 0x40 MSTORE POP DUP2 ADD SWAP1 PUSH2 0x226 SWAP2 SWAP1 PUSH2 0xA87 JUMP JUMPDEST LT ISZERO PUSH2 0x267 JUMPI PUSH1 0x40 MLOAD PUSH32 0x8C379A000000000000000000000000000000000000000000000000000000000 DUP2 MSTORE PUSH1 0x4 ADD PUSH2 0x25E SWAP1 PUSH2 0xD12 JUMP JUMPDEST PUSH1 0x40 MLOAD DUP1 SWAP2 SUB SWAP1 REVERT JUMPDEST DUP2 PUSH1 0x1 PUSH1 0x0 SWAP1 SLOAD SWAP1 PUSH2 0x100 EXP SWAP1 DIV PUSH20 0xFFFFFFFFFFFFFFFFFFFFFFFFFFFFFFFFFFFFFFFF AND PUSH20 0xFFFFFFFFFFFFFFFFFFFFFFFFFFFFFFFFFFFFFFFF AND PUSH4 0x70A08231 ADDRESS PUSH1 0x40 MLOAD DUP3 PUSH4 0xFFFFFFFF AND PUSH1 0xE0 SHL DUP2 MSTORE PUSH1 0x4 ADD PUSH2 0x2C3 SWAP2 SWAP1 PUSH2 0xBB3 JUMP JUMPDEST PUSH1 0x20 PUSH1 0x40 MLOAD DUP1 DUP4 SUB DUP2 DUP7 DUP1 EXTCODESIZE ISZERO DUP1 ISZERO PUSH2 0x2DB JUMPI PUSH1 0x0 DUP1 REVERT JUMPDEST POP GAS STATICCALL ISZERO DUP1 ISZERO PUSH2 0x2EF JUMPI RETURNDATASIZE PUSH1 0x0 DUP1 RETURNDATACOPY RETURNDATASIZE PUSH1 0x0 REVERT JUMPDEST POP POP POP POP PUSH1 0x40 MLOAD RETURNDATASIZE PUSH1 0x1F NOT PUSH1 0x1F DUP3 ADD AND DUP3 ADD DUP1 PUSH1 0x40 MSTORE POP DUP2 ADD SWAP1 PUSH2 0x313 SWAP2 SWAP1 PUSH2 0xA87 JUMP JUMPDEST LT ISZERO PUSH2 0x354 JUMPI PUSH1 0x40 MLOAD PUSH32 0x8C379A000000000000000000000000000000000000000000000000000000000 DUP2 MSTORE PUSH1 0x4 ADD PUSH2 0x34B SWAP1 PUSH2 0xC92 JUMP JUMPDEST PUSH1 0x40 MLOAD DUP1 SWAP2 SUB SWAP1 REVERT JUMPDEST PUSH2 0x380 PUSH1 0x0 DUP1 SLOAD SWAP1 PUSH2 0x100 EXP SWAP1 DIV PUSH20 0xFFFFFFFFFFFFFFFFFFFFFFFFFFFFFFFFFFFFFFFF AND DUP3 ADDRESS DUP8 PUSH2 0x761 JUMP JUMPDEST PUSH2 0x3AD PUSH1 0x1 PUSH1 0x0 SWAP1 SLOAD SWAP1 PUSH2 0x100 EXP SWAP1 DIV PUSH20 0xFFFFFFFFFFFFFFFFFFFFFFFFFFFFFFFFFFFFFFFF AND DUP3 DUP5 PUSH2 0x83B JUMP JUMPDEST POP POP POP POP POP JUMP JUMPDEST PUSH1 0x0 DUP1 SLOAD SWAP1 PUSH2 0x100 EXP SWAP1 DIV PUSH20 0xFFFFFFFFFFFFFFFFFFFFFFFFFFFFFFFFFFFFFFFF AND DUP2 JUMP JUMPDEST DUP6 PUSH1 0x0 DUP1 PUSH2 0x100 EXP DUP2 SLOAD DUP2 PUSH20 0xFFFFFFFFFFFFFFFFFFFFFFFFFFFFFFFFFFFFFFFF MUL NOT AND SWAP1 DUP4 PUSH20 0xFFFFFFFFFFFFFFFFFFFFFFFFFFFFFFFFFFFFFFFF AND MUL OR SWAP1 SSTORE POP DUP3 PUSH1 0x1 PUSH1 0x0 PUSH2 0x100 EXP DUP2 SLOAD DUP2 PUSH20 0xFFFFFFFFFFFFFFFFFFFFFFFFFFFFFFFFFFFFFFFF MUL NOT AND SWAP1 DUP4 PUSH20 0xFFFFFFFFFFFFFFFFFFFFFFFFFFFFFFFFFFFFFFFF AND MUL OR SWAP1 SSTORE POP DUP5 PUSH20 0xFFFFFFFFFFFFFFFFFFFFFFFFFFFFFFFFFFFFFFFF AND CALLER PUSH20 0xFFFFFFFFFFFFFFFFFFFFFFFFFFFFFFFFFFFFFFFF AND EQ DUP1 PUSH2 0x4BE JUMPI POP DUP2 PUSH20 0xFFFFFFFFFFFFFFFFFFFFFFFFFFFFFFFFFFFFFFFF AND CALLER PUSH20 0xFFFFFFFFFFFFFFFFFFFFFFFFFFFFFFFFFFFFFFFF AND EQ JUMPDEST PUSH2 0x4FD JUMPI PUSH1 0x40 MLOAD PUSH32 0x8C379A000000000000000000000000000000000000000000000000000000000 DUP2 MSTORE PUSH1 0x4 ADD PUSH2 0x4F4 SWAP1 PUSH2 0xCF2 JUMP JUMPDEST PUSH1 0x40 MLOAD DUP1 SWAP2 SUB SWAP1 REVERT JUMPDEST DUP4 PUSH1 0x0 DUP1 SLOAD SWAP1 PUSH2 0x100 EXP SWAP1 DIV PUSH20 0xFFFFFFFFFFFFFFFFFFFFFFFFFFFFFFFFFFFFFFFF AND PUSH20 0xFFFFFFFFFFFFFFFFFFFFFFFFFFFFFFFFFFFFFFFF AND PUSH4 0xDD62ED3E DUP8 ADDRESS PUSH1 0x40 MLOAD DUP4 PUSH4 0xFFFFFFFF AND PUSH1 0xE0 SHL DUP2 MSTORE PUSH1 0x4 ADD PUSH2 0x559 SWAP3 SWAP2 SWAP1 PUSH2 0xBCE JUMP JUMPDEST PUSH1 0x20 PUSH1 0x40 MLOAD DUP1 DUP4 SUB DUP2 DUP7 DUP1 EXTCODESIZE ISZERO DUP1 ISZERO PUSH2 0x571 JUMPI PUSH1 0x0 DUP1 REVERT JUMPDEST POP GAS STATICCALL ISZERO DUP1 ISZERO PUSH2 0x585 JUMPI RETURNDATASIZE PUSH1 0x0 DUP1 RETURNDATACOPY RETURNDATASIZE PUSH1 0x0 REVERT JUMPDEST POP POP POP POP PUSH1 0x40 MLOAD RETURNDATASIZE PUSH1 0x1F NOT PUSH1 0x1F DUP3 ADD AND DUP3 ADD DUP1 PUSH1 0x40 MSTORE POP DUP2 ADD SWAP1 PUSH2 0x5A9 SWAP2 SWAP1 PUSH2 0xA87 JUMP JUMPDEST LT ISZERO PUSH2 0x5EA JUMPI PUSH1 0x40 MLOAD PUSH32 0x8C379A000000000000000000000000000000000000000000000000000000000 DUP2 MSTORE PUSH1 0x4 ADD PUSH2 0x5E1 SWAP1 PUSH2 0xCB2 JUMP JUMPDEST PUSH1 0x40 MLOAD DUP1 SWAP2 SUB SWAP1 REVERT JUMPDEST DUP1 PUSH1 0x1 PUSH1 0x0 SWAP1 SLOAD SWAP1 PUSH2 0x100 EXP SWAP1 DIV PUSH20 0xFFFFFFFFFFFFFFFFFFFFFFFFFFFFFFFFFFFFFFFF AND PUSH20 0xFFFFFFFFFFFFFFFFFFFFFFFFFFFFFFFFFFFFFFFF AND PUSH4 0xDD62ED3E DUP5 ADDRESS PUSH1 0x40 MLOAD DUP4 PUSH4 0xFFFFFFFF AND PUSH1 0xE0 SHL DUP2 MSTORE PUSH1 0x4 ADD PUSH2 0x648 SWAP3 SWAP2 SWAP1 PUSH2 0xBCE JUMP JUMPDEST PUSH1 0x20 PUSH1 0x40 MLOAD DUP1 DUP4 SUB DUP2 DUP7 DUP1 EXTCODESIZE ISZERO DUP1 ISZERO PUSH2 0x660 JUMPI PUSH1 0x0 DUP1 REVERT JUMPDEST POP GAS STATICCALL ISZERO DUP1 ISZERO PUSH2 0x674 JUMPI RETURNDATASIZE PUSH1 0x0 DUP1 RETURNDATACOPY RETURNDATASIZE PUSH1 0x0 REVERT JUMPDEST POP POP POP POP PUSH1 0x40 MLOAD RETURNDATASIZE PUSH1 0x1F NOT PUSH1 0x1F DUP3 ADD AND DUP3 ADD DUP1 PUSH1 0x40 MSTORE POP DUP2 ADD SWAP1 PUSH2 0x698 SWAP2 SWAP1 PUSH2 0xA87 JUMP JUMPDEST LT ISZERO PUSH2 0x6D9 JUMPI PUSH1 0x40 MLOAD PUSH32 0x8C379A000000000000000000000000000000000000000000000000000000000 DUP2 MSTORE PUSH1 0x4 ADD PUSH2 0x6D0 SWAP1 PUSH2 0xC72 JUMP JUMPDEST PUSH1 0x40 MLOAD DUP1 SWAP2 SUB SWAP1 REVERT JUMPDEST PUSH2 0x705 PUSH1 0x0 DUP1 SLOAD SWAP1 PUSH2 0x100 EXP SWAP1 DIV PUSH20 0xFFFFFFFFFFFFFFFFFFFFFFFFFFFFFFFFFFFFFFFF AND DUP7 DUP5 DUP8 PUSH2 0x761 JUMP JUMPDEST PUSH2 0x733 PUSH1 0x1 PUSH1 0x0 SWAP1 SLOAD SWAP1 PUSH2 0x100 EXP SWAP1 DIV PUSH20 0xFFFFFFFFFFFFFFFFFFFFFFFFFFFFFFFFFFFFFFFF AND DUP4 DUP8 DUP5 PUSH2 0x761 JUMP JUMPDEST POP POP POP POP POP POP JUMP JUMPDEST PUSH1 0x1 PUSH1 0x0 SWAP1 SLOAD SWAP1 PUSH2 0x100 EXP SWAP1 DIV PUSH20 0xFFFFFFFFFFFFFFFFFFFFFFFFFFFFFFFFFFFFFFFF AND DUP2 JUMP JUMPDEST PUSH1 0x0 DUP5 PUSH20 0xFFFFFFFFFFFFFFFFFFFFFFFFFFFFFFFFFFFFFFFF AND PUSH4 0x23B872DD DUP6 DUP6 DUP6 PUSH1 0x40 MLOAD DUP5 PUSH4 0xFFFFFFFF AND PUSH1 0xE0 SHL DUP2 MSTORE PUSH1 0x4 ADD PUSH2 0x7A0 SWAP4 SWAP3 SWAP2 SWAP1 PUSH2 0xBF7 JUMP JUMPDEST PUSH1 0x20 PUSH1 0x40 MLOAD DUP1 DUP4 SUB DUP2 PUSH1 0x0 DUP8 DUP1 EXTCODESIZE ISZERO DUP1 ISZERO PUSH2 0x7BA JUMPI PUSH1 0x0 DUP1 REVERT JUMPDEST POP GAS CALL ISZERO DUP1 ISZERO PUSH2 0x7CE JUMPI RETURNDATASIZE PUSH1 0x0 DUP1 RETURNDATACOPY RETURNDATASIZE PUSH1 0x0 REVERT JUMPDEST POP POP POP POP PUSH1 0x40 MLOAD RETURNDATASIZE PUSH1 0x1F NOT PUSH1 0x1F DUP3 ADD AND DUP3 ADD DUP1 PUSH1 0x40 MSTORE POP DUP2 ADD SWAP1 PUSH2 0x7F2 SWAP2 SWAP1 PUSH2 0xA5A JUMP JUMPDEST SWAP1 POP DUP1 PUSH2 0x834 JUMPI PUSH1 0x40 MLOAD PUSH32 0x8C379A000000000000000000000000000000000000000000000000000000000 DUP2 MSTORE PUSH1 0x4 ADD PUSH2 0x82B SWAP1 PUSH2 0xCD2 JUMP JUMPDEST PUSH1 0x40 MLOAD DUP1 SWAP2 SUB SWAP1 REVERT JUMPDEST POP POP POP POP POP JUMP JUMPDEST PUSH1 0x0 DUP4 PUSH20 0xFFFFFFFFFFFFFFFFFFFFFFFFFFFFFFFFFFFFFFFF AND PUSH4 0xA9059CBB DUP5 DUP5 PUSH1 0x40 MLOAD DUP4 PUSH4 0xFFFFFFFF AND PUSH1 0xE0 SHL DUP2 MSTORE PUSH1 0x4 ADD PUSH2 0x878 SWAP3 SWAP2 SWAP1 PUSH2 0xC2E JUMP JUMPDEST PUSH1 0x20 PUSH1 0x40 MLOAD DUP1 DUP4 SUB DUP2 PUSH1 0x0 DUP8 DUP1 EXTCODESIZE ISZERO DUP1 ISZERO PUSH2 0x892 JUMPI PUSH1 0x0 DUP1 REVERT JUMPDEST POP GAS CALL ISZERO DUP1 ISZERO PUSH2 0x8A6 JUMPI RETURNDATASIZE PUSH1 0x0 DUP1 RETURNDATACOPY RETURNDATASIZE PUSH1 0x0 REVERT JUMPDEST POP POP POP POP PUSH1 0x40 MLOAD RETURNDATASIZE PUSH1 0x1F NOT PUSH1 0x1F DUP3 ADD AND DUP3 ADD DUP1 PUSH1 0x40 MSTORE POP DUP2 ADD SWAP1 PUSH2 0x8CA SWAP2 SWAP1 PUSH2 0xA5A JUMP JUMPDEST SWAP1 POP DUP1 PUSH2 0x90C JUMPI PUSH1 0x40 MLOAD PUSH32 0x8C379A000000000000000000000000000000000000000000000000000000000 DUP2 MSTORE PUSH1 0x4 ADD PUSH2 0x903 SWAP1 PUSH2 0xCD2 JUMP JUMPDEST PUSH1 0x40 MLOAD DUP1 SWAP2 SUB SWAP1 REVERT JUMPDEST POP POP POP POP JUMP JUMPDEST PUSH1 0x0 DUP2 CALLDATALOAD SWAP1 POP PUSH2 0x921 DUP2 PUSH2 0xEE2 JUMP JUMPDEST SWAP3 SWAP2 POP POP JUMP JUMPDEST PUSH1 0x0 DUP2 MLOAD SWAP1 POP PUSH2 0x936 DUP2 PUSH2 0xEF9 JUMP JUMPDEST SWAP3 SWAP2 POP POP JUMP JUMPDEST PUSH1 0x0 DUP2 CALLDATALOAD SWAP1 POP PUSH2 0x94B DUP2 PUSH2 0xF10 JUMP JUMPDEST SWAP3 SWAP2 POP POP JUMP JUMPDEST PUSH1 0x0 DUP2 MLOAD SWAP1 POP PUSH2 0x960 DUP2 PUSH2 0xF10 JUMP JUMPDEST SWAP3 SWAP2 POP POP JUMP JUMPDEST PUSH1 0x0 DUP1 PUSH1 0x0 DUP1 PUSH1 0x0 DUP1 PUSH1 0xC0 DUP8 DUP10 SUB SLT ISZERO PUSH2 0x983 JUMPI PUSH2 0x982 PUSH2 0xDC1 JUMP JUMPDEST JUMPDEST PUSH1 0x0 PUSH2 0x991 DUP10 DUP3 DUP11 ADD PUSH2 0x912 JUMP JUMPDEST SWAP7 POP POP PUSH1 0x20 PUSH2 0x9A2 DUP10 DUP3 DUP11 ADD PUSH2 0x912 JUMP JUMPDEST SWAP6 POP POP PUSH1 0x40 PUSH2 0x9B3 DUP10 DUP3 DUP11 ADD PUSH2 0x93C JUMP JUMPDEST SWAP5 POP POP PUSH1 0x60 PUSH2 0x9C4 DUP10 DUP3 DUP11 ADD PUSH2 0x912 JUMP JUMPDEST SWAP4 POP POP PUSH1 0x80 PUSH2 0x9D5 DUP10 DUP3 DUP11 ADD PUSH2 0x912 JUMP JUMPDEST SWAP3 POP POP PUSH1 0xA0 PUSH2 0x9E6 DUP10 DUP3 DUP11 ADD PUSH2 0x93C JUMP JUMPDEST SWAP2 POP POP SWAP3 SWAP6 POP SWAP3 SWAP6 POP SWAP3 SWAP6 JUMP JUMPDEST PUSH1 0x0 DUP1 PUSH1 0x0 DUP1 PUSH1 0x80 DUP6 DUP8 SUB SLT ISZERO PUSH2 0xA0D JUMPI PUSH2 0xA0C PUSH2 0xDC1 JUMP JUMPDEST JUMPDEST PUSH1 0x0 PUSH2 0xA1B DUP8 DUP3 DUP9 ADD PUSH2 0x912 JUMP JUMPDEST SWAP5 POP POP PUSH1 0x20 PUSH2 0xA2C DUP8 DUP3 DUP9 ADD PUSH2 0x93C JUMP JUMPDEST SWAP4 POP POP PUSH1 0x40 PUSH2 0xA3D DUP8 DUP3 DUP9 ADD PUSH2 0x912 JUMP JUMPDEST SWAP3 POP POP PUSH1 0x60 PUSH2 0xA4E DUP8 DUP3 DUP9 ADD PUSH2 0x93C JUMP JUMPDEST SWAP2 POP POP SWAP3 SWAP6 SWAP2 SWAP5 POP SWAP3 POP JUMP JUMPDEST PUSH1 0x0 PUSH1 0x20 DUP3 DUP5 SUB SLT ISZERO PUSH2 0xA70 JUMPI PUSH2 0xA6F PUSH2 0xDC1 JUMP JUMPDEST JUMPDEST PUSH1 0x0 PUSH2 0xA7E DUP5 DUP3 DUP6 ADD PUSH2 0x927 JUMP JUMPDEST SWAP2 POP POP SWAP3 SWAP2 POP POP JUMP JUMPDEST PUSH1 0x0 PUSH1 0x20 DUP3 DUP5 SUB SLT ISZERO PUSH2 0xA9D JUMPI PUSH2 0xA9C PUSH2 0xDC1 JUMP JUMPDEST JUMPDEST PUSH1 0x0 PUSH2 0xAAB DUP5 DUP3 DUP6 ADD PUSH2 0x951 JUMP JUMPDEST SWAP2 POP POP SWAP3 SWAP2 POP POP JUMP JUMPDEST PUSH2 0xABD DUP2 PUSH2 0xD43 JUMP JUMPDEST DUP3 MSTORE POP POP JUMP JUMPDEST PUSH2 0xACC DUP2 PUSH2 0xD8B JUMP JUMPDEST DUP3 MSTORE POP POP JUMP JUMPDEST PUSH1 0x0 PUSH2 0xADF PUSH1 0x16 DUP4 PUSH2 0xD32 JUMP JUMPDEST SWAP2 POP PUSH2 0xAEA DUP3 PUSH2 0xDC6 JUMP JUMPDEST PUSH1 0x20 DUP3 ADD SWAP1 POP SWAP2 SWAP1 POP JUMP JUMPDEST PUSH1 0x0 PUSH2 0xB02 PUSH1 0x30 DUP4 PUSH2 0xD32 JUMP JUMPDEST SWAP2 POP PUSH2 0xB0D DUP3 PUSH2 0xDEF JUMP JUMPDEST PUSH1 0x40 DUP3 ADD SWAP1 POP SWAP2 SWAP1 POP JUMP JUMPDEST PUSH1 0x0 PUSH2 0xB25 PUSH1 0x18 DUP4 PUSH2 0xD32 JUMP JUMPDEST SWAP2 POP PUSH2 0xB30 DUP3 PUSH2 0xE3E JUMP JUMPDEST PUSH1 0x20 DUP3 ADD SWAP1 POP SWAP2 SWAP1 POP JUMP JUMPDEST PUSH1 0x0 PUSH2 0xB48 PUSH1 0x15 DUP4 PUSH2 0xD32 JUMP JUMPDEST SWAP2 POP PUSH2 0xB53 DUP3 PUSH2 0xE67 JUMP JUMPDEST PUSH1 0x20 DUP3 ADD SWAP1 POP SWAP2 SWAP1 POP JUMP JUMPDEST PUSH1 0x0 PUSH2 0xB6B PUSH1 0x16 DUP4 PUSH2 0xD32 JUMP JUMPDEST SWAP2 POP PUSH2 0xB76 DUP3 PUSH2 0xE90 JUMP JUMPDEST PUSH1 0x20 DUP3 ADD SWAP1 POP SWAP2 SWAP1 POP JUMP JUMPDEST PUSH1 0x0 PUSH2 0xB8E PUSH1 0x17 DUP4 PUSH2 0xD32 JUMP JUMPDEST SWAP2 POP PUSH2 0xB99 DUP3 PUSH2 0xEB9 JUMP JUMPDEST PUSH1 0x20 DUP3 ADD SWAP1 POP SWAP2 SWAP1 POP JUMP JUMPDEST PUSH2 0xBAD DUP2 PUSH2 0xD81 JUMP JUMPDEST DUP3 MSTORE POP POP JUMP JUMPDEST PUSH1 0x0 PUSH1 0x20 DUP3 ADD SWAP1 POP PUSH2 0xBC8 PUSH1 0x0 DUP4 ADD DUP5 PUSH2 0xAB4 JUMP JUMPDEST SWAP3 SWAP2 POP POP JUMP JUMPDEST PUSH1 0x0 PUSH1 0x40 DUP3 ADD SWAP1 POP PUSH2 0xBE3 PUSH1 0x0 DUP4 ADD DUP6 PUSH2 0xAB4 JUMP JUMPDEST PUSH2 0xBF0 PUSH1 0x20 DUP4 ADD DUP5 PUSH2 0xAB4 JUMP JUMPDEST SWAP4 SWAP3 POP POP POP JUMP JUMPDEST PUSH1 0x0 PUSH1 0x60 DUP3 ADD SWAP1 POP PUSH2 0xC0C PUSH1 0x0 DUP4 ADD DUP7 PUSH2 0xAB4 JUMP JUMPDEST PUSH2 0xC19 PUSH1 0x20 DUP4 ADD DUP6 PUSH2 0xAB4 JUMP JUMPDEST PUSH2 0xC26 PUSH1 0x40 DUP4 ADD DUP5 PUSH2 0xBA4 JUMP JUMPDEST SWAP5 SWAP4 POP POP POP POP JUMP JUMPDEST PUSH1 0x0 PUSH1 0x40 DUP3 ADD SWAP1 POP PUSH2 0xC43 PUSH1 0x0 DUP4 ADD DUP6 PUSH2 0xAB4 JUMP JUMPDEST PUSH2 0xC50 PUSH1 0x20 DUP4 ADD DUP5 PUSH2 0xBA4 JUMP JUMPDEST SWAP4 SWAP3 POP POP POP JUMP JUMPDEST PUSH1 0x0 PUSH1 0x20 DUP3 ADD SWAP1 POP PUSH2 0xC6C PUSH1 0x0 DUP4 ADD DUP5 PUSH2 0xAC3 JUMP JUMPDEST SWAP3 SWAP2 POP POP JUMP JUMPDEST PUSH1 0x0 PUSH1 0x20 DUP3 ADD SWAP1 POP DUP2 DUP2 SUB PUSH1 0x0 DUP4 ADD MSTORE PUSH2 0xC8B DUP2 PUSH2 0xAD2 JUMP JUMPDEST SWAP1 POP SWAP2 SWAP1 POP JUMP JUMPDEST PUSH1 0x0 PUSH1 0x20 DUP3 ADD SWAP1 POP DUP2 DUP2 SUB PUSH1 0x0 DUP4 ADD MSTORE PUSH2 0xCAB DUP2 PUSH2 0xAF5 JUMP JUMPDEST SWAP1 POP SWAP2 SWAP1 POP JUMP JUMPDEST PUSH1 0x0 PUSH1 0x20 DUP3 ADD SWAP1 POP DUP2 DUP2 SUB PUSH1 0x0 DUP4 ADD MSTORE PUSH2 0xCCB DUP2 PUSH2 0xB18 JUMP JUMPDEST SWAP1 POP SWAP2 SWAP1 POP JUMP JUMPDEST PUSH1 0x0 PUSH1 0x20 DUP3 ADD SWAP1 POP DUP2 DUP2 SUB PUSH1 0x0 DUP4 ADD MSTORE PUSH2 0xCEB DUP2 PUSH2 0xB3B JUMP JUMPDEST SWAP1 POP SWAP2 SWAP1 POP JUMP JUMPDEST PUSH1 0x0 PUSH1 0x20 DUP3 ADD SWAP1 POP DUP2 DUP2 SUB PUSH1 0x0 DUP4 ADD MSTORE PUSH2 0xD0B DUP2 PUSH2 0xB5E JUMP JUMPDEST SWAP1 POP SWAP2 SWAP1 POP JUMP JUMPDEST PUSH1 0x0 PUSH1 0x20 DUP3 ADD SWAP1 POP DUP2 DUP2 SUB PUSH1 0x0 DUP4 ADD MSTORE PUSH2 0xD2B DUP2 PUSH2 0xB81 JUMP JUMPDEST SWAP1 POP SWAP2 SWAP1 POP JUMP JUMPDEST PUSH1 0x0 DUP3 DUP3 MSTORE PUSH1 0x20 DUP3 ADD SWAP1 POP SWAP3 SWAP2 POP POP JUMP JUMPDEST PUSH1 0x0 PUSH2 0xD4E DUP3 PUSH2 0xD61 JUMP JUMPDEST SWAP1 POP SWAP2 SWAP1 POP JUMP JUMPDEST PUSH1 0x0 DUP2 ISZERO ISZERO SWAP1 POP SWAP2 SWAP1 POP JUMP JUMPDEST PUSH1 0x0 PUSH20 0xFFFFFFFFFFFFFFFFFFFFFFFFFFFFFFFFFFFFFFFF DUP3 AND SWAP1 POP SWAP2 SWAP1 POP JUMP JUMPDEST PUSH1 0x0 DUP2 SWAP1 POP SWAP2 SWAP1 POP JUMP JUMPDEST PUSH1 0x0 PUSH2 0xD96 DUP3 PUSH2 0xD9D JUMP JUMPDEST SWAP1 POP SWAP2 SWAP1 POP JUMP JUMPDEST PUSH1 0x0 PUSH2 0xDA8 DUP3 PUSH2 0xDAF JUMP JUMPDEST SWAP1 POP SWAP2 SWAP1 POP JUMP JUMPDEST PUSH1 0x0 PUSH2 0xDBA DUP3 PUSH2 0xD61 JUMP JUMPDEST SWAP1 POP SWAP2 SWAP1 POP JUMP JUMPDEST PUSH1 0x0 DUP1 REVERT JUMPDEST PUSH32 0x546F6B656E20616C6C6F7720546F20746F6F206C6F7700000000000000000000 PUSH1 0x0 DUP3 ADD MSTORE POP JUMP JUMPDEST PUSH32 0x496E73756666696369656E742062616C616E636520746F6B656E546F20746F20 PUSH1 0x0 DUP3 ADD MSTORE PUSH32 0x73656E64206261636B20636C69656E7400000000000000000000000000000000 PUSH1 0x20 DUP3 ADD MSTORE POP JUMP JUMPDEST PUSH32 0x546F6B656E20616C6C6F772046726F6D20746F6F206C6F770000000000000000 PUSH1 0x0 DUP3 ADD MSTORE POP JUMP JUMPDEST PUSH32 0x546F6B656E207472616E73666572206661696C65640000000000000000000000 PUSH1 0x0 DUP3 ADD MSTORE POP JUMP JUMPDEST PUSH32 0x416464726573732073776170206E6F742076616C696400000000000000000000 PUSH1 0x0 DUP3 ADD MSTORE POP JUMP JUMPDEST PUSH32 0x416C6C6F7720746F6B656E46726F6D20746F6F206C6F77000000000000000000 PUSH1 0x0 DUP3 ADD MSTORE POP JUMP JUMPDEST PUSH2 0xEEB DUP2 PUSH2 0xD43 JUMP JUMPDEST DUP2 EQ PUSH2 0xEF6 JUMPI PUSH1 0x0 DUP1 REVERT JUMPDEST POP JUMP JUMPDEST PUSH2 0xF02 DUP2 PUSH2 0xD55 JUMP JUMPDEST DUP2 EQ PUSH2 0xF0D JUMPI PUSH1 0x0 DUP1 REVERT JUMPDEST POP JUMP JUMPDEST PUSH2 0xF19 DUP2 PUSH2 0xD81 JUMP JUMPDEST DUP2 EQ PUSH2 0xF24 JUMPI PUSH1 0x0 DUP1 REVERT JUMPDEST POP JUMP INVALID LOG2 PUSH5 0x6970667358 0x22 SLT KECCAK256 PUSH3 0xE42B42 RETURNDATACOPY 0xD3 0xD9 PUSH20 0x700A18352F0DC47A4995AAB3AFB3C8639CF47176 0xD2 DUP15 PUSH12 0xD464736F6C63430008070033 "
				},
				"gasEstimates": {
					"creation": {
						"codeDepositCost": "786600",
						"executionCost": "818",
						"totalCost": "787418"
					},
					"external": {
						"": "151",
						"swap(address,address,uint256,address,address,uint256)": "infinite",
						"swap_v2(address,uint256,address,uint256)": "infinite",
						"tokenFrom()": "2597",
						"tokenTo()": "2644"
					},
					"internal": {
						"_safeTransfer(contract IERC20,address,uint256)": "infinite",
						"_safeTransferFrom(contract IERC20,address,address,uint256)": "infinite"
					}
				},
				"methodIdentifiers": {
					"swap(address,address,uint256,address,address,uint256)": "7ddf3320",
					"swap_v2(address,uint256,address,uint256)": "30ba8901",
					"tokenFrom()": "7c153534",
					"tokenTo()": "c17b7326"
				}
			},
			"userdoc": {
				"kind": "user",
				"methods": {},
				"version": 1
			}
		}
	}
}