{
	"contracts/TokenSwap.sol": {
		"TokenSwap": {
			"abi": [
				{
					"inputs": [
						{
							"internalType": "address",
							"name": "_token1",
							"type": "address"
						},
						{
							"internalType": "address",
							"name": "_owner1",
							"type": "address"
						},
						{
							"internalType": "uint256",
							"name": "_amount1",
							"type": "uint256"
						},
						{
							"internalType": "address",
							"name": "_token2",
							"type": "address"
						},
						{
							"internalType": "address",
							"name": "_owner2",
							"type": "address"
						},
						{
							"internalType": "uint256",
							"name": "_amount2",
							"type": "uint256"
						}
					],
					"stateMutability": "nonpayable",
					"type": "constructor"
				},
				{
					"inputs": [],
					"name": "amount1",
					"outputs": [
						{
							"internalType": "uint256",
							"name": "",
							"type": "uint256"
						}
					],
					"stateMutability": "view",
					"type": "function"
				},
				{
					"inputs": [],
					"name": "amount2",
					"outputs": [
						{
							"internalType": "uint256",
							"name": "",
							"type": "uint256"
						}
					],
					"stateMutability": "view",
					"type": "function"
				},
				{
					"inputs": [],
					"name": "owner1",
					"outputs": [
						{
							"internalType": "address",
							"name": "",
							"type": "address"
						}
					],
					"stateMutability": "view",
					"type": "function"
				},
				{
					"inputs": [],
					"name": "owner2",
					"outputs": [
						{
							"internalType": "address",
							"name": "",
							"type": "address"
						}
					],
					"stateMutability": "view",
					"type": "function"
				},
				{
					"inputs": [],
					"name": "swap",
					"outputs": [],
					"stateMutability": "nonpayable",
					"type": "function"
				},
				{
					"inputs": [],
					"name": "token1",
					"outputs": [
						{
							"internalType": "contract ERC20",
							"name": "",
							"type": "address"
						}
					],
					"stateMutability": "view",
					"type": "function"
				},
				{
					"inputs": [],
					"name": "token2",
					"outputs": [
						{
							"internalType": "contract ERC20",
							"name": "",
							"type": "address"
						}
					],
					"stateMutability": "view",
					"type": "function"
				}
			],
			"devdoc": {
				"kind": "dev",
				"methods": {},
				"version": 1
			},
			"evm": {
				"assembly": "    /* \"contracts/TokenSwap.sol\":553:1868  contract TokenSwap {... */\n  mstore(0x40, 0x80)\n    /* \"contracts/TokenSwap.sol\":733:1078  constructor(... */\n  callvalue\n  dup1\n  iszero\n  tag_1\n  jumpi\n  0x00\n  dup1\n  revert\ntag_1:\n  pop\n  mload(0x40)\n  sub(codesize, bytecodeSize)\n  dup1\n  bytecodeSize\n  dup4\n  codecopy\n  dup2\n  dup2\n  add\n  0x40\n  mstore\n  dup2\n  add\n  swap1\n  tag_2\n  swap2\n  swap1\n  tag_3\n  jump\t// in\ntag_2:\n    /* \"contracts/TokenSwap.sol\":922:929  _token1 */\n  dup6\n    /* \"contracts/TokenSwap.sol\":907:913  token1 */\n  0x00\n  dup1\n    /* \"contracts/TokenSwap.sol\":907:930  token1 = ERC20(_token1) */\n  0x0100\n  exp\n  dup2\n  sload\n  dup2\n  0xffffffffffffffffffffffffffffffffffffffff\n  mul\n  not\n  and\n  swap1\n  dup4\n  0xffffffffffffffffffffffffffffffffffffffff\n  and\n  mul\n  or\n  swap1\n  sstore\n  pop\n    /* \"contracts/TokenSwap.sol\":949:956  _owner1 */\n  dup5\n    /* \"contracts/TokenSwap.sol\":940:946  owner1 */\n  0x01\n  0x00\n    /* \"contracts/TokenSwap.sol\":940:956  owner1 = _owner1 */\n  0x0100\n  exp\n  dup2\n  sload\n  dup2\n  0xffffffffffffffffffffffffffffffffffffffff\n  mul\n  not\n  and\n  swap1\n  dup4\n  0xffffffffffffffffffffffffffffffffffffffff\n  and\n  mul\n  or\n  swap1\n  sstore\n  pop\n    /* \"contracts/TokenSwap.sol\":976:984  _amount1 */\n  dup4\n    /* \"contracts/TokenSwap.sol\":966:973  amount1 */\n  0x02\n    /* \"contracts/TokenSwap.sol\":966:984  amount1 = _amount1 */\n  dup2\n  swap1\n  sstore\n  pop\n    /* \"contracts/TokenSwap.sol\":1009:1016  _token2 */\n  dup3\n    /* \"contracts/TokenSwap.sol\":994:1000  token2 */\n  0x03\n  0x00\n    /* \"contracts/TokenSwap.sol\":994:1017  token2 = ERC20(_token2) */\n  0x0100\n  exp\n  dup2\n  sload\n  dup2\n  0xffffffffffffffffffffffffffffffffffffffff\n  mul\n  not\n  and\n  swap1\n  dup4\n  0xffffffffffffffffffffffffffffffffffffffff\n  and\n  mul\n  or\n  swap1\n  sstore\n  pop\n    /* \"contracts/TokenSwap.sol\":1036:1043  _owner2 */\n  dup2\n    /* \"contracts/TokenSwap.sol\":1027:1033  owner2 */\n  0x04\n  0x00\n    /* \"contracts/TokenSwap.sol\":1027:1043  owner2 = _owner2 */\n  0x0100\n  exp\n  dup2\n  sload\n  dup2\n  0xffffffffffffffffffffffffffffffffffffffff\n  mul\n  not\n  and\n  swap1\n  dup4\n  0xffffffffffffffffffffffffffffffffffffffff\n  and\n  mul\n  or\n  swap1\n  sstore\n  pop\n    /* \"contracts/TokenSwap.sol\":1063:1071  _amount2 */\n  dup1\n    /* \"contracts/TokenSwap.sol\":1053:1060  amount2 */\n  0x05\n    /* \"contracts/TokenSwap.sol\":1053:1071  amount2 = _amount2 */\n  dup2\n  swap1\n  sstore\n  pop\n    /* \"contracts/TokenSwap.sol\":733:1078  constructor(... */\n  pop\n  pop\n  pop\n  pop\n  pop\n  pop\n    /* \"contracts/TokenSwap.sol\":553:1868  contract TokenSwap {... */\n  jump(tag_6)\n    /* \"#utility.yul\":7:150   */\ntag_8:\n    /* \"#utility.yul\":64:69   */\n  0x00\n    /* \"#utility.yul\":95:101   */\n  dup2\n    /* \"#utility.yul\":89:102   */\n  mload\n    /* \"#utility.yul\":80:102   */\n  swap1\n  pop\n    /* \"#utility.yul\":111:144   */\n  tag_10\n    /* \"#utility.yul\":138:143   */\n  dup2\n    /* \"#utility.yul\":111:144   */\n  tag_11\n  jump\t// in\ntag_10:\n    /* \"#utility.yul\":7:150   */\n  swap3\n  swap2\n  pop\n  pop\n  jump\t// out\n    /* \"#utility.yul\":156:299   */\ntag_12:\n    /* \"#utility.yul\":213:218   */\n  0x00\n    /* \"#utility.yul\":244:250   */\n  dup2\n    /* \"#utility.yul\":238:251   */\n  mload\n    /* \"#utility.yul\":229:251   */\n  swap1\n  pop\n    /* \"#utility.yul\":260:293   */\n  tag_14\n    /* \"#utility.yul\":287:292   */\n  dup2\n    /* \"#utility.yul\":260:293   */\n  tag_15\n  jump\t// in\ntag_14:\n    /* \"#utility.yul\":156:299   */\n  swap3\n  swap2\n  pop\n  pop\n  jump\t// out\n    /* \"#utility.yul\":305:1439   */\ntag_3:\n    /* \"#utility.yul\":420:426   */\n  0x00\n    /* \"#utility.yul\":428:434   */\n  dup1\n    /* \"#utility.yul\":436:442   */\n  0x00\n    /* \"#utility.yul\":444:450   */\n  dup1\n    /* \"#utility.yul\":452:458   */\n  0x00\n    /* \"#utility.yul\":460:466   */\n  dup1\n    /* \"#utility.yul\":509:512   */\n  0xc0\n    /* \"#utility.yul\":497:506   */\n  dup8\n    /* \"#utility.yul\":488:495   */\n  dup10\n    /* \"#utility.yul\":484:507   */\n  sub\n    /* \"#utility.yul\":480:513   */\n  slt\n    /* \"#utility.yul\":477:597   */\n  iszero\n  tag_17\n  jumpi\n    /* \"#utility.yul\":516:595   */\n  tag_18\n  tag_19\n  jump\t// in\ntag_18:\n    /* \"#utility.yul\":477:597   */\ntag_17:\n    /* \"#utility.yul\":636:637   */\n  0x00\n    /* \"#utility.yul\":661:725   */\n  tag_20\n    /* \"#utility.yul\":717:724   */\n  dup10\n    /* \"#utility.yul\":708:714   */\n  dup3\n    /* \"#utility.yul\":697:706   */\n  dup11\n    /* \"#utility.yul\":693:715   */\n  add\n    /* \"#utility.yul\":661:725   */\n  tag_8\n  jump\t// in\ntag_20:\n    /* \"#utility.yul\":651:725   */\n  swap7\n  pop\n    /* \"#utility.yul\":607:735   */\n  pop\n    /* \"#utility.yul\":774:776   */\n  0x20\n    /* \"#utility.yul\":800:864   */\n  tag_21\n    /* \"#utility.yul\":856:863   */\n  dup10\n    /* \"#utility.yul\":847:853   */\n  dup3\n    /* \"#utility.yul\":836:845   */\n  dup11\n    /* \"#utility.yul\":832:854   */\n  add\n    /* \"#utility.yul\":800:864   */\n  tag_8\n  jump\t// in\ntag_21:\n    /* \"#utility.yul\":790:864   */\n  swap6\n  pop\n    /* \"#utility.yul\":745:874   */\n  pop\n    /* \"#utility.yul\":913:915   */\n  0x40\n    /* \"#utility.yul\":939:1003   */\n  tag_22\n    /* \"#utility.yul\":995:1002   */\n  dup10\n    /* \"#utility.yul\":986:992   */\n  dup3\n    /* \"#utility.yul\":975:984   */\n  dup11\n    /* \"#utility.yul\":971:993   */\n  add\n    /* \"#utility.yul\":939:1003   */\n  tag_12\n  jump\t// in\ntag_22:\n    /* \"#utility.yul\":929:1003   */\n  swap5\n  pop\n    /* \"#utility.yul\":884:1013   */\n  pop\n    /* \"#utility.yul\":1052:1054   */\n  0x60\n    /* \"#utility.yul\":1078:1142   */\n  tag_23\n    /* \"#utility.yul\":1134:1141   */\n  dup10\n    /* \"#utility.yul\":1125:1131   */\n  dup3\n    /* \"#utility.yul\":1114:1123   */\n  dup11\n    /* \"#utility.yul\":1110:1132   */\n  add\n    /* \"#utility.yul\":1078:1142   */\n  tag_8\n  jump\t// in\ntag_23:\n    /* \"#utility.yul\":1068:1142   */\n  swap4\n  pop\n    /* \"#utility.yul\":1023:1152   */\n  pop\n    /* \"#utility.yul\":1191:1194   */\n  0x80\n    /* \"#utility.yul\":1218:1282   */\n  tag_24\n    /* \"#utility.yul\":1274:1281   */\n  dup10\n    /* \"#utility.yul\":1265:1271   */\n  dup3\n    /* \"#utility.yul\":1254:1263   */\n  dup11\n    /* \"#utility.yul\":1250:1272   */\n  add\n    /* \"#utility.yul\":1218:1282   */\n  tag_8\n  jump\t// in\ntag_24:\n    /* \"#utility.yul\":1208:1282   */\n  swap3\n  pop\n    /* \"#utility.yul\":1162:1292   */\n  pop\n    /* \"#utility.yul\":1331:1334   */\n  0xa0\n    /* \"#utility.yul\":1358:1422   */\n  tag_25\n    /* \"#utility.yul\":1414:1421   */\n  dup10\n    /* \"#utility.yul\":1405:1411   */\n  dup3\n    /* \"#utility.yul\":1394:1403   */\n  dup11\n    /* \"#utility.yul\":1390:1412   */\n  add\n    /* \"#utility.yul\":1358:1422   */\n  tag_12\n  jump\t// in\ntag_25:\n    /* \"#utility.yul\":1348:1422   */\n  swap2\n  pop\n    /* \"#utility.yul\":1302:1432   */\n  pop\n    /* \"#utility.yul\":305:1439   */\n  swap3\n  swap6\n  pop\n  swap3\n  swap6\n  pop\n  swap3\n  swap6\n  jump\t// out\n    /* \"#utility.yul\":1526:1622   */\ntag_28:\n    /* \"#utility.yul\":1563:1570   */\n  0x00\n    /* \"#utility.yul\":1592:1616   */\n  tag_30\n    /* \"#utility.yul\":1610:1615   */\n  dup3\n    /* \"#utility.yul\":1592:1616   */\n  tag_31\n  jump\t// in\ntag_30:\n    /* \"#utility.yul\":1581:1616   */\n  swap1\n  pop\n    /* \"#utility.yul\":1526:1622   */\n  swap2\n  swap1\n  pop\n  jump\t// out\n    /* \"#utility.yul\":1628:1754   */\ntag_31:\n    /* \"#utility.yul\":1665:1672   */\n  0x00\n    /* \"#utility.yul\":1705:1747   */\n  0xffffffffffffffffffffffffffffffffffffffff\n    /* \"#utility.yul\":1698:1703   */\n  dup3\n    /* \"#utility.yul\":1694:1748   */\n  and\n    /* \"#utility.yul\":1683:1748   */\n  swap1\n  pop\n    /* \"#utility.yul\":1628:1754   */\n  swap2\n  swap1\n  pop\n  jump\t// out\n    /* \"#utility.yul\":1760:1837   */\ntag_33:\n    /* \"#utility.yul\":1797:1804   */\n  0x00\n    /* \"#utility.yul\":1826:1831   */\n  dup2\n    /* \"#utility.yul\":1815:1831   */\n  swap1\n  pop\n    /* \"#utility.yul\":1760:1837   */\n  swap2\n  swap1\n  pop\n  jump\t// out\n    /* \"#utility.yul\":1966:2083   */\ntag_19:\n    /* \"#utility.yul\":2075:2076   */\n  0x00\n    /* \"#utility.yul\":2072:2073   */\n  dup1\n    /* \"#utility.yul\":2065:2077   */\n  revert\n    /* \"#utility.yul\":2089:2211   */\ntag_11:\n    /* \"#utility.yul\":2162:2186   */\n  tag_39\n    /* \"#utility.yul\":2180:2185   */\n  dup2\n    /* \"#utility.yul\":2162:2186   */\n  tag_28\n  jump\t// in\ntag_39:\n    /* \"#utility.yul\":2155:2160   */\n  dup2\n    /* \"#utility.yul\":2152:2187   */\n  eq\n    /* \"#utility.yul\":2142:2205   */\n  tag_40\n  jumpi\n    /* \"#utility.yul\":2201:2202   */\n  0x00\n    /* \"#utility.yul\":2198:2199   */\n  dup1\n    /* \"#utility.yul\":2191:2203   */\n  revert\n    /* \"#utility.yul\":2142:2205   */\ntag_40:\n    /* \"#utility.yul\":2089:2211   */\n  pop\n  jump\t// out\n    /* \"#utility.yul\":2217:2339   */\ntag_15:\n    /* \"#utility.yul\":2290:2314   */\n  tag_42\n    /* \"#utility.yul\":2308:2313   */\n  dup2\n    /* \"#utility.yul\":2290:2314   */\n  tag_33\n  jump\t// in\ntag_42:\n    /* \"#utility.yul\":2283:2288   */\n  dup2\n    /* \"#utility.yul\":2280:2315   */\n  eq\n    /* \"#utility.yul\":2270:2333   */\n  tag_43\n  jumpi\n    /* \"#utility.yul\":2329:2330   */\n  0x00\n    /* \"#utility.yul\":2326:2327   */\n  dup1\n    /* \"#utility.yul\":2319:2331   */\n  revert\n    /* \"#utility.yul\":2270:2333   */\ntag_43:\n    /* \"#utility.yul\":2217:2339   */\n  pop\n  jump\t// out\n    /* \"contracts/TokenSwap.sol\":553:1868  contract TokenSwap {... */\ntag_6:\n  dataSize(sub_0)\n  dup1\n  dataOffset(sub_0)\n  0x00\n  codecopy\n  0x00\n  return\nstop\n\nsub_0: assembly {\n        /* \"contracts/TokenSwap.sol\":553:1868  contract TokenSwap {... */\n      mstore(0x40, 0x80)\n      callvalue\n      dup1\n      iszero\n      tag_1\n      jumpi\n      0x00\n      dup1\n      revert\n    tag_1:\n      pop\n      jumpi(tag_2, lt(calldatasize, 0x04))\n      shr(0xe0, calldataload(0x00))\n      dup1\n      0x73688914\n      gt\n      tag_10\n      jumpi\n      dup1\n      0x73688914\n      eq\n      tag_6\n      jumpi\n      dup1\n      0x8119c065\n      eq\n      tag_7\n      jumpi\n      dup1\n      0xd21220a7\n      eq\n      tag_8\n      jumpi\n      dup1\n      0xf400fde4\n      eq\n      tag_9\n      jumpi\n      jump(tag_2)\n    tag_10:\n      dup1\n      0x057bfcc7\n      eq\n      tag_3\n      jumpi\n      dup1\n      0x25be124e\n      eq\n      tag_4\n      jumpi\n      dup1\n      0x52709725\n      eq\n      tag_5\n      jumpi\n    tag_2:\n      0x00\n      dup1\n      revert\n        /* \"contracts/TokenSwap.sol\":707:726  uint public amount2 */\n    tag_3:\n      tag_11\n      tag_12\n      jump\t// in\n    tag_11:\n      mload(0x40)\n      tag_13\n      swap2\n      swap1\n      tag_14\n      jump\t// in\n    tag_13:\n      mload(0x40)\n      dup1\n      swap2\n      sub\n      swap1\n      return\n        /* \"contracts/TokenSwap.sol\":655:674  ERC20 public token2 */\n    tag_4:\n      tag_15\n      tag_16\n      jump\t// in\n    tag_15:\n      mload(0x40)\n      tag_17\n      swap2\n      swap1\n      tag_18\n      jump\t// in\n    tag_17:\n      mload(0x40)\n      dup1\n      swap2\n      sub\n      swap1\n      return\n        /* \"contracts/TokenSwap.sol\":680:701  address public owner2 */\n    tag_5:\n      tag_19\n      tag_20\n      jump\t// in\n    tag_19:\n      mload(0x40)\n      tag_21\n      swap2\n      swap1\n      tag_22\n      jump\t// in\n    tag_21:\n      mload(0x40)\n      dup1\n      swap2\n      sub\n      swap1\n      return\n        /* \"contracts/TokenSwap.sol\":603:624  address public owner1 */\n    tag_6:\n      tag_23\n      tag_24\n      jump\t// in\n    tag_23:\n      mload(0x40)\n      tag_25\n      swap2\n      swap1\n      tag_22\n      jump\t// in\n    tag_25:\n      mload(0x40)\n      dup1\n      swap2\n      sub\n      swap1\n      return\n        /* \"contracts/TokenSwap.sol\":1084:1604  function swap() public {... */\n    tag_7:\n      tag_26\n      tag_27\n      jump\t// in\n    tag_26:\n      stop\n        /* \"contracts/TokenSwap.sol\":578:597  ERC20 public token1 */\n    tag_8:\n      tag_28\n      tag_29\n      jump\t// in\n    tag_28:\n      mload(0x40)\n      tag_30\n      swap2\n      swap1\n      tag_18\n      jump\t// in\n    tag_30:\n      mload(0x40)\n      dup1\n      swap2\n      sub\n      swap1\n      return\n        /* \"contracts/TokenSwap.sol\":630:649  uint public amount1 */\n    tag_9:\n      tag_31\n      tag_32\n      jump\t// in\n    tag_31:\n      mload(0x40)\n      tag_33\n      swap2\n      swap1\n      tag_14\n      jump\t// in\n    tag_33:\n      mload(0x40)\n      dup1\n      swap2\n      sub\n      swap1\n      return\n        /* \"contracts/TokenSwap.sol\":707:726  uint public amount2 */\n    tag_12:\n      sload(0x05)\n      dup2\n      jump\t// out\n        /* \"contracts/TokenSwap.sol\":655:674  ERC20 public token2 */\n    tag_16:\n      0x03\n      0x00\n      swap1\n      sload\n      swap1\n      0x0100\n      exp\n      swap1\n      div\n      0xffffffffffffffffffffffffffffffffffffffff\n      and\n      dup2\n      jump\t// out\n        /* \"contracts/TokenSwap.sol\":680:701  address public owner2 */\n    tag_20:\n      0x04\n      0x00\n      swap1\n      sload\n      swap1\n      0x0100\n      exp\n      swap1\n      div\n      0xffffffffffffffffffffffffffffffffffffffff\n      and\n      dup2\n      jump\t// out\n        /* \"contracts/TokenSwap.sol\":603:624  address public owner1 */\n    tag_24:\n      0x01\n      0x00\n      swap1\n      sload\n      swap1\n      0x0100\n      exp\n      swap1\n      div\n      0xffffffffffffffffffffffffffffffffffffffff\n      and\n      dup2\n      jump\t// out\n        /* \"contracts/TokenSwap.sol\":1084:1604  function swap() public {... */\n    tag_27:\n        /* \"contracts/TokenSwap.sol\":1139:1145  owner1 */\n      0x01\n      0x00\n      swap1\n      sload\n      swap1\n      0x0100\n      exp\n      swap1\n      div\n      0xffffffffffffffffffffffffffffffffffffffff\n      and\n        /* \"contracts/TokenSwap.sol\":1125:1145  msg.sender == owner1 */\n      0xffffffffffffffffffffffffffffffffffffffff\n      and\n        /* \"contracts/TokenSwap.sol\":1125:1135  msg.sender */\n      caller\n        /* \"contracts/TokenSwap.sol\":1125:1145  msg.sender == owner1 */\n      0xffffffffffffffffffffffffffffffffffffffff\n      and\n      eq\n        /* \"contracts/TokenSwap.sol\":1125:1169  msg.sender == owner1 || msg.sender == owner2 */\n      dup1\n      tag_35\n      jumpi\n      pop\n        /* \"contracts/TokenSwap.sol\":1163:1169  owner2 */\n      0x04\n      0x00\n      swap1\n      sload\n      swap1\n      0x0100\n      exp\n      swap1\n      div\n      0xffffffffffffffffffffffffffffffffffffffff\n      and\n        /* \"contracts/TokenSwap.sol\":1149:1169  msg.sender == owner2 */\n      0xffffffffffffffffffffffffffffffffffffffff\n      and\n        /* \"contracts/TokenSwap.sol\":1149:1159  msg.sender */\n      caller\n        /* \"contracts/TokenSwap.sol\":1149:1169  msg.sender == owner2 */\n      0xffffffffffffffffffffffffffffffffffffffff\n      and\n      eq\n        /* \"contracts/TokenSwap.sol\":1125:1169  msg.sender == owner1 || msg.sender == owner2 */\n    tag_35:\n        /* \"contracts/TokenSwap.sol\":1117:1188  require(msg.sender == owner1 || msg.sender == owner2, \"Not authorized\") */\n      tag_36\n      jumpi\n      mload(0x40)\n      0x08c379a000000000000000000000000000000000000000000000000000000000\n      dup2\n      mstore\n      0x04\n      add\n      tag_37\n      swap1\n      tag_38\n      jump\t// in\n    tag_37:\n      mload(0x40)\n      dup1\n      swap2\n      sub\n      swap1\n      revert\n    tag_36:\n        /* \"contracts/TokenSwap.sol\":1487:1537  _safeTransferFrom(token1, owner1, owner2, amount1) */\n      tag_39\n        /* \"contracts/TokenSwap.sol\":1505:1511  token1 */\n      0x00\n      dup1\n      sload\n      swap1\n      0x0100\n      exp\n      swap1\n      div\n      0xffffffffffffffffffffffffffffffffffffffff\n      and\n        /* \"contracts/TokenSwap.sol\":1513:1519  owner1 */\n      0x01\n      0x00\n      swap1\n      sload\n      swap1\n      0x0100\n      exp\n      swap1\n      div\n      0xffffffffffffffffffffffffffffffffffffffff\n      and\n        /* \"contracts/TokenSwap.sol\":1521:1527  owner2 */\n      0x04\n      0x00\n      swap1\n      sload\n      swap1\n      0x0100\n      exp\n      swap1\n      div\n      0xffffffffffffffffffffffffffffffffffffffff\n      and\n        /* \"contracts/TokenSwap.sol\":1529:1536  amount1 */\n      sload(0x02)\n        /* \"contracts/TokenSwap.sol\":1487:1504  _safeTransferFrom */\n      tag_40\n        /* \"contracts/TokenSwap.sol\":1487:1537  _safeTransferFrom(token1, owner1, owner2, amount1) */\n      jump\t// in\n    tag_39:\n        /* \"contracts/TokenSwap.sol\":1547:1597  _safeTransferFrom(token2, owner2, owner1, amount2) */\n      tag_41\n        /* \"contracts/TokenSwap.sol\":1565:1571  token2 */\n      0x03\n      0x00\n      swap1\n      sload\n      swap1\n      0x0100\n      exp\n      swap1\n      div\n      0xffffffffffffffffffffffffffffffffffffffff\n      and\n        /* \"contracts/TokenSwap.sol\":1573:1579  owner2 */\n      0x04\n      0x00\n      swap1\n      sload\n      swap1\n      0x0100\n      exp\n      swap1\n      div\n      0xffffffffffffffffffffffffffffffffffffffff\n      and\n        /* \"contracts/TokenSwap.sol\":1581:1587  owner1 */\n      0x01\n      0x00\n      swap1\n      sload\n      swap1\n      0x0100\n      exp\n      swap1\n      div\n      0xffffffffffffffffffffffffffffffffffffffff\n      and\n        /* \"contracts/TokenSwap.sol\":1589:1596  amount2 */\n      sload(0x05)\n        /* \"contracts/TokenSwap.sol\":1547:1564  _safeTransferFrom */\n      tag_40\n        /* \"contracts/TokenSwap.sol\":1547:1597  _safeTransferFrom(token2, owner2, owner1, amount2) */\n      jump\t// in\n    tag_41:\n        /* \"contracts/TokenSwap.sol\":1084:1604  function swap() public {... */\n      jump\t// out\n        /* \"contracts/TokenSwap.sol\":578:597  ERC20 public token1 */\n    tag_29:\n      0x00\n      dup1\n      sload\n      swap1\n      0x0100\n      exp\n      swap1\n      div\n      0xffffffffffffffffffffffffffffffffffffffff\n      and\n      dup2\n      jump\t// out\n        /* \"contracts/TokenSwap.sol\":630:649  uint public amount1 */\n    tag_32:\n      sload(0x02)\n      dup2\n      jump\t// out\n        /* \"contracts/TokenSwap.sol\":1610:1866  function _safeTransferFrom(... */\n    tag_40:\n        /* \"contracts/TokenSwap.sol\":1754:1763  bool sent */\n      0x00\n        /* \"contracts/TokenSwap.sol\":1766:1771  token */\n      dup5\n        /* \"contracts/TokenSwap.sol\":1766:1784  token.transferFrom */\n      0xffffffffffffffffffffffffffffffffffffffff\n      and\n      0x23b872dd\n        /* \"contracts/TokenSwap.sol\":1785:1791  sender */\n      dup6\n        /* \"contracts/TokenSwap.sol\":1793:1802  recipient */\n      dup6\n        /* \"contracts/TokenSwap.sol\":1804:1810  amount */\n      dup6\n        /* \"contracts/TokenSwap.sol\":1766:1811  token.transferFrom(sender, recipient, amount) */\n      mload(0x40)\n      dup5\n      0xffffffff\n      and\n      0xe0\n      shl\n      dup2\n      mstore\n      0x04\n      add\n      tag_43\n      swap4\n      swap3\n      swap2\n      swap1\n      tag_44\n      jump\t// in\n    tag_43:\n      0x20\n      mload(0x40)\n      dup1\n      dup4\n      sub\n      dup2\n      0x00\n      dup8\n      dup1\n      extcodesize\n      iszero\n      dup1\n      iszero\n      tag_45\n      jumpi\n      0x00\n      dup1\n      revert\n    tag_45:\n      pop\n      gas\n      call\n      iszero\n      dup1\n      iszero\n      tag_47\n      jumpi\n      returndatasize\n      0x00\n      dup1\n      returndatacopy\n      revert(0x00, returndatasize)\n    tag_47:\n      pop\n      pop\n      pop\n      pop\n      mload(0x40)\n      returndatasize\n      not(0x1f)\n      0x1f\n      dup3\n      add\n      and\n      dup3\n      add\n      dup1\n      0x40\n      mstore\n      pop\n      dup2\n      add\n      swap1\n      tag_48\n      swap2\n      swap1\n      tag_49\n      jump\t// in\n    tag_48:\n        /* \"contracts/TokenSwap.sol\":1754:1811  bool sent = token.transferFrom(sender, recipient, amount) */\n      swap1\n      pop\n        /* \"contracts/TokenSwap.sol\":1829:1833  sent */\n      dup1\n        /* \"contracts/TokenSwap.sol\":1821:1859  require(sent, \"Token transfer failed\") */\n      tag_50\n      jumpi\n      mload(0x40)\n      0x08c379a000000000000000000000000000000000000000000000000000000000\n      dup2\n      mstore\n      0x04\n      add\n      tag_51\n      swap1\n      tag_52\n      jump\t// in\n    tag_51:\n      mload(0x40)\n      dup1\n      swap2\n      sub\n      swap1\n      revert\n    tag_50:\n        /* \"contracts/TokenSwap.sol\":1744:1866  {... */\n      pop\n        /* \"contracts/TokenSwap.sol\":1610:1866  function _safeTransferFrom(... */\n      pop\n      pop\n      pop\n      pop\n      jump\t// out\n        /* \"#utility.yul\":7:144   */\n    tag_54:\n        /* \"#utility.yul\":61:66   */\n      0x00\n        /* \"#utility.yul\":92:98   */\n      dup2\n        /* \"#utility.yul\":86:99   */\n      mload\n        /* \"#utility.yul\":77:99   */\n      swap1\n      pop\n        /* \"#utility.yul\":108:138   */\n      tag_56\n        /* \"#utility.yul\":132:137   */\n      dup2\n        /* \"#utility.yul\":108:138   */\n      tag_57\n      jump\t// in\n    tag_56:\n        /* \"#utility.yul\":7:144   */\n      swap3\n      swap2\n      pop\n      pop\n      jump\t// out\n        /* \"#utility.yul\":150:495   */\n    tag_49:\n        /* \"#utility.yul\":217:223   */\n      0x00\n        /* \"#utility.yul\":266:268   */\n      0x20\n        /* \"#utility.yul\":254:263   */\n      dup3\n        /* \"#utility.yul\":245:252   */\n      dup5\n        /* \"#utility.yul\":241:264   */\n      sub\n        /* \"#utility.yul\":237:269   */\n      slt\n        /* \"#utility.yul\":234:353   */\n      iszero\n      tag_59\n      jumpi\n        /* \"#utility.yul\":272:351   */\n      tag_60\n      tag_61\n      jump\t// in\n    tag_60:\n        /* \"#utility.yul\":234:353   */\n    tag_59:\n        /* \"#utility.yul\":392:393   */\n      0x00\n        /* \"#utility.yul\":417:478   */\n      tag_62\n        /* \"#utility.yul\":470:477   */\n      dup5\n        /* \"#utility.yul\":461:467   */\n      dup3\n        /* \"#utility.yul\":450:459   */\n      dup6\n        /* \"#utility.yul\":446:468   */\n      add\n        /* \"#utility.yul\":417:478   */\n      tag_54\n      jump\t// in\n    tag_62:\n        /* \"#utility.yul\":407:478   */\n      swap2\n      pop\n        /* \"#utility.yul\":363:488   */\n      pop\n        /* \"#utility.yul\":150:495   */\n      swap3\n      swap2\n      pop\n      pop\n      jump\t// out\n        /* \"#utility.yul\":501:619   */\n    tag_63:\n        /* \"#utility.yul\":588:612   */\n      tag_65\n        /* \"#utility.yul\":606:611   */\n      dup2\n        /* \"#utility.yul\":588:612   */\n      tag_66\n      jump\t// in\n    tag_65:\n        /* \"#utility.yul\":583:586   */\n      dup3\n        /* \"#utility.yul\":576:613   */\n      mstore\n        /* \"#utility.yul\":501:619   */\n      pop\n      pop\n      jump\t// out\n        /* \"#utility.yul\":625:780   */\n    tag_67:\n        /* \"#utility.yul\":724:773   */\n      tag_69\n        /* \"#utility.yul\":767:772   */\n      dup2\n        /* \"#utility.yul\":724:773   */\n      tag_70\n      jump\t// in\n    tag_69:\n        /* \"#utility.yul\":719:722   */\n      dup3\n        /* \"#utility.yul\":712:774   */\n      mstore\n        /* \"#utility.yul\":625:780   */\n      pop\n      pop\n      jump\t// out\n        /* \"#utility.yul\":786:1152   */\n    tag_71:\n        /* \"#utility.yul\":928:931   */\n      0x00\n        /* \"#utility.yul\":949:1016   */\n      tag_73\n        /* \"#utility.yul\":1013:1015   */\n      0x15\n        /* \"#utility.yul\":1008:1011   */\n      dup4\n        /* \"#utility.yul\":949:1016   */\n      tag_74\n      jump\t// in\n    tag_73:\n        /* \"#utility.yul\":942:1016   */\n      swap2\n      pop\n        /* \"#utility.yul\":1025:1118   */\n      tag_75\n        /* \"#utility.yul\":1114:1117   */\n      dup3\n        /* \"#utility.yul\":1025:1118   */\n      tag_76\n      jump\t// in\n    tag_75:\n        /* \"#utility.yul\":1143:1145   */\n      0x20\n        /* \"#utility.yul\":1138:1141   */\n      dup3\n        /* \"#utility.yul\":1134:1146   */\n      add\n        /* \"#utility.yul\":1127:1146   */\n      swap1\n      pop\n        /* \"#utility.yul\":786:1152   */\n      swap2\n      swap1\n      pop\n      jump\t// out\n        /* \"#utility.yul\":1158:1524   */\n    tag_77:\n        /* \"#utility.yul\":1300:1303   */\n      0x00\n        /* \"#utility.yul\":1321:1388   */\n      tag_79\n        /* \"#utility.yul\":1385:1387   */\n      0x0e\n        /* \"#utility.yul\":1380:1383   */\n      dup4\n        /* \"#utility.yul\":1321:1388   */\n      tag_74\n      jump\t// in\n    tag_79:\n        /* \"#utility.yul\":1314:1388   */\n      swap2\n      pop\n        /* \"#utility.yul\":1397:1490   */\n      tag_80\n        /* \"#utility.yul\":1486:1489   */\n      dup3\n        /* \"#utility.yul\":1397:1490   */\n      tag_81\n      jump\t// in\n    tag_80:\n        /* \"#utility.yul\":1515:1517   */\n      0x20\n        /* \"#utility.yul\":1510:1513   */\n      dup3\n        /* \"#utility.yul\":1506:1518   */\n      add\n        /* \"#utility.yul\":1499:1518   */\n      swap1\n      pop\n        /* \"#utility.yul\":1158:1524   */\n      swap2\n      swap1\n      pop\n      jump\t// out\n        /* \"#utility.yul\":1530:1648   */\n    tag_82:\n        /* \"#utility.yul\":1617:1641   */\n      tag_84\n        /* \"#utility.yul\":1635:1640   */\n      dup2\n        /* \"#utility.yul\":1617:1641   */\n      tag_85\n      jump\t// in\n    tag_84:\n        /* \"#utility.yul\":1612:1615   */\n      dup3\n        /* \"#utility.yul\":1605:1642   */\n      mstore\n        /* \"#utility.yul\":1530:1648   */\n      pop\n      pop\n      jump\t// out\n        /* \"#utility.yul\":1654:1876   */\n    tag_22:\n        /* \"#utility.yul\":1747:1751   */\n      0x00\n        /* \"#utility.yul\":1785:1787   */\n      0x20\n        /* \"#utility.yul\":1774:1783   */\n      dup3\n        /* \"#utility.yul\":1770:1788   */\n      add\n        /* \"#utility.yul\":1762:1788   */\n      swap1\n      pop\n        /* \"#utility.yul\":1798:1869   */\n      tag_87\n        /* \"#utility.yul\":1866:1867   */\n      0x00\n        /* \"#utility.yul\":1855:1864   */\n      dup4\n        /* \"#utility.yul\":1851:1868   */\n      add\n        /* \"#utility.yul\":1842:1848   */\n      dup5\n        /* \"#utility.yul\":1798:1869   */\n      tag_63\n      jump\t// in\n    tag_87:\n        /* \"#utility.yul\":1654:1876   */\n      swap3\n      swap2\n      pop\n      pop\n      jump\t// out\n        /* \"#utility.yul\":1882:2324   */\n    tag_44:\n        /* \"#utility.yul\":2031:2035   */\n      0x00\n        /* \"#utility.yul\":2069:2071   */\n      0x60\n        /* \"#utility.yul\":2058:2067   */\n      dup3\n        /* \"#utility.yul\":2054:2072   */\n      add\n        /* \"#utility.yul\":2046:2072   */\n      swap1\n      pop\n        /* \"#utility.yul\":2082:2153   */\n      tag_89\n        /* \"#utility.yul\":2150:2151   */\n      0x00\n        /* \"#utility.yul\":2139:2148   */\n      dup4\n        /* \"#utility.yul\":2135:2152   */\n      add\n        /* \"#utility.yul\":2126:2132   */\n      dup7\n        /* \"#utility.yul\":2082:2153   */\n      tag_63\n      jump\t// in\n    tag_89:\n        /* \"#utility.yul\":2163:2235   */\n      tag_90\n        /* \"#utility.yul\":2231:2233   */\n      0x20\n        /* \"#utility.yul\":2220:2229   */\n      dup4\n        /* \"#utility.yul\":2216:2234   */\n      add\n        /* \"#utility.yul\":2207:2213   */\n      dup6\n        /* \"#utility.yul\":2163:2235   */\n      tag_63\n      jump\t// in\n    tag_90:\n        /* \"#utility.yul\":2245:2317   */\n      tag_91\n        /* \"#utility.yul\":2313:2315   */\n      0x40\n        /* \"#utility.yul\":2302:2311   */\n      dup4\n        /* \"#utility.yul\":2298:2316   */\n      add\n        /* \"#utility.yul\":2289:2295   */\n      dup5\n        /* \"#utility.yul\":2245:2317   */\n      tag_82\n      jump\t// in\n    tag_91:\n        /* \"#utility.yul\":1882:2324   */\n      swap5\n      swap4\n      pop\n      pop\n      pop\n      pop\n      jump\t// out\n        /* \"#utility.yul\":2330:2576   */\n    tag_18:\n        /* \"#utility.yul\":2435:2439   */\n      0x00\n        /* \"#utility.yul\":2473:2475   */\n      0x20\n        /* \"#utility.yul\":2462:2471   */\n      dup3\n        /* \"#utility.yul\":2458:2476   */\n      add\n        /* \"#utility.yul\":2450:2476   */\n      swap1\n      pop\n        /* \"#utility.yul\":2486:2569   */\n      tag_93\n        /* \"#utility.yul\":2566:2567   */\n      0x00\n        /* \"#utility.yul\":2555:2564   */\n      dup4\n        /* \"#utility.yul\":2551:2568   */\n      add\n        /* \"#utility.yul\":2542:2548   */\n      dup5\n        /* \"#utility.yul\":2486:2569   */\n      tag_67\n      jump\t// in\n    tag_93:\n        /* \"#utility.yul\":2330:2576   */\n      swap3\n      swap2\n      pop\n      pop\n      jump\t// out\n        /* \"#utility.yul\":2582:3001   */\n    tag_52:\n        /* \"#utility.yul\":2748:2752   */\n      0x00\n        /* \"#utility.yul\":2786:2788   */\n      0x20\n        /* \"#utility.yul\":2775:2784   */\n      dup3\n        /* \"#utility.yul\":2771:2789   */\n      add\n        /* \"#utility.yul\":2763:2789   */\n      swap1\n      pop\n        /* \"#utility.yul\":2835:2844   */\n      dup2\n        /* \"#utility.yul\":2829:2833   */\n      dup2\n        /* \"#utility.yul\":2825:2845   */\n      sub\n        /* \"#utility.yul\":2821:2822   */\n      0x00\n        /* \"#utility.yul\":2810:2819   */\n      dup4\n        /* \"#utility.yul\":2806:2823   */\n      add\n        /* \"#utility.yul\":2799:2846   */\n      mstore\n        /* \"#utility.yul\":2863:2994   */\n      tag_95\n        /* \"#utility.yul\":2989:2993   */\n      dup2\n        /* \"#utility.yul\":2863:2994   */\n      tag_71\n      jump\t// in\n    tag_95:\n        /* \"#utility.yul\":2855:2994   */\n      swap1\n      pop\n        /* \"#utility.yul\":2582:3001   */\n      swap2\n      swap1\n      pop\n      jump\t// out\n        /* \"#utility.yul\":3007:3426   */\n    tag_38:\n        /* \"#utility.yul\":3173:3177   */\n      0x00\n        /* \"#utility.yul\":3211:3213   */\n      0x20\n        /* \"#utility.yul\":3200:3209   */\n      dup3\n        /* \"#utility.yul\":3196:3214   */\n      add\n        /* \"#utility.yul\":3188:3214   */\n      swap1\n      pop\n        /* \"#utility.yul\":3260:3269   */\n      dup2\n        /* \"#utility.yul\":3254:3258   */\n      dup2\n        /* \"#utility.yul\":3250:3270   */\n      sub\n        /* \"#utility.yul\":3246:3247   */\n      0x00\n        /* \"#utility.yul\":3235:3244   */\n      dup4\n        /* \"#utility.yul\":3231:3248   */\n      add\n        /* \"#utility.yul\":3224:3271   */\n      mstore\n        /* \"#utility.yul\":3288:3419   */\n      tag_97\n        /* \"#utility.yul\":3414:3418   */\n      dup2\n        /* \"#utility.yul\":3288:3419   */\n      tag_77\n      jump\t// in\n    tag_97:\n        /* \"#utility.yul\":3280:3419   */\n      swap1\n      pop\n        /* \"#utility.yul\":3007:3426   */\n      swap2\n      swap1\n      pop\n      jump\t// out\n        /* \"#utility.yul\":3432:3654   */\n    tag_14:\n        /* \"#utility.yul\":3525:3529   */\n      0x00\n        /* \"#utility.yul\":3563:3565   */\n      0x20\n        /* \"#utility.yul\":3552:3561   */\n      dup3\n        /* \"#utility.yul\":3548:3566   */\n      add\n        /* \"#utility.yul\":3540:3566   */\n      swap1\n      pop\n        /* \"#utility.yul\":3576:3647   */\n      tag_99\n        /* \"#utility.yul\":3644:3645   */\n      0x00\n        /* \"#utility.yul\":3633:3642   */\n      dup4\n        /* \"#utility.yul\":3629:3646   */\n      add\n        /* \"#utility.yul\":3620:3626   */\n      dup5\n        /* \"#utility.yul\":3576:3647   */\n      tag_82\n      jump\t// in\n    tag_99:\n        /* \"#utility.yul\":3432:3654   */\n      swap3\n      swap2\n      pop\n      pop\n      jump\t// out\n        /* \"#utility.yul\":3741:3910   */\n    tag_74:\n        /* \"#utility.yul\":3825:3836   */\n      0x00\n        /* \"#utility.yul\":3859:3865   */\n      dup3\n        /* \"#utility.yul\":3854:3857   */\n      dup3\n        /* \"#utility.yul\":3847:3866   */\n      mstore\n        /* \"#utility.yul\":3899:3903   */\n      0x20\n        /* \"#utility.yul\":3894:3897   */\n      dup3\n        /* \"#utility.yul\":3890:3904   */\n      add\n        /* \"#utility.yul\":3875:3904   */\n      swap1\n      pop\n        /* \"#utility.yul\":3741:3910   */\n      swap3\n      swap2\n      pop\n      pop\n      jump\t// out\n        /* \"#utility.yul\":3916:4012   */\n    tag_66:\n        /* \"#utility.yul\":3953:3960   */\n      0x00\n        /* \"#utility.yul\":3982:4006   */\n      tag_104\n        /* \"#utility.yul\":4000:4005   */\n      dup3\n        /* \"#utility.yul\":3982:4006   */\n      tag_105\n      jump\t// in\n    tag_104:\n        /* \"#utility.yul\":3971:4006   */\n      swap1\n      pop\n        /* \"#utility.yul\":3916:4012   */\n      swap2\n      swap1\n      pop\n      jump\t// out\n        /* \"#utility.yul\":4018:4108   */\n    tag_106:\n        /* \"#utility.yul\":4052:4059   */\n      0x00\n        /* \"#utility.yul\":4095:4100   */\n      dup2\n        /* \"#utility.yul\":4088:4101   */\n      iszero\n        /* \"#utility.yul\":4081:4102   */\n      iszero\n        /* \"#utility.yul\":4070:4102   */\n      swap1\n      pop\n        /* \"#utility.yul\":4018:4108   */\n      swap2\n      swap1\n      pop\n      jump\t// out\n        /* \"#utility.yul\":4114:4240   */\n    tag_105:\n        /* \"#utility.yul\":4151:4158   */\n      0x00\n        /* \"#utility.yul\":4191:4233   */\n      0xffffffffffffffffffffffffffffffffffffffff\n        /* \"#utility.yul\":4184:4189   */\n      dup3\n        /* \"#utility.yul\":4180:4234   */\n      and\n        /* \"#utility.yul\":4169:4234   */\n      swap1\n      pop\n        /* \"#utility.yul\":4114:4240   */\n      swap2\n      swap1\n      pop\n      jump\t// out\n        /* \"#utility.yul\":4246:4323   */\n    tag_85:\n        /* \"#utility.yul\":4283:4290   */\n      0x00\n        /* \"#utility.yul\":4312:4317   */\n      dup2\n        /* \"#utility.yul\":4301:4317   */\n      swap1\n      pop\n        /* \"#utility.yul\":4246:4323   */\n      swap2\n      swap1\n      pop\n      jump\t// out\n        /* \"#utility.yul\":4329:4467   */\n    tag_70:\n        /* \"#utility.yul\":4391:4400   */\n      0x00\n        /* \"#utility.yul\":4424:4461   */\n      tag_111\n        /* \"#utility.yul\":4455:4460   */\n      dup3\n        /* \"#utility.yul\":4424:4461   */\n      tag_112\n      jump\t// in\n    tag_111:\n        /* \"#utility.yul\":4411:4461   */\n      swap1\n      pop\n        /* \"#utility.yul\":4329:4467   */\n      swap2\n      swap1\n      pop\n      jump\t// out\n        /* \"#utility.yul\":4473:4599   */\n    tag_112:\n        /* \"#utility.yul\":4523:4532   */\n      0x00\n        /* \"#utility.yul\":4556:4593   */\n      tag_114\n        /* \"#utility.yul\":4587:4592   */\n      dup3\n        /* \"#utility.yul\":4556:4593   */\n      tag_115\n      jump\t// in\n    tag_114:\n        /* \"#utility.yul\":4543:4593   */\n      swap1\n      pop\n        /* \"#utility.yul\":4473:4599   */\n      swap2\n      swap1\n      pop\n      jump\t// out\n        /* \"#utility.yul\":4605:4718   */\n    tag_115:\n        /* \"#utility.yul\":4655:4664   */\n      0x00\n        /* \"#utility.yul\":4688:4712   */\n      tag_117\n        /* \"#utility.yul\":4706:4711   */\n      dup3\n        /* \"#utility.yul\":4688:4712   */\n      tag_105\n      jump\t// in\n    tag_117:\n        /* \"#utility.yul\":4675:4712   */\n      swap1\n      pop\n        /* \"#utility.yul\":4605:4718   */\n      swap2\n      swap1\n      pop\n      jump\t// out\n        /* \"#utility.yul\":4847:4964   */\n    tag_61:\n        /* \"#utility.yul\":4956:4957   */\n      0x00\n        /* \"#utility.yul\":4953:4954   */\n      dup1\n        /* \"#utility.yul\":4946:4958   */\n      revert\n        /* \"#utility.yul\":4970:5141   */\n    tag_76:\n        /* \"#utility.yul\":5110:5133   */\n      0x546f6b656e207472616e73666572206661696c65640000000000000000000000\n        /* \"#utility.yul\":5106:5107   */\n      0x00\n        /* \"#utility.yul\":5098:5104   */\n      dup3\n        /* \"#utility.yul\":5094:5108   */\n      add\n        /* \"#utility.yul\":5087:5134   */\n      mstore\n        /* \"#utility.yul\":4970:5141   */\n      pop\n      jump\t// out\n        /* \"#utility.yul\":5147:5311   */\n    tag_81:\n        /* \"#utility.yul\":5287:5303   */\n      0x4e6f7420617574686f72697a6564000000000000000000000000000000000000\n        /* \"#utility.yul\":5283:5284   */\n      0x00\n        /* \"#utility.yul\":5275:5281   */\n      dup3\n        /* \"#utility.yul\":5271:5285   */\n      add\n        /* \"#utility.yul\":5264:5304   */\n      mstore\n        /* \"#utility.yul\":5147:5311   */\n      pop\n      jump\t// out\n        /* \"#utility.yul\":5317:5433   */\n    tag_57:\n        /* \"#utility.yul\":5387:5408   */\n      tag_124\n        /* \"#utility.yul\":5402:5407   */\n      dup2\n        /* \"#utility.yul\":5387:5408   */\n      tag_106\n      jump\t// in\n    tag_124:\n        /* \"#utility.yul\":5380:5385   */\n      dup2\n        /* \"#utility.yul\":5377:5409   */\n      eq\n        /* \"#utility.yul\":5367:5427   */\n      tag_125\n      jumpi\n        /* \"#utility.yul\":5423:5424   */\n      0x00\n        /* \"#utility.yul\":5420:5421   */\n      dup1\n        /* \"#utility.yul\":5413:5425   */\n      revert\n        /* \"#utility.yul\":5367:5427   */\n    tag_125:\n        /* \"#utility.yul\":5317:5433   */\n      pop\n      jump\t// out\n\n    auxdata: 0xa2646970667358221220f2db8163fc7d49293b8943d6f1018c9662164227cbfbdce1f3d54343c64007b264736f6c63430008070033\n}\n",
				"bytecode": {
					"linkReferences": {},
					"object": "608060405234801561001057600080fd5b506040516109bf3803806109bf83398181016040528101906100329190610178565b856000806101000a81548173ffffffffffffffffffffffffffffffffffffffff021916908373ffffffffffffffffffffffffffffffffffffffff16021790555084600160006101000a81548173ffffffffffffffffffffffffffffffffffffffff021916908373ffffffffffffffffffffffffffffffffffffffff1602179055508360028190555082600360006101000a81548173ffffffffffffffffffffffffffffffffffffffff021916908373ffffffffffffffffffffffffffffffffffffffff16021790555081600460006101000a81548173ffffffffffffffffffffffffffffffffffffffff021916908373ffffffffffffffffffffffffffffffffffffffff16021790555080600581905550505050505050610274565b60008151905061015d81610246565b92915050565b6000815190506101728161025d565b92915050565b60008060008060008060c0878903121561019557610194610241565b5b60006101a389828a0161014e565b96505060206101b489828a0161014e565b95505060406101c589828a01610163565b94505060606101d689828a0161014e565b93505060806101e789828a0161014e565b92505060a06101f889828a01610163565b9150509295509295509295565b600061021082610217565b9050919050565b600073ffffffffffffffffffffffffffffffffffffffff82169050919050565b6000819050919050565b600080fd5b61024f81610205565b811461025a57600080fd5b50565b61026681610237565b811461027157600080fd5b50565b61073c806102836000396000f3fe608060405234801561001057600080fd5b506004361061007d5760003560e01c8063736889141161005b57806373688914146100dc5780638119c065146100fa578063d21220a714610104578063f400fde4146101225761007d565b8063057bfcc71461008257806325be124e146100a057806352709725146100be575b600080fd5b61008a610140565b60405161009791906105ee565b60405180910390f35b6100a8610146565b6040516100b59190610593565b60405180910390f35b6100c661016c565b6040516100d39190610541565b60405180910390f35b6100e4610192565b6040516100f19190610541565b60405180910390f35b6101026101b8565b005b61010c610388565b6040516101199190610593565b60405180910390f35b61012a6103ac565b60405161013791906105ee565b60405180910390f35b60055481565b600360009054906101000a900473ffffffffffffffffffffffffffffffffffffffff1681565b600460009054906101000a900473ffffffffffffffffffffffffffffffffffffffff1681565b600160009054906101000a900473ffffffffffffffffffffffffffffffffffffffff1681565b600160009054906101000a900473ffffffffffffffffffffffffffffffffffffffff1673ffffffffffffffffffffffffffffffffffffffff163373ffffffffffffffffffffffffffffffffffffffff1614806102615750600460009054906101000a900473ffffffffffffffffffffffffffffffffffffffff1673ffffffffffffffffffffffffffffffffffffffff163373ffffffffffffffffffffffffffffffffffffffff16145b6102a0576040517f08c379a0000000000000000000000000000000000000000000000000000000008152600401610297906105ce565b60405180910390fd5b61031260008054906101000a900473ffffffffffffffffffffffffffffffffffffffff16600160009054906101000a900473ffffffffffffffffffffffffffffffffffffffff16600460009054906101000a900473ffffffffffffffffffffffffffffffffffffffff166002546103b2565b610386600360009054906101000a900473ffffffffffffffffffffffffffffffffffffffff16600460009054906101000a900473ffffffffffffffffffffffffffffffffffffffff16600160009054906101000a900473ffffffffffffffffffffffffffffffffffffffff166005546103b2565b565b60008054906101000a900473ffffffffffffffffffffffffffffffffffffffff1681565b60025481565b60008473ffffffffffffffffffffffffffffffffffffffff166323b872dd8585856040518463ffffffff1660e01b81526004016103f19392919061055c565b602060405180830381600087803b15801561040b57600080fd5b505af115801561041f573d6000803e3d6000fd5b505050506040513d601f19601f8201168201806040525081019061044391906104a1565b905080610485576040517f08c379a000000000000000000000000000000000000000000000000000000000815260040161047c906105ae565b60405180910390fd5b5050505050565b60008151905061049b816106ef565b92915050565b6000602082840312156104b7576104b6610698565b5b60006104c58482850161048c565b91505092915050565b6104d78161061a565b82525050565b6104e681610662565b82525050565b60006104f9601583610609565b91506105048261069d565b602082019050919050565b600061051c600e83610609565b9150610527826106c6565b602082019050919050565b61053b81610658565b82525050565b600060208201905061055660008301846104ce565b92915050565b600060608201905061057160008301866104ce565b61057e60208301856104ce565b61058b6040830184610532565b949350505050565b60006020820190506105a860008301846104dd565b92915050565b600060208201905081810360008301526105c7816104ec565b9050919050565b600060208201905081810360008301526105e78161050f565b9050919050565b60006020820190506106036000830184610532565b92915050565b600082825260208201905092915050565b600061062582610638565b9050919050565b60008115159050919050565b600073ffffffffffffffffffffffffffffffffffffffff82169050919050565b6000819050919050565b600061066d82610674565b9050919050565b600061067f82610686565b9050919050565b600061069182610638565b9050919050565b600080fd5b7f546f6b656e207472616e73666572206661696c65640000000000000000000000600082015250565b7f4e6f7420617574686f72697a6564000000000000000000000000000000000000600082015250565b6106f88161062c565b811461070357600080fd5b5056fea2646970667358221220f2db8163fc7d49293b8943d6f1018c9662164227cbfbdce1f3d54343c64007b264736f6c63430008070033",
					"opcodes": "PUSH1 0x80 PUSH1 0x40 MSTORE CALLVALUE DUP1 ISZERO PUSH2 0x10 JUMPI PUSH1 0x0 DUP1 REVERT JUMPDEST POP PUSH1 0x40 MLOAD PUSH2 0x9BF CODESIZE SUB DUP1 PUSH2 0x9BF DUP4 CODECOPY DUP2 DUP2 ADD PUSH1 0x40 MSTORE DUP2 ADD SWAP1 PUSH2 0x32 SWAP2 SWAP1 PUSH2 0x178 JUMP JUMPDEST DUP6 PUSH1 0x0 DUP1 PUSH2 0x100 EXP DUP2 SLOAD DUP2 PUSH20 0xFFFFFFFFFFFFFFFFFFFFFFFFFFFFFFFFFFFFFFFF MUL NOT AND SWAP1 DUP4 PUSH20 0xFFFFFFFFFFFFFFFFFFFFFFFFFFFFFFFFFFFFFFFF AND MUL OR SWAP1 SSTORE POP DUP5 PUSH1 0x1 PUSH1 0x0 PUSH2 0x100 EXP DUP2 SLOAD DUP2 PUSH20 0xFFFFFFFFFFFFFFFFFFFFFFFFFFFFFFFFFFFFFFFF MUL NOT AND SWAP1 DUP4 PUSH20 0xFFFFFFFFFFFFFFFFFFFFFFFFFFFFFFFFFFFFFFFF AND MUL OR SWAP1 SSTORE POP DUP4 PUSH1 0x2 DUP2 SWAP1 SSTORE POP DUP3 PUSH1 0x3 PUSH1 0x0 PUSH2 0x100 EXP DUP2 SLOAD DUP2 PUSH20 0xFFFFFFFFFFFFFFFFFFFFFFFFFFFFFFFFFFFFFFFF MUL NOT AND SWAP1 DUP4 PUSH20 0xFFFFFFFFFFFFFFFFFFFFFFFFFFFFFFFFFFFFFFFF AND MUL OR SWAP1 SSTORE POP DUP2 PUSH1 0x4 PUSH1 0x0 PUSH2 0x100 EXP DUP2 SLOAD DUP2 PUSH20 0xFFFFFFFFFFFFFFFFFFFFFFFFFFFFFFFFFFFFFFFF MUL NOT AND SWAP1 DUP4 PUSH20 0xFFFFFFFFFFFFFFFFFFFFFFFFFFFFFFFFFFFFFFFF AND MUL OR SWAP1 SSTORE POP DUP1 PUSH1 0x5 DUP2 SWAP1 SSTORE POP POP POP POP POP POP POP PUSH2 0x274 JUMP JUMPDEST PUSH1 0x0 DUP2 MLOAD SWAP1 POP PUSH2 0x15D DUP2 PUSH2 0x246 JUMP JUMPDEST SWAP3 SWAP2 POP POP JUMP JUMPDEST PUSH1 0x0 DUP2 MLOAD SWAP1 POP PUSH2 0x172 DUP2 PUSH2 0x25D JUMP JUMPDEST SWAP3 SWAP2 POP POP JUMP JUMPDEST PUSH1 0x0 DUP1 PUSH1 0x0 DUP1 PUSH1 0x0 DUP1 PUSH1 0xC0 DUP8 DUP10 SUB SLT ISZERO PUSH2 0x195 JUMPI PUSH2 0x194 PUSH2 0x241 JUMP JUMPDEST JUMPDEST PUSH1 0x0 PUSH2 0x1A3 DUP10 DUP3 DUP11 ADD PUSH2 0x14E JUMP JUMPDEST SWAP7 POP POP PUSH1 0x20 PUSH2 0x1B4 DUP10 DUP3 DUP11 ADD PUSH2 0x14E JUMP JUMPDEST SWAP6 POP POP PUSH1 0x40 PUSH2 0x1C5 DUP10 DUP3 DUP11 ADD PUSH2 0x163 JUMP JUMPDEST SWAP5 POP POP PUSH1 0x60 PUSH2 0x1D6 DUP10 DUP3 DUP11 ADD PUSH2 0x14E JUMP JUMPDEST SWAP4 POP POP PUSH1 0x80 PUSH2 0x1E7 DUP10 DUP3 DUP11 ADD PUSH2 0x14E JUMP JUMPDEST SWAP3 POP POP PUSH1 0xA0 PUSH2 0x1F8 DUP10 DUP3 DUP11 ADD PUSH2 0x163 JUMP JUMPDEST SWAP2 POP POP SWAP3 SWAP6 POP SWAP3 SWAP6 POP SWAP3 SWAP6 JUMP JUMPDEST PUSH1 0x0 PUSH2 0x210 DUP3 PUSH2 0x217 JUMP JUMPDEST SWAP1 POP SWAP2 SWAP1 POP JUMP JUMPDEST PUSH1 0x0 PUSH20 0xFFFFFFFFFFFFFFFFFFFFFFFFFFFFFFFFFFFFFFFF DUP3 AND SWAP1 POP SWAP2 SWAP1 POP JUMP JUMPDEST PUSH1 0x0 DUP2 SWAP1 POP SWAP2 SWAP1 POP JUMP JUMPDEST PUSH1 0x0 DUP1 REVERT JUMPDEST PUSH2 0x24F DUP2 PUSH2 0x205 JUMP JUMPDEST DUP2 EQ PUSH2 0x25A JUMPI PUSH1 0x0 DUP1 REVERT JUMPDEST POP JUMP JUMPDEST PUSH2 0x266 DUP2 PUSH2 0x237 JUMP JUMPDEST DUP2 EQ PUSH2 0x271 JUMPI PUSH1 0x0 DUP1 REVERT JUMPDEST POP JUMP JUMPDEST PUSH2 0x73C DUP1 PUSH2 0x283 PUSH1 0x0 CODECOPY PUSH1 0x0 RETURN INVALID PUSH1 0x80 PUSH1 0x40 MSTORE CALLVALUE DUP1 ISZERO PUSH2 0x10 JUMPI PUSH1 0x0 DUP1 REVERT JUMPDEST POP PUSH1 0x4 CALLDATASIZE LT PUSH2 0x7D JUMPI PUSH1 0x0 CALLDATALOAD PUSH1 0xE0 SHR DUP1 PUSH4 0x73688914 GT PUSH2 0x5B JUMPI DUP1 PUSH4 0x73688914 EQ PUSH2 0xDC JUMPI DUP1 PUSH4 0x8119C065 EQ PUSH2 0xFA JUMPI DUP1 PUSH4 0xD21220A7 EQ PUSH2 0x104 JUMPI DUP1 PUSH4 0xF400FDE4 EQ PUSH2 0x122 JUMPI PUSH2 0x7D JUMP JUMPDEST DUP1 PUSH4 0x57BFCC7 EQ PUSH2 0x82 JUMPI DUP1 PUSH4 0x25BE124E EQ PUSH2 0xA0 JUMPI DUP1 PUSH4 0x52709725 EQ PUSH2 0xBE JUMPI JUMPDEST PUSH1 0x0 DUP1 REVERT JUMPDEST PUSH2 0x8A PUSH2 0x140 JUMP JUMPDEST PUSH1 0x40 MLOAD PUSH2 0x97 SWAP2 SWAP1 PUSH2 0x5EE JUMP JUMPDEST PUSH1 0x40 MLOAD DUP1 SWAP2 SUB SWAP1 RETURN JUMPDEST PUSH2 0xA8 PUSH2 0x146 JUMP JUMPDEST PUSH1 0x40 MLOAD PUSH2 0xB5 SWAP2 SWAP1 PUSH2 0x593 JUMP JUMPDEST PUSH1 0x40 MLOAD DUP1 SWAP2 SUB SWAP1 RETURN JUMPDEST PUSH2 0xC6 PUSH2 0x16C JUMP JUMPDEST PUSH1 0x40 MLOAD PUSH2 0xD3 SWAP2 SWAP1 PUSH2 0x541 JUMP JUMPDEST PUSH1 0x40 MLOAD DUP1 SWAP2 SUB SWAP1 RETURN JUMPDEST PUSH2 0xE4 PUSH2 0x192 JUMP JUMPDEST PUSH1 0x40 MLOAD PUSH2 0xF1 SWAP2 SWAP1 PUSH2 0x541 JUMP JUMPDEST PUSH1 0x40 MLOAD DUP1 SWAP2 SUB SWAP1 RETURN JUMPDEST PUSH2 0x102 PUSH2 0x1B8 JUMP JUMPDEST STOP JUMPDEST PUSH2 0x10C PUSH2 0x388 JUMP JUMPDEST PUSH1 0x40 MLOAD PUSH2 0x119 SWAP2 SWAP1 PUSH2 0x593 JUMP JUMPDEST PUSH1 0x40 MLOAD DUP1 SWAP2 SUB SWAP1 RETURN JUMPDEST PUSH2 0x12A PUSH2 0x3AC JUMP JUMPDEST PUSH1 0x40 MLOAD PUSH2 0x137 SWAP2 SWAP1 PUSH2 0x5EE JUMP JUMPDEST PUSH1 0x40 MLOAD DUP1 SWAP2 SUB SWAP1 RETURN JUMPDEST PUSH1 0x5 SLOAD DUP2 JUMP JUMPDEST PUSH1 0x3 PUSH1 0x0 SWAP1 SLOAD SWAP1 PUSH2 0x100 EXP SWAP1 DIV PUSH20 0xFFFFFFFFFFFFFFFFFFFFFFFFFFFFFFFFFFFFFFFF AND DUP2 JUMP JUMPDEST PUSH1 0x4 PUSH1 0x0 SWAP1 SLOAD SWAP1 PUSH2 0x100 EXP SWAP1 DIV PUSH20 0xFFFFFFFFFFFFFFFFFFFFFFFFFFFFFFFFFFFFFFFF AND DUP2 JUMP JUMPDEST PUSH1 0x1 PUSH1 0x0 SWAP1 SLOAD SWAP1 PUSH2 0x100 EXP SWAP1 DIV PUSH20 0xFFFFFFFFFFFFFFFFFFFFFFFFFFFFFFFFFFFFFFFF AND DUP2 JUMP JUMPDEST PUSH1 0x1 PUSH1 0x0 SWAP1 SLOAD SWAP1 PUSH2 0x100 EXP SWAP1 DIV PUSH20 0xFFFFFFFFFFFFFFFFFFFFFFFFFFFFFFFFFFFFFFFF AND PUSH20 0xFFFFFFFFFFFFFFFFFFFFFFFFFFFFFFFFFFFFFFFF AND CALLER PUSH20 0xFFFFFFFFFFFFFFFFFFFFFFFFFFFFFFFFFFFFFFFF AND EQ DUP1 PUSH2 0x261 JUMPI POP PUSH1 0x4 PUSH1 0x0 SWAP1 SLOAD SWAP1 PUSH2 0x100 EXP SWAP1 DIV PUSH20 0xFFFFFFFFFFFFFFFFFFFFFFFFFFFFFFFFFFFFFFFF AND PUSH20 0xFFFFFFFFFFFFFFFFFFFFFFFFFFFFFFFFFFFFFFFF AND CALLER PUSH20 0xFFFFFFFFFFFFFFFFFFFFFFFFFFFFFFFFFFFFFFFF AND EQ JUMPDEST PUSH2 0x2A0 JUMPI PUSH1 0x40 MLOAD PUSH32 0x8C379A000000000000000000000000000000000000000000000000000000000 DUP2 MSTORE PUSH1 0x4 ADD PUSH2 0x297 SWAP1 PUSH2 0x5CE JUMP JUMPDEST PUSH1 0x40 MLOAD DUP1 SWAP2 SUB SWAP1 REVERT JUMPDEST PUSH2 0x312 PUSH1 0x0 DUP1 SLOAD SWAP1 PUSH2 0x100 EXP SWAP1 DIV PUSH20 0xFFFFFFFFFFFFFFFFFFFFFFFFFFFFFFFFFFFFFFFF AND PUSH1 0x1 PUSH1 0x0 SWAP1 SLOAD SWAP1 PUSH2 0x100 EXP SWAP1 DIV PUSH20 0xFFFFFFFFFFFFFFFFFFFFFFFFFFFFFFFFFFFFFFFF AND PUSH1 0x4 PUSH1 0x0 SWAP1 SLOAD SWAP1 PUSH2 0x100 EXP SWAP1 DIV PUSH20 0xFFFFFFFFFFFFFFFFFFFFFFFFFFFFFFFFFFFFFFFF AND PUSH1 0x2 SLOAD PUSH2 0x3B2 JUMP JUMPDEST PUSH2 0x386 PUSH1 0x3 PUSH1 0x0 SWAP1 SLOAD SWAP1 PUSH2 0x100 EXP SWAP1 DIV PUSH20 0xFFFFFFFFFFFFFFFFFFFFFFFFFFFFFFFFFFFFFFFF AND PUSH1 0x4 PUSH1 0x0 SWAP1 SLOAD SWAP1 PUSH2 0x100 EXP SWAP1 DIV PUSH20 0xFFFFFFFFFFFFFFFFFFFFFFFFFFFFFFFFFFFFFFFF AND PUSH1 0x1 PUSH1 0x0 SWAP1 SLOAD SWAP1 PUSH2 0x100 EXP SWAP1 DIV PUSH20 0xFFFFFFFFFFFFFFFFFFFFFFFFFFFFFFFFFFFFFFFF AND PUSH1 0x5 SLOAD PUSH2 0x3B2 JUMP JUMPDEST JUMP JUMPDEST PUSH1 0x0 DUP1 SLOAD SWAP1 PUSH2 0x100 EXP SWAP1 DIV PUSH20 0xFFFFFFFFFFFFFFFFFFFFFFFFFFFFFFFFFFFFFFFF AND DUP2 JUMP JUMPDEST PUSH1 0x2 SLOAD DUP2 JUMP JUMPDEST PUSH1 0x0 DUP5 PUSH20 0xFFFFFFFFFFFFFFFFFFFFFFFFFFFFFFFFFFFFFFFF AND PUSH4 0x23B872DD DUP6 DUP6 DUP6 PUSH1 0x40 MLOAD DUP5 PUSH4 0xFFFFFFFF AND PUSH1 0xE0 SHL DUP2 MSTORE PUSH1 0x4 ADD PUSH2 0x3F1 SWAP4 SWAP3 SWAP2 SWAP1 PUSH2 0x55C JUMP JUMPDEST PUSH1 0x20 PUSH1 0x40 MLOAD DUP1 DUP4 SUB DUP2 PUSH1 0x0 DUP8 DUP1 EXTCODESIZE ISZERO DUP1 ISZERO PUSH2 0x40B JUMPI PUSH1 0x0 DUP1 REVERT JUMPDEST POP GAS CALL ISZERO DUP1 ISZERO PUSH2 0x41F JUMPI RETURNDATASIZE PUSH1 0x0 DUP1 RETURNDATACOPY RETURNDATASIZE PUSH1 0x0 REVERT JUMPDEST POP POP POP POP PUSH1 0x40 MLOAD RETURNDATASIZE PUSH1 0x1F NOT PUSH1 0x1F DUP3 ADD AND DUP3 ADD DUP1 PUSH1 0x40 MSTORE POP DUP2 ADD SWAP1 PUSH2 0x443 SWAP2 SWAP1 PUSH2 0x4A1 JUMP JUMPDEST SWAP1 POP DUP1 PUSH2 0x485 JUMPI PUSH1 0x40 MLOAD PUSH32 0x8C379A000000000000000000000000000000000000000000000000000000000 DUP2 MSTORE PUSH1 0x4 ADD PUSH2 0x47C SWAP1 PUSH2 0x5AE JUMP JUMPDEST PUSH1 0x40 MLOAD DUP1 SWAP2 SUB SWAP1 REVERT JUMPDEST POP POP POP POP POP JUMP JUMPDEST PUSH1 0x0 DUP2 MLOAD SWAP1 POP PUSH2 0x49B DUP2 PUSH2 0x6EF JUMP JUMPDEST SWAP3 SWAP2 POP POP JUMP JUMPDEST PUSH1 0x0 PUSH1 0x20 DUP3 DUP5 SUB SLT ISZERO PUSH2 0x4B7 JUMPI PUSH2 0x4B6 PUSH2 0x698 JUMP JUMPDEST JUMPDEST PUSH1 0x0 PUSH2 0x4C5 DUP5 DUP3 DUP6 ADD PUSH2 0x48C JUMP JUMPDEST SWAP2 POP POP SWAP3 SWAP2 POP POP JUMP JUMPDEST PUSH2 0x4D7 DUP2 PUSH2 0x61A JUMP JUMPDEST DUP3 MSTORE POP POP JUMP JUMPDEST PUSH2 0x4E6 DUP2 PUSH2 0x662 JUMP JUMPDEST DUP3 MSTORE POP POP JUMP JUMPDEST PUSH1 0x0 PUSH2 0x4F9 PUSH1 0x15 DUP4 PUSH2 0x609 JUMP JUMPDEST SWAP2 POP PUSH2 0x504 DUP3 PUSH2 0x69D JUMP JUMPDEST PUSH1 0x20 DUP3 ADD SWAP1 POP SWAP2 SWAP1 POP JUMP JUMPDEST PUSH1 0x0 PUSH2 0x51C PUSH1 0xE DUP4 PUSH2 0x609 JUMP JUMPDEST SWAP2 POP PUSH2 0x527 DUP3 PUSH2 0x6C6 JUMP JUMPDEST PUSH1 0x20 DUP3 ADD SWAP1 POP SWAP2 SWAP1 POP JUMP JUMPDEST PUSH2 0x53B DUP2 PUSH2 0x658 JUMP JUMPDEST DUP3 MSTORE POP POP JUMP JUMPDEST PUSH1 0x0 PUSH1 0x20 DUP3 ADD SWAP1 POP PUSH2 0x556 PUSH1 0x0 DUP4 ADD DUP5 PUSH2 0x4CE JUMP JUMPDEST SWAP3 SWAP2 POP POP JUMP JUMPDEST PUSH1 0x0 PUSH1 0x60 DUP3 ADD SWAP1 POP PUSH2 0x571 PUSH1 0x0 DUP4 ADD DUP7 PUSH2 0x4CE JUMP JUMPDEST PUSH2 0x57E PUSH1 0x20 DUP4 ADD DUP6 PUSH2 0x4CE JUMP JUMPDEST PUSH2 0x58B PUSH1 0x40 DUP4 ADD DUP5 PUSH2 0x532 JUMP JUMPDEST SWAP5 SWAP4 POP POP POP POP JUMP JUMPDEST PUSH1 0x0 PUSH1 0x20 DUP3 ADD SWAP1 POP PUSH2 0x5A8 PUSH1 0x0 DUP4 ADD DUP5 PUSH2 0x4DD JUMP JUMPDEST SWAP3 SWAP2 POP POP JUMP JUMPDEST PUSH1 0x0 PUSH1 0x20 DUP3 ADD SWAP1 POP DUP2 DUP2 SUB PUSH1 0x0 DUP4 ADD MSTORE PUSH2 0x5C7 DUP2 PUSH2 0x4EC JUMP JUMPDEST SWAP1 POP SWAP2 SWAP1 POP JUMP JUMPDEST PUSH1 0x0 PUSH1 0x20 DUP3 ADD SWAP1 POP DUP2 DUP2 SUB PUSH1 0x0 DUP4 ADD MSTORE PUSH2 0x5E7 DUP2 PUSH2 0x50F JUMP JUMPDEST SWAP1 POP SWAP2 SWAP1 POP JUMP JUMPDEST PUSH1 0x0 PUSH1 0x20 DUP3 ADD SWAP1 POP PUSH2 0x603 PUSH1 0x0 DUP4 ADD DUP5 PUSH2 0x532 JUMP JUMPDEST SWAP3 SWAP2 POP POP JUMP JUMPDEST PUSH1 0x0 DUP3 DUP3 MSTORE PUSH1 0x20 DUP3 ADD SWAP1 POP SWAP3 SWAP2 POP POP JUMP JUMPDEST PUSH1 0x0 PUSH2 0x625 DUP3 PUSH2 0x638 JUMP JUMPDEST SWAP1 POP SWAP2 SWAP1 POP JUMP JUMPDEST PUSH1 0x0 DUP2 ISZERO ISZERO SWAP1 POP SWAP2 SWAP1 POP JUMP JUMPDEST PUSH1 0x0 PUSH20 0xFFFFFFFFFFFFFFFFFFFFFFFFFFFFFFFFFFFFFFFF DUP3 AND SWAP1 POP SWAP2 SWAP1 POP JUMP JUMPDEST PUSH1 0x0 DUP2 SWAP1 POP SWAP2 SWAP1 POP JUMP JUMPDEST PUSH1 0x0 PUSH2 0x66D DUP3 PUSH2 0x674 JUMP JUMPDEST SWAP1 POP SWAP2 SWAP1 POP JUMP JUMPDEST PUSH1 0x0 PUSH2 0x67F DUP3 PUSH2 0x686 JUMP JUMPDEST SWAP1 POP SWAP2 SWAP1 POP JUMP JUMPDEST PUSH1 0x0 PUSH2 0x691 DUP3 PUSH2 0x638 JUMP JUMPDEST SWAP1 POP SWAP2 SWAP1 POP JUMP JUMPDEST PUSH1 0x0 DUP1 REVERT JUMPDEST PUSH32 0x546F6B656E207472616E73666572206661696C65640000000000000000000000 PUSH1 0x0 DUP3 ADD MSTORE POP JUMP JUMPDEST PUSH32 0x4E6F7420617574686F72697A6564000000000000000000000000000000000000 PUSH1 0x0 DUP3 ADD MSTORE POP JUMP JUMPDEST PUSH2 0x6F8 DUP2 PUSH2 0x62C JUMP JUMPDEST DUP2 EQ PUSH2 0x703 JUMPI PUSH1 0x0 DUP1 REVERT JUMPDEST POP JUMP INVALID LOG2 PUSH5 0x6970667358 0x22 SLT KECCAK256 CALLCODE 0xDB DUP2 PUSH4 0xFC7D4929 EXTCODESIZE DUP10 NUMBER 0xD6 CALL ADD DUP13 SWAP7 PUSH3 0x164227 0xCB 0xFB 0xDC 0xE1 RETURN 0xD5 NUMBER NUMBER 0xC6 BLOCKHASH SMOD 0xB2 PUSH5 0x736F6C6343 STOP ADDMOD SMOD STOP CALLER "
				},
				"gasEstimates": {
					"creation": {
						"codeDepositCost": "370400",
						"executionCost": "infinite",
						"totalCost": "infinite"
					},
					"external": {
						"amount1()": "2495",
						"amount2()": "2430",
						"owner1()": "2514",
						"owner2()": "2559",
						"swap()": "infinite",
						"token1()": "2641",
						"token2()": "2623"
					},
					"internal": {
						"_safeTransferFrom(contract ERC20,address,address,uint256)": "infinite"
					}
				},
				"methodIdentifiers": {
					"amount1()": "f400fde4",
					"amount2()": "057bfcc7",
					"owner1()": "73688914",
					"owner2()": "52709725",
					"swap()": "8119c065",
					"token1()": "d21220a7",
					"token2()": "25be124e"
				}
			},
			"userdoc": {
				"kind": "user",
				"methods": {},
				"version": 1
			}
		}
	}
}