{
	"contracts/ERC20.sol": {
		"ERC20": {
			"abi": [
				{
					"anonymous": false,
					"inputs": [
						{
							"indexed": true,
							"internalType": "address",
							"name": "owner",
							"type": "address"
						},
						{
							"indexed": true,
							"internalType": "address",
							"name": "spender",
							"type": "address"
						},
						{
							"indexed": false,
							"internalType": "uint256",
							"name": "value",
							"type": "uint256"
						}
					],
					"name": "Approval",
					"type": "event"
				},
				{
					"anonymous": false,
					"inputs": [
						{
							"indexed": true,
							"internalType": "address",
							"name": "from",
							"type": "address"
						},
						{
							"indexed": true,
							"internalType": "address",
							"name": "to",
							"type": "address"
						},
						{
							"indexed": false,
							"internalType": "uint256",
							"name": "value",
							"type": "uint256"
						}
					],
					"name": "Transfer",
					"type": "event"
				},
				{
					"inputs": [
						{
							"internalType": "address",
							"name": "spender",
							"type": "address"
						},
						{
							"internalType": "uint256",
							"name": "amount",
							"type": "uint256"
						}
					],
					"name": "approve",
					"outputs": [
						{
							"internalType": "bool",
							"name": "",
							"type": "bool"
						}
					],
					"stateMutability": "nonpayable",
					"type": "function"
				},
				{
					"inputs": [
						{
							"internalType": "uint256",
							"name": "amount",
							"type": "uint256"
						}
					],
					"name": "burn",
					"outputs": [],
					"stateMutability": "nonpayable",
					"type": "function"
				},
				{
					"inputs": [
						{
							"internalType": "uint256",
							"name": "amount",
							"type": "uint256"
						}
					],
					"name": "mint",
					"outputs": [],
					"stateMutability": "nonpayable",
					"type": "function"
				},
				{
					"inputs": [
						{
							"internalType": "address",
							"name": "recipient",
							"type": "address"
						},
						{
							"internalType": "uint256",
							"name": "amount",
							"type": "uint256"
						}
					],
					"name": "transfer",
					"outputs": [
						{
							"internalType": "bool",
							"name": "",
							"type": "bool"
						}
					],
					"stateMutability": "nonpayable",
					"type": "function"
				},
				{
					"inputs": [
						{
							"internalType": "address",
							"name": "sender",
							"type": "address"
						},
						{
							"internalType": "address",
							"name": "recipient",
							"type": "address"
						},
						{
							"internalType": "uint256",
							"name": "amount",
							"type": "uint256"
						}
					],
					"name": "transferFrom",
					"outputs": [
						{
							"internalType": "bool",
							"name": "",
							"type": "bool"
						}
					],
					"stateMutability": "nonpayable",
					"type": "function"
				}
			],
			"devdoc": {
				"kind": "dev",
				"methods": {},
				"version": 1
			},
			"evm": {
				"assembly": "    /* \"contracts/ERC20.sol\":89:1510  contract ERC20 is IERC20 {... */\n  mstore(0x40, 0x80)\n    /* \"contracts/ERC20.sol\":250:285  string name = \"Solidity by Example\" */\n  mload(0x40)\n  dup1\n  0x40\n  add\n  0x40\n  mstore\n  dup1\n  0x13\n  dup2\n  mstore\n  0x20\n  add\n  0x536f6c6964697479206279204578616d706c6500000000000000000000000000\n  dup2\n  mstore\n  pop\n  0x03\n  swap1\n  dup1\n  mload\n  swap1\n  0x20\n  add\n  swap1\n  tag_1\n  swap3\n  swap2\n  swap1\n  tag_2\n  jump\t// in\ntag_1:\n  pop\n    /* \"contracts/ERC20.sol\":291:316  string symbol = \"SOLBYEX\" */\n  mload(0x40)\n  dup1\n  0x40\n  add\n  0x40\n  mstore\n  dup1\n  0x07\n  dup2\n  mstore\n  0x20\n  add\n  0x534f4c4259455800000000000000000000000000000000000000000000000000\n  dup2\n  mstore\n  pop\n  0x04\n  swap1\n  dup1\n  mload\n  swap1\n  0x20\n  add\n  swap1\n  tag_3\n  swap3\n  swap2\n  swap1\n  tag_2\n  jump\t// in\ntag_3:\n  pop\n    /* \"contracts/ERC20.sol\":340:341  2 */\n  0x02\n    /* \"contracts/ERC20.sol\":322:341  uint8  decimals = 2 */\n  0x05\n  exp(0x0100, 0x00)\n  dup2\n  sload\n  dup2\n  0xff\n  mul\n  not\n  and\n  swap1\n  dup4\n  0xff\n  and\n  mul\n  or\n  swap1\n  sstore\n  pop\n    /* \"contracts/ERC20.sol\":89:1510  contract ERC20 is IERC20 {... */\n  callvalue\n  dup1\n  iszero\n  tag_4\n  jumpi\n  0x00\n  dup1\n  revert\ntag_4:\n  pop\n  jump(tag_5)\ntag_2:\n  dup3\n  dup1\n  sload\n  tag_6\n  swap1\n  tag_7\n  jump\t// in\ntag_6:\n  swap1\n  0x00\n  mstore\n  keccak256(0x00, 0x20)\n  swap1\n  0x1f\n  add\n  0x20\n  swap1\n  div\n  dup2\n  add\n  swap3\n  dup3\n  tag_9\n  jumpi\n  0x00\n  dup6\n  sstore\n  jump(tag_8)\ntag_9:\n  dup3\n  0x1f\n  lt\n  tag_10\n  jumpi\n  dup1\n  mload\n  not(0xff)\n  and\n  dup4\n  dup1\n  add\n  or\n  dup6\n  sstore\n  jump(tag_8)\ntag_10:\n  dup3\n  dup1\n  add\n  0x01\n  add\n  dup6\n  sstore\n  dup3\n  iszero\n  tag_8\n  jumpi\n  swap2\n  dup3\n  add\ntag_11:\n  dup3\n  dup2\n  gt\n  iszero\n  tag_12\n  jumpi\n  dup3\n  mload\n  dup3\n  sstore\n  swap2\n  0x20\n  add\n  swap2\n  swap1\n  0x01\n  add\n  swap1\n  jump(tag_11)\ntag_12:\ntag_8:\n  pop\n  swap1\n  pop\n  tag_13\n  swap2\n  swap1\n  tag_14\n  jump\t// in\ntag_13:\n  pop\n  swap1\n  jump\t// out\ntag_14:\ntag_15:\n  dup1\n  dup3\n  gt\n  iszero\n  tag_16\n  jumpi\n  0x00\n  dup2\n  0x00\n  swap1\n  sstore\n  pop\n  0x01\n  add\n  jump(tag_15)\ntag_16:\n  pop\n  swap1\n  jump\t// out\n    /* \"#utility.yul\":7:327   */\ntag_7:\n    /* \"#utility.yul\":51:57   */\n  0x00\n    /* \"#utility.yul\":88:89   */\n  0x02\n    /* \"#utility.yul\":82:86   */\n  dup3\n    /* \"#utility.yul\":78:90   */\n  div\n    /* \"#utility.yul\":68:90   */\n  swap1\n  pop\n    /* \"#utility.yul\":135:136   */\n  0x01\n    /* \"#utility.yul\":129:133   */\n  dup3\n    /* \"#utility.yul\":125:137   */\n  and\n    /* \"#utility.yul\":156:174   */\n  dup1\n    /* \"#utility.yul\":146:227   */\n  tag_19\n  jumpi\n    /* \"#utility.yul\":212:216   */\n  0x7f\n    /* \"#utility.yul\":204:210   */\n  dup3\n    /* \"#utility.yul\":200:217   */\n  and\n    /* \"#utility.yul\":190:217   */\n  swap2\n  pop\n    /* \"#utility.yul\":146:227   */\ntag_19:\n    /* \"#utility.yul\":274:276   */\n  0x20\n    /* \"#utility.yul\":266:272   */\n  dup3\n    /* \"#utility.yul\":263:277   */\n  lt\n    /* \"#utility.yul\":243:261   */\n  dup2\n    /* \"#utility.yul\":240:278   */\n  eq\n    /* \"#utility.yul\":237:321   */\n  iszero\n  tag_20\n  jumpi\n    /* \"#utility.yul\":293:311   */\n  tag_21\n  tag_22\n  jump\t// in\ntag_21:\n    /* \"#utility.yul\":237:321   */\ntag_20:\n    /* \"#utility.yul\":58:327   */\n  pop\n    /* \"#utility.yul\":7:327   */\n  swap2\n  swap1\n  pop\n  jump\t// out\n    /* \"#utility.yul\":333:513   */\ntag_22:\n    /* \"#utility.yul\":381:458   */\n  0x4e487b7100000000000000000000000000000000000000000000000000000000\n    /* \"#utility.yul\":378:379   */\n  0x00\n    /* \"#utility.yul\":371:459   */\n  mstore\n    /* \"#utility.yul\":478:482   */\n  0x22\n    /* \"#utility.yul\":475:476   */\n  0x04\n    /* \"#utility.yul\":468:483   */\n  mstore\n    /* \"#utility.yul\":502:506   */\n  0x24\n    /* \"#utility.yul\":499:500   */\n  0x00\n    /* \"#utility.yul\":492:507   */\n  revert\n    /* \"contracts/ERC20.sol\":89:1510  contract ERC20 is IERC20 {... */\ntag_5:\n  dataSize(sub_0)\n  dup1\n  dataOffset(sub_0)\n  0x00\n  codecopy\n  0x00\n  return\nstop\n\nsub_0: assembly {\n        /* \"contracts/ERC20.sol\":89:1510  contract ERC20 is IERC20 {... */\n      mstore(0x40, 0x80)\n      callvalue\n      dup1\n      iszero\n      tag_1\n      jumpi\n      0x00\n      dup1\n      revert\n    tag_1:\n      pop\n      jumpi(tag_2, lt(calldatasize, 0x04))\n      shr(0xe0, calldataload(0x00))\n      dup1\n      0x095ea7b3\n      eq\n      tag_3\n      jumpi\n      dup1\n      0x23b872dd\n      eq\n      tag_4\n      jumpi\n      dup1\n      0x42966c68\n      eq\n      tag_5\n      jumpi\n      dup1\n      0xa0712d68\n      eq\n      tag_6\n      jumpi\n      dup1\n      0xa9059cbb\n      eq\n      tag_7\n      jumpi\n    tag_2:\n      0x00\n      dup1\n      revert\n        /* \"contracts/ERC20.sol\":607:814  function approve(address spender, uint amount) public override returns (bool) {... */\n    tag_3:\n      tag_8\n      0x04\n      dup1\n      calldatasize\n      sub\n      dup2\n      add\n      swap1\n      tag_9\n      swap2\n      swap1\n      tag_10\n      jump\t// in\n    tag_9:\n      tag_11\n      jump\t// in\n    tag_8:\n      mload(0x40)\n      tag_12\n      swap2\n      swap1\n      tag_13\n      jump\t// in\n    tag_12:\n      mload(0x40)\n      dup1\n      swap2\n      sub\n      swap1\n      return\n        /* \"contracts/ERC20.sol\":820:1155  function transferFrom(... */\n    tag_4:\n      tag_14\n      0x04\n      dup1\n      calldatasize\n      sub\n      dup2\n      add\n      swap1\n      tag_15\n      swap2\n      swap1\n      tag_16\n      jump\t// in\n    tag_15:\n      tag_17\n      jump\t// in\n    tag_14:\n      mload(0x40)\n      tag_18\n      swap2\n      swap1\n      tag_13\n      jump\t// in\n    tag_18:\n      mload(0x40)\n      dup1\n      swap2\n      sub\n      swap1\n      return\n        /* \"contracts/ERC20.sol\":1337:1507  function burn(uint amount) external {... */\n    tag_5:\n      tag_19\n      0x04\n      dup1\n      calldatasize\n      sub\n      dup2\n      add\n      swap1\n      tag_20\n      swap2\n      swap1\n      tag_21\n      jump\t// in\n    tag_20:\n      tag_22\n      jump\t// in\n    tag_19:\n      stop\n        /* \"contracts/ERC20.sol\":1161:1331  function mint(uint amount) external {... */\n    tag_6:\n      tag_23\n      0x04\n      dup1\n      calldatasize\n      sub\n      dup2\n      add\n      swap1\n      tag_24\n      swap2\n      swap1\n      tag_21\n      jump\t// in\n    tag_24:\n      tag_25\n      jump\t// in\n    tag_23:\n      stop\n        /* \"contracts/ERC20.sol\":348:601  function transfer(address recipient, uint amount) public virtual override returns  (bool) {... */\n    tag_7:\n      tag_26\n      0x04\n      dup1\n      calldatasize\n      sub\n      dup2\n      add\n      swap1\n      tag_27\n      swap2\n      swap1\n      tag_10\n      jump\t// in\n    tag_27:\n      tag_28\n      jump\t// in\n    tag_26:\n      mload(0x40)\n      tag_29\n      swap2\n      swap1\n      tag_13\n      jump\t// in\n    tag_29:\n      mload(0x40)\n      dup1\n      swap2\n      sub\n      swap1\n      return\n        /* \"contracts/ERC20.sol\":607:814  function approve(address spender, uint amount) public override returns (bool) {... */\n    tag_11:\n        /* \"contracts/ERC20.sol\":679:683  bool */\n      0x00\n        /* \"contracts/ERC20.sol\":728:734  amount */\n      dup2\n        /* \"contracts/ERC20.sol\":695:704  allowance */\n      0x02\n        /* \"contracts/ERC20.sol\":695:716  allowance[msg.sender] */\n      0x00\n        /* \"contracts/ERC20.sol\":705:715  msg.sender */\n      caller\n        /* \"contracts/ERC20.sol\":695:716  allowance[msg.sender] */\n      0xffffffffffffffffffffffffffffffffffffffff\n      and\n      0xffffffffffffffffffffffffffffffffffffffff\n      and\n      dup2\n      mstore\n      0x20\n      add\n      swap1\n      dup2\n      mstore\n      0x20\n      add\n      0x00\n      keccak256\n        /* \"contracts/ERC20.sol\":695:725  allowance[msg.sender][spender] */\n      0x00\n        /* \"contracts/ERC20.sol\":717:724  spender */\n      dup6\n        /* \"contracts/ERC20.sol\":695:725  allowance[msg.sender][spender] */\n      0xffffffffffffffffffffffffffffffffffffffff\n      and\n      0xffffffffffffffffffffffffffffffffffffffff\n      and\n      dup2\n      mstore\n      0x20\n      add\n      swap1\n      dup2\n      mstore\n      0x20\n      add\n      0x00\n      keccak256\n        /* \"contracts/ERC20.sol\":695:734  allowance[msg.sender][spender] = amount */\n      dup2\n      swap1\n      sstore\n      pop\n        /* \"contracts/ERC20.sol\":770:777  spender */\n      dup3\n        /* \"contracts/ERC20.sol\":749:786  Approval(msg.sender, spender, amount) */\n      0xffffffffffffffffffffffffffffffffffffffff\n      and\n        /* \"contracts/ERC20.sol\":758:768  msg.sender */\n      caller\n        /* \"contracts/ERC20.sol\":749:786  Approval(msg.sender, spender, amount) */\n      0xffffffffffffffffffffffffffffffffffffffff\n      and\n      0x8c5be1e5ebec7d5bd14f71427d1e84f3dd0314c0f7b2291e5b200ac8c7c3b925\n        /* \"contracts/ERC20.sol\":779:785  amount */\n      dup5\n        /* \"contracts/ERC20.sol\":749:786  Approval(msg.sender, spender, amount) */\n      mload(0x40)\n      tag_31\n      swap2\n      swap1\n      tag_32\n      jump\t// in\n    tag_31:\n      mload(0x40)\n      dup1\n      swap2\n      sub\n      swap1\n      log3\n        /* \"contracts/ERC20.sol\":803:807  true */\n      0x01\n        /* \"contracts/ERC20.sol\":796:807  return true */\n      swap1\n      pop\n        /* \"contracts/ERC20.sol\":607:814  function approve(address spender, uint amount) public override returns (bool) {... */\n      swap3\n      swap2\n      pop\n      pop\n      jump\t// out\n        /* \"contracts/ERC20.sol\":820:1155  function transferFrom(... */\n    tag_17:\n        /* \"contracts/ERC20.sol\":945:949  bool */\n      0x00\n        /* \"contracts/ERC20.sol\":994:1000  amount */\n      dup2\n        /* \"contracts/ERC20.sol\":961:970  allowance */\n      0x02\n        /* \"contracts/ERC20.sol\":961:978  allowance[sender] */\n      0x00\n        /* \"contracts/ERC20.sol\":971:977  sender */\n      dup7\n        /* \"contracts/ERC20.sol\":961:978  allowance[sender] */\n      0xffffffffffffffffffffffffffffffffffffffff\n      and\n      0xffffffffffffffffffffffffffffffffffffffff\n      and\n      dup2\n      mstore\n      0x20\n      add\n      swap1\n      dup2\n      mstore\n      0x20\n      add\n      0x00\n      keccak256\n        /* \"contracts/ERC20.sol\":961:990  allowance[sender][msg.sender] */\n      0x00\n        /* \"contracts/ERC20.sol\":979:989  msg.sender */\n      caller\n        /* \"contracts/ERC20.sol\":961:990  allowance[sender][msg.sender] */\n      0xffffffffffffffffffffffffffffffffffffffff\n      and\n      0xffffffffffffffffffffffffffffffffffffffff\n      and\n      dup2\n      mstore\n      0x20\n      add\n      swap1\n      dup2\n      mstore\n      0x20\n      add\n      0x00\n      keccak256\n      0x00\n        /* \"contracts/ERC20.sol\":961:1000  allowance[sender][msg.sender] -= amount */\n      dup3\n      dup3\n      sload\n      tag_34\n      swap2\n      swap1\n      tag_35\n      jump\t// in\n    tag_34:\n      swap3\n      pop\n      pop\n      dup2\n      swap1\n      sstore\n      pop\n        /* \"contracts/ERC20.sol\":1031:1037  amount */\n      dup2\n        /* \"contracts/ERC20.sol\":1010:1019  balanceOf */\n      0x01\n        /* \"contracts/ERC20.sol\":1010:1027  balanceOf[sender] */\n      0x00\n        /* \"contracts/ERC20.sol\":1020:1026  sender */\n      dup7\n        /* \"contracts/ERC20.sol\":1010:1027  balanceOf[sender] */\n      0xffffffffffffffffffffffffffffffffffffffff\n      and\n      0xffffffffffffffffffffffffffffffffffffffff\n      and\n      dup2\n      mstore\n      0x20\n      add\n      swap1\n      dup2\n      mstore\n      0x20\n      add\n      0x00\n      keccak256\n      0x00\n        /* \"contracts/ERC20.sol\":1010:1037  balanceOf[sender] -= amount */\n      dup3\n      dup3\n      sload\n      tag_36\n      swap2\n      swap1\n      tag_35\n      jump\t// in\n    tag_36:\n      swap3\n      pop\n      pop\n      dup2\n      swap1\n      sstore\n      pop\n        /* \"contracts/ERC20.sol\":1071:1077  amount */\n      dup2\n        /* \"contracts/ERC20.sol\":1047:1056  balanceOf */\n      0x01\n        /* \"contracts/ERC20.sol\":1047:1067  balanceOf[recipient] */\n      0x00\n        /* \"contracts/ERC20.sol\":1057:1066  recipient */\n      dup6\n        /* \"contracts/ERC20.sol\":1047:1067  balanceOf[recipient] */\n      0xffffffffffffffffffffffffffffffffffffffff\n      and\n      0xffffffffffffffffffffffffffffffffffffffff\n      and\n      dup2\n      mstore\n      0x20\n      add\n      swap1\n      dup2\n      mstore\n      0x20\n      add\n      0x00\n      keccak256\n      0x00\n        /* \"contracts/ERC20.sol\":1047:1077  balanceOf[recipient] += amount */\n      dup3\n      dup3\n      sload\n      tag_37\n      swap2\n      swap1\n      tag_38\n      jump\t// in\n    tag_37:\n      swap3\n      pop\n      pop\n      dup2\n      swap1\n      sstore\n      pop\n        /* \"contracts/ERC20.sol\":1109:1118  recipient */\n      dup3\n        /* \"contracts/ERC20.sol\":1092:1127  Transfer(sender, recipient, amount) */\n      0xffffffffffffffffffffffffffffffffffffffff\n      and\n        /* \"contracts/ERC20.sol\":1101:1107  sender */\n      dup5\n        /* \"contracts/ERC20.sol\":1092:1127  Transfer(sender, recipient, amount) */\n      0xffffffffffffffffffffffffffffffffffffffff\n      and\n      0xddf252ad1be2c89b69c2b068fc378daa952ba7f163c4a11628f55a4df523b3ef\n        /* \"contracts/ERC20.sol\":1120:1126  amount */\n      dup5\n        /* \"contracts/ERC20.sol\":1092:1127  Transfer(sender, recipient, amount) */\n      mload(0x40)\n      tag_39\n      swap2\n      swap1\n      tag_32\n      jump\t// in\n    tag_39:\n      mload(0x40)\n      dup1\n      swap2\n      sub\n      swap1\n      log3\n        /* \"contracts/ERC20.sol\":1144:1148  true */\n      0x01\n        /* \"contracts/ERC20.sol\":1137:1148  return true */\n      swap1\n      pop\n        /* \"contracts/ERC20.sol\":820:1155  function transferFrom(... */\n      swap4\n      swap3\n      pop\n      pop\n      pop\n      jump\t// out\n        /* \"contracts/ERC20.sol\":1337:1507  function burn(uint amount) external {... */\n    tag_22:\n        /* \"contracts/ERC20.sol\":1408:1414  amount */\n      dup1\n        /* \"contracts/ERC20.sol\":1383:1392  balanceOf */\n      0x01\n        /* \"contracts/ERC20.sol\":1383:1404  balanceOf[msg.sender] */\n      0x00\n        /* \"contracts/ERC20.sol\":1393:1403  msg.sender */\n      caller\n        /* \"contracts/ERC20.sol\":1383:1404  balanceOf[msg.sender] */\n      0xffffffffffffffffffffffffffffffffffffffff\n      and\n      0xffffffffffffffffffffffffffffffffffffffff\n      and\n      dup2\n      mstore\n      0x20\n      add\n      swap1\n      dup2\n      mstore\n      0x20\n      add\n      0x00\n      keccak256\n      0x00\n        /* \"contracts/ERC20.sol\":1383:1414  balanceOf[msg.sender] -= amount */\n      dup3\n      dup3\n      sload\n      tag_41\n      swap2\n      swap1\n      tag_35\n      jump\t// in\n    tag_41:\n      swap3\n      pop\n      pop\n      dup2\n      swap1\n      sstore\n      pop\n        /* \"contracts/ERC20.sol\":1439:1445  amount */\n      dup1\n        /* \"contracts/ERC20.sol\":1424:1435  totalSupply */\n      0x00\n      dup1\n        /* \"contracts/ERC20.sol\":1424:1445  totalSupply -= amount */\n      dup3\n      dup3\n      sload\n      tag_42\n      swap2\n      swap1\n      tag_35\n      jump\t// in\n    tag_42:\n      swap3\n      pop\n      pop\n      dup2\n      swap1\n      sstore\n      pop\n        /* \"contracts/ERC20.sol\":1489:1490  0 */\n      0x00\n        /* \"contracts/ERC20.sol\":1460:1500  Transfer(msg.sender, address(0), amount) */\n      0xffffffffffffffffffffffffffffffffffffffff\n      and\n        /* \"contracts/ERC20.sol\":1469:1479  msg.sender */\n      caller\n        /* \"contracts/ERC20.sol\":1460:1500  Transfer(msg.sender, address(0), amount) */\n      0xffffffffffffffffffffffffffffffffffffffff\n      and\n      0xddf252ad1be2c89b69c2b068fc378daa952ba7f163c4a11628f55a4df523b3ef\n        /* \"contracts/ERC20.sol\":1493:1499  amount */\n      dup4\n        /* \"contracts/ERC20.sol\":1460:1500  Transfer(msg.sender, address(0), amount) */\n      mload(0x40)\n      tag_43\n      swap2\n      swap1\n      tag_32\n      jump\t// in\n    tag_43:\n      mload(0x40)\n      dup1\n      swap2\n      sub\n      swap1\n      log3\n        /* \"contracts/ERC20.sol\":1337:1507  function burn(uint amount) external {... */\n      pop\n      jump\t// out\n        /* \"contracts/ERC20.sol\":1161:1331  function mint(uint amount) external {... */\n    tag_25:\n        /* \"contracts/ERC20.sol\":1232:1238  amount */\n      dup1\n        /* \"contracts/ERC20.sol\":1207:1216  balanceOf */\n      0x01\n        /* \"contracts/ERC20.sol\":1207:1228  balanceOf[msg.sender] */\n      0x00\n        /* \"contracts/ERC20.sol\":1217:1227  msg.sender */\n      caller\n        /* \"contracts/ERC20.sol\":1207:1228  balanceOf[msg.sender] */\n      0xffffffffffffffffffffffffffffffffffffffff\n      and\n      0xffffffffffffffffffffffffffffffffffffffff\n      and\n      dup2\n      mstore\n      0x20\n      add\n      swap1\n      dup2\n      mstore\n      0x20\n      add\n      0x00\n      keccak256\n      0x00\n        /* \"contracts/ERC20.sol\":1207:1238  balanceOf[msg.sender] += amount */\n      dup3\n      dup3\n      sload\n      tag_45\n      swap2\n      swap1\n      tag_38\n      jump\t// in\n    tag_45:\n      swap3\n      pop\n      pop\n      dup2\n      swap1\n      sstore\n      pop\n        /* \"contracts/ERC20.sol\":1263:1269  amount */\n      dup1\n        /* \"contracts/ERC20.sol\":1248:1259  totalSupply */\n      0x00\n      dup1\n        /* \"contracts/ERC20.sol\":1248:1269  totalSupply += amount */\n      dup3\n      dup3\n      sload\n      tag_46\n      swap2\n      swap1\n      tag_38\n      jump\t// in\n    tag_46:\n      swap3\n      pop\n      pop\n      dup2\n      swap1\n      sstore\n      pop\n        /* \"contracts/ERC20.sol\":1305:1315  msg.sender */\n      caller\n        /* \"contracts/ERC20.sol\":1284:1324  Transfer(address(0), msg.sender, amount) */\n      0xffffffffffffffffffffffffffffffffffffffff\n      and\n        /* \"contracts/ERC20.sol\":1301:1302  0 */\n      0x00\n        /* \"contracts/ERC20.sol\":1284:1324  Transfer(address(0), msg.sender, amount) */\n      0xffffffffffffffffffffffffffffffffffffffff\n      and\n      0xddf252ad1be2c89b69c2b068fc378daa952ba7f163c4a11628f55a4df523b3ef\n        /* \"contracts/ERC20.sol\":1317:1323  amount */\n      dup4\n        /* \"contracts/ERC20.sol\":1284:1324  Transfer(address(0), msg.sender, amount) */\n      mload(0x40)\n      tag_47\n      swap2\n      swap1\n      tag_32\n      jump\t// in\n    tag_47:\n      mload(0x40)\n      dup1\n      swap2\n      sub\n      swap1\n      log3\n        /* \"contracts/ERC20.sol\":1161:1331  function mint(uint amount) external {... */\n      pop\n      jump\t// out\n        /* \"contracts/ERC20.sol\":348:601  function transfer(address recipient, uint amount) public virtual override returns  (bool) {... */\n    tag_28:\n        /* \"contracts/ERC20.sol\":432:436  bool */\n      0x00\n        /* \"contracts/ERC20.sol\":473:479  amount */\n      dup2\n        /* \"contracts/ERC20.sol\":448:457  balanceOf */\n      0x01\n        /* \"contracts/ERC20.sol\":448:469  balanceOf[msg.sender] */\n      0x00\n        /* \"contracts/ERC20.sol\":458:468  msg.sender */\n      caller\n        /* \"contracts/ERC20.sol\":448:469  balanceOf[msg.sender] */\n      0xffffffffffffffffffffffffffffffffffffffff\n      and\n      0xffffffffffffffffffffffffffffffffffffffff\n      and\n      dup2\n      mstore\n      0x20\n      add\n      swap1\n      dup2\n      mstore\n      0x20\n      add\n      0x00\n      keccak256\n      0x00\n        /* \"contracts/ERC20.sol\":448:479  balanceOf[msg.sender] -= amount */\n      dup3\n      dup3\n      sload\n      tag_49\n      swap2\n      swap1\n      tag_35\n      jump\t// in\n    tag_49:\n      swap3\n      pop\n      pop\n      dup2\n      swap1\n      sstore\n      pop\n        /* \"contracts/ERC20.sol\":513:519  amount */\n      dup2\n        /* \"contracts/ERC20.sol\":489:498  balanceOf */\n      0x01\n        /* \"contracts/ERC20.sol\":489:509  balanceOf[recipient] */\n      0x00\n        /* \"contracts/ERC20.sol\":499:508  recipient */\n      dup6\n        /* \"contracts/ERC20.sol\":489:509  balanceOf[recipient] */\n      0xffffffffffffffffffffffffffffffffffffffff\n      and\n      0xffffffffffffffffffffffffffffffffffffffff\n      and\n      dup2\n      mstore\n      0x20\n      add\n      swap1\n      dup2\n      mstore\n      0x20\n      add\n      0x00\n      keccak256\n      0x00\n        /* \"contracts/ERC20.sol\":489:519  balanceOf[recipient] += amount */\n      dup3\n      dup3\n      sload\n      tag_50\n      swap2\n      swap1\n      tag_38\n      jump\t// in\n    tag_50:\n      swap3\n      pop\n      pop\n      dup2\n      swap1\n      sstore\n      pop\n        /* \"contracts/ERC20.sol\":555:564  recipient */\n      dup3\n        /* \"contracts/ERC20.sol\":534:573  Transfer(msg.sender, recipient, amount) */\n      0xffffffffffffffffffffffffffffffffffffffff\n      and\n        /* \"contracts/ERC20.sol\":543:553  msg.sender */\n      caller\n        /* \"contracts/ERC20.sol\":534:573  Transfer(msg.sender, recipient, amount) */\n      0xffffffffffffffffffffffffffffffffffffffff\n      and\n      0xddf252ad1be2c89b69c2b068fc378daa952ba7f163c4a11628f55a4df523b3ef\n        /* \"contracts/ERC20.sol\":566:572  amount */\n      dup5\n        /* \"contracts/ERC20.sol\":534:573  Transfer(msg.sender, recipient, amount) */\n      mload(0x40)\n      tag_51\n      swap2\n      swap1\n      tag_32\n      jump\t// in\n    tag_51:\n      mload(0x40)\n      dup1\n      swap2\n      sub\n      swap1\n      log3\n        /* \"contracts/ERC20.sol\":590:594  true */\n      0x01\n        /* \"contracts/ERC20.sol\":583:594  return true */\n      swap1\n      pop\n        /* \"contracts/ERC20.sol\":348:601  function transfer(address recipient, uint amount) public virtual override returns  (bool) {... */\n      swap3\n      swap2\n      pop\n      pop\n      jump\t// out\n        /* \"#utility.yul\":7:146   */\n    tag_53:\n        /* \"#utility.yul\":53:58   */\n      0x00\n        /* \"#utility.yul\":91:97   */\n      dup2\n        /* \"#utility.yul\":78:98   */\n      calldataload\n        /* \"#utility.yul\":69:98   */\n      swap1\n      pop\n        /* \"#utility.yul\":107:140   */\n      tag_55\n        /* \"#utility.yul\":134:139   */\n      dup2\n        /* \"#utility.yul\":107:140   */\n      tag_56\n      jump\t// in\n    tag_55:\n        /* \"#utility.yul\":7:146   */\n      swap3\n      swap2\n      pop\n      pop\n      jump\t// out\n        /* \"#utility.yul\":152:291   */\n    tag_57:\n        /* \"#utility.yul\":198:203   */\n      0x00\n        /* \"#utility.yul\":236:242   */\n      dup2\n        /* \"#utility.yul\":223:243   */\n      calldataload\n        /* \"#utility.yul\":214:243   */\n      swap1\n      pop\n        /* \"#utility.yul\":252:285   */\n      tag_59\n        /* \"#utility.yul\":279:284   */\n      dup2\n        /* \"#utility.yul\":252:285   */\n      tag_60\n      jump\t// in\n    tag_59:\n        /* \"#utility.yul\":152:291   */\n      swap3\n      swap2\n      pop\n      pop\n      jump\t// out\n        /* \"#utility.yul\":297:916   */\n    tag_16:\n        /* \"#utility.yul\":374:380   */\n      0x00\n        /* \"#utility.yul\":382:388   */\n      dup1\n        /* \"#utility.yul\":390:396   */\n      0x00\n        /* \"#utility.yul\":439:441   */\n      0x60\n        /* \"#utility.yul\":427:436   */\n      dup5\n        /* \"#utility.yul\":418:425   */\n      dup7\n        /* \"#utility.yul\":414:437   */\n      sub\n        /* \"#utility.yul\":410:442   */\n      slt\n        /* \"#utility.yul\":407:526   */\n      iszero\n      tag_62\n      jumpi\n        /* \"#utility.yul\":445:524   */\n      tag_63\n      tag_64\n      jump\t// in\n    tag_63:\n        /* \"#utility.yul\":407:526   */\n    tag_62:\n        /* \"#utility.yul\":565:566   */\n      0x00\n        /* \"#utility.yul\":590:643   */\n      tag_65\n        /* \"#utility.yul\":635:642   */\n      dup7\n        /* \"#utility.yul\":626:632   */\n      dup3\n        /* \"#utility.yul\":615:624   */\n      dup8\n        /* \"#utility.yul\":611:633   */\n      add\n        /* \"#utility.yul\":590:643   */\n      tag_53\n      jump\t// in\n    tag_65:\n        /* \"#utility.yul\":580:643   */\n      swap4\n      pop\n        /* \"#utility.yul\":536:653   */\n      pop\n        /* \"#utility.yul\":692:694   */\n      0x20\n        /* \"#utility.yul\":718:771   */\n      tag_66\n        /* \"#utility.yul\":763:770   */\n      dup7\n        /* \"#utility.yul\":754:760   */\n      dup3\n        /* \"#utility.yul\":743:752   */\n      dup8\n        /* \"#utility.yul\":739:761   */\n      add\n        /* \"#utility.yul\":718:771   */\n      tag_53\n      jump\t// in\n    tag_66:\n        /* \"#utility.yul\":708:771   */\n      swap3\n      pop\n        /* \"#utility.yul\":663:781   */\n      pop\n        /* \"#utility.yul\":820:822   */\n      0x40\n        /* \"#utility.yul\":846:899   */\n      tag_67\n        /* \"#utility.yul\":891:898   */\n      dup7\n        /* \"#utility.yul\":882:888   */\n      dup3\n        /* \"#utility.yul\":871:880   */\n      dup8\n        /* \"#utility.yul\":867:889   */\n      add\n        /* \"#utility.yul\":846:899   */\n      tag_57\n      jump\t// in\n    tag_67:\n        /* \"#utility.yul\":836:899   */\n      swap2\n      pop\n        /* \"#utility.yul\":791:909   */\n      pop\n        /* \"#utility.yul\":297:916   */\n      swap3\n      pop\n      swap3\n      pop\n      swap3\n      jump\t// out\n        /* \"#utility.yul\":922:1396   */\n    tag_10:\n        /* \"#utility.yul\":990:996   */\n      0x00\n        /* \"#utility.yul\":998:1004   */\n      dup1\n        /* \"#utility.yul\":1047:1049   */\n      0x40\n        /* \"#utility.yul\":1035:1044   */\n      dup4\n        /* \"#utility.yul\":1026:1033   */\n      dup6\n        /* \"#utility.yul\":1022:1045   */\n      sub\n        /* \"#utility.yul\":1018:1050   */\n      slt\n        /* \"#utility.yul\":1015:1134   */\n      iszero\n      tag_69\n      jumpi\n        /* \"#utility.yul\":1053:1132   */\n      tag_70\n      tag_64\n      jump\t// in\n    tag_70:\n        /* \"#utility.yul\":1015:1134   */\n    tag_69:\n        /* \"#utility.yul\":1173:1174   */\n      0x00\n        /* \"#utility.yul\":1198:1251   */\n      tag_71\n        /* \"#utility.yul\":1243:1250   */\n      dup6\n        /* \"#utility.yul\":1234:1240   */\n      dup3\n        /* \"#utility.yul\":1223:1232   */\n      dup7\n        /* \"#utility.yul\":1219:1241   */\n      add\n        /* \"#utility.yul\":1198:1251   */\n      tag_53\n      jump\t// in\n    tag_71:\n        /* \"#utility.yul\":1188:1251   */\n      swap3\n      pop\n        /* \"#utility.yul\":1144:1261   */\n      pop\n        /* \"#utility.yul\":1300:1302   */\n      0x20\n        /* \"#utility.yul\":1326:1379   */\n      tag_72\n        /* \"#utility.yul\":1371:1378   */\n      dup6\n        /* \"#utility.yul\":1362:1368   */\n      dup3\n        /* \"#utility.yul\":1351:1360   */\n      dup7\n        /* \"#utility.yul\":1347:1369   */\n      add\n        /* \"#utility.yul\":1326:1379   */\n      tag_57\n      jump\t// in\n    tag_72:\n        /* \"#utility.yul\":1316:1379   */\n      swap2\n      pop\n        /* \"#utility.yul\":1271:1389   */\n      pop\n        /* \"#utility.yul\":922:1396   */\n      swap3\n      pop\n      swap3\n      swap1\n      pop\n      jump\t// out\n        /* \"#utility.yul\":1402:1731   */\n    tag_21:\n        /* \"#utility.yul\":1461:1467   */\n      0x00\n        /* \"#utility.yul\":1510:1512   */\n      0x20\n        /* \"#utility.yul\":1498:1507   */\n      dup3\n        /* \"#utility.yul\":1489:1496   */\n      dup5\n        /* \"#utility.yul\":1485:1508   */\n      sub\n        /* \"#utility.yul\":1481:1513   */\n      slt\n        /* \"#utility.yul\":1478:1597   */\n      iszero\n      tag_74\n      jumpi\n        /* \"#utility.yul\":1516:1595   */\n      tag_75\n      tag_64\n      jump\t// in\n    tag_75:\n        /* \"#utility.yul\":1478:1597   */\n    tag_74:\n        /* \"#utility.yul\":1636:1637   */\n      0x00\n        /* \"#utility.yul\":1661:1714   */\n      tag_76\n        /* \"#utility.yul\":1706:1713   */\n      dup5\n        /* \"#utility.yul\":1697:1703   */\n      dup3\n        /* \"#utility.yul\":1686:1695   */\n      dup6\n        /* \"#utility.yul\":1682:1704   */\n      add\n        /* \"#utility.yul\":1661:1714   */\n      tag_57\n      jump\t// in\n    tag_76:\n        /* \"#utility.yul\":1651:1714   */\n      swap2\n      pop\n        /* \"#utility.yul\":1607:1724   */\n      pop\n        /* \"#utility.yul\":1402:1731   */\n      swap3\n      swap2\n      pop\n      pop\n      jump\t// out\n        /* \"#utility.yul\":1737:1846   */\n    tag_77:\n        /* \"#utility.yul\":1818:1839   */\n      tag_79\n        /* \"#utility.yul\":1833:1838   */\n      dup2\n        /* \"#utility.yul\":1818:1839   */\n      tag_80\n      jump\t// in\n    tag_79:\n        /* \"#utility.yul\":1813:1816   */\n      dup3\n        /* \"#utility.yul\":1806:1840   */\n      mstore\n        /* \"#utility.yul\":1737:1846   */\n      pop\n      pop\n      jump\t// out\n        /* \"#utility.yul\":1852:1970   */\n    tag_81:\n        /* \"#utility.yul\":1939:1963   */\n      tag_83\n        /* \"#utility.yul\":1957:1962   */\n      dup2\n        /* \"#utility.yul\":1939:1963   */\n      tag_84\n      jump\t// in\n    tag_83:\n        /* \"#utility.yul\":1934:1937   */\n      dup3\n        /* \"#utility.yul\":1927:1964   */\n      mstore\n        /* \"#utility.yul\":1852:1970   */\n      pop\n      pop\n      jump\t// out\n        /* \"#utility.yul\":1976:2186   */\n    tag_13:\n        /* \"#utility.yul\":2063:2067   */\n      0x00\n        /* \"#utility.yul\":2101:2103   */\n      0x20\n        /* \"#utility.yul\":2090:2099   */\n      dup3\n        /* \"#utility.yul\":2086:2104   */\n      add\n        /* \"#utility.yul\":2078:2104   */\n      swap1\n      pop\n        /* \"#utility.yul\":2114:2179   */\n      tag_86\n        /* \"#utility.yul\":2176:2177   */\n      0x00\n        /* \"#utility.yul\":2165:2174   */\n      dup4\n        /* \"#utility.yul\":2161:2178   */\n      add\n        /* \"#utility.yul\":2152:2158   */\n      dup5\n        /* \"#utility.yul\":2114:2179   */\n      tag_77\n      jump\t// in\n    tag_86:\n        /* \"#utility.yul\":1976:2186   */\n      swap3\n      swap2\n      pop\n      pop\n      jump\t// out\n        /* \"#utility.yul\":2192:2414   */\n    tag_32:\n        /* \"#utility.yul\":2285:2289   */\n      0x00\n        /* \"#utility.yul\":2323:2325   */\n      0x20\n        /* \"#utility.yul\":2312:2321   */\n      dup3\n        /* \"#utility.yul\":2308:2326   */\n      add\n        /* \"#utility.yul\":2300:2326   */\n      swap1\n      pop\n        /* \"#utility.yul\":2336:2407   */\n      tag_88\n        /* \"#utility.yul\":2404:2405   */\n      0x00\n        /* \"#utility.yul\":2393:2402   */\n      dup4\n        /* \"#utility.yul\":2389:2406   */\n      add\n        /* \"#utility.yul\":2380:2386   */\n      dup5\n        /* \"#utility.yul\":2336:2407   */\n      tag_81\n      jump\t// in\n    tag_88:\n        /* \"#utility.yul\":2192:2414   */\n      swap3\n      swap2\n      pop\n      pop\n      jump\t// out\n        /* \"#utility.yul\":2501:2806   */\n    tag_38:\n        /* \"#utility.yul\":2541:2544   */\n      0x00\n        /* \"#utility.yul\":2560:2580   */\n      tag_92\n        /* \"#utility.yul\":2578:2579   */\n      dup3\n        /* \"#utility.yul\":2560:2580   */\n      tag_84\n      jump\t// in\n    tag_92:\n        /* \"#utility.yul\":2555:2580   */\n      swap2\n      pop\n        /* \"#utility.yul\":2594:2614   */\n      tag_93\n        /* \"#utility.yul\":2612:2613   */\n      dup4\n        /* \"#utility.yul\":2594:2614   */\n      tag_84\n      jump\t// in\n    tag_93:\n        /* \"#utility.yul\":2589:2614   */\n      swap3\n      pop\n        /* \"#utility.yul\":2748:2749   */\n      dup3\n        /* \"#utility.yul\":2680:2746   */\n      0xffffffffffffffffffffffffffffffffffffffffffffffffffffffffffffffff\n        /* \"#utility.yul\":2676:2750   */\n      sub\n        /* \"#utility.yul\":2673:2674   */\n      dup3\n        /* \"#utility.yul\":2670:2751   */\n      gt\n        /* \"#utility.yul\":2667:2774   */\n      iszero\n      tag_94\n      jumpi\n        /* \"#utility.yul\":2754:2772   */\n      tag_95\n      tag_96\n      jump\t// in\n    tag_95:\n        /* \"#utility.yul\":2667:2774   */\n    tag_94:\n        /* \"#utility.yul\":2798:2799   */\n      dup3\n        /* \"#utility.yul\":2795:2796   */\n      dup3\n        /* \"#utility.yul\":2791:2800   */\n      add\n        /* \"#utility.yul\":2784:2800   */\n      swap1\n      pop\n        /* \"#utility.yul\":2501:2806   */\n      swap3\n      swap2\n      pop\n      pop\n      jump\t// out\n        /* \"#utility.yul\":2812:3003   */\n    tag_35:\n        /* \"#utility.yul\":2852:2856   */\n      0x00\n        /* \"#utility.yul\":2872:2892   */\n      tag_98\n        /* \"#utility.yul\":2890:2891   */\n      dup3\n        /* \"#utility.yul\":2872:2892   */\n      tag_84\n      jump\t// in\n    tag_98:\n        /* \"#utility.yul\":2867:2892   */\n      swap2\n      pop\n        /* \"#utility.yul\":2906:2926   */\n      tag_99\n        /* \"#utility.yul\":2924:2925   */\n      dup4\n        /* \"#utility.yul\":2906:2926   */\n      tag_84\n      jump\t// in\n    tag_99:\n        /* \"#utility.yul\":2901:2926   */\n      swap3\n      pop\n        /* \"#utility.yul\":2945:2946   */\n      dup3\n        /* \"#utility.yul\":2942:2943   */\n      dup3\n        /* \"#utility.yul\":2939:2947   */\n      lt\n        /* \"#utility.yul\":2936:2970   */\n      iszero\n      tag_100\n      jumpi\n        /* \"#utility.yul\":2950:2968   */\n      tag_101\n      tag_96\n      jump\t// in\n    tag_101:\n        /* \"#utility.yul\":2936:2970   */\n    tag_100:\n        /* \"#utility.yul\":2995:2996   */\n      dup3\n        /* \"#utility.yul\":2992:2993   */\n      dup3\n        /* \"#utility.yul\":2988:2997   */\n      sub\n        /* \"#utility.yul\":2980:2997   */\n      swap1\n      pop\n        /* \"#utility.yul\":2812:3003   */\n      swap3\n      swap2\n      pop\n      pop\n      jump\t// out\n        /* \"#utility.yul\":3009:3105   */\n    tag_102:\n        /* \"#utility.yul\":3046:3053   */\n      0x00\n        /* \"#utility.yul\":3075:3099   */\n      tag_104\n        /* \"#utility.yul\":3093:3098   */\n      dup3\n        /* \"#utility.yul\":3075:3099   */\n      tag_105\n      jump\t// in\n    tag_104:\n        /* \"#utility.yul\":3064:3099   */\n      swap1\n      pop\n        /* \"#utility.yul\":3009:3105   */\n      swap2\n      swap1\n      pop\n      jump\t// out\n        /* \"#utility.yul\":3111:3201   */\n    tag_80:\n        /* \"#utility.yul\":3145:3152   */\n      0x00\n        /* \"#utility.yul\":3188:3193   */\n      dup2\n        /* \"#utility.yul\":3181:3194   */\n      iszero\n        /* \"#utility.yul\":3174:3195   */\n      iszero\n        /* \"#utility.yul\":3163:3195   */\n      swap1\n      pop\n        /* \"#utility.yul\":3111:3201   */\n      swap2\n      swap1\n      pop\n      jump\t// out\n        /* \"#utility.yul\":3207:3333   */\n    tag_105:\n        /* \"#utility.yul\":3244:3251   */\n      0x00\n        /* \"#utility.yul\":3284:3326   */\n      0xffffffffffffffffffffffffffffffffffffffff\n        /* \"#utility.yul\":3277:3282   */\n      dup3\n        /* \"#utility.yul\":3273:3327   */\n      and\n        /* \"#utility.yul\":3262:3327   */\n      swap1\n      pop\n        /* \"#utility.yul\":3207:3333   */\n      swap2\n      swap1\n      pop\n      jump\t// out\n        /* \"#utility.yul\":3339:3416   */\n    tag_84:\n        /* \"#utility.yul\":3376:3383   */\n      0x00\n        /* \"#utility.yul\":3405:3410   */\n      dup2\n        /* \"#utility.yul\":3394:3410   */\n      swap1\n      pop\n        /* \"#utility.yul\":3339:3416   */\n      swap2\n      swap1\n      pop\n      jump\t// out\n        /* \"#utility.yul\":3422:3602   */\n    tag_96:\n        /* \"#utility.yul\":3470:3547   */\n      0x4e487b7100000000000000000000000000000000000000000000000000000000\n        /* \"#utility.yul\":3467:3468   */\n      0x00\n        /* \"#utility.yul\":3460:3548   */\n      mstore\n        /* \"#utility.yul\":3567:3571   */\n      0x11\n        /* \"#utility.yul\":3564:3565   */\n      0x04\n        /* \"#utility.yul\":3557:3572   */\n      mstore\n        /* \"#utility.yul\":3591:3595   */\n      0x24\n        /* \"#utility.yul\":3588:3589   */\n      0x00\n        /* \"#utility.yul\":3581:3596   */\n      revert\n        /* \"#utility.yul\":3731:3848   */\n    tag_64:\n        /* \"#utility.yul\":3840:3841   */\n      0x00\n        /* \"#utility.yul\":3837:3838   */\n      dup1\n        /* \"#utility.yul\":3830:3842   */\n      revert\n        /* \"#utility.yul\":3854:3976   */\n    tag_56:\n        /* \"#utility.yul\":3927:3951   */\n      tag_114\n        /* \"#utility.yul\":3945:3950   */\n      dup2\n        /* \"#utility.yul\":3927:3951   */\n      tag_102\n      jump\t// in\n    tag_114:\n        /* \"#utility.yul\":3920:3925   */\n      dup2\n        /* \"#utility.yul\":3917:3952   */\n      eq\n        /* \"#utility.yul\":3907:3970   */\n      tag_115\n      jumpi\n        /* \"#utility.yul\":3966:3967   */\n      0x00\n        /* \"#utility.yul\":3963:3964   */\n      dup1\n        /* \"#utility.yul\":3956:3968   */\n      revert\n        /* \"#utility.yul\":3907:3970   */\n    tag_115:\n        /* \"#utility.yul\":3854:3976   */\n      pop\n      jump\t// out\n        /* \"#utility.yul\":3982:4104   */\n    tag_60:\n        /* \"#utility.yul\":4055:4079   */\n      tag_117\n        /* \"#utility.yul\":4073:4078   */\n      dup2\n        /* \"#utility.yul\":4055:4079   */\n      tag_84\n      jump\t// in\n    tag_117:\n        /* \"#utility.yul\":4048:4053   */\n      dup2\n        /* \"#utility.yul\":4045:4080   */\n      eq\n        /* \"#utility.yul\":4035:4098   */\n      tag_118\n      jumpi\n        /* \"#utility.yul\":4094:4095   */\n      0x00\n        /* \"#utility.yul\":4091:4092   */\n      dup1\n        /* \"#utility.yul\":4084:4096   */\n      revert\n        /* \"#utility.yul\":4035:4098   */\n    tag_118:\n        /* \"#utility.yul\":3982:4104   */\n      pop\n      jump\t// out\n\n    auxdata: 0xa264697066735822122029c7c9006222e1f0075ded14704569ac06524979fd445458ada50dbf111fa70c64736f6c63430008070033\n}\n",
				"bytecode": {
					"linkReferences": {},
					"object": "60806040526040518060400160405280601381526020017f536f6c6964697479206279204578616d706c65000000000000000000000000008152506003908051906020019061004f9291906100ca565b506040518060400160405280600781526020017f534f4c42594558000000000000000000000000000000000000000000000000008152506004908051906020019061009b9291906100ca565b506002600560006101000a81548160ff021916908360ff1602179055503480156100c457600080fd5b506101ce565b8280546100d69061016d565b90600052602060002090601f0160209004810192826100f8576000855561013f565b82601f1061011157805160ff191683800117855561013f565b8280016001018555821561013f579182015b8281111561013e578251825591602001919060010190610123565b5b50905061014c9190610150565b5090565b5b80821115610169576000816000905550600101610151565b5090565b6000600282049050600182168061018557607f821691505b602082108114156101995761019861019f565b5b50919050565b7f4e487b7100000000000000000000000000000000000000000000000000000000600052602260045260246000fd5b61093a806101dd6000396000f3fe608060405234801561001057600080fd5b50600436106100575760003560e01c8063095ea7b31461005c57806323b872dd1461008c57806342966c68146100bc578063a0712d68146100d8578063a9059cbb146100f4575b600080fd5b6100766004803603810190610071919061070f565b610124565b604051610083919061079a565b60405180910390f35b6100a660048036038101906100a191906106bc565b610216565b6040516100b3919061079a565b60405180910390f35b6100d660048036038101906100d1919061074f565b6103c7565b005b6100f260048036038101906100ed919061074f565b61049e565b005b61010e6004803603810190610109919061070f565b610575565b60405161011b919061079a565b60405180910390f35b600081600260003373ffffffffffffffffffffffffffffffffffffffff1673ffffffffffffffffffffffffffffffffffffffff16815260200190815260200160002060008573ffffffffffffffffffffffffffffffffffffffff1673ffffffffffffffffffffffffffffffffffffffff168152602001908152602001600020819055508273ffffffffffffffffffffffffffffffffffffffff163373ffffffffffffffffffffffffffffffffffffffff167f8c5be1e5ebec7d5bd14f71427d1e84f3dd0314c0f7b2291e5b200ac8c7c3b9258460405161020491906107b5565b60405180910390a36001905092915050565b600081600260008673ffffffffffffffffffffffffffffffffffffffff1673ffffffffffffffffffffffffffffffffffffffff16815260200190815260200160002060003373ffffffffffffffffffffffffffffffffffffffff1673ffffffffffffffffffffffffffffffffffffffff16815260200190815260200160002060008282546102a49190610826565b9250508190555081600160008673ffffffffffffffffffffffffffffffffffffffff1673ffffffffffffffffffffffffffffffffffffffff16815260200190815260200160002060008282546102fa9190610826565b9250508190555081600160008573ffffffffffffffffffffffffffffffffffffffff1673ffffffffffffffffffffffffffffffffffffffff168152602001908152602001600020600082825461035091906107d0565b925050819055508273ffffffffffffffffffffffffffffffffffffffff168473ffffffffffffffffffffffffffffffffffffffff167fddf252ad1be2c89b69c2b068fc378daa952ba7f163c4a11628f55a4df523b3ef846040516103b491906107b5565b60405180910390a3600190509392505050565b80600160003373ffffffffffffffffffffffffffffffffffffffff1673ffffffffffffffffffffffffffffffffffffffff16815260200190815260200160002060008282546104169190610826565b925050819055508060008082825461042e9190610826565b92505081905550600073ffffffffffffffffffffffffffffffffffffffff163373ffffffffffffffffffffffffffffffffffffffff167fddf252ad1be2c89b69c2b068fc378daa952ba7f163c4a11628f55a4df523b3ef8360405161049391906107b5565b60405180910390a350565b80600160003373ffffffffffffffffffffffffffffffffffffffff1673ffffffffffffffffffffffffffffffffffffffff16815260200190815260200160002060008282546104ed91906107d0565b925050819055508060008082825461050591906107d0565b925050819055503373ffffffffffffffffffffffffffffffffffffffff16600073ffffffffffffffffffffffffffffffffffffffff167fddf252ad1be2c89b69c2b068fc378daa952ba7f163c4a11628f55a4df523b3ef8360405161056a91906107b5565b60405180910390a350565b600081600160003373ffffffffffffffffffffffffffffffffffffffff1673ffffffffffffffffffffffffffffffffffffffff16815260200190815260200160002060008282546105c69190610826565b9250508190555081600160008573ffffffffffffffffffffffffffffffffffffffff1673ffffffffffffffffffffffffffffffffffffffff168152602001908152602001600020600082825461061c91906107d0565b925050819055508273ffffffffffffffffffffffffffffffffffffffff163373ffffffffffffffffffffffffffffffffffffffff167fddf252ad1be2c89b69c2b068fc378daa952ba7f163c4a11628f55a4df523b3ef8460405161068091906107b5565b60405180910390a36001905092915050565b6000813590506106a1816108d6565b92915050565b6000813590506106b6816108ed565b92915050565b6000806000606084860312156106d5576106d46108d1565b5b60006106e386828701610692565b93505060206106f486828701610692565b9250506040610705868287016106a7565b9150509250925092565b60008060408385031215610726576107256108d1565b5b600061073485828601610692565b9250506020610745858286016106a7565b9150509250929050565b600060208284031215610765576107646108d1565b5b6000610773848285016106a7565b91505092915050565b6107858161086c565b82525050565b61079481610898565b82525050565b60006020820190506107af600083018461077c565b92915050565b60006020820190506107ca600083018461078b565b92915050565b60006107db82610898565b91506107e683610898565b9250827fffffffffffffffffffffffffffffffffffffffffffffffffffffffffffffffff0382111561081b5761081a6108a2565b5b828201905092915050565b600061083182610898565b915061083c83610898565b92508282101561084f5761084e6108a2565b5b828203905092915050565b600061086582610878565b9050919050565b60008115159050919050565b600073ffffffffffffffffffffffffffffffffffffffff82169050919050565b6000819050919050565b7f4e487b7100000000000000000000000000000000000000000000000000000000600052601160045260246000fd5b600080fd5b6108df8161085a565b81146108ea57600080fd5b50565b6108f681610898565b811461090157600080fd5b5056fea264697066735822122029c7c9006222e1f0075ded14704569ac06524979fd445458ada50dbf111fa70c64736f6c63430008070033",
					"opcodes": "PUSH1 0x80 PUSH1 0x40 MSTORE PUSH1 0x40 MLOAD DUP1 PUSH1 0x40 ADD PUSH1 0x40 MSTORE DUP1 PUSH1 0x13 DUP2 MSTORE PUSH1 0x20 ADD PUSH32 0x536F6C6964697479206279204578616D706C6500000000000000000000000000 DUP2 MSTORE POP PUSH1 0x3 SWAP1 DUP1 MLOAD SWAP1 PUSH1 0x20 ADD SWAP1 PUSH2 0x4F SWAP3 SWAP2 SWAP1 PUSH2 0xCA JUMP JUMPDEST POP PUSH1 0x40 MLOAD DUP1 PUSH1 0x40 ADD PUSH1 0x40 MSTORE DUP1 PUSH1 0x7 DUP2 MSTORE PUSH1 0x20 ADD PUSH32 0x534F4C4259455800000000000000000000000000000000000000000000000000 DUP2 MSTORE POP PUSH1 0x4 SWAP1 DUP1 MLOAD SWAP1 PUSH1 0x20 ADD SWAP1 PUSH2 0x9B SWAP3 SWAP2 SWAP1 PUSH2 0xCA JUMP JUMPDEST POP PUSH1 0x2 PUSH1 0x5 PUSH1 0x0 PUSH2 0x100 EXP DUP2 SLOAD DUP2 PUSH1 0xFF MUL NOT AND SWAP1 DUP4 PUSH1 0xFF AND MUL OR SWAP1 SSTORE POP CALLVALUE DUP1 ISZERO PUSH2 0xC4 JUMPI PUSH1 0x0 DUP1 REVERT JUMPDEST POP PUSH2 0x1CE JUMP JUMPDEST DUP3 DUP1 SLOAD PUSH2 0xD6 SWAP1 PUSH2 0x16D JUMP JUMPDEST SWAP1 PUSH1 0x0 MSTORE PUSH1 0x20 PUSH1 0x0 KECCAK256 SWAP1 PUSH1 0x1F ADD PUSH1 0x20 SWAP1 DIV DUP2 ADD SWAP3 DUP3 PUSH2 0xF8 JUMPI PUSH1 0x0 DUP6 SSTORE PUSH2 0x13F JUMP JUMPDEST DUP3 PUSH1 0x1F LT PUSH2 0x111 JUMPI DUP1 MLOAD PUSH1 0xFF NOT AND DUP4 DUP1 ADD OR DUP6 SSTORE PUSH2 0x13F JUMP JUMPDEST DUP3 DUP1 ADD PUSH1 0x1 ADD DUP6 SSTORE DUP3 ISZERO PUSH2 0x13F JUMPI SWAP2 DUP3 ADD JUMPDEST DUP3 DUP2 GT ISZERO PUSH2 0x13E JUMPI DUP3 MLOAD DUP3 SSTORE SWAP2 PUSH1 0x20 ADD SWAP2 SWAP1 PUSH1 0x1 ADD SWAP1 PUSH2 0x123 JUMP JUMPDEST JUMPDEST POP SWAP1 POP PUSH2 0x14C SWAP2 SWAP1 PUSH2 0x150 JUMP JUMPDEST POP SWAP1 JUMP JUMPDEST JUMPDEST DUP1 DUP3 GT ISZERO PUSH2 0x169 JUMPI PUSH1 0x0 DUP2 PUSH1 0x0 SWAP1 SSTORE POP PUSH1 0x1 ADD PUSH2 0x151 JUMP JUMPDEST POP SWAP1 JUMP JUMPDEST PUSH1 0x0 PUSH1 0x2 DUP3 DIV SWAP1 POP PUSH1 0x1 DUP3 AND DUP1 PUSH2 0x185 JUMPI PUSH1 0x7F DUP3 AND SWAP2 POP JUMPDEST PUSH1 0x20 DUP3 LT DUP2 EQ ISZERO PUSH2 0x199 JUMPI PUSH2 0x198 PUSH2 0x19F JUMP JUMPDEST JUMPDEST POP SWAP2 SWAP1 POP JUMP JUMPDEST PUSH32 0x4E487B7100000000000000000000000000000000000000000000000000000000 PUSH1 0x0 MSTORE PUSH1 0x22 PUSH1 0x4 MSTORE PUSH1 0x24 PUSH1 0x0 REVERT JUMPDEST PUSH2 0x93A DUP1 PUSH2 0x1DD PUSH1 0x0 CODECOPY PUSH1 0x0 RETURN INVALID PUSH1 0x80 PUSH1 0x40 MSTORE CALLVALUE DUP1 ISZERO PUSH2 0x10 JUMPI PUSH1 0x0 DUP1 REVERT JUMPDEST POP PUSH1 0x4 CALLDATASIZE LT PUSH2 0x57 JUMPI PUSH1 0x0 CALLDATALOAD PUSH1 0xE0 SHR DUP1 PUSH4 0x95EA7B3 EQ PUSH2 0x5C JUMPI DUP1 PUSH4 0x23B872DD EQ PUSH2 0x8C JUMPI DUP1 PUSH4 0x42966C68 EQ PUSH2 0xBC JUMPI DUP1 PUSH4 0xA0712D68 EQ PUSH2 0xD8 JUMPI DUP1 PUSH4 0xA9059CBB EQ PUSH2 0xF4 JUMPI JUMPDEST PUSH1 0x0 DUP1 REVERT JUMPDEST PUSH2 0x76 PUSH1 0x4 DUP1 CALLDATASIZE SUB DUP2 ADD SWAP1 PUSH2 0x71 SWAP2 SWAP1 PUSH2 0x70F JUMP JUMPDEST PUSH2 0x124 JUMP JUMPDEST PUSH1 0x40 MLOAD PUSH2 0x83 SWAP2 SWAP1 PUSH2 0x79A JUMP JUMPDEST PUSH1 0x40 MLOAD DUP1 SWAP2 SUB SWAP1 RETURN JUMPDEST PUSH2 0xA6 PUSH1 0x4 DUP1 CALLDATASIZE SUB DUP2 ADD SWAP1 PUSH2 0xA1 SWAP2 SWAP1 PUSH2 0x6BC JUMP JUMPDEST PUSH2 0x216 JUMP JUMPDEST PUSH1 0x40 MLOAD PUSH2 0xB3 SWAP2 SWAP1 PUSH2 0x79A JUMP JUMPDEST PUSH1 0x40 MLOAD DUP1 SWAP2 SUB SWAP1 RETURN JUMPDEST PUSH2 0xD6 PUSH1 0x4 DUP1 CALLDATASIZE SUB DUP2 ADD SWAP1 PUSH2 0xD1 SWAP2 SWAP1 PUSH2 0x74F JUMP JUMPDEST PUSH2 0x3C7 JUMP JUMPDEST STOP JUMPDEST PUSH2 0xF2 PUSH1 0x4 DUP1 CALLDATASIZE SUB DUP2 ADD SWAP1 PUSH2 0xED SWAP2 SWAP1 PUSH2 0x74F JUMP JUMPDEST PUSH2 0x49E JUMP JUMPDEST STOP JUMPDEST PUSH2 0x10E PUSH1 0x4 DUP1 CALLDATASIZE SUB DUP2 ADD SWAP1 PUSH2 0x109 SWAP2 SWAP1 PUSH2 0x70F JUMP JUMPDEST PUSH2 0x575 JUMP JUMPDEST PUSH1 0x40 MLOAD PUSH2 0x11B SWAP2 SWAP1 PUSH2 0x79A JUMP JUMPDEST PUSH1 0x40 MLOAD DUP1 SWAP2 SUB SWAP1 RETURN JUMPDEST PUSH1 0x0 DUP2 PUSH1 0x2 PUSH1 0x0 CALLER PUSH20 0xFFFFFFFFFFFFFFFFFFFFFFFFFFFFFFFFFFFFFFFF AND PUSH20 0xFFFFFFFFFFFFFFFFFFFFFFFFFFFFFFFFFFFFFFFF AND DUP2 MSTORE PUSH1 0x20 ADD SWAP1 DUP2 MSTORE PUSH1 0x20 ADD PUSH1 0x0 KECCAK256 PUSH1 0x0 DUP6 PUSH20 0xFFFFFFFFFFFFFFFFFFFFFFFFFFFFFFFFFFFFFFFF AND PUSH20 0xFFFFFFFFFFFFFFFFFFFFFFFFFFFFFFFFFFFFFFFF AND DUP2 MSTORE PUSH1 0x20 ADD SWAP1 DUP2 MSTORE PUSH1 0x20 ADD PUSH1 0x0 KECCAK256 DUP2 SWAP1 SSTORE POP DUP3 PUSH20 0xFFFFFFFFFFFFFFFFFFFFFFFFFFFFFFFFFFFFFFFF AND CALLER PUSH20 0xFFFFFFFFFFFFFFFFFFFFFFFFFFFFFFFFFFFFFFFF AND PUSH32 0x8C5BE1E5EBEC7D5BD14F71427D1E84F3DD0314C0F7B2291E5B200AC8C7C3B925 DUP5 PUSH1 0x40 MLOAD PUSH2 0x204 SWAP2 SWAP1 PUSH2 0x7B5 JUMP JUMPDEST PUSH1 0x40 MLOAD DUP1 SWAP2 SUB SWAP1 LOG3 PUSH1 0x1 SWAP1 POP SWAP3 SWAP2 POP POP JUMP JUMPDEST PUSH1 0x0 DUP2 PUSH1 0x2 PUSH1 0x0 DUP7 PUSH20 0xFFFFFFFFFFFFFFFFFFFFFFFFFFFFFFFFFFFFFFFF AND PUSH20 0xFFFFFFFFFFFFFFFFFFFFFFFFFFFFFFFFFFFFFFFF AND DUP2 MSTORE PUSH1 0x20 ADD SWAP1 DUP2 MSTORE PUSH1 0x20 ADD PUSH1 0x0 KECCAK256 PUSH1 0x0 CALLER PUSH20 0xFFFFFFFFFFFFFFFFFFFFFFFFFFFFFFFFFFFFFFFF AND PUSH20 0xFFFFFFFFFFFFFFFFFFFFFFFFFFFFFFFFFFFFFFFF AND DUP2 MSTORE PUSH1 0x20 ADD SWAP1 DUP2 MSTORE PUSH1 0x20 ADD PUSH1 0x0 KECCAK256 PUSH1 0x0 DUP3 DUP3 SLOAD PUSH2 0x2A4 SWAP2 SWAP1 PUSH2 0x826 JUMP JUMPDEST SWAP3 POP POP DUP2 SWAP1 SSTORE POP DUP2 PUSH1 0x1 PUSH1 0x0 DUP7 PUSH20 0xFFFFFFFFFFFFFFFFFFFFFFFFFFFFFFFFFFFFFFFF AND PUSH20 0xFFFFFFFFFFFFFFFFFFFFFFFFFFFFFFFFFFFFFFFF AND DUP2 MSTORE PUSH1 0x20 ADD SWAP1 DUP2 MSTORE PUSH1 0x20 ADD PUSH1 0x0 KECCAK256 PUSH1 0x0 DUP3 DUP3 SLOAD PUSH2 0x2FA SWAP2 SWAP1 PUSH2 0x826 JUMP JUMPDEST SWAP3 POP POP DUP2 SWAP1 SSTORE POP DUP2 PUSH1 0x1 PUSH1 0x0 DUP6 PUSH20 0xFFFFFFFFFFFFFFFFFFFFFFFFFFFFFFFFFFFFFFFF AND PUSH20 0xFFFFFFFFFFFFFFFFFFFFFFFFFFFFFFFFFFFFFFFF AND DUP2 MSTORE PUSH1 0x20 ADD SWAP1 DUP2 MSTORE PUSH1 0x20 ADD PUSH1 0x0 KECCAK256 PUSH1 0x0 DUP3 DUP3 SLOAD PUSH2 0x350 SWAP2 SWAP1 PUSH2 0x7D0 JUMP JUMPDEST SWAP3 POP POP DUP2 SWAP1 SSTORE POP DUP3 PUSH20 0xFFFFFFFFFFFFFFFFFFFFFFFFFFFFFFFFFFFFFFFF AND DUP5 PUSH20 0xFFFFFFFFFFFFFFFFFFFFFFFFFFFFFFFFFFFFFFFF AND PUSH32 0xDDF252AD1BE2C89B69C2B068FC378DAA952BA7F163C4A11628F55A4DF523B3EF DUP5 PUSH1 0x40 MLOAD PUSH2 0x3B4 SWAP2 SWAP1 PUSH2 0x7B5 JUMP JUMPDEST PUSH1 0x40 MLOAD DUP1 SWAP2 SUB SWAP1 LOG3 PUSH1 0x1 SWAP1 POP SWAP4 SWAP3 POP POP POP JUMP JUMPDEST DUP1 PUSH1 0x1 PUSH1 0x0 CALLER PUSH20 0xFFFFFFFFFFFFFFFFFFFFFFFFFFFFFFFFFFFFFFFF AND PUSH20 0xFFFFFFFFFFFFFFFFFFFFFFFFFFFFFFFFFFFFFFFF AND DUP2 MSTORE PUSH1 0x20 ADD SWAP1 DUP2 MSTORE PUSH1 0x20 ADD PUSH1 0x0 KECCAK256 PUSH1 0x0 DUP3 DUP3 SLOAD PUSH2 0x416 SWAP2 SWAP1 PUSH2 0x826 JUMP JUMPDEST SWAP3 POP POP DUP2 SWAP1 SSTORE POP DUP1 PUSH1 0x0 DUP1 DUP3 DUP3 SLOAD PUSH2 0x42E SWAP2 SWAP1 PUSH2 0x826 JUMP JUMPDEST SWAP3 POP POP DUP2 SWAP1 SSTORE POP PUSH1 0x0 PUSH20 0xFFFFFFFFFFFFFFFFFFFFFFFFFFFFFFFFFFFFFFFF AND CALLER PUSH20 0xFFFFFFFFFFFFFFFFFFFFFFFFFFFFFFFFFFFFFFFF AND PUSH32 0xDDF252AD1BE2C89B69C2B068FC378DAA952BA7F163C4A11628F55A4DF523B3EF DUP4 PUSH1 0x40 MLOAD PUSH2 0x493 SWAP2 SWAP1 PUSH2 0x7B5 JUMP JUMPDEST PUSH1 0x40 MLOAD DUP1 SWAP2 SUB SWAP1 LOG3 POP JUMP JUMPDEST DUP1 PUSH1 0x1 PUSH1 0x0 CALLER PUSH20 0xFFFFFFFFFFFFFFFFFFFFFFFFFFFFFFFFFFFFFFFF AND PUSH20 0xFFFFFFFFFFFFFFFFFFFFFFFFFFFFFFFFFFFFFFFF AND DUP2 MSTORE PUSH1 0x20 ADD SWAP1 DUP2 MSTORE PUSH1 0x20 ADD PUSH1 0x0 KECCAK256 PUSH1 0x0 DUP3 DUP3 SLOAD PUSH2 0x4ED SWAP2 SWAP1 PUSH2 0x7D0 JUMP JUMPDEST SWAP3 POP POP DUP2 SWAP1 SSTORE POP DUP1 PUSH1 0x0 DUP1 DUP3 DUP3 SLOAD PUSH2 0x505 SWAP2 SWAP1 PUSH2 0x7D0 JUMP JUMPDEST SWAP3 POP POP DUP2 SWAP1 SSTORE POP CALLER PUSH20 0xFFFFFFFFFFFFFFFFFFFFFFFFFFFFFFFFFFFFFFFF AND PUSH1 0x0 PUSH20 0xFFFFFFFFFFFFFFFFFFFFFFFFFFFFFFFFFFFFFFFF AND PUSH32 0xDDF252AD1BE2C89B69C2B068FC378DAA952BA7F163C4A11628F55A4DF523B3EF DUP4 PUSH1 0x40 MLOAD PUSH2 0x56A SWAP2 SWAP1 PUSH2 0x7B5 JUMP JUMPDEST PUSH1 0x40 MLOAD DUP1 SWAP2 SUB SWAP1 LOG3 POP JUMP JUMPDEST PUSH1 0x0 DUP2 PUSH1 0x1 PUSH1 0x0 CALLER PUSH20 0xFFFFFFFFFFFFFFFFFFFFFFFFFFFFFFFFFFFFFFFF AND PUSH20 0xFFFFFFFFFFFFFFFFFFFFFFFFFFFFFFFFFFFFFFFF AND DUP2 MSTORE PUSH1 0x20 ADD SWAP1 DUP2 MSTORE PUSH1 0x20 ADD PUSH1 0x0 KECCAK256 PUSH1 0x0 DUP3 DUP3 SLOAD PUSH2 0x5C6 SWAP2 SWAP1 PUSH2 0x826 JUMP JUMPDEST SWAP3 POP POP DUP2 SWAP1 SSTORE POP DUP2 PUSH1 0x1 PUSH1 0x0 DUP6 PUSH20 0xFFFFFFFFFFFFFFFFFFFFFFFFFFFFFFFFFFFFFFFF AND PUSH20 0xFFFFFFFFFFFFFFFFFFFFFFFFFFFFFFFFFFFFFFFF AND DUP2 MSTORE PUSH1 0x20 ADD SWAP1 DUP2 MSTORE PUSH1 0x20 ADD PUSH1 0x0 KECCAK256 PUSH1 0x0 DUP3 DUP3 SLOAD PUSH2 0x61C SWAP2 SWAP1 PUSH2 0x7D0 JUMP JUMPDEST SWAP3 POP POP DUP2 SWAP1 SSTORE POP DUP3 PUSH20 0xFFFFFFFFFFFFFFFFFFFFFFFFFFFFFFFFFFFFFFFF AND CALLER PUSH20 0xFFFFFFFFFFFFFFFFFFFFFFFFFFFFFFFFFFFFFFFF AND PUSH32 0xDDF252AD1BE2C89B69C2B068FC378DAA952BA7F163C4A11628F55A4DF523B3EF DUP5 PUSH1 0x40 MLOAD PUSH2 0x680 SWAP2 SWAP1 PUSH2 0x7B5 JUMP JUMPDEST PUSH1 0x40 MLOAD DUP1 SWAP2 SUB SWAP1 LOG3 PUSH1 0x1 SWAP1 POP SWAP3 SWAP2 POP POP JUMP JUMPDEST PUSH1 0x0 DUP2 CALLDATALOAD SWAP1 POP PUSH2 0x6A1 DUP2 PUSH2 0x8D6 JUMP JUMPDEST SWAP3 SWAP2 POP POP JUMP JUMPDEST PUSH1 0x0 DUP2 CALLDATALOAD SWAP1 POP PUSH2 0x6B6 DUP2 PUSH2 0x8ED JUMP JUMPDEST SWAP3 SWAP2 POP POP JUMP JUMPDEST PUSH1 0x0 DUP1 PUSH1 0x0 PUSH1 0x60 DUP5 DUP7 SUB SLT ISZERO PUSH2 0x6D5 JUMPI PUSH2 0x6D4 PUSH2 0x8D1 JUMP JUMPDEST JUMPDEST PUSH1 0x0 PUSH2 0x6E3 DUP7 DUP3 DUP8 ADD PUSH2 0x692 JUMP JUMPDEST SWAP4 POP POP PUSH1 0x20 PUSH2 0x6F4 DUP7 DUP3 DUP8 ADD PUSH2 0x692 JUMP JUMPDEST SWAP3 POP POP PUSH1 0x40 PUSH2 0x705 DUP7 DUP3 DUP8 ADD PUSH2 0x6A7 JUMP JUMPDEST SWAP2 POP POP SWAP3 POP SWAP3 POP SWAP3 JUMP JUMPDEST PUSH1 0x0 DUP1 PUSH1 0x40 DUP4 DUP6 SUB SLT ISZERO PUSH2 0x726 JUMPI PUSH2 0x725 PUSH2 0x8D1 JUMP JUMPDEST JUMPDEST PUSH1 0x0 PUSH2 0x734 DUP6 DUP3 DUP7 ADD PUSH2 0x692 JUMP JUMPDEST SWAP3 POP POP PUSH1 0x20 PUSH2 0x745 DUP6 DUP3 DUP7 ADD PUSH2 0x6A7 JUMP JUMPDEST SWAP2 POP POP SWAP3 POP SWAP3 SWAP1 POP JUMP JUMPDEST PUSH1 0x0 PUSH1 0x20 DUP3 DUP5 SUB SLT ISZERO PUSH2 0x765 JUMPI PUSH2 0x764 PUSH2 0x8D1 JUMP JUMPDEST JUMPDEST PUSH1 0x0 PUSH2 0x773 DUP5 DUP3 DUP6 ADD PUSH2 0x6A7 JUMP JUMPDEST SWAP2 POP POP SWAP3 SWAP2 POP POP JUMP JUMPDEST PUSH2 0x785 DUP2 PUSH2 0x86C JUMP JUMPDEST DUP3 MSTORE POP POP JUMP JUMPDEST PUSH2 0x794 DUP2 PUSH2 0x898 JUMP JUMPDEST DUP3 MSTORE POP POP JUMP JUMPDEST PUSH1 0x0 PUSH1 0x20 DUP3 ADD SWAP1 POP PUSH2 0x7AF PUSH1 0x0 DUP4 ADD DUP5 PUSH2 0x77C JUMP JUMPDEST SWAP3 SWAP2 POP POP JUMP JUMPDEST PUSH1 0x0 PUSH1 0x20 DUP3 ADD SWAP1 POP PUSH2 0x7CA PUSH1 0x0 DUP4 ADD DUP5 PUSH2 0x78B JUMP JUMPDEST SWAP3 SWAP2 POP POP JUMP JUMPDEST PUSH1 0x0 PUSH2 0x7DB DUP3 PUSH2 0x898 JUMP JUMPDEST SWAP2 POP PUSH2 0x7E6 DUP4 PUSH2 0x898 JUMP JUMPDEST SWAP3 POP DUP3 PUSH32 0xFFFFFFFFFFFFFFFFFFFFFFFFFFFFFFFFFFFFFFFFFFFFFFFFFFFFFFFFFFFFFFFF SUB DUP3 GT ISZERO PUSH2 0x81B JUMPI PUSH2 0x81A PUSH2 0x8A2 JUMP JUMPDEST JUMPDEST DUP3 DUP3 ADD SWAP1 POP SWAP3 SWAP2 POP POP JUMP JUMPDEST PUSH1 0x0 PUSH2 0x831 DUP3 PUSH2 0x898 JUMP JUMPDEST SWAP2 POP PUSH2 0x83C DUP4 PUSH2 0x898 JUMP JUMPDEST SWAP3 POP DUP3 DUP3 LT ISZERO PUSH2 0x84F JUMPI PUSH2 0x84E PUSH2 0x8A2 JUMP JUMPDEST JUMPDEST DUP3 DUP3 SUB SWAP1 POP SWAP3 SWAP2 POP POP JUMP JUMPDEST PUSH1 0x0 PUSH2 0x865 DUP3 PUSH2 0x878 JUMP JUMPDEST SWAP1 POP SWAP2 SWAP1 POP JUMP JUMPDEST PUSH1 0x0 DUP2 ISZERO ISZERO SWAP1 POP SWAP2 SWAP1 POP JUMP JUMPDEST PUSH1 0x0 PUSH20 0xFFFFFFFFFFFFFFFFFFFFFFFFFFFFFFFFFFFFFFFF DUP3 AND SWAP1 POP SWAP2 SWAP1 POP JUMP JUMPDEST PUSH1 0x0 DUP2 SWAP1 POP SWAP2 SWAP1 POP JUMP JUMPDEST PUSH32 0x4E487B7100000000000000000000000000000000000000000000000000000000 PUSH1 0x0 MSTORE PUSH1 0x11 PUSH1 0x4 MSTORE PUSH1 0x24 PUSH1 0x0 REVERT JUMPDEST PUSH1 0x0 DUP1 REVERT JUMPDEST PUSH2 0x8DF DUP2 PUSH2 0x85A JUMP JUMPDEST DUP2 EQ PUSH2 0x8EA JUMPI PUSH1 0x0 DUP1 REVERT JUMPDEST POP JUMP JUMPDEST PUSH2 0x8F6 DUP2 PUSH2 0x898 JUMP JUMPDEST DUP2 EQ PUSH2 0x901 JUMPI PUSH1 0x0 DUP1 REVERT JUMPDEST POP JUMP INVALID LOG2 PUSH5 0x6970667358 0x22 SLT KECCAK256 0x29 0xC7 0xC9 STOP PUSH3 0x22E1F0 SMOD 0x5D 0xED EQ PUSH17 0x4569AC06524979FD445458ADA50DBF111F 0xA7 0xC PUSH5 0x736F6C6343 STOP ADDMOD SMOD STOP CALLER "
				},
				"gasEstimates": {
					"creation": {
						"codeDepositCost": "472400",
						"executionCost": "infinite",
						"totalCost": "infinite"
					},
					"external": {
						"approve(address,uint256)": "infinite",
						"burn(uint256)": "infinite",
						"mint(uint256)": "infinite",
						"transfer(address,uint256)": "infinite",
						"transferFrom(address,address,uint256)": "infinite"
					}
				},
				"methodIdentifiers": {
					"approve(address,uint256)": "095ea7b3",
					"burn(uint256)": "42966c68",
					"mint(uint256)": "a0712d68",
					"transfer(address,uint256)": "a9059cbb",
					"transferFrom(address,address,uint256)": "23b872dd"
				}
			},
			"userdoc": {
				"kind": "user",
				"methods": {},
				"version": 1
			}
		}
	}
}