{
	"contracts/TokenSwap.sol": {
		"TokenSwap": {
			"abi": [
				{
					"inputs": [
						{
							"internalType": "address",
							"name": "_token1",
							"type": "address"
						},
						{
							"internalType": "address",
							"name": "_owner1",
							"type": "address"
						},
						{
							"internalType": "uint256",
							"name": "_amount1",
							"type": "uint256"
						},
						{
							"internalType": "address",
							"name": "_token2",
							"type": "address"
						},
						{
							"internalType": "address",
							"name": "_owner2",
							"type": "address"
						},
						{
							"internalType": "uint256",
							"name": "_amount2",
							"type": "uint256"
						}
					],
					"stateMutability": "nonpayable",
					"type": "constructor"
				},
				{
					"inputs": [],
					"name": "amount1",
					"outputs": [
						{
							"internalType": "uint256",
							"name": "",
							"type": "uint256"
						}
					],
					"stateMutability": "view",
					"type": "function"
				},
				{
					"inputs": [],
					"name": "amount2",
					"outputs": [
						{
							"internalType": "uint256",
							"name": "",
							"type": "uint256"
						}
					],
					"stateMutability": "view",
					"type": "function"
				},
				{
					"inputs": [],
					"name": "owner1",
					"outputs": [
						{
							"internalType": "address",
							"name": "",
							"type": "address"
						}
					],
					"stateMutability": "view",
					"type": "function"
				},
				{
					"inputs": [],
					"name": "owner2",
					"outputs": [
						{
							"internalType": "address",
							"name": "",
							"type": "address"
						}
					],
					"stateMutability": "view",
					"type": "function"
				},
				{
					"inputs": [],
					"name": "swap",
					"outputs": [],
					"stateMutability": "nonpayable",
					"type": "function"
				},
				{
					"inputs": [],
					"name": "token1",
					"outputs": [
						{
							"internalType": "contract IERC20",
							"name": "",
							"type": "address"
						}
					],
					"stateMutability": "view",
					"type": "function"
				},
				{
					"inputs": [],
					"name": "token2",
					"outputs": [
						{
							"internalType": "contract IERC20",
							"name": "",
							"type": "address"
						}
					],
					"stateMutability": "view",
					"type": "function"
				}
			],
			"devdoc": {
				"kind": "dev",
				"methods": {},
				"version": 1
			},
			"evm": {
				"assembly": "    /* \"contracts/TokenSwap.sol\":768:2085  contract TokenSwap {... */\n  mstore(0x40, 0x80)\n    /* \"contracts/TokenSwap.sol\":950:1297  constructor(... */\n  callvalue\n  dup1\n  iszero\n  tag_1\n  jumpi\n  0x00\n  dup1\n  revert\ntag_1:\n  pop\n  mload(0x40)\n  sub(codesize, bytecodeSize)\n  dup1\n  bytecodeSize\n  dup4\n  codecopy\n  dup2\n  dup2\n  add\n  0x40\n  mstore\n  dup2\n  add\n  swap1\n  tag_2\n  swap2\n  swap1\n  tag_3\n  jump\t// in\ntag_2:\n    /* \"contracts/TokenSwap.sol\":1140:1147  _token1 */\n  dup6\n    /* \"contracts/TokenSwap.sol\":1124:1130  token1 */\n  0x00\n  dup1\n    /* \"contracts/TokenSwap.sol\":1124:1148  token1 = IERC20(_token1) */\n  0x0100\n  exp\n  dup2\n  sload\n  dup2\n  0xffffffffffffffffffffffffffffffffffffffff\n  mul\n  not\n  and\n  swap1\n  dup4\n  0xffffffffffffffffffffffffffffffffffffffff\n  and\n  mul\n  or\n  swap1\n  sstore\n  pop\n    /* \"contracts/TokenSwap.sol\":1167:1174  _owner1 */\n  dup5\n    /* \"contracts/TokenSwap.sol\":1158:1164  owner1 */\n  0x01\n  0x00\n    /* \"contracts/TokenSwap.sol\":1158:1174  owner1 = _owner1 */\n  0x0100\n  exp\n  dup2\n  sload\n  dup2\n  0xffffffffffffffffffffffffffffffffffffffff\n  mul\n  not\n  and\n  swap1\n  dup4\n  0xffffffffffffffffffffffffffffffffffffffff\n  and\n  mul\n  or\n  swap1\n  sstore\n  pop\n    /* \"contracts/TokenSwap.sol\":1194:1202  _amount1 */\n  dup4\n    /* \"contracts/TokenSwap.sol\":1184:1191  amount1 */\n  0x02\n    /* \"contracts/TokenSwap.sol\":1184:1202  amount1 = _amount1 */\n  dup2\n  swap1\n  sstore\n  pop\n    /* \"contracts/TokenSwap.sol\":1228:1235  _token2 */\n  dup3\n    /* \"contracts/TokenSwap.sol\":1212:1218  token2 */\n  0x03\n  0x00\n    /* \"contracts/TokenSwap.sol\":1212:1236  token2 = IERC20(_token2) */\n  0x0100\n  exp\n  dup2\n  sload\n  dup2\n  0xffffffffffffffffffffffffffffffffffffffff\n  mul\n  not\n  and\n  swap1\n  dup4\n  0xffffffffffffffffffffffffffffffffffffffff\n  and\n  mul\n  or\n  swap1\n  sstore\n  pop\n    /* \"contracts/TokenSwap.sol\":1255:1262  _owner2 */\n  dup2\n    /* \"contracts/TokenSwap.sol\":1246:1252  owner2 */\n  0x04\n  0x00\n    /* \"contracts/TokenSwap.sol\":1246:1262  owner2 = _owner2 */\n  0x0100\n  exp\n  dup2\n  sload\n  dup2\n  0xffffffffffffffffffffffffffffffffffffffff\n  mul\n  not\n  and\n  swap1\n  dup4\n  0xffffffffffffffffffffffffffffffffffffffff\n  and\n  mul\n  or\n  swap1\n  sstore\n  pop\n    /* \"contracts/TokenSwap.sol\":1282:1290  _amount2 */\n  dup1\n    /* \"contracts/TokenSwap.sol\":1272:1279  amount2 */\n  0x05\n    /* \"contracts/TokenSwap.sol\":1272:1290  amount2 = _amount2 */\n  dup2\n  swap1\n  sstore\n  pop\n    /* \"contracts/TokenSwap.sol\":950:1297  constructor(... */\n  pop\n  pop\n  pop\n  pop\n  pop\n  pop\n    /* \"contracts/TokenSwap.sol\":768:2085  contract TokenSwap {... */\n  jump(tag_6)\n    /* \"#utility.yul\":7:150   */\ntag_8:\n    /* \"#utility.yul\":64:69   */\n  0x00\n    /* \"#utility.yul\":95:101   */\n  dup2\n    /* \"#utility.yul\":89:102   */\n  mload\n    /* \"#utility.yul\":80:102   */\n  swap1\n  pop\n    /* \"#utility.yul\":111:144   */\n  tag_10\n    /* \"#utility.yul\":138:143   */\n  dup2\n    /* \"#utility.yul\":111:144   */\n  tag_11\n  jump\t// in\ntag_10:\n    /* \"#utility.yul\":7:150   */\n  swap3\n  swap2\n  pop\n  pop\n  jump\t// out\n    /* \"#utility.yul\":156:299   */\ntag_12:\n    /* \"#utility.yul\":213:218   */\n  0x00\n    /* \"#utility.yul\":244:250   */\n  dup2\n    /* \"#utility.yul\":238:251   */\n  mload\n    /* \"#utility.yul\":229:251   */\n  swap1\n  pop\n    /* \"#utility.yul\":260:293   */\n  tag_14\n    /* \"#utility.yul\":287:292   */\n  dup2\n    /* \"#utility.yul\":260:293   */\n  tag_15\n  jump\t// in\ntag_14:\n    /* \"#utility.yul\":156:299   */\n  swap3\n  swap2\n  pop\n  pop\n  jump\t// out\n    /* \"#utility.yul\":305:1439   */\ntag_3:\n    /* \"#utility.yul\":420:426   */\n  0x00\n    /* \"#utility.yul\":428:434   */\n  dup1\n    /* \"#utility.yul\":436:442   */\n  0x00\n    /* \"#utility.yul\":444:450   */\n  dup1\n    /* \"#utility.yul\":452:458   */\n  0x00\n    /* \"#utility.yul\":460:466   */\n  dup1\n    /* \"#utility.yul\":509:512   */\n  0xc0\n    /* \"#utility.yul\":497:506   */\n  dup8\n    /* \"#utility.yul\":488:495   */\n  dup10\n    /* \"#utility.yul\":484:507   */\n  sub\n    /* \"#utility.yul\":480:513   */\n  slt\n    /* \"#utility.yul\":477:597   */\n  iszero\n  tag_17\n  jumpi\n    /* \"#utility.yul\":516:595   */\n  tag_18\n  tag_19\n  jump\t// in\ntag_18:\n    /* \"#utility.yul\":477:597   */\ntag_17:\n    /* \"#utility.yul\":636:637   */\n  0x00\n    /* \"#utility.yul\":661:725   */\n  tag_20\n    /* \"#utility.yul\":717:724   */\n  dup10\n    /* \"#utility.yul\":708:714   */\n  dup3\n    /* \"#utility.yul\":697:706   */\n  dup11\n    /* \"#utility.yul\":693:715   */\n  add\n    /* \"#utility.yul\":661:725   */\n  tag_8\n  jump\t// in\ntag_20:\n    /* \"#utility.yul\":651:725   */\n  swap7\n  pop\n    /* \"#utility.yul\":607:735   */\n  pop\n    /* \"#utility.yul\":774:776   */\n  0x20\n    /* \"#utility.yul\":800:864   */\n  tag_21\n    /* \"#utility.yul\":856:863   */\n  dup10\n    /* \"#utility.yul\":847:853   */\n  dup3\n    /* \"#utility.yul\":836:845   */\n  dup11\n    /* \"#utility.yul\":832:854   */\n  add\n    /* \"#utility.yul\":800:864   */\n  tag_8\n  jump\t// in\ntag_21:\n    /* \"#utility.yul\":790:864   */\n  swap6\n  pop\n    /* \"#utility.yul\":745:874   */\n  pop\n    /* \"#utility.yul\":913:915   */\n  0x40\n    /* \"#utility.yul\":939:1003   */\n  tag_22\n    /* \"#utility.yul\":995:1002   */\n  dup10\n    /* \"#utility.yul\":986:992   */\n  dup3\n    /* \"#utility.yul\":975:984   */\n  dup11\n    /* \"#utility.yul\":971:993   */\n  add\n    /* \"#utility.yul\":939:1003   */\n  tag_12\n  jump\t// in\ntag_22:\n    /* \"#utility.yul\":929:1003   */\n  swap5\n  pop\n    /* \"#utility.yul\":884:1013   */\n  pop\n    /* \"#utility.yul\":1052:1054   */\n  0x60\n    /* \"#utility.yul\":1078:1142   */\n  tag_23\n    /* \"#utility.yul\":1134:1141   */\n  dup10\n    /* \"#utility.yul\":1125:1131   */\n  dup3\n    /* \"#utility.yul\":1114:1123   */\n  dup11\n    /* \"#utility.yul\":1110:1132   */\n  add\n    /* \"#utility.yul\":1078:1142   */\n  tag_8\n  jump\t// in\ntag_23:\n    /* \"#utility.yul\":1068:1142   */\n  swap4\n  pop\n    /* \"#utility.yul\":1023:1152   */\n  pop\n    /* \"#utility.yul\":1191:1194   */\n  0x80\n    /* \"#utility.yul\":1218:1282   */\n  tag_24\n    /* \"#utility.yul\":1274:1281   */\n  dup10\n    /* \"#utility.yul\":1265:1271   */\n  dup3\n    /* \"#utility.yul\":1254:1263   */\n  dup11\n    /* \"#utility.yul\":1250:1272   */\n  add\n    /* \"#utility.yul\":1218:1282   */\n  tag_8\n  jump\t// in\ntag_24:\n    /* \"#utility.yul\":1208:1282   */\n  swap3\n  pop\n    /* \"#utility.yul\":1162:1292   */\n  pop\n    /* \"#utility.yul\":1331:1334   */\n  0xa0\n    /* \"#utility.yul\":1358:1422   */\n  tag_25\n    /* \"#utility.yul\":1414:1421   */\n  dup10\n    /* \"#utility.yul\":1405:1411   */\n  dup3\n    /* \"#utility.yul\":1394:1403   */\n  dup11\n    /* \"#utility.yul\":1390:1412   */\n  add\n    /* \"#utility.yul\":1358:1422   */\n  tag_12\n  jump\t// in\ntag_25:\n    /* \"#utility.yul\":1348:1422   */\n  swap2\n  pop\n    /* \"#utility.yul\":1302:1432   */\n  pop\n    /* \"#utility.yul\":305:1439   */\n  swap3\n  swap6\n  pop\n  swap3\n  swap6\n  pop\n  swap3\n  swap6\n  jump\t// out\n    /* \"#utility.yul\":1526:1622   */\ntag_28:\n    /* \"#utility.yul\":1563:1570   */\n  0x00\n    /* \"#utility.yul\":1592:1616   */\n  tag_30\n    /* \"#utility.yul\":1610:1615   */\n  dup3\n    /* \"#utility.yul\":1592:1616   */\n  tag_31\n  jump\t// in\ntag_30:\n    /* \"#utility.yul\":1581:1616   */\n  swap1\n  pop\n    /* \"#utility.yul\":1526:1622   */\n  swap2\n  swap1\n  pop\n  jump\t// out\n    /* \"#utility.yul\":1628:1754   */\ntag_31:\n    /* \"#utility.yul\":1665:1672   */\n  0x00\n    /* \"#utility.yul\":1705:1747   */\n  0xffffffffffffffffffffffffffffffffffffffff\n    /* \"#utility.yul\":1698:1703   */\n  dup3\n    /* \"#utility.yul\":1694:1748   */\n  and\n    /* \"#utility.yul\":1683:1748   */\n  swap1\n  pop\n    /* \"#utility.yul\":1628:1754   */\n  swap2\n  swap1\n  pop\n  jump\t// out\n    /* \"#utility.yul\":1760:1837   */\ntag_33:\n    /* \"#utility.yul\":1797:1804   */\n  0x00\n    /* \"#utility.yul\":1826:1831   */\n  dup2\n    /* \"#utility.yul\":1815:1831   */\n  swap1\n  pop\n    /* \"#utility.yul\":1760:1837   */\n  swap2\n  swap1\n  pop\n  jump\t// out\n    /* \"#utility.yul\":1966:2083   */\ntag_19:\n    /* \"#utility.yul\":2075:2076   */\n  0x00\n    /* \"#utility.yul\":2072:2073   */\n  dup1\n    /* \"#utility.yul\":2065:2077   */\n  revert\n    /* \"#utility.yul\":2089:2211   */\ntag_11:\n    /* \"#utility.yul\":2162:2186   */\n  tag_39\n    /* \"#utility.yul\":2180:2185   */\n  dup2\n    /* \"#utility.yul\":2162:2186   */\n  tag_28\n  jump\t// in\ntag_39:\n    /* \"#utility.yul\":2155:2160   */\n  dup2\n    /* \"#utility.yul\":2152:2187   */\n  eq\n    /* \"#utility.yul\":2142:2205   */\n  tag_40\n  jumpi\n    /* \"#utility.yul\":2201:2202   */\n  0x00\n    /* \"#utility.yul\":2198:2199   */\n  dup1\n    /* \"#utility.yul\":2191:2203   */\n  revert\n    /* \"#utility.yul\":2142:2205   */\ntag_40:\n    /* \"#utility.yul\":2089:2211   */\n  pop\n  jump\t// out\n    /* \"#utility.yul\":2217:2339   */\ntag_15:\n    /* \"#utility.yul\":2290:2314   */\n  tag_42\n    /* \"#utility.yul\":2308:2313   */\n  dup2\n    /* \"#utility.yul\":2290:2314   */\n  tag_33\n  jump\t// in\ntag_42:\n    /* \"#utility.yul\":2283:2288   */\n  dup2\n    /* \"#utility.yul\":2280:2315   */\n  eq\n    /* \"#utility.yul\":2270:2333   */\n  tag_43\n  jumpi\n    /* \"#utility.yul\":2329:2330   */\n  0x00\n    /* \"#utility.yul\":2326:2327   */\n  dup1\n    /* \"#utility.yul\":2319:2331   */\n  revert\n    /* \"#utility.yul\":2270:2333   */\ntag_43:\n    /* \"#utility.yul\":2217:2339   */\n  pop\n  jump\t// out\n    /* \"contracts/TokenSwap.sol\":768:2085  contract TokenSwap {... */\ntag_6:\n  dataSize(sub_0)\n  dup1\n  dataOffset(sub_0)\n  0x00\n  codecopy\n  0x00\n  return\nstop\n\nsub_0: assembly {\n        /* \"contracts/TokenSwap.sol\":768:2085  contract TokenSwap {... */\n      mstore(0x40, 0x80)\n      callvalue\n      dup1\n      iszero\n      tag_1\n      jumpi\n      0x00\n      dup1\n      revert\n    tag_1:\n      pop\n      jumpi(tag_2, lt(calldatasize, 0x04))\n      shr(0xe0, calldataload(0x00))\n      dup1\n      0x73688914\n      gt\n      tag_10\n      jumpi\n      dup1\n      0x73688914\n      eq\n      tag_6\n      jumpi\n      dup1\n      0x8119c065\n      eq\n      tag_7\n      jumpi\n      dup1\n      0xd21220a7\n      eq\n      tag_8\n      jumpi\n      dup1\n      0xf400fde4\n      eq\n      tag_9\n      jumpi\n      jump(tag_2)\n    tag_10:\n      dup1\n      0x057bfcc7\n      eq\n      tag_3\n      jumpi\n      dup1\n      0x25be124e\n      eq\n      tag_4\n      jumpi\n      dup1\n      0x52709725\n      eq\n      tag_5\n      jumpi\n    tag_2:\n      0x00\n      dup1\n      revert\n        /* \"contracts/TokenSwap.sol\":924:943  uint public amount2 */\n    tag_3:\n      tag_11\n      tag_12\n      jump\t// in\n    tag_11:\n      mload(0x40)\n      tag_13\n      swap2\n      swap1\n      tag_14\n      jump\t// in\n    tag_13:\n      mload(0x40)\n      dup1\n      swap2\n      sub\n      swap1\n      return\n        /* \"contracts/TokenSwap.sol\":871:891  IERC20 public token2 */\n    tag_4:\n      tag_15\n      tag_16\n      jump\t// in\n    tag_15:\n      mload(0x40)\n      tag_17\n      swap2\n      swap1\n      tag_18\n      jump\t// in\n    tag_17:\n      mload(0x40)\n      dup1\n      swap2\n      sub\n      swap1\n      return\n        /* \"contracts/TokenSwap.sol\":897:918  address public owner2 */\n    tag_5:\n      tag_19\n      tag_20\n      jump\t// in\n    tag_19:\n      mload(0x40)\n      tag_21\n      swap2\n      swap1\n      tag_22\n      jump\t// in\n    tag_21:\n      mload(0x40)\n      dup1\n      swap2\n      sub\n      swap1\n      return\n        /* \"contracts/TokenSwap.sol\":819:840  address public owner1 */\n    tag_6:\n      tag_23\n      tag_24\n      jump\t// in\n    tag_23:\n      mload(0x40)\n      tag_25\n      swap2\n      swap1\n      tag_22\n      jump\t// in\n    tag_25:\n      mload(0x40)\n      dup1\n      swap2\n      sub\n      swap1\n      return\n        /* \"contracts/TokenSwap.sol\":1303:1821  function swap() public {... */\n    tag_7:\n      tag_26\n      tag_27\n      jump\t// in\n    tag_26:\n      stop\n        /* \"contracts/TokenSwap.sol\":793:813  IERC20 public token1 */\n    tag_8:\n      tag_28\n      tag_29\n      jump\t// in\n    tag_28:\n      mload(0x40)\n      tag_30\n      swap2\n      swap1\n      tag_18\n      jump\t// in\n    tag_30:\n      mload(0x40)\n      dup1\n      swap2\n      sub\n      swap1\n      return\n        /* \"contracts/TokenSwap.sol\":846:865  uint public amount1 */\n    tag_9:\n      tag_31\n      tag_32\n      jump\t// in\n    tag_31:\n      mload(0x40)\n      tag_33\n      swap2\n      swap1\n      tag_14\n      jump\t// in\n    tag_33:\n      mload(0x40)\n      dup1\n      swap2\n      sub\n      swap1\n      return\n        /* \"contracts/TokenSwap.sol\":924:943  uint public amount2 */\n    tag_12:\n      sload(0x05)\n      dup2\n      jump\t// out\n        /* \"contracts/TokenSwap.sol\":871:891  IERC20 public token2 */\n    tag_16:\n      0x03\n      0x00\n      swap1\n      sload\n      swap1\n      0x0100\n      exp\n      swap1\n      div\n      0xffffffffffffffffffffffffffffffffffffffff\n      and\n      dup2\n      jump\t// out\n        /* \"contracts/TokenSwap.sol\":897:918  address public owner2 */\n    tag_20:\n      0x04\n      0x00\n      swap1\n      sload\n      swap1\n      0x0100\n      exp\n      swap1\n      div\n      0xffffffffffffffffffffffffffffffffffffffff\n      and\n      dup2\n      jump\t// out\n        /* \"contracts/TokenSwap.sol\":819:840  address public owner1 */\n    tag_24:\n      0x01\n      0x00\n      swap1\n      sload\n      swap1\n      0x0100\n      exp\n      swap1\n      div\n      0xffffffffffffffffffffffffffffffffffffffff\n      and\n      dup2\n      jump\t// out\n        /* \"contracts/TokenSwap.sol\":1303:1821  function swap() public {... */\n    tag_27:\n        /* \"contracts/TokenSwap.sol\":1358:1364  owner1 */\n      0x01\n      0x00\n      swap1\n      sload\n      swap1\n      0x0100\n      exp\n      swap1\n      div\n      0xffffffffffffffffffffffffffffffffffffffff\n      and\n        /* \"contracts/TokenSwap.sol\":1344:1364  msg.sender == owner1 */\n      0xffffffffffffffffffffffffffffffffffffffff\n      and\n        /* \"contracts/TokenSwap.sol\":1344:1354  msg.sender */\n      caller\n        /* \"contracts/TokenSwap.sol\":1344:1364  msg.sender == owner1 */\n      0xffffffffffffffffffffffffffffffffffffffff\n      and\n      eq\n        /* \"contracts/TokenSwap.sol\":1344:1388  msg.sender == owner1 || msg.sender == owner2 */\n      dup1\n      tag_35\n      jumpi\n      pop\n        /* \"contracts/TokenSwap.sol\":1382:1388  owner2 */\n      0x04\n      0x00\n      swap1\n      sload\n      swap1\n      0x0100\n      exp\n      swap1\n      div\n      0xffffffffffffffffffffffffffffffffffffffff\n      and\n        /* \"contracts/TokenSwap.sol\":1368:1388  msg.sender == owner2 */\n      0xffffffffffffffffffffffffffffffffffffffff\n      and\n        /* \"contracts/TokenSwap.sol\":1368:1378  msg.sender */\n      caller\n        /* \"contracts/TokenSwap.sol\":1368:1388  msg.sender == owner2 */\n      0xffffffffffffffffffffffffffffffffffffffff\n      and\n      eq\n        /* \"contracts/TokenSwap.sol\":1344:1388  msg.sender == owner1 || msg.sender == owner2 */\n    tag_35:\n        /* \"contracts/TokenSwap.sol\":1336:1407  require(msg.sender == owner1 || msg.sender == owner2, \"Not authorized\") */\n      tag_36\n      jumpi\n      mload(0x40)\n      0x08c379a000000000000000000000000000000000000000000000000000000000\n      dup2\n      mstore\n      0x04\n      add\n      tag_37\n      swap1\n      tag_38\n      jump\t// in\n    tag_37:\n      mload(0x40)\n      dup1\n      swap2\n      sub\n      swap1\n      revert\n    tag_36:\n        /* \"contracts/TokenSwap.sol\":1706:1755  safeTransferFrom(token1, owner1, owner2, amount1) */\n      tag_39\n        /* \"contracts/TokenSwap.sol\":1723:1729  token1 */\n      0x00\n      dup1\n      sload\n      swap1\n      0x0100\n      exp\n      swap1\n      div\n      0xffffffffffffffffffffffffffffffffffffffff\n      and\n        /* \"contracts/TokenSwap.sol\":1731:1737  owner1 */\n      0x01\n      0x00\n      swap1\n      sload\n      swap1\n      0x0100\n      exp\n      swap1\n      div\n      0xffffffffffffffffffffffffffffffffffffffff\n      and\n        /* \"contracts/TokenSwap.sol\":1739:1745  owner2 */\n      0x04\n      0x00\n      swap1\n      sload\n      swap1\n      0x0100\n      exp\n      swap1\n      div\n      0xffffffffffffffffffffffffffffffffffffffff\n      and\n        /* \"contracts/TokenSwap.sol\":1747:1754  amount1 */\n      sload(0x02)\n        /* \"contracts/TokenSwap.sol\":1706:1722  safeTransferFrom */\n      tag_40\n        /* \"contracts/TokenSwap.sol\":1706:1755  safeTransferFrom(token1, owner1, owner2, amount1) */\n      jump\t// in\n    tag_39:\n        /* \"contracts/TokenSwap.sol\":1765:1814  safeTransferFrom(token2, owner2, owner1, amount2) */\n      tag_41\n        /* \"contracts/TokenSwap.sol\":1782:1788  token2 */\n      0x03\n      0x00\n      swap1\n      sload\n      swap1\n      0x0100\n      exp\n      swap1\n      div\n      0xffffffffffffffffffffffffffffffffffffffff\n      and\n        /* \"contracts/TokenSwap.sol\":1790:1796  owner2 */\n      0x04\n      0x00\n      swap1\n      sload\n      swap1\n      0x0100\n      exp\n      swap1\n      div\n      0xffffffffffffffffffffffffffffffffffffffff\n      and\n        /* \"contracts/TokenSwap.sol\":1798:1804  owner1 */\n      0x01\n      0x00\n      swap1\n      sload\n      swap1\n      0x0100\n      exp\n      swap1\n      div\n      0xffffffffffffffffffffffffffffffffffffffff\n      and\n        /* \"contracts/TokenSwap.sol\":1806:1813  amount2 */\n      sload(0x05)\n        /* \"contracts/TokenSwap.sol\":1765:1781  safeTransferFrom */\n      tag_40\n        /* \"contracts/TokenSwap.sol\":1765:1814  safeTransferFrom(token2, owner2, owner1, amount2) */\n      jump\t// in\n    tag_41:\n        /* \"contracts/TokenSwap.sol\":1303:1821  function swap() public {... */\n      jump\t// out\n        /* \"contracts/TokenSwap.sol\":793:813  IERC20 public token1 */\n    tag_29:\n      0x00\n      dup1\n      sload\n      swap1\n      0x0100\n      exp\n      swap1\n      div\n      0xffffffffffffffffffffffffffffffffffffffff\n      and\n      dup2\n      jump\t// out\n        /* \"contracts/TokenSwap.sol\":846:865  uint public amount1 */\n    tag_32:\n      sload(0x02)\n      dup2\n      jump\t// out\n        /* \"contracts/TokenSwap.sol\":1827:2083  function safeTransferFrom(... */\n    tag_40:\n        /* \"contracts/TokenSwap.sol\":1971:1980  bool sent */\n      0x00\n        /* \"contracts/TokenSwap.sol\":1983:1988  token */\n      dup5\n        /* \"contracts/TokenSwap.sol\":1983:2001  token.transferFrom */\n      0xffffffffffffffffffffffffffffffffffffffff\n      and\n      0x23b872dd\n        /* \"contracts/TokenSwap.sol\":2002:2008  sender */\n      dup6\n        /* \"contracts/TokenSwap.sol\":2010:2019  recipient */\n      dup6\n        /* \"contracts/TokenSwap.sol\":2021:2027  amount */\n      dup6\n        /* \"contracts/TokenSwap.sol\":1983:2028  token.transferFrom(sender, recipient, amount) */\n      mload(0x40)\n      dup5\n      0xffffffff\n      and\n      0xe0\n      shl\n      dup2\n      mstore\n      0x04\n      add\n      tag_43\n      swap4\n      swap3\n      swap2\n      swap1\n      tag_44\n      jump\t// in\n    tag_43:\n      0x20\n      mload(0x40)\n      dup1\n      dup4\n      sub\n      dup2\n      0x00\n      dup8\n      dup1\n      extcodesize\n      iszero\n      dup1\n      iszero\n      tag_45\n      jumpi\n      0x00\n      dup1\n      revert\n    tag_45:\n      pop\n      gas\n      call\n      iszero\n      dup1\n      iszero\n      tag_47\n      jumpi\n      returndatasize\n      0x00\n      dup1\n      returndatacopy\n      revert(0x00, returndatasize)\n    tag_47:\n      pop\n      pop\n      pop\n      pop\n      mload(0x40)\n      returndatasize\n      not(0x1f)\n      0x1f\n      dup3\n      add\n      and\n      dup3\n      add\n      dup1\n      0x40\n      mstore\n      pop\n      dup2\n      add\n      swap1\n      tag_48\n      swap2\n      swap1\n      tag_49\n      jump\t// in\n    tag_48:\n        /* \"contracts/TokenSwap.sol\":1971:2028  bool sent = token.transferFrom(sender, recipient, amount) */\n      swap1\n      pop\n        /* \"contracts/TokenSwap.sol\":2046:2050  sent */\n      dup1\n        /* \"contracts/TokenSwap.sol\":2038:2076  require(sent, \"Token transfer failed\") */\n      tag_50\n      jumpi\n      mload(0x40)\n      0x08c379a000000000000000000000000000000000000000000000000000000000\n      dup2\n      mstore\n      0x04\n      add\n      tag_51\n      swap1\n      tag_52\n      jump\t// in\n    tag_51:\n      mload(0x40)\n      dup1\n      swap2\n      sub\n      swap1\n      revert\n    tag_50:\n        /* \"contracts/TokenSwap.sol\":1961:2083  {... */\n      pop\n        /* \"contracts/TokenSwap.sol\":1827:2083  function safeTransferFrom(... */\n      pop\n      pop\n      pop\n      pop\n      jump\t// out\n        /* \"#utility.yul\":7:144   */\n    tag_54:\n        /* \"#utility.yul\":61:66   */\n      0x00\n        /* \"#utility.yul\":92:98   */\n      dup2\n        /* \"#utility.yul\":86:99   */\n      mload\n        /* \"#utility.yul\":77:99   */\n      swap1\n      pop\n        /* \"#utility.yul\":108:138   */\n      tag_56\n        /* \"#utility.yul\":132:137   */\n      dup2\n        /* \"#utility.yul\":108:138   */\n      tag_57\n      jump\t// in\n    tag_56:\n        /* \"#utility.yul\":7:144   */\n      swap3\n      swap2\n      pop\n      pop\n      jump\t// out\n        /* \"#utility.yul\":150:495   */\n    tag_49:\n        /* \"#utility.yul\":217:223   */\n      0x00\n        /* \"#utility.yul\":266:268   */\n      0x20\n        /* \"#utility.yul\":254:263   */\n      dup3\n        /* \"#utility.yul\":245:252   */\n      dup5\n        /* \"#utility.yul\":241:264   */\n      sub\n        /* \"#utility.yul\":237:269   */\n      slt\n        /* \"#utility.yul\":234:353   */\n      iszero\n      tag_59\n      jumpi\n        /* \"#utility.yul\":272:351   */\n      tag_60\n      tag_61\n      jump\t// in\n    tag_60:\n        /* \"#utility.yul\":234:353   */\n    tag_59:\n        /* \"#utility.yul\":392:393   */\n      0x00\n        /* \"#utility.yul\":417:478   */\n      tag_62\n        /* \"#utility.yul\":470:477   */\n      dup5\n        /* \"#utility.yul\":461:467   */\n      dup3\n        /* \"#utility.yul\":450:459   */\n      dup6\n        /* \"#utility.yul\":446:468   */\n      add\n        /* \"#utility.yul\":417:478   */\n      tag_54\n      jump\t// in\n    tag_62:\n        /* \"#utility.yul\":407:478   */\n      swap2\n      pop\n        /* \"#utility.yul\":363:488   */\n      pop\n        /* \"#utility.yul\":150:495   */\n      swap3\n      swap2\n      pop\n      pop\n      jump\t// out\n        /* \"#utility.yul\":501:619   */\n    tag_63:\n        /* \"#utility.yul\":588:612   */\n      tag_65\n        /* \"#utility.yul\":606:611   */\n      dup2\n        /* \"#utility.yul\":588:612   */\n      tag_66\n      jump\t// in\n    tag_65:\n        /* \"#utility.yul\":583:586   */\n      dup3\n        /* \"#utility.yul\":576:613   */\n      mstore\n        /* \"#utility.yul\":501:619   */\n      pop\n      pop\n      jump\t// out\n        /* \"#utility.yul\":625:784   */\n    tag_67:\n        /* \"#utility.yul\":726:777   */\n      tag_69\n        /* \"#utility.yul\":771:776   */\n      dup2\n        /* \"#utility.yul\":726:777   */\n      tag_70\n      jump\t// in\n    tag_69:\n        /* \"#utility.yul\":721:724   */\n      dup3\n        /* \"#utility.yul\":714:778   */\n      mstore\n        /* \"#utility.yul\":625:784   */\n      pop\n      pop\n      jump\t// out\n        /* \"#utility.yul\":790:1156   */\n    tag_71:\n        /* \"#utility.yul\":932:935   */\n      0x00\n        /* \"#utility.yul\":953:1020   */\n      tag_73\n        /* \"#utility.yul\":1017:1019   */\n      0x15\n        /* \"#utility.yul\":1012:1015   */\n      dup4\n        /* \"#utility.yul\":953:1020   */\n      tag_74\n      jump\t// in\n    tag_73:\n        /* \"#utility.yul\":946:1020   */\n      swap2\n      pop\n        /* \"#utility.yul\":1029:1122   */\n      tag_75\n        /* \"#utility.yul\":1118:1121   */\n      dup3\n        /* \"#utility.yul\":1029:1122   */\n      tag_76\n      jump\t// in\n    tag_75:\n        /* \"#utility.yul\":1147:1149   */\n      0x20\n        /* \"#utility.yul\":1142:1145   */\n      dup3\n        /* \"#utility.yul\":1138:1150   */\n      add\n        /* \"#utility.yul\":1131:1150   */\n      swap1\n      pop\n        /* \"#utility.yul\":790:1156   */\n      swap2\n      swap1\n      pop\n      jump\t// out\n        /* \"#utility.yul\":1162:1528   */\n    tag_77:\n        /* \"#utility.yul\":1304:1307   */\n      0x00\n        /* \"#utility.yul\":1325:1392   */\n      tag_79\n        /* \"#utility.yul\":1389:1391   */\n      0x0e\n        /* \"#utility.yul\":1384:1387   */\n      dup4\n        /* \"#utility.yul\":1325:1392   */\n      tag_74\n      jump\t// in\n    tag_79:\n        /* \"#utility.yul\":1318:1392   */\n      swap2\n      pop\n        /* \"#utility.yul\":1401:1494   */\n      tag_80\n        /* \"#utility.yul\":1490:1493   */\n      dup3\n        /* \"#utility.yul\":1401:1494   */\n      tag_81\n      jump\t// in\n    tag_80:\n        /* \"#utility.yul\":1519:1521   */\n      0x20\n        /* \"#utility.yul\":1514:1517   */\n      dup3\n        /* \"#utility.yul\":1510:1522   */\n      add\n        /* \"#utility.yul\":1503:1522   */\n      swap1\n      pop\n        /* \"#utility.yul\":1162:1528   */\n      swap2\n      swap1\n      pop\n      jump\t// out\n        /* \"#utility.yul\":1534:1652   */\n    tag_82:\n        /* \"#utility.yul\":1621:1645   */\n      tag_84\n        /* \"#utility.yul\":1639:1644   */\n      dup2\n        /* \"#utility.yul\":1621:1645   */\n      tag_85\n      jump\t// in\n    tag_84:\n        /* \"#utility.yul\":1616:1619   */\n      dup3\n        /* \"#utility.yul\":1609:1646   */\n      mstore\n        /* \"#utility.yul\":1534:1652   */\n      pop\n      pop\n      jump\t// out\n        /* \"#utility.yul\":1658:1880   */\n    tag_22:\n        /* \"#utility.yul\":1751:1755   */\n      0x00\n        /* \"#utility.yul\":1789:1791   */\n      0x20\n        /* \"#utility.yul\":1778:1787   */\n      dup3\n        /* \"#utility.yul\":1774:1792   */\n      add\n        /* \"#utility.yul\":1766:1792   */\n      swap1\n      pop\n        /* \"#utility.yul\":1802:1873   */\n      tag_87\n        /* \"#utility.yul\":1870:1871   */\n      0x00\n        /* \"#utility.yul\":1859:1868   */\n      dup4\n        /* \"#utility.yul\":1855:1872   */\n      add\n        /* \"#utility.yul\":1846:1852   */\n      dup5\n        /* \"#utility.yul\":1802:1873   */\n      tag_63\n      jump\t// in\n    tag_87:\n        /* \"#utility.yul\":1658:1880   */\n      swap3\n      swap2\n      pop\n      pop\n      jump\t// out\n        /* \"#utility.yul\":1886:2328   */\n    tag_44:\n        /* \"#utility.yul\":2035:2039   */\n      0x00\n        /* \"#utility.yul\":2073:2075   */\n      0x60\n        /* \"#utility.yul\":2062:2071   */\n      dup3\n        /* \"#utility.yul\":2058:2076   */\n      add\n        /* \"#utility.yul\":2050:2076   */\n      swap1\n      pop\n        /* \"#utility.yul\":2086:2157   */\n      tag_89\n        /* \"#utility.yul\":2154:2155   */\n      0x00\n        /* \"#utility.yul\":2143:2152   */\n      dup4\n        /* \"#utility.yul\":2139:2156   */\n      add\n        /* \"#utility.yul\":2130:2136   */\n      dup7\n        /* \"#utility.yul\":2086:2157   */\n      tag_63\n      jump\t// in\n    tag_89:\n        /* \"#utility.yul\":2167:2239   */\n      tag_90\n        /* \"#utility.yul\":2235:2237   */\n      0x20\n        /* \"#utility.yul\":2224:2233   */\n      dup4\n        /* \"#utility.yul\":2220:2238   */\n      add\n        /* \"#utility.yul\":2211:2217   */\n      dup6\n        /* \"#utility.yul\":2167:2239   */\n      tag_63\n      jump\t// in\n    tag_90:\n        /* \"#utility.yul\":2249:2321   */\n      tag_91\n        /* \"#utility.yul\":2317:2319   */\n      0x40\n        /* \"#utility.yul\":2306:2315   */\n      dup4\n        /* \"#utility.yul\":2302:2320   */\n      add\n        /* \"#utility.yul\":2293:2299   */\n      dup5\n        /* \"#utility.yul\":2249:2321   */\n      tag_82\n      jump\t// in\n    tag_91:\n        /* \"#utility.yul\":1886:2328   */\n      swap5\n      swap4\n      pop\n      pop\n      pop\n      pop\n      jump\t// out\n        /* \"#utility.yul\":2334:2584   */\n    tag_18:\n        /* \"#utility.yul\":2441:2445   */\n      0x00\n        /* \"#utility.yul\":2479:2481   */\n      0x20\n        /* \"#utility.yul\":2468:2477   */\n      dup3\n        /* \"#utility.yul\":2464:2482   */\n      add\n        /* \"#utility.yul\":2456:2482   */\n      swap1\n      pop\n        /* \"#utility.yul\":2492:2577   */\n      tag_93\n        /* \"#utility.yul\":2574:2575   */\n      0x00\n        /* \"#utility.yul\":2563:2572   */\n      dup4\n        /* \"#utility.yul\":2559:2576   */\n      add\n        /* \"#utility.yul\":2550:2556   */\n      dup5\n        /* \"#utility.yul\":2492:2577   */\n      tag_67\n      jump\t// in\n    tag_93:\n        /* \"#utility.yul\":2334:2584   */\n      swap3\n      swap2\n      pop\n      pop\n      jump\t// out\n        /* \"#utility.yul\":2590:3009   */\n    tag_52:\n        /* \"#utility.yul\":2756:2760   */\n      0x00\n        /* \"#utility.yul\":2794:2796   */\n      0x20\n        /* \"#utility.yul\":2783:2792   */\n      dup3\n        /* \"#utility.yul\":2779:2797   */\n      add\n        /* \"#utility.yul\":2771:2797   */\n      swap1\n      pop\n        /* \"#utility.yul\":2843:2852   */\n      dup2\n        /* \"#utility.yul\":2837:2841   */\n      dup2\n        /* \"#utility.yul\":2833:2853   */\n      sub\n        /* \"#utility.yul\":2829:2830   */\n      0x00\n        /* \"#utility.yul\":2818:2827   */\n      dup4\n        /* \"#utility.yul\":2814:2831   */\n      add\n        /* \"#utility.yul\":2807:2854   */\n      mstore\n        /* \"#utility.yul\":2871:3002   */\n      tag_95\n        /* \"#utility.yul\":2997:3001   */\n      dup2\n        /* \"#utility.yul\":2871:3002   */\n      tag_71\n      jump\t// in\n    tag_95:\n        /* \"#utility.yul\":2863:3002   */\n      swap1\n      pop\n        /* \"#utility.yul\":2590:3009   */\n      swap2\n      swap1\n      pop\n      jump\t// out\n        /* \"#utility.yul\":3015:3434   */\n    tag_38:\n        /* \"#utility.yul\":3181:3185   */\n      0x00\n        /* \"#utility.yul\":3219:3221   */\n      0x20\n        /* \"#utility.yul\":3208:3217   */\n      dup3\n        /* \"#utility.yul\":3204:3222   */\n      add\n        /* \"#utility.yul\":3196:3222   */\n      swap1\n      pop\n        /* \"#utility.yul\":3268:3277   */\n      dup2\n        /* \"#utility.yul\":3262:3266   */\n      dup2\n        /* \"#utility.yul\":3258:3278   */\n      sub\n        /* \"#utility.yul\":3254:3255   */\n      0x00\n        /* \"#utility.yul\":3243:3252   */\n      dup4\n        /* \"#utility.yul\":3239:3256   */\n      add\n        /* \"#utility.yul\":3232:3279   */\n      mstore\n        /* \"#utility.yul\":3296:3427   */\n      tag_97\n        /* \"#utility.yul\":3422:3426   */\n      dup2\n        /* \"#utility.yul\":3296:3427   */\n      tag_77\n      jump\t// in\n    tag_97:\n        /* \"#utility.yul\":3288:3427   */\n      swap1\n      pop\n        /* \"#utility.yul\":3015:3434   */\n      swap2\n      swap1\n      pop\n      jump\t// out\n        /* \"#utility.yul\":3440:3662   */\n    tag_14:\n        /* \"#utility.yul\":3533:3537   */\n      0x00\n        /* \"#utility.yul\":3571:3573   */\n      0x20\n        /* \"#utility.yul\":3560:3569   */\n      dup3\n        /* \"#utility.yul\":3556:3574   */\n      add\n        /* \"#utility.yul\":3548:3574   */\n      swap1\n      pop\n        /* \"#utility.yul\":3584:3655   */\n      tag_99\n        /* \"#utility.yul\":3652:3653   */\n      0x00\n        /* \"#utility.yul\":3641:3650   */\n      dup4\n        /* \"#utility.yul\":3637:3654   */\n      add\n        /* \"#utility.yul\":3628:3634   */\n      dup5\n        /* \"#utility.yul\":3584:3655   */\n      tag_82\n      jump\t// in\n    tag_99:\n        /* \"#utility.yul\":3440:3662   */\n      swap3\n      swap2\n      pop\n      pop\n      jump\t// out\n        /* \"#utility.yul\":3749:3918   */\n    tag_74:\n        /* \"#utility.yul\":3833:3844   */\n      0x00\n        /* \"#utility.yul\":3867:3873   */\n      dup3\n        /* \"#utility.yul\":3862:3865   */\n      dup3\n        /* \"#utility.yul\":3855:3874   */\n      mstore\n        /* \"#utility.yul\":3907:3911   */\n      0x20\n        /* \"#utility.yul\":3902:3905   */\n      dup3\n        /* \"#utility.yul\":3898:3912   */\n      add\n        /* \"#utility.yul\":3883:3912   */\n      swap1\n      pop\n        /* \"#utility.yul\":3749:3918   */\n      swap3\n      swap2\n      pop\n      pop\n      jump\t// out\n        /* \"#utility.yul\":3924:4020   */\n    tag_66:\n        /* \"#utility.yul\":3961:3968   */\n      0x00\n        /* \"#utility.yul\":3990:4014   */\n      tag_104\n        /* \"#utility.yul\":4008:4013   */\n      dup3\n        /* \"#utility.yul\":3990:4014   */\n      tag_105\n      jump\t// in\n    tag_104:\n        /* \"#utility.yul\":3979:4014   */\n      swap1\n      pop\n        /* \"#utility.yul\":3924:4020   */\n      swap2\n      swap1\n      pop\n      jump\t// out\n        /* \"#utility.yul\":4026:4116   */\n    tag_106:\n        /* \"#utility.yul\":4060:4067   */\n      0x00\n        /* \"#utility.yul\":4103:4108   */\n      dup2\n        /* \"#utility.yul\":4096:4109   */\n      iszero\n        /* \"#utility.yul\":4089:4110   */\n      iszero\n        /* \"#utility.yul\":4078:4110   */\n      swap1\n      pop\n        /* \"#utility.yul\":4026:4116   */\n      swap2\n      swap1\n      pop\n      jump\t// out\n        /* \"#utility.yul\":4122:4248   */\n    tag_105:\n        /* \"#utility.yul\":4159:4166   */\n      0x00\n        /* \"#utility.yul\":4199:4241   */\n      0xffffffffffffffffffffffffffffffffffffffff\n        /* \"#utility.yul\":4192:4197   */\n      dup3\n        /* \"#utility.yul\":4188:4242   */\n      and\n        /* \"#utility.yul\":4177:4242   */\n      swap1\n      pop\n        /* \"#utility.yul\":4122:4248   */\n      swap2\n      swap1\n      pop\n      jump\t// out\n        /* \"#utility.yul\":4254:4331   */\n    tag_85:\n        /* \"#utility.yul\":4291:4298   */\n      0x00\n        /* \"#utility.yul\":4320:4325   */\n      dup2\n        /* \"#utility.yul\":4309:4325   */\n      swap1\n      pop\n        /* \"#utility.yul\":4254:4331   */\n      swap2\n      swap1\n      pop\n      jump\t// out\n        /* \"#utility.yul\":4337:4477   */\n    tag_70:\n        /* \"#utility.yul\":4401:4410   */\n      0x00\n        /* \"#utility.yul\":4434:4471   */\n      tag_111\n        /* \"#utility.yul\":4465:4470   */\n      dup3\n        /* \"#utility.yul\":4434:4471   */\n      tag_112\n      jump\t// in\n    tag_111:\n        /* \"#utility.yul\":4421:4471   */\n      swap1\n      pop\n        /* \"#utility.yul\":4337:4477   */\n      swap2\n      swap1\n      pop\n      jump\t// out\n        /* \"#utility.yul\":4483:4609   */\n    tag_112:\n        /* \"#utility.yul\":4533:4542   */\n      0x00\n        /* \"#utility.yul\":4566:4603   */\n      tag_114\n        /* \"#utility.yul\":4597:4602   */\n      dup3\n        /* \"#utility.yul\":4566:4603   */\n      tag_115\n      jump\t// in\n    tag_114:\n        /* \"#utility.yul\":4553:4603   */\n      swap1\n      pop\n        /* \"#utility.yul\":4483:4609   */\n      swap2\n      swap1\n      pop\n      jump\t// out\n        /* \"#utility.yul\":4615:4728   */\n    tag_115:\n        /* \"#utility.yul\":4665:4674   */\n      0x00\n        /* \"#utility.yul\":4698:4722   */\n      tag_117\n        /* \"#utility.yul\":4716:4721   */\n      dup3\n        /* \"#utility.yul\":4698:4722   */\n      tag_105\n      jump\t// in\n    tag_117:\n        /* \"#utility.yul\":4685:4722   */\n      swap1\n      pop\n        /* \"#utility.yul\":4615:4728   */\n      swap2\n      swap1\n      pop\n      jump\t// out\n        /* \"#utility.yul\":4857:4974   */\n    tag_61:\n        /* \"#utility.yul\":4966:4967   */\n      0x00\n        /* \"#utility.yul\":4963:4964   */\n      dup1\n        /* \"#utility.yul\":4956:4968   */\n      revert\n        /* \"#utility.yul\":4980:5151   */\n    tag_76:\n        /* \"#utility.yul\":5120:5143   */\n      0x546f6b656e207472616e73666572206661696c65640000000000000000000000\n        /* \"#utility.yul\":5116:5117   */\n      0x00\n        /* \"#utility.yul\":5108:5114   */\n      dup3\n        /* \"#utility.yul\":5104:5118   */\n      add\n        /* \"#utility.yul\":5097:5144   */\n      mstore\n        /* \"#utility.yul\":4980:5151   */\n      pop\n      jump\t// out\n        /* \"#utility.yul\":5157:5321   */\n    tag_81:\n        /* \"#utility.yul\":5297:5313   */\n      0x4e6f7420617574686f72697a6564000000000000000000000000000000000000\n        /* \"#utility.yul\":5293:5294   */\n      0x00\n        /* \"#utility.yul\":5285:5291   */\n      dup3\n        /* \"#utility.yul\":5281:5295   */\n      add\n        /* \"#utility.yul\":5274:5314   */\n      mstore\n        /* \"#utility.yul\":5157:5321   */\n      pop\n      jump\t// out\n        /* \"#utility.yul\":5327:5443   */\n    tag_57:\n        /* \"#utility.yul\":5397:5418   */\n      tag_124\n        /* \"#utility.yul\":5412:5417   */\n      dup2\n        /* \"#utility.yul\":5397:5418   */\n      tag_106\n      jump\t// in\n    tag_124:\n        /* \"#utility.yul\":5390:5395   */\n      dup2\n        /* \"#utility.yul\":5387:5419   */\n      eq\n        /* \"#utility.yul\":5377:5437   */\n      tag_125\n      jumpi\n        /* \"#utility.yul\":5433:5434   */\n      0x00\n        /* \"#utility.yul\":5430:5431   */\n      dup1\n        /* \"#utility.yul\":5423:5435   */\n      revert\n        /* \"#utility.yul\":5377:5437   */\n    tag_125:\n        /* \"#utility.yul\":5327:5443   */\n      pop\n      jump\t// out\n\n    auxdata: 0xa2646970667358221220b483f44d7927a451d2fe99669818e6be7eee4e7df3d768b8fe20906c11a27b4b64736f6c63430008070033\n}\n",
				"bytecode": {
					"linkReferences": {},
					"object": "608060405234801561001057600080fd5b506040516109bf3803806109bf83398181016040528101906100329190610178565b856000806101000a81548173ffffffffffffffffffffffffffffffffffffffff021916908373ffffffffffffffffffffffffffffffffffffffff16021790555084600160006101000a81548173ffffffffffffffffffffffffffffffffffffffff021916908373ffffffffffffffffffffffffffffffffffffffff1602179055508360028190555082600360006101000a81548173ffffffffffffffffffffffffffffffffffffffff021916908373ffffffffffffffffffffffffffffffffffffffff16021790555081600460006101000a81548173ffffffffffffffffffffffffffffffffffffffff021916908373ffffffffffffffffffffffffffffffffffffffff16021790555080600581905550505050505050610274565b60008151905061015d81610246565b92915050565b6000815190506101728161025d565b92915050565b60008060008060008060c0878903121561019557610194610241565b5b60006101a389828a0161014e565b96505060206101b489828a0161014e565b95505060406101c589828a01610163565b94505060606101d689828a0161014e565b93505060806101e789828a0161014e565b92505060a06101f889828a01610163565b9150509295509295509295565b600061021082610217565b9050919050565b600073ffffffffffffffffffffffffffffffffffffffff82169050919050565b6000819050919050565b600080fd5b61024f81610205565b811461025a57600080fd5b50565b61026681610237565b811461027157600080fd5b50565b61073c806102836000396000f3fe608060405234801561001057600080fd5b506004361061007d5760003560e01c8063736889141161005b57806373688914146100dc5780638119c065146100fa578063d21220a714610104578063f400fde4146101225761007d565b8063057bfcc71461008257806325be124e146100a057806352709725146100be575b600080fd5b61008a610140565b60405161009791906105ee565b60405180910390f35b6100a8610146565b6040516100b59190610593565b60405180910390f35b6100c661016c565b6040516100d39190610541565b60405180910390f35b6100e4610192565b6040516100f19190610541565b60405180910390f35b6101026101b8565b005b61010c610388565b6040516101199190610593565b60405180910390f35b61012a6103ac565b60405161013791906105ee565b60405180910390f35b60055481565b600360009054906101000a900473ffffffffffffffffffffffffffffffffffffffff1681565b600460009054906101000a900473ffffffffffffffffffffffffffffffffffffffff1681565b600160009054906101000a900473ffffffffffffffffffffffffffffffffffffffff1681565b600160009054906101000a900473ffffffffffffffffffffffffffffffffffffffff1673ffffffffffffffffffffffffffffffffffffffff163373ffffffffffffffffffffffffffffffffffffffff1614806102615750600460009054906101000a900473ffffffffffffffffffffffffffffffffffffffff1673ffffffffffffffffffffffffffffffffffffffff163373ffffffffffffffffffffffffffffffffffffffff16145b6102a0576040517f08c379a0000000000000000000000000000000000000000000000000000000008152600401610297906105ce565b60405180910390fd5b61031260008054906101000a900473ffffffffffffffffffffffffffffffffffffffff16600160009054906101000a900473ffffffffffffffffffffffffffffffffffffffff16600460009054906101000a900473ffffffffffffffffffffffffffffffffffffffff166002546103b2565b610386600360009054906101000a900473ffffffffffffffffffffffffffffffffffffffff16600460009054906101000a900473ffffffffffffffffffffffffffffffffffffffff16600160009054906101000a900473ffffffffffffffffffffffffffffffffffffffff166005546103b2565b565b60008054906101000a900473ffffffffffffffffffffffffffffffffffffffff1681565b60025481565b60008473ffffffffffffffffffffffffffffffffffffffff166323b872dd8585856040518463ffffffff1660e01b81526004016103f19392919061055c565b602060405180830381600087803b15801561040b57600080fd5b505af115801561041f573d6000803e3d6000fd5b505050506040513d601f19601f8201168201806040525081019061044391906104a1565b905080610485576040517f08c379a000000000000000000000000000000000000000000000000000000000815260040161047c906105ae565b60405180910390fd5b5050505050565b60008151905061049b816106ef565b92915050565b6000602082840312156104b7576104b6610698565b5b60006104c58482850161048c565b91505092915050565b6104d78161061a565b82525050565b6104e681610662565b82525050565b60006104f9601583610609565b91506105048261069d565b602082019050919050565b600061051c600e83610609565b9150610527826106c6565b602082019050919050565b61053b81610658565b82525050565b600060208201905061055660008301846104ce565b92915050565b600060608201905061057160008301866104ce565b61057e60208301856104ce565b61058b6040830184610532565b949350505050565b60006020820190506105a860008301846104dd565b92915050565b600060208201905081810360008301526105c7816104ec565b9050919050565b600060208201905081810360008301526105e78161050f565b9050919050565b60006020820190506106036000830184610532565b92915050565b600082825260208201905092915050565b600061062582610638565b9050919050565b60008115159050919050565b600073ffffffffffffffffffffffffffffffffffffffff82169050919050565b6000819050919050565b600061066d82610674565b9050919050565b600061067f82610686565b9050919050565b600061069182610638565b9050919050565b600080fd5b7f546f6b656e207472616e73666572206661696c65640000000000000000000000600082015250565b7f4e6f7420617574686f72697a6564000000000000000000000000000000000000600082015250565b6106f88161062c565b811461070357600080fd5b5056fea2646970667358221220b483f44d7927a451d2fe99669818e6be7eee4e7df3d768b8fe20906c11a27b4b64736f6c63430008070033",
					"opcodes": "PUSH1 0x80 PUSH1 0x40 MSTORE CALLVALUE DUP1 ISZERO PUSH2 0x10 JUMPI PUSH1 0x0 DUP1 REVERT JUMPDEST POP PUSH1 0x40 MLOAD PUSH2 0x9BF CODESIZE SUB DUP1 PUSH2 0x9BF DUP4 CODECOPY DUP2 DUP2 ADD PUSH1 0x40 MSTORE DUP2 ADD SWAP1 PUSH2 0x32 SWAP2 SWAP1 PUSH2 0x178 JUMP JUMPDEST DUP6 PUSH1 0x0 DUP1 PUSH2 0x100 EXP DUP2 SLOAD DUP2 PUSH20 0xFFFFFFFFFFFFFFFFFFFFFFFFFFFFFFFFFFFFFFFF MUL NOT AND SWAP1 DUP4 PUSH20 0xFFFFFFFFFFFFFFFFFFFFFFFFFFFFFFFFFFFFFFFF AND MUL OR SWAP1 SSTORE POP DUP5 PUSH1 0x1 PUSH1 0x0 PUSH2 0x100 EXP DUP2 SLOAD DUP2 PUSH20 0xFFFFFFFFFFFFFFFFFFFFFFFFFFFFFFFFFFFFFFFF MUL NOT AND SWAP1 DUP4 PUSH20 0xFFFFFFFFFFFFFFFFFFFFFFFFFFFFFFFFFFFFFFFF AND MUL OR SWAP1 SSTORE POP DUP4 PUSH1 0x2 DUP2 SWAP1 SSTORE POP DUP3 PUSH1 0x3 PUSH1 0x0 PUSH2 0x100 EXP DUP2 SLOAD DUP2 PUSH20 0xFFFFFFFFFFFFFFFFFFFFFFFFFFFFFFFFFFFFFFFF MUL NOT AND SWAP1 DUP4 PUSH20 0xFFFFFFFFFFFFFFFFFFFFFFFFFFFFFFFFFFFFFFFF AND MUL OR SWAP1 SSTORE POP DUP2 PUSH1 0x4 PUSH1 0x0 PUSH2 0x100 EXP DUP2 SLOAD DUP2 PUSH20 0xFFFFFFFFFFFFFFFFFFFFFFFFFFFFFFFFFFFFFFFF MUL NOT AND SWAP1 DUP4 PUSH20 0xFFFFFFFFFFFFFFFFFFFFFFFFFFFFFFFFFFFFFFFF AND MUL OR SWAP1 SSTORE POP DUP1 PUSH1 0x5 DUP2 SWAP1 SSTORE POP POP POP POP POP POP POP PUSH2 0x274 JUMP JUMPDEST PUSH1 0x0 DUP2 MLOAD SWAP1 POP PUSH2 0x15D DUP2 PUSH2 0x246 JUMP JUMPDEST SWAP3 SWAP2 POP POP JUMP JUMPDEST PUSH1 0x0 DUP2 MLOAD SWAP1 POP PUSH2 0x172 DUP2 PUSH2 0x25D JUMP JUMPDEST SWAP3 SWAP2 POP POP JUMP JUMPDEST PUSH1 0x0 DUP1 PUSH1 0x0 DUP1 PUSH1 0x0 DUP1 PUSH1 0xC0 DUP8 DUP10 SUB SLT ISZERO PUSH2 0x195 JUMPI PUSH2 0x194 PUSH2 0x241 JUMP JUMPDEST JUMPDEST PUSH1 0x0 PUSH2 0x1A3 DUP10 DUP3 DUP11 ADD PUSH2 0x14E JUMP JUMPDEST SWAP7 POP POP PUSH1 0x20 PUSH2 0x1B4 DUP10 DUP3 DUP11 ADD PUSH2 0x14E JUMP JUMPDEST SWAP6 POP POP PUSH1 0x40 PUSH2 0x1C5 DUP10 DUP3 DUP11 ADD PUSH2 0x163 JUMP JUMPDEST SWAP5 POP POP PUSH1 0x60 PUSH2 0x1D6 DUP10 DUP3 DUP11 ADD PUSH2 0x14E JUMP JUMPDEST SWAP4 POP POP PUSH1 0x80 PUSH2 0x1E7 DUP10 DUP3 DUP11 ADD PUSH2 0x14E JUMP JUMPDEST SWAP3 POP POP PUSH1 0xA0 PUSH2 0x1F8 DUP10 DUP3 DUP11 ADD PUSH2 0x163 JUMP JUMPDEST SWAP2 POP POP SWAP3 SWAP6 POP SWAP3 SWAP6 POP SWAP3 SWAP6 JUMP JUMPDEST PUSH1 0x0 PUSH2 0x210 DUP3 PUSH2 0x217 JUMP JUMPDEST SWAP1 POP SWAP2 SWAP1 POP JUMP JUMPDEST PUSH1 0x0 PUSH20 0xFFFFFFFFFFFFFFFFFFFFFFFFFFFFFFFFFFFFFFFF DUP3 AND SWAP1 POP SWAP2 SWAP1 POP JUMP JUMPDEST PUSH1 0x0 DUP2 SWAP1 POP SWAP2 SWAP1 POP JUMP JUMPDEST PUSH1 0x0 DUP1 REVERT JUMPDEST PUSH2 0x24F DUP2 PUSH2 0x205 JUMP JUMPDEST DUP2 EQ PUSH2 0x25A JUMPI PUSH1 0x0 DUP1 REVERT JUMPDEST POP JUMP JUMPDEST PUSH2 0x266 DUP2 PUSH2 0x237 JUMP JUMPDEST DUP2 EQ PUSH2 0x271 JUMPI PUSH1 0x0 DUP1 REVERT JUMPDEST POP JUMP JUMPDEST PUSH2 0x73C DUP1 PUSH2 0x283 PUSH1 0x0 CODECOPY PUSH1 0x0 RETURN INVALID PUSH1 0x80 PUSH1 0x40 MSTORE CALLVALUE DUP1 ISZERO PUSH2 0x10 JUMPI PUSH1 0x0 DUP1 REVERT JUMPDEST POP PUSH1 0x4 CALLDATASIZE LT PUSH2 0x7D JUMPI PUSH1 0x0 CALLDATALOAD PUSH1 0xE0 SHR DUP1 PUSH4 0x73688914 GT PUSH2 0x5B JUMPI DUP1 PUSH4 0x73688914 EQ PUSH2 0xDC JUMPI DUP1 PUSH4 0x8119C065 EQ PUSH2 0xFA JUMPI DUP1 PUSH4 0xD21220A7 EQ PUSH2 0x104 JUMPI DUP1 PUSH4 0xF400FDE4 EQ PUSH2 0x122 JUMPI PUSH2 0x7D JUMP JUMPDEST DUP1 PUSH4 0x57BFCC7 EQ PUSH2 0x82 JUMPI DUP1 PUSH4 0x25BE124E EQ PUSH2 0xA0 JUMPI DUP1 PUSH4 0x52709725 EQ PUSH2 0xBE JUMPI JUMPDEST PUSH1 0x0 DUP1 REVERT JUMPDEST PUSH2 0x8A PUSH2 0x140 JUMP JUMPDEST PUSH1 0x40 MLOAD PUSH2 0x97 SWAP2 SWAP1 PUSH2 0x5EE JUMP JUMPDEST PUSH1 0x40 MLOAD DUP1 SWAP2 SUB SWAP1 RETURN JUMPDEST PUSH2 0xA8 PUSH2 0x146 JUMP JUMPDEST PUSH1 0x40 MLOAD PUSH2 0xB5 SWAP2 SWAP1 PUSH2 0x593 JUMP JUMPDEST PUSH1 0x40 MLOAD DUP1 SWAP2 SUB SWAP1 RETURN JUMPDEST PUSH2 0xC6 PUSH2 0x16C JUMP JUMPDEST PUSH1 0x40 MLOAD PUSH2 0xD3 SWAP2 SWAP1 PUSH2 0x541 JUMP JUMPDEST PUSH1 0x40 MLOAD DUP1 SWAP2 SUB SWAP1 RETURN JUMPDEST PUSH2 0xE4 PUSH2 0x192 JUMP JUMPDEST PUSH1 0x40 MLOAD PUSH2 0xF1 SWAP2 SWAP1 PUSH2 0x541 JUMP JUMPDEST PUSH1 0x40 MLOAD DUP1 SWAP2 SUB SWAP1 RETURN JUMPDEST PUSH2 0x102 PUSH2 0x1B8 JUMP JUMPDEST STOP JUMPDEST PUSH2 0x10C PUSH2 0x388 JUMP JUMPDEST PUSH1 0x40 MLOAD PUSH2 0x119 SWAP2 SWAP1 PUSH2 0x593 JUMP JUMPDEST PUSH1 0x40 MLOAD DUP1 SWAP2 SUB SWAP1 RETURN JUMPDEST PUSH2 0x12A PUSH2 0x3AC JUMP JUMPDEST PUSH1 0x40 MLOAD PUSH2 0x137 SWAP2 SWAP1 PUSH2 0x5EE JUMP JUMPDEST PUSH1 0x40 MLOAD DUP1 SWAP2 SUB SWAP1 RETURN JUMPDEST PUSH1 0x5 SLOAD DUP2 JUMP JUMPDEST PUSH1 0x3 PUSH1 0x0 SWAP1 SLOAD SWAP1 PUSH2 0x100 EXP SWAP1 DIV PUSH20 0xFFFFFFFFFFFFFFFFFFFFFFFFFFFFFFFFFFFFFFFF AND DUP2 JUMP JUMPDEST PUSH1 0x4 PUSH1 0x0 SWAP1 SLOAD SWAP1 PUSH2 0x100 EXP SWAP1 DIV PUSH20 0xFFFFFFFFFFFFFFFFFFFFFFFFFFFFFFFFFFFFFFFF AND DUP2 JUMP JUMPDEST PUSH1 0x1 PUSH1 0x0 SWAP1 SLOAD SWAP1 PUSH2 0x100 EXP SWAP1 DIV PUSH20 0xFFFFFFFFFFFFFFFFFFFFFFFFFFFFFFFFFFFFFFFF AND DUP2 JUMP JUMPDEST PUSH1 0x1 PUSH1 0x0 SWAP1 SLOAD SWAP1 PUSH2 0x100 EXP SWAP1 DIV PUSH20 0xFFFFFFFFFFFFFFFFFFFFFFFFFFFFFFFFFFFFFFFF AND PUSH20 0xFFFFFFFFFFFFFFFFFFFFFFFFFFFFFFFFFFFFFFFF AND CALLER PUSH20 0xFFFFFFFFFFFFFFFFFFFFFFFFFFFFFFFFFFFFFFFF AND EQ DUP1 PUSH2 0x261 JUMPI POP PUSH1 0x4 PUSH1 0x0 SWAP1 SLOAD SWAP1 PUSH2 0x100 EXP SWAP1 DIV PUSH20 0xFFFFFFFFFFFFFFFFFFFFFFFFFFFFFFFFFFFFFFFF AND PUSH20 0xFFFFFFFFFFFFFFFFFFFFFFFFFFFFFFFFFFFFFFFF AND CALLER PUSH20 0xFFFFFFFFFFFFFFFFFFFFFFFFFFFFFFFFFFFFFFFF AND EQ JUMPDEST PUSH2 0x2A0 JUMPI PUSH1 0x40 MLOAD PUSH32 0x8C379A000000000000000000000000000000000000000000000000000000000 DUP2 MSTORE PUSH1 0x4 ADD PUSH2 0x297 SWAP1 PUSH2 0x5CE JUMP JUMPDEST PUSH1 0x40 MLOAD DUP1 SWAP2 SUB SWAP1 REVERT JUMPDEST PUSH2 0x312 PUSH1 0x0 DUP1 SLOAD SWAP1 PUSH2 0x100 EXP SWAP1 DIV PUSH20 0xFFFFFFFFFFFFFFFFFFFFFFFFFFFFFFFFFFFFFFFF AND PUSH1 0x1 PUSH1 0x0 SWAP1 SLOAD SWAP1 PUSH2 0x100 EXP SWAP1 DIV PUSH20 0xFFFFFFFFFFFFFFFFFFFFFFFFFFFFFFFFFFFFFFFF AND PUSH1 0x4 PUSH1 0x0 SWAP1 SLOAD SWAP1 PUSH2 0x100 EXP SWAP1 DIV PUSH20 0xFFFFFFFFFFFFFFFFFFFFFFFFFFFFFFFFFFFFFFFF AND PUSH1 0x2 SLOAD PUSH2 0x3B2 JUMP JUMPDEST PUSH2 0x386 PUSH1 0x3 PUSH1 0x0 SWAP1 SLOAD SWAP1 PUSH2 0x100 EXP SWAP1 DIV PUSH20 0xFFFFFFFFFFFFFFFFFFFFFFFFFFFFFFFFFFFFFFFF AND PUSH1 0x4 PUSH1 0x0 SWAP1 SLOAD SWAP1 PUSH2 0x100 EXP SWAP1 DIV PUSH20 0xFFFFFFFFFFFFFFFFFFFFFFFFFFFFFFFFFFFFFFFF AND PUSH1 0x1 PUSH1 0x0 SWAP1 SLOAD SWAP1 PUSH2 0x100 EXP SWAP1 DIV PUSH20 0xFFFFFFFFFFFFFFFFFFFFFFFFFFFFFFFFFFFFFFFF AND PUSH1 0x5 SLOAD PUSH2 0x3B2 JUMP JUMPDEST JUMP JUMPDEST PUSH1 0x0 DUP1 SLOAD SWAP1 PUSH2 0x100 EXP SWAP1 DIV PUSH20 0xFFFFFFFFFFFFFFFFFFFFFFFFFFFFFFFFFFFFFFFF AND DUP2 JUMP JUMPDEST PUSH1 0x2 SLOAD DUP2 JUMP JUMPDEST PUSH1 0x0 DUP5 PUSH20 0xFFFFFFFFFFFFFFFFFFFFFFFFFFFFFFFFFFFFFFFF AND PUSH4 0x23B872DD DUP6 DUP6 DUP6 PUSH1 0x40 MLOAD DUP5 PUSH4 0xFFFFFFFF AND PUSH1 0xE0 SHL DUP2 MSTORE PUSH1 0x4 ADD PUSH2 0x3F1 SWAP4 SWAP3 SWAP2 SWAP1 PUSH2 0x55C JUMP JUMPDEST PUSH1 0x20 PUSH1 0x40 MLOAD DUP1 DUP4 SUB DUP2 PUSH1 0x0 DUP8 DUP1 EXTCODESIZE ISZERO DUP1 ISZERO PUSH2 0x40B JUMPI PUSH1 0x0 DUP1 REVERT JUMPDEST POP GAS CALL ISZERO DUP1 ISZERO PUSH2 0x41F JUMPI RETURNDATASIZE PUSH1 0x0 DUP1 RETURNDATACOPY RETURNDATASIZE PUSH1 0x0 REVERT JUMPDEST POP POP POP POP PUSH1 0x40 MLOAD RETURNDATASIZE PUSH1 0x1F NOT PUSH1 0x1F DUP3 ADD AND DUP3 ADD DUP1 PUSH1 0x40 MSTORE POP DUP2 ADD SWAP1 PUSH2 0x443 SWAP2 SWAP1 PUSH2 0x4A1 JUMP JUMPDEST SWAP1 POP DUP1 PUSH2 0x485 JUMPI PUSH1 0x40 MLOAD PUSH32 0x8C379A000000000000000000000000000000000000000000000000000000000 DUP2 MSTORE PUSH1 0x4 ADD PUSH2 0x47C SWAP1 PUSH2 0x5AE JUMP JUMPDEST PUSH1 0x40 MLOAD DUP1 SWAP2 SUB SWAP1 REVERT JUMPDEST POP POP POP POP POP JUMP JUMPDEST PUSH1 0x0 DUP2 MLOAD SWAP1 POP PUSH2 0x49B DUP2 PUSH2 0x6EF JUMP JUMPDEST SWAP3 SWAP2 POP POP JUMP JUMPDEST PUSH1 0x0 PUSH1 0x20 DUP3 DUP5 SUB SLT ISZERO PUSH2 0x4B7 JUMPI PUSH2 0x4B6 PUSH2 0x698 JUMP JUMPDEST JUMPDEST PUSH1 0x0 PUSH2 0x4C5 DUP5 DUP3 DUP6 ADD PUSH2 0x48C JUMP JUMPDEST SWAP2 POP POP SWAP3 SWAP2 POP POP JUMP JUMPDEST PUSH2 0x4D7 DUP2 PUSH2 0x61A JUMP JUMPDEST DUP3 MSTORE POP POP JUMP JUMPDEST PUSH2 0x4E6 DUP2 PUSH2 0x662 JUMP JUMPDEST DUP3 MSTORE POP POP JUMP JUMPDEST PUSH1 0x0 PUSH2 0x4F9 PUSH1 0x15 DUP4 PUSH2 0x609 JUMP JUMPDEST SWAP2 POP PUSH2 0x504 DUP3 PUSH2 0x69D JUMP JUMPDEST PUSH1 0x20 DUP3 ADD SWAP1 POP SWAP2 SWAP1 POP JUMP JUMPDEST PUSH1 0x0 PUSH2 0x51C PUSH1 0xE DUP4 PUSH2 0x609 JUMP JUMPDEST SWAP2 POP PUSH2 0x527 DUP3 PUSH2 0x6C6 JUMP JUMPDEST PUSH1 0x20 DUP3 ADD SWAP1 POP SWAP2 SWAP1 POP JUMP JUMPDEST PUSH2 0x53B DUP2 PUSH2 0x658 JUMP JUMPDEST DUP3 MSTORE POP POP JUMP JUMPDEST PUSH1 0x0 PUSH1 0x20 DUP3 ADD SWAP1 POP PUSH2 0x556 PUSH1 0x0 DUP4 ADD DUP5 PUSH2 0x4CE JUMP JUMPDEST SWAP3 SWAP2 POP POP JUMP JUMPDEST PUSH1 0x0 PUSH1 0x60 DUP3 ADD SWAP1 POP PUSH2 0x571 PUSH1 0x0 DUP4 ADD DUP7 PUSH2 0x4CE JUMP JUMPDEST PUSH2 0x57E PUSH1 0x20 DUP4 ADD DUP6 PUSH2 0x4CE JUMP JUMPDEST PUSH2 0x58B PUSH1 0x40 DUP4 ADD DUP5 PUSH2 0x532 JUMP JUMPDEST SWAP5 SWAP4 POP POP POP POP JUMP JUMPDEST PUSH1 0x0 PUSH1 0x20 DUP3 ADD SWAP1 POP PUSH2 0x5A8 PUSH1 0x0 DUP4 ADD DUP5 PUSH2 0x4DD JUMP JUMPDEST SWAP3 SWAP2 POP POP JUMP JUMPDEST PUSH1 0x0 PUSH1 0x20 DUP3 ADD SWAP1 POP DUP2 DUP2 SUB PUSH1 0x0 DUP4 ADD MSTORE PUSH2 0x5C7 DUP2 PUSH2 0x4EC JUMP JUMPDEST SWAP1 POP SWAP2 SWAP1 POP JUMP JUMPDEST PUSH1 0x0 PUSH1 0x20 DUP3 ADD SWAP1 POP DUP2 DUP2 SUB PUSH1 0x0 DUP4 ADD MSTORE PUSH2 0x5E7 DUP2 PUSH2 0x50F JUMP JUMPDEST SWAP1 POP SWAP2 SWAP1 POP JUMP JUMPDEST PUSH1 0x0 PUSH1 0x20 DUP3 ADD SWAP1 POP PUSH2 0x603 PUSH1 0x0 DUP4 ADD DUP5 PUSH2 0x532 JUMP JUMPDEST SWAP3 SWAP2 POP POP JUMP JUMPDEST PUSH1 0x0 DUP3 DUP3 MSTORE PUSH1 0x20 DUP3 ADD SWAP1 POP SWAP3 SWAP2 POP POP JUMP JUMPDEST PUSH1 0x0 PUSH2 0x625 DUP3 PUSH2 0x638 JUMP JUMPDEST SWAP1 POP SWAP2 SWAP1 POP JUMP JUMPDEST PUSH1 0x0 DUP2 ISZERO ISZERO SWAP1 POP SWAP2 SWAP1 POP JUMP JUMPDEST PUSH1 0x0 PUSH20 0xFFFFFFFFFFFFFFFFFFFFFFFFFFFFFFFFFFFFFFFF DUP3 AND SWAP1 POP SWAP2 SWAP1 POP JUMP JUMPDEST PUSH1 0x0 DUP2 SWAP1 POP SWAP2 SWAP1 POP JUMP JUMPDEST PUSH1 0x0 PUSH2 0x66D DUP3 PUSH2 0x674 JUMP JUMPDEST SWAP1 POP SWAP2 SWAP1 POP JUMP JUMPDEST PUSH1 0x0 PUSH2 0x67F DUP3 PUSH2 0x686 JUMP JUMPDEST SWAP1 POP SWAP2 SWAP1 POP JUMP JUMPDEST PUSH1 0x0 PUSH2 0x691 DUP3 PUSH2 0x638 JUMP JUMPDEST SWAP1 POP SWAP2 SWAP1 POP JUMP JUMPDEST PUSH1 0x0 DUP1 REVERT JUMPDEST PUSH32 0x546F6B656E207472616E73666572206661696C65640000000000000000000000 PUSH1 0x0 DUP3 ADD MSTORE POP JUMP JUMPDEST PUSH32 0x4E6F7420617574686F72697A6564000000000000000000000000000000000000 PUSH1 0x0 DUP3 ADD MSTORE POP JUMP JUMPDEST PUSH2 0x6F8 DUP2 PUSH2 0x62C JUMP JUMPDEST DUP2 EQ PUSH2 0x703 JUMPI PUSH1 0x0 DUP1 REVERT JUMPDEST POP JUMP INVALID LOG2 PUSH5 0x6970667358 0x22 SLT KECCAK256 0xB4 DUP4 DELEGATECALL 0x4D PUSH26 0x27A451D2FE99669818E6BE7EEE4E7DF3D768B8FE20906C11A27B 0x4B PUSH5 0x736F6C6343 STOP ADDMOD SMOD STOP CALLER "
				},
				"gasEstimates": {
					"creation": {
						"codeDepositCost": "370400",
						"executionCost": "infinite",
						"totalCost": "infinite"
					},
					"external": {
						"amount1()": "2495",
						"amount2()": "2430",
						"owner1()": "2514",
						"owner2()": "2559",
						"swap()": "infinite",
						"token1()": "2641",
						"token2()": "2623"
					},
					"internal": {
						"safeTransferFrom(contract IERC20,address,address,uint256)": "infinite"
					}
				},
				"methodIdentifiers": {
					"amount1()": "f400fde4",
					"amount2()": "057bfcc7",
					"owner1()": "73688914",
					"owner2()": "52709725",
					"swap()": "8119c065",
					"token1()": "d21220a7",
					"token2()": "25be124e"
				}
			},
			"userdoc": {
				"kind": "user",
				"methods": {},
				"version": 1
			}
		}
	}
}