{
	"contracts/TokenSwap.sol": {
		"TokenSwap": {
			"abi": [
				{
					"inputs": [
						{
							"internalType": "address",
							"name": "_token1",
							"type": "address"
						},
						{
							"internalType": "address",
							"name": "_owner1",
							"type": "address"
						},
						{
							"internalType": "uint256",
							"name": "_amount1",
							"type": "uint256"
						},
						{
							"internalType": "address",
							"name": "_token2",
							"type": "address"
						},
						{
							"internalType": "address",
							"name": "_owner2",
							"type": "address"
						},
						{
							"internalType": "uint256",
							"name": "_amount2",
							"type": "uint256"
						}
					],
					"stateMutability": "nonpayable",
					"type": "constructor"
				},
				{
					"inputs": [],
					"name": "amount1",
					"outputs": [
						{
							"internalType": "uint256",
							"name": "",
							"type": "uint256"
						}
					],
					"stateMutability": "view",
					"type": "function"
				},
				{
					"inputs": [],
					"name": "amount2",
					"outputs": [
						{
							"internalType": "uint256",
							"name": "",
							"type": "uint256"
						}
					],
					"stateMutability": "view",
					"type": "function"
				},
				{
					"inputs": [],
					"name": "owner1",
					"outputs": [
						{
							"internalType": "address",
							"name": "",
							"type": "address"
						}
					],
					"stateMutability": "view",
					"type": "function"
				},
				{
					"inputs": [],
					"name": "owner2",
					"outputs": [
						{
							"internalType": "address",
							"name": "",
							"type": "address"
						}
					],
					"stateMutability": "view",
					"type": "function"
				},
				{
					"inputs": [],
					"name": "swap",
					"outputs": [],
					"stateMutability": "nonpayable",
					"type": "function"
				},
				{
					"inputs": [],
					"name": "token1",
					"outputs": [
						{
							"internalType": "contract IERC20",
							"name": "",
							"type": "address"
						}
					],
					"stateMutability": "view",
					"type": "function"
				},
				{
					"inputs": [],
					"name": "token2",
					"outputs": [
						{
							"internalType": "contract IERC20",
							"name": "",
							"type": "address"
						}
					],
					"stateMutability": "view",
					"type": "function"
				}
			],
			"devdoc": {
				"kind": "dev",
				"methods": {},
				"version": 1
			},
			"evm": {
				"assembly": "    /* \"contracts/TokenSwap.sol\":875:2168  contract TokenSwap {... */\n  mstore(0x40, 0x80)\n    /* \"contracts/TokenSwap.sol\":1057:1404  constructor(... */\n  callvalue\n  dup1\n  iszero\n  tag_1\n  jumpi\n  0x00\n  dup1\n  revert\ntag_1:\n  pop\n  mload(0x40)\n  sub(codesize, bytecodeSize)\n  dup1\n  bytecodeSize\n  dup4\n  codecopy\n  dup2\n  dup2\n  add\n  0x40\n  mstore\n  dup2\n  add\n  swap1\n  tag_2\n  swap2\n  swap1\n  tag_3\n  jump\t// in\ntag_2:\n    /* \"contracts/TokenSwap.sol\":1247:1254  _token1 */\n  dup6\n    /* \"contracts/TokenSwap.sol\":1231:1237  token1 */\n  0x00\n  dup1\n    /* \"contracts/TokenSwap.sol\":1231:1255  token1 = IERC20(_token1) */\n  0x0100\n  exp\n  dup2\n  sload\n  dup2\n  0xffffffffffffffffffffffffffffffffffffffff\n  mul\n  not\n  and\n  swap1\n  dup4\n  0xffffffffffffffffffffffffffffffffffffffff\n  and\n  mul\n  or\n  swap1\n  sstore\n  pop\n    /* \"contracts/TokenSwap.sol\":1274:1281  _owner1 */\n  dup5\n    /* \"contracts/TokenSwap.sol\":1265:1271  owner1 */\n  0x01\n  0x00\n    /* \"contracts/TokenSwap.sol\":1265:1281  owner1 = _owner1 */\n  0x0100\n  exp\n  dup2\n  sload\n  dup2\n  0xffffffffffffffffffffffffffffffffffffffff\n  mul\n  not\n  and\n  swap1\n  dup4\n  0xffffffffffffffffffffffffffffffffffffffff\n  and\n  mul\n  or\n  swap1\n  sstore\n  pop\n    /* \"contracts/TokenSwap.sol\":1301:1309  _amount1 */\n  dup4\n    /* \"contracts/TokenSwap.sol\":1291:1298  amount1 */\n  0x02\n    /* \"contracts/TokenSwap.sol\":1291:1309  amount1 = _amount1 */\n  dup2\n  swap1\n  sstore\n  pop\n    /* \"contracts/TokenSwap.sol\":1335:1342  _token2 */\n  dup3\n    /* \"contracts/TokenSwap.sol\":1319:1325  token2 */\n  0x03\n  0x00\n    /* \"contracts/TokenSwap.sol\":1319:1343  token2 = IERC20(_token2) */\n  0x0100\n  exp\n  dup2\n  sload\n  dup2\n  0xffffffffffffffffffffffffffffffffffffffff\n  mul\n  not\n  and\n  swap1\n  dup4\n  0xffffffffffffffffffffffffffffffffffffffff\n  and\n  mul\n  or\n  swap1\n  sstore\n  pop\n    /* \"contracts/TokenSwap.sol\":1362:1369  _owner2 */\n  dup2\n    /* \"contracts/TokenSwap.sol\":1353:1359  owner2 */\n  0x04\n  0x00\n    /* \"contracts/TokenSwap.sol\":1353:1369  owner2 = _owner2 */\n  0x0100\n  exp\n  dup2\n  sload\n  dup2\n  0xffffffffffffffffffffffffffffffffffffffff\n  mul\n  not\n  and\n  swap1\n  dup4\n  0xffffffffffffffffffffffffffffffffffffffff\n  and\n  mul\n  or\n  swap1\n  sstore\n  pop\n    /* \"contracts/TokenSwap.sol\":1389:1397  _amount2 */\n  dup1\n    /* \"contracts/TokenSwap.sol\":1379:1386  amount2 */\n  0x05\n    /* \"contracts/TokenSwap.sol\":1379:1397  amount2 = _amount2 */\n  dup2\n  swap1\n  sstore\n  pop\n    /* \"contracts/TokenSwap.sol\":1057:1404  constructor(... */\n  pop\n  pop\n  pop\n  pop\n  pop\n  pop\n    /* \"contracts/TokenSwap.sol\":875:2168  contract TokenSwap {... */\n  jump(tag_6)\n    /* \"#utility.yul\":7:150   */\ntag_8:\n    /* \"#utility.yul\":64:69   */\n  0x00\n    /* \"#utility.yul\":95:101   */\n  dup2\n    /* \"#utility.yul\":89:102   */\n  mload\n    /* \"#utility.yul\":80:102   */\n  swap1\n  pop\n    /* \"#utility.yul\":111:144   */\n  tag_10\n    /* \"#utility.yul\":138:143   */\n  dup2\n    /* \"#utility.yul\":111:144   */\n  tag_11\n  jump\t// in\ntag_10:\n    /* \"#utility.yul\":7:150   */\n  swap3\n  swap2\n  pop\n  pop\n  jump\t// out\n    /* \"#utility.yul\":156:299   */\ntag_12:\n    /* \"#utility.yul\":213:218   */\n  0x00\n    /* \"#utility.yul\":244:250   */\n  dup2\n    /* \"#utility.yul\":238:251   */\n  mload\n    /* \"#utility.yul\":229:251   */\n  swap1\n  pop\n    /* \"#utility.yul\":260:293   */\n  tag_14\n    /* \"#utility.yul\":287:292   */\n  dup2\n    /* \"#utility.yul\":260:293   */\n  tag_15\n  jump\t// in\ntag_14:\n    /* \"#utility.yul\":156:299   */\n  swap3\n  swap2\n  pop\n  pop\n  jump\t// out\n    /* \"#utility.yul\":305:1439   */\ntag_3:\n    /* \"#utility.yul\":420:426   */\n  0x00\n    /* \"#utility.yul\":428:434   */\n  dup1\n    /* \"#utility.yul\":436:442   */\n  0x00\n    /* \"#utility.yul\":444:450   */\n  dup1\n    /* \"#utility.yul\":452:458   */\n  0x00\n    /* \"#utility.yul\":460:466   */\n  dup1\n    /* \"#utility.yul\":509:512   */\n  0xc0\n    /* \"#utility.yul\":497:506   */\n  dup8\n    /* \"#utility.yul\":488:495   */\n  dup10\n    /* \"#utility.yul\":484:507   */\n  sub\n    /* \"#utility.yul\":480:513   */\n  slt\n    /* \"#utility.yul\":477:597   */\n  iszero\n  tag_17\n  jumpi\n    /* \"#utility.yul\":516:595   */\n  tag_18\n  tag_19\n  jump\t// in\ntag_18:\n    /* \"#utility.yul\":477:597   */\ntag_17:\n    /* \"#utility.yul\":636:637   */\n  0x00\n    /* \"#utility.yul\":661:725   */\n  tag_20\n    /* \"#utility.yul\":717:724   */\n  dup10\n    /* \"#utility.yul\":708:714   */\n  dup3\n    /* \"#utility.yul\":697:706   */\n  dup11\n    /* \"#utility.yul\":693:715   */\n  add\n    /* \"#utility.yul\":661:725   */\n  tag_8\n  jump\t// in\ntag_20:\n    /* \"#utility.yul\":651:725   */\n  swap7\n  pop\n    /* \"#utility.yul\":607:735   */\n  pop\n    /* \"#utility.yul\":774:776   */\n  0x20\n    /* \"#utility.yul\":800:864   */\n  tag_21\n    /* \"#utility.yul\":856:863   */\n  dup10\n    /* \"#utility.yul\":847:853   */\n  dup3\n    /* \"#utility.yul\":836:845   */\n  dup11\n    /* \"#utility.yul\":832:854   */\n  add\n    /* \"#utility.yul\":800:864   */\n  tag_8\n  jump\t// in\ntag_21:\n    /* \"#utility.yul\":790:864   */\n  swap6\n  pop\n    /* \"#utility.yul\":745:874   */\n  pop\n    /* \"#utility.yul\":913:915   */\n  0x40\n    /* \"#utility.yul\":939:1003   */\n  tag_22\n    /* \"#utility.yul\":995:1002   */\n  dup10\n    /* \"#utility.yul\":986:992   */\n  dup3\n    /* \"#utility.yul\":975:984   */\n  dup11\n    /* \"#utility.yul\":971:993   */\n  add\n    /* \"#utility.yul\":939:1003   */\n  tag_12\n  jump\t// in\ntag_22:\n    /* \"#utility.yul\":929:1003   */\n  swap5\n  pop\n    /* \"#utility.yul\":884:1013   */\n  pop\n    /* \"#utility.yul\":1052:1054   */\n  0x60\n    /* \"#utility.yul\":1078:1142   */\n  tag_23\n    /* \"#utility.yul\":1134:1141   */\n  dup10\n    /* \"#utility.yul\":1125:1131   */\n  dup3\n    /* \"#utility.yul\":1114:1123   */\n  dup11\n    /* \"#utility.yul\":1110:1132   */\n  add\n    /* \"#utility.yul\":1078:1142   */\n  tag_8\n  jump\t// in\ntag_23:\n    /* \"#utility.yul\":1068:1142   */\n  swap4\n  pop\n    /* \"#utility.yul\":1023:1152   */\n  pop\n    /* \"#utility.yul\":1191:1194   */\n  0x80\n    /* \"#utility.yul\":1218:1282   */\n  tag_24\n    /* \"#utility.yul\":1274:1281   */\n  dup10\n    /* \"#utility.yul\":1265:1271   */\n  dup3\n    /* \"#utility.yul\":1254:1263   */\n  dup11\n    /* \"#utility.yul\":1250:1272   */\n  add\n    /* \"#utility.yul\":1218:1282   */\n  tag_8\n  jump\t// in\ntag_24:\n    /* \"#utility.yul\":1208:1282   */\n  swap3\n  pop\n    /* \"#utility.yul\":1162:1292   */\n  pop\n    /* \"#utility.yul\":1331:1334   */\n  0xa0\n    /* \"#utility.yul\":1358:1422   */\n  tag_25\n    /* \"#utility.yul\":1414:1421   */\n  dup10\n    /* \"#utility.yul\":1405:1411   */\n  dup3\n    /* \"#utility.yul\":1394:1403   */\n  dup11\n    /* \"#utility.yul\":1390:1412   */\n  add\n    /* \"#utility.yul\":1358:1422   */\n  tag_12\n  jump\t// in\ntag_25:\n    /* \"#utility.yul\":1348:1422   */\n  swap2\n  pop\n    /* \"#utility.yul\":1302:1432   */\n  pop\n    /* \"#utility.yul\":305:1439   */\n  swap3\n  swap6\n  pop\n  swap3\n  swap6\n  pop\n  swap3\n  swap6\n  jump\t// out\n    /* \"#utility.yul\":1526:1622   */\ntag_28:\n    /* \"#utility.yul\":1563:1570   */\n  0x00\n    /* \"#utility.yul\":1592:1616   */\n  tag_30\n    /* \"#utility.yul\":1610:1615   */\n  dup3\n    /* \"#utility.yul\":1592:1616   */\n  tag_31\n  jump\t// in\ntag_30:\n    /* \"#utility.yul\":1581:1616   */\n  swap1\n  pop\n    /* \"#utility.yul\":1526:1622   */\n  swap2\n  swap1\n  pop\n  jump\t// out\n    /* \"#utility.yul\":1628:1754   */\ntag_31:\n    /* \"#utility.yul\":1665:1672   */\n  0x00\n    /* \"#utility.yul\":1705:1747   */\n  0xffffffffffffffffffffffffffffffffffffffff\n    /* \"#utility.yul\":1698:1703   */\n  dup3\n    /* \"#utility.yul\":1694:1748   */\n  and\n    /* \"#utility.yul\":1683:1748   */\n  swap1\n  pop\n    /* \"#utility.yul\":1628:1754   */\n  swap2\n  swap1\n  pop\n  jump\t// out\n    /* \"#utility.yul\":1760:1837   */\ntag_33:\n    /* \"#utility.yul\":1797:1804   */\n  0x00\n    /* \"#utility.yul\":1826:1831   */\n  dup2\n    /* \"#utility.yul\":1815:1831   */\n  swap1\n  pop\n    /* \"#utility.yul\":1760:1837   */\n  swap2\n  swap1\n  pop\n  jump\t// out\n    /* \"#utility.yul\":1966:2083   */\ntag_19:\n    /* \"#utility.yul\":2075:2076   */\n  0x00\n    /* \"#utility.yul\":2072:2073   */\n  dup1\n    /* \"#utility.yul\":2065:2077   */\n  revert\n    /* \"#utility.yul\":2089:2211   */\ntag_11:\n    /* \"#utility.yul\":2162:2186   */\n  tag_39\n    /* \"#utility.yul\":2180:2185   */\n  dup2\n    /* \"#utility.yul\":2162:2186   */\n  tag_28\n  jump\t// in\ntag_39:\n    /* \"#utility.yul\":2155:2160   */\n  dup2\n    /* \"#utility.yul\":2152:2187   */\n  eq\n    /* \"#utility.yul\":2142:2205   */\n  tag_40\n  jumpi\n    /* \"#utility.yul\":2201:2202   */\n  0x00\n    /* \"#utility.yul\":2198:2199   */\n  dup1\n    /* \"#utility.yul\":2191:2203   */\n  revert\n    /* \"#utility.yul\":2142:2205   */\ntag_40:\n    /* \"#utility.yul\":2089:2211   */\n  pop\n  jump\t// out\n    /* \"#utility.yul\":2217:2339   */\ntag_15:\n    /* \"#utility.yul\":2290:2314   */\n  tag_42\n    /* \"#utility.yul\":2308:2313   */\n  dup2\n    /* \"#utility.yul\":2290:2314   */\n  tag_33\n  jump\t// in\ntag_42:\n    /* \"#utility.yul\":2283:2288   */\n  dup2\n    /* \"#utility.yul\":2280:2315   */\n  eq\n    /* \"#utility.yul\":2270:2333   */\n  tag_43\n  jumpi\n    /* \"#utility.yul\":2329:2330   */\n  0x00\n    /* \"#utility.yul\":2326:2327   */\n  dup1\n    /* \"#utility.yul\":2319:2331   */\n  revert\n    /* \"#utility.yul\":2270:2333   */\ntag_43:\n    /* \"#utility.yul\":2217:2339   */\n  pop\n  jump\t// out\n    /* \"contracts/TokenSwap.sol\":875:2168  contract TokenSwap {... */\ntag_6:\n  dataSize(sub_0)\n  dup1\n  dataOffset(sub_0)\n  0x00\n  codecopy\n  0x00\n  return\nstop\n\nsub_0: assembly {\n        /* \"contracts/TokenSwap.sol\":875:2168  contract TokenSwap {... */\n      mstore(0x40, 0x80)\n      callvalue\n      dup1\n      iszero\n      tag_1\n      jumpi\n      0x00\n      dup1\n      revert\n    tag_1:\n      pop\n      jumpi(tag_2, lt(calldatasize, 0x04))\n      shr(0xe0, calldataload(0x00))\n      dup1\n      0x73688914\n      gt\n      tag_10\n      jumpi\n      dup1\n      0x73688914\n      eq\n      tag_6\n      jumpi\n      dup1\n      0x8119c065\n      eq\n      tag_7\n      jumpi\n      dup1\n      0xd21220a7\n      eq\n      tag_8\n      jumpi\n      dup1\n      0xf400fde4\n      eq\n      tag_9\n      jumpi\n      jump(tag_2)\n    tag_10:\n      dup1\n      0x057bfcc7\n      eq\n      tag_3\n      jumpi\n      dup1\n      0x25be124e\n      eq\n      tag_4\n      jumpi\n      dup1\n      0x52709725\n      eq\n      tag_5\n      jumpi\n    tag_2:\n      0x00\n      dup1\n      revert\n        /* \"contracts/TokenSwap.sol\":1031:1050  uint public amount2 */\n    tag_3:\n      tag_11\n      tag_12\n      jump\t// in\n    tag_11:\n      mload(0x40)\n      tag_13\n      swap2\n      swap1\n      tag_14\n      jump\t// in\n    tag_13:\n      mload(0x40)\n      dup1\n      swap2\n      sub\n      swap1\n      return\n        /* \"contracts/TokenSwap.sol\":978:998  IERC20 public token2 */\n    tag_4:\n      tag_15\n      tag_16\n      jump\t// in\n    tag_15:\n      mload(0x40)\n      tag_17\n      swap2\n      swap1\n      tag_18\n      jump\t// in\n    tag_17:\n      mload(0x40)\n      dup1\n      swap2\n      sub\n      swap1\n      return\n        /* \"contracts/TokenSwap.sol\":1004:1025  address public owner2 */\n    tag_5:\n      tag_19\n      tag_20\n      jump\t// in\n    tag_19:\n      mload(0x40)\n      tag_21\n      swap2\n      swap1\n      tag_22\n      jump\t// in\n    tag_21:\n      mload(0x40)\n      dup1\n      swap2\n      sub\n      swap1\n      return\n        /* \"contracts/TokenSwap.sol\":926:947  address public owner1 */\n    tag_6:\n      tag_23\n      tag_24\n      jump\t// in\n    tag_23:\n      mload(0x40)\n      tag_25\n      swap2\n      swap1\n      tag_22\n      jump\t// in\n    tag_25:\n      mload(0x40)\n      dup1\n      swap2\n      sub\n      swap1\n      return\n        /* \"contracts/TokenSwap.sol\":1410:1904  function swap() public {... */\n    tag_7:\n      tag_26\n      tag_27\n      jump\t// in\n    tag_26:\n      stop\n        /* \"contracts/TokenSwap.sol\":900:920  IERC20 public token1 */\n    tag_8:\n      tag_28\n      tag_29\n      jump\t// in\n    tag_28:\n      mload(0x40)\n      tag_30\n      swap2\n      swap1\n      tag_18\n      jump\t// in\n    tag_30:\n      mload(0x40)\n      dup1\n      swap2\n      sub\n      swap1\n      return\n        /* \"contracts/TokenSwap.sol\":953:972  uint public amount1 */\n    tag_9:\n      tag_31\n      tag_32\n      jump\t// in\n    tag_31:\n      mload(0x40)\n      tag_33\n      swap2\n      swap1\n      tag_14\n      jump\t// in\n    tag_33:\n      mload(0x40)\n      dup1\n      swap2\n      sub\n      swap1\n      return\n        /* \"contracts/TokenSwap.sol\":1031:1050  uint public amount2 */\n    tag_12:\n      sload(0x05)\n      dup2\n      jump\t// out\n        /* \"contracts/TokenSwap.sol\":978:998  IERC20 public token2 */\n    tag_16:\n      0x03\n      0x00\n      swap1\n      sload\n      swap1\n      0x0100\n      exp\n      swap1\n      div\n      0xffffffffffffffffffffffffffffffffffffffff\n      and\n      dup2\n      jump\t// out\n        /* \"contracts/TokenSwap.sol\":1004:1025  address public owner2 */\n    tag_20:\n      0x04\n      0x00\n      swap1\n      sload\n      swap1\n      0x0100\n      exp\n      swap1\n      div\n      0xffffffffffffffffffffffffffffffffffffffff\n      and\n      dup2\n      jump\t// out\n        /* \"contracts/TokenSwap.sol\":926:947  address public owner1 */\n    tag_24:\n      0x01\n      0x00\n      swap1\n      sload\n      swap1\n      0x0100\n      exp\n      swap1\n      div\n      0xffffffffffffffffffffffffffffffffffffffff\n      and\n      dup2\n      jump\t// out\n        /* \"contracts/TokenSwap.sol\":1410:1904  function swap() public {... */\n    tag_27:\n        /* \"contracts/TokenSwap.sol\":1465:1471  owner1 */\n      0x01\n      0x00\n      swap1\n      sload\n      swap1\n      0x0100\n      exp\n      swap1\n      div\n      0xffffffffffffffffffffffffffffffffffffffff\n      and\n        /* \"contracts/TokenSwap.sol\":1451:1471  msg.sender == owner1 */\n      0xffffffffffffffffffffffffffffffffffffffff\n      and\n        /* \"contracts/TokenSwap.sol\":1451:1461  msg.sender */\n      caller\n        /* \"contracts/TokenSwap.sol\":1451:1471  msg.sender == owner1 */\n      0xffffffffffffffffffffffffffffffffffffffff\n      and\n      eq\n        /* \"contracts/TokenSwap.sol\":1451:1495  msg.sender == owner1 || msg.sender == owner2 */\n      dup1\n      tag_35\n      jumpi\n      pop\n        /* \"contracts/TokenSwap.sol\":1489:1495  owner2 */\n      0x04\n      0x00\n      swap1\n      sload\n      swap1\n      0x0100\n      exp\n      swap1\n      div\n      0xffffffffffffffffffffffffffffffffffffffff\n      and\n        /* \"contracts/TokenSwap.sol\":1475:1495  msg.sender == owner2 */\n      0xffffffffffffffffffffffffffffffffffffffff\n      and\n        /* \"contracts/TokenSwap.sol\":1475:1485  msg.sender */\n      caller\n        /* \"contracts/TokenSwap.sol\":1475:1495  msg.sender == owner2 */\n      0xffffffffffffffffffffffffffffffffffffffff\n      and\n      eq\n        /* \"contracts/TokenSwap.sol\":1451:1495  msg.sender == owner1 || msg.sender == owner2 */\n    tag_35:\n        /* \"contracts/TokenSwap.sol\":1443:1514  require(msg.sender == owner1 || msg.sender == owner2, \"Not authorized\") */\n      tag_36\n      jumpi\n      mload(0x40)\n      0x08c379a000000000000000000000000000000000000000000000000000000000\n      dup2\n      mstore\n      0x04\n      add\n      tag_37\n      swap1\n      tag_38\n      jump\t// in\n    tag_37:\n      mload(0x40)\n      dup1\n      swap2\n      sub\n      swap1\n      revert\n    tag_36:\n        /* \"contracts/TokenSwap.sol\":1588:1595  amount1 */\n      sload(0x02)\n        /* \"contracts/TokenSwap.sol\":1545:1551  token1 */\n      0x00\n      dup1\n      sload\n      swap1\n      0x0100\n      exp\n      swap1\n      div\n      0xffffffffffffffffffffffffffffffffffffffff\n      and\n        /* \"contracts/TokenSwap.sol\":1545:1561  token1.allowance */\n      0xffffffffffffffffffffffffffffffffffffffff\n      and\n      0xdd62ed3e\n        /* \"contracts/TokenSwap.sol\":1562:1568  owner1 */\n      0x01\n      0x00\n      swap1\n      sload\n      swap1\n      0x0100\n      exp\n      swap1\n      div\n      0xffffffffffffffffffffffffffffffffffffffff\n      and\n        /* \"contracts/TokenSwap.sol\":1578:1582  this */\n      address\n        /* \"contracts/TokenSwap.sol\":1545:1584  token1.allowance(owner1, address(this)) */\n      mload(0x40)\n      dup4\n      0xffffffff\n      and\n      0xe0\n      shl\n      dup2\n      mstore\n      0x04\n      add\n      tag_39\n      swap3\n      swap2\n      swap1\n      tag_40\n      jump\t// in\n    tag_39:\n      0x20\n      mload(0x40)\n      dup1\n      dup4\n      sub\n      dup2\n      dup7\n      dup1\n      extcodesize\n      iszero\n      dup1\n      iszero\n      tag_41\n      jumpi\n      0x00\n      dup1\n      revert\n    tag_41:\n      pop\n      gas\n      staticcall\n      iszero\n      dup1\n      iszero\n      tag_43\n      jumpi\n      returndatasize\n      0x00\n      dup1\n      returndatacopy\n      revert(0x00, returndatasize)\n    tag_43:\n      pop\n      pop\n      pop\n      pop\n      mload(0x40)\n      returndatasize\n      not(0x1f)\n      0x1f\n      dup3\n      add\n      and\n      dup3\n      add\n      dup1\n      0x40\n      mstore\n      pop\n      dup2\n      add\n      swap1\n      tag_44\n      swap2\n      swap1\n      tag_45\n      jump\t// in\n    tag_44:\n        /* \"contracts/TokenSwap.sol\":1545:1595  token1.allowance(owner1, address(this)) >= amount1 */\n      lt\n      iszero\n        /* \"contracts/TokenSwap.sol\":1524:1646  require(... */\n      tag_46\n      jumpi\n      mload(0x40)\n      0x08c379a000000000000000000000000000000000000000000000000000000000\n      dup2\n      mstore\n      0x04\n      add\n      tag_47\n      swap1\n      tag_48\n      jump\t// in\n    tag_47:\n      mload(0x40)\n      dup1\n      swap2\n      sub\n      swap1\n      revert\n    tag_46:\n        /* \"contracts/TokenSwap.sol\":1720:1727  amount2 */\n      sload(0x05)\n        /* \"contracts/TokenSwap.sol\":1677:1683  token2 */\n      0x03\n      0x00\n      swap1\n      sload\n      swap1\n      0x0100\n      exp\n      swap1\n      div\n      0xffffffffffffffffffffffffffffffffffffffff\n      and\n        /* \"contracts/TokenSwap.sol\":1677:1693  token2.allowance */\n      0xffffffffffffffffffffffffffffffffffffffff\n      and\n      0xdd62ed3e\n        /* \"contracts/TokenSwap.sol\":1694:1700  owner2 */\n      0x04\n      0x00\n      swap1\n      sload\n      swap1\n      0x0100\n      exp\n      swap1\n      div\n      0xffffffffffffffffffffffffffffffffffffffff\n      and\n        /* \"contracts/TokenSwap.sol\":1710:1714  this */\n      address\n        /* \"contracts/TokenSwap.sol\":1677:1716  token2.allowance(owner2, address(this)) */\n      mload(0x40)\n      dup4\n      0xffffffff\n      and\n      0xe0\n      shl\n      dup2\n      mstore\n      0x04\n      add\n      tag_49\n      swap3\n      swap2\n      swap1\n      tag_40\n      jump\t// in\n    tag_49:\n      0x20\n      mload(0x40)\n      dup1\n      dup4\n      sub\n      dup2\n      dup7\n      dup1\n      extcodesize\n      iszero\n      dup1\n      iszero\n      tag_50\n      jumpi\n      0x00\n      dup1\n      revert\n    tag_50:\n      pop\n      gas\n      staticcall\n      iszero\n      dup1\n      iszero\n      tag_52\n      jumpi\n      returndatasize\n      0x00\n      dup1\n      returndatacopy\n      revert(0x00, returndatasize)\n    tag_52:\n      pop\n      pop\n      pop\n      pop\n      mload(0x40)\n      returndatasize\n      not(0x1f)\n      0x1f\n      dup3\n      add\n      and\n      dup3\n      add\n      dup1\n      0x40\n      mstore\n      pop\n      dup2\n      add\n      swap1\n      tag_53\n      swap2\n      swap1\n      tag_45\n      jump\t// in\n    tag_53:\n        /* \"contracts/TokenSwap.sol\":1677:1727  token2.allowance(owner2, address(this)) >= amount2 */\n      lt\n      iszero\n        /* \"contracts/TokenSwap.sol\":1656:1778  require(... */\n      tag_54\n      jumpi\n      mload(0x40)\n      0x08c379a000000000000000000000000000000000000000000000000000000000\n      dup2\n      mstore\n      0x04\n      add\n      tag_55\n      swap1\n      tag_56\n      jump\t// in\n    tag_55:\n      mload(0x40)\n      dup1\n      swap2\n      sub\n      swap1\n      revert\n    tag_54:\n        /* \"contracts/TokenSwap.sol\":1789:1838  safeTransferFrom(token1, owner1, owner2, amount1) */\n      tag_57\n        /* \"contracts/TokenSwap.sol\":1806:1812  token1 */\n      0x00\n      dup1\n      sload\n      swap1\n      0x0100\n      exp\n      swap1\n      div\n      0xffffffffffffffffffffffffffffffffffffffff\n      and\n        /* \"contracts/TokenSwap.sol\":1814:1820  owner1 */\n      0x01\n      0x00\n      swap1\n      sload\n      swap1\n      0x0100\n      exp\n      swap1\n      div\n      0xffffffffffffffffffffffffffffffffffffffff\n      and\n        /* \"contracts/TokenSwap.sol\":1822:1828  owner2 */\n      0x04\n      0x00\n      swap1\n      sload\n      swap1\n      0x0100\n      exp\n      swap1\n      div\n      0xffffffffffffffffffffffffffffffffffffffff\n      and\n        /* \"contracts/TokenSwap.sol\":1830:1837  amount1 */\n      sload(0x02)\n        /* \"contracts/TokenSwap.sol\":1789:1805  safeTransferFrom */\n      tag_58\n        /* \"contracts/TokenSwap.sol\":1789:1838  safeTransferFrom(token1, owner1, owner2, amount1) */\n      jump\t// in\n    tag_57:\n        /* \"contracts/TokenSwap.sol\":1848:1897  safeTransferFrom(token2, owner2, owner1, amount2) */\n      tag_59\n        /* \"contracts/TokenSwap.sol\":1865:1871  token2 */\n      0x03\n      0x00\n      swap1\n      sload\n      swap1\n      0x0100\n      exp\n      swap1\n      div\n      0xffffffffffffffffffffffffffffffffffffffff\n      and\n        /* \"contracts/TokenSwap.sol\":1873:1879  owner2 */\n      0x04\n      0x00\n      swap1\n      sload\n      swap1\n      0x0100\n      exp\n      swap1\n      div\n      0xffffffffffffffffffffffffffffffffffffffff\n      and\n        /* \"contracts/TokenSwap.sol\":1881:1887  owner1 */\n      0x01\n      0x00\n      swap1\n      sload\n      swap1\n      0x0100\n      exp\n      swap1\n      div\n      0xffffffffffffffffffffffffffffffffffffffff\n      and\n        /* \"contracts/TokenSwap.sol\":1889:1896  amount2 */\n      sload(0x05)\n        /* \"contracts/TokenSwap.sol\":1848:1864  safeTransferFrom */\n      tag_58\n        /* \"contracts/TokenSwap.sol\":1848:1897  safeTransferFrom(token2, owner2, owner1, amount2) */\n      jump\t// in\n    tag_59:\n        /* \"contracts/TokenSwap.sol\":1410:1904  function swap() public {... */\n      jump\t// out\n        /* \"contracts/TokenSwap.sol\":900:920  IERC20 public token1 */\n    tag_29:\n      0x00\n      dup1\n      sload\n      swap1\n      0x0100\n      exp\n      swap1\n      div\n      0xffffffffffffffffffffffffffffffffffffffff\n      and\n      dup2\n      jump\t// out\n        /* \"contracts/TokenSwap.sol\":953:972  uint public amount1 */\n    tag_32:\n      sload(0x02)\n      dup2\n      jump\t// out\n        /* \"contracts/TokenSwap.sol\":1910:2166  function safeTransferFrom(... */\n    tag_58:\n        /* \"contracts/TokenSwap.sol\":2054:2063  bool sent */\n      0x00\n        /* \"contracts/TokenSwap.sol\":2066:2071  token */\n      dup5\n        /* \"contracts/TokenSwap.sol\":2066:2084  token.transferFrom */\n      0xffffffffffffffffffffffffffffffffffffffff\n      and\n      0x23b872dd\n        /* \"contracts/TokenSwap.sol\":2085:2091  sender */\n      dup6\n        /* \"contracts/TokenSwap.sol\":2093:2102  recipient */\n      dup6\n        /* \"contracts/TokenSwap.sol\":2104:2110  amount */\n      dup6\n        /* \"contracts/TokenSwap.sol\":2066:2111  token.transferFrom(sender, recipient, amount) */\n      mload(0x40)\n      dup5\n      0xffffffff\n      and\n      0xe0\n      shl\n      dup2\n      mstore\n      0x04\n      add\n      tag_61\n      swap4\n      swap3\n      swap2\n      swap1\n      tag_62\n      jump\t// in\n    tag_61:\n      0x20\n      mload(0x40)\n      dup1\n      dup4\n      sub\n      dup2\n      0x00\n      dup8\n      dup1\n      extcodesize\n      iszero\n      dup1\n      iszero\n      tag_63\n      jumpi\n      0x00\n      dup1\n      revert\n    tag_63:\n      pop\n      gas\n      call\n      iszero\n      dup1\n      iszero\n      tag_65\n      jumpi\n      returndatasize\n      0x00\n      dup1\n      returndatacopy\n      revert(0x00, returndatasize)\n    tag_65:\n      pop\n      pop\n      pop\n      pop\n      mload(0x40)\n      returndatasize\n      not(0x1f)\n      0x1f\n      dup3\n      add\n      and\n      dup3\n      add\n      dup1\n      0x40\n      mstore\n      pop\n      dup2\n      add\n      swap1\n      tag_66\n      swap2\n      swap1\n      tag_67\n      jump\t// in\n    tag_66:\n        /* \"contracts/TokenSwap.sol\":2054:2111  bool sent = token.transferFrom(sender, recipient, amount) */\n      swap1\n      pop\n        /* \"contracts/TokenSwap.sol\":2129:2133  sent */\n      dup1\n        /* \"contracts/TokenSwap.sol\":2121:2159  require(sent, \"Token transfer failed\") */\n      tag_68\n      jumpi\n      mload(0x40)\n      0x08c379a000000000000000000000000000000000000000000000000000000000\n      dup2\n      mstore\n      0x04\n      add\n      tag_69\n      swap1\n      tag_70\n      jump\t// in\n    tag_69:\n      mload(0x40)\n      dup1\n      swap2\n      sub\n      swap1\n      revert\n    tag_68:\n        /* \"contracts/TokenSwap.sol\":2044:2166  {... */\n      pop\n        /* \"contracts/TokenSwap.sol\":1910:2166  function safeTransferFrom(... */\n      pop\n      pop\n      pop\n      pop\n      jump\t// out\n        /* \"#utility.yul\":7:144   */\n    tag_72:\n        /* \"#utility.yul\":61:66   */\n      0x00\n        /* \"#utility.yul\":92:98   */\n      dup2\n        /* \"#utility.yul\":86:99   */\n      mload\n        /* \"#utility.yul\":77:99   */\n      swap1\n      pop\n        /* \"#utility.yul\":108:138   */\n      tag_74\n        /* \"#utility.yul\":132:137   */\n      dup2\n        /* \"#utility.yul\":108:138   */\n      tag_75\n      jump\t// in\n    tag_74:\n        /* \"#utility.yul\":7:144   */\n      swap3\n      swap2\n      pop\n      pop\n      jump\t// out\n        /* \"#utility.yul\":150:293   */\n    tag_76:\n        /* \"#utility.yul\":207:212   */\n      0x00\n        /* \"#utility.yul\":238:244   */\n      dup2\n        /* \"#utility.yul\":232:245   */\n      mload\n        /* \"#utility.yul\":223:245   */\n      swap1\n      pop\n        /* \"#utility.yul\":254:287   */\n      tag_78\n        /* \"#utility.yul\":281:286   */\n      dup2\n        /* \"#utility.yul\":254:287   */\n      tag_79\n      jump\t// in\n    tag_78:\n        /* \"#utility.yul\":150:293   */\n      swap3\n      swap2\n      pop\n      pop\n      jump\t// out\n        /* \"#utility.yul\":299:644   */\n    tag_67:\n        /* \"#utility.yul\":366:372   */\n      0x00\n        /* \"#utility.yul\":415:417   */\n      0x20\n        /* \"#utility.yul\":403:412   */\n      dup3\n        /* \"#utility.yul\":394:401   */\n      dup5\n        /* \"#utility.yul\":390:413   */\n      sub\n        /* \"#utility.yul\":386:418   */\n      slt\n        /* \"#utility.yul\":383:502   */\n      iszero\n      tag_81\n      jumpi\n        /* \"#utility.yul\":421:500   */\n      tag_82\n      tag_83\n      jump\t// in\n    tag_82:\n        /* \"#utility.yul\":383:502   */\n    tag_81:\n        /* \"#utility.yul\":541:542   */\n      0x00\n        /* \"#utility.yul\":566:627   */\n      tag_84\n        /* \"#utility.yul\":619:626   */\n      dup5\n        /* \"#utility.yul\":610:616   */\n      dup3\n        /* \"#utility.yul\":599:608   */\n      dup6\n        /* \"#utility.yul\":595:617   */\n      add\n        /* \"#utility.yul\":566:627   */\n      tag_72\n      jump\t// in\n    tag_84:\n        /* \"#utility.yul\":556:627   */\n      swap2\n      pop\n        /* \"#utility.yul\":512:637   */\n      pop\n        /* \"#utility.yul\":299:644   */\n      swap3\n      swap2\n      pop\n      pop\n      jump\t// out\n        /* \"#utility.yul\":650:1001   */\n    tag_45:\n        /* \"#utility.yul\":720:726   */\n      0x00\n        /* \"#utility.yul\":769:771   */\n      0x20\n        /* \"#utility.yul\":757:766   */\n      dup3\n        /* \"#utility.yul\":748:755   */\n      dup5\n        /* \"#utility.yul\":744:767   */\n      sub\n        /* \"#utility.yul\":740:772   */\n      slt\n        /* \"#utility.yul\":737:856   */\n      iszero\n      tag_86\n      jumpi\n        /* \"#utility.yul\":775:854   */\n      tag_87\n      tag_83\n      jump\t// in\n    tag_87:\n        /* \"#utility.yul\":737:856   */\n    tag_86:\n        /* \"#utility.yul\":895:896   */\n      0x00\n        /* \"#utility.yul\":920:984   */\n      tag_88\n        /* \"#utility.yul\":976:983   */\n      dup5\n        /* \"#utility.yul\":967:973   */\n      dup3\n        /* \"#utility.yul\":956:965   */\n      dup6\n        /* \"#utility.yul\":952:974   */\n      add\n        /* \"#utility.yul\":920:984   */\n      tag_76\n      jump\t// in\n    tag_88:\n        /* \"#utility.yul\":910:984   */\n      swap2\n      pop\n        /* \"#utility.yul\":866:994   */\n      pop\n        /* \"#utility.yul\":650:1001   */\n      swap3\n      swap2\n      pop\n      pop\n      jump\t// out\n        /* \"#utility.yul\":1007:1125   */\n    tag_89:\n        /* \"#utility.yul\":1094:1118   */\n      tag_91\n        /* \"#utility.yul\":1112:1117   */\n      dup2\n        /* \"#utility.yul\":1094:1118   */\n      tag_92\n      jump\t// in\n    tag_91:\n        /* \"#utility.yul\":1089:1092   */\n      dup3\n        /* \"#utility.yul\":1082:1119   */\n      mstore\n        /* \"#utility.yul\":1007:1125   */\n      pop\n      pop\n      jump\t// out\n        /* \"#utility.yul\":1131:1290   */\n    tag_93:\n        /* \"#utility.yul\":1232:1283   */\n      tag_95\n        /* \"#utility.yul\":1277:1282   */\n      dup2\n        /* \"#utility.yul\":1232:1283   */\n      tag_96\n      jump\t// in\n    tag_95:\n        /* \"#utility.yul\":1227:1230   */\n      dup3\n        /* \"#utility.yul\":1220:1284   */\n      mstore\n        /* \"#utility.yul\":1131:1290   */\n      pop\n      pop\n      jump\t// out\n        /* \"#utility.yul\":1296:1662   */\n    tag_97:\n        /* \"#utility.yul\":1438:1441   */\n      0x00\n        /* \"#utility.yul\":1459:1526   */\n      tag_99\n        /* \"#utility.yul\":1523:1525   */\n      0x19\n        /* \"#utility.yul\":1518:1521   */\n      dup4\n        /* \"#utility.yul\":1459:1526   */\n      tag_100\n      jump\t// in\n    tag_99:\n        /* \"#utility.yul\":1452:1526   */\n      swap2\n      pop\n        /* \"#utility.yul\":1535:1628   */\n      tag_101\n        /* \"#utility.yul\":1624:1627   */\n      dup3\n        /* \"#utility.yul\":1535:1628   */\n      tag_102\n      jump\t// in\n    tag_101:\n        /* \"#utility.yul\":1653:1655   */\n      0x20\n        /* \"#utility.yul\":1648:1651   */\n      dup3\n        /* \"#utility.yul\":1644:1656   */\n      add\n        /* \"#utility.yul\":1637:1656   */\n      swap1\n      pop\n        /* \"#utility.yul\":1296:1662   */\n      swap2\n      swap1\n      pop\n      jump\t// out\n        /* \"#utility.yul\":1668:2034   */\n    tag_103:\n        /* \"#utility.yul\":1810:1813   */\n      0x00\n        /* \"#utility.yul\":1831:1898   */\n      tag_105\n        /* \"#utility.yul\":1895:1897   */\n      0x15\n        /* \"#utility.yul\":1890:1893   */\n      dup4\n        /* \"#utility.yul\":1831:1898   */\n      tag_100\n      jump\t// in\n    tag_105:\n        /* \"#utility.yul\":1824:1898   */\n      swap2\n      pop\n        /* \"#utility.yul\":1907:2000   */\n      tag_106\n        /* \"#utility.yul\":1996:1999   */\n      dup3\n        /* \"#utility.yul\":1907:2000   */\n      tag_107\n      jump\t// in\n    tag_106:\n        /* \"#utility.yul\":2025:2027   */\n      0x20\n        /* \"#utility.yul\":2020:2023   */\n      dup3\n        /* \"#utility.yul\":2016:2028   */\n      add\n        /* \"#utility.yul\":2009:2028   */\n      swap1\n      pop\n        /* \"#utility.yul\":1668:2034   */\n      swap2\n      swap1\n      pop\n      jump\t// out\n        /* \"#utility.yul\":2040:2406   */\n    tag_108:\n        /* \"#utility.yul\":2182:2185   */\n      0x00\n        /* \"#utility.yul\":2203:2270   */\n      tag_110\n        /* \"#utility.yul\":2267:2269   */\n      0x19\n        /* \"#utility.yul\":2262:2265   */\n      dup4\n        /* \"#utility.yul\":2203:2270   */\n      tag_100\n      jump\t// in\n    tag_110:\n        /* \"#utility.yul\":2196:2270   */\n      swap2\n      pop\n        /* \"#utility.yul\":2279:2372   */\n      tag_111\n        /* \"#utility.yul\":2368:2371   */\n      dup3\n        /* \"#utility.yul\":2279:2372   */\n      tag_112\n      jump\t// in\n    tag_111:\n        /* \"#utility.yul\":2397:2399   */\n      0x20\n        /* \"#utility.yul\":2392:2395   */\n      dup3\n        /* \"#utility.yul\":2388:2400   */\n      add\n        /* \"#utility.yul\":2381:2400   */\n      swap1\n      pop\n        /* \"#utility.yul\":2040:2406   */\n      swap2\n      swap1\n      pop\n      jump\t// out\n        /* \"#utility.yul\":2412:2778   */\n    tag_113:\n        /* \"#utility.yul\":2554:2557   */\n      0x00\n        /* \"#utility.yul\":2575:2642   */\n      tag_115\n        /* \"#utility.yul\":2639:2641   */\n      0x0e\n        /* \"#utility.yul\":2634:2637   */\n      dup4\n        /* \"#utility.yul\":2575:2642   */\n      tag_100\n      jump\t// in\n    tag_115:\n        /* \"#utility.yul\":2568:2642   */\n      swap2\n      pop\n        /* \"#utility.yul\":2651:2744   */\n      tag_116\n        /* \"#utility.yul\":2740:2743   */\n      dup3\n        /* \"#utility.yul\":2651:2744   */\n      tag_117\n      jump\t// in\n    tag_116:\n        /* \"#utility.yul\":2769:2771   */\n      0x20\n        /* \"#utility.yul\":2764:2767   */\n      dup3\n        /* \"#utility.yul\":2760:2772   */\n      add\n        /* \"#utility.yul\":2753:2772   */\n      swap1\n      pop\n        /* \"#utility.yul\":2412:2778   */\n      swap2\n      swap1\n      pop\n      jump\t// out\n        /* \"#utility.yul\":2784:2902   */\n    tag_118:\n        /* \"#utility.yul\":2871:2895   */\n      tag_120\n        /* \"#utility.yul\":2889:2894   */\n      dup2\n        /* \"#utility.yul\":2871:2895   */\n      tag_121\n      jump\t// in\n    tag_120:\n        /* \"#utility.yul\":2866:2869   */\n      dup3\n        /* \"#utility.yul\":2859:2896   */\n      mstore\n        /* \"#utility.yul\":2784:2902   */\n      pop\n      pop\n      jump\t// out\n        /* \"#utility.yul\":2908:3130   */\n    tag_22:\n        /* \"#utility.yul\":3001:3005   */\n      0x00\n        /* \"#utility.yul\":3039:3041   */\n      0x20\n        /* \"#utility.yul\":3028:3037   */\n      dup3\n        /* \"#utility.yul\":3024:3042   */\n      add\n        /* \"#utility.yul\":3016:3042   */\n      swap1\n      pop\n        /* \"#utility.yul\":3052:3123   */\n      tag_123\n        /* \"#utility.yul\":3120:3121   */\n      0x00\n        /* \"#utility.yul\":3109:3118   */\n      dup4\n        /* \"#utility.yul\":3105:3122   */\n      add\n        /* \"#utility.yul\":3096:3102   */\n      dup5\n        /* \"#utility.yul\":3052:3123   */\n      tag_89\n      jump\t// in\n    tag_123:\n        /* \"#utility.yul\":2908:3130   */\n      swap3\n      swap2\n      pop\n      pop\n      jump\t// out\n        /* \"#utility.yul\":3136:3468   */\n    tag_40:\n        /* \"#utility.yul\":3257:3261   */\n      0x00\n        /* \"#utility.yul\":3295:3297   */\n      0x40\n        /* \"#utility.yul\":3284:3293   */\n      dup3\n        /* \"#utility.yul\":3280:3298   */\n      add\n        /* \"#utility.yul\":3272:3298   */\n      swap1\n      pop\n        /* \"#utility.yul\":3308:3379   */\n      tag_125\n        /* \"#utility.yul\":3376:3377   */\n      0x00\n        /* \"#utility.yul\":3365:3374   */\n      dup4\n        /* \"#utility.yul\":3361:3378   */\n      add\n        /* \"#utility.yul\":3352:3358   */\n      dup6\n        /* \"#utility.yul\":3308:3379   */\n      tag_89\n      jump\t// in\n    tag_125:\n        /* \"#utility.yul\":3389:3461   */\n      tag_126\n        /* \"#utility.yul\":3457:3459   */\n      0x20\n        /* \"#utility.yul\":3446:3455   */\n      dup4\n        /* \"#utility.yul\":3442:3460   */\n      add\n        /* \"#utility.yul\":3433:3439   */\n      dup5\n        /* \"#utility.yul\":3389:3461   */\n      tag_89\n      jump\t// in\n    tag_126:\n        /* \"#utility.yul\":3136:3468   */\n      swap4\n      swap3\n      pop\n      pop\n      pop\n      jump\t// out\n        /* \"#utility.yul\":3474:3916   */\n    tag_62:\n        /* \"#utility.yul\":3623:3627   */\n      0x00\n        /* \"#utility.yul\":3661:3663   */\n      0x60\n        /* \"#utility.yul\":3650:3659   */\n      dup3\n        /* \"#utility.yul\":3646:3664   */\n      add\n        /* \"#utility.yul\":3638:3664   */\n      swap1\n      pop\n        /* \"#utility.yul\":3674:3745   */\n      tag_128\n        /* \"#utility.yul\":3742:3743   */\n      0x00\n        /* \"#utility.yul\":3731:3740   */\n      dup4\n        /* \"#utility.yul\":3727:3744   */\n      add\n        /* \"#utility.yul\":3718:3724   */\n      dup7\n        /* \"#utility.yul\":3674:3745   */\n      tag_89\n      jump\t// in\n    tag_128:\n        /* \"#utility.yul\":3755:3827   */\n      tag_129\n        /* \"#utility.yul\":3823:3825   */\n      0x20\n        /* \"#utility.yul\":3812:3821   */\n      dup4\n        /* \"#utility.yul\":3808:3826   */\n      add\n        /* \"#utility.yul\":3799:3805   */\n      dup6\n        /* \"#utility.yul\":3755:3827   */\n      tag_89\n      jump\t// in\n    tag_129:\n        /* \"#utility.yul\":3837:3909   */\n      tag_130\n        /* \"#utility.yul\":3905:3907   */\n      0x40\n        /* \"#utility.yul\":3894:3903   */\n      dup4\n        /* \"#utility.yul\":3890:3908   */\n      add\n        /* \"#utility.yul\":3881:3887   */\n      dup5\n        /* \"#utility.yul\":3837:3909   */\n      tag_118\n      jump\t// in\n    tag_130:\n        /* \"#utility.yul\":3474:3916   */\n      swap5\n      swap4\n      pop\n      pop\n      pop\n      pop\n      jump\t// out\n        /* \"#utility.yul\":3922:4172   */\n    tag_18:\n        /* \"#utility.yul\":4029:4033   */\n      0x00\n        /* \"#utility.yul\":4067:4069   */\n      0x20\n        /* \"#utility.yul\":4056:4065   */\n      dup3\n        /* \"#utility.yul\":4052:4070   */\n      add\n        /* \"#utility.yul\":4044:4070   */\n      swap1\n      pop\n        /* \"#utility.yul\":4080:4165   */\n      tag_132\n        /* \"#utility.yul\":4162:4163   */\n      0x00\n        /* \"#utility.yul\":4151:4160   */\n      dup4\n        /* \"#utility.yul\":4147:4164   */\n      add\n        /* \"#utility.yul\":4138:4144   */\n      dup5\n        /* \"#utility.yul\":4080:4165   */\n      tag_93\n      jump\t// in\n    tag_132:\n        /* \"#utility.yul\":3922:4172   */\n      swap3\n      swap2\n      pop\n      pop\n      jump\t// out\n        /* \"#utility.yul\":4178:4597   */\n    tag_56:\n        /* \"#utility.yul\":4344:4348   */\n      0x00\n        /* \"#utility.yul\":4382:4384   */\n      0x20\n        /* \"#utility.yul\":4371:4380   */\n      dup3\n        /* \"#utility.yul\":4367:4385   */\n      add\n        /* \"#utility.yul\":4359:4385   */\n      swap1\n      pop\n        /* \"#utility.yul\":4431:4440   */\n      dup2\n        /* \"#utility.yul\":4425:4429   */\n      dup2\n        /* \"#utility.yul\":4421:4441   */\n      sub\n        /* \"#utility.yul\":4417:4418   */\n      0x00\n        /* \"#utility.yul\":4406:4415   */\n      dup4\n        /* \"#utility.yul\":4402:4419   */\n      add\n        /* \"#utility.yul\":4395:4442   */\n      mstore\n        /* \"#utility.yul\":4459:4590   */\n      tag_134\n        /* \"#utility.yul\":4585:4589   */\n      dup2\n        /* \"#utility.yul\":4459:4590   */\n      tag_97\n      jump\t// in\n    tag_134:\n        /* \"#utility.yul\":4451:4590   */\n      swap1\n      pop\n        /* \"#utility.yul\":4178:4597   */\n      swap2\n      swap1\n      pop\n      jump\t// out\n        /* \"#utility.yul\":4603:5022   */\n    tag_70:\n        /* \"#utility.yul\":4769:4773   */\n      0x00\n        /* \"#utility.yul\":4807:4809   */\n      0x20\n        /* \"#utility.yul\":4796:4805   */\n      dup3\n        /* \"#utility.yul\":4792:4810   */\n      add\n        /* \"#utility.yul\":4784:4810   */\n      swap1\n      pop\n        /* \"#utility.yul\":4856:4865   */\n      dup2\n        /* \"#utility.yul\":4850:4854   */\n      dup2\n        /* \"#utility.yul\":4846:4866   */\n      sub\n        /* \"#utility.yul\":4842:4843   */\n      0x00\n        /* \"#utility.yul\":4831:4840   */\n      dup4\n        /* \"#utility.yul\":4827:4844   */\n      add\n        /* \"#utility.yul\":4820:4867   */\n      mstore\n        /* \"#utility.yul\":4884:5015   */\n      tag_136\n        /* \"#utility.yul\":5010:5014   */\n      dup2\n        /* \"#utility.yul\":4884:5015   */\n      tag_103\n      jump\t// in\n    tag_136:\n        /* \"#utility.yul\":4876:5015   */\n      swap1\n      pop\n        /* \"#utility.yul\":4603:5022   */\n      swap2\n      swap1\n      pop\n      jump\t// out\n        /* \"#utility.yul\":5028:5447   */\n    tag_48:\n        /* \"#utility.yul\":5194:5198   */\n      0x00\n        /* \"#utility.yul\":5232:5234   */\n      0x20\n        /* \"#utility.yul\":5221:5230   */\n      dup3\n        /* \"#utility.yul\":5217:5235   */\n      add\n        /* \"#utility.yul\":5209:5235   */\n      swap1\n      pop\n        /* \"#utility.yul\":5281:5290   */\n      dup2\n        /* \"#utility.yul\":5275:5279   */\n      dup2\n        /* \"#utility.yul\":5271:5291   */\n      sub\n        /* \"#utility.yul\":5267:5268   */\n      0x00\n        /* \"#utility.yul\":5256:5265   */\n      dup4\n        /* \"#utility.yul\":5252:5269   */\n      add\n        /* \"#utility.yul\":5245:5292   */\n      mstore\n        /* \"#utility.yul\":5309:5440   */\n      tag_138\n        /* \"#utility.yul\":5435:5439   */\n      dup2\n        /* \"#utility.yul\":5309:5440   */\n      tag_108\n      jump\t// in\n    tag_138:\n        /* \"#utility.yul\":5301:5440   */\n      swap1\n      pop\n        /* \"#utility.yul\":5028:5447   */\n      swap2\n      swap1\n      pop\n      jump\t// out\n        /* \"#utility.yul\":5453:5872   */\n    tag_38:\n        /* \"#utility.yul\":5619:5623   */\n      0x00\n        /* \"#utility.yul\":5657:5659   */\n      0x20\n        /* \"#utility.yul\":5646:5655   */\n      dup3\n        /* \"#utility.yul\":5642:5660   */\n      add\n        /* \"#utility.yul\":5634:5660   */\n      swap1\n      pop\n        /* \"#utility.yul\":5706:5715   */\n      dup2\n        /* \"#utility.yul\":5700:5704   */\n      dup2\n        /* \"#utility.yul\":5696:5716   */\n      sub\n        /* \"#utility.yul\":5692:5693   */\n      0x00\n        /* \"#utility.yul\":5681:5690   */\n      dup4\n        /* \"#utility.yul\":5677:5694   */\n      add\n        /* \"#utility.yul\":5670:5717   */\n      mstore\n        /* \"#utility.yul\":5734:5865   */\n      tag_140\n        /* \"#utility.yul\":5860:5864   */\n      dup2\n        /* \"#utility.yul\":5734:5865   */\n      tag_113\n      jump\t// in\n    tag_140:\n        /* \"#utility.yul\":5726:5865   */\n      swap1\n      pop\n        /* \"#utility.yul\":5453:5872   */\n      swap2\n      swap1\n      pop\n      jump\t// out\n        /* \"#utility.yul\":5878:6100   */\n    tag_14:\n        /* \"#utility.yul\":5971:5975   */\n      0x00\n        /* \"#utility.yul\":6009:6011   */\n      0x20\n        /* \"#utility.yul\":5998:6007   */\n      dup3\n        /* \"#utility.yul\":5994:6012   */\n      add\n        /* \"#utility.yul\":5986:6012   */\n      swap1\n      pop\n        /* \"#utility.yul\":6022:6093   */\n      tag_142\n        /* \"#utility.yul\":6090:6091   */\n      0x00\n        /* \"#utility.yul\":6079:6088   */\n      dup4\n        /* \"#utility.yul\":6075:6092   */\n      add\n        /* \"#utility.yul\":6066:6072   */\n      dup5\n        /* \"#utility.yul\":6022:6093   */\n      tag_118\n      jump\t// in\n    tag_142:\n        /* \"#utility.yul\":5878:6100   */\n      swap3\n      swap2\n      pop\n      pop\n      jump\t// out\n        /* \"#utility.yul\":6187:6356   */\n    tag_100:\n        /* \"#utility.yul\":6271:6282   */\n      0x00\n        /* \"#utility.yul\":6305:6311   */\n      dup3\n        /* \"#utility.yul\":6300:6303   */\n      dup3\n        /* \"#utility.yul\":6293:6312   */\n      mstore\n        /* \"#utility.yul\":6345:6349   */\n      0x20\n        /* \"#utility.yul\":6340:6343   */\n      dup3\n        /* \"#utility.yul\":6336:6350   */\n      add\n        /* \"#utility.yul\":6321:6350   */\n      swap1\n      pop\n        /* \"#utility.yul\":6187:6356   */\n      swap3\n      swap2\n      pop\n      pop\n      jump\t// out\n        /* \"#utility.yul\":6362:6458   */\n    tag_92:\n        /* \"#utility.yul\":6399:6406   */\n      0x00\n        /* \"#utility.yul\":6428:6452   */\n      tag_147\n        /* \"#utility.yul\":6446:6451   */\n      dup3\n        /* \"#utility.yul\":6428:6452   */\n      tag_148\n      jump\t// in\n    tag_147:\n        /* \"#utility.yul\":6417:6452   */\n      swap1\n      pop\n        /* \"#utility.yul\":6362:6458   */\n      swap2\n      swap1\n      pop\n      jump\t// out\n        /* \"#utility.yul\":6464:6554   */\n    tag_149:\n        /* \"#utility.yul\":6498:6505   */\n      0x00\n        /* \"#utility.yul\":6541:6546   */\n      dup2\n        /* \"#utility.yul\":6534:6547   */\n      iszero\n        /* \"#utility.yul\":6527:6548   */\n      iszero\n        /* \"#utility.yul\":6516:6548   */\n      swap1\n      pop\n        /* \"#utility.yul\":6464:6554   */\n      swap2\n      swap1\n      pop\n      jump\t// out\n        /* \"#utility.yul\":6560:6686   */\n    tag_148:\n        /* \"#utility.yul\":6597:6604   */\n      0x00\n        /* \"#utility.yul\":6637:6679   */\n      0xffffffffffffffffffffffffffffffffffffffff\n        /* \"#utility.yul\":6630:6635   */\n      dup3\n        /* \"#utility.yul\":6626:6680   */\n      and\n        /* \"#utility.yul\":6615:6680   */\n      swap1\n      pop\n        /* \"#utility.yul\":6560:6686   */\n      swap2\n      swap1\n      pop\n      jump\t// out\n        /* \"#utility.yul\":6692:6769   */\n    tag_121:\n        /* \"#utility.yul\":6729:6736   */\n      0x00\n        /* \"#utility.yul\":6758:6763   */\n      dup2\n        /* \"#utility.yul\":6747:6763   */\n      swap1\n      pop\n        /* \"#utility.yul\":6692:6769   */\n      swap2\n      swap1\n      pop\n      jump\t// out\n        /* \"#utility.yul\":6775:6915   */\n    tag_96:\n        /* \"#utility.yul\":6839:6848   */\n      0x00\n        /* \"#utility.yul\":6872:6909   */\n      tag_154\n        /* \"#utility.yul\":6903:6908   */\n      dup3\n        /* \"#utility.yul\":6872:6909   */\n      tag_155\n      jump\t// in\n    tag_154:\n        /* \"#utility.yul\":6859:6909   */\n      swap1\n      pop\n        /* \"#utility.yul\":6775:6915   */\n      swap2\n      swap1\n      pop\n      jump\t// out\n        /* \"#utility.yul\":6921:7047   */\n    tag_155:\n        /* \"#utility.yul\":6971:6980   */\n      0x00\n        /* \"#utility.yul\":7004:7041   */\n      tag_157\n        /* \"#utility.yul\":7035:7040   */\n      dup3\n        /* \"#utility.yul\":7004:7041   */\n      tag_158\n      jump\t// in\n    tag_157:\n        /* \"#utility.yul\":6991:7041   */\n      swap1\n      pop\n        /* \"#utility.yul\":6921:7047   */\n      swap2\n      swap1\n      pop\n      jump\t// out\n        /* \"#utility.yul\":7053:7166   */\n    tag_158:\n        /* \"#utility.yul\":7103:7112   */\n      0x00\n        /* \"#utility.yul\":7136:7160   */\n      tag_160\n        /* \"#utility.yul\":7154:7159   */\n      dup3\n        /* \"#utility.yul\":7136:7160   */\n      tag_148\n      jump\t// in\n    tag_160:\n        /* \"#utility.yul\":7123:7160   */\n      swap1\n      pop\n        /* \"#utility.yul\":7053:7166   */\n      swap2\n      swap1\n      pop\n      jump\t// out\n        /* \"#utility.yul\":7295:7412   */\n    tag_83:\n        /* \"#utility.yul\":7404:7405   */\n      0x00\n        /* \"#utility.yul\":7401:7402   */\n      dup1\n        /* \"#utility.yul\":7394:7406   */\n      revert\n        /* \"#utility.yul\":7418:7593   */\n    tag_102:\n        /* \"#utility.yul\":7558:7585   */\n      0x546f6b656e203220616c6c6f77616e636520746f6f206c6f7700000000000000\n        /* \"#utility.yul\":7554:7555   */\n      0x00\n        /* \"#utility.yul\":7546:7552   */\n      dup3\n        /* \"#utility.yul\":7542:7556   */\n      add\n        /* \"#utility.yul\":7535:7586   */\n      mstore\n        /* \"#utility.yul\":7418:7593   */\n      pop\n      jump\t// out\n        /* \"#utility.yul\":7599:7770   */\n    tag_107:\n        /* \"#utility.yul\":7739:7762   */\n      0x546f6b656e207472616e73666572206661696c65640000000000000000000000\n        /* \"#utility.yul\":7735:7736   */\n      0x00\n        /* \"#utility.yul\":7727:7733   */\n      dup3\n        /* \"#utility.yul\":7723:7737   */\n      add\n        /* \"#utility.yul\":7716:7763   */\n      mstore\n        /* \"#utility.yul\":7599:7770   */\n      pop\n      jump\t// out\n        /* \"#utility.yul\":7776:7951   */\n    tag_112:\n        /* \"#utility.yul\":7916:7943   */\n      0x546f6b656e203120616c6c6f77616e636520746f6f206c6f7700000000000000\n        /* \"#utility.yul\":7912:7913   */\n      0x00\n        /* \"#utility.yul\":7904:7910   */\n      dup3\n        /* \"#utility.yul\":7900:7914   */\n      add\n        /* \"#utility.yul\":7893:7944   */\n      mstore\n        /* \"#utility.yul\":7776:7951   */\n      pop\n      jump\t// out\n        /* \"#utility.yul\":7957:8121   */\n    tag_117:\n        /* \"#utility.yul\":8097:8113   */\n      0x4e6f7420617574686f72697a6564000000000000000000000000000000000000\n        /* \"#utility.yul\":8093:8094   */\n      0x00\n        /* \"#utility.yul\":8085:8091   */\n      dup3\n        /* \"#utility.yul\":8081:8095   */\n      add\n        /* \"#utility.yul\":8074:8114   */\n      mstore\n        /* \"#utility.yul\":7957:8121   */\n      pop\n      jump\t// out\n        /* \"#utility.yul\":8127:8243   */\n    tag_75:\n        /* \"#utility.yul\":8197:8218   */\n      tag_169\n        /* \"#utility.yul\":8212:8217   */\n      dup2\n        /* \"#utility.yul\":8197:8218   */\n      tag_149\n      jump\t// in\n    tag_169:\n        /* \"#utility.yul\":8190:8195   */\n      dup2\n        /* \"#utility.yul\":8187:8219   */\n      eq\n        /* \"#utility.yul\":8177:8237   */\n      tag_170\n      jumpi\n        /* \"#utility.yul\":8233:8234   */\n      0x00\n        /* \"#utility.yul\":8230:8231   */\n      dup1\n        /* \"#utility.yul\":8223:8235   */\n      revert\n        /* \"#utility.yul\":8177:8237   */\n    tag_170:\n        /* \"#utility.yul\":8127:8243   */\n      pop\n      jump\t// out\n        /* \"#utility.yul\":8249:8371   */\n    tag_79:\n        /* \"#utility.yul\":8322:8346   */\n      tag_172\n        /* \"#utility.yul\":8340:8345   */\n      dup2\n        /* \"#utility.yul\":8322:8346   */\n      tag_121\n      jump\t// in\n    tag_172:\n        /* \"#utility.yul\":8315:8320   */\n      dup2\n        /* \"#utility.yul\":8312:8347   */\n      eq\n        /* \"#utility.yul\":8302:8365   */\n      tag_173\n      jumpi\n        /* \"#utility.yul\":8361:8362   */\n      0x00\n        /* \"#utility.yul\":8358:8359   */\n      dup1\n        /* \"#utility.yul\":8351:8363   */\n      revert\n        /* \"#utility.yul\":8302:8365   */\n    tag_173:\n        /* \"#utility.yul\":8249:8371   */\n      pop\n      jump\t// out\n\n    auxdata: 0xa264697066735822122028ded42f35ebdc5e0ddcb01932f611db7f303f27be23f2273be0dd84398aaac564736f6c63430008070033\n}\n",
				"bytecode": {
					"linkReferences": {},
					"object": "60806040523480156200001157600080fd5b5060405162000d5f38038062000d5f833981810160405281019062000037919062000182565b856000806101000a81548173ffffffffffffffffffffffffffffffffffffffff021916908373ffffffffffffffffffffffffffffffffffffffff16021790555084600160006101000a81548173ffffffffffffffffffffffffffffffffffffffff021916908373ffffffffffffffffffffffffffffffffffffffff1602179055508360028190555082600360006101000a81548173ffffffffffffffffffffffffffffffffffffffff021916908373ffffffffffffffffffffffffffffffffffffffff16021790555081600460006101000a81548173ffffffffffffffffffffffffffffffffffffffff021916908373ffffffffffffffffffffffffffffffffffffffff1602179055508060058190555050505050505062000295565b600081519050620001658162000261565b92915050565b6000815190506200017c816200027b565b92915050565b60008060008060008060c08789031215620001a257620001a16200025c565b5b6000620001b289828a0162000154565b9650506020620001c589828a0162000154565b9550506040620001d889828a016200016b565b9450506060620001eb89828a0162000154565b9350506080620001fe89828a0162000154565b92505060a06200021189828a016200016b565b9150509295509295509295565b60006200022b8262000232565b9050919050565b600073ffffffffffffffffffffffffffffffffffffffff82169050919050565b6000819050919050565b600080fd5b6200026c816200021e565b81146200027857600080fd5b50565b620002868162000252565b81146200029257600080fd5b50565b610aba80620002a56000396000f3fe608060405234801561001057600080fd5b506004361061007d5760003560e01c8063736889141161005b57806373688914146100dc5780638119c065146100fa578063d21220a714610104578063f400fde4146101225761007d565b8063057bfcc71461008257806325be124e146100a057806352709725146100be575b600080fd5b61008a610140565b6040516100979190610903565b60405180910390f35b6100a8610146565b6040516100b59190610868565b60405180910390f35b6100c661016c565b6040516100d391906107ed565b60405180910390f35b6100e4610192565b6040516100f191906107ed565b60405180910390f35b6101026101b8565b005b61010c6105ac565b6040516101199190610868565b60405180910390f35b61012a6105d0565b6040516101379190610903565b60405180910390f35b60055481565b600360009054906101000a900473ffffffffffffffffffffffffffffffffffffffff1681565b600460009054906101000a900473ffffffffffffffffffffffffffffffffffffffff1681565b600160009054906101000a900473ffffffffffffffffffffffffffffffffffffffff1681565b600160009054906101000a900473ffffffffffffffffffffffffffffffffffffffff1673ffffffffffffffffffffffffffffffffffffffff163373ffffffffffffffffffffffffffffffffffffffff1614806102615750600460009054906101000a900473ffffffffffffffffffffffffffffffffffffffff1673ffffffffffffffffffffffffffffffffffffffff163373ffffffffffffffffffffffffffffffffffffffff16145b6102a0576040517f08c379a0000000000000000000000000000000000000000000000000000000008152600401610297906108e3565b60405180910390fd5b60025460008054906101000a900473ffffffffffffffffffffffffffffffffffffffff1673ffffffffffffffffffffffffffffffffffffffff1663dd62ed3e600160009054906101000a900473ffffffffffffffffffffffffffffffffffffffff16306040518363ffffffff1660e01b8152600401610320929190610808565b60206040518083038186803b15801561033857600080fd5b505afa15801561034c573d6000803e3d6000fd5b505050506040513d601f19601f820116820180604052508101906103709190610707565b10156103b1576040517f08c379a00000000000000000000000000000000000000000000000000000000081526004016103a8906108c3565b60405180910390fd5b600554600360009054906101000a900473ffffffffffffffffffffffffffffffffffffffff1673ffffffffffffffffffffffffffffffffffffffff1663dd62ed3e600460009054906101000a900473ffffffffffffffffffffffffffffffffffffffff16306040518363ffffffff1660e01b8152600401610433929190610808565b60206040518083038186803b15801561044b57600080fd5b505afa15801561045f573d6000803e3d6000fd5b505050506040513d601f19601f820116820180604052508101906104839190610707565b10156104c4576040517f08c379a00000000000000000000000000000000000000000000000000000000081526004016104bb90610883565b60405180910390fd5b61053660008054906101000a900473ffffffffffffffffffffffffffffffffffffffff16600160009054906101000a900473ffffffffffffffffffffffffffffffffffffffff16600460009054906101000a900473ffffffffffffffffffffffffffffffffffffffff166002546105d6565b6105aa600360009054906101000a900473ffffffffffffffffffffffffffffffffffffffff16600460009054906101000a900473ffffffffffffffffffffffffffffffffffffffff16600160009054906101000a900473ffffffffffffffffffffffffffffffffffffffff166005546105d6565b565b60008054906101000a900473ffffffffffffffffffffffffffffffffffffffff1681565b60025481565b60008473ffffffffffffffffffffffffffffffffffffffff166323b872dd8585856040518463ffffffff1660e01b815260040161061593929190610831565b602060405180830381600087803b15801561062f57600080fd5b505af1158015610643573d6000803e3d6000fd5b505050506040513d601f19601f8201168201806040525081019061066791906106da565b9050806106a9576040517f08c379a00000000000000000000000000000000000000000000000000000000081526004016106a0906108a3565b60405180910390fd5b5050505050565b6000815190506106bf81610a56565b92915050565b6000815190506106d481610a6d565b92915050565b6000602082840312156106f0576106ef6109ad565b5b60006106fe848285016106b0565b91505092915050565b60006020828403121561071d5761071c6109ad565b5b600061072b848285016106c5565b91505092915050565b61073d8161092f565b82525050565b61074c81610977565b82525050565b600061075f60198361091e565b915061076a826109b2565b602082019050919050565b600061078260158361091e565b915061078d826109db565b602082019050919050565b60006107a560198361091e565b91506107b082610a04565b602082019050919050565b60006107c8600e8361091e565b91506107d382610a2d565b602082019050919050565b6107e78161096d565b82525050565b60006020820190506108026000830184610734565b92915050565b600060408201905061081d6000830185610734565b61082a6020830184610734565b9392505050565b60006060820190506108466000830186610734565b6108536020830185610734565b61086060408301846107de565b949350505050565b600060208201905061087d6000830184610743565b92915050565b6000602082019050818103600083015261089c81610752565b9050919050565b600060208201905081810360008301526108bc81610775565b9050919050565b600060208201905081810360008301526108dc81610798565b9050919050565b600060208201905081810360008301526108fc816107bb565b9050919050565b600060208201905061091860008301846107de565b92915050565b600082825260208201905092915050565b600061093a8261094d565b9050919050565b60008115159050919050565b600073ffffffffffffffffffffffffffffffffffffffff82169050919050565b6000819050919050565b600061098282610989565b9050919050565b60006109948261099b565b9050919050565b60006109a68261094d565b9050919050565b600080fd5b7f546f6b656e203220616c6c6f77616e636520746f6f206c6f7700000000000000600082015250565b7f546f6b656e207472616e73666572206661696c65640000000000000000000000600082015250565b7f546f6b656e203120616c6c6f77616e636520746f6f206c6f7700000000000000600082015250565b7f4e6f7420617574686f72697a6564000000000000000000000000000000000000600082015250565b610a5f81610941565b8114610a6a57600080fd5b50565b610a768161096d565b8114610a8157600080fd5b5056fea264697066735822122028ded42f35ebdc5e0ddcb01932f611db7f303f27be23f2273be0dd84398aaac564736f6c63430008070033",
					"opcodes": "PUSH1 0x80 PUSH1 0x40 MSTORE CALLVALUE DUP1 ISZERO PUSH3 0x11 JUMPI PUSH1 0x0 DUP1 REVERT JUMPDEST POP PUSH1 0x40 MLOAD PUSH3 0xD5F CODESIZE SUB DUP1 PUSH3 0xD5F DUP4 CODECOPY DUP2 DUP2 ADD PUSH1 0x40 MSTORE DUP2 ADD SWAP1 PUSH3 0x37 SWAP2 SWAP1 PUSH3 0x182 JUMP JUMPDEST DUP6 PUSH1 0x0 DUP1 PUSH2 0x100 EXP DUP2 SLOAD DUP2 PUSH20 0xFFFFFFFFFFFFFFFFFFFFFFFFFFFFFFFFFFFFFFFF MUL NOT AND SWAP1 DUP4 PUSH20 0xFFFFFFFFFFFFFFFFFFFFFFFFFFFFFFFFFFFFFFFF AND MUL OR SWAP1 SSTORE POP DUP5 PUSH1 0x1 PUSH1 0x0 PUSH2 0x100 EXP DUP2 SLOAD DUP2 PUSH20 0xFFFFFFFFFFFFFFFFFFFFFFFFFFFFFFFFFFFFFFFF MUL NOT AND SWAP1 DUP4 PUSH20 0xFFFFFFFFFFFFFFFFFFFFFFFFFFFFFFFFFFFFFFFF AND MUL OR SWAP1 SSTORE POP DUP4 PUSH1 0x2 DUP2 SWAP1 SSTORE POP DUP3 PUSH1 0x3 PUSH1 0x0 PUSH2 0x100 EXP DUP2 SLOAD DUP2 PUSH20 0xFFFFFFFFFFFFFFFFFFFFFFFFFFFFFFFFFFFFFFFF MUL NOT AND SWAP1 DUP4 PUSH20 0xFFFFFFFFFFFFFFFFFFFFFFFFFFFFFFFFFFFFFFFF AND MUL OR SWAP1 SSTORE POP DUP2 PUSH1 0x4 PUSH1 0x0 PUSH2 0x100 EXP DUP2 SLOAD DUP2 PUSH20 0xFFFFFFFFFFFFFFFFFFFFFFFFFFFFFFFFFFFFFFFF MUL NOT AND SWAP1 DUP4 PUSH20 0xFFFFFFFFFFFFFFFFFFFFFFFFFFFFFFFFFFFFFFFF AND MUL OR SWAP1 SSTORE POP DUP1 PUSH1 0x5 DUP2 SWAP1 SSTORE POP POP POP POP POP POP POP PUSH3 0x295 JUMP JUMPDEST PUSH1 0x0 DUP2 MLOAD SWAP1 POP PUSH3 0x165 DUP2 PUSH3 0x261 JUMP JUMPDEST SWAP3 SWAP2 POP POP JUMP JUMPDEST PUSH1 0x0 DUP2 MLOAD SWAP1 POP PUSH3 0x17C DUP2 PUSH3 0x27B JUMP JUMPDEST SWAP3 SWAP2 POP POP JUMP JUMPDEST PUSH1 0x0 DUP1 PUSH1 0x0 DUP1 PUSH1 0x0 DUP1 PUSH1 0xC0 DUP8 DUP10 SUB SLT ISZERO PUSH3 0x1A2 JUMPI PUSH3 0x1A1 PUSH3 0x25C JUMP JUMPDEST JUMPDEST PUSH1 0x0 PUSH3 0x1B2 DUP10 DUP3 DUP11 ADD PUSH3 0x154 JUMP JUMPDEST SWAP7 POP POP PUSH1 0x20 PUSH3 0x1C5 DUP10 DUP3 DUP11 ADD PUSH3 0x154 JUMP JUMPDEST SWAP6 POP POP PUSH1 0x40 PUSH3 0x1D8 DUP10 DUP3 DUP11 ADD PUSH3 0x16B JUMP JUMPDEST SWAP5 POP POP PUSH1 0x60 PUSH3 0x1EB DUP10 DUP3 DUP11 ADD PUSH3 0x154 JUMP JUMPDEST SWAP4 POP POP PUSH1 0x80 PUSH3 0x1FE DUP10 DUP3 DUP11 ADD PUSH3 0x154 JUMP JUMPDEST SWAP3 POP POP PUSH1 0xA0 PUSH3 0x211 DUP10 DUP3 DUP11 ADD PUSH3 0x16B JUMP JUMPDEST SWAP2 POP POP SWAP3 SWAP6 POP SWAP3 SWAP6 POP SWAP3 SWAP6 JUMP JUMPDEST PUSH1 0x0 PUSH3 0x22B DUP3 PUSH3 0x232 JUMP JUMPDEST SWAP1 POP SWAP2 SWAP1 POP JUMP JUMPDEST PUSH1 0x0 PUSH20 0xFFFFFFFFFFFFFFFFFFFFFFFFFFFFFFFFFFFFFFFF DUP3 AND SWAP1 POP SWAP2 SWAP1 POP JUMP JUMPDEST PUSH1 0x0 DUP2 SWAP1 POP SWAP2 SWAP1 POP JUMP JUMPDEST PUSH1 0x0 DUP1 REVERT JUMPDEST PUSH3 0x26C DUP2 PUSH3 0x21E JUMP JUMPDEST DUP2 EQ PUSH3 0x278 JUMPI PUSH1 0x0 DUP1 REVERT JUMPDEST POP JUMP JUMPDEST PUSH3 0x286 DUP2 PUSH3 0x252 JUMP JUMPDEST DUP2 EQ PUSH3 0x292 JUMPI PUSH1 0x0 DUP1 REVERT JUMPDEST POP JUMP JUMPDEST PUSH2 0xABA DUP1 PUSH3 0x2A5 PUSH1 0x0 CODECOPY PUSH1 0x0 RETURN INVALID PUSH1 0x80 PUSH1 0x40 MSTORE CALLVALUE DUP1 ISZERO PUSH2 0x10 JUMPI PUSH1 0x0 DUP1 REVERT JUMPDEST POP PUSH1 0x4 CALLDATASIZE LT PUSH2 0x7D JUMPI PUSH1 0x0 CALLDATALOAD PUSH1 0xE0 SHR DUP1 PUSH4 0x73688914 GT PUSH2 0x5B JUMPI DUP1 PUSH4 0x73688914 EQ PUSH2 0xDC JUMPI DUP1 PUSH4 0x8119C065 EQ PUSH2 0xFA JUMPI DUP1 PUSH4 0xD21220A7 EQ PUSH2 0x104 JUMPI DUP1 PUSH4 0xF400FDE4 EQ PUSH2 0x122 JUMPI PUSH2 0x7D JUMP JUMPDEST DUP1 PUSH4 0x57BFCC7 EQ PUSH2 0x82 JUMPI DUP1 PUSH4 0x25BE124E EQ PUSH2 0xA0 JUMPI DUP1 PUSH4 0x52709725 EQ PUSH2 0xBE JUMPI JUMPDEST PUSH1 0x0 DUP1 REVERT JUMPDEST PUSH2 0x8A PUSH2 0x140 JUMP JUMPDEST PUSH1 0x40 MLOAD PUSH2 0x97 SWAP2 SWAP1 PUSH2 0x903 JUMP JUMPDEST PUSH1 0x40 MLOAD DUP1 SWAP2 SUB SWAP1 RETURN JUMPDEST PUSH2 0xA8 PUSH2 0x146 JUMP JUMPDEST PUSH1 0x40 MLOAD PUSH2 0xB5 SWAP2 SWAP1 PUSH2 0x868 JUMP JUMPDEST PUSH1 0x40 MLOAD DUP1 SWAP2 SUB SWAP1 RETURN JUMPDEST PUSH2 0xC6 PUSH2 0x16C JUMP JUMPDEST PUSH1 0x40 MLOAD PUSH2 0xD3 SWAP2 SWAP1 PUSH2 0x7ED JUMP JUMPDEST PUSH1 0x40 MLOAD DUP1 SWAP2 SUB SWAP1 RETURN JUMPDEST PUSH2 0xE4 PUSH2 0x192 JUMP JUMPDEST PUSH1 0x40 MLOAD PUSH2 0xF1 SWAP2 SWAP1 PUSH2 0x7ED JUMP JUMPDEST PUSH1 0x40 MLOAD DUP1 SWAP2 SUB SWAP1 RETURN JUMPDEST PUSH2 0x102 PUSH2 0x1B8 JUMP JUMPDEST STOP JUMPDEST PUSH2 0x10C PUSH2 0x5AC JUMP JUMPDEST PUSH1 0x40 MLOAD PUSH2 0x119 SWAP2 SWAP1 PUSH2 0x868 JUMP JUMPDEST PUSH1 0x40 MLOAD DUP1 SWAP2 SUB SWAP1 RETURN JUMPDEST PUSH2 0x12A PUSH2 0x5D0 JUMP JUMPDEST PUSH1 0x40 MLOAD PUSH2 0x137 SWAP2 SWAP1 PUSH2 0x903 JUMP JUMPDEST PUSH1 0x40 MLOAD DUP1 SWAP2 SUB SWAP1 RETURN JUMPDEST PUSH1 0x5 SLOAD DUP2 JUMP JUMPDEST PUSH1 0x3 PUSH1 0x0 SWAP1 SLOAD SWAP1 PUSH2 0x100 EXP SWAP1 DIV PUSH20 0xFFFFFFFFFFFFFFFFFFFFFFFFFFFFFFFFFFFFFFFF AND DUP2 JUMP JUMPDEST PUSH1 0x4 PUSH1 0x0 SWAP1 SLOAD SWAP1 PUSH2 0x100 EXP SWAP1 DIV PUSH20 0xFFFFFFFFFFFFFFFFFFFFFFFFFFFFFFFFFFFFFFFF AND DUP2 JUMP JUMPDEST PUSH1 0x1 PUSH1 0x0 SWAP1 SLOAD SWAP1 PUSH2 0x100 EXP SWAP1 DIV PUSH20 0xFFFFFFFFFFFFFFFFFFFFFFFFFFFFFFFFFFFFFFFF AND DUP2 JUMP JUMPDEST PUSH1 0x1 PUSH1 0x0 SWAP1 SLOAD SWAP1 PUSH2 0x100 EXP SWAP1 DIV PUSH20 0xFFFFFFFFFFFFFFFFFFFFFFFFFFFFFFFFFFFFFFFF AND PUSH20 0xFFFFFFFFFFFFFFFFFFFFFFFFFFFFFFFFFFFFFFFF AND CALLER PUSH20 0xFFFFFFFFFFFFFFFFFFFFFFFFFFFFFFFFFFFFFFFF AND EQ DUP1 PUSH2 0x261 JUMPI POP PUSH1 0x4 PUSH1 0x0 SWAP1 SLOAD SWAP1 PUSH2 0x100 EXP SWAP1 DIV PUSH20 0xFFFFFFFFFFFFFFFFFFFFFFFFFFFFFFFFFFFFFFFF AND PUSH20 0xFFFFFFFFFFFFFFFFFFFFFFFFFFFFFFFFFFFFFFFF AND CALLER PUSH20 0xFFFFFFFFFFFFFFFFFFFFFFFFFFFFFFFFFFFFFFFF AND EQ JUMPDEST PUSH2 0x2A0 JUMPI PUSH1 0x40 MLOAD PUSH32 0x8C379A000000000000000000000000000000000000000000000000000000000 DUP2 MSTORE PUSH1 0x4 ADD PUSH2 0x297 SWAP1 PUSH2 0x8E3 JUMP JUMPDEST PUSH1 0x40 MLOAD DUP1 SWAP2 SUB SWAP1 REVERT JUMPDEST PUSH1 0x2 SLOAD PUSH1 0x0 DUP1 SLOAD SWAP1 PUSH2 0x100 EXP SWAP1 DIV PUSH20 0xFFFFFFFFFFFFFFFFFFFFFFFFFFFFFFFFFFFFFFFF AND PUSH20 0xFFFFFFFFFFFFFFFFFFFFFFFFFFFFFFFFFFFFFFFF AND PUSH4 0xDD62ED3E PUSH1 0x1 PUSH1 0x0 SWAP1 SLOAD SWAP1 PUSH2 0x100 EXP SWAP1 DIV PUSH20 0xFFFFFFFFFFFFFFFFFFFFFFFFFFFFFFFFFFFFFFFF AND ADDRESS PUSH1 0x40 MLOAD DUP4 PUSH4 0xFFFFFFFF AND PUSH1 0xE0 SHL DUP2 MSTORE PUSH1 0x4 ADD PUSH2 0x320 SWAP3 SWAP2 SWAP1 PUSH2 0x808 JUMP JUMPDEST PUSH1 0x20 PUSH1 0x40 MLOAD DUP1 DUP4 SUB DUP2 DUP7 DUP1 EXTCODESIZE ISZERO DUP1 ISZERO PUSH2 0x338 JUMPI PUSH1 0x0 DUP1 REVERT JUMPDEST POP GAS STATICCALL ISZERO DUP1 ISZERO PUSH2 0x34C JUMPI RETURNDATASIZE PUSH1 0x0 DUP1 RETURNDATACOPY RETURNDATASIZE PUSH1 0x0 REVERT JUMPDEST POP POP POP POP PUSH1 0x40 MLOAD RETURNDATASIZE PUSH1 0x1F NOT PUSH1 0x1F DUP3 ADD AND DUP3 ADD DUP1 PUSH1 0x40 MSTORE POP DUP2 ADD SWAP1 PUSH2 0x370 SWAP2 SWAP1 PUSH2 0x707 JUMP JUMPDEST LT ISZERO PUSH2 0x3B1 JUMPI PUSH1 0x40 MLOAD PUSH32 0x8C379A000000000000000000000000000000000000000000000000000000000 DUP2 MSTORE PUSH1 0x4 ADD PUSH2 0x3A8 SWAP1 PUSH2 0x8C3 JUMP JUMPDEST PUSH1 0x40 MLOAD DUP1 SWAP2 SUB SWAP1 REVERT JUMPDEST PUSH1 0x5 SLOAD PUSH1 0x3 PUSH1 0x0 SWAP1 SLOAD SWAP1 PUSH2 0x100 EXP SWAP1 DIV PUSH20 0xFFFFFFFFFFFFFFFFFFFFFFFFFFFFFFFFFFFFFFFF AND PUSH20 0xFFFFFFFFFFFFFFFFFFFFFFFFFFFFFFFFFFFFFFFF AND PUSH4 0xDD62ED3E PUSH1 0x4 PUSH1 0x0 SWAP1 SLOAD SWAP1 PUSH2 0x100 EXP SWAP1 DIV PUSH20 0xFFFFFFFFFFFFFFFFFFFFFFFFFFFFFFFFFFFFFFFF AND ADDRESS PUSH1 0x40 MLOAD DUP4 PUSH4 0xFFFFFFFF AND PUSH1 0xE0 SHL DUP2 MSTORE PUSH1 0x4 ADD PUSH2 0x433 SWAP3 SWAP2 SWAP1 PUSH2 0x808 JUMP JUMPDEST PUSH1 0x20 PUSH1 0x40 MLOAD DUP1 DUP4 SUB DUP2 DUP7 DUP1 EXTCODESIZE ISZERO DUP1 ISZERO PUSH2 0x44B JUMPI PUSH1 0x0 DUP1 REVERT JUMPDEST POP GAS STATICCALL ISZERO DUP1 ISZERO PUSH2 0x45F JUMPI RETURNDATASIZE PUSH1 0x0 DUP1 RETURNDATACOPY RETURNDATASIZE PUSH1 0x0 REVERT JUMPDEST POP POP POP POP PUSH1 0x40 MLOAD RETURNDATASIZE PUSH1 0x1F NOT PUSH1 0x1F DUP3 ADD AND DUP3 ADD DUP1 PUSH1 0x40 MSTORE POP DUP2 ADD SWAP1 PUSH2 0x483 SWAP2 SWAP1 PUSH2 0x707 JUMP JUMPDEST LT ISZERO PUSH2 0x4C4 JUMPI PUSH1 0x40 MLOAD PUSH32 0x8C379A000000000000000000000000000000000000000000000000000000000 DUP2 MSTORE PUSH1 0x4 ADD PUSH2 0x4BB SWAP1 PUSH2 0x883 JUMP JUMPDEST PUSH1 0x40 MLOAD DUP1 SWAP2 SUB SWAP1 REVERT JUMPDEST PUSH2 0x536 PUSH1 0x0 DUP1 SLOAD SWAP1 PUSH2 0x100 EXP SWAP1 DIV PUSH20 0xFFFFFFFFFFFFFFFFFFFFFFFFFFFFFFFFFFFFFFFF AND PUSH1 0x1 PUSH1 0x0 SWAP1 SLOAD SWAP1 PUSH2 0x100 EXP SWAP1 DIV PUSH20 0xFFFFFFFFFFFFFFFFFFFFFFFFFFFFFFFFFFFFFFFF AND PUSH1 0x4 PUSH1 0x0 SWAP1 SLOAD SWAP1 PUSH2 0x100 EXP SWAP1 DIV PUSH20 0xFFFFFFFFFFFFFFFFFFFFFFFFFFFFFFFFFFFFFFFF AND PUSH1 0x2 SLOAD PUSH2 0x5D6 JUMP JUMPDEST PUSH2 0x5AA PUSH1 0x3 PUSH1 0x0 SWAP1 SLOAD SWAP1 PUSH2 0x100 EXP SWAP1 DIV PUSH20 0xFFFFFFFFFFFFFFFFFFFFFFFFFFFFFFFFFFFFFFFF AND PUSH1 0x4 PUSH1 0x0 SWAP1 SLOAD SWAP1 PUSH2 0x100 EXP SWAP1 DIV PUSH20 0xFFFFFFFFFFFFFFFFFFFFFFFFFFFFFFFFFFFFFFFF AND PUSH1 0x1 PUSH1 0x0 SWAP1 SLOAD SWAP1 PUSH2 0x100 EXP SWAP1 DIV PUSH20 0xFFFFFFFFFFFFFFFFFFFFFFFFFFFFFFFFFFFFFFFF AND PUSH1 0x5 SLOAD PUSH2 0x5D6 JUMP JUMPDEST JUMP JUMPDEST PUSH1 0x0 DUP1 SLOAD SWAP1 PUSH2 0x100 EXP SWAP1 DIV PUSH20 0xFFFFFFFFFFFFFFFFFFFFFFFFFFFFFFFFFFFFFFFF AND DUP2 JUMP JUMPDEST PUSH1 0x2 SLOAD DUP2 JUMP JUMPDEST PUSH1 0x0 DUP5 PUSH20 0xFFFFFFFFFFFFFFFFFFFFFFFFFFFFFFFFFFFFFFFF AND PUSH4 0x23B872DD DUP6 DUP6 DUP6 PUSH1 0x40 MLOAD DUP5 PUSH4 0xFFFFFFFF AND PUSH1 0xE0 SHL DUP2 MSTORE PUSH1 0x4 ADD PUSH2 0x615 SWAP4 SWAP3 SWAP2 SWAP1 PUSH2 0x831 JUMP JUMPDEST PUSH1 0x20 PUSH1 0x40 MLOAD DUP1 DUP4 SUB DUP2 PUSH1 0x0 DUP8 DUP1 EXTCODESIZE ISZERO DUP1 ISZERO PUSH2 0x62F JUMPI PUSH1 0x0 DUP1 REVERT JUMPDEST POP GAS CALL ISZERO DUP1 ISZERO PUSH2 0x643 JUMPI RETURNDATASIZE PUSH1 0x0 DUP1 RETURNDATACOPY RETURNDATASIZE PUSH1 0x0 REVERT JUMPDEST POP POP POP POP PUSH1 0x40 MLOAD RETURNDATASIZE PUSH1 0x1F NOT PUSH1 0x1F DUP3 ADD AND DUP3 ADD DUP1 PUSH1 0x40 MSTORE POP DUP2 ADD SWAP1 PUSH2 0x667 SWAP2 SWAP1 PUSH2 0x6DA JUMP JUMPDEST SWAP1 POP DUP1 PUSH2 0x6A9 JUMPI PUSH1 0x40 MLOAD PUSH32 0x8C379A000000000000000000000000000000000000000000000000000000000 DUP2 MSTORE PUSH1 0x4 ADD PUSH2 0x6A0 SWAP1 PUSH2 0x8A3 JUMP JUMPDEST PUSH1 0x40 MLOAD DUP1 SWAP2 SUB SWAP1 REVERT JUMPDEST POP POP POP POP POP JUMP JUMPDEST PUSH1 0x0 DUP2 MLOAD SWAP1 POP PUSH2 0x6BF DUP2 PUSH2 0xA56 JUMP JUMPDEST SWAP3 SWAP2 POP POP JUMP JUMPDEST PUSH1 0x0 DUP2 MLOAD SWAP1 POP PUSH2 0x6D4 DUP2 PUSH2 0xA6D JUMP JUMPDEST SWAP3 SWAP2 POP POP JUMP JUMPDEST PUSH1 0x0 PUSH1 0x20 DUP3 DUP5 SUB SLT ISZERO PUSH2 0x6F0 JUMPI PUSH2 0x6EF PUSH2 0x9AD JUMP JUMPDEST JUMPDEST PUSH1 0x0 PUSH2 0x6FE DUP5 DUP3 DUP6 ADD PUSH2 0x6B0 JUMP JUMPDEST SWAP2 POP POP SWAP3 SWAP2 POP POP JUMP JUMPDEST PUSH1 0x0 PUSH1 0x20 DUP3 DUP5 SUB SLT ISZERO PUSH2 0x71D JUMPI PUSH2 0x71C PUSH2 0x9AD JUMP JUMPDEST JUMPDEST PUSH1 0x0 PUSH2 0x72B DUP5 DUP3 DUP6 ADD PUSH2 0x6C5 JUMP JUMPDEST SWAP2 POP POP SWAP3 SWAP2 POP POP JUMP JUMPDEST PUSH2 0x73D DUP2 PUSH2 0x92F JUMP JUMPDEST DUP3 MSTORE POP POP JUMP JUMPDEST PUSH2 0x74C DUP2 PUSH2 0x977 JUMP JUMPDEST DUP3 MSTORE POP POP JUMP JUMPDEST PUSH1 0x0 PUSH2 0x75F PUSH1 0x19 DUP4 PUSH2 0x91E JUMP JUMPDEST SWAP2 POP PUSH2 0x76A DUP3 PUSH2 0x9B2 JUMP JUMPDEST PUSH1 0x20 DUP3 ADD SWAP1 POP SWAP2 SWAP1 POP JUMP JUMPDEST PUSH1 0x0 PUSH2 0x782 PUSH1 0x15 DUP4 PUSH2 0x91E JUMP JUMPDEST SWAP2 POP PUSH2 0x78D DUP3 PUSH2 0x9DB JUMP JUMPDEST PUSH1 0x20 DUP3 ADD SWAP1 POP SWAP2 SWAP1 POP JUMP JUMPDEST PUSH1 0x0 PUSH2 0x7A5 PUSH1 0x19 DUP4 PUSH2 0x91E JUMP JUMPDEST SWAP2 POP PUSH2 0x7B0 DUP3 PUSH2 0xA04 JUMP JUMPDEST PUSH1 0x20 DUP3 ADD SWAP1 POP SWAP2 SWAP1 POP JUMP JUMPDEST PUSH1 0x0 PUSH2 0x7C8 PUSH1 0xE DUP4 PUSH2 0x91E JUMP JUMPDEST SWAP2 POP PUSH2 0x7D3 DUP3 PUSH2 0xA2D JUMP JUMPDEST PUSH1 0x20 DUP3 ADD SWAP1 POP SWAP2 SWAP1 POP JUMP JUMPDEST PUSH2 0x7E7 DUP2 PUSH2 0x96D JUMP JUMPDEST DUP3 MSTORE POP POP JUMP JUMPDEST PUSH1 0x0 PUSH1 0x20 DUP3 ADD SWAP1 POP PUSH2 0x802 PUSH1 0x0 DUP4 ADD DUP5 PUSH2 0x734 JUMP JUMPDEST SWAP3 SWAP2 POP POP JUMP JUMPDEST PUSH1 0x0 PUSH1 0x40 DUP3 ADD SWAP1 POP PUSH2 0x81D PUSH1 0x0 DUP4 ADD DUP6 PUSH2 0x734 JUMP JUMPDEST PUSH2 0x82A PUSH1 0x20 DUP4 ADD DUP5 PUSH2 0x734 JUMP JUMPDEST SWAP4 SWAP3 POP POP POP JUMP JUMPDEST PUSH1 0x0 PUSH1 0x60 DUP3 ADD SWAP1 POP PUSH2 0x846 PUSH1 0x0 DUP4 ADD DUP7 PUSH2 0x734 JUMP JUMPDEST PUSH2 0x853 PUSH1 0x20 DUP4 ADD DUP6 PUSH2 0x734 JUMP JUMPDEST PUSH2 0x860 PUSH1 0x40 DUP4 ADD DUP5 PUSH2 0x7DE JUMP JUMPDEST SWAP5 SWAP4 POP POP POP POP JUMP JUMPDEST PUSH1 0x0 PUSH1 0x20 DUP3 ADD SWAP1 POP PUSH2 0x87D PUSH1 0x0 DUP4 ADD DUP5 PUSH2 0x743 JUMP JUMPDEST SWAP3 SWAP2 POP POP JUMP JUMPDEST PUSH1 0x0 PUSH1 0x20 DUP3 ADD SWAP1 POP DUP2 DUP2 SUB PUSH1 0x0 DUP4 ADD MSTORE PUSH2 0x89C DUP2 PUSH2 0x752 JUMP JUMPDEST SWAP1 POP SWAP2 SWAP1 POP JUMP JUMPDEST PUSH1 0x0 PUSH1 0x20 DUP3 ADD SWAP1 POP DUP2 DUP2 SUB PUSH1 0x0 DUP4 ADD MSTORE PUSH2 0x8BC DUP2 PUSH2 0x775 JUMP JUMPDEST SWAP1 POP SWAP2 SWAP1 POP JUMP JUMPDEST PUSH1 0x0 PUSH1 0x20 DUP3 ADD SWAP1 POP DUP2 DUP2 SUB PUSH1 0x0 DUP4 ADD MSTORE PUSH2 0x8DC DUP2 PUSH2 0x798 JUMP JUMPDEST SWAP1 POP SWAP2 SWAP1 POP JUMP JUMPDEST PUSH1 0x0 PUSH1 0x20 DUP3 ADD SWAP1 POP DUP2 DUP2 SUB PUSH1 0x0 DUP4 ADD MSTORE PUSH2 0x8FC DUP2 PUSH2 0x7BB JUMP JUMPDEST SWAP1 POP SWAP2 SWAP1 POP JUMP JUMPDEST PUSH1 0x0 PUSH1 0x20 DUP3 ADD SWAP1 POP PUSH2 0x918 PUSH1 0x0 DUP4 ADD DUP5 PUSH2 0x7DE JUMP JUMPDEST SWAP3 SWAP2 POP POP JUMP JUMPDEST PUSH1 0x0 DUP3 DUP3 MSTORE PUSH1 0x20 DUP3 ADD SWAP1 POP SWAP3 SWAP2 POP POP JUMP JUMPDEST PUSH1 0x0 PUSH2 0x93A DUP3 PUSH2 0x94D JUMP JUMPDEST SWAP1 POP SWAP2 SWAP1 POP JUMP JUMPDEST PUSH1 0x0 DUP2 ISZERO ISZERO SWAP1 POP SWAP2 SWAP1 POP JUMP JUMPDEST PUSH1 0x0 PUSH20 0xFFFFFFFFFFFFFFFFFFFFFFFFFFFFFFFFFFFFFFFF DUP3 AND SWAP1 POP SWAP2 SWAP1 POP JUMP JUMPDEST PUSH1 0x0 DUP2 SWAP1 POP SWAP2 SWAP1 POP JUMP JUMPDEST PUSH1 0x0 PUSH2 0x982 DUP3 PUSH2 0x989 JUMP JUMPDEST SWAP1 POP SWAP2 SWAP1 POP JUMP JUMPDEST PUSH1 0x0 PUSH2 0x994 DUP3 PUSH2 0x99B JUMP JUMPDEST SWAP1 POP SWAP2 SWAP1 POP JUMP JUMPDEST PUSH1 0x0 PUSH2 0x9A6 DUP3 PUSH2 0x94D JUMP JUMPDEST SWAP1 POP SWAP2 SWAP1 POP JUMP JUMPDEST PUSH1 0x0 DUP1 REVERT JUMPDEST PUSH32 0x546F6B656E203220616C6C6F77616E636520746F6F206C6F7700000000000000 PUSH1 0x0 DUP3 ADD MSTORE POP JUMP JUMPDEST PUSH32 0x546F6B656E207472616E73666572206661696C65640000000000000000000000 PUSH1 0x0 DUP3 ADD MSTORE POP JUMP JUMPDEST PUSH32 0x546F6B656E203120616C6C6F77616E636520746F6F206C6F7700000000000000 PUSH1 0x0 DUP3 ADD MSTORE POP JUMP JUMPDEST PUSH32 0x4E6F7420617574686F72697A6564000000000000000000000000000000000000 PUSH1 0x0 DUP3 ADD MSTORE POP JUMP JUMPDEST PUSH2 0xA5F DUP2 PUSH2 0x941 JUMP JUMPDEST DUP2 EQ PUSH2 0xA6A JUMPI PUSH1 0x0 DUP1 REVERT JUMPDEST POP JUMP JUMPDEST PUSH2 0xA76 DUP2 PUSH2 0x96D JUMP JUMPDEST DUP2 EQ PUSH2 0xA81 JUMPI PUSH1 0x0 DUP1 REVERT JUMPDEST POP JUMP INVALID LOG2 PUSH5 0x6970667358 0x22 SLT KECCAK256 0x28 0xDE 0xD4 0x2F CALLDATALOAD 0xEB 0xDC 0x5E 0xD 0xDC 0xB0 NOT ORIGIN 0xF6 GT 0xDB PUSH32 0x303F27BE23F2273BE0DD84398AAAC564736F6C63430008070033000000000000 "
				},
				"gasEstimates": {
					"creation": {
						"codeDepositCost": "549200",
						"executionCost": "infinite",
						"totalCost": "infinite"
					},
					"external": {
						"amount1()": "2495",
						"amount2()": "2430",
						"owner1()": "2514",
						"owner2()": "2559",
						"swap()": "infinite",
						"token1()": "2641",
						"token2()": "2623"
					},
					"internal": {
						"safeTransferFrom(contract IERC20,address,address,uint256)": "infinite"
					}
				},
				"methodIdentifiers": {
					"amount1()": "f400fde4",
					"amount2()": "057bfcc7",
					"owner1()": "73688914",
					"owner2()": "52709725",
					"swap()": "8119c065",
					"token1()": "d21220a7",
					"token2()": "25be124e"
				}
			},
			"userdoc": {
				"kind": "user",
				"methods": {},
				"version": 1
			}
		}
	}
}