{
	"contracts/TokenSwap.sol": {
		"TokenSwap": {
			"abi": [
				{
					"inputs": [],
					"stateMutability": "nonpayable",
					"type": "constructor"
				},
				{
					"stateMutability": "payable",
					"type": "fallback"
				},
				{
					"inputs": [
						{
							"internalType": "address",
							"name": "_tokenFrom",
							"type": "address"
						},
						{
							"internalType": "uint256",
							"name": "_amountFrom",
							"type": "uint256"
						},
						{
							"internalType": "address",
							"name": "_tokenTo",
							"type": "address"
						},
						{
							"internalType": "uint256",
							"name": "_amountTo",
							"type": "uint256"
						}
					],
					"name": "swap",
					"outputs": [],
					"stateMutability": "nonpayable",
					"type": "function"
				},
				{
					"inputs": [],
					"name": "tokenFrom",
					"outputs": [
						{
							"internalType": "contract IERC20",
							"name": "",
							"type": "address"
						}
					],
					"stateMutability": "view",
					"type": "function"
				},
				{
					"inputs": [],
					"name": "tokenTo",
					"outputs": [
						{
							"internalType": "contract IERC20",
							"name": "",
							"type": "address"
						}
					],
					"stateMutability": "view",
					"type": "function"
				},
				{
					"stateMutability": "payable",
					"type": "receive"
				}
			],
			"devdoc": {
				"kind": "dev",
				"methods": {},
				"version": 1
			},
			"evm": {
				"assembly": "    /* \"contracts/TokenSwap.sol\":89:1347  contract TokenSwap {... */\n  mstore(0x40, 0x80)\n    /* \"contracts/TokenSwap.sol\":172:188  constructor() {} */\n  callvalue\n  dup1\n  iszero\n  tag_1\n  jumpi\n  0x00\n  dup1\n  revert\ntag_1:\n  pop\n    /* \"contracts/TokenSwap.sol\":89:1347  contract TokenSwap {... */\n  dataSize(sub_0)\n  dup1\n  dataOffset(sub_0)\n  0x00\n  codecopy\n  0x00\n  return\nstop\n\nsub_0: assembly {\n        /* \"contracts/TokenSwap.sol\":89:1347  contract TokenSwap {... */\n      mstore(0x40, 0x80)\n      jumpi(tag_1, lt(calldatasize, 0x04))\n      shr(0xe0, calldataload(0x00))\n      dup1\n      0x7c153534\n      eq\n      tag_3\n      jumpi\n      dup1\n      0x8a0ccd56\n      eq\n      tag_4\n      jumpi\n      dup1\n      0xc17b7326\n      eq\n      tag_5\n      jumpi\n      jump(tag_2)\n    tag_1:\n      jumpi(tag_2, calldatasize)\n      stop\n    tag_2:\n      stop\n        /* \"contracts/TokenSwap.sol\":115:138  IERC20 public tokenFrom */\n    tag_3:\n      callvalue\n      dup1\n      iszero\n      tag_10\n      jumpi\n      0x00\n      dup1\n      revert\n    tag_10:\n      pop\n      tag_11\n      tag_12\n      jump\t// in\n    tag_11:\n      mload(0x40)\n      tag_13\n      swap2\n      swap1\n      tag_14\n      jump\t// in\n    tag_13:\n      mload(0x40)\n      dup1\n      swap2\n      sub\n      swap1\n      return\n        /* \"contracts/TokenSwap.sol\":194:788  function swap( address _tokenFrom, uint _amountFrom, address _tokenTo, uint _amountTo) public {... */\n    tag_4:\n      callvalue\n      dup1\n      iszero\n      tag_15\n      jumpi\n      0x00\n      dup1\n      revert\n    tag_15:\n      pop\n      tag_16\n      0x04\n      dup1\n      calldatasize\n      sub\n      dup2\n      add\n      swap1\n      tag_17\n      swap2\n      swap1\n      tag_18\n      jump\t// in\n    tag_17:\n      tag_19\n      jump\t// in\n    tag_16:\n      stop\n        /* \"contracts/TokenSwap.sol\":144:165  IERC20 public tokenTo */\n    tag_5:\n      callvalue\n      dup1\n      iszero\n      tag_20\n      jumpi\n      0x00\n      dup1\n      revert\n    tag_20:\n      pop\n      tag_21\n      tag_22\n      jump\t// in\n    tag_21:\n      mload(0x40)\n      tag_23\n      swap2\n      swap1\n      tag_14\n      jump\t// in\n    tag_23:\n      mload(0x40)\n      dup1\n      swap2\n      sub\n      swap1\n      return\n        /* \"contracts/TokenSwap.sol\":115:138  IERC20 public tokenFrom */\n    tag_12:\n      0x00\n      dup1\n      sload\n      swap1\n      0x0100\n      exp\n      swap1\n      div\n      0xffffffffffffffffffffffffffffffffffffffff\n      and\n      dup2\n      jump\t// out\n        /* \"contracts/TokenSwap.sol\":194:788  function swap( address _tokenFrom, uint _amountFrom, address _tokenTo, uint _amountTo) public {... */\n    tag_19:\n        /* \"contracts/TokenSwap.sol\":307:327  address _addressSwap */\n      0x00\n        /* \"contracts/TokenSwap.sol\":330:340  msg.sender */\n      caller\n        /* \"contracts/TokenSwap.sol\":307:340  address _addressSwap = msg.sender */\n      swap1\n      pop\n        /* \"contracts/TokenSwap.sol\":369:379  _tokenFrom */\n      dup5\n        /* \"contracts/TokenSwap.sol\":350:359  tokenFrom */\n      0x00\n      dup1\n        /* \"contracts/TokenSwap.sol\":350:380  tokenFrom = IERC20(_tokenFrom) */\n      0x0100\n      exp\n      dup2\n      sload\n      dup2\n      0xffffffffffffffffffffffffffffffffffffffff\n      mul\n      not\n      and\n      swap1\n      dup4\n      0xffffffffffffffffffffffffffffffffffffffff\n      and\n      mul\n      or\n      swap1\n      sstore\n      pop\n        /* \"contracts/TokenSwap.sol\":407:415  _tokenTo */\n      dup3\n        /* \"contracts/TokenSwap.sol\":390:397  tokenTo */\n      0x01\n      0x00\n        /* \"contracts/TokenSwap.sol\":390:416  tokenTo = IERC20(_tokenTo) */\n      0x0100\n      exp\n      dup2\n      sload\n      dup2\n      0xffffffffffffffffffffffffffffffffffffffff\n      mul\n      not\n      and\n      swap1\n      dup4\n      0xffffffffffffffffffffffffffffffffffffffff\n      and\n      mul\n      or\n      swap1\n      sstore\n      pop\n        /* \"contracts/TokenSwap.sol\":488:499  _amountFrom */\n      dup4\n        /* \"contracts/TokenSwap.sol\":435:444  tokenFrom */\n      0x00\n      dup1\n      sload\n      swap1\n      0x0100\n      exp\n      swap1\n      div\n      0xffffffffffffffffffffffffffffffffffffffff\n      and\n        /* \"contracts/TokenSwap.sol\":435:454  tokenFrom.allowance */\n      0xffffffffffffffffffffffffffffffffffffffff\n      and\n      0xdd62ed3e\n        /* \"contracts/TokenSwap.sol\":455:467  _addressSwap */\n      dup4\n        /* \"contracts/TokenSwap.sol\":478:482  this */\n      address\n        /* \"contracts/TokenSwap.sol\":435:484  tokenFrom.allowance(_addressSwap, address (this)) */\n      mload(0x40)\n      dup4\n      0xffffffff\n      and\n      0xe0\n      shl\n      dup2\n      mstore\n      0x04\n      add\n      tag_25\n      swap3\n      swap2\n      swap1\n      tag_26\n      jump\t// in\n    tag_25:\n      0x20\n      mload(0x40)\n      dup1\n      dup4\n      sub\n      dup2\n      dup7\n      gas\n      staticcall\n      iszero\n      dup1\n      iszero\n      tag_28\n      jumpi\n      returndatasize\n      0x00\n      dup1\n      returndatacopy\n      revert(0x00, returndatasize)\n    tag_28:\n      pop\n      pop\n      pop\n      pop\n      mload(0x40)\n      returndatasize\n      not(0x1f)\n      0x1f\n      dup3\n      add\n      and\n      dup3\n      add\n      dup1\n      0x40\n      mstore\n      pop\n      dup2\n      add\n      swap1\n      tag_29\n      swap2\n      swap1\n      tag_30\n      jump\t// in\n    tag_29:\n        /* \"contracts/TokenSwap.sol\":435:499  tokenFrom.allowance(_addressSwap, address (this)) >= _amountFrom */\n      lt\n      iszero\n        /* \"contracts/TokenSwap.sol\":427:527  require(tokenFrom.allowance(_addressSwap, address (this)) >= _amountFrom, \"Allow tokenFrom too low\") */\n      tag_31\n      jumpi\n      mload(0x40)\n      0x08c379a000000000000000000000000000000000000000000000000000000000\n      dup2\n      mstore\n      0x04\n      add\n      tag_32\n      swap1\n      tag_33\n      jump\t// in\n    tag_32:\n      mload(0x40)\n      dup1\n      swap2\n      sub\n      swap1\n      revert\n    tag_31:\n        /* \"contracts/TokenSwap.sol\":581:590  _amountTo */\n      dup2\n        /* \"contracts/TokenSwap.sol\":545:552  tokenTo */\n      0x01\n      0x00\n      swap1\n      sload\n      swap1\n      0x0100\n      exp\n      swap1\n      div\n      0xffffffffffffffffffffffffffffffffffffffff\n      and\n        /* \"contracts/TokenSwap.sol\":545:562  tokenTo.balanceOf */\n      0xffffffffffffffffffffffffffffffffffffffff\n      and\n      0x70a08231\n        /* \"contracts/TokenSwap.sol\":571:575  this */\n      address\n        /* \"contracts/TokenSwap.sol\":545:577  tokenTo.balanceOf(address(this)) */\n      mload(0x40)\n      dup3\n      0xffffffff\n      and\n      0xe0\n      shl\n      dup2\n      mstore\n      0x04\n      add\n      tag_34\n      swap2\n      swap1\n      tag_35\n      jump\t// in\n    tag_34:\n      0x20\n      mload(0x40)\n      dup1\n      dup4\n      sub\n      dup2\n      dup7\n      gas\n      staticcall\n      iszero\n      dup1\n      iszero\n      tag_37\n      jumpi\n      returndatasize\n      0x00\n      dup1\n      returndatacopy\n      revert(0x00, returndatasize)\n    tag_37:\n      pop\n      pop\n      pop\n      pop\n      mload(0x40)\n      returndatasize\n      not(0x1f)\n      0x1f\n      dup3\n      add\n      and\n      dup3\n      add\n      dup1\n      0x40\n      mstore\n      pop\n      dup2\n      add\n      swap1\n      tag_38\n      swap2\n      swap1\n      tag_30\n      jump\t// in\n    tag_38:\n        /* \"contracts/TokenSwap.sol\":545:590  tokenTo.balanceOf(address(this)) >= _amountTo */\n      lt\n      iszero\n        /* \"contracts/TokenSwap.sol\":537:643  require(tokenTo.balanceOf(address(this)) >= _amountTo, \"Insufficient balance tokenTo to send back client\") */\n      tag_39\n      jumpi\n      mload(0x40)\n      0x08c379a000000000000000000000000000000000000000000000000000000000\n      dup2\n      mstore\n      0x04\n      add\n      tag_40\n      swap1\n      tag_41\n      jump\t// in\n    tag_40:\n      mload(0x40)\n      dup1\n      swap2\n      sub\n      swap1\n      revert\n    tag_39:\n        /* \"contracts/TokenSwap.sol\":654:724  _safeTransferFrom(tokenFrom, _addressSwap, address(this), _amountFrom) */\n      tag_42\n        /* \"contracts/TokenSwap.sol\":672:681  tokenFrom */\n      0x00\n      dup1\n      sload\n      swap1\n      0x0100\n      exp\n      swap1\n      div\n      0xffffffffffffffffffffffffffffffffffffffff\n      and\n        /* \"contracts/TokenSwap.sol\":683:695  _addressSwap */\n      dup3\n        /* \"contracts/TokenSwap.sol\":705:709  this */\n      address\n        /* \"contracts/TokenSwap.sol\":712:723  _amountFrom */\n      dup8\n        /* \"contracts/TokenSwap.sol\":654:671  _safeTransferFrom */\n      tag_43\n        /* \"contracts/TokenSwap.sol\":654:724  _safeTransferFrom(tokenFrom, _addressSwap, address(this), _amountFrom) */\n      jump\t// in\n    tag_42:\n        /* \"contracts/TokenSwap.sol\":734:781  _safeTransfer(tokenTo, _addressSwap, _amountTo) */\n      tag_44\n        /* \"contracts/TokenSwap.sol\":748:755  tokenTo */\n      0x01\n      0x00\n      swap1\n      sload\n      swap1\n      0x0100\n      exp\n      swap1\n      div\n      0xffffffffffffffffffffffffffffffffffffffff\n      and\n        /* \"contracts/TokenSwap.sol\":757:769  _addressSwap */\n      dup3\n        /* \"contracts/TokenSwap.sol\":771:780  _amountTo */\n      dup5\n        /* \"contracts/TokenSwap.sol\":734:747  _safeTransfer */\n      tag_45\n        /* \"contracts/TokenSwap.sol\":734:781  _safeTransfer(tokenTo, _addressSwap, _amountTo) */\n      jump\t// in\n    tag_44:\n        /* \"contracts/TokenSwap.sol\":288:788  {... */\n      pop\n        /* \"contracts/TokenSwap.sol\":194:788  function swap( address _tokenFrom, uint _amountFrom, address _tokenTo, uint _amountTo) public {... */\n      pop\n      pop\n      pop\n      pop\n      jump\t// out\n        /* \"contracts/TokenSwap.sol\":144:165  IERC20 public tokenTo */\n    tag_22:\n      0x01\n      0x00\n      swap1\n      sload\n      swap1\n      0x0100\n      exp\n      swap1\n      div\n      0xffffffffffffffffffffffffffffffffffffffff\n      and\n      dup2\n      jump\t// out\n        /* \"contracts/TokenSwap.sol\":794:1051  function _safeTransferFrom(... */\n    tag_43:\n        /* \"contracts/TokenSwap.sol\":939:948  bool sent */\n      0x00\n        /* \"contracts/TokenSwap.sol\":951:956  token */\n      dup5\n        /* \"contracts/TokenSwap.sol\":951:969  token.transferFrom */\n      0xffffffffffffffffffffffffffffffffffffffff\n      and\n      0x23b872dd\n        /* \"contracts/TokenSwap.sol\":970:976  sender */\n      dup6\n        /* \"contracts/TokenSwap.sol\":978:987  recipient */\n      dup6\n        /* \"contracts/TokenSwap.sol\":989:995  amount */\n      dup6\n        /* \"contracts/TokenSwap.sol\":951:996  token.transferFrom(sender, recipient, amount) */\n      mload(0x40)\n      dup5\n      0xffffffff\n      and\n      0xe0\n      shl\n      dup2\n      mstore\n      0x04\n      add\n      tag_47\n      swap4\n      swap3\n      swap2\n      swap1\n      tag_48\n      jump\t// in\n    tag_47:\n      0x20\n      mload(0x40)\n      dup1\n      dup4\n      sub\n      dup2\n      0x00\n      dup8\n      gas\n      call\n      iszero\n      dup1\n      iszero\n      tag_50\n      jumpi\n      returndatasize\n      0x00\n      dup1\n      returndatacopy\n      revert(0x00, returndatasize)\n    tag_50:\n      pop\n      pop\n      pop\n      pop\n      mload(0x40)\n      returndatasize\n      not(0x1f)\n      0x1f\n      dup3\n      add\n      and\n      dup3\n      add\n      dup1\n      0x40\n      mstore\n      pop\n      dup2\n      add\n      swap1\n      tag_51\n      swap2\n      swap1\n      tag_52\n      jump\t// in\n    tag_51:\n        /* \"contracts/TokenSwap.sol\":939:996  bool sent = token.transferFrom(sender, recipient, amount) */\n      swap1\n      pop\n        /* \"contracts/TokenSwap.sol\":1014:1018  sent */\n      dup1\n        /* \"contracts/TokenSwap.sol\":1006:1044  require(sent, \"Token transfer failed\") */\n      tag_53\n      jumpi\n      mload(0x40)\n      0x08c379a000000000000000000000000000000000000000000000000000000000\n      dup2\n      mstore\n      0x04\n      add\n      tag_54\n      swap1\n      tag_55\n      jump\t// in\n    tag_54:\n      mload(0x40)\n      dup1\n      swap2\n      sub\n      swap1\n      revert\n    tag_53:\n        /* \"contracts/TokenSwap.sol\":929:1051  {... */\n      pop\n        /* \"contracts/TokenSwap.sol\":794:1051  function _safeTransferFrom(... */\n      pop\n      pop\n      pop\n      pop\n      jump\t// out\n        /* \"contracts/TokenSwap.sol\":1057:1274  function _safeTransfer(... */\n    tag_45:\n        /* \"contracts/TokenSwap.sol\":1174:1183  bool sent */\n      0x00\n        /* \"contracts/TokenSwap.sol\":1186:1191  token */\n      dup4\n        /* \"contracts/TokenSwap.sol\":1186:1200  token.transfer */\n      0xffffffffffffffffffffffffffffffffffffffff\n      and\n      0xa9059cbb\n        /* \"contracts/TokenSwap.sol\":1201:1210  recipient */\n      dup5\n        /* \"contracts/TokenSwap.sol\":1212:1218  amount */\n      dup5\n        /* \"contracts/TokenSwap.sol\":1186:1219  token.transfer(recipient, amount) */\n      mload(0x40)\n      dup4\n      0xffffffff\n      and\n      0xe0\n      shl\n      dup2\n      mstore\n      0x04\n      add\n      tag_57\n      swap3\n      swap2\n      swap1\n      tag_58\n      jump\t// in\n    tag_57:\n      0x20\n      mload(0x40)\n      dup1\n      dup4\n      sub\n      dup2\n      0x00\n      dup8\n      gas\n      call\n      iszero\n      dup1\n      iszero\n      tag_60\n      jumpi\n      returndatasize\n      0x00\n      dup1\n      returndatacopy\n      revert(0x00, returndatasize)\n    tag_60:\n      pop\n      pop\n      pop\n      pop\n      mload(0x40)\n      returndatasize\n      not(0x1f)\n      0x1f\n      dup3\n      add\n      and\n      dup3\n      add\n      dup1\n      0x40\n      mstore\n      pop\n      dup2\n      add\n      swap1\n      tag_61\n      swap2\n      swap1\n      tag_52\n      jump\t// in\n    tag_61:\n        /* \"contracts/TokenSwap.sol\":1174:1219  bool sent = token.transfer(recipient, amount) */\n      swap1\n      pop\n        /* \"contracts/TokenSwap.sol\":1237:1241  sent */\n      dup1\n        /* \"contracts/TokenSwap.sol\":1229:1267  require(sent, \"Token transfer failed\") */\n      tag_62\n      jumpi\n      mload(0x40)\n      0x08c379a000000000000000000000000000000000000000000000000000000000\n      dup2\n      mstore\n      0x04\n      add\n      tag_63\n      swap1\n      tag_55\n      jump\t// in\n    tag_63:\n      mload(0x40)\n      dup1\n      swap2\n      sub\n      swap1\n      revert\n    tag_62:\n        /* \"contracts/TokenSwap.sol\":1164:1274  {... */\n      pop\n        /* \"contracts/TokenSwap.sol\":1057:1274  function _safeTransfer(... */\n      pop\n      pop\n      pop\n      jump\t// out\n        /* \"#utility.yul\":7:133   */\n    tag_64:\n        /* \"#utility.yul\":44:51   */\n      0x00\n        /* \"#utility.yul\":84:126   */\n      0xffffffffffffffffffffffffffffffffffffffff\n        /* \"#utility.yul\":77:82   */\n      dup3\n        /* \"#utility.yul\":73:127   */\n      and\n        /* \"#utility.yul\":62:127   */\n      swap1\n      pop\n        /* \"#utility.yul\":7:133   */\n      swap2\n      swap1\n      pop\n      jump\t// out\n        /* \"#utility.yul\":139:199   */\n    tag_65:\n        /* \"#utility.yul\":167:170   */\n      0x00\n        /* \"#utility.yul\":188:193   */\n      dup2\n        /* \"#utility.yul\":181:193   */\n      swap1\n      pop\n        /* \"#utility.yul\":139:199   */\n      swap2\n      swap1\n      pop\n      jump\t// out\n        /* \"#utility.yul\":205:347   */\n    tag_66:\n        /* \"#utility.yul\":255:264   */\n      0x00\n        /* \"#utility.yul\":288:341   */\n      tag_96\n        /* \"#utility.yul\":306:340   */\n      tag_97\n        /* \"#utility.yul\":315:339   */\n      tag_98\n        /* \"#utility.yul\":333:338   */\n      dup5\n        /* \"#utility.yul\":315:339   */\n      tag_64\n      jump\t// in\n    tag_98:\n        /* \"#utility.yul\":306:340   */\n      tag_65\n      jump\t// in\n    tag_97:\n        /* \"#utility.yul\":288:341   */\n      tag_64\n      jump\t// in\n    tag_96:\n        /* \"#utility.yul\":275:341   */\n      swap1\n      pop\n        /* \"#utility.yul\":205:347   */\n      swap2\n      swap1\n      pop\n      jump\t// out\n        /* \"#utility.yul\":353:479   */\n    tag_67:\n        /* \"#utility.yul\":403:412   */\n      0x00\n        /* \"#utility.yul\":436:473   */\n      tag_100\n        /* \"#utility.yul\":467:472   */\n      dup3\n        /* \"#utility.yul\":436:473   */\n      tag_66\n      jump\t// in\n    tag_100:\n        /* \"#utility.yul\":423:473   */\n      swap1\n      pop\n        /* \"#utility.yul\":353:479   */\n      swap2\n      swap1\n      pop\n      jump\t// out\n        /* \"#utility.yul\":485:624   */\n    tag_68:\n        /* \"#utility.yul\":548:557   */\n      0x00\n        /* \"#utility.yul\":581:618   */\n      tag_102\n        /* \"#utility.yul\":612:617   */\n      dup3\n        /* \"#utility.yul\":581:618   */\n      tag_67\n      jump\t// in\n    tag_102:\n        /* \"#utility.yul\":568:618   */\n      swap1\n      pop\n        /* \"#utility.yul\":485:624   */\n      swap2\n      swap1\n      pop\n      jump\t// out\n        /* \"#utility.yul\":630:787   */\n    tag_69:\n        /* \"#utility.yul\":730:780   */\n      tag_104\n        /* \"#utility.yul\":774:779   */\n      dup2\n        /* \"#utility.yul\":730:780   */\n      tag_68\n      jump\t// in\n    tag_104:\n        /* \"#utility.yul\":725:728   */\n      dup3\n        /* \"#utility.yul\":718:781   */\n      mstore\n        /* \"#utility.yul\":630:787   */\n      pop\n      pop\n      jump\t// out\n        /* \"#utility.yul\":793:1041   */\n    tag_14:\n        /* \"#utility.yul\":899:903   */\n      0x00\n        /* \"#utility.yul\":937:939   */\n      0x20\n        /* \"#utility.yul\":926:935   */\n      dup3\n        /* \"#utility.yul\":922:940   */\n      add\n        /* \"#utility.yul\":914:940   */\n      swap1\n      pop\n        /* \"#utility.yul\":950:1034   */\n      tag_106\n        /* \"#utility.yul\":1031:1032   */\n      0x00\n        /* \"#utility.yul\":1020:1029   */\n      dup4\n        /* \"#utility.yul\":1016:1033   */\n      add\n        /* \"#utility.yul\":1007:1013   */\n      dup5\n        /* \"#utility.yul\":950:1034   */\n      tag_69\n      jump\t// in\n    tag_106:\n        /* \"#utility.yul\":793:1041   */\n      swap3\n      swap2\n      pop\n      pop\n      jump\t// out\n        /* \"#utility.yul\":1128:1245   */\n    tag_71:\n        /* \"#utility.yul\":1237:1238   */\n      0x00\n        /* \"#utility.yul\":1234:1235   */\n      dup1\n        /* \"#utility.yul\":1227:1239   */\n      revert\n        /* \"#utility.yul\":1374:1470   */\n    tag_73:\n        /* \"#utility.yul\":1411:1418   */\n      0x00\n        /* \"#utility.yul\":1440:1464   */\n      tag_111\n        /* \"#utility.yul\":1458:1463   */\n      dup3\n        /* \"#utility.yul\":1440:1464   */\n      tag_64\n      jump\t// in\n    tag_111:\n        /* \"#utility.yul\":1429:1464   */\n      swap1\n      pop\n        /* \"#utility.yul\":1374:1470   */\n      swap2\n      swap1\n      pop\n      jump\t// out\n        /* \"#utility.yul\":1476:1598   */\n    tag_74:\n        /* \"#utility.yul\":1549:1573   */\n      tag_113\n        /* \"#utility.yul\":1567:1572   */\n      dup2\n        /* \"#utility.yul\":1549:1573   */\n      tag_73\n      jump\t// in\n    tag_113:\n        /* \"#utility.yul\":1542:1547   */\n      dup2\n        /* \"#utility.yul\":1539:1574   */\n      eq\n        /* \"#utility.yul\":1529:1592   */\n      tag_114\n      jumpi\n        /* \"#utility.yul\":1588:1589   */\n      0x00\n        /* \"#utility.yul\":1585:1586   */\n      dup1\n        /* \"#utility.yul\":1578:1590   */\n      revert\n        /* \"#utility.yul\":1529:1592   */\n    tag_114:\n        /* \"#utility.yul\":1476:1598   */\n      pop\n      jump\t// out\n        /* \"#utility.yul\":1604:1743   */\n    tag_75:\n        /* \"#utility.yul\":1650:1655   */\n      0x00\n        /* \"#utility.yul\":1688:1694   */\n      dup2\n        /* \"#utility.yul\":1675:1695   */\n      calldataload\n        /* \"#utility.yul\":1666:1695   */\n      swap1\n      pop\n        /* \"#utility.yul\":1704:1737   */\n      tag_116\n        /* \"#utility.yul\":1731:1736   */\n      dup2\n        /* \"#utility.yul\":1704:1737   */\n      tag_74\n      jump\t// in\n    tag_116:\n        /* \"#utility.yul\":1604:1743   */\n      swap3\n      swap2\n      pop\n      pop\n      jump\t// out\n        /* \"#utility.yul\":1749:1826   */\n    tag_76:\n        /* \"#utility.yul\":1786:1793   */\n      0x00\n        /* \"#utility.yul\":1815:1820   */\n      dup2\n        /* \"#utility.yul\":1804:1820   */\n      swap1\n      pop\n        /* \"#utility.yul\":1749:1826   */\n      swap2\n      swap1\n      pop\n      jump\t// out\n        /* \"#utility.yul\":1832:1954   */\n    tag_77:\n        /* \"#utility.yul\":1905:1929   */\n      tag_119\n        /* \"#utility.yul\":1923:1928   */\n      dup2\n        /* \"#utility.yul\":1905:1929   */\n      tag_76\n      jump\t// in\n    tag_119:\n        /* \"#utility.yul\":1898:1903   */\n      dup2\n        /* \"#utility.yul\":1895:1930   */\n      eq\n        /* \"#utility.yul\":1885:1948   */\n      tag_120\n      jumpi\n        /* \"#utility.yul\":1944:1945   */\n      0x00\n        /* \"#utility.yul\":1941:1942   */\n      dup1\n        /* \"#utility.yul\":1934:1946   */\n      revert\n        /* \"#utility.yul\":1885:1948   */\n    tag_120:\n        /* \"#utility.yul\":1832:1954   */\n      pop\n      jump\t// out\n        /* \"#utility.yul\":1960:2099   */\n    tag_78:\n        /* \"#utility.yul\":2006:2011   */\n      0x00\n        /* \"#utility.yul\":2044:2050   */\n      dup2\n        /* \"#utility.yul\":2031:2051   */\n      calldataload\n        /* \"#utility.yul\":2022:2051   */\n      swap1\n      pop\n        /* \"#utility.yul\":2060:2093   */\n      tag_122\n        /* \"#utility.yul\":2087:2092   */\n      dup2\n        /* \"#utility.yul\":2060:2093   */\n      tag_77\n      jump\t// in\n    tag_122:\n        /* \"#utility.yul\":1960:2099   */\n      swap3\n      swap2\n      pop\n      pop\n      jump\t// out\n        /* \"#utility.yul\":2105:2870   */\n    tag_18:\n        /* \"#utility.yul\":2191:2197   */\n      0x00\n        /* \"#utility.yul\":2199:2205   */\n      dup1\n        /* \"#utility.yul\":2207:2213   */\n      0x00\n        /* \"#utility.yul\":2215:2221   */\n      dup1\n        /* \"#utility.yul\":2264:2267   */\n      0x80\n        /* \"#utility.yul\":2252:2261   */\n      dup6\n        /* \"#utility.yul\":2243:2250   */\n      dup8\n        /* \"#utility.yul\":2239:2262   */\n      sub\n        /* \"#utility.yul\":2235:2268   */\n      slt\n        /* \"#utility.yul\":2232:2352   */\n      iszero\n      tag_124\n      jumpi\n        /* \"#utility.yul\":2271:2350   */\n      tag_125\n      tag_71\n      jump\t// in\n    tag_125:\n        /* \"#utility.yul\":2232:2352   */\n    tag_124:\n        /* \"#utility.yul\":2391:2392   */\n      0x00\n        /* \"#utility.yul\":2416:2469   */\n      tag_126\n        /* \"#utility.yul\":2461:2468   */\n      dup8\n        /* \"#utility.yul\":2452:2458   */\n      dup3\n        /* \"#utility.yul\":2441:2450   */\n      dup9\n        /* \"#utility.yul\":2437:2459   */\n      add\n        /* \"#utility.yul\":2416:2469   */\n      tag_75\n      jump\t// in\n    tag_126:\n        /* \"#utility.yul\":2406:2469   */\n      swap5\n      pop\n        /* \"#utility.yul\":2362:2479   */\n      pop\n        /* \"#utility.yul\":2518:2520   */\n      0x20\n        /* \"#utility.yul\":2544:2597   */\n      tag_127\n        /* \"#utility.yul\":2589:2596   */\n      dup8\n        /* \"#utility.yul\":2580:2586   */\n      dup3\n        /* \"#utility.yul\":2569:2578   */\n      dup9\n        /* \"#utility.yul\":2565:2587   */\n      add\n        /* \"#utility.yul\":2544:2597   */\n      tag_78\n      jump\t// in\n    tag_127:\n        /* \"#utility.yul\":2534:2597   */\n      swap4\n      pop\n        /* \"#utility.yul\":2489:2607   */\n      pop\n        /* \"#utility.yul\":2646:2648   */\n      0x40\n        /* \"#utility.yul\":2672:2725   */\n      tag_128\n        /* \"#utility.yul\":2717:2724   */\n      dup8\n        /* \"#utility.yul\":2708:2714   */\n      dup3\n        /* \"#utility.yul\":2697:2706   */\n      dup9\n        /* \"#utility.yul\":2693:2715   */\n      add\n        /* \"#utility.yul\":2672:2725   */\n      tag_75\n      jump\t// in\n    tag_128:\n        /* \"#utility.yul\":2662:2725   */\n      swap3\n      pop\n        /* \"#utility.yul\":2617:2735   */\n      pop\n        /* \"#utility.yul\":2774:2776   */\n      0x60\n        /* \"#utility.yul\":2800:2853   */\n      tag_129\n        /* \"#utility.yul\":2845:2852   */\n      dup8\n        /* \"#utility.yul\":2836:2842   */\n      dup3\n        /* \"#utility.yul\":2825:2834   */\n      dup9\n        /* \"#utility.yul\":2821:2843   */\n      add\n        /* \"#utility.yul\":2800:2853   */\n      tag_78\n      jump\t// in\n    tag_129:\n        /* \"#utility.yul\":2790:2853   */\n      swap2\n      pop\n        /* \"#utility.yul\":2745:2863   */\n      pop\n        /* \"#utility.yul\":2105:2870   */\n      swap3\n      swap6\n      swap2\n      swap5\n      pop\n      swap3\n      pop\n      jump\t// out\n        /* \"#utility.yul\":2876:2994   */\n    tag_79:\n        /* \"#utility.yul\":2963:2987   */\n      tag_131\n        /* \"#utility.yul\":2981:2986   */\n      dup2\n        /* \"#utility.yul\":2963:2987   */\n      tag_73\n      jump\t// in\n    tag_131:\n        /* \"#utility.yul\":2958:2961   */\n      dup3\n        /* \"#utility.yul\":2951:2988   */\n      mstore\n        /* \"#utility.yul\":2876:2994   */\n      pop\n      pop\n      jump\t// out\n        /* \"#utility.yul\":3000:3332   */\n    tag_26:\n        /* \"#utility.yul\":3121:3125   */\n      0x00\n        /* \"#utility.yul\":3159:3161   */\n      0x40\n        /* \"#utility.yul\":3148:3157   */\n      dup3\n        /* \"#utility.yul\":3144:3162   */\n      add\n        /* \"#utility.yul\":3136:3162   */\n      swap1\n      pop\n        /* \"#utility.yul\":3172:3243   */\n      tag_133\n        /* \"#utility.yul\":3240:3241   */\n      0x00\n        /* \"#utility.yul\":3229:3238   */\n      dup4\n        /* \"#utility.yul\":3225:3242   */\n      add\n        /* \"#utility.yul\":3216:3222   */\n      dup6\n        /* \"#utility.yul\":3172:3243   */\n      tag_79\n      jump\t// in\n    tag_133:\n        /* \"#utility.yul\":3253:3325   */\n      tag_134\n        /* \"#utility.yul\":3321:3323   */\n      0x20\n        /* \"#utility.yul\":3310:3319   */\n      dup4\n        /* \"#utility.yul\":3306:3324   */\n      add\n        /* \"#utility.yul\":3297:3303   */\n      dup5\n        /* \"#utility.yul\":3253:3325   */\n      tag_79\n      jump\t// in\n    tag_134:\n        /* \"#utility.yul\":3000:3332   */\n      swap4\n      swap3\n      pop\n      pop\n      pop\n      jump\t// out\n        /* \"#utility.yul\":3338:3481   */\n    tag_80:\n        /* \"#utility.yul\":3395:3400   */\n      0x00\n        /* \"#utility.yul\":3426:3432   */\n      dup2\n        /* \"#utility.yul\":3420:3433   */\n      mload\n        /* \"#utility.yul\":3411:3433   */\n      swap1\n      pop\n        /* \"#utility.yul\":3442:3475   */\n      tag_136\n        /* \"#utility.yul\":3469:3474   */\n      dup2\n        /* \"#utility.yul\":3442:3475   */\n      tag_77\n      jump\t// in\n    tag_136:\n        /* \"#utility.yul\":3338:3481   */\n      swap3\n      swap2\n      pop\n      pop\n      jump\t// out\n        /* \"#utility.yul\":3487:3838   */\n    tag_30:\n        /* \"#utility.yul\":3557:3563   */\n      0x00\n        /* \"#utility.yul\":3606:3608   */\n      0x20\n        /* \"#utility.yul\":3594:3603   */\n      dup3\n        /* \"#utility.yul\":3585:3592   */\n      dup5\n        /* \"#utility.yul\":3581:3604   */\n      sub\n        /* \"#utility.yul\":3577:3609   */\n      slt\n        /* \"#utility.yul\":3574:3693   */\n      iszero\n      tag_138\n      jumpi\n        /* \"#utility.yul\":3612:3691   */\n      tag_139\n      tag_71\n      jump\t// in\n    tag_139:\n        /* \"#utility.yul\":3574:3693   */\n    tag_138:\n        /* \"#utility.yul\":3732:3733   */\n      0x00\n        /* \"#utility.yul\":3757:3821   */\n      tag_140\n        /* \"#utility.yul\":3813:3820   */\n      dup5\n        /* \"#utility.yul\":3804:3810   */\n      dup3\n        /* \"#utility.yul\":3793:3802   */\n      dup6\n        /* \"#utility.yul\":3789:3811   */\n      add\n        /* \"#utility.yul\":3757:3821   */\n      tag_80\n      jump\t// in\n    tag_140:\n        /* \"#utility.yul\":3747:3821   */\n      swap2\n      pop\n        /* \"#utility.yul\":3703:3831   */\n      pop\n        /* \"#utility.yul\":3487:3838   */\n      swap3\n      swap2\n      pop\n      pop\n      jump\t// out\n        /* \"#utility.yul\":3844:4013   */\n    tag_81:\n        /* \"#utility.yul\":3928:3939   */\n      0x00\n        /* \"#utility.yul\":3962:3968   */\n      dup3\n        /* \"#utility.yul\":3957:3960   */\n      dup3\n        /* \"#utility.yul\":3950:3969   */\n      mstore\n        /* \"#utility.yul\":4002:4006   */\n      0x20\n        /* \"#utility.yul\":3997:4000   */\n      dup3\n        /* \"#utility.yul\":3993:4007   */\n      add\n        /* \"#utility.yul\":3978:4007   */\n      swap1\n      pop\n        /* \"#utility.yul\":3844:4013   */\n      swap3\n      swap2\n      pop\n      pop\n      jump\t// out\n        /* \"#utility.yul\":4019:4192   */\n    tag_82:\n        /* \"#utility.yul\":4159:4184   */\n      0x416c6c6f7720746f6b656e46726f6d20746f6f206c6f77000000000000000000\n        /* \"#utility.yul\":4155:4156   */\n      0x00\n        /* \"#utility.yul\":4147:4153   */\n      dup3\n        /* \"#utility.yul\":4143:4157   */\n      add\n        /* \"#utility.yul\":4136:4185   */\n      mstore\n        /* \"#utility.yul\":4019:4192   */\n      pop\n      jump\t// out\n        /* \"#utility.yul\":4198:4564   */\n    tag_83:\n        /* \"#utility.yul\":4340:4343   */\n      0x00\n        /* \"#utility.yul\":4361:4428   */\n      tag_144\n        /* \"#utility.yul\":4425:4427   */\n      0x17\n        /* \"#utility.yul\":4420:4423   */\n      dup4\n        /* \"#utility.yul\":4361:4428   */\n      tag_81\n      jump\t// in\n    tag_144:\n        /* \"#utility.yul\":4354:4428   */\n      swap2\n      pop\n        /* \"#utility.yul\":4437:4530   */\n      tag_145\n        /* \"#utility.yul\":4526:4529   */\n      dup3\n        /* \"#utility.yul\":4437:4530   */\n      tag_82\n      jump\t// in\n    tag_145:\n        /* \"#utility.yul\":4555:4557   */\n      0x20\n        /* \"#utility.yul\":4550:4553   */\n      dup3\n        /* \"#utility.yul\":4546:4558   */\n      add\n        /* \"#utility.yul\":4539:4558   */\n      swap1\n      pop\n        /* \"#utility.yul\":4198:4564   */\n      swap2\n      swap1\n      pop\n      jump\t// out\n        /* \"#utility.yul\":4570:4989   */\n    tag_33:\n        /* \"#utility.yul\":4736:4740   */\n      0x00\n        /* \"#utility.yul\":4774:4776   */\n      0x20\n        /* \"#utility.yul\":4763:4772   */\n      dup3\n        /* \"#utility.yul\":4759:4777   */\n      add\n        /* \"#utility.yul\":4751:4777   */\n      swap1\n      pop\n        /* \"#utility.yul\":4823:4832   */\n      dup2\n        /* \"#utility.yul\":4817:4821   */\n      dup2\n        /* \"#utility.yul\":4813:4833   */\n      sub\n        /* \"#utility.yul\":4809:4810   */\n      0x00\n        /* \"#utility.yul\":4798:4807   */\n      dup4\n        /* \"#utility.yul\":4794:4811   */\n      add\n        /* \"#utility.yul\":4787:4834   */\n      mstore\n        /* \"#utility.yul\":4851:4982   */\n      tag_147\n        /* \"#utility.yul\":4977:4981   */\n      dup2\n        /* \"#utility.yul\":4851:4982   */\n      tag_83\n      jump\t// in\n    tag_147:\n        /* \"#utility.yul\":4843:4982   */\n      swap1\n      pop\n        /* \"#utility.yul\":4570:4989   */\n      swap2\n      swap1\n      pop\n      jump\t// out\n        /* \"#utility.yul\":4995:5217   */\n    tag_35:\n        /* \"#utility.yul\":5088:5092   */\n      0x00\n        /* \"#utility.yul\":5126:5128   */\n      0x20\n        /* \"#utility.yul\":5115:5124   */\n      dup3\n        /* \"#utility.yul\":5111:5129   */\n      add\n        /* \"#utility.yul\":5103:5129   */\n      swap1\n      pop\n        /* \"#utility.yul\":5139:5210   */\n      tag_149\n        /* \"#utility.yul\":5207:5208   */\n      0x00\n        /* \"#utility.yul\":5196:5205   */\n      dup4\n        /* \"#utility.yul\":5192:5209   */\n      add\n        /* \"#utility.yul\":5183:5189   */\n      dup5\n        /* \"#utility.yul\":5139:5210   */\n      tag_79\n      jump\t// in\n    tag_149:\n        /* \"#utility.yul\":4995:5217   */\n      swap3\n      swap2\n      pop\n      pop\n      jump\t// out\n        /* \"#utility.yul\":5223:5458   */\n    tag_84:\n        /* \"#utility.yul\":5363:5397   */\n      0x496e73756666696369656e742062616c616e636520746f6b656e546f20746f20\n        /* \"#utility.yul\":5359:5360   */\n      0x00\n        /* \"#utility.yul\":5351:5357   */\n      dup3\n        /* \"#utility.yul\":5347:5361   */\n      add\n        /* \"#utility.yul\":5340:5398   */\n      mstore\n        /* \"#utility.yul\":5432:5450   */\n      0x73656e64206261636b20636c69656e7400000000000000000000000000000000\n        /* \"#utility.yul\":5427:5429   */\n      0x20\n        /* \"#utility.yul\":5419:5425   */\n      dup3\n        /* \"#utility.yul\":5415:5430   */\n      add\n        /* \"#utility.yul\":5408:5451   */\n      mstore\n        /* \"#utility.yul\":5223:5458   */\n      pop\n      jump\t// out\n        /* \"#utility.yul\":5464:5830   */\n    tag_85:\n        /* \"#utility.yul\":5606:5609   */\n      0x00\n        /* \"#utility.yul\":5627:5694   */\n      tag_152\n        /* \"#utility.yul\":5691:5693   */\n      0x30\n        /* \"#utility.yul\":5686:5689   */\n      dup4\n        /* \"#utility.yul\":5627:5694   */\n      tag_81\n      jump\t// in\n    tag_152:\n        /* \"#utility.yul\":5620:5694   */\n      swap2\n      pop\n        /* \"#utility.yul\":5703:5796   */\n      tag_153\n        /* \"#utility.yul\":5792:5795   */\n      dup3\n        /* \"#utility.yul\":5703:5796   */\n      tag_84\n      jump\t// in\n    tag_153:\n        /* \"#utility.yul\":5821:5823   */\n      0x40\n        /* \"#utility.yul\":5816:5819   */\n      dup3\n        /* \"#utility.yul\":5812:5824   */\n      add\n        /* \"#utility.yul\":5805:5824   */\n      swap1\n      pop\n        /* \"#utility.yul\":5464:5830   */\n      swap2\n      swap1\n      pop\n      jump\t// out\n        /* \"#utility.yul\":5836:6255   */\n    tag_41:\n        /* \"#utility.yul\":6002:6006   */\n      0x00\n        /* \"#utility.yul\":6040:6042   */\n      0x20\n        /* \"#utility.yul\":6029:6038   */\n      dup3\n        /* \"#utility.yul\":6025:6043   */\n      add\n        /* \"#utility.yul\":6017:6043   */\n      swap1\n      pop\n        /* \"#utility.yul\":6089:6098   */\n      dup2\n        /* \"#utility.yul\":6083:6087   */\n      dup2\n        /* \"#utility.yul\":6079:6099   */\n      sub\n        /* \"#utility.yul\":6075:6076   */\n      0x00\n        /* \"#utility.yul\":6064:6073   */\n      dup4\n        /* \"#utility.yul\":6060:6077   */\n      add\n        /* \"#utility.yul\":6053:6100   */\n      mstore\n        /* \"#utility.yul\":6117:6248   */\n      tag_155\n        /* \"#utility.yul\":6243:6247   */\n      dup2\n        /* \"#utility.yul\":6117:6248   */\n      tag_85\n      jump\t// in\n    tag_155:\n        /* \"#utility.yul\":6109:6248   */\n      swap1\n      pop\n        /* \"#utility.yul\":5836:6255   */\n      swap2\n      swap1\n      pop\n      jump\t// out\n        /* \"#utility.yul\":6261:6379   */\n    tag_86:\n        /* \"#utility.yul\":6348:6372   */\n      tag_157\n        /* \"#utility.yul\":6366:6371   */\n      dup2\n        /* \"#utility.yul\":6348:6372   */\n      tag_76\n      jump\t// in\n    tag_157:\n        /* \"#utility.yul\":6343:6346   */\n      dup3\n        /* \"#utility.yul\":6336:6373   */\n      mstore\n        /* \"#utility.yul\":6261:6379   */\n      pop\n      pop\n      jump\t// out\n        /* \"#utility.yul\":6385:6827   */\n    tag_48:\n        /* \"#utility.yul\":6534:6538   */\n      0x00\n        /* \"#utility.yul\":6572:6574   */\n      0x60\n        /* \"#utility.yul\":6561:6570   */\n      dup3\n        /* \"#utility.yul\":6557:6575   */\n      add\n        /* \"#utility.yul\":6549:6575   */\n      swap1\n      pop\n        /* \"#utility.yul\":6585:6656   */\n      tag_159\n        /* \"#utility.yul\":6653:6654   */\n      0x00\n        /* \"#utility.yul\":6642:6651   */\n      dup4\n        /* \"#utility.yul\":6638:6655   */\n      add\n        /* \"#utility.yul\":6629:6635   */\n      dup7\n        /* \"#utility.yul\":6585:6656   */\n      tag_79\n      jump\t// in\n    tag_159:\n        /* \"#utility.yul\":6666:6738   */\n      tag_160\n        /* \"#utility.yul\":6734:6736   */\n      0x20\n        /* \"#utility.yul\":6723:6732   */\n      dup4\n        /* \"#utility.yul\":6719:6737   */\n      add\n        /* \"#utility.yul\":6710:6716   */\n      dup6\n        /* \"#utility.yul\":6666:6738   */\n      tag_79\n      jump\t// in\n    tag_160:\n        /* \"#utility.yul\":6748:6820   */\n      tag_161\n        /* \"#utility.yul\":6816:6818   */\n      0x40\n        /* \"#utility.yul\":6805:6814   */\n      dup4\n        /* \"#utility.yul\":6801:6819   */\n      add\n        /* \"#utility.yul\":6792:6798   */\n      dup5\n        /* \"#utility.yul\":6748:6820   */\n      tag_86\n      jump\t// in\n    tag_161:\n        /* \"#utility.yul\":6385:6827   */\n      swap5\n      swap4\n      pop\n      pop\n      pop\n      pop\n      jump\t// out\n        /* \"#utility.yul\":6833:6923   */\n    tag_87:\n        /* \"#utility.yul\":6867:6874   */\n      0x00\n        /* \"#utility.yul\":6910:6915   */\n      dup2\n        /* \"#utility.yul\":6903:6916   */\n      iszero\n        /* \"#utility.yul\":6896:6917   */\n      iszero\n        /* \"#utility.yul\":6885:6917   */\n      swap1\n      pop\n        /* \"#utility.yul\":6833:6923   */\n      swap2\n      swap1\n      pop\n      jump\t// out\n        /* \"#utility.yul\":6929:7045   */\n    tag_88:\n        /* \"#utility.yul\":6999:7020   */\n      tag_164\n        /* \"#utility.yul\":7014:7019   */\n      dup2\n        /* \"#utility.yul\":6999:7020   */\n      tag_87\n      jump\t// in\n    tag_164:\n        /* \"#utility.yul\":6992:6997   */\n      dup2\n        /* \"#utility.yul\":6989:7021   */\n      eq\n        /* \"#utility.yul\":6979:7039   */\n      tag_165\n      jumpi\n        /* \"#utility.yul\":7035:7036   */\n      0x00\n        /* \"#utility.yul\":7032:7033   */\n      dup1\n        /* \"#utility.yul\":7025:7037   */\n      revert\n        /* \"#utility.yul\":6979:7039   */\n    tag_165:\n        /* \"#utility.yul\":6929:7045   */\n      pop\n      jump\t// out\n        /* \"#utility.yul\":7051:7188   */\n    tag_89:\n        /* \"#utility.yul\":7105:7110   */\n      0x00\n        /* \"#utility.yul\":7136:7142   */\n      dup2\n        /* \"#utility.yul\":7130:7143   */\n      mload\n        /* \"#utility.yul\":7121:7143   */\n      swap1\n      pop\n        /* \"#utility.yul\":7152:7182   */\n      tag_167\n        /* \"#utility.yul\":7176:7181   */\n      dup2\n        /* \"#utility.yul\":7152:7182   */\n      tag_88\n      jump\t// in\n    tag_167:\n        /* \"#utility.yul\":7051:7188   */\n      swap3\n      swap2\n      pop\n      pop\n      jump\t// out\n        /* \"#utility.yul\":7194:7539   */\n    tag_52:\n        /* \"#utility.yul\":7261:7267   */\n      0x00\n        /* \"#utility.yul\":7310:7312   */\n      0x20\n        /* \"#utility.yul\":7298:7307   */\n      dup3\n        /* \"#utility.yul\":7289:7296   */\n      dup5\n        /* \"#utility.yul\":7285:7308   */\n      sub\n        /* \"#utility.yul\":7281:7313   */\n      slt\n        /* \"#utility.yul\":7278:7397   */\n      iszero\n      tag_169\n      jumpi\n        /* \"#utility.yul\":7316:7395   */\n      tag_170\n      tag_71\n      jump\t// in\n    tag_170:\n        /* \"#utility.yul\":7278:7397   */\n    tag_169:\n        /* \"#utility.yul\":7436:7437   */\n      0x00\n        /* \"#utility.yul\":7461:7522   */\n      tag_171\n        /* \"#utility.yul\":7514:7521   */\n      dup5\n        /* \"#utility.yul\":7505:7511   */\n      dup3\n        /* \"#utility.yul\":7494:7503   */\n      dup6\n        /* \"#utility.yul\":7490:7512   */\n      add\n        /* \"#utility.yul\":7461:7522   */\n      tag_89\n      jump\t// in\n    tag_171:\n        /* \"#utility.yul\":7451:7522   */\n      swap2\n      pop\n        /* \"#utility.yul\":7407:7532   */\n      pop\n        /* \"#utility.yul\":7194:7539   */\n      swap3\n      swap2\n      pop\n      pop\n      jump\t// out\n        /* \"#utility.yul\":7545:7716   */\n    tag_90:\n        /* \"#utility.yul\":7685:7708   */\n      0x546f6b656e207472616e73666572206661696c65640000000000000000000000\n        /* \"#utility.yul\":7681:7682   */\n      0x00\n        /* \"#utility.yul\":7673:7679   */\n      dup3\n        /* \"#utility.yul\":7669:7683   */\n      add\n        /* \"#utility.yul\":7662:7709   */\n      mstore\n        /* \"#utility.yul\":7545:7716   */\n      pop\n      jump\t// out\n        /* \"#utility.yul\":7722:8088   */\n    tag_91:\n        /* \"#utility.yul\":7864:7867   */\n      0x00\n        /* \"#utility.yul\":7885:7952   */\n      tag_174\n        /* \"#utility.yul\":7949:7951   */\n      0x15\n        /* \"#utility.yul\":7944:7947   */\n      dup4\n        /* \"#utility.yul\":7885:7952   */\n      tag_81\n      jump\t// in\n    tag_174:\n        /* \"#utility.yul\":7878:7952   */\n      swap2\n      pop\n        /* \"#utility.yul\":7961:8054   */\n      tag_175\n        /* \"#utility.yul\":8050:8053   */\n      dup3\n        /* \"#utility.yul\":7961:8054   */\n      tag_90\n      jump\t// in\n    tag_175:\n        /* \"#utility.yul\":8079:8081   */\n      0x20\n        /* \"#utility.yul\":8074:8077   */\n      dup3\n        /* \"#utility.yul\":8070:8082   */\n      add\n        /* \"#utility.yul\":8063:8082   */\n      swap1\n      pop\n        /* \"#utility.yul\":7722:8088   */\n      swap2\n      swap1\n      pop\n      jump\t// out\n        /* \"#utility.yul\":8094:8513   */\n    tag_55:\n        /* \"#utility.yul\":8260:8264   */\n      0x00\n        /* \"#utility.yul\":8298:8300   */\n      0x20\n        /* \"#utility.yul\":8287:8296   */\n      dup3\n        /* \"#utility.yul\":8283:8301   */\n      add\n        /* \"#utility.yul\":8275:8301   */\n      swap1\n      pop\n        /* \"#utility.yul\":8347:8356   */\n      dup2\n        /* \"#utility.yul\":8341:8345   */\n      dup2\n        /* \"#utility.yul\":8337:8357   */\n      sub\n        /* \"#utility.yul\":8333:8334   */\n      0x00\n        /* \"#utility.yul\":8322:8331   */\n      dup4\n        /* \"#utility.yul\":8318:8335   */\n      add\n        /* \"#utility.yul\":8311:8358   */\n      mstore\n        /* \"#utility.yul\":8375:8506   */\n      tag_177\n        /* \"#utility.yul\":8501:8505   */\n      dup2\n        /* \"#utility.yul\":8375:8506   */\n      tag_91\n      jump\t// in\n    tag_177:\n        /* \"#utility.yul\":8367:8506   */\n      swap1\n      pop\n        /* \"#utility.yul\":8094:8513   */\n      swap2\n      swap1\n      pop\n      jump\t// out\n        /* \"#utility.yul\":8519:8851   */\n    tag_58:\n        /* \"#utility.yul\":8640:8644   */\n      0x00\n        /* \"#utility.yul\":8678:8680   */\n      0x40\n        /* \"#utility.yul\":8667:8676   */\n      dup3\n        /* \"#utility.yul\":8663:8681   */\n      add\n        /* \"#utility.yul\":8655:8681   */\n      swap1\n      pop\n        /* \"#utility.yul\":8691:8762   */\n      tag_179\n        /* \"#utility.yul\":8759:8760   */\n      0x00\n        /* \"#utility.yul\":8748:8757   */\n      dup4\n        /* \"#utility.yul\":8744:8761   */\n      add\n        /* \"#utility.yul\":8735:8741   */\n      dup6\n        /* \"#utility.yul\":8691:8762   */\n      tag_79\n      jump\t// in\n    tag_179:\n        /* \"#utility.yul\":8772:8844   */\n      tag_180\n        /* \"#utility.yul\":8840:8842   */\n      0x20\n        /* \"#utility.yul\":8829:8838   */\n      dup4\n        /* \"#utility.yul\":8825:8843   */\n      add\n        /* \"#utility.yul\":8816:8822   */\n      dup5\n        /* \"#utility.yul\":8772:8844   */\n      tag_86\n      jump\t// in\n    tag_180:\n        /* \"#utility.yul\":8519:8851   */\n      swap4\n      swap3\n      pop\n      pop\n      pop\n      jump\t// out\n\n    auxdata: 0xa264697066735822122034b2b5c21d5032fe7f4e7186644b3725248776ce0ad7acc060edd70c10fc5fe764736f6c634300080d0033\n}\n",
				"bytecode": {
					"linkReferences": {},
					"object": "608060405234801561001057600080fd5b506109d3806100206000396000f3fe6080604052600436106100385760003560e01c80637c153534146100415780638a0ccd561461006c578063c17b7326146100955761003f565b3661003f57005b005b34801561004d57600080fd5b506100566100c0565b60405161006391906105be565b60405180910390f35b34801561007857600080fd5b50610093600480360381019061008e9190610652565b6100e4565b005b3480156100a157600080fd5b506100aa610386565b6040516100b791906105be565b60405180910390f35b60008054906101000a900473ffffffffffffffffffffffffffffffffffffffff1681565b6000339050846000806101000a81548173ffffffffffffffffffffffffffffffffffffffff021916908373ffffffffffffffffffffffffffffffffffffffff16021790555082600160006101000a81548173ffffffffffffffffffffffffffffffffffffffff021916908373ffffffffffffffffffffffffffffffffffffffff1602179055508360008054906101000a900473ffffffffffffffffffffffffffffffffffffffff1673ffffffffffffffffffffffffffffffffffffffff1663dd62ed3e83306040518363ffffffff1660e01b81526004016101c69291906106c8565b602060405180830381865afa1580156101e3573d6000803e3d6000fd5b505050506040513d601f19601f820116820180604052508101906102079190610706565b1015610248576040517f08c379a000000000000000000000000000000000000000000000000000000000815260040161023f90610790565b60405180910390fd5b81600160009054906101000a900473ffffffffffffffffffffffffffffffffffffffff1673ffffffffffffffffffffffffffffffffffffffff166370a08231306040518263ffffffff1660e01b81526004016102a491906107b0565b602060405180830381865afa1580156102c1573d6000803e3d6000fd5b505050506040513d601f19601f820116820180604052508101906102e59190610706565b1015610326576040517f08c379a000000000000000000000000000000000000000000000000000000000815260040161031d9061083d565b60405180910390fd5b61035260008054906101000a900473ffffffffffffffffffffffffffffffffffffffff168230876103ac565b61037f600160009054906101000a900473ffffffffffffffffffffffffffffffffffffffff168284610477565b5050505050565b600160009054906101000a900473ffffffffffffffffffffffffffffffffffffffff1681565b60008473ffffffffffffffffffffffffffffffffffffffff166323b872dd8585856040518463ffffffff1660e01b81526004016103eb9392919061086c565b6020604051808303816000875af115801561040a573d6000803e3d6000fd5b505050506040513d601f19601f8201168201806040525081019061042e91906108db565b905080610470576040517f08c379a000000000000000000000000000000000000000000000000000000000815260040161046790610954565b60405180910390fd5b5050505050565b60008373ffffffffffffffffffffffffffffffffffffffff1663a9059cbb84846040518363ffffffff1660e01b81526004016104b4929190610974565b6020604051808303816000875af11580156104d3573d6000803e3d6000fd5b505050506040513d601f19601f820116820180604052508101906104f791906108db565b905080610539576040517f08c379a000000000000000000000000000000000000000000000000000000000815260040161053090610954565b60405180910390fd5b50505050565b600073ffffffffffffffffffffffffffffffffffffffff82169050919050565b6000819050919050565b600061058461057f61057a8461053f565b61055f565b61053f565b9050919050565b600061059682610569565b9050919050565b60006105a88261058b565b9050919050565b6105b88161059d565b82525050565b60006020820190506105d360008301846105af565b92915050565b600080fd5b60006105e98261053f565b9050919050565b6105f9816105de565b811461060457600080fd5b50565b600081359050610616816105f0565b92915050565b6000819050919050565b61062f8161061c565b811461063a57600080fd5b50565b60008135905061064c81610626565b92915050565b6000806000806080858703121561066c5761066b6105d9565b5b600061067a87828801610607565b945050602061068b8782880161063d565b935050604061069c87828801610607565b92505060606106ad8782880161063d565b91505092959194509250565b6106c2816105de565b82525050565b60006040820190506106dd60008301856106b9565b6106ea60208301846106b9565b9392505050565b60008151905061070081610626565b92915050565b60006020828403121561071c5761071b6105d9565b5b600061072a848285016106f1565b91505092915050565b600082825260208201905092915050565b7f416c6c6f7720746f6b656e46726f6d20746f6f206c6f77000000000000000000600082015250565b600061077a601783610733565b915061078582610744565b602082019050919050565b600060208201905081810360008301526107a98161076d565b9050919050565b60006020820190506107c560008301846106b9565b92915050565b7f496e73756666696369656e742062616c616e636520746f6b656e546f20746f2060008201527f73656e64206261636b20636c69656e7400000000000000000000000000000000602082015250565b6000610827603083610733565b9150610832826107cb565b604082019050919050565b600060208201905081810360008301526108568161081a565b9050919050565b6108668161061c565b82525050565b600060608201905061088160008301866106b9565b61088e60208301856106b9565b61089b604083018461085d565b949350505050565b60008115159050919050565b6108b8816108a3565b81146108c357600080fd5b50565b6000815190506108d5816108af565b92915050565b6000602082840312156108f1576108f06105d9565b5b60006108ff848285016108c6565b91505092915050565b7f546f6b656e207472616e73666572206661696c65640000000000000000000000600082015250565b600061093e601583610733565b915061094982610908565b602082019050919050565b6000602082019050818103600083015261096d81610931565b9050919050565b600060408201905061098960008301856106b9565b610996602083018461085d565b939250505056fea264697066735822122034b2b5c21d5032fe7f4e7186644b3725248776ce0ad7acc060edd70c10fc5fe764736f6c634300080d0033",
					"opcodes": "PUSH1 0x80 PUSH1 0x40 MSTORE CALLVALUE DUP1 ISZERO PUSH2 0x10 JUMPI PUSH1 0x0 DUP1 REVERT JUMPDEST POP PUSH2 0x9D3 DUP1 PUSH2 0x20 PUSH1 0x0 CODECOPY PUSH1 0x0 RETURN INVALID PUSH1 0x80 PUSH1 0x40 MSTORE PUSH1 0x4 CALLDATASIZE LT PUSH2 0x38 JUMPI PUSH1 0x0 CALLDATALOAD PUSH1 0xE0 SHR DUP1 PUSH4 0x7C153534 EQ PUSH2 0x41 JUMPI DUP1 PUSH4 0x8A0CCD56 EQ PUSH2 0x6C JUMPI DUP1 PUSH4 0xC17B7326 EQ PUSH2 0x95 JUMPI PUSH2 0x3F JUMP JUMPDEST CALLDATASIZE PUSH2 0x3F JUMPI STOP JUMPDEST STOP JUMPDEST CALLVALUE DUP1 ISZERO PUSH2 0x4D JUMPI PUSH1 0x0 DUP1 REVERT JUMPDEST POP PUSH2 0x56 PUSH2 0xC0 JUMP JUMPDEST PUSH1 0x40 MLOAD PUSH2 0x63 SWAP2 SWAP1 PUSH2 0x5BE JUMP JUMPDEST PUSH1 0x40 MLOAD DUP1 SWAP2 SUB SWAP1 RETURN JUMPDEST CALLVALUE DUP1 ISZERO PUSH2 0x78 JUMPI PUSH1 0x0 DUP1 REVERT JUMPDEST POP PUSH2 0x93 PUSH1 0x4 DUP1 CALLDATASIZE SUB DUP2 ADD SWAP1 PUSH2 0x8E SWAP2 SWAP1 PUSH2 0x652 JUMP JUMPDEST PUSH2 0xE4 JUMP JUMPDEST STOP JUMPDEST CALLVALUE DUP1 ISZERO PUSH2 0xA1 JUMPI PUSH1 0x0 DUP1 REVERT JUMPDEST POP PUSH2 0xAA PUSH2 0x386 JUMP JUMPDEST PUSH1 0x40 MLOAD PUSH2 0xB7 SWAP2 SWAP1 PUSH2 0x5BE JUMP JUMPDEST PUSH1 0x40 MLOAD DUP1 SWAP2 SUB SWAP1 RETURN JUMPDEST PUSH1 0x0 DUP1 SLOAD SWAP1 PUSH2 0x100 EXP SWAP1 DIV PUSH20 0xFFFFFFFFFFFFFFFFFFFFFFFFFFFFFFFFFFFFFFFF AND DUP2 JUMP JUMPDEST PUSH1 0x0 CALLER SWAP1 POP DUP5 PUSH1 0x0 DUP1 PUSH2 0x100 EXP DUP2 SLOAD DUP2 PUSH20 0xFFFFFFFFFFFFFFFFFFFFFFFFFFFFFFFFFFFFFFFF MUL NOT AND SWAP1 DUP4 PUSH20 0xFFFFFFFFFFFFFFFFFFFFFFFFFFFFFFFFFFFFFFFF AND MUL OR SWAP1 SSTORE POP DUP3 PUSH1 0x1 PUSH1 0x0 PUSH2 0x100 EXP DUP2 SLOAD DUP2 PUSH20 0xFFFFFFFFFFFFFFFFFFFFFFFFFFFFFFFFFFFFFFFF MUL NOT AND SWAP1 DUP4 PUSH20 0xFFFFFFFFFFFFFFFFFFFFFFFFFFFFFFFFFFFFFFFF AND MUL OR SWAP1 SSTORE POP DUP4 PUSH1 0x0 DUP1 SLOAD SWAP1 PUSH2 0x100 EXP SWAP1 DIV PUSH20 0xFFFFFFFFFFFFFFFFFFFFFFFFFFFFFFFFFFFFFFFF AND PUSH20 0xFFFFFFFFFFFFFFFFFFFFFFFFFFFFFFFFFFFFFFFF AND PUSH4 0xDD62ED3E DUP4 ADDRESS PUSH1 0x40 MLOAD DUP4 PUSH4 0xFFFFFFFF AND PUSH1 0xE0 SHL DUP2 MSTORE PUSH1 0x4 ADD PUSH2 0x1C6 SWAP3 SWAP2 SWAP1 PUSH2 0x6C8 JUMP JUMPDEST PUSH1 0x20 PUSH1 0x40 MLOAD DUP1 DUP4 SUB DUP2 DUP7 GAS STATICCALL ISZERO DUP1 ISZERO PUSH2 0x1E3 JUMPI RETURNDATASIZE PUSH1 0x0 DUP1 RETURNDATACOPY RETURNDATASIZE PUSH1 0x0 REVERT JUMPDEST POP POP POP POP PUSH1 0x40 MLOAD RETURNDATASIZE PUSH1 0x1F NOT PUSH1 0x1F DUP3 ADD AND DUP3 ADD DUP1 PUSH1 0x40 MSTORE POP DUP2 ADD SWAP1 PUSH2 0x207 SWAP2 SWAP1 PUSH2 0x706 JUMP JUMPDEST LT ISZERO PUSH2 0x248 JUMPI PUSH1 0x40 MLOAD PUSH32 0x8C379A000000000000000000000000000000000000000000000000000000000 DUP2 MSTORE PUSH1 0x4 ADD PUSH2 0x23F SWAP1 PUSH2 0x790 JUMP JUMPDEST PUSH1 0x40 MLOAD DUP1 SWAP2 SUB SWAP1 REVERT JUMPDEST DUP2 PUSH1 0x1 PUSH1 0x0 SWAP1 SLOAD SWAP1 PUSH2 0x100 EXP SWAP1 DIV PUSH20 0xFFFFFFFFFFFFFFFFFFFFFFFFFFFFFFFFFFFFFFFF AND PUSH20 0xFFFFFFFFFFFFFFFFFFFFFFFFFFFFFFFFFFFFFFFF AND PUSH4 0x70A08231 ADDRESS PUSH1 0x40 MLOAD DUP3 PUSH4 0xFFFFFFFF AND PUSH1 0xE0 SHL DUP2 MSTORE PUSH1 0x4 ADD PUSH2 0x2A4 SWAP2 SWAP1 PUSH2 0x7B0 JUMP JUMPDEST PUSH1 0x20 PUSH1 0x40 MLOAD DUP1 DUP4 SUB DUP2 DUP7 GAS STATICCALL ISZERO DUP1 ISZERO PUSH2 0x2C1 JUMPI RETURNDATASIZE PUSH1 0x0 DUP1 RETURNDATACOPY RETURNDATASIZE PUSH1 0x0 REVERT JUMPDEST POP POP POP POP PUSH1 0x40 MLOAD RETURNDATASIZE PUSH1 0x1F NOT PUSH1 0x1F DUP3 ADD AND DUP3 ADD DUP1 PUSH1 0x40 MSTORE POP DUP2 ADD SWAP1 PUSH2 0x2E5 SWAP2 SWAP1 PUSH2 0x706 JUMP JUMPDEST LT ISZERO PUSH2 0x326 JUMPI PUSH1 0x40 MLOAD PUSH32 0x8C379A000000000000000000000000000000000000000000000000000000000 DUP2 MSTORE PUSH1 0x4 ADD PUSH2 0x31D SWAP1 PUSH2 0x83D JUMP JUMPDEST PUSH1 0x40 MLOAD DUP1 SWAP2 SUB SWAP1 REVERT JUMPDEST PUSH2 0x352 PUSH1 0x0 DUP1 SLOAD SWAP1 PUSH2 0x100 EXP SWAP1 DIV PUSH20 0xFFFFFFFFFFFFFFFFFFFFFFFFFFFFFFFFFFFFFFFF AND DUP3 ADDRESS DUP8 PUSH2 0x3AC JUMP JUMPDEST PUSH2 0x37F PUSH1 0x1 PUSH1 0x0 SWAP1 SLOAD SWAP1 PUSH2 0x100 EXP SWAP1 DIV PUSH20 0xFFFFFFFFFFFFFFFFFFFFFFFFFFFFFFFFFFFFFFFF AND DUP3 DUP5 PUSH2 0x477 JUMP JUMPDEST POP POP POP POP POP JUMP JUMPDEST PUSH1 0x1 PUSH1 0x0 SWAP1 SLOAD SWAP1 PUSH2 0x100 EXP SWAP1 DIV PUSH20 0xFFFFFFFFFFFFFFFFFFFFFFFFFFFFFFFFFFFFFFFF AND DUP2 JUMP JUMPDEST PUSH1 0x0 DUP5 PUSH20 0xFFFFFFFFFFFFFFFFFFFFFFFFFFFFFFFFFFFFFFFF AND PUSH4 0x23B872DD DUP6 DUP6 DUP6 PUSH1 0x40 MLOAD DUP5 PUSH4 0xFFFFFFFF AND PUSH1 0xE0 SHL DUP2 MSTORE PUSH1 0x4 ADD PUSH2 0x3EB SWAP4 SWAP3 SWAP2 SWAP1 PUSH2 0x86C JUMP JUMPDEST PUSH1 0x20 PUSH1 0x40 MLOAD DUP1 DUP4 SUB DUP2 PUSH1 0x0 DUP8 GAS CALL ISZERO DUP1 ISZERO PUSH2 0x40A JUMPI RETURNDATASIZE PUSH1 0x0 DUP1 RETURNDATACOPY RETURNDATASIZE PUSH1 0x0 REVERT JUMPDEST POP POP POP POP PUSH1 0x40 MLOAD RETURNDATASIZE PUSH1 0x1F NOT PUSH1 0x1F DUP3 ADD AND DUP3 ADD DUP1 PUSH1 0x40 MSTORE POP DUP2 ADD SWAP1 PUSH2 0x42E SWAP2 SWAP1 PUSH2 0x8DB JUMP JUMPDEST SWAP1 POP DUP1 PUSH2 0x470 JUMPI PUSH1 0x40 MLOAD PUSH32 0x8C379A000000000000000000000000000000000000000000000000000000000 DUP2 MSTORE PUSH1 0x4 ADD PUSH2 0x467 SWAP1 PUSH2 0x954 JUMP JUMPDEST PUSH1 0x40 MLOAD DUP1 SWAP2 SUB SWAP1 REVERT JUMPDEST POP POP POP POP POP JUMP JUMPDEST PUSH1 0x0 DUP4 PUSH20 0xFFFFFFFFFFFFFFFFFFFFFFFFFFFFFFFFFFFFFFFF AND PUSH4 0xA9059CBB DUP5 DUP5 PUSH1 0x40 MLOAD DUP4 PUSH4 0xFFFFFFFF AND PUSH1 0xE0 SHL DUP2 MSTORE PUSH1 0x4 ADD PUSH2 0x4B4 SWAP3 SWAP2 SWAP1 PUSH2 0x974 JUMP JUMPDEST PUSH1 0x20 PUSH1 0x40 MLOAD DUP1 DUP4 SUB DUP2 PUSH1 0x0 DUP8 GAS CALL ISZERO DUP1 ISZERO PUSH2 0x4D3 JUMPI RETURNDATASIZE PUSH1 0x0 DUP1 RETURNDATACOPY RETURNDATASIZE PUSH1 0x0 REVERT JUMPDEST POP POP POP POP PUSH1 0x40 MLOAD RETURNDATASIZE PUSH1 0x1F NOT PUSH1 0x1F DUP3 ADD AND DUP3 ADD DUP1 PUSH1 0x40 MSTORE POP DUP2 ADD SWAP1 PUSH2 0x4F7 SWAP2 SWAP1 PUSH2 0x8DB JUMP JUMPDEST SWAP1 POP DUP1 PUSH2 0x539 JUMPI PUSH1 0x40 MLOAD PUSH32 0x8C379A000000000000000000000000000000000000000000000000000000000 DUP2 MSTORE PUSH1 0x4 ADD PUSH2 0x530 SWAP1 PUSH2 0x954 JUMP JUMPDEST PUSH1 0x40 MLOAD DUP1 SWAP2 SUB SWAP1 REVERT JUMPDEST POP POP POP POP JUMP JUMPDEST PUSH1 0x0 PUSH20 0xFFFFFFFFFFFFFFFFFFFFFFFFFFFFFFFFFFFFFFFF DUP3 AND SWAP1 POP SWAP2 SWAP1 POP JUMP JUMPDEST PUSH1 0x0 DUP2 SWAP1 POP SWAP2 SWAP1 POP JUMP JUMPDEST PUSH1 0x0 PUSH2 0x584 PUSH2 0x57F PUSH2 0x57A DUP5 PUSH2 0x53F JUMP JUMPDEST PUSH2 0x55F JUMP JUMPDEST PUSH2 0x53F JUMP JUMPDEST SWAP1 POP SWAP2 SWAP1 POP JUMP JUMPDEST PUSH1 0x0 PUSH2 0x596 DUP3 PUSH2 0x569 JUMP JUMPDEST SWAP1 POP SWAP2 SWAP1 POP JUMP JUMPDEST PUSH1 0x0 PUSH2 0x5A8 DUP3 PUSH2 0x58B JUMP JUMPDEST SWAP1 POP SWAP2 SWAP1 POP JUMP JUMPDEST PUSH2 0x5B8 DUP2 PUSH2 0x59D JUMP JUMPDEST DUP3 MSTORE POP POP JUMP JUMPDEST PUSH1 0x0 PUSH1 0x20 DUP3 ADD SWAP1 POP PUSH2 0x5D3 PUSH1 0x0 DUP4 ADD DUP5 PUSH2 0x5AF JUMP JUMPDEST SWAP3 SWAP2 POP POP JUMP JUMPDEST PUSH1 0x0 DUP1 REVERT JUMPDEST PUSH1 0x0 PUSH2 0x5E9 DUP3 PUSH2 0x53F JUMP JUMPDEST SWAP1 POP SWAP2 SWAP1 POP JUMP JUMPDEST PUSH2 0x5F9 DUP2 PUSH2 0x5DE JUMP JUMPDEST DUP2 EQ PUSH2 0x604 JUMPI PUSH1 0x0 DUP1 REVERT JUMPDEST POP JUMP JUMPDEST PUSH1 0x0 DUP2 CALLDATALOAD SWAP1 POP PUSH2 0x616 DUP2 PUSH2 0x5F0 JUMP JUMPDEST SWAP3 SWAP2 POP POP JUMP JUMPDEST PUSH1 0x0 DUP2 SWAP1 POP SWAP2 SWAP1 POP JUMP JUMPDEST PUSH2 0x62F DUP2 PUSH2 0x61C JUMP JUMPDEST DUP2 EQ PUSH2 0x63A JUMPI PUSH1 0x0 DUP1 REVERT JUMPDEST POP JUMP JUMPDEST PUSH1 0x0 DUP2 CALLDATALOAD SWAP1 POP PUSH2 0x64C DUP2 PUSH2 0x626 JUMP JUMPDEST SWAP3 SWAP2 POP POP JUMP JUMPDEST PUSH1 0x0 DUP1 PUSH1 0x0 DUP1 PUSH1 0x80 DUP6 DUP8 SUB SLT ISZERO PUSH2 0x66C JUMPI PUSH2 0x66B PUSH2 0x5D9 JUMP JUMPDEST JUMPDEST PUSH1 0x0 PUSH2 0x67A DUP8 DUP3 DUP9 ADD PUSH2 0x607 JUMP JUMPDEST SWAP5 POP POP PUSH1 0x20 PUSH2 0x68B DUP8 DUP3 DUP9 ADD PUSH2 0x63D JUMP JUMPDEST SWAP4 POP POP PUSH1 0x40 PUSH2 0x69C DUP8 DUP3 DUP9 ADD PUSH2 0x607 JUMP JUMPDEST SWAP3 POP POP PUSH1 0x60 PUSH2 0x6AD DUP8 DUP3 DUP9 ADD PUSH2 0x63D JUMP JUMPDEST SWAP2 POP POP SWAP3 SWAP6 SWAP2 SWAP5 POP SWAP3 POP JUMP JUMPDEST PUSH2 0x6C2 DUP2 PUSH2 0x5DE JUMP JUMPDEST DUP3 MSTORE POP POP JUMP JUMPDEST PUSH1 0x0 PUSH1 0x40 DUP3 ADD SWAP1 POP PUSH2 0x6DD PUSH1 0x0 DUP4 ADD DUP6 PUSH2 0x6B9 JUMP JUMPDEST PUSH2 0x6EA PUSH1 0x20 DUP4 ADD DUP5 PUSH2 0x6B9 JUMP JUMPDEST SWAP4 SWAP3 POP POP POP JUMP JUMPDEST PUSH1 0x0 DUP2 MLOAD SWAP1 POP PUSH2 0x700 DUP2 PUSH2 0x626 JUMP JUMPDEST SWAP3 SWAP2 POP POP JUMP JUMPDEST PUSH1 0x0 PUSH1 0x20 DUP3 DUP5 SUB SLT ISZERO PUSH2 0x71C JUMPI PUSH2 0x71B PUSH2 0x5D9 JUMP JUMPDEST JUMPDEST PUSH1 0x0 PUSH2 0x72A DUP5 DUP3 DUP6 ADD PUSH2 0x6F1 JUMP JUMPDEST SWAP2 POP POP SWAP3 SWAP2 POP POP JUMP JUMPDEST PUSH1 0x0 DUP3 DUP3 MSTORE PUSH1 0x20 DUP3 ADD SWAP1 POP SWAP3 SWAP2 POP POP JUMP JUMPDEST PUSH32 0x416C6C6F7720746F6B656E46726F6D20746F6F206C6F77000000000000000000 PUSH1 0x0 DUP3 ADD MSTORE POP JUMP JUMPDEST PUSH1 0x0 PUSH2 0x77A PUSH1 0x17 DUP4 PUSH2 0x733 JUMP JUMPDEST SWAP2 POP PUSH2 0x785 DUP3 PUSH2 0x744 JUMP JUMPDEST PUSH1 0x20 DUP3 ADD SWAP1 POP SWAP2 SWAP1 POP JUMP JUMPDEST PUSH1 0x0 PUSH1 0x20 DUP3 ADD SWAP1 POP DUP2 DUP2 SUB PUSH1 0x0 DUP4 ADD MSTORE PUSH2 0x7A9 DUP2 PUSH2 0x76D JUMP JUMPDEST SWAP1 POP SWAP2 SWAP1 POP JUMP JUMPDEST PUSH1 0x0 PUSH1 0x20 DUP3 ADD SWAP1 POP PUSH2 0x7C5 PUSH1 0x0 DUP4 ADD DUP5 PUSH2 0x6B9 JUMP JUMPDEST SWAP3 SWAP2 POP POP JUMP JUMPDEST PUSH32 0x496E73756666696369656E742062616C616E636520746F6B656E546F20746F20 PUSH1 0x0 DUP3 ADD MSTORE PUSH32 0x73656E64206261636B20636C69656E7400000000000000000000000000000000 PUSH1 0x20 DUP3 ADD MSTORE POP JUMP JUMPDEST PUSH1 0x0 PUSH2 0x827 PUSH1 0x30 DUP4 PUSH2 0x733 JUMP JUMPDEST SWAP2 POP PUSH2 0x832 DUP3 PUSH2 0x7CB JUMP JUMPDEST PUSH1 0x40 DUP3 ADD SWAP1 POP SWAP2 SWAP1 POP JUMP JUMPDEST PUSH1 0x0 PUSH1 0x20 DUP3 ADD SWAP1 POP DUP2 DUP2 SUB PUSH1 0x0 DUP4 ADD MSTORE PUSH2 0x856 DUP2 PUSH2 0x81A JUMP JUMPDEST SWAP1 POP SWAP2 SWAP1 POP JUMP JUMPDEST PUSH2 0x866 DUP2 PUSH2 0x61C JUMP JUMPDEST DUP3 MSTORE POP POP JUMP JUMPDEST PUSH1 0x0 PUSH1 0x60 DUP3 ADD SWAP1 POP PUSH2 0x881 PUSH1 0x0 DUP4 ADD DUP7 PUSH2 0x6B9 JUMP JUMPDEST PUSH2 0x88E PUSH1 0x20 DUP4 ADD DUP6 PUSH2 0x6B9 JUMP JUMPDEST PUSH2 0x89B PUSH1 0x40 DUP4 ADD DUP5 PUSH2 0x85D JUMP JUMPDEST SWAP5 SWAP4 POP POP POP POP JUMP JUMPDEST PUSH1 0x0 DUP2 ISZERO ISZERO SWAP1 POP SWAP2 SWAP1 POP JUMP JUMPDEST PUSH2 0x8B8 DUP2 PUSH2 0x8A3 JUMP JUMPDEST DUP2 EQ PUSH2 0x8C3 JUMPI PUSH1 0x0 DUP1 REVERT JUMPDEST POP JUMP JUMPDEST PUSH1 0x0 DUP2 MLOAD SWAP1 POP PUSH2 0x8D5 DUP2 PUSH2 0x8AF JUMP JUMPDEST SWAP3 SWAP2 POP POP JUMP JUMPDEST PUSH1 0x0 PUSH1 0x20 DUP3 DUP5 SUB SLT ISZERO PUSH2 0x8F1 JUMPI PUSH2 0x8F0 PUSH2 0x5D9 JUMP JUMPDEST JUMPDEST PUSH1 0x0 PUSH2 0x8FF DUP5 DUP3 DUP6 ADD PUSH2 0x8C6 JUMP JUMPDEST SWAP2 POP POP SWAP3 SWAP2 POP POP JUMP JUMPDEST PUSH32 0x546F6B656E207472616E73666572206661696C65640000000000000000000000 PUSH1 0x0 DUP3 ADD MSTORE POP JUMP JUMPDEST PUSH1 0x0 PUSH2 0x93E PUSH1 0x15 DUP4 PUSH2 0x733 JUMP JUMPDEST SWAP2 POP PUSH2 0x949 DUP3 PUSH2 0x908 JUMP JUMPDEST PUSH1 0x20 DUP3 ADD SWAP1 POP SWAP2 SWAP1 POP JUMP JUMPDEST PUSH1 0x0 PUSH1 0x20 DUP3 ADD SWAP1 POP DUP2 DUP2 SUB PUSH1 0x0 DUP4 ADD MSTORE PUSH2 0x96D DUP2 PUSH2 0x931 JUMP JUMPDEST SWAP1 POP SWAP2 SWAP1 POP JUMP JUMPDEST PUSH1 0x0 PUSH1 0x40 DUP3 ADD SWAP1 POP PUSH2 0x989 PUSH1 0x0 DUP4 ADD DUP6 PUSH2 0x6B9 JUMP JUMPDEST PUSH2 0x996 PUSH1 0x20 DUP4 ADD DUP5 PUSH2 0x85D JUMP JUMPDEST SWAP4 SWAP3 POP POP POP JUMP INVALID LOG2 PUSH5 0x6970667358 0x22 SLT KECCAK256 CALLVALUE 0xB2 0xB5 0xC2 SAR POP ORIGIN INVALID PUSH32 0x4E7186644B3725248776CE0AD7ACC060EDD70C10FC5FE764736F6C634300080D STOP CALLER "
				},
				"gasEstimates": {
					"creation": {
						"codeDepositCost": "503000",
						"executionCost": "537",
						"totalCost": "503537"
					},
					"external": {
						"": "129",
						"swap(address,uint256,address,uint256)": "infinite",
						"tokenFrom()": "infinite",
						"tokenTo()": "infinite"
					},
					"internal": {
						"_safeTransfer(contract IERC20,address,uint256)": "infinite",
						"_safeTransferFrom(contract IERC20,address,address,uint256)": "infinite"
					}
				},
				"methodIdentifiers": {
					"swap(address,uint256,address,uint256)": "8a0ccd56",
					"tokenFrom()": "7c153534",
					"tokenTo()": "c17b7326"
				}
			},
			"userdoc": {
				"kind": "user",
				"methods": {},
				"version": 1
			}
		}
	}
}