{
  "contractName": "Hero",
  "abi": [
    {
      "inputs": [
        {
          "internalType": "string",
          "name": "_hero",
          "type": "string"
        }
      ],
      "stateMutability": "nonpayable",
      "type": "constructor"
    },
    {
      "inputs": [
        {
          "internalType": "string",
          "name": "_hero",
          "type": "string"
        }
      ],
      "name": "setHero",
      "outputs": [],
      "stateMutability": "nonpayable",
      "type": "function"
    },
    {
      "inputs": [],
      "name": "getHero",
      "outputs": [
        {
          "internalType": "string",
          "name": "",
          "type": "string"
        }
      ],
      "stateMutability": "view",
      "type": "function"
    }
  ],
  "bytecode": "0x60806040523480156200001157600080fd5b506040516200094a3803806200094a8339818101604052810190620000379190620002e4565b336000806101000a81548173ffffffffffffffffffffffffffffffffffffffff021916908373ffffffffffffffffffffffffffffffffffffffff16021790555080600190805190602001906200008f92919062000097565b505062000399565b828054620000a59062000364565b90600052602060002090601f016020900481019282620000c9576000855562000115565b82601f10620000e457805160ff191683800117855562000115565b8280016001018555821562000115579182015b8281111562000114578251825591602001919060010190620000f7565b5b50905062000124919062000128565b5090565b5b808211156200014357600081600090555060010162000129565b5090565b6000604051905090565b600080fd5b600080fd5b600080fd5b600080fd5b6000601f19601f8301169050919050565b7f4e487b7100000000000000000000000000000000000000000000000000000000600052604160045260246000fd5b620001b08262000165565b810181811067ffffffffffffffff82111715620001d257620001d162000176565b5b80604052505050565b6000620001e762000147565b9050620001f58282620001a5565b919050565b600067ffffffffffffffff82111562000218576200021762000176565b5b620002238262000165565b9050602081019050919050565b60005b838110156200025057808201518184015260208101905062000233565b8381111562000260576000848401525b50505050565b60006200027d6200027784620001fa565b620001db565b9050828152602081018484840111156200029c576200029b62000160565b5b620002a984828562000230565b509392505050565b600082601f830112620002c957620002c86200015b565b5b8151620002db84826020860162000266565b91505092915050565b600060208284031215620002fd57620002fc62000151565b5b600082015167ffffffffffffffff8111156200031e576200031d62000156565b5b6200032c84828501620002b1565b91505092915050565b7f4e487b7100000000000000000000000000000000000000000000000000000000600052602260045260246000fd5b600060028204905060018216806200037d57607f821691505b60208210810362000393576200039262000335565b5b50919050565b6105a180620003a96000396000f3fe608060405234801561001057600080fd5b50600436106100365760003560e01c80631a126e141461003b578063581bee2f14610057575b600080fd5b610055600480360381019061005091906103ac565b610075565b005b61005f61011d565b60405161006c919061047d565b60405180910390f35b60008054906101000a900473ffffffffffffffffffffffffffffffffffffffff1673ffffffffffffffffffffffffffffffffffffffff163373ffffffffffffffffffffffffffffffffffffffff1614610103576040517f08c379a00000000000000000000000000000000000000000000000000000000081526004016100fa906104eb565b60405180910390fd5b80600190805190602001906101199291906101af565b5050565b60606001805461012c9061053a565b80601f01602080910402602001604051908101604052809291908181526020018280546101589061053a565b80156101a55780601f1061017a576101008083540402835291602001916101a5565b820191906000526020600020905b81548152906001019060200180831161018857829003601f168201915b5050505050905090565b8280546101bb9061053a565b90600052602060002090601f0160209004810192826101dd5760008555610224565b82601f106101f657805160ff1916838001178555610224565b82800160010185558215610224579182015b82811115610223578251825591602001919060010190610208565b5b5090506102319190610235565b5090565b5b8082111561024e576000816000905550600101610236565b5090565b6000604051905090565b600080fd5b600080fd5b600080fd5b600080fd5b6000601f19601f8301169050919050565b7f4e487b7100000000000000000000000000000000000000000000000000000000600052604160045260246000fd5b6102b982610270565b810181811067ffffffffffffffff821117156102d8576102d7610281565b5b80604052505050565b60006102eb610252565b90506102f782826102b0565b919050565b600067ffffffffffffffff82111561031757610316610281565b5b61032082610270565b9050602081019050919050565b82818337600083830152505050565b600061034f61034a846102fc565b6102e1565b90508281526020810184848401111561036b5761036a61026b565b5b61037684828561032d565b509392505050565b600082601f83011261039357610392610266565b5b81356103a384826020860161033c565b91505092915050565b6000602082840312156103c2576103c161025c565b5b600082013567ffffffffffffffff8111156103e0576103df610261565b5b6103ec8482850161037e565b91505092915050565b600081519050919050565b600082825260208201905092915050565b60005b8381101561042f578082015181840152602081019050610414565b8381111561043e576000848401525b50505050565b600061044f826103f5565b6104598185610400565b9350610469818560208601610411565b61047281610270565b840191505092915050565b600060208201905081810360008301526104978184610444565b905092915050565b7f4e6f7420746865206f776e657200000000000000000000000000000000000000600082015250565b60006104d5600d83610400565b91506104e08261049f565b602082019050919050565b60006020820190508181036000830152610504816104c8565b9050919050565b7f4e487b7100000000000000000000000000000000000000000000000000000000600052602260045260246000fd5b6000600282049050600182168061055257607f821691505b6020821081036105655761056461050b565b5b5091905056fea2646970667358221220452602fff822cd13697c37daf4795538001c336d01694f98d2a3ae58d8322dbb64736f6c634300080d0033",
  "immutableReferences": {},
  "source": "// SPDX-License-Identifier: MIT\npragma solidity >=0.4.22 <0.9.0;\n\ncontract Hero{\n    address owner;\n    string hero;\n    constructor(string memory _hero)\n    {\n        owner=msg.sender;\n        hero=_hero;\n    }\n    \n    function setHero(string memory _hero)public\n    {\n        require(msg.sender==owner,\"Not the owner\");\n        hero =_hero;\n    }\n    function getHero() public view returns(string memory)\n    {\n        return hero;\n    }\n    \n}",
  "sourcePath": "/home/namnd5/Data/base-trans/contracts/Hero.sol",
  "compiler": {
    "name": "solc",
    "version": "0.8.13+commit.abaa5c0e.Emscripten.clang"
  },
  "schemaVersion": "3.4.6",
  "updatedAt": "2022-04-05T06:43:29.217Z",
  "devdoc": {
    "kind": "dev",
    "methods": {},
    "version": 1
  },
  "userdoc": {
    "kind": "user",
    "methods": {},
    "version": 1
  }
}